:100000000C94F4000C94FC0F0C94D50F0C941C0170
:100010000C941C010C941C010C941C010C941C01EC
:100020000C941C010C941C010C941C010C94FB06F8
:100030000C941C010C941C010C941C010C941C01CC
:100040000C948B0F0C941C010C94590E0C94330ED1
:100050000C941C010C941C010C941C010C941C01AC
:100060000C9423100C941C01A408E208F4084C0919
:1000700061096C0980098B099609A109AC0900FF87
:100080001A1A80CC0000FFB3000097A0895B5A0FBA
:10009000830DC95F6035C2E907E18C24671E458E78
:1000A000086325F0150A17BE0694F778EA4B001A84
:1000B000C53E5EFCDBCB75230B2039B12158ED9595
:1000C0003857AE147D88ABA844AF4AA547868B301D
:1000D0001BA64D929EE7536FE57A3CD385E6DC691B
:1000E0005C29372EF528F4668F3641193FA101D8D7
:1000F0005049D14C84BBD05912A9C8C4878274BC62
:100100009F56A4646DC6ADBA034034D9E2FA7C7B35
:1001100005CA2693767EFF5255D4CFCE3BE32F10EF
:100120003A11B6BD1C2ADFB7AAD577F898022C9AE7
:10013000A346DD99659BA72BAC09811627FD1362A9
:100140006C6E4F71E0E8B2B97068DAF661E4FB22D8
:10015000F2C1EED2900CBFB3A2F1513391EBF90E84
:10016000EF6B31C0D61FB5C76A9DB854CCB0737958
:10017000322D7F0496FE8AECCD5DDE72431D184859
:10018000F38D80C34E42D73D9CB497000000080019
:10019000020100000304070000000000000000014D
:1001A000020408102040800102040810200102040B
:1001B0000810200000000023002600290004040489
:1001C0000404040404020202020202030303030300
:1001D0000300000000240027002A00000000002582
:1001E0000028002B0000631D11241FBECFEFD8E0B4
:1001F000DEBFCDBF14E0A0E0B1E0E4EFF6E402C062
:1002000005900D92A630B107D9F726E0A6E0B4E03C
:1002100001C01D92AE3EB207E1F710E0C4EFD0E09E
:1002200004C02197FE010E942522C33FD107C9F7D0
:100230000E94AB120C9478230C94000080E991E0AA
:1002400008953A9A08954F925F926F927F928F929B
:10025000AF92BF92CF92EF92FF920F931F93CF93E3
:10026000DF933C01EB010E94200FF30127853089C9
:10027000621B730B6A307105B0F3F894E881F98161
:1002800058B1546088B18B7F88B96A859F81262FC9
:10029000291B922F2F83BF844A805B807D85FC843D
:1002A000EE847F5FF394E3943E814885A984CB84F8
:1002B0001181D20120E0C32F022F322F318111276B
:1002C00088943111390F08F43FEF9195889470FDAF
:1002D000130F1795889471FD130F1795889472FD6D
:1002E000130F1795889473FD130F1795889474FD59
:1002F000130F1795889475FD130F1795889476FD45
:10030000130F1795889477FD130F17958894232F53
:100310007111212F960F122F002C58B900C017FF12
:1003200088B930812227889400C000C0002C88B989
:1003300031113C0F00C0002C58B900C016FF88B91D
:1003400008F43FEFC195889400C000C0002C88B924
:10035000F0FC230F00C0002C58B900C015FF88B96D
:1003600027958894F1FC230F00C000C0002C88B9A9
:100370002795889400C0002C58B900C014FF88B994
:10038000F2FC230F2795889400C000C0002C88B988
:10039000F3FC230F00C0002C58B900C013FF88B92C
:1003A00027958894F4FC230F00C000C0002C88B966
:1003B0002795889400C0002C58B900C012FF88B956
:1003C000F5FC230F2795889400C000C0002C88B945
:1003D000F6FC230F00C0002C58B900C011FF88B9EB
:1003E00027958894F7FC230F00C000C0002C88B923
:1003F0002795889400C0002C58B900C010FF88B918
:10040000132FF110122FCA0D00C000C0002C88B9A4
:1004100000C000C0002C58B900C017FF88B9328155
:100420002227889400C000C0002C88B93111340FF5
:1004300000C0002C58B900C016FF88B908F43FEF7F
:10044000EB0DF11D00C000C0002C88B9E0FC230FAB
:1004500000C0002C58B900C015FF88B927958894B2
:10046000E1FC230F00C000C0002C88B927958894B8
:1004700000C0002C58B900C014FF88B9E2FC230F5B
:100480002795889400C000C0002C88B9E3FC230F96
:1004900000C0002C58B900C013FF88B92795889474
:1004A000E4FC230F00C000C0002C88B92795889475
:1004B00000C0002C58B900C012FF88B9E5FC230F1A
:1004C0002795889400C000C0002C88B9E6FC230F53
:1004D00000C0002C58B900C011FF88B92795889436
:1004E000E7FC230F00C000C0002C88B92795889432
:1004F00000C0002C58B900C010FF88B9132FE110BC
:10050000122F419500C000C0002C88B94C0D00C0CE
:1005100000C058B900C017FF88B9318122278894DC
:1005200000C000C0002C88B93111390F00C0002C68
:1005300058B900C016FF88B908F43FEF9195889428
:1005400000C000C0002C88B970FD230F00C0002C33
:1005500058B900C015FF88B92795889471FD230FFD
:1005600000C000C0002C88B92795889400C0002CDA
:1005700058B900C014FF88B972FD230F27958894DD
:1005800000C000C0002C88B973FD230F00C0002CF0
:1005900058B900C013FF88B92795889474FD230FBC
:1005A00000C000C0002C88B92795889400C0002C9A
:1005B00058B900C012FF88B975FD230F279588949C
:1005C00000C000C0002C88B976FD230F00C0002CAD
:1005D00058B900C011FF88B92795889477FD230F7B
:1005E00000C000C0002C88B92795889400C0002C5A
:1005F00058B900C010FF88B9132F7111122F960F30
:1006000000C000C0002C88B9119709F086CE20EEFA
:1006100031E0D2010E942B22DC01CB01F4E0B6953F
:10062000A79597958795FA95D1F720E030E0A90135
:100630006AE9469E040C411D569E400D511D112431
:10064000450D511D840F951FA11DB11D893E43E02D
:100650009407A105B10508F434C0885E9340A10950
:10066000B10942E0B695A795979587954A95D1F738
:1006700047E0849F080E211D949F200D311D1124F9
:10068000290F311D60916B0470E0860F971F820F58
:10069000931F4091BA065091BB066091BC067091C1
:1006A000BD06292F3327420F531F611D711D409333
:1006B000BA065093BB066093BC067093BD06809348
:1006C0006B0478940E94200FF301708B6787DF9191
:1006D000CF911F910F91FF90EF90CF90BF90AF906F
:1006E0008F907F906F905F904F9008950F931F931E
:1006F000CF93DF93CDB7DEB762970FB6F894DEBF26
:100700000FBECDBF8C01F901DC011C968C917A8360
:1007100069835C834B835E834D8390819D87918148
:100720009E8792819F87813029F4CE0101960E9495
:100730005E1206C01C861B861A86198618861F82C2
:1007400083E0888B1A8A198AD801ED91FC91048480
:10075000F585E02DBE016F5F7F4FC8010995629658
:100760000FB6F894DEBF0FBECDBFDF91CF911F91C2
:100770000F9108950F931F93CF93DF93CDB7DEB7FB
:1007800062970FB6F894DEBF0FBECDBF8C01F901A2
:10079000DC011C968C917A8369835C834B835E8336
:1007A0004D8390819D8791819E8792819F87813023
:1007B00029F4CE0101960E945E1206C01C861B869B
:1007C0001A86198618861F82188A1A8A198AD801E9
:1007D000ED91FC910484F585E02DBE016F5F7F4FA4
:1007E000C801099562960FB6F894DEBF0FBECDBF63
:1007F000DF91CF911F910F910895FF920F931F9357
:10080000CF93DF93DC01ED91FC91AF2F31E03F0FEF
:10081000321301C030E0EF01DD278B010A0F111DFB
:10082000D801FC90DB01A30FB11D3C913C9F8001DE
:100830003D9F100D1124A0E0B1E0AC1BBD0BFA9E52
:10084000B001FB9E700D1124600F711F4E0F5F1FD2
:1008500030E0322F22274217530710F0421B530B70
:10086000DC014D935C93872FDF91CF911F910F9106
:10087000FF90089580E090E00895FC0185859685BD
:100880000895CF93DF9300D000D000D0CDB7DEB76E
:10089000AB011C821D821E82DC01ED91FC91019056
:1008A000F081E02D19821A821B829E012F5F3F4F3B
:1008B000BE016C5F7F4F099526960FB6F894DEBF98
:1008C0000FBECDBFDF91CF910895DC01ED91FD9179
:1008D0008081ED91FD919081ED91FD916C9163701E
:1008E0008E2309F064609F2309F06860E2E8F4E079
:1008F000E60FF11D659565956D936D917D918D91D7
:100900009D91099423C01AC012C016C010C01EC009
:1009100009C014C013C006C019C009C00DC007C06B
:100920000DC014C062507040804090400BC06150B8
:1009300070408040904006C06E5F01C06F5F7F4F87
:100940008F4F9F4F9E938E937E936E9308958091C9
:10095000C3059091C4050C9465048091C1059091E4
:10096000C2050C94650480910F04909110040197C6
:1009700009F040C083E090E09093100480930F044E
:100980006091080482E090E00E94FB0B60910D01F1
:1009900083E090E00E94FB0B6091160184E090E000
:1009A0000E94FB0B6091120185E090E00E94FB0B1E
:1009B0006091090186E090E00E94FB0B60910B01C1
:1009C00087E090E00E94FB0B60910E018CE090E0CC
:1009D0000E94FB0B609103018BE090E00E94FB0BF7
:1009E0006AE280E090E00E94FB0B60E081E090E032
:1009F0000C94FB0B089580910F0490911004892BA7
:100A000031F482E090E09093100480930F040895F5
:100A1000DC01FB018081918111969C938E938281F0
:100A2000938113969C938E9312978481958115964A
:100A30009C938E931497868116968C931697878134
:100A4000908518969C938E931797818592851A9618
:100A50009C938E931997838594851C969C938E9373
:100A60001B97CD010D96635F7F4F8617970710F494
:100A70000C94300AFD96DD9680E390E0FF01DD01E5
:100A800080FF05C002C002900E9202900E9282502A
:100A9000D0F79040C0F708952F923F924F925F9207
:100AA0006F927F928F929F92AF92BF92CF92DF927E
:100AB000EF92FF920F931F93CF93DF93CDB7DEB7E3
:100AC000CB54D1090FB6F894DEBF0FBECDBF8C0159
:100AD000DC011796FC9017971996EC9019971B96C6
:100AE000DC90D982EA82FB82BE01625C7F4FCE013C
:100AF00001960E94B811D982EA82FB82BE01625C33
:100B00007F4FCE0101960E94B8119EAC8FAC21960A
:100B1000BFAD21972296BFAF2297B801CE010196B3
:100B20000E94080580910C04823009F05BC0E090BF
:100B30000804F0900904C980DA801BE4612E16E0F5
:100B4000712E60E070E000E010E040E050E0F6015F
:100B5000E60FF71F9801255B394F4E155F0579F4B5
:100B6000D301BC90B082D90111969C9111979183C9
:100B700012968C918283B3829483858320C0D9019D
:100B800012968C91129790E024E0959587952A957E
:100B9000E1F711962C9130E0A4E035952795AA95C0
:100BA000E1F7D301AC90B12CB4E0B594A794BA9519
:100BB000E1F7A082218382831382148215820D5F64
:100BC0001F4F1682178210864F5F5F4F675F7F4F00
:100BD000B3E06B0E711C4C30510509F0B8CF04E244
:100BE00010E002C000E010E02B803C802101032CCB
:100BF000000C66087708E1E04E1A51086108710898
:100C000080910D0490910E049C01990F440B550B9B
:100C100028962CAF3DAF4EAF5FAF289723E630E06C
:100C2000D8010E942B229801220F331FA901400FE7
:100C3000511F29813A81D901A40FB51F2496BFAF56
:100C4000AEAF2497C12CD12C7601A12CB12C9B01E5
:100C5000AC0123563109410951092C962CAF3DAF07
:100C60004EAF5FAF2C9702151305CCF52C966CADEB
:100C70007DAD8EAD9FAD2C976C0D7D1D8E1D9F1D86
:100C8000A30192010E945B20DA01C9010196A11D16
:100C9000B11D2496EEADFFAD2497EA0DFB1D2896FD
:100CA0002CAD3DAD4EAD5FAD289782179307A407DD
:100CB000B5073CF49082818222963FAD2297328321
:100CC00003C01082118212820F5F1F4F43E0A40EF7
:100CD000B11C53E6C50ED11CE11CF11CC4CF0E940F
:100CE000DE0AC55BDF4F0FB6F894DEBF0FBECDBF87
:100CF000DF91CF911F910F91FF90EF90DF90CF90F8
:100D0000BF90AF909F908F907F906F905F904F902B
:100D10003F902F900895AF92BF92CF92DF92EF92C3
:100D2000FF920F931F93CF93DF93CDB7DEB7ED976D
:100D30000FB6F894DEBF0FBECDBF7C016B015A0128
:100D400001ED15E01E141F041CF4F801F086E78283
:100D50001C141D041CF4F801D286C1861A141B044D
:100D60001CF4F801B486A386B801CE0101960E9456
:100D70000805CE0101960E944C05035C1F4FF6E06A
:100D80000B341F07F9F6ED960FB6F894DEBF0FBED1
:100D9000CDBFDF91CF911F910F91FF90EF90DF902A
:100DA000CF90BF90AF900895CF93DF93CDB7DEB7CC
:100DB000ED970FB6F894DEBF0FBECDBF61ED75E0C5
:100DC000CE0101960E940805CE0101960E944C05B5
:100DD0006EE076E0CE0101960E940805CE010196F4
:100DE0000E944C05ED960FB6F894DEBF0FBECDBF46
:100DF000DF91CF9108951F920F920FB60F92112499
:100E00002F933F934F935F936F937F938F939F9312
:100E1000AF93BF93EF93FF9340911401509115014D
:100E20002DEC66E272E080E794E00E94FD034091C1
:100E300010015091110125E861EA71E08EE694E01D
:100E40000E94FD03409107015091080125E86CE1E3
:100E500071E08CE694E00E94FD03FF91EF91BF9159
:100E6000AF919F918F917F916F915F914F913F9142
:100E70002F910F900FBE0F901F901895CF92DF9279
:100E8000EF92FF92CF93DF93EC01688179818A81A1
:100E90009B819B01AC010E94551F20E030E0A9011D
:100EA0000E949D206B017C016C817D818E819F81E0
:100EB0009B01AC010E94551F9B01AC01C701B6010B
:100EC0000E949D206B017C01688579858A859B85C0
:100ED0009B01AC010E94551F9B01AC01C701B601EB
:100EE0000E949D20DF91CF91FF90EF90DF90CF90F7
:100EF0000C94BC21AF92BF92CF92DF92EF92FF92FF
:100F00000F931F93CF93DF9300D000D000D0CDB7C5
:100F1000DEB78B01EE24E394E0929B0478E6F72E93
:100F2000F092BD0410929C041092BE04682F8EE5CE
:100F300095E00E948B110E94150CE0929B04F092A8
:100F4000BD0410929C041092BE0480919A048111F9
:100F5000FCCF81E080939A04809399049FEF909353
:100F600098041092970495E09093960480937504EA
:100F700080917504806D8093750480917404813034
:100F800041F410927404809175048093BB0085EC49
:100F900001C085EE8093BC0080919A048130E1F31A
:100FA00080919704863018F4F090970402C066E0B0
:100FB000F62EA6E7B4E029E736E0F9018E2F821B72
:100FC0008F1518F48D918193F9CF10920704F09248
:100FD000060486E08F1580F0FE0131965F016F01F7
:100FE0008C2D8A198F1588F48EE595E00E94150ED8
:100FF000F60181936F01F4CF56E0E52E8EE595E082
:101000000E94150EEA94E110F9CF0E94150CF6E04B
:10101000FF1611F080E01AC0898190E0982F882790
:101020002A81822BF801918380838B8190E0982F15
:1010300088272C81822B938382838D8190E0982F47
:1010400088272E81822B9583848381E026960FB694
:10105000F894DEBF0FBECDBFDF91CF911F910F91EE
:10106000FF90EF90DF90CF90BF90AF90089516164D
:1010700017063CF4281B390B621773077CF49B019D
:101080000DC06115710541F0481B590B9B01641798
:10109000750724F49A0102C020E030E0820F931F0C
:1010A0000895CF93DF938091D005823030F4F89487
:1010B00085EC95E00E94650401C0F8948091CC0510
:1010C0009091CD05A091CE05B091CF0578949C016B
:1010D00097FF02C02D5F3F4F359527953595279592
:1010E0002115310509F466C16CEF6203A001639F0D
:1010F000500D1124F894840F951F092E000CAA0B93
:10110000BB0B8093CC059093CD05A093CE05B093F7
:10111000CF057894CC27DD27C21BD30B80910C041C
:10112000813009F429C120F0823009F428C13EC180
:10113000E0910804F0910904EB30F10508F036C1A4
:10114000EC5CFF4F0C94252228E030E041E050E0B9
:10115000BE0180910301909104010E943708909391
:1011600004018093030120910F0430911004223078
:101170003105D9F03CF42115310559F02130310504
:1011800079F014C12330310521F02430310599F074
:101190000DC11C161D060CF009C10E94FB0406C1FE
:1011A000D7FF04C10E94B30401C1D7FFFFC001975C
:1011B00009F0FCC0F7CFD7FFF9C0109210041092CD
:1011C0000F04F4C0BE0144E0660F771F4A95E1F7B3
:1011D00080910D012FEF30E040E050E090E00E9460
:1011E000370880930D01E2C027E030E040E050E096
:1011F000BE0180917204909173040E94370890930D
:10120000730480937204880F991FFC01E556FC4F0C
:1012100040815181FC01E557FC4F608171818FEF66
:101220009FEF0E948B068091720490917304880F47
:10123000991FFC01E558FC4F208131813093040156
:1012400020930301FC01E559FC4F2081318130934B
:10125000170120931601FC01E55AFC4F20813181D2
:101260003093130120931201FC01E55BFC4F2081B8
:10127000318130930A0120930901FC01E55CFC4FA8
:101280002081318130930C0120930B01FC01E55D3D
:10129000FC4F808191816BC0BE0193E0660F771F88
:1012A0009A95E1F72FEF30E047E050E08091D805C4
:1012B0009091D9050E9437084FEF5FEF6FEF7FEFF6
:1012C00073C08091DC059091DD05480F591F509344
:1012D000DD054093DC0564C0BE0183E0660F771F27
:1012E0008A95E1F72FEF30E040E050E08091DA0599
:1012F0009091DB050E9437084FEF5FEFBC0152C0B1
:101300008091160190911701821B930B9093170106
:10131000809316014BC08091120190911301821BA2
:10132000930B909313018093120140C080910901A7
:1013300090910A01821B930B90930A0180930901FB
:1013400035C080910B0190910C01821B930B9093FF
:101350000C0180930B012AC02FEF30E040E050E0F9
:10136000BE0180910E0190910F010E943708909369
:101370000F0180930E011AC082E080930C042BE0D1
:1013800030E040E050E0BE018091080490910904F3
:101390000E94370890930904809308044FEF5FEF91
:1013A0006FEF7FEF8FEF9FEF0E948B0610920B0481
:1013B00010920A04DF91CF910895CF92DF92EF92BD
:1013C000FF920F931F93CF93DF936C017A018B01F0
:1013D000C0E0D0E0CE15DF0589F0D8016D918D0118
:1013E000D601ED91FC910190F081E02DC6010995A7
:1013F000892B11F47E0102C02196ECCFC701DF9149
:10140000CF911F910F91FF90EF90DF90CF900895B3
:10141000E1ECF4E0A089B18982E08C93A485B585E4
:101420001C92A685B7858FEC8C93108EA489B58904
:1014300086E08C93A289B3898C9180618C93A28978
:10144000B3898C9188608C93A289B3898C918068D0
:101450008C930288F389E02D80818F7D80830895AD
:1014600020E330E0FB01DC0120FF05C002C0019059
:101470000D9201900D922250D0F73040C0F70895A0
:101480007F928F929F92AF92BF92CF92DF92EF9214
:10149000FF920F931F93CF93DF93FC01EB017A012F
:1014A000D90148175907C8F42C9111969C911197AE
:1014B00012968C91129738813C93398111963C9306
:1014C00011973A8112963C931297288399838A83C5
:1014D0009E2F8F2FFA01E92EF82EC880D12C8C91E7
:1014E00090E08C199D099695982F88279795879558
:1014F000098110E01196AC901197B12CA01AB10A95
:10150000B694BA2CAA24B794A7942A8130E01296F4
:10151000CC91D0E0C21BD30BD695DC2FCC27D7952E
:10152000C795A7014E1B5F0B19F0742E452F03C002
:101530007724739440E0672D742F0E9411224B0191
:10154000C501672D742F0E9411225B01CE01672D0A
:10155000742F0E941122880C991CAA0CBB1C660FC8
:10156000771FDC2CCC24102F0027322F2227DF01FD
:10157000AA0FBB1FAE0FBF1FA052BA4FEE16FF0639
:1015800078F0ED012297D882219618833C93C80CFD
:10159000D91C0A0D1B1D260F371F31961396EECF4F
:1015A000DF91CF911F910F91FF90EF90DF90CF903F
:1015B000BF90AF909F908F907F9008953F924F92F1
:1015C0005F926F927F928F929F92AF92BF92CF92D3
:1015D000DF92EF92FF920F931F93CF93DF9300D090
:1015E0001F92CDB7DEB7F090B2058091B50590910E
:1015F000B605A091B705B091B805892B8A2B8B2B26
:10160000E9F00E94200F0091750610917606209156
:10161000770630917806DC01CB01801B910BA20B81
:10162000B30B0091B5051091B6052091B705309127
:10163000B80580179107A207B307B8F20E94200FE0
:10164000609375067093760680937706909378067C
:10165000E091BD05F091BE05309759F04091B90574
:101660005091BA056091BB057091BC058F2D09950D
:10167000F82E0091BF041091C0044F2C512C612C06
:10168000712C0115110509F461C0D8011C96EC906C
:101690001C978091B3059091B4058436910510F4A0
:1016A0001C961C92D801ED91FC91A280B380198206
:1016B0001A821B82F11014C0F8014585568562819B
:1016C00073819E012F5F3F4FC801F5010995D80135
:1016D0001C96EC921C9714960D911C911597D1CFE6
:1016E000F8013996CE0101966C0148019CE0890E03
:1016F000911CDF0113973C902191332001F12223AB
:10170000F1F0822F90E0A0E0B0E09C01AD012F5FEE
:101710003F4F4F4F5F4FC301B2010E9429209B01F1
:10172000AC01832D90E0A0E0B0E0BC01CD016F5F83
:101730007F4F8F4F9F4F0E942920D6018C93BFEF80
:10174000CB1ADB0AE815F905A1F6B6CF809173062E
:10175000909174068C010F5F1F4F109374060093D5
:10176000730649979CF10E947F0F4B015C0188EE44
:1017700093E0089FB001099F700D189F700D112410
:10178000072E000C880B990BC0906F06D090700646
:10179000E0907106F0907206A50194012C193D09A4
:1017A0004E095F090E9439203093B4052093B30598
:1017B00010927406109273060E947F0F60936F065A
:1017C0007093700680937106909372060F900F903D
:1017D0000F90DF91CF911F910F91FF90EF90DF90CD
:1017E000CF90BF90AF909F908F907F906F905F90C1
:1017F0004F903F9008950F931F93CF93DF931F92C5
:10180000CDB7DEB78C0169830E94132069818617EA
:1018100029F0C8010E941B2081E001C080E00F90E8
:10182000DF91CF911F910F9108952091BE04909167
:10183000BD04213208F046C080919A048111FCCF8A
:1018400032E030939A0431E0309399043FEF3093C3
:1018500098041092970420939604ADE9B4E046E70B
:1018600054E0FA013E2F341B321718F43D913193A6
:10187000F9CF1092750420917504990F922B9093D3
:10188000750490917404913041F410927404909115
:1018900075049093BB0095EC01C095EE9093BC004D
:1018A00090919A049230E1F3909198049F3F79F0DF
:1018B00080919804803241F080919804803331F017
:1018C00084E005C081E003C082E001C083E01092A3
:1018D0009C041092BE0410929B040895CF93C62FCF
:1018E00091E090939B0498E69093BD0410929C0421
:1018F0001092BE04682F8EE595E00E948B116C2F2C
:101900008EE595E00E948B110E94150C81E0CF912D
:101910000895CF93DF93E3E9F1E08491E7EAF1E002
:10192000D491E5ECF1E0C491CC2391F081110E94B7
:101930008B0EEC2FF0E0EE0FFF1FED54FE4FA59144
:10194000B491EC91ED2381E090E021F480E002C0BD
:1019500080E090E0DF91CF9108956115710579F0F5
:10196000FB0101900020E9F73197AF01461B570BAF
:10197000DC01ED91FC910280F381E02D099480E07F
:1019800090E008954F925F926F927F92EF92FF9254
:101990000F931F93CF93DF93CDB7DEB7A1970FB609
:1019A000F894DEBF0FBECDBF7C01FA01CB0119A2B6
:1019B000223008F42AE08E010F5D1F4F422E512C79
:1019C000612C712CBF01A30192010E943920F90101
:1019D000CA01015011096A3014F4605D01C0695CEC
:1019E000D8016C93232B242B252B61F7B801C70159
:1019F0000E94AD0CA1960FB6F894DEBF0FBECDBF0E
:101A0000DF91CF911F910F91FF90EF907F906F909A
:101A10005F904F9008950F931F93CF93DF93EC0146
:101A20000E94AD0C8C016EED73E0CE010E94AD0CF6
:101A3000800F911FDF91CF911F910F910895FC01AD
:101A4000538D448D252F30E0842F90E0821B930B23
:101A5000541710F0CF96089501970895FC01918DC9
:101A6000828D981761F0828DDF01A80FB11D5D9600
:101A70008C91928D9F5F9F73928F90E008958FEF6E
:101A80009FEF0895FC01918D828D981731F0828D22
:101A9000E80FF11D858D90E008958FEF9FEF089579
:101AA000FC01918D228D892F90E0805C9F4F821BDD
:101AB00091098F739927089581EC94E00E94500D4D
:101AC00021E0892B09F420E0822F0895FC01848D08
:101AD000DF01A80FB11DA35ABF4F2C91848D90E058
:101AE00001968F739927848FA689B7892C93A08933
:101AF000B1898C9180648C93938D848D981306C0EA
:101B00000288F389E02D80818F7D80830895EF9294
:101B1000FF920F931F93CF93DF93EC0181E0888FA7
:101B20009B8D8C8D981305C0E889F989808185FD8E
:101B300024C0F62E0B8D10E00F5F1F4F0F7311277F
:101B4000E02E8C8DE8120CC00FB607FCFACFE889A6
:101B5000F989808185FFF5CFCE010E94660DF1CF16
:101B60008B8DFE01E80FF11DE35AFF4FF0820B8FC2
:101B7000EA89FB898081806207C0EE89FF896083E2
:101B8000E889F98980818064808381E090E0DF9139
:101B9000CF911F910F91FF90EF900895CF93DF9316
:101BA000EC01888D8823C9F0EA89FB89808185FD55
:101BB00005C0A889B9898C9186FD0FC00FB607FCB6
:101BC000F5CF808185FFF2CFA889B9898C9185FFF7
:101BD000EDCFCE010E94660DE7CFDF91CF91089542
:101BE00080E090E0892B29F00E945C0D81110C941B
:101BF00000000895089585ED8093BC008091BC009D
:101C000084FDFCCF10929A0408950895E091070492
:101C100080910604E81730F4F0E0E758F94F80812E
:101C200090E008958FEF9FEF0895909107048091C1
:101C30000604981750F4E92FF0E0E758F94F208197
:101C400030E09F5F9093070402C02FEF3FEFC90180
:101C500008958091060490E020910704821B910969
:101C600008950E9473231F920F920FB60F921124B2
:101C70002F933F934F935F936F937F938F939F9394
:101C8000AF93BF93EF93FF9381EC94E00E94660DB6
:101C9000FF91EF91BF91AF919F918F917F916F9144
:101CA0005F914F913F912F910F900FBE0F901F901A
:101CB00018951F920F920FB60F9211242F938F93A6
:101CC0009F93EF93FF93E091D104F091D204808130
:101CD000E091D704F091D80482FD12C090818091E8
:101CE000DA048F5F8F732091DB04821751F0E0914B
:101CF000DA04F0E0EF53FB4F958F8093DA0401C0D4
:101D00008081FF91EF919F918F912F910F900FBE46
:101D10000F901F901895833081F028F4813099F04E
:101D20008230A1F008958730A9F08830B9F084306E
:101D3000D1F4809180008F7D03C0809180008F77E7
:101D400080938000089584B58F7702C084B58F7D1D
:101D500084BD08958091B0008F7703C08091B0005A
:101D60008F7D8093B00008951F93CF93DF93282F2A
:101D700030E0F901E557FE4F8491F901E156FE4F3D
:101D8000D491F901E354FE4FC491CC23C9F0162F2E
:101D900081110E948B0EEC2FF0E0EE0FFF1FE55239
:101DA000FE4FA591B4918FB7F894111105C09C9185
:101DB000ED2FE095E92302C0EC91ED2BEC938FBF62
:101DC000DF91CF911F910895CF93DF9390E0FC01B5
:101DD000E156FE4F2491FC01E354FE4F8491882389
:101DE00061F190E0880F991FFC01EF52FE4FC59101
:101DF000D491FC01E552FE4FA591B491611109C047
:101E00009FB7F8948881209582238883EC912E23B4
:101E10000BC0623061F49FB7F8943881822F8095AF
:101E200083238883EC912E2B2C939FBF06C08FB702
:101E3000F894E8812E2B28838FBFDF91CF910895EE
:101E40003FB7F8948091E5069091E606A091E706E9
:101E5000B091E80626B5A89B05C02F3F19F0019662
:101E6000A11DB11D3FBFBA2FA92F982F8827820F20
:101E7000911DA11DB11DBC01CD0142E0660F771F70
:101E8000881F991F4A95D1F708958F929F92AF921C
:101E9000BF92CF92DF92EF92FF926B017C010E9482
:101EA000200F4B015C01C114D104E104F104F1F0F5
:101EB0000E94200FDC01CB0188199909AA09BB09EE
:101EC000883E9340A105B10570F321E0C21AD10804
:101ED000E108F10888EE880E83E0981EA11CB11C71
:101EE000C114D104E104F10419F7DDCFFF90EF90A4
:101EF000DF90CF90BF90AF909F908F9008952FB7B5
:101F0000F8946091BA067091BB068091BC069091DE
:101F1000BD062FBF08951F920F920FB60F92112486
:101F20002F933F938F939F93AF93BF938091BA0664
:101F30009091BB06A091BC06B091BD063091E4061D
:101F400023E0230F2D3720F40196A11DB11D05C0FC
:101F500026E8230F0296A11DB11D2093E40680936D
:101F6000BA069093BB06A093BC06B093BD068091C1
:101F7000E5069091E606A091E706B091E806019685
:101F8000A11DB11D8093E5069093E606A093E70698
:101F9000B093E806BF91AF919F918F913F912F91A0
:101FA0000F900FBE0F901F9018951F920F920FB6B3
:101FB0000F9211242F933F934F935F936F937F93CF
:101FC0008F939F93AF93BF93EF93FF93E091F502AD
:101FD000F091F6020995FF91EF91BF91AF919F911A
:101FE0008F917F916F915F914F913F912F910F90C2
:101FF0000FBE0F901F9018951F920F920FB60F9261
:1020000011242F933F934F935F936F937F938F93FD
:102010009F93AF93BF93EF93FF93E091F302F091FF
:10202000F4020995FF91EF91BF91AF919F918F912C
:102030007F916F915F914F913F912F910F900FBEC4
:102040000F901F9018951F920F920FB60F921124A8
:102050002F933F934F935F936F937F938F939F93B0
:10206000AF93BF93EF93FF938091B900887F803641
:1020700009F49CC068F5883209F45BC090F48031A3
:1020800009F454C038F4882309F4F3C0883009F403
:102090004DC0F3C0883109F44CC0803209F45DC0F2
:1020A000ECC0803409F468C048F4803309F455C0AA
:1020B000883309F0E2C080939804D5C0803509F4D4
:1020C0004FC0883509F45DC0883409F0D6C0D3C04C
:1020D000883909F4C4C0A8F4883709F467C038F413
:1020E000883609F463C0803709F460C0C6C08838F8
:1020F00009F4B5C0803909F45FC0803809F0BDC06B
:102100005BC0803B09F483C038F4803A09F466C0B0
:10211000883A09F47CC0B1C0803C09F4A4C0883C72
:1021200009F4A1C0883B09F487C0A7C08091750459
:1021300010C09091970480919604981770F5E091E3
:10214000970481E08E0F80939704F0E0EA58FB4FEC
:1021500080818093BB0085EC83C0809398048BC002
:10216000E091970481E08E0F809397048091BB00EB
:10217000F0E0EA58FB4F8083909197048091960499
:102180006BC0E091970481E08E0F8093970480915B
:10219000BB00F0E0EA58FB4F8083809199048111E5
:1021A0006AC081E08093740484EA5EC083E0809317
:1021B0009A041092E306CFCF8091E306803208F0B4
:1021C0004EC0E091E30681E08E0F8093E30680919C
:1021D000BB00F0E0ED53F94F8083BDCF8091E30663
:1021E000803230F4E091E306F0E0ED53F94F1082D5
:1021F0000E94FB0D6091E30670E0E091C106F09152
:10220000C20683EC96E009951092E3062CC084E0A8
:1022100080939A041092C0061092B906E091BE060F
:10222000F091BF0609958091B906811105C081E042
:102230008093B90610929906E091C00681E08E0F56
:102240008093C006F0E0E756F94F80818093BB0091
:102250009091C0068091B906981708F47CCF85E864
:102260008093BC000AC085EC8093BC0010929A0455
:1022700004C0109298040E94FB0DFF91EF91BF9152
:10228000AF919F918F917F916F915F914F913F910E
:102290002F910F900FBE0F901F901895CF92DF9245
:1022A000EF92FF920F931F93CF93DF937C018A01EC
:1022B00080919B04882389F0EB016B01C40ED51E2D
:1022C000CC15DD05F1F06991D701ED91FC910190FC
:1022D000F081E02DC7010995F3CF842F413288F4B6
:1022E00090919A04943069F44093B906FB0129E96E
:1022F00036E0D9019A2F921B981718F491919D936B
:10230000F9CFC801DF91CF911F910F91FF90EF900E
:10231000DF90CF90089520919B042223C9F0209153
:10232000BE04203240F021E030E0FC013383228300
:1023300080E090E0089580919C04E82FF0E0E3565F
:10234000FB4F60838F5F80939C048093BE0409C021
:1023500080919A04843029F481E08093B9066093D7
:10236000990681E090E00895089580E090E0089556
:10237000DC01FB014C9111965C91119712967C91B6
:10238000342F3F71330F330F832F880F35E5282FFC
:10239000239F020E20E0211D1124642F6074942FCE
:1023A000907247FD21C061110BC0911104C0822FB2
:1023B0008095422F11C045E5420F30E02BEA33C033
:1023C00091110DC0382F4AEA349F030E30E0311DC1
:1023D00011248BEA831B420F282F30E024C080E0B9
:1023E000422F4095322F0EC0611111C091110CC0C7
:1023F000382F2AEA329F030E30E0311D11244BEAB8
:10240000431B3B5A20E00FC0322F30950BC0911177
:1024100004C085E5820F3BEA03C08AEA820F90E0A0
:10242000321B282F40E05F3F11F15523E9F02223B2
:1024300021F0259F020E20E0211D442321F0459F1D
:10244000040E40E0411D332321F0359F030E30E0A0
:10245000311D11245095559F050E50E0511D11243A
:10246000250F450F350F03C03FEF4FEF2FEF7F3F95
:1024700009F420C050E0772321F0779F512D09F017
:102480005F5F5523A1F0222321F0259F020E20E05B
:10249000211D442321F0459F040E40E0411D3323BC
:1024A00021F0359F030E30E0311D112403C030E0D0
:1024B00040E020E02083418332830895EF92FF9231
:1024C0000F931F93CF93DF93EC019091E9069F5FE9
:1024D000292F27702093E90690FF02C090E801C0E1
:1024E00090E021FD9064247009F0906220E1290FB2
:1024F000FE013C967E018FE0E80EF11C00E011E049
:102500006191662331F070E0C8010E9411226F5F73
:1025100001C060E0DF0114976C93322F369F030EE9
:1025200030E0311D1124CF010797311103C0EC01B8
:10253000188203C03150EC013883662311F06150DA
:102540006C93EE15FF05E1F6DF91CF911F910F918E
:10255000FF90EF900895CF93DF93CDB7DEB7C254CD
:10256000D1090FB6F894DEBF0FBECDBF789484B505
:10257000826084BD84B5816084BD85B5826085BD7F
:1025800085B5816085BD80916E00816080936E000D
:1025900010928100809181008260809381008091FF
:1025A00081008160809381008091800081608093B0
:1025B00080008091B10084608093B1008091B00070
:1025C00081608093B00080917A00846080937A006B
:1025D00080917A00826080937A0080917A00816095
:1025E00080937A0080917A00806880937A001092BC
:1025F000C1001092AE051092AF051092B005109276
:10260000B10510926C0510926D0510926E05109236
:102610006F050E947F0F6B017C014B015C0108EB91
:10262000800E0BE0901EA11CB11C0E947F0F6C1548
:102630007D058E059F0528F086169706A806B90623
:10264000A0F781EC94E09093AD058093AC050E94D7
:10265000080A0E947F0F60936C0570936D0580934C
:102660006E0590936F056FEC73E08091AC059091CF
:10267000AD050E94AD0C0E947F0F6B017C014B01E8
:102680005C011AE0810E911CA11CB11C0E947F0FFD
:102690006C157D058E059F0528F086169706A80601
:1026A000B906A0F781E08093800561EE73E081ECCC
:1026B00094E00E940B0D409100015091010185E0D2
:1026C00098E0489F9001499F300D589F300D11248C
:1026D000275E394C3093010120930001A9E3B0E358
:1026E0000E948D2090932E0480932D040E94080A4E
:1026F0008CE390E09093D4058093D30584EB90E035
:102700000E9446229093D2058093D1058FEF90E0EE
:102710009093D9058093D80588EC90E09093DD05DF
:102720008093DC0584E690E09093DB058093DA05E6
:1027300080E18093D7058EE790E0E12CF12CFC013D
:1027400045915591659174912FEFE21AF20A049622
:102750004F3FA9F7EEE7F0E085909590A590B490F3
:102760009B2D5A2DA92D0FEFA12CB12C1EE7C12EA8
:1027700010E0D12E34E0C30ED11CF60145905590E7
:10278000659074909501B4E035952795BA95E1F779
:10279000822FA42CB12C442D42954F7060E1E61697
:1027A000F10478F4602F002E000C770B621773078A
:1027B0003CF00F302CF481E0800F481708F4482FCC
:1027C000042F5EAE6FAE21967FAE2197A9835A8308
:1027D0009B8350E09E01225C3F4FBE016F5F7F4FA5
:1027E00090E00E94400AA52D562D972D8FEFA81638
:1027F000B10409F0BFCFE090D305F090D405C090AC
:10280000D105D090D20580912404811145C0109249
:102810001604109215048FEF8093190480931A0404
:1028200080931B0480931C0480931D0480931E04DA
:1028300081E080931F0410922104109220041092D2
:102840001804109217048091BF049091C004892B42
:1028500031F483E194E09093C0048093BF04E0914D
:102860001104F0911204309721F083E194E09583F4
:10287000848383E194E09093120480931104109276
:1028800023041092220485E193E090931404809332
:10289000130481E080932404E0911304F091140464
:1028A0000480F581E02D83E194E00995D09216042F
:1028B000C0921504F0922104E0922004E0911304E8
:1028C000F09114040284F385E02D83E194E00995EE
:1028D000009711F19C0140E050E060E472E48FE069
:1028E00090E00E945B20C090B505D090B605E090C6
:1028F000B705F090B805C901DA018C159D05AE0544
:10290000BF0510F4D701C6018093B5059093B605B5
:10291000A093B705B093B805E091BF04F091C0044F
:10292000309729F014860480F581E02DF9CF1092BC
:102930000E0410920D040E94D4060E94DE0A10922A
:1029400007041092060410929C041092BE04109288
:102950009A0481E0809399041092740461E082E10A
:102960000E94B40E61E083E10E94B40E8091B90030
:102970008E7F8093B9008091B9008D7F8093B900DC
:1029800088E48093B80085E48093BC0060E870E040
:102990008BE690E00E946E0C62E370E080E090E0D5
:1029A0000E94450F61E070E089E190E00E946E0CAA
:1029B00063E070E08BE690E00E946E0C6EE170E0E8
:1029C00080E090E00E94450F68E170E08BE190E0CC
:1029D0000E946E0C6EE170E080E090E00E94450F76
:1029E00068EE70E08CE190E00E946E0C64E170E0B3
:1029F00080E090E00E94450F80E090E00E9413206C
:102A00008A3241F481E090E00E941320882311F47F
:102A10000C94131D62E088E00E94E40E62E08FE0F7
:102A20000E94E40E62E080E10E94E40E61E08EE02C
:102A30000E94E40E60E08EE00E94B40E61E086E049
:102A40000E94E40E60E086E00E94B40E8091D00502
:102A5000823030F4F89485EC95E00E94650401C062
:102A6000F8947894F8941092CC051092CD051092B9
:102A7000CE051092CF0578940E94890C80930201B4
:102A80000E94D40683E48093B2056AEE73E081EC81
:102A900094E00E940B0D81E090E0909310048093ED
:102AA0000F040E94FB040E947F0F672B682B692B89
:102AB00041F40E947F0F623071058105910508F491
:102AC00016C10E947F0F609367047093680480931F
:102AD000690490936A04C0906304D0906404E09009
:102AE0006504F09066046C157D058E059F0540F425
:102AF0006093630470936404809365049093660408
:102B0000C0906304D0906404E0906504F090660483
:102B10008B019C010C191D092E093F0968017901DF
:102B20001AEFC116D104E104F10408F4E0C0609387
:102B3000630470936404809365049093660424EFA7
:102B400031E040E050E020937805309379054093E0
:102B50007A0550937B0510927C0510927D051092AA
:102B60007E0510927F058091700590917105A0916E
:102B70007205B09173058093740590937505A093C9
:102B80007605B09377050E947F0F60937005709370
:102B9000710580937205909373050E947F0F609377
:102BA0006C0570936D0580936E0590936F050E9480
:102BB0007F0F6B017C0162EF73E08091AC05909117
:102BC000AD050E94AD0C2AE041E050E060E070E00D
:102BD0008091AC059091AD050E94C20C69EF73E045
:102BE0008091AC059091AD050E94AD0C2AE0B70133
:102BF000A6018091AC059091AD050E94C20C6BEFCF
:102C000073E08091AC059091AD050E94AD0C809170
:102C1000700590917105A0917205B0917305B7018F
:102C2000A601481B590B6A0B7B0B2AE08091AC056F
:102C30009091AD050E94C20C6BEF73E08091AC05E2
:102C40009091AD050E94AD0C4091700550917105B9
:102C5000609172057091730580917405909175056E
:102C6000A0917605B0917705481B590B6A0B7B0B39
:102C70002AE08091AC059091AD050E94C20C6DEFE9
:102C800073E08091AC059091AD050E94AD0C0E945F
:102C90007F0FAB01BC012AE08091AC059091AD059E
:102CA0000E94C20C6FEF73E08091AC059091AD056E
:102CB0000E940B0D0E947F0F4B015C016B017C0198
:102CC00032E0C30ED11CE11CF11C0E947F0F68157D
:102CD00079058A059B0508F0EFC60E947F0F609377
:102CE00070057093710580937205909373058091C0
:102CF00061049091620441E0842790936204809380
:102D0000610480FF7FC06BE574E083E40E947A0772
:102D100060915B0470915C04262F2F7080913B04BE
:102D200090913C04880F991F822790933C048093D4
:102D30003B04072E000C880B990B0E94F61E69833A
:102D40007A838B839C8360915F0470916004072E6B
:102D5000000C880B990B0E94F61E6D837E838F8377
:102D6000988719861A861B861C86CE0101960E94BA
:102D70003E076B017C0140905704509058046090CE
:102D8000590470905A049B01AC01C301B2010E9426
:102D90009C2020E030E046E953E40E9409219B0199
:102DA000AC01C301B2010E949C209B01AC01609365
:102DB0005704709358048093590490935A04C701A0
:102DC000B6010E949C2020E030E048E452E40E94DA
:102DD000092120915304309154044091550450919D
:102DE00056040E949D2020E030E040E05FE30E9416
:102DF000551F60935304709354048093550490932B
:102E00005604E2C06DE474E08BE30E947A070091FF
:102E10004D0410914E04202F2F7080913B0490910F
:102E20003C04880F991F822790933C0480933B04B5
:102E300060914F0470915004072E000C880B990B81
:102E40000E94F61E209145043091460440914704AB
:102E5000509148040E949D204B015C0160915104F7
:102E600070915204072E000C880B990B0E94F61EDD
:102E70002091490430914A0440914B0450914C04F4
:102E80000E949D202B013C01B801110F880B990B6A
:102E90000E94F61E20914104309142044091430467
:102EA000509144040E949D2024EA30E74DE75FE3FF
:102EB0000E94551F60934104709342048093430421
:102EC0009093440424EA30E74DE75FE3C501B40181
:102ED0000E94551F609345047093460480934704F5
:102EE0009093480424EA30E74DE75FE3C301B20161
:102EF0000E94551F6093490470934A0480934B04C9
:102F000090934C0481E494E00E943E0720E030E47A
:102F10004CE156E40E9409216B017C0140901801AC
:102F20005090190160901A0170901B019B01AC0137
:102F3000C301B2010E949C2020E030E040E251E455
:102F40000E9409219B01AC01C301B2010E949C2097
:102F5000609318017093190180931A0190931B01DB
:102F6000A70196010E949C206B017C0120E030E0CB
:102F7000A9010E94B121181624F0F7FAF094F7F88D
:102F8000F094C701B6010E94BC216B017C0120E0D6
:102F900030E040E85FE30E94B12118164CF0C09287
:102FA0003D04D0923E04E0923F04F09240040CC0F5
:102FB00080E090E0A0E8BFE380933D0490933E045E
:102FC000A0933F04B09340040E94890C90910201A9
:102FD0008917B1F190912C049F5F90932C0493304A
:102FE00028F080930201813041F413C051E035167E
:102FF00021F062E0361669F024C081E080930C0471
:1030000088EC90E090930B0480930A04332433946B
:103010003DC080910C04813041F480910F04909167
:103020001004892B11F40E94FB0410920C040E94DE
:10303000D40610920B0410920A04E2E03E2E26C041
:10304000312C80910A0490910B0418161906F4F49F
:10305000019790930B0480930A04892BB9F4809113
:103060000F04909110048330910534F48130910560
:1030700044F4892B19F007C0039729F40E94FB043C
:1030800002C00E94B30484E080930C040E945108A3
:1030900080913B0490913C04837099272091160104
:1030A00030911701820F931F9093150180931401A3
:1030B000809112019091130190931101809310015E
:1030C00083E480937C0080917A00806480937A000E
:1030D00080917A0086FDFCCF809178002091790064
:1030E00090E0922B803791400CF5809139049091BB
:1030F0003A040097C9F484E090E090931004809320
:103100000F0480913804811106C081E08093380457
:1031100088EC90E004C01092380480E991E090932C
:103120003A04809339040AC00197F9CF80E991E00D
:1031300090933A0480933904109238040E94E11E5F
:1031400027E730E040E050E00E945B206F5F7F4F58
:103150008F4F9F4F0E94F61E609353047093540448
:1031600080935504909356040E94E11E10923D04F2
:1031700010923E0410923F04109240040E947F0F70
:10318000C0903604D09037040D2C000CEE08FF08D8
:10319000AB01BC014C195D096E097F092AE081EC85
:1031A00094E00E94C20C6EED73E081EC94E00E940A
:1031B000AD0C0E947F0F70933704609336040E9419
:1031C000510880910F04909110048230910509F408
:1031D00051C32CF4009759F0019759F120C4833062
:1031E000910509F491C3049709F4E7C318C4109238
:1031F0003504109234041092330410922F0410926C
:103200003004109231041092320420E030E048EC97
:1032100052E460915304709154048091550490914C
:1032200056040E94B12118160CF0F9C30E94FB0449
:10323000F6C390905304A0905404B090550480902D
:10324000560420E030E0A901692D7A2D8B2D982DB0
:103250000E94EF1E87FD11C020E030E04CE053E4F7
:10326000692D7A2D8B2D982D0E94B121181664F4AA
:10327000D12CE12C10EF02E40BC06DECD62E7CECCF
:10328000E72E1CEC0DE304C0D92CEA2C1B2D082DD5
:1032900040902F04509030046090310470903204BC
:1032A000A30192016D2D7E2D812F902F0E94B121BF
:1032B00018166CF48D2D9E2DA12FB02F80932F0406
:1032C00090933004A0933104B09332043AC06091DB
:1032D0000E0170910F01072E000C880B990B0E94B4
:1032E000F61E20E030E040E256E40E9409212AE97F
:1032F00039E949E75FE30E949D209B01AC01C301CE
:10330000B2010E94551F60932F0470933004809384
:103310003104909332042DEC3CEC4CEC5FE30E94C2
:1033200009212B013C019B01AC016D2D7E2D812FCC
:10333000902F0E94B121181624F0D42CE52C162DC4
:10334000072D20E030E040E85BE36D2D7E2D812FDE
:10335000902F0E94551F2B013C0100910D01602F01
:1033600070E080E090E00E94F61E9B01AC01C3017A
:10337000B2010E94551F2B013C01E09033042E2D19
:1033800030E023963FAF2EAF2397B901330F880B60
:10339000990B0E94F61E6B017C019B01AC01C301DD
:1033A000B2010E94B12118165CF0A7019601C30179
:1033B000B2010E94EF1E87FF06C068EF7FEF05C0D5
:1033C00060E170E002C060E070E02FEF30E040E0CC
:1033D00050E023968EAD9FAD23970E9437087C0165
:1033E0008093330460910B0170910C01072E000C47
:1033F000880B990B0E94F61E9B01AC01692D7A2D5A
:103400008B2D982D0E9409212B013C016091120106
:1034100070911301072E000C880B990B0E94F61E69
:10342000A30192010E949D200E947B2170931101B3
:10343000609310016091090170910A01072E000C40
:10344000880B990B0E94F61EA30192010E949D20F9
:103450000E947B21709308016093070140903D0416
:1034600050903E0460903F047090400420E030E0B3
:1034700040E85FE3C301B2010E94B121181634F4A1
:10348000412C512C50E8652E5FE3752E20E030E092
:1034900040E052E4C301B2010E94551F0E947B210B
:1034A000685F609FB00111247093350420E030E024
:1034B00040E252E4C301B2010E94551F2B013C01BE
:1034C0000E947B21645F609FB0011124FF24872F3D
:1034D00090E08E159F0508F4C7018093340420E026
:1034E00030E041E653E4C301B2010E949D2020E098
:1034F00030E040EA51E40E949C200E947B21072E8C
:10350000000C880B990B0E94F61E2AE939E949E95B
:103510005EE30E94551F0E9482216093B20531ED47
:10352000E32E35E0F32E43E0942EB701CE01019651
:103530000E94080540E050E0A0E0B0E060E070E0EC
:103540008B819C81681779070CF025C1C0902D04F0
:10355000D0902E04C40ED51E852F9927FC01E65766
:10356000FF4FE491ED0D2E2F30E0F901E657FF4FAC
:10357000B490F901E557FF4FA490FC01E557FF4FC8
:1035800084918D0D90E0FC01E657FF4F7490FC0193
:10359000E557FF4F8491D42ED6949C2D9695392FC4
:1035A000142F149F010E10E0111D0C2D2C2D029FC5
:1035B000000E00E0011D1124802E20E8C22ECD0C4B
:1035C000E72DF0E0E657FF4FE491E2FD03C0F92F4D
:1035D0002C2D02C0FC2D292FE0FD2195E1FDF19558
:1035E0000F2F05952595201FEB2DF0E0E657FF4F97
:1035F000E491E2FD03C0F92F3D2D01C0FD2DE0FD5A
:103600003195E1FDF1950F2F05953595301F321756
:1036100044F4231B219F020E20E0211D1124320FB0
:1036200009C0E32FE21B2E2F219F020E20E0211D57
:103630001124321B9058E82FF0E0E657FF4FE49139
:10364000E2FD03C02C2DC92E01C0292FE0FD2195DC
:10365000E1FDC194022F2C2D25950595021FB02E5A
:10366000EA2DF0E0E657FF4FE491E2FD03C0892F19
:103670009D2DD82EE0FD9195E1FDD194092F2D2DA2
:1036800025950595021F902F0B154CF42B2D201B13
:10369000219F020E20E0211D1124920F08C0202F2F
:1036A0002B19219F020E20E0211D1124921B391796
:1036B00054F4931B292F082D209F020E20E0211D7A
:1036C0001124320F09C0232F291B182D219F020E10
:1036D00020E0211D1124321B3B5B2DEE329F030E97
:1036E00030E0311D1124232F220F31E02F3F08F449
:1036F00030E0320F032F02950F703F70802F880F3C
:10370000800FEEE0F0E0EC0FFD1FE80FF11D2081CF
:1037100091818281332309F431C00F3011F0339647
:1037200002C0FE013E963295307F032F0095D08077
:10373000122F109F010E10E0111D2D2D239F020E40
:1037400020E0211D210FD180192F109F010E10E0C4
:10375000111D912F1D2D139F010E10E0111D910FB2
:10376000E281182F109F010E10E0111D812F0E2FE6
:10377000039F000E00E0011D800F1124E981FA81F2
:10378000EA0FFB1F2083918382836F5F7F4F139625
:10379000425E5F4FD5CE0E947F0F9B01AC0160E07F
:1037A00070EF8AE090E00E942920292F96FD209555
:1037B000E22FEF732F7096FD2F5FE695E695E69565
:1037C000E670F0E0ED5DFC4F8181829F202D812D20
:1037D000112422952F708295807F282B8081280FBD
:1037E00097FD21952058192D219F020E20E0211DC3
:1037F00011242F5F80912D0490912E04820F911D32
:1038000090932E0480932D042DE3E20EF11C3BE4F3
:10381000E31636E0F30609F088CE0E94DE0A2DECAE
:103820003CEC4CEC5EE360913D0470913E04809171
:103830003F04909140040E94EF1E87FF34C020E0B7
:1038400030E040E251E4609153047091540480915F
:103850005504909156040E94EF1E87FF24C080916A
:10386000050190910601009719F40E94B304D7C096
:1038700001971BC020910D0430910E0424363105B0
:10388000CCF081E090E09093100480930F0480E0EE
:1038900090E0A8ECB2E48093530490935404A09376
:1038A0005504B093560480E49FE190930601809301
:1038B0000501B5C08091030190910401820F931F0F
:1038C0008536910514F084E690E090930E04809381
:1038D0000D040E94D40680910D0148E2849F90015E
:1038E0001124309335045CE8859F900111243093B6
:1038F000340468E7869FC00111249093330420911B
:103900000D0430910E043BC080910D0490910E0483
:10391000181619060CF04CC0019790930E04809372
:103920000D040E94D40620910D0430910E044091A4
:103930000D01429FC001439F900D112464E670E089
:103940000E9411228091350490E0462F8617970738
:103950000CF4482F409335048091340490E0462FB6
:10396000861797070CF4482F409334048091330452
:1039700090E0861797070CF4BC016093330484E64B
:1039800090E0821B930B2091120130911301280FBC
:10399000391F3093110120931001209109013091BA
:1039A0000A01820F931F909308018093070137C08B
:1039B0001092100410920F0432C080910D04909167
:1039C0000E04181619063CF4019790930E04809388
:1039D0000D040E94D40680913804882311F08FEFE3
:1039E00001C080E0E091D105F091D2058083118281
:1039F00012820E94DE0A10923504109234048091E3
:103A00003804811103C01092330409C080E091E0B2
:103A100090930801809307018FEF809333040E94F5
:103A2000F00D0C94531582E090E00E94132090E07A
:103A3000909309048093080483E090E00E9413208F
:103A400080930D0184E090E00E94132090E0909319
:103A500017018093160185E090E00E94132090E00A
:103A6000909313018093120186E090E00E9413204E
:103A700090E090930A018093090187E090E00E9412
:103A8000132090E08058910990930C0180930B01D2
:103A90008CE090E00E94132090E090930F018093BF
:103AA0000E018BE090E00E94132090E090930401BF
:103AB000809303010C940A15C616D706E806F9068A
:103AC00008F003C90AC9CF93DF931092C40410927F
:103AD000C30488EE93E0A0E0B0E08093C504909327
:103AE000C604A093C704B093C8042FEA33E0309310
:103AF000C2042093C10425EC30E03093CE0420931F
:103B0000CD0424EC30E03093D0042093CF0420EC9B
:103B100030E03093D2042093D10421EC30E0309394
:103B2000D4042093D30422EC30E03093D6042093C5
:103B3000D50426EC30E03093D8042093D7041092BB
:103B4000DA041092DB041092DC041092DD0410926F
:103B50006105109260058093620590936305A093C0
:103B60006405B093650581EC93E090935F058093C5
:103B70005E051092700510927105109272051092F8
:103B800073051092740510927505109276051092C7
:103B90007705109278051092790510927A051092A7
:103BA0007B0510927C0510927D0510927E05109287
:103BB0007F058FEF8093B2051092B4051092B30584
:103BC0001092BE051092BD054FEF5FEFBA01409312
:103BD000B9055093BA056093BB057093BC0524E604
:103BE00030E03093C0052093BF0580934B0680934F
:103BF0004C0680934D0680934E0680934F0680932B
:103C0000500690E8909351061092520690935306F6
:103C1000109254069093550610925606109257062D
:103C2000109258068093590610925A0610925B061D
:103C300080935C0680935D0680935E0610925F061B
:103C40008093600695EA90936106109262068093D5
:103C50006306909364061092650680936606109240
:103C60006706109268068093690610926A061092A1
:103C70006B0610926C0610926D0610926E061092F2
:103C8000D2051092D10510920F0610920E0662E036
:103C90008FE00E94E40E62E080E10E94E40EECEC12
:103CA000F1E0E491F0E0EE0FFF1FED54FE4FA5911F
:103CB000B491B093C605A093C505EEEAF1E08491F6
:103CC0008093C905EDECF1E0E491F0E0EE0FFF1F09
:103CD000ED54FE4FC591D491D093C805C093C7054C
:103CE000EFEAF1E0E491E093CA051092CC0510925E
:103CF000CD051092CE051092CF05EBE3FFE1319791
:103D0000F1F7EC91E82381E009F480E028819091BB
:103D1000CA05922309F082608093CB051092D005EA
:103D2000DF91CF9108958F929F92AF92BF92CF92E1
:103D3000DF92EF92FF92CF93DF93EC01688179815C
:103D40008A819B81611571058105910521F464E2E9
:103D500079ED8BE597E02DE133EF41E050E00E94F3
:103D60005B2049015A019B01AC01A7EAB1E40E9422
:103D70007A206B017C01ACEEB4EFA50194010E94A6
:103D80008820DC01CB018C0D9D1DAE1DBF1DB7FF32
:103D900003C00197A109B04888839983AA83BB8394
:103DA000BC01CD019F77DF91CF91FF90EF90DF9025
:103DB000CF90BF90AF909F908F9008950E94931ED8
:103DC000089587EF92E00E94931E08956093F70292
:103DD0007093F8028093F9029093FA0208950E947A
:103DE000311F08F481E00895E89409C097FB3EF480
:103DF00090958095709561957F4F8F4F9F4F992338
:103E0000A9F0F92F96E9BB279395F69587957795B5
:103E10006795B795F111F8CFFAF4BB0F11F460FF75
:103E20001BC06F5F7F4F8F4F9F4F16C0882311F0CD
:103E300096E911C0772321F09EE8872F762F05C0E1
:103E4000662371F096E8862F70E060E02AF09A957C
:103E5000660F771F881FDAF7880F9695879597F971
:103E60000895990F0008550FAA0BE0E8FEEF16160B
:103E70001706E807F907C0F012161306E407F5075E
:103E800098F0621B730B840B950B39F40A2661F0D2
:103E9000232B242B252B21F408950A2609F4A14075
:103EA000A6958FEF811D811D08950E94681F0C94B7
:103EB000D91F0E94CB1F38F00E94D21F20F09523FB
:103EC00011F00C94C21F0C94C81F11240C940D20E7
:103ED0000E94EA1F70F3959FC1F3950F50E0551FA4
:103EE000629FF001729FBB27F00DB11D639FAA274F
:103EF000F00DB11DAA1F649F6627B00DA11D661F9E
:103F0000829F2227B00DA11D621F739FB00DA11DBE
:103F1000621F839FA00D611D221F749F3327A00D78
:103F2000611D231F849F600D211D822F762F6A2F14
:103F300011249F5750409AF0F1F088234AF0EE0F79
:103F4000FF1FBB1F661F771F881F91505040A9F7A6
:103F50009E3F510580F00C94C21F0C940D205F3FD2
:103F6000E4F3983ED4F3869577956795B795F795E2
:103F7000E7959F5FC1F7FE2B880F911D969587955A
:103F800097F9089597F99F6780E870E060E00895D9
:103F90009FEF80EC089500240A9416161706180661
:103FA0000906089500240A9412161306140605063D
:103FB0000895092E0394000C11F4882352F0BB0FCE
:103FC00040F4BF2B11F460FF04C06F5F7F4F8F4F31
:103FD0009F4F089557FD9058440F551F59F05F3F6C
:103FE00071F04795880F97FB991F61F09F3F79F01B
:103FF00087950895121613061406551FF2CF46959D
:10400000F1DF08C0161617061806991FF1CF86951E
:104010007105610508940895E894BB276627772702
:10402000CB0197F90895F999FECF92BD81BDF89A19
:10403000992780B50895262FF999FECF1FBA92BD12
:1040400081BD20BD0FB6F894FA9AF99A0FBE019679
:104050000895DB018F939F930E947A20BF91AF91C7
:10406000A29F800D911DA39F900DB29F900D1124D2
:104070000895A1E21A2EAA1BBB1BFD010DC0AA1FA9
:10408000BB1FEE1FFF1FA217B307E407F50720F0C1
:10409000A21BB30BE40BF50B661F771F881F991F3C
:1040A0001A9469F760957095809590959B01AC0185
:1040B000BD01CF010895052E97FB1EF400940E94C8
:1040C000722057FD07D00E94392007FC03D04EF420
:1040D0000C94722050954095309521953F4F4F4F4D
:1040E0005F4F089590958095709561957F4F8F4FA4
:1040F0009F4F08950E948D20A59F900DB49F900D15
:10410000A49F800D911D11240895B7FF0C947A206F
:104110000E947A20821B930B0895A29FB001B39F47
:10412000C001A39F700D811D1124911DB29F700DC0
:10413000811D1124911D08955058BB27AA270E9464
:10414000B4200C94D91F0E94CB1F38F00E94D21FBC
:1041500020F039F49F3F19F426F40C94C81F0EF494
:10416000E095E7FB0C94C21FE92F0E94EA1F58F369
:10417000BA17620773078407950720F079F4A6F54C
:104180000C940C200EF4E0950B2EBA2FA02D0B01F1
:10419000B90190010C01CA01A0011124FF27591B8C
:1041A00099F0593F50F4503E68F11A16F040A22F92
:1041B000232F342F4427585FF3CF46953795279503
:1041C000A795F0405395C9F77EF41F16BA0B620B02
:1041D000730B840BBAF09150A1F0FF0FBB1F661F49
:1041E000771F881FC2F70EC0BA0F621F731F841F8C
:1041F00048F4879577956795B795F7959E3F08F0B2
:10420000B0CF9395880F08F09927EE0F9795879573
:1042100008950E941D210C94D91F0E94D21F58F0AE
:104220000E94CB1F40F029F45F3F29F00C94C21F7D
:1042300051110C940D200C94C81F0E94EA1F68F3C2
:104240009923B1F3552391F3951B550BBB27AA274F
:1042500062177307840738F09F5F5F4F220F331F89
:10426000441FAA1FA9F335D00E2E3AF0E0E832D051
:1042700091505040E695001CCAF72BD0FE2F29D054
:10428000660F771F881FBB1F261737074807AB0726
:10429000B0E809F0BB0B802DBF01FF2793585F4F9B
:1042A0003AF09E3F510578F00C94C21F0C940D20FB
:1042B0005F3FE4F3983ED4F3869577956795B7957D
:1042C000F7959F5FC9F7880F911D9695879597F988
:1042D0000895E1E0660F771F881FBB1F6217730701
:1042E0008407BA0720F0621B730B840BBA0BEE1F16
:1042F00088F7E09508950E9482216894B1110C948A
:104300000D2008950E94F21F88F09F5798F0B92F52
:104310009927B751B0F0E1F0660F771F881F991FFA
:104320001AF0BA95C9F714C0B13091F00E940C2070
:10433000B1E008950C940C20672F782F8827B85F80
:1043400039F0B93FCCF3869577956795B395D9F752
:104350003EF490958095709561957F4F8F4F9F4F5C
:1043600008950E94311F08F48FEF089519F416F490
:104370000C94C81F0C94FC210E94F21FB8F39923DF
:10438000C9F3B6F39F57550B87FF0E940A220024FA
:10439000A0E640EA900180585695979528F4805CF5
:1043A000660F771F881F20F026173707480730F45D
:1043B000621B730B840B202931294A2BA695179475
:1043C0000794202531254A2758F7660F771F881F45
:1043D00020F026173707480730F4620B730B840B65
:1043E000200D311D411DA09581F7B901842F9158F1
:1043F000880F9695879508959F3F31F0915020F44E
:10440000879577956795B795880F911D96958795B0
:1044100097F9089591505040660F771F881FD2F783
:10442000089597FB072E16F4009407D077FD09D066
:104430000E94322207FC05D03EF4909581959F4F53
:104440000895709561957F4F0895EE0FFF1F0590B9
:10445000F491E02D09940E948D20B7FF0895821BEE
:10446000930B0895AA1BBB1B51E107C0AA1FBB1FDA
:10447000A617B70710F0A61BB70B881F991F5A95F0
:10448000A9F780959095BC01CD010895CF93DF9356
:104490008230910510F482E090E0E091EC06F0911A
:1044A000ED0620E030E0C0E0D0E0309711F140812F
:1044B000518148175907C0F04817590761F48281A4
:1044C0009381209719F09B838A832BC09093ED06EC
:1044D0008093EC0626C02115310519F042175307C9
:1044E00018F49A01BE01DF01EF010280F381E02D93
:1044F000DCCF2115310509F1281B390B243031059A
:1045000090F412968D919C9113976115710521F08D
:10451000FB019383828304C09093ED068093EC06A5
:10452000FD01329644C0FD01E20FF31F8193919388
:10453000225031092D933C933AC02091EA063091E4
:10454000EB06232B41F42091FD023091FE023093C3
:10455000EB062093EA062091FB023091FC02211524
:10456000310541F42DB73EB74091FF025091000351
:10457000241B350BE091EA06F091EB06E217F307F6
:10458000A0F42E1B3F0B2817390778F0AC014E5FC3
:104590005F4F2417350748F04E0F5F1F5093EB060F
:1045A0004093EA068193919302C0E0E0F0E0CF01EE
:1045B000DF91CF9108950F931F93CF93DF930097CF
:1045C00009F48CC0FC013297138212820091EC0630
:1045D0001091ED060115110581F420813181820FC2
:1045E000931F2091EA063091EB062817390779F5D9
:1045F000F093EB06E093EA0671C0D80140E050E08A
:10460000AE17BF0750F412962D913C911397AD0150
:104610002115310509F1D901F3CF9D01DA01338369
:10462000228360817181860F971F8217930769F437
:10463000EC0128813981260F371F2E5F3F4F3183D0
:1046400020838A819B8193838283452B29F4F09375
:10465000ED06E093EC0642C01396FC93EE9312979E
:10466000ED01499159919E01240F351FE217F3077F
:1046700071F480819181840F951F029611969C930D
:104680008E938281938113969C938E931297E0E090
:10469000F0E0D80112968D919C911397009719F034
:1046A000F8018C01F6CF8D919C9198012E5F3F4FC0
:1046B000820F931F2091EA063091EB0628173907E5
:1046C00069F4309729F41092ED061092EC0602C0BE
:1046D000138212821093EB060093EA06DF91CF91CA
:1046E0001F910F91089581E090E0F8940C94782345
:0446F000F894FFCF6C
:1046F4003905010200401F340034002800F0800016
:10470400320032002F002F00CDCCD4417A736E6278
:104714005D5F63707B85939EABB4C1C9CCCAC0B9DD
:10472400B3ACAAA3A0A19891877665534537342EDC
:104734002225282F3C485360747C8A9599A4A29F13
:104744009A95908B8D8D8F9093969797928B867870
:10475400645A4E484A4D555D6F8597ABBAC7CACA6D
:10476400C9BCB6AEA29E9E9D979289786A5549416E
:10477400373634333D45506172828F999CA2A1989B
:1047840090887F7677767B8782817C7A87919C99E3
:104794008D7F7365564C494B53606F7C8B98A4B0E6
:1047A400BAC6CAC0AF93715238261E1D2632455C64
:1047B400738998A2A9ADA89E928378726C6B717963
:1047C400828D96989492939499A0A7A8A5A39F9854
:1047D400928F88837A6C5E5047434450617183970B
:1047E400A6B5C1CCD1C8BAA07E5E412C1D171B242E
:1047F400344A63798C9AA1A7A59C9081766E6866E9
:104804006A727A838B8D898687888E99A1A6A6A6DB
:10481400A39C9899969182827565554B5E747C71C0
:10482400575889AEB3C8D4BD834B34426D9FD6F775
:10483400F5D6B5A89B8B775731191B293C6499BED3
:10484400BA9F87766B66676E7E959E8E755C575DA4
:104854005F6362615B56575664829FB8CFE0E2D9CA
:10486400C39D847D7A7A7B8590988E72615C6A811F
:10487400949D9F947A5E483D383E4A5D748085825B
:104884007C7773767D96B4C5C5BEB5A693826E5A01
:1048940056595C6066696D6F696C788893A1A7A4AA
:1048A400A09D9E9E998D837D736D747F80786A57D9
:1048B40045373647647A8B938E8B8E99A8B5BEC5DF
:1048C400C7BCA8988E8B877F797F80807E72685E54
:1048D400595C5C646F7D80766B6269747F8A9295A3
:1048E40090867BFA0DFA0D010000000000EE0680B0
:1048F4000000000000310E310E310E41043D043A37
:104904000400000000BA037603210141043D041EA3
:10491400012301003131295A1B750AB400C800D2A1
:1049240000DC00B400C000F000D2001E001E002312
:1049340000280028002D00F6FF1E00340033003646
:10494400003C003400390032002F003200320037BE
:10495400003C003200320032002F002F0030002FC4
:104964000032002F00320031002D0003000200024B
:104974000003000200030002000100FF00FF00FF2B
:10498400002000FF00FF00FF00FF009000600040D7
:10499400009000A000C0002000000000000000877C
:1049A4000DDD091F0DCE0D500D2E0D420D00000022
:1049B400008B114E11B511050E290E150E060E565B
:1049C4004D4450565F317C315F564D4450560D0A6C
:1049D4000052756E6E696E67320052756E6E696E46
:1049E4006700564D4450455F003A323A007C005F00
:0649F400564D4450450041
:00000001FF
