:100000000C947C010C9421080C94FA070C94D307EF
:100010000C94AC070C94A4010C94A4010C948507D7
:100020000C94A4010C94A4010C941B140C948D1436
:100030000C94A4010C94A4010C94A4010C94A401AC
:100040000C94A4010C94700D0C94A4010C94A401C4
:100050000C94A4010C94A4010C94A4010C943B07EF
:100060000C94A4010C94A4010C94A4010C94A4017C
:100070000C94A4010C94A4010C94A4010C94A4016C
:100080000C94A4010C94A4010C94A4010C94A4015C
:100090000C9448080C94A4010C94A4010C94A401A1
:1000A0000C94A4010C94A4010C94A401BA05BD0500
:1000B000AC05B005B605DE05DE05DE05C105C505E6
:1000C000C905CF05D305DE05D905570F950FA70F35
:1000D000FF0F14101F1033103E10491054105F1002
:1000E00000FF1A1A80CC0000FFB3000007060504C9
:1000F0000100080A0B0C0D0997A0895B5A0F830DAC
:10010000C95F6035C2E907E18C24671E458E08632C
:1001100025F0150A17BE0694F778EA4B001AC53E7B
:100120005EFCDBCB75230B2039B12158ED95385798
:10013000AE147D88ABA844AF4AA547868B301BA67A
:100140004D929EE7536FE57A3CD385E6DC695C29E6
:10015000372EF528F4668F3641193FA101D8504952
:10016000D14C84BBD05912A9C8C4878274BC9F5695
:10017000A4646DC6ADBA034034D9E2FA7C7B05CAEB
:100180002693767EFF5255D4CFCE3BE32F103A1103
:10019000B6BD1C2ADFB7AAD577F898022C9AA346D9
:1001A000DD99659BA72BAC09811627FD13626C6E48
:1001B0004F71E0E8B2B97068DAF661E4FB22F2C18F
:1001C000EED2900CBFB3A2F1513391EBF90EEF6B6D
:1001D00031C0D61FB5C76A9DB854CCB07379322DE3
:1001E0007F0496FE8AECCD5DDE72431D1848F38DC8
:1001F00080C34E42D73D9CB49700000000240027E6
:10020000002A002D00300000000000250028002BEF
:10021000002E0031000000000200090F000003045E
:1002200001000C00000000000000000000000000C1
:1002300000000000040802011040804010204080AF
:10024000408008020401804020100201108010202C
:10025000404020000000002300260029002C002F31
:10026000000404040404030405020202020403025D
:10027000020202060606060606040402020204043E
:10028000080B000202020100090400000102020042
:1002900000052400100105240101010424020605C3
:1002A0002406000107058103100040090401000233
:1002B0000A00000007050202400000070583024013
:1002C00000000403090412010002EF02014041236F
:1002D000368000010102030141726475696E6F206E
:1002E0004C4C430041726475696E6F204C656F6EB3
:1002F0006172646F0000512211241FBECFEFDAE05B
:10030000DEBFCDBF14E0A0E0B1E0E6E3F0E502C05F
:1003100005900D92AA30B107D9F726E0AAE0B4E023
:1003200001C01D92AD3BB207E1F711E0CCE7D1E08F
:1003300004C02197FE010E94C626CB37D107C9F71A
:100340000E941B170C9419280C94000080E991E07E
:100350000895859A08954F925F926F927F928F923F
:10036000AF92BF92CF92EF92FF920F931F93CF93D2
:10037000DF933C01EB010E944B06F3012785308996
:10038000621B730B6A307105B0F3F894E881F98150
:1003900051B3506281B38F7D81BB6A859F81262FC7
:1003A000291B922F2F83BF844A805B807D85FC842C
:1003B000EE847F5FF394E3943E814885A984CB84E7
:1003C0001181D20120E0C32F022F322F318111275A
:1003D00088943111390F08F43FEF9195889470FD9E
:1003E000130F1795889471FD130F1795889472FD5C
:1003F000130F1795889473FD130F1795889474FD48
:10040000130F1795889475FD130F1795889476FD33
:10041000130F1795889477FD130F17958894232F42
:100420007111212F960F122F002C51BB00C017FF06
:1004300081BB30812227889400C000C0002C81BB82
:1004400031113C0F00C0002C51BB00C016FF81BB16
:1004500008F43FEFC195889400C000C0002C81BB18
:10046000F0FC230F00C0002C51BB00C015FF81BB66
:1004700027958894F1FC230F00C000C0002C81BB9D
:100480002795889400C0002C51BB00C014FF81BB8D
:10049000F2FC230F2795889400C000C0002C81BB7C
:1004A000F3FC230F00C0002C51BB00C013FF81BB25
:1004B00027958894F4FC230F00C000C0002C81BB5A
:1004C0002795889400C0002C51BB00C012FF81BB4F
:1004D000F5FC230F2795889400C000C0002C81BB39
:1004E000F6FC230F00C0002C51BB00C011FF81BBE4
:1004F00027958894F7FC230F00C000C0002C81BB17
:100500002795889400C0002C51BB00C010FF81BB10
:10051000132FF110122FCA0D00C000C0002C81BB98
:1005200000C000C0002C51BB00C017FF81BB32814E
:100530002227889400C000C0002C81BB3111340FE9
:1005400000C0002C51BB00C016FF81BB08F43FEF78
:10055000EB0DF11D00C000C0002C81BBE0FC230F9F
:1005600000C0002C51BB00C015FF81BB27958894AB
:10057000E1FC230F00C000C0002C81BB27958894AC
:1005800000C0002C51BB00C014FF81BBE2FC230F54
:100590002795889400C000C0002C81BBE3FC230F8A
:1005A00000C0002C51BB00C013FF81BB279588946D
:1005B000E4FC230F00C000C0002C81BB2795889469
:1005C00000C0002C51BB00C012FF81BBE5FC230F13
:1005D0002795889400C000C0002C81BBE6FC230F47
:1005E00000C0002C51BB00C011FF81BB279588942F
:1005F000E7FC230F00C000C0002C81BB2795889426
:1006000000C0002C51BB00C010FF81BB132FE110B4
:10061000122F419500C000C0002C81BB4C0D00C0C2
:1006200000C051BB00C017FF81BB318122278894D5
:1006300000C000C0002C81BB3111390F00C0002C5C
:1006400051BB00C016FF81BB08F43FEF9195889421
:1006500000C000C0002C81BB70FD230F00C0002C27
:1006600051BB00C015FF81BB2795889471FD230FF6
:1006700000C000C0002C81BB2795889400C0002CCE
:1006800051BB00C014FF81BB72FD230F27958894D6
:1006900000C000C0002C81BB73FD230F00C0002CE4
:1006A00051BB00C013FF81BB2795889474FD230FB5
:1006B00000C000C0002C81BB2795889400C0002C8E
:1006C00051BB00C012FF81BB75FD230F2795889495
:1006D00000C000C0002C81BB76FD230F00C0002CA1
:1006E00051BB00C011FF81BB2795889477FD230F74
:1006F00000C000C0002C81BB2795889400C0002C4E
:1007000051BB00C010FF81BB132F7111122F960F28
:1007100000C000C0002C81BB119709F086CE20EEEE
:1007200031E0D2010E94CC26DC01CB01F4E0B69589
:10073000A79597958795FA95D1F720E030E0A90124
:100740006AE9469E412D569E400D511D1124840F8D
:10075000951FA11DB11D893E43E09407A105B10578
:1007600088F1885E9340A109B10942E0B695A7954A
:10077000979587954A95D1F747E0849F212D949FBF
:10078000200D311D112460916D0470E0860F971FBC
:10079000820F931F40918E0450918F0460919004BA
:1007A00070919104292F3327420F531F611D711D32
:1007B00040938E0450938F0460939004709391043F
:1007C00080936D0478940E944B06F301708B6787C9
:1007D000DF91CF911F910F91FF90EF90CF90BF903D
:1007E000AF908F907F906F905F904F9008950F9390
:1007F0001F93CF93DF93CDB7DEB762970FB6F89410
:10080000DEBF0FBECDBF8C01F901DC011C968C91BF
:100810007A8369835C834B835E834D8390819D875C
:1008200091819E8792819F87813029F4CE01019624
:100830000E94190A06C01C861B861A86198618860D
:100840001F8283E0888B1A8A198AD801ED91FC9166
:100850000484F585E02DBE016F5F7F4FC8010995C7
:1008600062960FB6F894DEBF0FBECDBFDF91CF9179
:100870001F910F9108950F931F93CF93DF93CDB7DF
:10088000DEB762970FB6F894DEBF0FBECDBF8C0106
:10089000F901DC011C968C917A8369835C834B831C
:1008A0005E834D8390819D8791819E8792819F87F2
:1008B000813029F4CE0101960E94190A06C01C86D7
:1008C0001B861A86198618861F82188A1A8A198A20
:1008D000D801ED91FC910484F585E02DBE016F5F98
:1008E0007F4FC801099562960FB6F894DEBF0FBE20
:1008F000CDBFDF91CF911F910F910895CF93DF93DB
:100900001F92CDB7DEB76983DC01ED91FC910280C7
:10091000F381E02D41E050E0BE016F5F7F4F09950C
:100920000F90DF91CF91089583E08093E90080914B
:10093000F200882319F08AE38093E8000895FC010F
:100940008485958597FD0BC09FB7F89482E08093CE
:10095000E9008091F2009FBF90E0019608959FB753
:10096000F89482E08093E9008091F2009FBF90E0CC
:100970000895089585ED8093BC008091BC0084FDAE
:10098000FCCF10920F0508950895E0910B0480911B
:100990000A04E81730F4F0E0E259FB4F808190E060
:1009A00008958FEF9FEF089590910B0480910A04B2
:1009B000981750F4E92FF0E0E259FB4F208130E026
:1009C0009F5F90930B0402C02FEF3FEFC901089582
:1009D00080910A0490E020910B04821B91090895F4
:1009E000CF92DF92EF92FF920F931F93CF93DF93FB
:1009F0007C018A0180911005882389F0EB016B014D
:100A0000C40ED51ECC15DD05F1F06991D701ED912D
:100A1000FC910190F081E02DC7010995F3CF842F5F
:100A2000413288F490910F05943069F44093B504F5
:100A3000FB0123E934E0D9019A2F921B981718F48F
:100A400091919D93F9CFC801DF91CF911F910F91A3
:100A5000FF90EF90DF90CF90089520911005222312
:100A6000C9F020913305203240F021E030E0FC0154
:100A70003383228380E090E0089580911105E82F70
:100A8000F0E0EE5EFA4F60838F5F809311058093F4
:100A9000330509C080910F05843029F481E08093EB
:100AA000B5046093930481E090E00895089580E098
:100AB00090E008950E94371390E008950F931F93DC
:100AC000CF93DF931F92CDB7DEB78C01FC018485F5
:100AD000958597FF0EC0CE0101960E940D130197D8
:100AE00019F4298130E002C02FEF3FEFF80135877C
:100AF0002487F801848595850F90DF91CF911F9110
:100B00000F910895CF93DF931F92CDB7DEB7FC010D
:100B10008485958597FD05C02FEF3FEF35872487A6
:100B20000BC0CE0101960E940D13019719F4898123
:100B300090E002C08FEF9FEF0F90DF91CF9108956B
:100B40000E94142890E0FC013197EF30F105B0F5D8
:100B5000EA5AFF4F0C94C626809180008F7703C01D
:100B6000809180008F7D8093800008958091800027
:100B7000877FF9CF84B58F7702C084B58F7D84BD20
:100B80000895809190008F7707C0809190008F7DAD
:100B900003C080919000877F80939000089580919A
:100BA000C0008F7703C08091C0008F7D8093C0000C
:100BB00008958091C200877F8093C20008951F939B
:100BC000CF93DF93282F30E0F901EB5EFD4F849146
:100BD000F901EC5CFD4FD491F901EF59FD4FC4913F
:100BE000CC23C9F0162F81110E94A205EC2FF0E052
:100BF000EE0FFF1FE95FFD4FA591B4918FB7F894F9
:100C0000111105C09C91ED2FE095E92302C0EC91F4
:100C1000ED2BEC938FBFDF91CF911F910895CF9370
:100C2000DF9390E0FC01EC5CFD4F2491FC01EF5957
:100C3000FD4F8491882361F190E0880F991FFC019A
:100C4000E750FE4FC591D491FC01E95FFD4FA5919E
:100C5000B491611109C09FB7F894888120958223CF
:100C60008883EC912E230BC0623061F49FB7F89417
:100C70003881822F809583238883EC912E2B2C93AF
:100C80009FBF06C08FB7F894E8812E2B28838FBFB3
:100C9000DF91CF9108953FB7F8948091DB04909154
:100CA000DC04A091DD04B091DE0426B5A89B05C04C
:100CB0002F3F19F00196A11DB11D3FBFBA2FA92FDB
:100CC000982F8827820F911DA11DB11DBC01CD0158
:100CD00042E0660F771F881F991F4A95D1F7089544
:100CE0008F929F92AF92BF92CF92DF92EF92FF923C
:100CF0006B017C010E944B064B015C01C114D104C5
:100D0000E104F104F1F00E944B06DC01CB018819EB
:100D10009909AA09BB09883E9340A105B10570F362
:100D200021E0C21AD108E108F10888EE880E83E0BC
:100D3000981EA11CB11CC114D104E104F10419F7DF
:100D4000DDCFFF90EF90DF90CF90BF90AF909F905E
:100D50008F9008958F929F92AF92BF92CF92DF9221
:100D6000EF92FF920F931F93CF93DF935C016B0180
:100D70007A0180910803882309F45BC08091E8041C
:100D8000882309F456C08091B30680FF05C0809186
:100D9000E00082608093E000E70110E00AEF83E06A
:100DA000882E9AE3992E2097D9F10E94371381114A
:100DB0000AC0015009F43DC061E070E080E090E0BD
:100DC0000E947006F0CF282F30E0C217D3070CF432
:100DD0008C2F4FB7F8948092E9009091E80095FF2E
:100DE0001DC0282F30E0C21BD30BF601982F915065
:100DF00020F081918093F100FACFC20ED31E11230F
:100E000019F09092E80009C08091E80085FD06C0C5
:100E10009092E80011E0209709F010E04FBFC3CF97
:100E20001111C3CF5D9884E68093B4061E141F048D
:100E300044F081E090E0F5019383828380E090E0CC
:100E400001C0C701DF91CF911F910F91FF90EF90EB
:100E5000DF90CF90BF90AF909F908F9008952FB765
:100E6000F89460918E0470918F0480919004909119
:100E700091042FBF08951F920F920FB60F92112465
:100E80002F933F938F939F93AF93BF9380918E0443
:100E900090918F04A0919004B09191043091DA0464
:100EA00023E0230F2D3720F40196A11DB11D05C0AD
:100EB00026E8230F0296A11DB11D2093DA0480932A
:100EC0008E0490938F04A0939004B093910480912A
:100ED000DB049091DC04A091DD04B091DE04019666
:100EE000A11DB11D8093DB049093DC04A093DD046D
:100EF000B093DE04BF91AF919F918F913F912F915D
:100F00000F900FBE0F901F9018951F920F920FB663
:100F10000F9211242F933F934F935F936F937F937F
:100F20008F939F93AF93BF93EF93FF93E09124012F
:100F3000F09125010995FF91EF91BF91AF919F919C
:100F40008F917F916F915F914F913F912F910F9072
:100F50000FBE0F901F9018951F920F920FB60F9211
:100F600011242F933F934F935F936F937F938F93AE
:100F70009F93AF93BF93EF93FF93E0912201F09182
:100F800023010995FF91EF91BF91AF919F918F91AF
:100F90007F916F915F914F913F912F910F900FBE75
:100FA0000F901F9018951F920F920FB60F92112459
:100FB0002F933F934F935F936F937F938F939F9361
:100FC000AF93BF93EF93FF93E0912001F091210144
:100FD0000995FF91EF91BF91AF919F918F917F9173
:100FE0006F915F914F913F912F910F900FBE0F9096
:100FF0001F9018951F920F920FB60F9211242F93E6
:101000003F934F935F936F937F938F939F93AF9390
:10101000BF93EF93FF93E0911E01F0911F0109959B
:10102000FF91EF91BF91AF919F918F917F916F91C0
:101030005F914F913F912F910F900FBE0F901F9096
:1010400018951F920F920FB60F9211242F933F9372
:101050004F935F936F937F938F939F93AF93BF93C0
:10106000EF93FF93E0911C01F0911D010995FF9111
:10107000EF91BF91AF919F918F917F916F915F9110
:101080004F913F912F910F900FBE0F901F90189589
:101090001F920F920FB60F9211242F933F934F93ED
:1010A0005F936F937F938F939F93AF93BF93EF93D0
:1010B000FF938091B900887F803609F49CC068F561
:1010C000883209F45BC090F4803109F454C038F4DC
:1010D000882309F4F3C0883009F44DC0F3C0883187
:1010E00009F44CC0803209F45DC0ECC0803409F4CE
:1010F00068C048F4803309F455C0883309F0E2C071
:1011000080930D05D5C0803509F44FC0883509F4AA
:101110005DC0883409F0D6C0D3C0883909F4C4C092
:10112000A8F4883709F467C038F4883609F463C036
:10113000803709F460C0C6C0883809F4B5C080396A
:1011400009F45FC0803809F0BDC05BC0803B09F482
:1011500083C038F4803A09F466C0883A09F47CC048
:10116000B1C0803C09F4A4C0883C09F4A1C0883B0C
:1011700009F487C0A7C08091EA0410C090910C05C3
:1011800080910B05981770F5E0910C0581E08E0FAA
:1011900080930C05F0E0E551FB4F80818093BB000C
:1011A00085EC83C080930D058BC0E0910C0581E038
:1011B0008E0F80930C058091BB00F0E0E551FB4F52
:1011C000808390910C0580910B056BC0E0910C051C
:1011D00081E08E0F80930C058091BB00F0E0E5511B
:1011E000FB4F808380910E0581116AC081E080935E
:1011F000E90484EA5EC083E080930F051092D9046D
:10120000CFCF8091D904803208F04EC0E091D9044C
:1012100081E08E0F8093D9048091BB00F0E0E75409
:10122000FB4F8083BDCF8091D904803230F4E091B0
:10123000D904F0E0E754FB4F10820E94BA04609199
:10124000D90470E0E091B704F091B80489EB94E020
:1012500009951092D9042CC084E080930F05109258
:10126000B6041092B504E091B304F091B40409956A
:101270008091B504811105C081E08093B50410927E
:101280009304E091B60481E08E0F8093B604F0E001
:10129000ED56FB4F80818093BB009091B604809106
:1012A000B504981708F47CCF85E88093BC000AC089
:1012B00085EC8093BC0010920F0504C010920D05C0
:1012C0000E94BA04FF91EF91BF91AF919F918F91CE
:1012D0007F916F915F914F913F912F910F900FBE32
:1012E0000F901F901895DC01FB014C9111965C91B9
:1012F000119712967C91342F3F71330F330F832F48
:10130000880F35E5282F239F020E20E0211D112490
:10131000642F6074942F907247FD21C061110BC03F
:10132000911104C0822F8095422F11C045E5420FD4
:1013300030E02BEA33C091110DC0382F4AEA349FB8
:10134000030E30E0311D11248BEA831B420F282F3E
:1013500030E024C080E0422F4095322F0EC0611152
:1013600011C091110CC0382F2AEA329F030E30E0D1
:10137000311D11244BEA431B3B5A20E00FC0322F92
:1013800030950BC0911104C085E5820F3BEA03C084
:101390008AEA820F90E0321B282F40E05F3F11F174
:1013A0005523E9F0222321F0259F020E20E0211D84
:1013B000442321F0459F040E40E0411D332321F0DA
:1013C000359F030E30E0311D11245095559F050EB9
:1013D00050E0511D1124250F450F350F03C03FEF7D
:1013E0004FEF2FEF7F3F09F420C050E0772321F02B
:1013F000779F512D09F05F5F5523A1F0222321F043
:10140000259F020E20E0211D442321F0459F040E5C
:1014100040E0411D332321F0359F030E30E0311DA4
:10142000112403C030E040E020E020834183328378
:101430000895EF92FF920F931F93CF93DF93EC01E8
:10144000909192049F5F292F27702093920490FF20
:1014500002C090E801C090E021FD9064247009F082
:10146000906220E1290FFE013C967E018FE0E80E9C
:10147000F11C00E011E06191662331F070E0C801D9
:101480000E94B2266F5F01C060E0DF0114976C9389
:10149000322F369F030E30E0311D1124CF01079704
:1014A000311103C0EC01188203C03150EC013883C4
:1014B000662311F061506C93EE15FF05E1F6DF91A4
:1014C000CF911F910F91FF90EF900895FF920F938E
:1014D0001F93CF93DF93DC01ED91FC91AF2F31E0AF
:1014E0003F0F321301C030E0EF01DD278B010A0FFF
:1014F000111DD801FC90DB01A30FB11D3C913C9F55
:1015000080013D9F100D1124A0E0B1E0AC1BBD0B8C
:10151000FA9EB001FB9E700D1124600F711F4E0FDB
:101520005F1F30E0322F22274217530710F0421B73
:10153000530BDC014D935C93872FDF91CF911F916B
:101540000F91FF90089580E090E00895FC0185855B
:1015500096850895CF93DF9300D000D000D0CDB70B
:10156000DEB7AB011C821D821E82DC01ED91FC9175
:101570000190F081E02D19821A821B829E012F5F5B
:101580003F4FBE016C5F7F4F099526960FB6F894CA
:10159000DEBF0FBECDBFDF91CF910895DC01ED918D
:1015A000FD918081ED91FD919081ED91FD916C9186
:1015B00063708E2309F064609F2309F06860EBEE8E
:1015C000FAE0E60FF11D659565956D936D917D913E
:1015D0008D919D91099423C01AC012C016C010C0ED
:1015E0001EC009C014C013C006C019C009C00DC078
:1015F00007C00DC014C062507040804090400BC0C6
:10160000615070408040904006C06E5F01C06F5FC7
:101610007F4F8F4F9F4F9E938E937E936E9308952F
:101620008091EF059091F0050C94CE0A8091ED0524
:101630009091EE050C94CE0A8091EB059091EC050B
:101640000C94CE0A8091E9059091EA050C94CE0A9B
:101650008091160490911704019709F040C083E02F
:1016600090E0909317048093160460910C0482E03C
:1016700090E00E945B1260910D0183E090E00E9477
:101680005B126091160184E090E00E945B12609111
:10169000120185E090E00E945B126091090186E0F2
:1016A00090E00E945B1260910B0187E090E00E9445
:1016B0005B1260910E018CE090E00E945B126091E1
:1016C00003018BE090E00E945B126AE280E090E010
:1016D0000E945B1260E081E090E00C945B12089540
:1016E0008091160490911704892B31F482E090E0E8
:1016F00090931704809316040895DC01FB01808108
:10170000918111969C938E938281938113969C93E1
:101710008E9312978481958115969C938E9314973E
:10172000868116968C9316978781908518969C9340
:101730008E931797818592851A969C938E9319970D
:10174000838594851C969C938E931B97CD010D9653
:10175000635F7F4F8617970710F40C949010FD96E7
:10176000DD9680E390E0FF01DD0180FF05C002C04F
:1017700002900E9202900E928250D0F79040C0F7E5
:1017800008952F923F924F925F926F927F928F9225
:101790009F92AF92BF92CF92DF92EF92FF920F9300
:1017A0001F93CF93DF93CDB7DEB7CB54D1090FB6DC
:1017B000F894DEBF0FBECDBF8C01DC011796FC9004
:1017C00017971996EC9019971B96DC90D982EA82AC
:1017D000FB82BE01625C7F4FCE0101960E947309BD
:1017E000D982EA82FB82BE01625C7F4FCE01019604
:1017F0000E9473099EAC8FAC2196BFAD21972296B3
:10180000BFAF2297B801CE0101960E947D0B809157
:101810001004823009F05BC0E0900C04F0900D04DD
:10182000C980DA8017E7612E16E0712E60E070E063
:1018300000E010E040E050E0F601E60FF71F9801ED
:101840002958394F4E155F0579F4D301BC90B08209
:10185000D90111969C911197918312968C91828354
:10186000B3829483858320C0D90112968C911297FC
:1018700090E024E0959587952A95E1F711962C91B3
:1018800030E0A4E035952795AA95E1F7D301AC9017
:10189000B12CB4E0B594A794BA95E1F7A082218366
:1018A00082831382148215820D5F1F4F1682178266
:1018B00010864F5F5F4F675F7F4FB3E06B0E711C09
:1018C0004C30510509F0B8CF04E210E002C000E04E
:1018D00010E02B803C802101032C000C6608770867
:1018E000E1E04E1A5108610871088091110490914D
:1018F00012049C01990F440B550B28962CAF3DAF59
:101900004EAF5FAF289723E630E0D8010E94CC2687
:101910009801220F331FA901400F511F29813A81DD
:10192000D901A40FB51F2496BFAFAEAF2497C12C29
:10193000D12C7601A12CB12C9B01AC01235631098D
:10194000410951092C962CAF3DAF4EAF5FAF2C979C
:1019500002151305CCF52C966CAD7DAD8EAD9FAD0B
:101960002C976C0D7D1D8E1D9F1DA30192010E9461
:101970000425DA01C9010196A11DB11D2496EEAD21
:10198000FFAD2497EA0DFB1D28962CAD3DAD4EAD65
:101990005FAD289782179307A407B5073CF49082A0
:1019A000818222963FAD2297328303C0108211823A
:1019B00012820F5F1F4F43E0A40EB11C53E6C50E09
:1019C000D11CE11CF11CC4CF0E943E11C55BDF4F4E
:1019D0000FB6F894DEBF0FBECDBFDF91CF911F9140
:1019E0000F91FF90EF90DF90CF90BF90AF909F90BE
:1019F0008F907F906F905F904F903F902F900895C1
:101A0000AF92BF92CF92DF92EF92FF920F931F930C
:101A1000CF93DF93CDB7DEB7ED970FB6F894DEBF67
:101A20000FBECDBF7C016B015A010DEF15E01E14F6
:101A30001F041CF4F801F086E7821C141D041CF43A
:101A4000F801D286C1861A141B041CF4F801B4866E
:101A5000A386B801CE0101960E947D0BCE010196AE
:101A60000E94C10B035C1F4FF6E007371F07F9F612
:101A7000ED960FB6F894DEBF0FBECDBFDF91CF91CC
:101A80001F910F91FF90EF90DF90CF90BF90AF909C
:101A90000895CF93DF93CDB7DEB7ED970FB6F894E7
:101AA000DEBF0FBECDBF6DEF75E0CE0101960E9487
:101AB0007D0BCE0101960E94C10B6AE376E0CE0158
:101AC00001960E947D0BCE0101960E94C10BED96FE
:101AD0000FB6F894DEBF0FBECDBFDF91CF91089552
:101AE0001F920F920FB60F921124CF92DF92EF92B6
:101AF000FF920F931F932F933F934F935F936F9397
:101B00007F938F939F93AF93BF93CF93DF93EF9385
:101B1000FF93C0911504D0E0C0901404D12C009123
:101B2000130410E040911401509115012DEC60E375
:101B300072E083EE94E00E94660A90E0805891097A
:101B40008C9F70018D9FF00C9C9FF00C1124409194
:101B500010015091110125E86BEA71E081EE94E0EB
:101B60000E94660A90E0805891098C9DE0018D9D4D
:101B7000D00D9C9DD00D112440910701509108017A
:101B800025E866E271E08FED94E00E94660ACE0DD2
:101B9000DF1DD05890E080589109809F9001819F6F
:101BA000300D909F300D1124C20FD31FD093D00061
:101BB000FF91EF91DF91CF91BF91AF919F918F9165
:101BC0007F916F915F914F913F912F911F910F9155
:101BD000FF90EF90DF90CF900F900FBE0F901F906F
:101BE0001895CF92DF92EF92FF92CF93DF93EC01A3
:101BF000688179818A819B819B01AC010E94FE23CF
:101C000020E030E0A9010E943E256B017C016C813F
:101C10007D818E819F819B01AC010E94FE239B01EF
:101C2000AC01C701B6010E943E256B017C016885AD
:101C300079858A859B859B01AC010E94FE239B01CF
:101C4000AC01C701B6010E943E25DF91CF91FF9004
:101C5000EF90DF90CF900C945D26AF92BF92CF9221
:101C6000DF92EF92FF920F931F93CF93DF9300D0F9
:101C700000D000D0CDB7DEB78B01EE24E394E09224
:101C8000100578E6F72EF0923205109211051092A9
:101C90003305682F86E895E00E942D050E94751295
:101CA000E0921005F0923205109211051092330562
:101CB00080910F058111FCCF81E080930F05809307
:101CC0000E059FEF90930D0510920C0595E09093F3
:101CD0000B058093EA048091EA04806D8093EA0406
:101CE0008091E904813041F41092E9048091EA0482
:101CF0008093BB0085EC01C085EE8093BC00809191
:101D00000F058130E1F380910C05863018F4F090D6
:101D10000C0502C066E0F62EABEEB4E02EE634E031
:101D2000F9018E2F821B8F1518F48D918193F9CFB5
:101D300010920B04F0920A0486E08F1580F0FE01E9
:101D400031965F016F018C2D8A198F1588F486E812
:101D500095E00E94D404F60181936F01F4CF56E020
:101D6000E52E86E895E00E94D404EA94E110F9CFCC
:101D70000E947512F6E0FF1611F080E01AC089810A
:101D800090E0982F88272A81822BF8019183808305
:101D90008B8190E0982F88272C81822B93838283DC
:101DA0008D8190E0982F88272E81822B95838483C4
:101DB00081E026960FB6F894DEBF0FBECDBFDF914F
:101DC000CF911F910F91FF90EF90DF90CF90BF9038
:101DD000AF900895161617063CF4281B390B6217AE
:101DE00073077CF49B010DC06115710541F0481B20
:101DF000590B9B016417750724F49A0102C020E077
:101E000030E0820F931F0895CF93DF938091FC05FC
:101E1000823030F4F89481EF95E00E94CE0A01C040
:101E2000F8948091F8059091F905A091FA05B09188
:101E3000FB0578949C0197FF02C02D5F3F4F3595BD
:101E40002795359527952115310509F466C16CEF65
:101E50006203A001639F500D1124F894840F951F15
:101E6000092E000CAA0BBB0B8093F8059093F90583
:101E7000A093FA05B093FB057894CC27DD27C21B0D
:101E8000D30B80911004813009F429C120F08230F5
:101E900009F428C13EC1E0910C04F0910D04EB302F
:101EA000F10508F036C1EB59FF4F0C94C62628E027
:101EB00030E041E050E0BE018091030190910401C7
:101EC0000E94EA0E9093040180930301209116046E
:101ED0003091170422303105D9F03CF42115310539
:101EE00059F02130310579F014C12330310521F04A
:101EF0002430310599F00DC11C161D060CF009C1E6
:101F00000E94700B06C1D7FF04C10E94280B01C1BB
:101F1000D7FFFFC0019709F0FCC0F7CFD7FFF9C08A
:101F20001092170410921604F4C0BE0144E0660F2C
:101F3000771F4A95E1F780910D012FEF30E040E0E7
:101F400050E090E00E94EA0E80930D01E2C027E08D
:101F500030E040E050E0BE018091E5049091E6045D
:101F60000E94EA0E9093E6048093E504880F991F7F
:101F7000FC01E755FC4F40815181FC01E756FC4FC5
:101F8000608171818FEF9FEF0E94000D8091E504C9
:101F90009091E604880F991FFC01E757FC4F2081C0
:101FA00031813093040120930301FC01E758FC4F79
:101FB000208131813093170120931601FC01E759EC
:101FC000FC4F208131813093130120931201FC01D9
:101FD000E75AFC4F2081318130930A012093090197
:101FE000FC01E75BFC4F2081318130930C01209391
:101FF0000B01FC01E75CFC4F808191816BC0BE014D
:1020000093E0660F771F9A95E1F72FEF30E047E0F6
:1020100050E080910406909105060E94EA0E4FEF71
:102020005FEF6FEF7FEF73C0809108069091090614
:10203000480F591F509309064093080664C0BE011B
:1020400083E0660F771F8A95E1F72FEF30E040E0DD
:1020500050E080910606909107060E94EA0E4FEF2D
:102060005FEFBC0152C08091160190911701821B55
:10207000930B90931701809316014BC0809112012E
:1020800090911301821B930B909313018093120183
:1020900040C08091090190910A01821B930B90939B
:1020A0000A018093090135C080910B0190910C01C8
:1020B000821B930B90930C0180930B012AC02FEF8E
:1020C00030E040E050E0BE0180910E0190910F01A0
:1020D0000E94EA0E90930F0180930E011AC082E0D5
:1020E000809310042BE030E040E050E0BE0180918E
:1020F0000C0490910D040E94EA0E90930D048093BD
:102100000C044FEF5FEF6FEF7FEF8FEF9FEF0E94B9
:10211000000D10920F0410920E04DF91CF910895DC
:1021200020E330E0FB01DC0120FF05C002C001908C
:102130000D9201900D922250D0F73040C0F70895D3
:102140007F928F929F92AF92BF92CF92DF92EF9247
:10215000FF920F931F93CF93DF93FC01EB017A0162
:10216000D90148175907C8F42C9111969C911197E1
:1021700012968C91129738813C93398111963C9339
:1021800011973A8112963C931297288399838A83F8
:102190009E2F8F2FFA01E92EF82EC880D12C8C911A
:1021A00090E08C199D099695982F8827979587958B
:1021B000098110E01196AC901197B12CA01AB10AC8
:1021C000B694BA2CAA24B794A7942A8130E0129628
:1021D000CC91D0E0C21BD30BD695DC2FCC27D79562
:1021E000C795A7014E1B5F0B19F0742E452F03C036
:1021F0007724739440E0672D742F0E94B2264B0120
:10220000C501672D742F0E94B2265B01CE01672D98
:10221000742F0E94B226880C991CAA0CBB1C660F56
:10222000771FDC2CCC24102F0027322F2227DF0130
:10223000AA0FBB1FAE0FBF1FA45FB94FEE16FF065C
:1022400078F0ED012297D882219618833C93C80C30
:10225000D91C0A0D1B1D260F371F31961396EECF82
:10226000DF91CF911F910F91FF90EF90DF90CF9072
:10227000BF90AF909F908F907F9008953F924F9224
:102280005F926F927F928F929F92AF92BF92CF9206
:10229000DF92EF92FF920F931F93CF93DF9300D0C3
:1022A0001F92CDB7DEB7F090DA058091DD059091F1
:1022B000DE05A091DF05B091E005892B8A2B8B2BE1
:1022C000E9F00E944B060091AD061091AE062091F8
:1022D000AF063091B006DC01CB01801B910BA20B45
:1022E000B30B0091DD051091DE052091DF053091E3
:1022F000E00580179107A207B307B8F20E944B06CA
:102300006093AD067093AE068093AF069093B006CF
:10231000E091E505F091E605309759F04091E1052F
:102320005091E2056091E3057091E4058F2D0995C8
:10233000F82E00913405109135054F2C512C612C4D
:10234000712C0115110509F461C0D8011C96EC909F
:102350001C978091DB059091DC058436910510F483
:102360001C961C92D801ED91FC91A280B380198239
:102370001A821B82F11014C0F801458556856281CE
:1023800073819E012F5F3F4FC801F5010995D80168
:102390001C96EC921C9714960D911C911597D1CF19
:1023A000F8013996CE0101966C0148019CE0890E36
:1023B000911CDF0113973C902191332001F12223DE
:1023C000F1F0822F90E0A0E0B0E09C01AD012F5F22
:1023D0003F4F4F4F5F4FC301B2010E94D2249B0178
:1023E000AC01832D90E0A0E0B0E0BC01CD016F5FB7
:1023F0007F4F8F4F9F4F0E94D224D6018C93BFEF07
:10240000CB1ADB0AE815F905A1F6B6CF8091AB0629
:102410009091AC068C010F5F1F4F1093AC06009398
:10242000AB0649979CF10E942F074B015C0188EE97
:1024300093E0089FB001099F700D189F700D112443
:10244000072E000C880B990BC090A706D090A80609
:10245000E090A906F090AA06A50194012C193D0967
:102460004E095F090E94E2243093DC052093DB05CE
:102470001092AC061092AB060E942F076093A7063D
:102480007093A8068093A9069093AA060F900F90C8
:102490000F90DF91CF911F910F91FF90EF90DF9000
:1024A000CF90BF90AF909F908F907F906F905F90F4
:1024B0004F903F9008950F931F93CF93DF931F92F8
:1024C000CDB7DEB78C0169830E94BC246981861771
:1024D00029F0C8010E94C42481E001C080E00F906F
:1024E000DF91CF911F910F91089520913305909125
:1024F0003205213208F046C080910F058111FCCFD2
:1025000032E030930F0531E030930E053FEF30930A
:102510000D0510920C0520930B05A2E1B5E04BEEE2
:1025200054E0FA013E2F341B321718F43D913193D9
:10253000F9CF1092EA042091EA04990F922B90931C
:10254000EA049091E904913041F41092E9049091E9
:10255000EA049093BB0095EC01C095EE9093BC000B
:1025600090910F059230E1F390910D059F3F79F026
:1025700080910D05803241F080910D05803331F05E
:1025800084E005C081E003C082E001C083E01092D6
:10259000110510923305109210050895CF93C62FA0
:1025A00091E09093100598E69093320510921105F2
:1025B00010923305682F86E895E00E942D056C2F58
:1025C00086E895E00E942D050E94751281E0CF916A
:1025D0000895CF93DF93EDE1F2E08491ECE3F2E034
:1025E000D491E9E6F2E0C491CC2391F081110E94EC
:1025F000A205EC2FF0E0EE0FFF1FED5AFD4FA59165
:10260000B491EC91ED2381E090E021F480E002C0F0
:1026100080E090E0DF91CF910895FC018091E80483
:10262000811103C08FEF9FEF08959FB7F89482E068
:102630008093E9002091F20030E01216130614F4A2
:1026400021E030E02115310559F0289884E6809387
:10265000E7048091F10080838091F200882319F0D3
:102660009FBFC90108958BE68093E800F9CF2FB78B
:10267000F89483E08093E9009091E800892F8072BC
:1026800095FF04C09091F20080E4891B2FBF08954C
:1026900080919F0681110DC082E080939B0684E0AB
:1026A00080939C0610929E0610929D0681E0809376
:1026B0009F068BE996E008954091B7065091B806C1
:1026C0002091B5063091B60642175307B4F49091A5
:1026D000E8009570E1F39091E80092FD19C08093B5
:1026E000F1008091B7069091B80601968F739927F3
:1026F000892B19F48EEF8093E8008091B7069091B2
:10270000B80601969093B8068093B70681E00895C5
:1027100080E00895DF92EF92FF920F931F93CF9383
:10272000DF93D82E8A017B01E40EF51EEB01CE1556
:10273000DF0571F0D7FE03C0FE01849101C08881DE
:102740000E945C1321968111F2CF8FEF9FEF01C0A1
:10275000C801DF91CF911F910F91FF90EF90DF9013
:102760000895615030F02091F100FC012083019622
:10277000F8CF289884E68093E7040895CF92DF92FB
:10278000EF92FF920F931F93CF93DF936C017A0127
:102790008B01C0E0D0E0CE15DF0589F0D8016D9146
:1027A0008D01D601ED91FC910190F081E02DC601E3
:1027B0000995892B11F47E0102C02196ECCFC70147
:1027C000DF91CF911F910F91FF90EF90DF90CF900D
:1027D00008950F931F93CF93DF931F92CDB7DEB76A
:1027E00082E0898342E450E060E872E080E80E9481
:1027F0008A130E944813DC0112960D911C911397C5
:102800000115110569F0D801ED91FC910280F38169
:10281000E02DBE016F5F7F4FC801099597FF07C08C
:1028200089810F90DF91CF911F910F910895F80149
:1028300000851185E5CF1F920F920FB60F921124DC
:102840008F939F938091E1009091E100937F90930B
:10285000E10083FF0FC01092E90091E09093EB003C
:102860001092EC0092E39093ED001092E80498E04F
:102870009093F00082FF20C093E09093E900909144
:10288000F200992319F09AE39093E8009091B4062E
:10289000992339F09091B40691509093B4069923FE
:1028A00089F19091E704992339F09091E7049150D0
:1028B0009093E704992341F184FF10C08091E200D6
:1028C0008E7E81608093E2008091E1008F7E809314
:1028D000E1008091B3068E7E806111C080FF16C03A
:1028E0008091E2008E7E80618093E2008091E10021
:1028F0008E7E8093E1008091B3068E7E816080930E
:10290000B30604C05D9ACDCF289AD6CF9F918F9100
:102910000F900FBE0F901F9018951F920F920FB639
:102920000F921124CF92DF92EF92FF920F931F9399
:102930002F933F934F935F936F937F938F939F93C7
:10294000AF93BF93EF93FF93CF93DF93CDB7DEB7F2
:102950006C97DEBFCDBF1092E9008091E80083FF45
:10296000EDC168E0CE0145960E94B11382EF8093DD
:10297000E8008D8987FF05C09091E80090FFFCCFAB
:1029800003C09EEF9093E800982F907609F0C6C0A0
:102990009E892F89188D91110CC0803829F480915F
:1029A000B2068093F10002C01092F1001092F10083
:1029B00048C1422F50E0512B913051F4811141C157
:1029C0004130510509F03DC18091B2068D7F0BC0A9
:1029D000933061F4811135C14130510509F031C1A5
:1029E0008091B20682608093B2062BC1953041F48B
:1029F0008091E80080FFFCCF20682093E30021C194
:102A0000963009F05FC0EB8CFC8C1092E9001092BC
:102A1000B8061092B706123091F51092B6061092D1
:102A2000B5060E94E91399E0BE016F5F7F4FDB019D
:102A3000E92F1D92EA95E9F799831A8391E09E8325
:102A400090EA98879AEF99872091B7063091B80657
:102A5000275F3F4F3C832B838D831092E9001092B8
:102A6000B8061092B706F092B606E092B50649E0B5
:102A700050E080E00E948A130E94E913E2C0F092C5
:102A8000B606E092B5060E944813DC011296ED905E
:102A9000FC901397E114F10409F4C0C0D701ED9143
:102AA000FC910480F581E02DBE016B5E7F4FC70174
:102AB0000995009719F00CF0C4C0C7C0F701E08475
:102AC000F184E8CF973009F4C0C0983021F481E058
:102AD0008093F100B6C0993009F0B3C0837009F05B
:102AE000B4C0EEEDF3E081E021E036E3908199237C
:102AF00061F08093E9002093EB0091919093EC00BA
:102B00003093ED008F5F873089F78EE78093EA007E
:102B10001092EA008F898093E80493C08B8D9C8D7E
:102B20001092E9001092B8061092B7069093B6067C
:102B30008093B506898D811156C08E899D89913A01
:102B400059F4813209F081C047E050E061E073E060
:102B500080E00E948A1375C0913209F076C08332FA
:102B600089F4888D90E0982F88272F89822BA0E008
:102B7000B0E08093FD029093FE02A093FF02B09319
:102B800000035FC0803269F48091E80082FFFCCFCF
:102B900067E081E093E00E94B1138BEF8093E8003F
:102BA00006C0823209F04DC08F898093080380915E
:102BB000B106882319F0EEEFFAE002C0E0E0F8E099
:102BC0008091010390910203A0910303B09104034B
:102BD000803B9440A105B10509F07BC080910803BA
:102BE00080FF93C076C00E944813DC0112960D91BD
:102BF0001C9113970115110541F1D801ED91FC913C
:102C00000190F081E02DBE016B5E7F4FC8010995F8
:102C1000811117C0F80100851185ECCF113009F43E
:102C20004EC0133091F48F89882309F445C0823057
:102C300081F440E860E184EE92E00E945B23882307
:102C400021F08EEF8093E80079C081E28093EB0061
:102C500075C0813029F440E86BE088ED92E0EDCF5B
:102C6000833099F70E944813DC011296ED90FC9096
:102C700013978E010F5F1F4F6801E114F10479F083
:102C8000D701ED91FC910680F781E02DB801C701D5
:102C90000995080F111DF701E084F184EECFD801EA
:102CA0001C92F60101900020E9F73197BF016C19E1
:102CB0007D0940E0C601C1CF62EC72E002C066EC63
:102CC00072E06115710509F2FB01449150E080E862
:102CD00040CF0FB6F894A8958091600088618093EA
:102CE0006000109260000FBEA895EE3F2AE0F20748
:102CF00039F08091FE0A9091FF0A91838083A1CFE1
:102D00001092FF0A1092FE0A9CCFEE3F8AE0F8076D
:102D100031F0808191819093FF0A8093FE0A87E7CA
:102D200097E7918380839BE088E10FB6F894A8959C
:102D3000809360000FBE9093600083CF6C960FB6B7
:102D4000F894DEBF0FBECDBFDF91CF91FF91EF9121
:102D5000BF91AF919F918F917F916F915F914F91B3
:102D60003F912F911F910F91FF90EF90DF90CF90A7
:102D70000F900FBE0F901F9018956115710579F097
:102D8000FB0101900020E9F73197AF01461B570B7B
:102D9000DC01ED91FC910280F381E02D099480E04B
:102DA00090E008954F925F926F927F92EF92FF9220
:102DB0000F931F93CF93DF93CDB7DEB7A1970FB6D5
:102DC000F894DEBF0FBECDBF7C01FA01CB0119A282
:102DD000223008F42AE08E010F5D1F4F422E512C45
:102DE000612C712CBF01A30192010E94E224F90120
:102DF000CA01015011096A3014F4605D01C0695CB8
:102E0000D8016C93232B242B252B61F7B801C70124
:102E10000E94BD16A1960FB6F894DEBF0FBECDBFBF
:102E2000DF91CF911F910F91FF90EF907F906F9066
:102E30005F904F900895CF93DF93CDB7DEB7C55421
:102E4000D1090FB6F894DEBF0FBECDBF789484B51C
:102E5000826084BD84B5816084BD85B5826085BD96
:102E600085B5816085BD80916E00816080936E0024
:102E70001092810080918100826080938100809116
:102E800081008160809381008091800081608093C7
:102E900080008091910082608093910080919100E8
:102EA0008160809391008091900081608093900078
:102EB0008091C10084608093C1008091C1008260D4
:102EC0008093C1008091C10081608093C100809196
:102ED000C30081608093C3008091C00082608093B2
:102EE000C0008091C20081608093C20080917A000E
:102EF000846080937A0080917A00826080937A0067
:102F000080917A00816080937A0080917A00806855
:102F100080937A001092E8041092B2061092B306E1
:102F20008091D70081608093D70080EA8093D80099
:102F300089B5806189BD89B5826089BD09B400FE0B
:102F4000FDCF61E070E080E090E00E94700680912B
:102F5000D8008F7C80618093D8008091E000807FD2
:102F60008093E0008091E1008E7E8093E1008DE00F
:102F70008093E200559A209AEEEFFFE785919491B5
:102F80008B3F9C4D19F481E08093B1061092D605D9
:102F90001092D7051092D8051092D9051092940579
:102FA0001092950510929605109297050E942F0792
:102FB0006B017C014B015C0118EB810E1BE0911E43
:102FC000A11CB11C0E942F076C157D058E059F0565
:102FD00028F086169706A806B906A0F786E395E0BE
:102FE0009093D5058093D4053BE1E32EF12C00911D
:102FF00008036AE070E080E090E00E947006011132
:103000000BC021E0E21AF10839F064E670E080E0DC
:1030100090E00E947006EBCFE091D405F091D505C9
:103020008FEF9FEF958784870E942F076093940509
:1030300070939505809396059093970564EE73E0E1
:103040008091D4059091D5050E94BD160E942F074E
:103050006B017C014B015C013AE0830E911CA11CC9
:10306000B11C0E942F076C157D058E059F0528F069
:1030700086169706A806B906A0F781E08093A805F2
:10308000409100015091010185E098E0489F900136
:10309000499F300D589F300D1124275E394C3093D5
:1030A000010120930001A9E3B0E30E942E25909333
:1030B0003504809334048FEF9FEF90934305809302
:1030C00042058CE390E0909300068093FF0584EB2B
:1030D00090E00E94E7269093FE058093FD058FEF18
:1030E00090E0909305068093040688EC90E090931E
:1030F00009068093080684E690E090930706809383
:10310000060684E18093030600E044E0049FF0019A
:103110001124E052FF4F85919591A591B4910F5FD5
:103120008F3F99F7E0EEF0E0C590D590E590F490F0
:103130009F2D5E2DAD2D1FEFC12CD12C20EEE22E48
:1031400020E0F22E84E0E80EF11CF70185909590C6
:10315000A590B490960184E0359527958A95E1F77E
:10316000822FC82CD12C482D42954F70003178F415
:10317000612F012E000C770B621773073CF01F3094
:103180002CF481E0810F481708F4482F142F9EAECD
:10319000AFAE2196BFAE2197A9835A839B8350E09F
:1031A0009E01225C3F4FBE016F5F7F4F90E00E9407
:1031B000A010A92D5A2D9B2DBFEFCB16D10409F0DD
:1031C000C1CFE090FF05F0900006C090FD05D090C3
:1031D000FE0580912B04811145C010921D041092B0
:1031E0001C048FEF80932004809321048093220499
:1031F00080932304809324048093250481E08093AA
:103200002604109228041092270410921F04109292
:103210001E048091340590913505892B31F48AE1A3
:1032200094E09093350580933405E0911804F09173
:103230001904309721F08AE194E0958384838AE130
:1032400094E0909319048093180410922A04109229
:10325000290483E293E090931B0480931A0481E095
:1032600080932B04E0911A04F0911B040480F581F3
:10327000E02D8AE194E00995D0921D04C0921C04CF
:10328000F0922804E0922704E0911A04F0911B04C4
:103290000284F385E02D8AE194E00995009711F10D
:1032A0009C0140E050E060E472E48FE090E00E9416
:1032B0000425C090DD05D090DE05E090DF05F0909C
:1032C000E005C901DA018C159D05AE05BF0510F4B6
:1032D000D701C6018093DD059093DE05A093DF053D
:1032E000B093E005E0913405F0913505309729F071
:1032F00014860480F581E02DF9CF1092120410920B
:1033000011040E94490D0E943E1110920B0410926C
:103310000A04109211051092330510920F0581E0F6
:1033200080930E051092E90461E082E00E94DF05BF
:1033300061E083E00E94DF058091B9008E7F809379
:10334000B9008091B9008D7F8093B90088E48093A3
:10335000B80085E48093BC0060E870E08BE690E004
:103360000E94CE1262E370E080E090E00E9470065E
:1033700061E070E089E190E00E94CE1263E070E0CD
:103380008BE690E00E94CE126EE170E080E090E06B
:103390000E94700668E170E08BE190E00E94CE121E
:1033A0006EE170E080E090E00E94700668EE70E0F0
:1033B0008CE190E00E94CE1264E170E080E090E049
:1033C0000E94700680E090E00E94BC248A3241F4A2
:1033D00081E090E00E94BC24882311F40C94012227
:1033E00062E088E00E940F0662E08FE00E940F0614
:1033F00062E080E10E940F0661E08EE00E940F060D
:1034000060E08EE00E94DF0561E086E00E940F062A
:1034100060E086E00E94DF058091FC05823030F498
:10342000F89481EF95E00E94CE0A01C0F894789458
:10343000F8941092F8051092F9051092FA0510927E
:10344000FB0578940E94E912809302010E94490DC5
:1034500061E08AE00E940F0681E18093C00081E074
:103460008093C10080E48093C4001092C30080E880
:103470008093D1001092800089E08093810080E0E9
:1034800092E0909389008093880080916F00826021
:1034900080936F0083E48093DA0518EC212E312CA1
:1034A0000E942F07672B682B692B41F40E942F077E
:1034B000623071058105910508F41CC10E942F0737
:1034C0006093690470936A0480936B0490936C0416
:1034D000C0906504D0906604E0906704F0906804A2
:1034E0006C157D058E059F0540F46093650470930F
:1034F00066048093670490936804C0906504D0903C
:103500006604E0906704F09068048B019C010C193C
:103510001D092E093F09680179011AEFC116D1046E
:10352000E104F10408F4E6C0609365047093660456
:10353000809367049093680424EF31E040E050E00A
:103540002093A0053093A1054093A2055093A305B5
:103550001092A4051092A5051092A6051092A70539
:103560008091980590919905A0919A05B0919B053D
:1035700080939C0590939D05A0939E05B0939F0515
:103580000E942F07609398057093990580939A0580
:1035900090939B050E942F07609394057093950567
:1035A00080939605909397050E942F076B017C01ED
:1035B00066EF73E08091D4059091D5050E94BD1609
:1035C0002AE041E050E060E070E08091D405909105
:1035D000D5050E94D2166DEF73E08091D4059091CD
:1035E000D5050E94BD162AE0B701A6018091D40539
:1035F0009091D5050E94D2166FEF73E08091D405AB
:103600009091D5050E94BD168091980590919905DD
:10361000A0919A05B0919B05B701A601481B590BD3
:103620006A0B7B0B2AE08091D4059091D5050E940E
:10363000D2166FEF73E08091D4059091D5050E946A
:10364000BD16409198055091990560919A05709129
:103650009B0580919C0590919D05A0919E05B09140
:103660009F05481B590B6A0B7B0B2AE08091D40500
:103670009091D5050E94D21661E074E08091D40546
:103680009091D5050E94BD160E942F07AB01BC0189
:103690002AE08091D4059091D5050E94D216E09041
:1036A000D405F090D50563E074E0C7010E94BD1613
:1036B00063EF73E0C7010E94BD160E942F074B0104
:1036C0005C016B017C0132E0C30ED11CE11CF11CDA
:1036D0000E942F07681579058A059B0508F0DAC650
:1036E0000E942F07609398057093990580939A051F
:1036F00090939B05809163049091640441E084273A
:10370000909364048093630480FF7FC06DE574E050
:1037100083E40E942D0E60915D0470915E04262F5B
:103720002F7080913D0490913E04880F991F82274D
:1037300090933E0480933D04072E000C880B990B58
:103740000E949F2369837A838B839C8360916104A9
:1037500070916204072E000C880B990B0E949F2326
:103760006D837E838F83988719861A861B861C86B5
:10377000CE0101960E94F10D6B017C01409059042D
:1037800050905A0460905B0470905C049B01AC0103
:10379000C301B2010E943D2520E030E046E953E438
:1037A0000E94AA259B01AC01C301B2010E943D25E4
:1037B0009B01AC016093590470935A0480935B049D
:1037C00090935C04C701B6010E943D2520E030E0E3
:1037D00048E452E40E94AA252091550430915604F1
:1037E00040915704509158040E943E2520E030E05B
:1037F00040E05FE30E94FE236093550470935604FB
:103800008093570490935804E2C06FE474E08BE314
:103810000E942D0E00914F0410915004202F2F7004
:1038200080913D0490913E04880F991F82279093C8
:103830003E0480933D046091510470915204072E20
:10384000000C880B990B0E949F2320914704309114
:1038500048044091490450914A040E943E254B017E
:103860005C016091530470915404072E000C880B86
:10387000990B0E949F2320914B0430914C0440915E
:103880004D0450914E040E943E252B013C01B8018D
:10389000110F880B990B0E949F23209143043091B4
:1038A000440440914504509146040E943E2524EA78
:1038B00030E74DE75FE30E94FE236093430470937B
:1038C0004404809345049093460424EA30E74DE78E
:1038D0005FE3C501B4010E94FE2360934704709327
:1038E00048048093490490934A0424EA30E74DE762
:1038F0005FE3C301B2010E94FE2360934B04709307
:103900004C0480934D0490934E0483E494E00E9411
:10391000F10D20E030E44CE156E40E94AA256B0151
:103920007C01409018015090190160901A0170902C
:103930001B019B01AC01C301B2010E943D2520E0A7
:1039400030E040E251E40E94AA259B01AC01C30192
:10395000B2010E943D256093180170931901809374
:103960001A0190931B01A70196010E943D256B014E
:103970007C0120E030E0A9010E945226181624F0B4
:10398000F7FAF094F7F8F094C701B6010E945D26AB
:103990006B017C0120E030E040E85FE30E945226AA
:1039A00018164CF0C0923F04D0924004E0924104BB
:1039B000F09242040CC080E090E0A0E8BFE3809366
:1039C0003F0490934004A0934104B09342040E94AA
:1039D000E912909102018917C9F1909133049F5F18
:1039E00090933304933028F080930201813049F49E
:1039F00014C022960FAD2297013019F0023069F001
:103A000028C081E08093100430920F0420920E04AD
:103A100011E022961FAF229741C08091100481309F
:103A200041F48091160490911704892B11F40E949F
:103A3000700B109210040E94490D10920F04109206
:103A40000E0402E022960FAF229728C022961FAEE6
:103A5000229780910E0490910F0418161906F4F421
:103A6000019790930F0480930E04892BB9F48091F1
:103A70001604909117048330910534F48130910538
:103A800044F4892B19F007C0039729F40E94700BA6
:103A900002C00E94280B84E0809310040E94040F4F
:103AA00080913D0490913E048370992720911601E6
:103AB00030911701820F931F909315018093140189
:103AC0008091120190911301909311018093100144
:103AD000EFEEF0E0E49120917B00E3FB112710F979
:103AE00025961FAF259726961FAE269726968EAD54
:103AF0009FAD2697F5E0880F991FFA95E1F7922F71
:103B00009F7D892B80937B00E770E064E0937C00CD
:103B100080917A00806480937A0080917A0086FD9B
:103B2000FCCF809178002091790090E0922B803733
:103B300091401CF580913B0490913C040097B9F4AE
:103B400084E090E0909317048093160480913A04E7
:103B5000811108C081E080933A0430923C042092A5
:103B60003B0413C010923A0480E991E001C0019730
:103B700090933C0480933B0408C080E991E09093CB
:103B80003C0480933B0410923A040E94040F8091FD
:103B90001604909117048230910509F451C32CF456
:103BA000009759F0019759F122C48330910509F427
:103BB00093C3049709F4E9C31AC410921504109230
:103BC00014041092130410923604109237041092C9
:103BD00038041092390420E030E048EC52E460915F
:103BE00055047091560480915704909158040E9496
:103BF000522618160CF0FBC30E94700BF8C390906D
:103C00005504A0905604B09057048090580420E0CA
:103C100030E0A901692D7A2D8B2D982D0E949823D3
:103C200087FD11C020E030E04CE053E4692D7A2D8F
:103C30008B2D982D0E945226181664F4D12CE12C5D
:103C400010EF02E40BC06DECD62E7CECE72E1CECE2
:103C50000DE304C0D92CEA2C1B2D082D409036040E
:103C6000509037046090380470903904A301920199
:103C70006D2D7E2D812F902F0E94522618166CF4E8
:103C80008D2D9E2DA12FB02F809336049093370455
:103C9000A0933804B09339043AC060910E0170913A
:103CA0000F01072E000C880B990B0E949F2320E028
:103CB00030E040E256E40E94AA252AE939E949E7C2
:103CC0005FE30E943E259B01AC01C301B2010E944B
:103CD000FE236093360470933704809338049093E6
:103CE00039042DEC3CEC4CEC5FE30E94AA252B013F
:103CF0003C019B01AC016D2D7E2D812F902F0E94E8
:103D00005226181624F0D42CE52C162D072D20E071
:103D100030E040E85BE36D2D7E2D812F902F0E94D7
:103D2000FE232B013C0100910D01602F70E080E02B
:103D300090E00E949F239B01AC01C301B2010E944D
:103D4000FE232B013C01E09013044E2D50E02496FD
:103D50005FAF4EAF2497BA01550F880B990B0E94A5
:103D60009F236B017C019B01AC01C301B2010E9446
:103D7000522618165CF0A7019601C301B2010E94F9
:103D8000982387FF06C068EF7FEF05C060E170E011
:103D900002C060E070E02FEF30E040E050E0249699
:103DA0008EAD9FAD24970E94EA0E7C018093130490
:103DB00060910B0170910C01072E000C880B990B80
:103DC0000E949F239B01AC01692D7A2D8B2D982D8C
:103DD0000E94AA252B013C016091120170911301F0
:103DE000072E000C880B990B0E949F23A3019201C0
:103DF0000E943E250E941C267093110160931001C1
:103E00006091090170910A01072E000C880B990B33
:103E10000E949F23A30192010E943E250E941C261E
:103E2000709308016093070140903F045090400454
:103E3000609041047090420420E030E040E85FE38D
:103E4000C301B2010E945226181634F4412C512CA1
:103E500050E8652E5FE3752E20E030E040E052E44C
:103E6000C301B2010E94FE230E941C26685F609F6E
:103E7000B00111247093150420E030E040E252E4D8
:103E8000C301B2010E94FE232B013C010E941C26AB
:103E9000645F609FB0011124FF24872F90E08E158E
:103EA0009F0508F4C7018093140420E030E041E648
:103EB00053E4C301B2010E943E2520E030E040EA15
:103EC00051E40E943D250E941C26072E000C880B01
:103ED000990B0E949F232AE939E949E95EE30E9490
:103EE000FE230E9423266093DA053DEFE32E35E0A2
:103EF000F32E43E0942EB701CE0101960E947D0B74
:103F000040E050E0A0E0B0E060E070E08B819C8198
:103F1000681779070CF025C1C0903404D09035049F
:103F2000C40ED51E852F9927FC01E850FF4FE49160
:103F3000ED0D2E2F30E0F901E850FF4FB490F9015C
:103F4000E750FF4FA490FC01E750FF4F84918D0D87
:103F500090E0FC01E850FF4F7490FC01E750FF4FE8
:103F60008491D42ED6949C2D9695392F142F149F7E
:103F7000010E10E0111D0C2D2C2D029F000E00E0F3
:103F8000011D1124802E20E8C22ECD0CE72DF0E07B
:103F9000E850FF4FE491E2FD03C0F92F2C2D02C041
:103FA000FC2D292FE0FD2195E1FDF1950F2F0595C1
:103FB0002595201FEB2DF0E0E850FF4FE491E2FD46
:103FC00003C0F92F3D2D01C0FD2DE0FD3195E1FD30
:103FD000F1950F2F05953595301F321744F4231BAB
:103FE000219F020E20E0211D1124320F09C0E32F72
:103FF000E21B2E2F219F020E20E0211D1124321BD7
:104000009058E82FF0E0E850FF4FE491E2FD03C044
:104010002C2DC92E01C0292FE0FD2195E1FDC19471
:10402000022F2C2D25950595021FB02EEA2DF0E0CC
:10403000E850FF4FE491E2FD03C0892F9D2DD82E5B
:10404000E0FD9195E1FDD194092F2D2D2595059544
:10405000021F902F0B154CF42B2D201B219F020EBD
:1040600020E0211D1124920F08C0202F2B19219F21
:10407000020E20E0211D1124921B391754F4931BCA
:10408000292F082D209F020E20E0211D1124320F20
:1040900009C0232F291B182D219F020E20E0211D6E
:1040A0001124321B3B5B2DEE329F030E30E0311D9D
:1040B0001124232F220F31E02F3F08F430E0320F7C
:1040C000032F02950F703F70802F880F800FEEE056
:1040D000F0E0EC0FFD1FE80FF11D2081918182813E
:1040E000332309F431C00F3011F0339602C0FE01C2
:1040F0003E963295307F032F0095D080122F109F6F
:10410000010E10E0111D2D2D239F020E20E0211D18
:10411000210FD180192F109F010E10E0111D912F3A
:104120001D2D139F010E10E0111D910FE281182F1C
:10413000109F010E10E0111D812F0E2F039F000E06
:1041400000E0011D800F1124E981FA81EA0FFB1FB5
:104150002083918382836F5F7F4F1396425E5F4F10
:10416000D5CE0E942F079B01AC0160E070EF8AE082
:1041700090E00E94D224292F96FD2095E22FEF7324
:104180002F7096FD2F5FE695E695E695E670F0E0D8
:10419000EF5CFC4F8181829F202D812D112422957F
:1041A0002F708295807F282B8081280F97FD219585
:1041B0002058192D219F020E20E0211D11242F5F70
:1041C0008091340490913504820F911D90933504B1
:1041D000809334042DE3E20EF11C37E7E31636E05A
:1041E000F30609F088CE0E943E112DEC3CEC4CEC1D
:1041F0005EE360913F04709140048091410490918E
:1042000042040E94982387FF60C020E030E040E233
:1042100051E4609155047091560480915704909137
:1042200058040E94982387FF50C080910501909107
:104230000601009719F40E94280BD9C0019747C0C6
:1042400020911104309112042436310564F58091D7
:10425000030190910401820F931F8536910514F09C
:1042600084E690E090931204809311040E94490D1B
:1042700080910D0148E2849F900111243093150430
:104280005CE8859F9001112430931404A8E78A9F6D
:10429000C001112490931304209111043091120451
:1042A00084E690E056C081E090E0909317048093FC
:1042B000160400E010E028EC32E40093550410935B
:1042C0005604209357043093580480E49FE1909360
:1042D0000601809305018BC0809111049091120416
:1042E000181619060CF04CC0019790931204809395
:1042F00011040E94490D2091110430911204409143
:104300000D01429FC001439F900D112468E770E0AA
:104310000E94B2268091150490E0462F86179707D9
:104320000CF4482F409315048091140490E0462F1C
:10433000861797070CF4482F4093140480911304B8
:1043400090E0861797070CF4BC016093130488E78C
:1043500090E0821B930B2091120130911301280FE2
:10436000391F3093110120931001209109013091E0
:104370000A01820F931F909308018093070137C0B1
:10438000109217041092160432C08091110490917B
:104390001204181619063CF40197909312048093A6
:1043A00011040E94490D80913A04882311F08FEF87
:1043B00001C080E0E091FD05F091FE05808311824F
:1043C00012820E943E1110921504109214048091E2
:1043D0003A04811103C01092130409C080E091E0F7
:1043E00090930801809307018FEF8093130480E07E
:1043F00090E0892B11F40C94501A0E9400000C9448
:10440000501A82E090E00E94BC2490E090930D044A
:1044100080930C0483E090E00E94BC2480930D0103
:1044200084E090E00E94BC2490E090931701809378
:10443000160185E090E00E94BC2490E09093130167
:104440008093120186E090E00E94BC2490E090935B
:104450000A018093090187E090E00E94BC2490E06B
:104460008058910990930C0180930B018CE090E0AF
:104470000E94BC2490E090930F0180930E018BE08A
:1044800090E00E94BC2490E090930401809303018B
:104490000C94F019C616D706E806F90608F018C9F4
:1044A0001FC9CF93DF93109239051092380588EE1B
:1044B00093E0A0E0B0E080933A0590933B05A09391
:1044C0003C05B0933D052DEB33E030933705209349
:1044D00036052FEF3FEF30934305209342051092AE
:1044E00089051092880580938A0590938B05A09387
:1044F0008C05B0938D058FEC93E0909387058093A6
:104500008605109298051092990510929A051092BE
:104510009B0510929C0510929D0510929E0510928D
:104520009F051092A0051092A1051092A20510926D
:10453000A3051092A4051092A5051092A60510924D
:10454000A7058FEF8093DA051092DC051092DB054A
:104550001092E6051092E5054FEF5FEFBA01409328
:10456000E1055093E2056093E3057093E40524E6CA
:1045700030E03093E8052093E70580937706809339
:1045800078068093790680937A0680937B068093E1
:104590007C0690E890937D0610927E0690937F06AD
:1045A00010928006909381061092820610928306E4
:1045B00010928406809385061092860610928706D4
:1045C000809388068093890680938A0610928B06D2
:1045D00080938C0695EA90938D0610928E068093B8
:1045E0008F069093900610929106809392061092F7
:1045F0009306109294068093950610929606109258
:104600009706109298061092990610929A061092A8
:10461000FE051092FD0510923B0610923A0662E0EC
:104620008FE00E940F0662E080E10E940F06E0E743
:10463000F2E0E491F0E0EE0FFF1FED5AFD4FA5917F
:10464000B491B093F205A093F105E3E4F2E0849114
:104650008093F505E1E7F2E0E491F0E0EE0FFF1F53
:10466000ED5AFD4FC591D491D093F405C093F30555
:10467000E4E4F2E0E491E093F6051092F80510927C
:10468000F9051092FA051092FB05EBE3FFE1319773
:10469000F1F7EC91E82381E009F480E02881909122
:1046A000F605922309F082608093F7051092FC05CD
:1046B000DF91CF910895CF92DF92EF92FF920F9307
:1046C0001F93CF93DF931F92CDB7DEB7182F062F1E
:1046D000E42E862F880F8E5F99830E945C1383E0FF
:1046E0000E945C13F12EC12E9981D92E8C2D8F1929
:1046F000801798F4F601E7FE02C0849101C0808122
:104700000E945C13182F80E00E945C138123FFEF4E
:10471000CF1ADF0A8111EACF01C081E00F90DF914B
:10472000CF911F910F91FF90EF90DF90CF90089560
:104730000E94DA2308F481E00895E89409C097FB09
:104740003EF490958095709561957F4F8F4F9F4F68
:104750009923A9F0F92F96E9BB279395F6958795AC
:1047600077956795B795F111F8CFFAF4BB0F11F46F
:1047700060FF1BC06F5F7F4F8F4F9F4F16C0882316
:1047800011F096E911C0772321F09EE8872F762F4C
:1047900005C0662371F096E8862F70E060E02AF08D
:1047A0009A95660F771F881FDAF7880F9695879579
:1047B00097F90895990F0008550FAA0BE0E8FEEF4E
:1047C00016161706E807F907C0F012161306E407D5
:1047D000F50798F0621B730B840B950B39F40A26CE
:1047E00061F0232B242B252B21F408950A2609F4AC
:1047F000A140A6958FEF811D811D08950E9411246F
:104800000C9482240E94742438F00E947B2420F0AF
:10481000952311F00C946B240C94712411240C94A6
:10482000B6240E94932470F3959FC1F3950F50E036
:10483000551F629FF001729FBB27F00DB11D639F52
:10484000AA27F00DB11DAA1F649F6627B00DA11DF8
:10485000661F829F2227B00DA11D621F739FB00D9E
:10486000A11D621F839FA00D611D221F749F33270E
:10487000A00D611D231F849F600D211D822F762FA7
:104880006A2F11249F5750409AF0F1F088234AF084
:10489000EE0FFF1FBB1F661F771F881F91505040F0
:1048A000A9F79E3F510580F00C946B240C94B6241C
:1048B0005F3FE4F3983ED4F3869577956795B79577
:1048C000F795E7959F5FC1F7FE2B880F911D969591
:1048D000879597F9089597F99F6780E870E060E001
:1048E00008959FEF80EC089500240A941616170689
:1048F00018060906089500240A94121613061406D1
:1049000005060895092E0394000C11F4882352F033
:10491000BB0F40F4BF2B11F460FF04C06F5F7F4FEB
:104920008F4F9F4F089557FD9058440F551F59F0D2
:104930005F3F71F04795880F97FB991F61F09F3F8C
:1049400079F087950895121613061406551FF2CFB5
:104950004695F1DF08C0161617061806991FF1CF05
:1049600086957105610508940895E894BB2766272C
:104970007727CB0197F90895F999FECF92BD81BDB4
:10498000F89A992780B50895262FF999FECF1FBA76
:1049900092BD81BD20BD0FB6F894FA9AF99A0FBE68
:1049A00001960895DB018F939F930E942325BF9169
:1049B000AF91A29F800D911DA39F900DB29F900D6E
:1049C00011240895A1E21A2EAA1BBB1BFD010DC0E4
:1049D000AA1FBB1FEE1FFF1FA217B307E407F507AF
:1049E00020F0A21BB30BE40BF50B661F771F881F8B
:1049F000991F1A9469F760957095809590959B0121
:104A0000AC01BD01CF010895052E97FB1EF4009463
:104A10000E941B2557FD07D00E94E22407FC03D00B
:104A20004EF40C941B2550954095309521953F4FA1
:104A30004F4F5F4F089590958095709561957F4F8A
:104A40008F4F9F4F08950E942E25A59F900DB49FD4
:104A5000900DA49F800D911D11240895A29FB00177
:104A6000B39FC001A39F700D811D1124911DB29FA2
:104A7000700D811D1124911D08955058BB27AA2740
:104A80000E9455250C9482240E94742438F00E94C0
:104A90007B2420F039F49F3F19F426F40C94712400
:104AA0000EF4E095E7FB0C946B24E92F0E9493240D
:104AB00058F3BA17620773078407950720F079F453
:104AC000A6F50C94B5240EF4E0950B2EBA2FA02D6C
:104AD0000B01B90190010C01CA01A0011124FF27AB
:104AE000591B99F0593F50F4503E68F11A16F040A6
:104AF000A22F232F342F4427585FF3CF46953795A5
:104B00002795A795F0405395C9F77EF41F16BA0B69
:104B1000620B730B840BBAF09150A1F0FF0FBB1F17
:104B2000661F771F881FC2F70EC0BA0F621F731F60
:104B3000841F48F4879577956795B795F7959E3FBD
:104B400008F0B0CF9395880F08F09927EE0F97954E
:104B5000879508950E94BE250C9482240E947B2490
:104B600058F00E94742440F029F45F3F29F00C941F
:104B70006B2451110C94B6240C9471240E9493243C
:104B800068F39923B1F3552391F3951B550BBB277C
:104B9000AA2762177307840738F09F5F5F4F220FC1
:104BA000331F441FAA1FA9F335D00E2E3AF0E0E8B8
:104BB00032D091505040E695001CCAF72BD0FE2F02
:104BC00029D0660F771F881FBB1F26173707480796
:104BD000AB07B0E809F0BB0B802DBF01FF2793584E
:104BE0005F4F3AF09E3F510578F00C946B240C9483
:104BF000B6245F3FE4F3983ED4F3869577956795A6
:104C0000B795F7959F5FC9F7880F911D9695879582
:104C100097F90895E1E0660F771F881FBB1F6217A1
:104C200073078407BA0720F0621B730B840BBA0B5F
:104C3000EE1F88F7E09508950E9423266894B1112D
:104C40000C94B62408950E949B2488F09F5798F0F6
:104C5000B92F9927B751B0F0E1F0660F771F881F81
:104C6000991F1AF0BA95C9F714C0B13091F00E949B
:104C7000B524B1E008950C94B524672F782F8827C8
:104C8000B85F39F0B93FCCF3869577956795B395C2
:104C9000D9F73EF490958095709561957F4F8F4F31
:104CA0009F4F08950E94DA2308F48FEF089519F4B6
:104CB00016F40C9471240C949D260E949B24B8F346
:104CC0009923C9F3B6F39F57550B87FF0E94AB2674
:104CD0000024A0E640EA900180585695979528F464
:104CE000805C660F771F881F20F02617370748075C
:104CF00030F4621B730B840B202931294A2BA695B3
:104D000017940794202531254A2758F7660F771FF7
:104D1000881F20F026173707480730F4620B730B03
:104D2000840B200D311D411DA09581F7B901842F01
:104D30009158880F9695879508959F3F31F091502F
:104D400020F4879577956795B795880F911D96956F
:104D5000879597F9089591505040660F771F881FE7
:104D6000D2F7089597FB072E16F4009407D077FD2D
:104D700009D00E94D32607FC05D03EF4909581957A
:104D80009F4F0895709561957F4F0895EE0FFF1F17
:104D90000590F491E02D09940E942E25B7FF089507
:104DA000821B930B0895AA1BBB1B51E107C0AA1FCE
:104DB000BB1FA617B70710F0A61BB70B881F991FBC
:104DC0005A95A9F780959095BC01CD010895CF9390
:104DD000DF938230910510F482E090E0E091BB0611
:104DE000F091BC0620E030E0C0E0D0E0309711F157
:104DF0004081518148175907C0F04817590761F49D
:104E000082819381209719F09B838A832BC0909392
:104E1000BC068093BB0626C02115310519F0421748
:104E2000530718F49A01BE01DF01EF010280F381FC
:104E3000E02DDCCF2115310509F1281B390B243079
:104E4000310590F412968D919C911397611571051F
:104E500021F0FB019383828304C09093BC0680936E
:104E6000BB06FD01329644C0FD01E20FF31F8193A2
:104E70009193225031092D933C933AC02091B90669
:104E80003091BA06232B41F420910B0330910C038F
:104E90003093BA062093B9062091090330910A0392
:104EA0002115310541F42DB73EB740910D035091C6
:104EB0000E03241B350BE091B906F091BA06E217F8
:104EC000F307A0F42E1B3F0B2817390778F0AC012D
:104ED0004E5F5F4F2417350748F04E0F5F1F50930A
:104EE000BA064093B9068193919302C0E0E0F0E0E6
:104EF000CF01DF91CF9108950F931F93CF93DF934D
:104F0000009709F48CC0FC01329713821282009141
:104F1000BB061091BC060115110581F42081318179
:104F2000820F931F2091B9063091BA0628173907CE
:104F300079F5F093BA06E093B90671C0D80140E064
:104F400050E0AE17BF0750F412962D913C91139785
:104F5000AD012115310509F1D901F3CF9D01DA0128
:104F60003383228360817181860F971F8217930795
:104F700069F4EC0128813981260F371F2E5F3F4FDE
:104F8000318320838A819B8193838283452B29F4FB
:104F9000F093BC06E093BB0642C01396FC93EE93DD
:104FA0001297ED01499159919E01240F351FE21787
:104FB000F30771F480819181840F951F02961196F9
:104FC0009C938E938281938113969C938E931297D8
:104FD000E0E0F0E0D80112968D919C911397009734
:104FE00019F0F8018C01F6CF8D919C9198012E5FFC
:104FF0003F4F820F931F2091B9063091BA062817B0
:10500000390769F4309729F41092BC061092BB0658
:1050100002C0138212821093BA060093B906DF9180
:10502000CF911F910F91089581E090E0F8940C9436
:065030001928F894FFCFDF
:105036003905010200401F340034002800F08000CA
:10504600320032002F002F00CDCCD441B904B90470
:10505600B904B904B9047A736E625D5F63707B85C7
:10506600939EABB4C1C9CCCAC0B9B3ACAAA3A0A124
:105076009891877665534537342E2225282F3C484C
:105086005360747C8A9599A4A29F9A95908B8D8D76
:105096008F9093969797928B8678645A4E484A4D8E
:1050A600555D6F8597ABBAC7CACAC9BCB6AEA29ED4
:1050B6009E9D979289786A554941373634333D45E6
:1050C600506172828F999CA2A19890887F7677769C
:1050D6007B8782817C7A87919C998D7F7365564CFC
:1050E600494B53606F7C8B98A4B0BAC6CAC0AF93C5
:1050F600715238261E1D2632455C738998A2A9ADC9
:10510600A89E928378726C6B7179828D9698949230
:10511600939499A0A7A8A5A39F98928F88837A6C49
:105126005E504743445061718397A6B5C1CCD1C840
:10513600BAA07E5E412C1D171B24344A63798C9AD3
:10514600A1A7A59C9081766E68666A727A838B8D1C
:10515600898687888E99A1A6A6A6A39C98999691DA
:1051660082827565554B5E747C71575889AEB3C89B
:10517600D4BD834B34426D9FD6F7F5D6B5A89B8B2D
:10518600775731191B293C6499BEBA9F87766B669F
:10519600676E7E959E8E755C575D5F6362615B563A
:1051A600575664829FB8CFE0E2D9C39D847D7A7A50
:1051B6007B8590988E72615C6A81949D9F947A5EDD
:1051C600483D383E4A5D748085827C7773767D964D
:1051D600B4C5C5BEB5A693826E5A56595C6066695B
:1051E6006D6F696C788893A1A7A4A09D9E9E998DEA
:1051F600837D736D747F80786A5745373647647A46
:105206008B938E8B8E99A8B5BEC5C7BCA8988E8B7E
:10521600877F797F80807E72685E595C5C646F7D73
:1052260080766B6269747F8A929590867BFFFFFF1A
:10523600FF00E10000000000000000BD0680000045
:10524600000000A005A005A005AA0AA60AA30A0058
:105256000000003B04F703A901AA0AA60AA601ABAF
:1052660001003131295A1B750AB400C800D200DC8E
:1052760000B400C000F000D2001E001E002300286B
:105286000028002D00F6FF1E003400330036003CD7
:10529600003400390032002F003200320037003C63
:1052A600003200320032002F002F0030002F003273
:1052B600002F00320031002D00030002000200031F
:1052C600000200030002000100FF00FF00FF0020B3
:1052D60000FF00FF00FF00FF00900060004000900C
:1052E60000A000C00020000000000000007E04AA0C
:1052F600065A0594049F0482055E05000000002DF1
:1053060005F0045705C404E804D404C50400C180AC
:1053160081000000564D4450565F317C315F564D3A
:105326004450560D0A00564D4450455F003A323AF5
:0A533600007C005F564D4450450016
:00000001FF
