:100000000C94F5000C9437100C9410100C94E90F1C
:100010000C94C20F0C941D010C941D010C949B0FA9
:100020000C941D010C941D010C9448120C94BA12EE
:100030000C941D010C941D010C941D010C941D01C8
:100040000C941D010C94D0070C941D010C941D01FF
:100050000C941D010C941D010C941D010C94510F66
:100060000C941D010C941D010C941D010C941D0198
:100070000C941D010C941D010C941D010C941D0188
:100080000C941D010C941D010C941D010C941D0178
:100090000C945E100C941D010C941D010C941D0118
:1000A0000C941D010C941D010C941D01B709F50958
:1000B000070A5F0A740A7F0A930A9E0AA90AB40A09
:1000C000BF0AD00DD30DC20DC60DCC0DF40DF40D2D
:1000D000F40DD70DDB0DDF0DE50DE90DF40DEF0D82
:1000E000070605040100080A0B0C0D0900000002B8
:1000F00000090F0000030401000C000000000000D4
:1001000000000000000000000000000408020110D0
:100110004080401020408040800802040180402040
:100120001002011080102040402000000000230039
:10013000260029002C002F000404040404030405F5
:100140000202020204030202020206060606060674
:100150000404020202040400000000240027002A14
:10016000002D00300000000000250028002B002E8C
:10017000003100080B000202020100090400000126
:1001800002020000052400100105240101010424DD
:10019000020605240600010705810310004009043A
:1001A0000100020A000000070502024000000705E6
:1001B00083024000000403090412010002EF02015F
:1001C00040412336800001010203014172647569D8
:1001D0006E6F204C4C430041726475696E6F204C09
:1001E000656F6E6172646F00922011241FBECFEFA5
:1001F000DAE0DEBFCDBF14E0A0E0B1E0E8EBFCE464
:1002000002C005900D92A030B107D9F726E0A0E01A
:10021000B4E001C01D92A135B207E1F710E0C5EFCF
:10022000D0E004C02197FE010E940725C43FD107FA
:10023000C9F70E94DB160C945A260C94000080E942
:1002400091E00895859A08954F925F926F927F9200
:100250008F92AF92BF92CF92EF92FF920F931F9324
:10026000CF93DF933C01EB010E94610EF3012785E0
:100270003089621B730B6A307105B0F3F894E88122
:10028000F98151B3506281B38F7D81BB6A859F81B3
:10029000262F291B922F2F83BF844A805B807D8568
:1002A000FC84EE847F5FF394E3943E814885A984C7
:1002B000CB841181D20120E0C32F022F322F318154
:1002C000112788943111390F08F43FEF91958894E4
:1002D00070FD130F1795889471FD130F179588946F
:1002E00072FD130F1795889473FD130F179588945B
:1002F00074FD130F1795889475FD130F1795889447
:1003000076FD130F1795889477FD130F1795889432
:10031000232F7111212F960F122F002C51BB00C0DB
:1003200017FF81BB30812227889400C000C0002CB9
:1003300081BB31113C0F00C0002C51BB00C016FF27
:1003400081BB08F43FEFC195889400C000C0002C29
:1003500081BBF0FC230F00C0002C51BB00C015FF77
:1003600081BB27958894F1FC230F00C000C0002CAE
:1003700081BB2795889400C0002C51BB00C014FF9E
:1003800081BBF2FC230F2795889400C000C0002C8D
:1003900081BBF3FC230F00C0002C51BB00C013FF36
:1003A00081BB27958894F4FC230F00C000C0002C6B
:1003B00081BB2795889400C0002C51BB00C012FF60
:1003C00081BBF5FC230F2795889400C000C0002C4A
:1003D00081BBF6FC230F00C0002C51BB00C011FFF5
:1003E00081BB27958894F7FC230F00C000C0002C28
:1003F00081BB2795889400C0002C51BB00C010FF22
:1004000081BB132FF110122FCA0D00C000C0002CA9
:1004100081BB00C000C0002C51BB00C017FF81BBD6
:1004200032812227889400C000C0002C81BB31118A
:10043000340F00C0002C51BB00C016FF81BB08F474
:100440003FEFEB0DF11D00C000C0002C81BBE0FCB4
:10045000230F00C0002C51BB00C015FF81BB2795A6
:100460008894E1FC230F00C000C0002C81BB2795BD
:10047000889400C0002C51BB00C014FF81BBE2FC7B
:10048000230F2795889400C000C0002C81BBE3FC9B
:10049000230F00C0002C51BB00C013FF81BB279568
:1004A0008894E4FC230F00C000C0002C81BB27957A
:1004B000889400C0002C51BB00C012FF81BBE5FC3A
:1004C000230F2795889400C000C0002C81BBE6FC58
:1004D000230F00C0002C51BB00C011FF81BB27952A
:1004E0008894E7FC230F00C000C0002C81BB279537
:1004F000889400C0002C51BB00C010FF81BB132F9B
:10050000E110122F419500C000C0002C81BB4C0DA2
:1005100000C000C051BB00C017FF81BB3181222742
:10052000889400C000C0002C81BB3111390F00C07D
:10053000002C51BB00C016FF81BB08F43FEF919522
:10054000889400C000C0002C81BB70FD230F00C048
:10055000002C51BB00C015FF81BB2795889471FD0D
:10056000230F00C000C0002C81BB2795889400C0D9
:10057000002C51BB00C014FF81BB72FD230F2795D7
:10058000889400C000C0002C81BB73FD230F00C005
:10059000002C51BB00C013FF81BB2795889474FDCC
:1005A000230F00C000C0002C81BB2795889400C099
:1005B000002C51BB00C012FF81BB75FD230F279596
:1005C000889400C000C0002C81BB76FD230F00C0C2
:1005D000002C51BB00C011FF81BB2795889477FD8B
:1005E000230F00C000C0002C81BB2795889400C059
:1005F000002C51BB00C010FF81BB132F7111122FB3
:10060000960F00C000C0002C81BB119709F086CE68
:1006100020EE31E0D2010E940D25DC01CB01F4E097
:10062000B695A79597958795FA95D1F720E030E094
:10063000A9016AE9469E412D569E400D511D112487
:10064000840F951FA11DB11D893E43E09407A105AC
:10065000B10588F1885E9340A109B10942E0B695E1
:10066000A795979587954A95D1F747E0849F212DC7
:10067000949F200D311D11246091610470E0860F5C
:10068000971F820F931F4091F5055091F6056091D9
:10069000F7057091F805292F3327420F531F611D6D
:1006A000711D4093F5055093F6056093F70570931F
:1006B000F8058093610478940E94610EF301708BB9
:1006C0006787DF91CF911F910F91FF90EF90CF90AF
:1006D000BF90AF908F907F906F905F904F900895F4
:1006E0000F931F93CF93DF93CDB7DEB762970FB60B
:1006F000F894DEBF0FBECDBF8C01F901DC011C9662
:100700008C917A8369835C834B835E834D83908174
:100710009D8791819E8792819F87813029F4CE01A8
:1007200001960E948E1606C01C861B861A861986A4
:1007300018861F82188A1A8A198AD801ED91FC91AD
:100740000484F585E02DBE016F5F7F4FC8010995D8
:1007500062960FB6F894DEBF0FBECDBFDF91CF918A
:100760001F910F9108950F931F93CF93DF93CDB7F0
:10077000DEB762970FB6F894DEBF0FBECDBF8C0117
:10078000F901DC011C968C917A8369835C834B832D
:100790005E834D8390819D8791819E8792819F8703
:1007A000813029F4CE0101960E948E1606C01C8667
:1007B0001B861A86198618861F8283E0888B1A8A00
:1007C000198AD801ED91FC910484F585E02DBE01D4
:1007D0006F5F7F4FC801099562960FB6F894DEBF30
:1007E0000FBECDBFDF91CF911F910F910895FF9262
:1007F0000F931F93CF93DF93DC01ED91FC91AF2F0B
:1008000031E03F0F321301C030E0EF01DD278B01F3
:100810000A0F111DD801FC90DB01A30FB11D3C9103
:100820003C9F80013D9F100D1124A0E0B1E0AC1B66
:10083000BD0BFA9EB001FB9E700D1124600F711F5D
:100840004E0F5F1F30E0322F22274217530710F060
:10085000421B530BDC014D935C93872FDF91CF91AB
:100860001F910F91FF90089580E090E00895FC01A2
:10087000858596850895CF93DF9300D000D000D072
:10088000CDB7DEB7AB011C821D821E82DC01ED916B
:10089000FC910190F081E02D19821A821B829E0149
:1008A0002F5F3F4FBE016C5F7F4F099526960FB6B5
:1008B000F894DEBF0FBECDBFDF91CF910895DC016C
:1008C000ED91FD918081ED91FD919081ED91FD91F2
:1008D0006C9163708E2309F064609F2309F0686057
:1008E000ECE7F4E0E60FF11D659565956D936D916C
:1008F0007D918D919D91099423C01AC012C016C09C
:1009000010C01EC009C014C013C006C019C009C061
:100910000DC007C00DC014C06250704080409040B0
:100920000BC0615070408040904006C06E5F01C0B7
:100930006F5F7F4F8F4F9F4F9E938E937E936E93EB
:10094000089580917205909173050C945F048091D5
:100950007005909171050C945F0480916E059091E3
:100960006F050C945F0480916C0590916D050C945B
:100970005F0480910C0490910D04019709F040C030
:1009800083E090E090930D0480930C046091020446
:1009900082E090E00E940C0C60910B0183E090E0FB
:1009A0000E940C0C6091140184E090E00E940C0CF9
:1009B0006091100185E090E00E940C0C60910701AD
:1009C00086E090E00E940C0C6091090187E090E0C5
:1009D0000E940C0C60910C018CE090E00E940C0CC9
:1009E000609101018BE090E00E940C0C6AE280E0D3
:1009F00090E00E940C0C60E081E090E00C940C0C04
:100A0000089580910C0490910D04892B31F482E0BB
:100A100090E090930D0480930C0408952F923F92E0
:100A20004F925F926F927F928F929F92AF92BF92FE
:100A3000CF92DF92EF92FF920F931F93CF93DF93AA
:100A4000CDB7DEB765970FB6F894DEBF0FBECDBF4A
:100A5000C982DA82EB82FC82150129813A813B8BC3
:100A60002A8BCB80DC8080910604823009F075C02F
:100A70008090020490900304A901F90138962AE9B4
:100A800035E082E090E000E010E0BC0166567A4F6D
:100A90007F876E87DF0117972D01BF0166507109AF
:100AA0005B0108151905C9F4D9017C90DA017C9223
:100AB000EE84FF84B1E0EB1AF108D701FC90D2017B
:100AC000FC92AE85BF85EC90DB01EC9211967C9296
:100AD0001196FC921196EC922AC0AE85BF85EC90DF
:100AE000F12C370164E0759467946A95E1F71197EA
:100AF000AC91B0E07D0174E0F594E7947A95E1F76C
:100B0000D9016C91A62FB0E0BD01A4E07595679561
:100B1000AA95E1F7DA016C93D201EC92D5016C92BF
:100B2000DF0115971C9211961C9211961C92DF0101
:100B300012971C9211961C9210820F5F1F4F039602
:100B4000475F5F4F39962D5F3F4F8632910509F021
:100B50009CCF94E2E92EF12C02C0E12CF12C809183
:100B60000704909108049C01990F440B550B2E87A4
:100B70003F87488B598B8701000F111F0E0D1F1DDA
:100B80000E5F1F4F4A895B89040F151F23E630E073
:100B9000D7010E940D25812C912C54012B013C0181
:100BA00053E6451A510861087108C6010D2C000C66
:100BB000AA0BBB0B9C01AD01215031094109510920
:100BC0002A8B3B8B4C8B5D8BEC14FD04F4F5C3013D
:100BD000B201680D791D8A1D9B1D2A893B894C89AC
:100BE0005D890E944523BA01A9014F5F5F4F6F4F96
:100BF0007F4F980122503109F80131978E859F85EA
:100C0000A889B989481759076A077B0774F4D10185
:100C10008C91D9018C93D10111968C91119780837D
:100C200012968C91F801808305C0D9011C92108224
:100C3000F8011082FFEFEF1AFF0A0D5F1F4F23E646
:100C4000820E911CA11CB11CBFCF80915D056596E1
:100C50000FB6F894DEBF0FBECDBFDF91CF911F91CD
:100C60000F91FF90EF90DF90CF90BF90AF909F904B
:100C70008F907F906F905F904F903F902F900C944B
:100C8000F00A3F924F925F926F927F928F929F9263
:100C9000AF92BF92CF92DF92EF92FF920F931F938A
:100CA000CF93DF93CDB7DEB763970FB6F894DEBF6F
:100CB0000FBECDBFCF82D886E986FA860B871C8708
:100CC0002D873E874F87B52E588B698BA72E7A8B41
:100CD0008B8B0E851F857C835D830E83BE016F5FCA
:100CE0007F4FCE0104960E94E8157980672D70E051
:100CF00080E090E00E94DE219B01AC0160E070E8A2
:100D000085E693E40E94EB236B017C0120E030E058
:100D100040E85FE30E949324181634F4C12CD12CD0
:100D200080E8E82E9FE3F92E9A80692D70E080E03C
:100D300090E00E94DE219B01AC0160E070E885E656
:100D400093E40E94EB232B01682E892E9B01482FF0
:100D5000592FB601C7010E94D92187FD03C0620146
:100D6000E62CF82C8B80682D70E080E090E00E94EB
:100D7000DE219B01AC0160E070E885E693E40E940F
:100D8000EB23362E472E582E692E262F372F482F2D
:100D9000592FB601C7010E94D92187FD04C0C32C79
:100DA000D42CE52CF62C692D70E09B01270D311D0C
:100DB000B901680D711D072E000C880B990B0E945C
:100DC000E0219B01AC0161E070E885E693E40E94BC
:100DD000EB233B014C019B01AC01B601C7010E9412
:100DE000D92187FD02C063017401AC82BD82B801C4
:100DF000110F880B990B0E94E0219B01AC01B601F9
:100E0000C7010E943F220E9464246E83BE016F5F6F
:100E10007F4FCE0104960E94E81589818C838A81D8
:100E20008D838B818E83CE0104965C01CF80D88424
:100E3000E984FA840B851C852D853E854F8558896C
:100E400069897A898B890E940E0563960FB6F8949A
:100E5000DEBF0FBECDBFDF91CF911F910F91FF90ED
:100E6000EF90DF90CF90BF90AF909F908F907F904A
:100E70006F905F904F903F9008953F924F925F9296
:100E80006F927F928F929F92AF92BF92CF92DF929A
:100E9000EF92FF920F931F93CF93DF935C014B016F
:100EA0003A01C0E8D5E0412C512C9DE0392E1A14AE
:100EB0001B0414F4B886AF821814190414F49A862B
:100EC00089861614170414F47C866B86349CF00112
:100ED000359CF00D1124E058FA4FC080D180E2809B
:100EE000F380048115812681378140855185628593
:100EF000738584850E9441062D964A94452821F0E9
:100F000044244394512CD3CFDF91CF911F910F9163
:100F1000FF90EF90DF90CF90BF90AF909F908F9019
:100F20007F906F905F904F903F900895CF92DF92A7
:100F3000EF92FF920F931F93C0908005D090810590
:100F4000E0908205F090830500918405109185055D
:100F5000209186053091870540918805509189053B
:100F600060918A0570918B0580918C050E944106E5
:100F7000EDE8F5E0C080D180E280F3800481158146
:100F800026813781408551856285738584850E94DD
:100F900041061F910F91FF90EF90DF90CF90089541
:100FA0001F920F920FB60F921124CF92DF92EF9201
:100FB000FF920F931F932F933F934F935F936F93E2
:100FC0007F938F939F93AF93BF93CF93DF93EF93D1
:100FD000FF93C0910B04D0E0C0900A04D12C009183
:100FE000090410E040911201509113012DEC64E2CC
:100FF00072E086E694E00E94F70390E08058910941
:101000008C9F70018D9FF00C9C9FF00C11244091DF
:101010000E0150910F0125E86FE971E084E694E03C
:101020000E94F70390E0805891098C9DE0018D9D0E
:10103000D00D9C9DD00D11244091050150910601C9
:1010400025E86AE171E082E694E00E94F703CE0DA4
:10105000DF1DD05890E080589109809F9001819FBA
:10106000300D909F300D1124C20FD31FD093D000AC
:10107000FF91EF91DF91CF91BF91AF919F918F91B0
:101080007F916F915F914F913F912F911F910F91A0
:10109000FF90EF90DF90CF900F900FBE0F901F90BA
:1010A0001895CF92DF92EF92FF92CF93DF93EC01EE
:1010B000688179818A819B819B01AC010E943F22DA
:1010C00020E030E0A9010E947F236B017C016C814C
:1010D0007D818E819F819B01AC010E943F229B01FB
:1010E000AC01C701B6010E947F236B017C016885BA
:1010F00079858A859B859B01AC010E943F229B01DB
:10110000AC01C701B6010E947F23DF91CF91FF9010
:10111000EF90DF90CF900C949E24AF92BF92CF922D
:10112000DF92EF92FF920F931F93CF93DF9300D044
:1011300000D000D0CDB7DEB78B01EE24E394E0926F
:10114000930478E6F72EF092B5041092940410926E
:10115000B604682F89E095E00E94B1150E94260C24
:10116000E0929304F092B504109294041092B604A5
:10117000809192048111FCCF81E08093920480934E
:1011800091049FEF9093900410928F0495E09093B8
:101190008E0480936D0480916D04806D80936D0446
:1011A00080916C04813041F410926C0480916D0444
:1011B0008093BB0085EC01C085EE8093BC008091DC
:1011C00092048130E1F380918F04863018F4F0901E
:1011D0008F0402C066E0F62EAEE6B4E02CE236E004
:1011E000F9018E2F821B8F1518F48D918193F9CF01
:1011F00010920104F092000486E08F1580F0FE0149
:1012000031965F016F018C2D8A198F1588F489E062
:1012100095E00E945815F60181936F01F4CF56E0D6
:10122000E52E89E095E00E945815EA94E110F9CF87
:101230000E94260CF6E0FF1611F080E01AC08981AA
:1012400090E0982F88272A81822BF8019183808350
:101250008B8190E0982F88272C81822B9383828327
:101260008D8190E0982F88272E81822B958384830F
:1012700081E026960FB6F894DEBF0FBECDBFDF919A
:10128000CF911F910F91FF90EF90DF90CF90BF9083
:10129000AF900895161617063CF4281B390B6217F9
:1012A00073077CF49B010DC06115710541F0481B6B
:1012B000590B9B016417750724F49A0102C020E0C2
:1012C00030E0820F931F0895CF93DF9380917F05C5
:1012D000823030F4F89484E795E00E945F0401C006
:1012E000F89480917B0590917C05A0917D05B0914B
:1012F0007E0578949C0197FF02C02D5F3F4F359586
:101300002795359527952115310509F466C16CEFB0
:101310006203A001639F500D1124F894840F951F60
:10132000092E000CAA0BBB0B80937B0590937C05C8
:10133000A0937D05B0937E057894CC27DD27C21B52
:10134000D30B80910604813009F429C120F082304A
:1013500009F428C13EC1E0910204F0910304EB308E
:10136000F10508F036C1EA5AFF4F0C94072528E032
:1013700030E041E050E0BE01809101019091020116
:101380000E944A09909302018093010120910C046C
:1013900030910D0422303105D9F03CF4211531058E
:1013A00059F02130310579F014C12330310521F095
:1013B0002430310599F00DC11C161D060CF009C131
:1013C0000E94010506C1D7FF04C10E94B90401C1F2
:1013D000D7FFFFC0019709F0FCC0F7CFD7FFF9C0D6
:1013E00010920D0410920C04F4C0BE0144E0660F8C
:1013F000771F4A95E1F780910B012FEF30E040E035
:1014000050E090E00E944A0980930B01E2C027E07F
:1014100030E040E050E0BE018091680490916904A2
:101420000E944A099093690480936804880F991F69
:10143000FC01E156FC4F40815181FC01E157FC4F1A
:10144000608171818FEF9FEF0E943D07809168045A
:1014500090916904880F991FFC01E158FC4F20818D
:1014600031813093020120930101FC01E159FC4FCD
:10147000208131813093150120931401FC01E15A40
:10148000FC4F208131813093110120931001FC0128
:10149000E15BFC4F208131813093080120930701EB
:1014A000FC01E15CFC4F2081318130930A012093E3
:1014B0000901FC01E15DFC4F808191816BC0BE019F
:1014C00093E0660F771F9A95E1F72FEF30E047E042
:1014D00050E080918705909188050E944A094FEF5E
:1014E0005FEF6FEF7FEF73C080918B0590918C055C
:1014F000480F591F50938C0540938B0564C0BE0163
:1015000083E0660F771F8A95E1F72FEF30E040E028
:1015100050E08091890590918A050E944A094FEF19
:101520005FEFBC0152C08091140190911501821BA4
:10153000930B90931501809314014BC0809110017F
:1015400090911101821B930B9093110180931001D4
:1015500040C08091070190910801821B930B9093EA
:1015600008018093070135C08091090190910A011B
:10157000821B930B90930A01809309012AC02FEFDD
:1015800030E040E050E0BE0180910C0190910D01EF
:101590000E944A0990930D0180930C011AC082E0C9
:1015A000809306042BE030E040E050E0BE018091E3
:1015B0000204909103040E944A09909303048093CB
:1015C00002044FEF5FEF6FEF7FEF8FEF9FEF0E940F
:1015D0003D071092050410920404DF91CF91089505
:1015E0003F924F925F926F927F928F929F92AF92B3
:1015F000BF92CF92DF92EF92FF920F931F93CF9300
:10160000DF9300D01F92CDB7DEB7F82E8091600532
:1016100090916105A0916205B0916305892B8A2B99
:101620008B2BE9F00E94610E0091D0051091D1053D
:101630002091D2053091D305DC01CB01801B910BA9
:10164000A20BB30B0091600510916105209162051A
:101650003091630580179107A207B307B8F20E9483
:10166000610E6093D0057093D1058093D20590935D
:10167000D305E0916805F0916905309759F04091E4
:1016800064055091650560916605709167058F2D21
:101690000995F82E0091B7041091B8044F2C512CE5
:1016A000612C712C0115110509F461C0D8011C963B
:1016B000EC901C9780915E0590915F0584369105B2
:1016C00010F41C961C92D801ED91FC91A280B3807D
:1016D00019821A821B82F11014C0F80145855685C3
:1016E000628173819E012F5F3F4FC801F50109950B
:1016F000D8011C96EC921C9714960D911C9115978D
:10170000D1CFF8013996CE0101966C0148019CE0D9
:10171000890E911CDF0113973C902191332001F138
:101720002223F1F0822F90E0A0E0B0E09C01AD0117
:101730002F5F3F4F4F4F5F4FC301B2010E941323F2
:101740009B01AC01832D90E0A0E0B0E0BC01CD0195
:101750006F5F7F4F8F4F9F4F0E941323D6018C9353
:10176000BFEFCB1ADB0AE815F905A1F6B6CF8091D9
:10177000CE059091CF058C010F5F1F4F1093CF05C1
:101780000093CE0549979CF10E94450F4B015C01E7
:1017900088EE93E0089FB001099F700D189F700DAF
:1017A0001124072E000C880B990BC090CA05D0900D
:1017B000CB05E090CC05F090CD05A50194012C1946
:1017C0003D094E095F090E94232330935F05209352
:1017D0005E051092CF051092CE050E94450F6093D2
:1017E000CA057093CB058093CC059093CD050F90DF
:1017F0000F900F90DF91CF911F910F91FF90EF907D
:10180000DF90CF90BF90AF909F908F907F906F9020
:101810005F904F903F9008950F931F93CF93DF9366
:101820001F92CDB7DEB78C0169830E94FD226981CA
:10183000861729F0C8010E94052381E001C080E0DD
:101840000F90DF91CF911F910F9108952091B604D1
:101850009091B504213208F046C080919204811124
:10186000FCCF32E03093920431E0309391043FEFAB
:101870003093900410928F0420938E04A5E9B4E075
:101880004EE654E0FA013E2F341B321718F43D9116
:101890003193F9CF10926D0420916D04990F922B22
:1018A00090936D0490916C04913041F410926C040B
:1018B00090916D049093BB0095EC01C095EE9093D0
:1018C000BC00909192049230E1F3909190049F3F7C
:1018D00079F080919004803241F0809190048033BF
:1018E00031F084E005C081E003C082E001C083E004
:1018F000109294041092B604109293040895CF931A
:10190000C62F91E09093930498E69093B5041092BB
:1019100094041092B604682F89E095E00E94B115F6
:101920006C2F89E095E00E94B1150E94260C81E0A1
:10193000CF910895CF93DF93E4EFF0E08491E3E15A
:10194000F1E0D491E0E4F1E0C491CC2391F0811175
:101950000E94B80DEC2FF0E0EE0FFF1FE65DFE4F8A
:10196000A591B491EC91ED2381E090E021F480E029
:1019700002C080E090E0DF91CF9108958F929F9216
:10198000AF92BF92CF92DF92EF92FF926B017C01F8
:101990000E94450F4B015C01C60ED71EE81EF91EC2
:1019A0000E94450F681579058A059B0528F0C61623
:1019B000D706E806F906A0F7FF90EF90DF90CF90EA
:1019C000BF90AF909F908F900895FC0180916B0421
:1019D000811103C08FEF9FEF08959FB7F89482E0C5
:1019E0008093E9002091F20030E01216130614F4FF
:1019F00021E030E02115310559F0289884E68093E4
:101A00006A048091F10080838091F200882319F0AC
:101A10009FBFC90108958BE68093E800F9CF2FB7E7
:101A2000F89483E08093E9009091E800892F807218
:101A300095FF04C09091F20080E4891B2FBF0895A8
:101A40008091C20581110DC082E08093BE0584E0C3
:101A50008093BF051092C1051092C00581E080936C
:101A6000C2058EEB95E00895CF93DF931F92CDB71B
:101A7000DEB76983DC01ED91FC910280F381E02DFA
:101A800041E050E0BE016F5F7F4F09950F90DF91FD
:101A9000CF91089583E08093E9008091F20088233C
:101AA00019F08AE38093E8000895FC018485958508
:101AB00097FD0BC09FB7F89482E08093E900809176
:101AC000F2009FBF90E0019608959FB7F89482E0DE
:101AD0008093E9008091F2009FBF90E008950895FF
:101AE0000E940F0D90E00895CF93DF931F92CDB722
:101AF000DEB7FC018485958597FD05C02FEF3FEF8C
:101B0000358724870BC0CE0101960E94E50C019712
:101B100019F4898190E002C08FEF9FEF0F90DF9161
:101B2000CF9108950F931F93CF93DF931F92CDB75B
:101B3000DEB78C01FC018485958597FF0EC0CE0130
:101B400001960E94E50C019719F4298130E002C04A
:101B50002FEF3FEFF80135872487F80184859585BD
:101B60000F90DF91CF911F910F9108950E945526FC
:101B700090E0FC013197EF30F105B0F5EF59FF4FE0
:101B80000C940725809180008F7703C0809180009E
:101B90008F7D80938000089580918000877FF9CFAA
:101BA00084B58F7702C084B58F7D84BD0895809100
:101BB00090008F7707C0809190008F7D03C0809147
:101BC0009000877F8093900008958091C0008F7768
:101BD00003C08091C0008F7D8093C00008958091E4
:101BE000C200877F8093C20008951F93CF93DF9335
:101BF000282F30E0F901E451FF4F8491F901E55FAE
:101C0000FE4FD491F901E85CFE4FC491CC23C9F09A
:101C1000162F81110E94B80DEC2FF0E0EE0FFF1F80
:101C2000EB59FE4FA591B4918FB7F894111105C0EF
:101C30009C91ED2FE095E92302C0EC91ED2BEC9304
:101C40008FBFDF91CF911F910895CF93DF9390E0E5
:101C5000FC01E55FFE4F2491FC01E85CFE4F84919E
:101C6000882361F190E0880F991FFC01E95AFE4F2B
:101C7000C591D491FC01EB59FE4FA591B49161112E
:101C800009C09FB7F8948881209582238883EC91BE
:101C90002E230BC0623061F49FB7F8943881822FF5
:101CA000809583238883EC912E2B2C939FBF06C0B5
:101CB0008FB7F894E8812E2B28838FBFDF91CF91C7
:101CC00008953FB7F8948091200690912106A09145
:101CD0002206B091230626B5A89B05C02F3F19F018
:101CE0000196A11DB11D3FBFBA2FA92F982F88279C
:101CF000820F911DA11DB11DBC01CD0142E0660FF7
:101D0000771F881F991F4A95D1F708958F929F9248
:101D1000AF92BF92CF92DF92EF92FF926B017C0164
:101D20000E94610E4B015C01C114D104E104F10475
:101D3000F1F00E94610EDC01CB0188199909AA0912
:101D4000BB09883E9340A105B10570F321E0C21A9A
:101D5000D108E108F10888EE880E83E0981EA11CE6
:101D6000B11CC114D104E104F10419F7DDCFFF90D7
:101D7000EF90DF90CF90BF90AF909F908F9008959D
:101D80008F929F92AF92BF92CF92DF92EF92FF928B
:101D90000F931F93CF93DF935C016B017A018091C6
:101DA0000603882309F45BC080916B04882309F43F
:101DB00056C08091260680FF05C08091E0008260B9
:101DC0008093E000E70110E00AEF83E0882E9AE3B9
:101DD000992E2097D9F10E940F0D81110AC0015050
:101DE00009F43DC061E070E080E090E00E94860E62
:101DF000F0CF282F30E0C217D3070CF48C2F4FB749
:101E0000F8948092E9009091E80095FF1DC0282F7A
:101E100030E0C21BD30BF601982F915020F0819136
:101E20008093F100FACFC20ED31E112319F09092C5
:101E3000E80009C08091E80085FD06C09092E800A6
:101E400011E0209709F010E04FBFC3CF1111C3CFAD
:101E50005D9884E6809327061E141F0444F081E0F9
:101E600090E0F5019383828380E090E001C0C70198
:101E7000DF91CF911F910F91FF90EF90DF90CF9066
:101E8000BF90AF909F908F9008952FB7F894609176
:101E9000F5057091F6058091F7059091F8052FBF33
:101EA00008951F920F920FB60F9211242F933F9314
:101EB0008F939F93AF93BF938091F5059091F60513
:101EC000A091F705B091F80530911F0623E0230F8C
:101ED0002D3720F40196A11DB11D05C026E8230F62
:101EE0000296A11DB11D20931F068093F5059093C6
:101EF000F605A093F705B093F80580912006909120
:101F00002106A0912206B09123060196A11DB11DC4
:101F10008093200690932106A0932206B093230677
:101F2000BF91AF919F918F913F912F910F900FBED5
:101F30000F901F9018951F920F920FB60F921124B9
:101F40002F933F934F935F936F937F938F939F93C1
:101F5000AF93BF93EF93FF93E091F902F091FA02F0
:101F60000995FF91EF91BF91AF919F918F917F91D3
:101F70006F915F914F913F912F910F900FBE0F90F6
:101F80001F9018951F920F920FB60F9211242F9346
:101F90003F934F935F936F937F938F939F93AF93F1
:101FA000BF93EF93FF93E091F702F091F802099548
:101FB000FF91EF91BF91AF919F918F917F916F9121
:101FC0005F914F913F912F910F900FBE0F901F90F7
:101FD00018951F920F920FB60F9211242F933F93D3
:101FE0004F935F936F937F938F939F93AF93BF9321
:101FF000EF93FF93E091F502F091F6020995FF91BE
:10200000EF91BF91AF919F918F917F916F915F9170
:102010004F913F912F910F900FBE0F901F901895E9
:102020001F920F920FB60F9211242F933F934F934D
:102030005F936F937F938F939F93AF93BF93EF9330
:10204000FF93E091F302F091F4020995FF91EF9173
:10205000BF91AF919F918F917F916F915F914F91C0
:102060003F912F910F900FBE0F901F9018951F92C8
:102070000F920FB60F9211242F933F934F935F93BC
:102080006F937F938F939F93AF93BF93EF93FF9340
:10209000E091F102F091F2020995FF91EF91BF9169
:1020A000AF919F918F917F916F915F914F913F91F0
:1020B0002F910F900FBE0F901F9018951F920F92A7
:1020C0000FB60F9211242F933F934F935F936F930B
:1020D0007F938F939F93AF93BF93EF93FF938091E1
:1020E000B900887F803609F49CC068F5883209F40D
:1020F0005BC090F4803109F454C038F4882309F4AB
:10210000F3C0883009F44DC0F3C0883109F44CC0E5
:10211000803209F45DC0ECC0803409F468C048F432
:10212000803309F455C0883309F0E2C080939004ED
:10213000D5C0803509F44FC0883509F45DC08834B6
:1021400009F0D6C0D3C0883909F4C4C0A8F48837D0
:1021500009F467C038F4883609F463C0803709F49D
:1021600060C0C6C0883809F4B5C0803909F45FC0C2
:10217000803809F0BDC05BC0803B09F483C038F4EF
:10218000803A09F466C0883A09F47CC0B1C0803C4A
:1021900009F4A4C0883C09F4A1C0883B09F487C0B5
:1021A000A7C080916D0410C090918F0480918E041F
:1021B000981770F5E0918F0481E08E0F80938F0463
:1021C000F0E0E259FB4F80818093BB0085EC83C037
:1021D000809390048BC0E0918F0481E08E0F8093F8
:1021E0008F048091BB00F0E0E259FB4F8083909117
:1021F0008F0480918E046BC0E0918F0481E08E0F7C
:1022000080938F048091BB00F0E0E259FB4F808304
:102210008091910481116AC081E080936C0484EA0A
:102220005EC083E08093920410921E06CFCF80910F
:102230001E06803208F04EC0E0911E0681E08E0F2F
:1022400080931E068091BB00F0E0E250FA4F80833D
:10225000BDCF80911E06803230F4E0911E06F0E082
:10226000E250FA4F10820E94DE1560911E0670E067
:10227000E091FC05F091FD058EEF95E00995109237
:102280001E062CC084E0809392041092FB051092ED
:10229000F405E091F905F091FA0509958091F405AE
:1022A000811105C081E08093F4051092D405E0917E
:1022B000FB0581E08E0F8093FB05F0E0EC52FA4FB6
:1022C00080818093BB009091FB058091F405981765
:1022D00008F47CCF85E88093BC000AC085EC80932D
:1022E000BC001092920404C0109290040E94DE156B
:1022F000FF91EF91BF91AF919F918F917F916F91DE
:102300005F914F913F912F910F900FBE0F901F90B3
:10231000189540912A0650912B062091280630915D
:10232000290642175307B4F49091E8009570E1F341
:102330009091E80092FD19C08093F10080912A06E7
:1023400090912B0601968F739927892B19F48EEFA4
:102350008093E80080912A0690912B060196909335
:102360002B0680932A0681E0089580E00895DF928D
:10237000EF92FF920F931F93CF93DF93D82E8A0192
:102380007B01E40EF51EEB01CE15DF0571F0D7FEE3
:1023900003C0FE01849101C088810E9489112196A9
:1023A0008111F2CF8FEF9FEF01C0C801DF91CF9174
:1023B0001F910F91FF90EF90DF900895615030F0E2
:1023C0002091F100FC0120830196F8CF289884E643
:1023D00080936A040895CF92DF92EF92FF920F9359
:1023E0001F93CF93DF936C017A018B01C0E0D0E0A3
:1023F000CE15DF0589F0D8016D918D01D601ED91E3
:10240000FC910190F081E02DC6010995892B11F412
:102410007E0102C02196ECCFC701DF91CF911F91C1
:102420000F91FF90EF90DF90CF9008950F931F933F
:10243000CF93DF931F92CDB7DEB782E0898342E46A
:1024400050E063E771E080E80E94B7110E94200D20
:10245000DC0112960D911C9113970115110569F07D
:10246000D801ED91FC910280F381E02DBE016F5FF8
:102470007F4FC801099597FF07C089810F90DF91B1
:10248000CF911F910F910895F80100851185E5CF37
:102490001F920F920FB60F9211248F939F938091EA
:1024A000E1009091E100937F9093E10083FF0FC0E2
:1024B0001092E90091E09093EB001092EC0092E30F
:1024C0009093ED0010926B0498E09093F00082FFDF
:1024D00020C093E09093E9009091F200992319F0C5
:1024E0009AE39093E80090912706992339F0909110
:1024F0002706915090932706992389F190916A04B9
:10250000992339F090916A04915090936A04992329
:1025100041F184FF10C08091E2008E7E8160809343
:10252000E2008091E1008F7E8093E1008091260699
:102530008E7E806111C080FF16C08091E2008E7E89
:1025400080618093E2008091E1008E7E8093E100C3
:10255000809126068E7E81608093260604C05D9A57
:10256000CDCF289AD6CF9F918F910F900FBE0F900D
:102570001F9018951F920F920FB60F921124CF92B1
:10258000DF92EF92FF920F931F932F933F934F93FE
:102590005F936F937F938F939F93AF93BF93EF93CB
:1025A000FF93CF93DF93CDB7DEB76C97DEBFCDBF80
:1025B0001092E9008091E80083FFEDC168E0CE0150
:1025C00045960E94DE1182EF8093E8008D8987FF97
:1025D00005C09091E80090FFFCCF03C09EEF909360
:1025E000E800982F907609F0C6C09E892F89188D33
:1025F00091110CC0803829F4809125068093F10058
:1026000002C01092F1001092F10048C1422F50E038
:10261000512B913051F4811141C14130510509F0E4
:102620003DC1809125068D7F0BC0933061F48111EF
:1026300035C14130510509F031C1809125068260D4
:10264000809325062BC1953041F48091E80080FFEE
:10265000FCCF20682093E30021C1963009F05FC0D1
:10266000EB8CFC8C1092E90010922B0610922A063B
:10267000123091F510922906109228060E94161227
:1026800099E0BE016F5F7F4FDB01E92F1D92EA9554
:10269000E9F799831A8391E09E8390EA98879AEFED
:1026A000998720912A0630912B06275F3F4F3C8364
:1026B0002B838D831092E90010922B0610922A062C
:1026C000F0922906E092280649E050E080E00E945E
:1026D000B7110E941612E2C0F0922906E092280675
:1026E0000E94200DDC011296ED90FC901397E114EE
:1026F000F10409F4C0C0D701ED91FC910480F5818B
:10270000E02DBE016B5E7F4FC7010995009719F060
:102710000CF0C4C0C7C0F701E084F184E8CF973063
:1027200009F4C0C0983021F481E08093F100B6C074
:10273000993009F0B3C0837009F0B4C0E4EDF3E060
:1027400081E021E036E39081992361F08093E900F4
:102750002093EB0091919093EC003093ED008F5F0C
:10276000873089F78EE78093EA001092EA008F891C
:1027700080936B0493C08B8D9C8D1092E900109216
:102780002B0610922A069093290680932806898D9D
:10279000811156C08E899D89913A59F4813209F090
:1027A00081C047E050E06FEF72E080E00E94B71117
:1027B00075C0913209F076C0833289F4888D90E03B
:1027C000982F88272F89822BA0E0B0E08093FB020E
:1027D0009093FC02A093FD02B093FE025FC0803292
:1027E00069F48091E80082FFFCCF67E08FEF92E010
:1027F0000E94DE118BEF8093E80006C0823209F060
:102800004DC08F898093060380912406882319F098
:10281000EEEFFAE002C0E0E0F8E08091FF02909174
:102820000003A0910103B0910203803B9440A105F5
:10283000B10509F07BC08091060380FF93C076C08C
:102840000E94200DDC0112960D911C911397011529
:10285000110541F1D801ED91FC910190F081E02D3D
:10286000BE016B5E7F4FC8010995811117C0F80149
:1028700000851185ECCF113009F44EC0133091F46E
:102880008F89882309F445C0823081F440E860E1F3
:1028900087ED91E00E949C21882321F08EEF8093A8
:1028A000E80079C081E28093EB0075C0813029F4A3
:1028B00040E86BE08BEC91E0EDCF833099F70E941C
:1028C000200DDC011296ED90FC9013978E010F5FA6
:1028D0001F4F6801E114F10479F0D701ED91FC91EB
:1028E0000680F781E02DB801C7010995080F111D79
:1028F000F701E084F184EECFD8011C92F60101903B
:102900000020E9F73197BF016C197D0940E0C6014D
:10291000C1CF65EB71E002C069EB71E06115710533
:1029200009F2FB01449150E080E840CF0FB6F894E3
:10293000A89580916000886180936000109260008B
:102940000FBEA895EE3F2AE0F20739F08091FE0A0B
:102950009091FF0A91838083A1CF1092FF0A109279
:10296000FE0A9CCFEE3F8AE0F80731F0808191812A
:102970009093FF0A8093FE0A87E797E7918380830D
:102980009BE088E10FB6F894A895809360000FBE95
:102990009093600083CF6C960FB6F894DEBF0FBEA5
:1029A000CDBFDF91CF91FF91EF91BF91AF919F91FB
:1029B0008F917F916F915F914F913F912F911F91D7
:1029C0000F91FF90EF90DF90CF900F900FBE0F9080
:1029D0001F9018956115710579F0FB010190002099
:1029E000E9F73197AF01461B570BDC01ED91FC91E4
:1029F0000280F381E02D099480E090E008954F92E9
:102A00005F926F927F92EF92FF920F931F93CF93FB
:102A1000DF93CDB7DEB7A1970FB6F894DEBF0FBE38
:102A2000CDBF7C01FA01CB0119A2223008F42AE0C3
:102A30008E010F5D1F4F422E512C612C712CBF0156
:102A4000A30192010E942323F901CA010150110937
:102A50006A3014F4605D01C0695CD8016C93232B6B
:102A6000242B252B61F7B801C7010E94EA14A19617
:102A70000FB6F894DEBF0FBECDBFDF91CF911F918F
:102A80000F91FF90EF907F906F905F904F9008951F
:102A90000895E091010480910004E81730F4F0E01B
:102AA000E45DF94F808190E008958FEF9FEF0895E6
:102AB0009091010480910004981750F4E92FF0E000
:102AC000E45DF94F208130E09F5F9093010402C0E4
:102AD0002FEF3FEFC90108958091000490E020910D
:102AE0000104821B91090895CF92DF92EF92FF9229
:102AF0000F931F93CF93DF937C018A0180919304FE
:102B0000882389F0EB016B01C40ED51ECC15DD05C1
:102B1000F1F06991D701ED91FC910190F081E02DE8
:102B2000C7010995F3CF842F413288F49091920424
:102B3000943069F44093F405FB0124ED35E0D901AC
:102B40009A2F921B981718F491919D93F9CFC80171
:102B5000DF91CF911F910F91FF90EF90DF90CF9079
:102B60000895209193042223C9F02091B6042032C5
:102B700040F021E030E0FC013383228380E090E0EC
:102B8000089580919404E82FF0E0EB56FB4F6083AA
:102B90008F5F809394048093B60409C0809192045F
:102BA000843029F481E08093F4056093D40581E0BA
:102BB00090E00895089580E090E0089585ED809379
:102BC000BC008091BC0084FDFCCF1092920408955B
:102BD000DC01FB014C9111965C91119712967C914E
:102BE000342F3F71330F330F832F880F35E5282F94
:102BF000239F020E20E0211D1124642F6074942F66
:102C0000907247FD21C061110BC0911104C0822F49
:102C10008095422F11C045E5420F30E02BEA33C0CA
:102C200091110DC0382F4AEA349F030E30E0311D58
:102C300011248BEA831B420F282F30E024C080E050
:102C4000422F4095322F0EC0611111C091110CC05E
:102C5000382F2AEA329F030E30E0311D11244BEA4F
:102C6000431B3B5A20E00FC0322F30950BC091110F
:102C700004C085E5820F3BEA03C08AEA820F90E038
:102C8000321B282F40E05F3F11F15523E9F022234A
:102C900021F0259F020E20E0211D442321F0459FB5
:102CA000040E40E0411D332321F0359F030E30E038
:102CB000311D11245095559F050E50E0511D1124D2
:102CC000250F450F350F03C03FEF4FEF2FEF7F3F2D
:102CD00009F420C050E0772321F0779F512D09F0AF
:102CE0005F5F5523A1F0222321F0259F020E20E0F3
:102CF000211D442321F0459F040E40E0411D332354
:102D000021F0359F030E30E0311D112403C030E067
:102D100040E020E02083418332830895EF92FF92C8
:102D20000F931F93CF93DF93EC0190914C069F5F1D
:102D3000292F277020934C0690FF02C090E801C015
:102D400090E021FD9064247009F0906220E1290F49
:102D5000FE013C967E018FE0E80EF11C00E011E0E0
:102D60006191662331F070E0C8010E94F3246F5F27
:102D700001C060E0DF0114976C93322F369F030E81
:102D800030E0311D1124CF010797311103C0EC0150
:102D9000188203C03150EC013883662311F0615072
:102DA0006C93EE15FF05E1F6DF91CF911F910F9126
:102DB000FF90EF900895CF93DF93CDB7DEB7A6973E
:102DC0000FB6F894DEBF0FBECDBF789484B5826095
:102DD00084BD84B5816084BD85B5826085BD85B5BF
:102DE000816085BD80916E00816080936E0010923D
:102DF00081008091810082608093810080918100B8
:102E00008160809381008091800081608093800048
:102E10008091910082608093910080919100816007
:102E200080939100809190008160809390008091C8
:102E3000C10084608093C1008091C1008260809352
:102E4000C1008091C10081608093C1008091C30066
:102E500081608093C3008091C00082608093C00035
:102E60008091C20081608093C20080917A0084606A
:102E700080937A0080917A00826080937A008091BA
:102E80007A00816080937A0080917A0080688093D4
:102E90007A0010926B0410922506109226068091FB
:102EA000D70081608093D70080EA8093D80089B5ED
:102EB000806189BD89B5826089BD09B400FEFDCFFE
:102EC00061E070E080E090E00E94860E8091D80082
:102ED0008F7C80618093D8008091E000807F809318
:102EE000E0008091E1008E7E8093E1008DE0809390
:102EF000E200559A209AEEEFFFE7859194918B3F7F
:102F00009C4D19F481E0809324061092590510928B
:102F10005A0510925B0510925C05109217051092ED
:102F200018051092190510921A0568EB7BE080E0F5
:102F300090E00E94BE0C89EB94E09093580580933A
:102F400057050BE110E0F09006036AE070E080E0C6
:102F500090E00E94860EF1100AC00150110939F06C
:102F600064E670E080E090E00E94860EECCFE09195
:102F70005705F09158050FEF1FEF158704870E9442
:102F8000450F60931705709318058093190590936A
:102F90001A056AED73E080915705909158050E94DB
:102FA000EA146AE070E080E090E00E94BE0CFF242A
:102FB000F394F0922B051093C6040093C5048CE3A0
:102FC00090E0909383058093820584EB90E00E94CB
:102FD00028258C01909381058093800584E690E0FC
:102FE000909388058093870528EC30E030938C051A
:102FF00020938B0590938A058093890584E18093C3
:10300000860580912104811144C01092130410920E
:1030100012049FEF90931604909317049093180452
:103020009093190490931A0490931B04F0921C043B
:1030300010921E0410921D04109215041092140494
:103040008091B7049091B804892B31F480E194E029
:103050009093B8048093B704E0910E04F0910F04AC
:10306000309721F080E194E09583848380E194E0BF
:1030700090930F0480930E041092200410921F046A
:1030800081E293E0909311048093100481E0809397
:103090002104E0911004F09111040480F581E02DE9
:1030A00080E194E0099510931304009312048CE3DB
:1030B00090E090931E0480931D04E0911004F09121
:1030C00011040284F385E02D80E194E009950097D6
:1030D00029F19C0140E050E060E472E48FE090E070
:1030E0000E944523722F632F0091600510916105A6
:1030F0002091620530916305872F962FDA018017A2
:103100009107A207B30710F4D901C80180936005A5
:1031100090936105A0936205B0936305E091B704B5
:10312000F091B804309729F014860480F581E02DE1
:10313000F9CF10920804109207040E94960780911C
:103140005D050E94F00A1092010410920004109292
:1031500094041092B6041092920481E0809391043A
:1031600010926C0461E082E00E94F50D61E083E062
:103170000E94F50D8091B9008E7F8093B9008091F7
:10318000B9008D7F8093B90088E48093B80085E40E
:103190008093BC0060E870E08BE690E00E947F0CBA
:1031A00062E370E080E090E00E94860E61E070E0F3
:1031B00089E190E00E947F0C63E070E08BE690E094
:1031C0000E947F0C6EE170E080E090E00E94860E2D
:1031D00068E170E08BE190E00E947F0C6EE170E0AE
:1031E00080E090E00E94860E68EE70E08CE190E056
:1031F0000E947F0C64E170E080E090E00E94860E07
:1032000080E090E00E94FD228A3239F481E090E073
:103210000E94FD22882309F43DC762E088E00E94F5
:10322000250E62E08FE00E94250E62E080E10E94A0
:10323000250E61E08EE00E94250E60E08EE00E9487
:10324000F50D61E086E00E94250E60E086E00E94B8
:10325000F50D80917F05823030F4F89484E795E095
:103260000E945F0401C0F8947894F89410927B0552
:1032700010927C0510927D0510927E0578940E9434
:103280009A0C809300010E94960761E08AE00E94F8
:10329000250E81E18093C00081E08093C10080E42D
:1032A0008093C4001092C30080E88093D1001092F4
:1032B000800089E08093810080E092E09093890013
:1032C0008093880080916F00826080936F000E94DD
:1032D000450F672B682B692B41F40E94450F623024
:1032E00071058105910508F40EC10E94450F609398
:1032F0005D0470935E0480935F049093600400917A
:10330000590410915A0420915B0430915C046017B9
:1033100071078207930740F46093590470935A042D
:1033200080935B0490935C040091590410915A04BB
:1033300020915B0430915C046B017C01C01AD10ABE
:10334000E20AF30A970186010A3F110521053105BA
:1033500008F4D9C06093590470935A0480935B04B5
:1033600090935C0484EF91E0A0E0B0E080932305AB
:1033700090932405A0932505B09326051092270568
:10338000109228051092290510922A0580911B059C
:1033900090911C05A0911D05B0911E0580931F05FD
:1033A00090932005A0932105B09322050E94450F1C
:1033B00060931B0570931C0580931D0590931E055B
:1033C0000E94450F609317057093180580931905A7
:1033D00090931A050E94450F6B017C016CEE73E01F
:1033E00080915705909158050E94EA142AE041E027
:1033F00050E060E070E080915705909158050E9480
:10340000FF1463EF73E080915705909158050E9477
:10341000EA142AE0B701A60180915705909158055A
:103420000E94FF1465EF73E0809157059091580555
:103430000E94EA1480911B0590911C05A0911D0526
:10344000B0911E05B701A601481B590B6A0B7B0BF7
:103450002AE080915705909158050E94FF1465EF6E
:1034600073E080915705909158050E94EA144091AD
:103470001B0550911C0560911D0570911E058091E2
:103480001F0590912005A0912105B0912205481BB0
:10349000590B6A0B7B0B2AE08091570590915805D8
:1034A0000E94FF1467EF73E08091570590915805D3
:1034B0000E94EA140E94450FAB01BC012AE08091F2
:1034C0005705909158050E94FF14009157051091DF
:1034D000580569EF73E0C8010E94EA1469EE73E0D1
:1034E000C8010E94EA1462E070E080E090E00E946F
:1034F000BE0C0E94450F60931B0570931C058093C2
:103500001D0590931E058091570490915804A1E0E9
:103510008A27909358048093570480FF7FC061E509
:1035200074E083E40E948D0860915104709152040C
:10353000262F2F708091310490913204880F991FAB
:1035400082279093320480933104072E000C880B5D
:10355000990B0E94E0216E877F87888B998B609101
:10356000550470915604072E000C880B990B0E948D
:10357000E0216A8B7B8B8C8B9D8B1E8A1F8A188E19
:10358000198ECE010E960E9451086B017C0180902D
:103590004D0490904E04A0904F04B09050049B01B5
:1035A000AC01C501B4010E947E2320E030E046E971
:1035B00053E40E94EB239B01AC01C501B4010E94BE
:1035C0007E239B01AC0160934D0470934E04809365
:1035D0004F0490935004C701B6010E947E2320E05F
:1035E00030E048E452E40E94EB23209149043091FA
:1035F0004A0440914B0450914C040E947F2320E0E8
:1036000030E040E05FE30E943F2260934904709302
:103610004A0480934B0490934C04E2C063E474E04A
:103620008BE30E948D080091430410914404202FE5
:103630002F708091310490913204880F991F822756
:103640009093320480933104609145047091460454
:10365000072E000C880B990B0E94E02120913B045F
:1036600030913C0440913D0450913E040E947F23E0
:103670004B015C016091470470914804072E000CD7
:10368000880B990B0E94E02120913F043091400467
:1036900040914104509142040E947F236B017C01C0
:1036A000B801110F880B990B0E94E021209137047B
:1036B000309138044091390450913A040E947F239C
:1036C00024EA30E74DE75FE30E943F22609337042E
:1036D000709338048093390490933A0424EA30E7D5
:1036E0004DE75FE3C501B4010E943F2260933B04B4
:1036F00070933C0480933D0490933E0424EA30E7A9
:103700004DE75FE3C701B6010E943F2260933F048B
:1037100070934004809341049093420487E394E0C3
:103720000E94510820E030E44CE156E40E94EB2373
:103730006B017C018090160190901701A0901801F8
:10374000B09019019B01AC01C501B4010E947E2318
:1037500020E030E040E251E40E94EB239B01AC0109
:10376000C501B4010E947E23609316017093170176
:103770008093180190931901A70196010E947E235E
:103780006B017C0120E030E0A9010E94932418160F
:1037900024F0F7FAF094F7F8F094C701B6010E940C
:1037A0009E246B017C0120E030E040E85FE30E9452
:1037B000932418164CF0C0923304D0923404E09253
:1037C0003504F09236040CC080E090E0A0E8BFE33E
:1037D0008093330490933404A0933504B09336045B
:1037E0000E949A0C909100018917A9F190912904E7
:1037F0009F5F90932904933028F0809300018130DB
:1038000039F412C0BD8DB13019F0B23069F024C066
:1038100081E080930604E8ECF0E0F0930504E09387
:103820000404F1E0FD8F3DC080910604813041F435
:1038300080910C0490910D04892B11F40E940105D4
:10384000109206040E949607109205041092040438
:1038500022E02D8F26C01D8E8091040490910504D6
:1038600018161906F4F40197909305048093040444
:10387000892BB9F480910C0490910D04833091054B
:1038800034F48130910544F4892B19F007C0039773
:1038900029F40E94010502C00E94B90484E08093CB
:1038A00006040E946409809131049091320483706F
:1038B00099272091140130911501820F931F909345
:1038C0001301809312018091100190911101909346
:1038D0000F0180930E01E3EEF0E0849190917B0064
:1038E00083FBFF27F0F9F8A319A228A139A1E5E08D
:1038F000220F331FEA95E1F79F7D292B20937B0050
:103900008770806480937C0080917A0080648093CB
:103910007A0080917A0086FDFCCF8091780020911A
:10392000790090E0922B803791404CF580912F04E4
:10393000909130040097E9F484E090E090930D04B6
:1039400080930C0480912E0481110AC081E0809341
:103950002E04A8ECB0E0B0933004A0932F0419C05B
:1039600010922E04E0E9F1E0F0933004E0932F048C
:1039700010C001979093300480932F040AC070E91F
:10398000C72EDD24D394D0923004C0922F0410921D
:103990002E040E94640980910C0490910D048230E1
:1039A000910509F494C22CF4009759F0019759F14C
:1039B00069C38330910509F4D8C2049709F42EC372
:1039C00061C310920B0410920A0410920904109221
:1039D0002A0410922B0410922C0410922D0420E043
:1039E00030E048EC52E46091490470914A048091BF
:1039F0004B0490914C040E94932418160CF042C37F
:103A00000E9401053FC3E0904904F0904A040091F0
:103A10004B0410914C0420E030E0A901B701C8012B
:103A20000E94D92187FD11C020E030E04CE053E432
:103A3000B701C8010E949324181664F4A12CB12C7C
:103A400050EFC52E62E4D62E07C0A12CB12CC12C9C
:103A5000D12C02C05701680140902A0450902B04D9
:103A600060902C0470902D04A3019201B501C60151
:103A70000E94932418165CF4C501D60180932A0491
:103A800090932B04A0932C04B0932D0436C0609126
:103A90000C0170910D01072E000C880B990B0E94F0
:103AA000E02120E030E040E256E40E94EB232AE9E6
:103AB00039E949E75FE30E947F239B01AC01C30121
:103AC000B2010E943F2260932A0470932B048093DA
:103AD0002C0490932D042DEC3CEC4CEC5FE30E9405
:103AE000EB233B014C019B01AC01B501C6010E94D7
:103AF0009324181614F05301640120E030E040E8EC
:103B00005BE3B501C6010E943F224B015C0160915D
:103B10000B0170E080E090E00E94E0219B01AC018D
:103B2000C501B4010E943F224B015C01C090090411
:103B3000D12CB6010D2C000C880B990B0E94E021B2
:103B40002B013C019B01AC01C501B4010E949324EF
:103B500018165CF0A3019201C501B4010E94D9219D
:103B600087FF06C068EF7FEF05C060E170E002C02C
:103B700060E070E02FEF30E040E050E0C6010E94CE
:103B80004A09809309046091090170910A01072E86
:103B9000000C880B990B0E94E0219B01AC01B7013E
:103BA000C8010E94EB236B017C01609110017091B0
:103BB0001101072E000C880B990B0E94E021A70130
:103BC00096010E947F230E945D2470930F016093F1
:103BD0000E016091070170910801072E000C880BFF
:103BE000990B0E94E021A70196010E947F230E9469
:103BF0005D247093060160930501C701B6010E9420
:103C00005D247EA36DA340E8242E45E0342EF1010F
:103C1000DE0111968DE001900D928A95E1F7D101B8
:103C200017966D907C90189719968C9019971A9604
:103C3000BC91BBA3F1019384F485FAA3CDA0DEA0CF
:103C4000C60CD71CDF8ECE8E9E868F86C88ABE019C
:103C5000665E7F4FCE010E960E94E815BA8C6B2DE2
:103C600070E080E090E00E94DE219B01AC0160E00A
:103C700070E885E693E40E94EB23D62EE72EF82E1B
:103C8000092F20E030E040E85FE30E9493241816FB
:103C90002CF4D12CE12C30E8F32E0FE31B8D612F97
:103CA00070E080E090E00E94DE219B01AC0160E0CA
:103CB00070E885E693E40E94EB232B01A82EC92E21
:103CC0009B01482F592F6D2D7E2D8F2D902F0E94F7
:103CD000D92187FD04C0D42CE52CFA2C0C2DCC8CDA
:103CE0006C2D70E080E090E00E94DE219B01AC0131
:103CF00060E070E885E693E40E94EB236CA3472E16
:103D0000582EA92E262F372F482F592F6D2D7E2D57
:103D10008F2D902F0E94D92187FD03C0DCA0720156
:103D20000A2D612F70E06B0D711D6C0D711D072E3A
:103D3000000C880B990B0E94E0219B01AC0161E013
:103D400070E885E693E40E94EB235B01C82E192FEF
:103D50009B01482F592F6D2D7E2D8F2D902F0E9466
:103D6000D92187FD04C0DA2CEB2CFC2C012F9E8678
:103D70008F862E8D3F8DB901330F880B990B0E94D2
:103D8000E0219B01AC016D2D7E2D8F2D902F0E9487
:103D90003F220E946424688BBE01665E7F4FCE0185
:103DA0000E960E94E8158A8D8E878B8D8F878C8D5D
:103DB000888B362D798668868A868BA18B879C8630
:103DC0009AA19D87DE011E965D01C980DA80EB8095
:103DD000FC800D811E812F814985582D682F792DFA
:103DE000892F0E940E05BDE02B0E311CEAE92E162C
:103DF000E5E03E0609F00BCFE0903304F090340488
:103E0000009135041091360420E030E040E85FE393
:103E1000B701C8010E94932418163CF4A12CB12CC0
:103E200090E8C92E2FE3D22E02C05701680120E08E
:103E300030E040E052E4B501C6010E943F220E94FA
:103E40005D24685F90900B01699DB001112470930F
:103E50000B0420E030E040E252E4B501C6010E94CC
:103E60003F220E945D24645F699DB001112420916E
:103E7000090430E0872F90E08217930708F4C90106
:103E800080930A042DEC3CEC4CEC5EE3B701C801D6
:103E90000E94D92187FF62C020E030E040E251E477
:103EA0006091490470914A0480914B0490914C04B4
:103EB0000E94D92187FF52C0809103019091040193
:103EC000009719F40E94B904DDC0019749C0209100
:103ED0000704309108042436310564F5809101010E
:103EE00090910201820F931F8536910514F084E6AC
:103EF00090E090930804809307040E9496078091B5
:103F00000B01F8E28F9F9001112430930B049CE881
:103F1000899F9001112430930A04A8E78A9FC00169
:103F2000112490930904209107043091080484E639
:103F300090E058C081E090E090930D0480930C04D1
:103F4000C12CD12C88ECE82E82E4F82EC0924904D2
:103F5000D0924A04E0924B04F0924C0480E49FE13A
:103F600090930401809303018DC080910704909188
:103F70000804181619060CF04CC001979093080419
:103F8000809307040E94960720910704309108044B
:103F900040910B01429FC001439F900D112468E79F
:103FA00070E00E94F32480910B0490E0462F861766
:103FB00097070CF4482F40930B0480910A0490E07B
:103FC000462F861797070CF4482F40930A048091D8
:103FD000090490E0861797070CF4BC01609309046C
:103FE00088E790E0821B930B209110013091110122
:103FF000280F391F30930F0120930E0120910701E4
:1040000030910801820F931F909306018093050160
:1040100039C010920D0410920C0434C08091070432
:1040200090910804181619063CF40197909308041F
:10403000809307040E94960780912E04882311F034
:104040008FEF01C080E0E0918005F09181058083D1
:104050001182128280915D050E94F00A10920B0479
:1040600010920A0480912E04811103C01092090459
:1040700009C080E091E090930601809305018FEFE5
:104080008093090480E090E0892B09F420C90E9404
:1040900000001DC982E090E00E94FD2290E0909314
:1040A00003048093020483E090E00E94FD22809349
:1040B0000B0184E090E00E94FD2290E090931501B6
:1040C0008093140185E090E00E94FD2290E090939F
:1040D00011018093100186E090E00E94FD2290E0A3
:1040E000909308018093070187E090E00E94FD22F1
:1040F00090E08058910990930A01809309018CE027
:1041000090E00E94FD2290E090930D0180930C01BD
:104110008BE090E00E94FD2290E09093020180935A
:1041200001017BC8CF93DF931092BC041092BB04B3
:1041300088EE93E0A0E0B0E08093BD049093BE04CD
:10414000A093BF04B093C00423EB33E03093BA04D0
:104150002093B9042FEF3FEF3093C6042093C5049A
:1041600010920C0510920B0580930D0590930E058F
:10417000A0930F05B093100585EC93E090930A058A
:104180008093090510921B0510921C0510921D05C5
:1041900010921E0510921F05109220051092210505
:1041A00010922205109223051092240510922505E5
:1041B00010922605109227051092280510922905C5
:1041C00010922A058FEF80935D0510925F05109283
:1041D0005E0510926905109268054FEF5FEFBA0116
:1041E0004093640550936505609366057093670579
:1041F00024E630E030936B0520936A0580939A059E
:1042000080939B0580939C0580939D0580939E05DC
:1042100080939F0590E89093A0051092A10590933C
:10422000A2051092A3059093A4051092A5051092E3
:10423000A6051092A7058093A8051092A9051092D3
:10424000AA058093AB058093AC058093AD051092D1
:10425000AE058093AF0595EA9093B0051092B10535
:104260008093B2059093B3051092B4058093B50581
:104270001092B6051092B7058093B8051092B90553
:104280001092BA051092BB051092BC051092BD05A4
:10429000109281051092800510928E0510928D0566
:1042A00062E08FE00E94250E62E080E10E94250E10
:1042B000E7E4F1E0E491F0E0EE0FFF1FE65DFE4F72
:1042C000A591B491B0937505A0937405EAE1F1E06E
:1042D000849180937805E8E4F1E0E491F0E0EE0F5A
:1042E000FF1FE65DFE4FC591D491D0937705C09333
:1042F0007605EBE1F1E0E491E093790510927B051E
:1043000010927C0510927D0510927E05EBE3FFE193
:104310003197F1F7EC91E82381E009F480E02881FE
:1043200090917905922309F0826080937A0510922A
:104330007F05DF91CF910895CF92DF92EF92FF92A8
:104340000F931F93CF93DF931F92CDB7DEB7182F34
:10435000062FE42E862F880F8E5F99830E94891185
:1043600083E00E948911F12EC12E9981D92E8C2DC6
:104370008F19801798F4F601E7FE02C0849101C0FE
:1043800080810E948911182F80E00E948911812369
:10439000FFEFCF1ADF0A8111EACF01C081E00F9051
:1043A000DF91CF911F910F91FF90EF90DF90CF9011
:1043B00008950E941B2208F481E00895E89409C042
:1043C00097FB3EF490958095709561957F4F8F4F48
:1043D0009F4F9923A9F0F92F96E9BB279395F6955E
:1043E000879577956795B795F111F8CFFAF4BB0FDC
:1043F00011F460FF1BC06F5F7F4F8F4F9F4F16C040
:10440000882311F096E911C0772321F09EE8872FC9
:10441000762F05C0662371F096E8862F70E060E085
:104420002AF09A95660F771F881FDAF7880F9695FE
:10443000879597F90895990F0008550FAA0BE0E8A2
:10444000FEEF16161706E807F907C0F01216130656
:10445000E407F50798F0621B730B840B950B39F496
:104460000A2661F0232B242B252B21F408950A26FC
:1044700009F4A140A6958FEF811D811D08950E942A
:1044800052220C94C3220E94B52238F00E94BC2212
:1044900020F0952311F00C94AC220C94B22211243C
:1044A0000C94F7220E94D42270F3959FC1F3950FCC
:1044B00050E0551F629FF001729FBB27F00DB11DA8
:1044C000639FAA27F00DB11DAA1F649F6627B00D38
:1044D000A11D661F829F2227B00DA11D621F739F21
:1044E000B00DA11D621F839FA00D611D221F749F2F
:1044F0003327A00D611D231F849F600D211D822F76
:10450000762F6A2F11249F5750409AF0F1F088239C
:104510004AF0EE0FFF1FBB1F661F771F881F9150C9
:104520005040A9F79E3F510580F00C94AC220C94AA
:10453000F7225F3FE4F3983ED4F38695779567952D
:10454000B795F795E7959F5FC1F7FE2B880F911DF3
:104550009695879597F9089597F99F6780E870E099
:1045600060E008959FEF80EC089500240A941616E9
:10457000170618060906089500240A941216130651
:10458000140605060895092E0394000C11F48823DF
:1045900052F0BB0F40F4BF2B11F460FF04C06F5FFB
:1045A0007F4F8F4F9F4F089557FD9058440F551FD1
:1045B00059F05F3F71F04795880F97FB991F61F0A5
:1045C0009F3F79F087950895121613061406551F1C
:1045D000F2CF4695F1DF08C0161617061806991F88
:1045E000F1CF86957105610508940895E894BB277D
:1045F00066277727CB0197F90895F999FECF92BDE9
:1046000081BDF89A992780B50895262FF999FECF94
:104610001FBA92BD81BD20BD0FB6F894FA9AF99ADF
:104620000FBE01960895DB018F939F930E94642330
:10463000BF91AF91A29F800D911DA39F900DB29F3E
:10464000900D11240895A1E21A2EAA1BBB1BFD0197
:104650000DC0AA1FBB1FEE1FFF1FA217B307E40761
:10466000F50720F0A21BB30BE40BF50B661F771FB9
:10467000881F991F1A9469F7609570958095909599
:104680009B01AC01BD01CF010895052E97FB1EF4DF
:1046900000940E945C2357FD07D00E94232307FC4F
:1046A00003D04EF40C945C235095409530952195A1
:1046B0003F4F4F4F5F4F089590958095709561954E
:1046C0007F4F8F4F9F4F08950E946F23A59F900D9E
:1046D000B49F900DA49F800D911D11240895A29F59
:1046E000B001B39FC001A39F700D811D1124911DC6
:1046F000B29F700D811D1124911D08955058BB2744
:10470000AA270E9496230C94C3220E94B52238F057
:104710000E94BC2220F039F49F3F19F426F40C9437
:10472000B2220EF4E095E7FB0C94AC22E92F0E9434
:10473000D42258F3BA17620773078407950720F04D
:1047400079F4A6F50C94F6220EF4E0950B2EBA2F10
:10475000A02D0B01B90190010C01CA01A001112487
:10476000FF27591B99F0593F50F4503E68F11A1633
:10477000F040A22F232F342F4427585FF3CF4695C4
:1047800037952795A795F0405395C9F77EF41F16E6
:10479000BA0B620B730B840BBAF09150A1F0FF0FB0
:1047A000BB1F661F771F881FC2F70EC0BA0F621F9C
:1047B000731F841F48F4879577956795B795F7958C
:1047C0009E3F08F0B0CF9395880F08F09927EE0F21
:1047D0009795879508950E94FF230C94C3220E9409
:1047E000BC2258F00E94B52240F029F45F3F29F026
:1047F0000C94AC2251110C94F7220C94B2220E941A
:10480000D42268F39923B1F3552391F3951B550BEB
:10481000BB27AA2762177307840738F09F5F5F4F93
:10482000220F331F441FAA1FA9F335D00E2E3AF0D2
:10483000E0E832D091505040E695001CCAF72BD0EA
:10484000FE2F29D0660F771F881FBB1F261737073B
:104850004807AB07B0E809F0BB0B802DBF01FF276D
:1048600093585F4F3AF09E3F510578F00C94AC227C
:104870000C94F7225F3FE4F3983ED4F38695779546
:104880006795B795F7959F5FC9F7880F911D969526
:10489000879597F90895E1E0660F771F881FBB1F82
:1048A000621773078407BA0720F0621B730B840B2F
:1048B000BA0BEE1F88F7E09508950E94642468946F
:1048C000B1110C94F72208950E94DC2288F09F57C2
:1048D00098F0B92F9927B751B0F0E1F0660F771F24
:1048E000881F991F1AF0BA95C9F714C0B13091F01A
:1048F0000E94F622B1E008950C94F622672F782FDB
:104900008827B85F39F0B93FCCF3869577956795DE
:10491000B395D9F73EF490958095709561957F4F4A
:104920008F4F9F4F08950E941B2208F48FEF089528
:1049300019F416F40C94B2220C94DE240E94DC22AA
:10494000B8F39923C9F3B6F39F57550B87FF0E941D
:10495000EC240024A0E640EA9001805856959795F3
:1049600028F4805C660F771F881F20F02617370712
:10497000480730F4621B730B840B202931294A2B22
:10498000A69517940794202531254A2758F7660FD6
:10499000771F881F20F026173707480730F4620B6F
:1049A000730B840B200D311D411DA09581F7B901BA
:1049B000842F9158880F9695879508959F3F31F0E1
:1049C000915020F4879577956795B795880F911D3D
:1049D0009695879597F9089591505040660F771FE7
:1049E000881FD2F7089597FB072E16F4009407D07E
:1049F00077FD09D00E94142507FC05D03EF4909560
:104A000081959F4F0895709561957F4F0895EE0FA2
:104A1000FF1F0590F491E02D09940E946F23B7FFCA
:104A20000895821B930B0895AA1BBB1B51E107C07D
:104A3000AA1FBB1FA617B70710F0A61BB70B881F2E
:104A4000991F5A95A9F780959095BC01CD010895BD
:104A5000CF93DF938230910510F482E090E0E091F3
:104A60004F06F091500620E030E0C0E0D0E03097F3
:104A700011F14081518148175907C0F04817590773
:104A800061F482819381209719F09B838A832BC0E4
:104A90009093500680934F0626C02115310519F0DA
:104AA0004217530718F49A01BE01DF01EF0102809B
:104AB000F381E02DDCCF2115310509F1281B390BDD
:104AC0002430310590F412968D919C9113976115C5
:104AD000710521F0FB019383828304C090935006FB
:104AE00080934F06FD01329644C0FD01E20FF31F93
:104AF00081939193225031092D933C933AC0209198
:104B00004D0630914E06232B41F42091090330913C
:104B10000A0330934E0620934D06209107033091EF
:104B200008032115310541F42DB73EB740910B0321
:104B300050910C03241B350BE0914D06F0914E066D
:104B4000E217F307A0F42E1B3F0B2817390778F064
:104B5000AC014E5F5F4F2417350748F04E0F5F1FC3
:104B600050934E0640934D068193919302C0E0E02E
:104B7000F0E0CF01DF91CF9108950F931F93CF9372
:104B8000DF93009709F48CC0FC01329713821282E4
:104B900000914F06109150060115110581F42081F6
:104BA0003181820F931F20914D0630914E062817B8
:104BB000390779F5F0934E06E0934D0671C0D801A0
:104BC00040E050E0AE17BF0750F412962D913C9193
:104BD0001397AD012115310509F1D901F3CF9D01DD
:104BE000DA013383228360817181860F971F8217D8
:104BF000930769F4EC0128813981260F371F2E5F56
:104C00003F4F318320838A819B8193838283452B0D
:104C100029F4F0935006E0934F0642C01396FC939C
:104C2000EE931297ED01499159919E01240F351F82
:104C3000E217F30771F480819181840F951F02962A
:104C400011969C938E938281938113969C938E935D
:104C50001297E0E0F0E0D80112968D919C911397A5
:104C6000009719F0F8018C01F6CF8D919C91980175
:104C70002E5F3F4F820F931F20914D0630914E06BD
:104C80002817390769F4309729F4109250061092CA
:104C90004F0602C01382128210934E0600934D06F7
:104CA000DF91CF911F910F91089581E090E0F894EA
:084CB0000C945A26F894FFCF82
:104CB800010200401F340034002800F08000320058
:104CC80032002F002F00CDCCD4417A736E625D5F25
:104CD80063707B85939EABB4C1C9CCCAC0B9B3AC71
:104CE800AAA3A0A19891877665534537342E22252B
:104CF800282F3C485360747C8A9599A4A29F9A9562
:104D0800908B8D8D8F9093969797928B8678645A17
:104D18004E484A4D555D6F8597ABBAC7CACAC9BCDC
:104D2800B6AEA29E9E9D979289786A5549413736BC
:104D380034333D45506172828F999CA2A198908826
:104D48007F7677767B8782817C7A87919C998D7F25
:104D58007365564C494B53606F7C8B98A4B0BAC6A8
:104D6800CAC0AF93715238261E1D2632455C73891E
:104D780098A2A9ADA89E928378726C6B7179828D86
:104D880096989492939499A0A7A8A5A39F98928F78
:104D980088837A6C5E504743445061718397A6B507
:104DA800C1CCD1C8BAA07E5E412C1D171B24344A41
:104DB80063798C9AA1A7A59C9081766E68666A72C1
:104DC8007A838B8D898687888E99A1A6A6A6A39CAF
:104DD8009899969182827565554B5E747C71575887
:104DE80089AEB3C8D4BD834B34426D9FD6F7F5D690
:104DF800B5A89B8B775731191B293C6499BEBA9F7C
:104E080087766B66676E7E959E8E755C575D5F6371
:104E180062615B56575664829FB8CFE0E2D9C39D62
:104E2800847D7A7A7B8590988E72615C6A81949D84
:104E38009F947A5E483D383E4A5D748085827C77CF
:104E480073767D96B4C5C5BEB5A693826E5A56597B
:104E58005C6066696D6F696C788893A1A7A4A09D52
:104E68009E9E998D837D736D747F80786A574537D0
:104E78003647647A8B938E8B8E99A8B5BEC5C7BC0E
:104E8800A8988E8B877F797F80807E72685E595C58
:104E98005C646F7D80766B6269747F8A9295908678
:104EA8007B6F0D6F0D6F0D6F0D6F0DFFFFFFFF0017
:104EB800E100000000000000005106800000000032
:104EC80000B60DB60DB60D3B0437043404000000DF
:104ED800007003B30322013B0437041F012401B40B
:104EE80000C800D200DC00B400C000F000D2001EF0
:104EF800001E002300280028002D00F6FF1E0034A5
:104F080000330036003C003400390032002F0032F4
:104F180000320037003C003200320032002F002FF0
:104F28000030002F0032002F00320031002D000326
:104F3800000200020003000200030002000100FF5B
:104F480000FF00FF002000FF00FF00FF00FF0090AF
:104F580000600040009000A000C000200000000099
:104F6800000000340DC00E700D4A0D550D740D92E1
:104F78000D00000000B1157415DB1548156C1558A7
:104F880015491500C18081000000564D4450565FF8
:104F9800317C315F564D4450560D0A00564D4450F1
:104FA800455F003A323A007C005F564D4450450058
:00000001FF
