:100000000C94F4000C941D0C0C94F60B0C941C0135
:100010000C941C010C941C010C941C010C941C01EC
:100020000C941C010C941C010C941C010C944306B0
:100030000C941C010C941C010C941C010C941C01CC
:100040000C94AC0B0C941C010C947A0A0C94540A7A
:100050000C941C010C941C010C941C010C941C01AC
:100060000C94440C0C941C01EC0741085308AF0895
:10007000C408CF08E308EE08F90804090F0900FFD7
:100080001A1A80CC0000FFB3000097A0895B5A0FBA
:10009000830DC95F6035C2E907E18C24671E458E78
:1000A000086325F0150A17BE0694F778EA4B001A84
:1000B000C53E5EFCDBCB75230B2039B12158ED9595
:1000C0003857AE147D88ABA844AF4AA547868B301D
:1000D0001BA64D929EE7536FE57A3CD385E6DC691B
:1000E0005C29372EF528F4668F3641193FA101D8D7
:1000F0005049D14C84BBD05912A9C8C4878274BC62
:100100009F56A4646DC6ADBA034034D9E2FA7C7B35
:1001100005CA2693767EFF5255D4CFCE3BE32F10EF
:100120003A11B6BD1C2ADFB7AAD577F898022C9AE7
:10013000A346DD99659BA72BAC09811627FD1362A9
:100140006C6E4F71E0E8B2B97068DAF661E4FB22D8
:10015000F2C1EED2900CBFB3A2F1513391EBF90E84
:10016000EF6B31C0D61FB5C76A9DB854CCB0737958
:10017000322D7F0496FE8AECCD5DDE72431D184859
:10018000F38D80C34E42D73D9CB4970000000024FD
:100190000027002A0000000000250028002B000096
:1001A0000000080002010000030407000000000036
:1001B0000000000102040810204080010204081021
:1001C000200102040810200000000023002600295E
:1001D00000040404040404040402020202020203F0
:1001E000030303030300DD1C11241FBECFEFD8E07F
:1001F000DEBFCDBF14E0A0E0B1E0EAEEF5E402C05E
:1002000005900D92AC30B107D9F726E0ACE0B4E030
:1002100001C01D92A43BB207E1F710E0C4EFD0E0AB
:1002200004C02197FE010E94A021C33FD107C9F756
:100230000E9443100C94F3220C94000080E991E09A
:100240000895239A08953F924F925F926F927F9202
:100250008F929F92AF92BF92CF92DF92EF92FF92D6
:100260000F931F93CF93DF9300D000D000D0CDB772
:10027000DEB79E838D83DC0117963C901797199605
:10028000CC9019971B96DC9080911204823009F073
:100290007BC0A0900E04B0900F040BE816E0A3E022
:1002A000B0E020E030E062E070E0E12CF12CED8184
:1002B000FE8180819181AB014557594F3A01EA1483
:1002C000FB04D9F4820F931FF8019080FC01908207
:1002D00041505109FA015081FC015183F3014081E1
:1002E000FC014283ED81FE8180819181FC01EA0F56
:1002F000FB1F9082518342832AC0FA01408150E063
:10030000689413F8559547951694E1F73197E08175
:10031000F0E03F0154E0759467945A95E1F7820F3D
:10032000931FF8018080912CE4E095948794EA95DE
:10033000E1F7FC01808261824283ED81FE81808150
:100340009181FC01EA0FFB1F108211821282C90108
:100350000696ED81FE8140815181FA01E80FF91F77
:10036000108211821282FFEFEF1AFF0A6D5F7F4F3A
:10037000275F3F4F0D5F1F4F19966632710509F0D9
:1003800096CF04E210E002C000E010E08091130478
:1003900090911404A0911504B091160489839A8356
:1003A000AB83BC837801EE0CFF1CE00EF11E23E64C
:1003B00030E0D8010E94A6212B013C01812C912C18
:1003C0005401AD81BE8112962D913C911397021775
:1003D0001307BCF521503109032E000C440B550BBB
:1003E000C501B401640D751D861D971D0E94D11FA6
:1003F000CA01B9016F5F7F4F8F4F9F4F0E946C1EE4
:1004000029813A814B815C810E94651EAD81BE814C
:100410002D913C91F901EE0DFF1D87FF04C0D082A4
:10042000C182328203C01082118212820F5F1F4F7D
:10043000B3E0EB0EF11CE3E68E0E911CA11CB11C87
:10044000C0CF26960FB6F894DEBF0FBECDBFDF91AA
:10045000CF911F910F91FF90EF90DF90CF90BF90C1
:10046000AF909F908F907F906F905F904F903F9054
:1004700008951816190624F490935606809355068D
:100480001616170624F47093580660935706141630
:10049000150624F450935A06409359068EE496E0CC
:1004A0000C942301FF920F931F93CF93DF93DC01F2
:1004B000ED91FC91AF2F31E03F0F321301C030E0DE
:1004C000EF01DD278B010A0F111DD801FC90DB0124
:1004D000A30FB11D3C913C9F80013D9F100D112445
:1004E000A0E0B1E0AC1BBD0BFA9EB001FB9E700D0D
:1004F0001124600F711F4E0F5F1F30E0322F222733
:100500004217530710F0421B530BDC014D935C93D1
:10051000872FDF91CF911F910F91FF90089580E079
:1005200090E00895FC01858596850895CF93DF932B
:1005300000D000D000D0CDB7DEB7AB011C821D8249
:100540001E82DC01ED91FC910190F081E02D198279
:100550001A821B829E012F5F3F4FBE016C5F7F4F4F
:10056000099526960FB6F894DEBF0FBECDBFDF917A
:10057000CF9108954F925F926F927F928F92AF9238
:10058000BF92CF92EF92FF920F931F93CF93DF937F
:100590003C01EB010E94410BF30127853089621B6E
:1005A000730B6A307105B0F3F894E881F98155B1A5
:1005B000586085B1877F85B96A859F81262F291B61
:1005C000922F2F83BF844A805B807D85FC84EE84DC
:1005D0007F5FF394E3943E814885A984CB841181A5
:1005E000D20120E0C32F022F322F318111278894AE
:1005F0003111390F08F43FEF9195889470FD130F76
:100600001795889471FD130F1795889472FD130F39
:100610001795889473FD130F1795889474FD130F25
:100620001795889475FD130F1795889476FD130F11
:100630001795889477FD130F17958894232F7111C0
:10064000212F960F122F002C55B900C017FF85B926
:1006500030812227889400C000C0002C85B9311158
:100660003C0F00C0002C55B900C016FF85B908F436
:100670003FEFC195889400C000C0002C85B9F0FC04
:10068000230F00C0002C55B900C015FF85B9279570
:100690008894F1FC230F00C000C0002C85B9279579
:1006A000889400C0002C55B900C014FF85B9F2FC35
:1006B000230F2795889400C000C0002C85B9F3FC57
:1006C000230F00C0002C55B900C013FF85B9279532
:1006D0008894F4FC230F00C000C0002C85B9279536
:1006E000889400C0002C55B900C012FF85B9F5FCF4
:1006F000230F2795889400C000C0002C85B9F6FC14
:10070000230F00C0002C55B900C011FF85B92795F3
:100710008894F7FC230F00C000C0002C85B92795F2
:10072000889400C0002C55B900C010FF85B9132F64
:10073000F110122FCA0D00C000C0002C85B900C0F6
:1007400000C0002C55B900C017FF85B9328122279F
:10075000889400C000C0002C85B93111340F00C04E
:10076000002C55B900C016FF85B908F43FEFEB0D1A
:10077000F11D00C000C0002C85B9E0FC230F00C0B3
:10078000002C55B900C015FF85B927958894E1FC68
:10079000230F00C000C0002C85B92795889400C0A5
:1007A000002C55B900C014FF85B9E2FC230F279532
:1007B000889400C000C0002C85B9E3FC230F00C062
:1007C000002C55B900C013FF85B927958894E4FC27
:1007D000230F00C000C0002C85B92795889400C065
:1007E000002C55B900C012FF85B9E5FC230F2795F1
:1007F000889400C000C0002C85B9E6FC230F00C01F
:10080000002C55B900C011FF85B927958894E7FCE5
:10081000230F00C000C0002C85B92795889400C024
:10082000002C55B900C010FF85B9132FE110122F0D
:10083000419500C000C0002C85B94C0D00C000C01F
:1008400055B900C017FF85B931812227889400C0AF
:1008500000C0002C85B93111390F00C0002C55B9EA
:1008600000C016FF85B908F43FEF9195889400C049
:1008700000C0002C85B970FD230F00C0002C55B9B5
:1008800000C015FF85B92795889471FD230F00C01E
:1008900000C0002C85B92795889400C0002C55B95C
:1008A00000C014FF85B972FD230F2795889400C0FE
:1008B00000C0002C85B973FD230F00C0002C55B972
:1008C00000C013FF85B92795889474FD230F00C0DD
:1008D00000C0002C85B92795889400C0002C55B91C
:1008E00000C012FF85B975FD230F2795889400C0BD
:1008F00000C0002C85B976FD230F00C0002C55B92F
:1009000000C011FF85B92795889477FD230F00C09B
:1009100000C0002C85B92795889400C0002C55B9DB
:1009200000C010FF85B9132F7111122F960F00C050
:1009300000C0002C85B9119709F086CE20EE31E079
:10094000D2010E94A621DC01CB01F4E0B695A79567
:1009500097958795FA95D1F720E030E0A9016AE9EB
:10096000469E040C411D569E400D511D1124450DFF
:10097000511D840F951FA11DB11D893E43E09407B1
:10098000A105B10508F434C0885E9340A109B109FE
:1009900042E0B695A795979587954A95D1F747E098
:1009A000849F080E211D949F200D311D1124290FB5
:1009B000311D6091820470E0860F971F820F931F94
:1009C0004091C4045091C5046091C6047091C7045D
:1009D000292F3327420F531F611D711D4093C404FB
:1009E0005093C5046093C6047093C7048093820437
:1009F00078940E94410BF301708B6787DF91CF9150
:100A00001F910F91FF90EF90CF90BF90AF908F907C
:100A10007F906F905F904F9008950F931F93CF93A7
:100A2000DF93CDB7DEB762970FB6F894DEBF0FBE87
:100A3000CDBF8C01F901DC011C968C917A8369830E
:100A40005C834B835E834D8390819D8791819E87DC
:100A500092819F87813029F4CE0101960E94F60F82
:100A600006C01C861B861A86198618861F8283E09C
:100A7000888B1A8A198AD801ED91FC910484F58536
:100A8000E02DBE016F5F7F4FC801099562960FB6DA
:100A9000F894DEBF0FBECDBFDF91CF911F910F91B4
:100AA00008950F931F93CF93DF93CDB7DEB762976F
:100AB0000FB6F894DEBF0FBECDBF8C01F901DC018B
:100AC0001C968C917A8369835C834B835E834D8310
:100AD00090819D8791819E8792819F87813029F4A3
:100AE000CE0101960E94F60F06C01C861B861A8650
:100AF000198618861F82188A1A8A198AD801ED91D8
:100B0000FC910484F585E02DBE016F5F7F4FC80125
:100B1000099562960FB6F894DEBF0FBECDBFDF9188
:100B2000CF911F910F910895DC01ED91FD9180818E
:100B3000ED91FD919081ED91FD916C9163708E230B
:100B400009F064609F2309F06860E1EBF5E0E60FCF
:100B5000F11D659565956D936D917D918D919D913B
:100B6000099423C01AC012C016C010C01EC009C00C
:100B700014C013C006C019C009C00DC007C00DC005
:100B800014C062507040804090400BC06150704073
:100B90008040904006C06E5F01C06F5F7F4F8F4FF7
:100BA0009F4F9E938E937E936E93089580914006FF
:100BB000909141060C94940580913E0690913F06D9
:100BC0000C9494058091170490911804019709F0F2
:100BD00048C083E090E090931804809317046091DC
:100BE0000E0482E090E00E94700E60910F0183E09D
:100BF00090E00E94700E6091180184E090E00E94E5
:100C0000700E6091140185E090E00E94700E60917A
:100C10000B0186E090E00E94700E60910D0187E06C
:100C200090E00E94700E609110018CE090E00E94B4
:100C3000700E609103017091040180910501909103
:100C400006010E94F8208BE090E00E94700E6AE29C
:100C500080E090E00E94700E60E081E090E00C94F3
:100C6000700E08958091170490911804892B31F427
:100C700082E090E0909318048093170408958EE426
:100C800096E00C9423011F920F920FB60F9211243D
:100C90002F933F934F935F936F937F938F939F9384
:100CA000AF93BF93EF93FF934091160150911701BB
:100CB0002DEC68E272E08EE794E00E9452024091CF
:100CC00012015091130125E863EA71E08CE794E08A
:100CD0000E9452024091090150910A0125E86EE1FB
:100CE00071E08AE794E00E945202FF91EF91BF9178
:100CF000AF919F918F917F916F915F914F913F91B4
:100D00002F910F900FBE0F901F901895CF92DF92EA
:100D1000EF92FF92CF93DF93EC01688179818A8112
:100D20009B819B01AC010E94CB1E20E030E0A90119
:100D30000E9413206B017C016C817D818E819F81DB
:100D40009B01AC010E94CB1E9B01AC01C701B60107
:100D50000E9413206B017C01688579858A859B85BB
:100D60009B01AC010E94CB1E9B01AC01C701B601E7
:100D70000E941320DF91CF91FF90EF90DF90CF90F2
:100D80000C943221AF92BF92CF92DF92EF92FF92FA
:100D90000F931F93CF93DF9300D000D000D0CDB737
:100DA000DEB78B01EE24E394E0921A0578E6F72E85
:100DB000F0923C0510921B0510923D05682F8BEDBB
:100DC00095E00E94C90F0E948A0EE0921A05F092E7
:100DD0003C0510921B0510923D058091190581116B
:100DE000FCCF81E080931905809318059FEF9093C5
:100DF00017051092160595E0909315058093F4045D
:100E00008091F404806D8093F4048091F304813028
:100E100041F41092F3048091F4048093BB0085ECBC
:100E200001C085EE8093BC00809119058130E1F30B
:100E300080911605863018F4F090160502C066E021
:100E4000F62EA5EFB4E023E834E0F9018E2F821BE3
:100E50008F1518F48D918193F9CF10920D04F092B3
:100E60000C0486E08F1580F0FE0131965F016F0162
:100E70008C2D8A198F1588F48BED95E00E94360A27
:100E8000F60181936F01F4CF56E0E52E8BED95E0EE
:100E90000E94360AEA94E110F9CF0E948A0EF6E029
:100EA000FF1611F080E01AC0898190E0982F882702
:100EB0002A81822BF801918380838B8190E0982F87
:100EC00088272C81822B938382838D8190E0982FB9
:100ED00088272E81822B9583848381E026960FB606
:100EE000F894DEBF0FBECDBFDF91CF911F910F9160
:100EF000FF90EF90DF90CF90BF90AF9008951616BF
:100F000017063CF4281B390B621773077CF49B010E
:100F10000DC06115710541F0481B590B9B01641709
:100F2000750724F49A0102C020E030E0820F931F7D
:100F30000895CF93DF9380914D06823030F4F8947A
:100F400082E496E00E94940501C0F89480914906DD
:100F500090914A06A0914B06B0914C0678949C0162
:100F600097FF02C02D5F3F4F359527953595279503
:100F70002115310509F481C16CEF6203A001639F63
:100F8000500D1124F894840F951F092E000CAA0B04
:100F9000BB0B8093490690934A06A0934B06B093EF
:100FA0004C067894CC27DD27C21BD30B809112040A
:100FB000813009F444C120F0823009F443C159C1A1
:100FC000E0910E04F0910F04EB30F10508F051C1EF
:100FD000EC5CFF4F0C94A02160910301709104011F
:100FE00080910501909106010E94F120DC01CB0166
:100FF00028E030E041E050E0BE010E947F07BC01E4
:10100000990F880B990B0E946C1E609303017093DB
:1010100004018093050190930601209117043091FB
:10102000180422303105D9F03CF42115310559F06E
:101030002130310579F01DC12330310521F02430F4
:101040003105C1F016C11C161D060CF012C10E941C
:1010500032060FC1D7FF0DC10E94E2050AC1D7FFBA
:1010600008C120E030E040E85FE30E94651E811186
:1010700000C1F2CFD7FFFDC01092180410921704E0
:10108000F8C0BE0134E0660F771F3A95E1F7809112
:101090000F012FEF30E040E050E090E00E947F072A
:1010A00080930F01E6C027E030E040E050E0BE0151
:1010B00080918004909181040E947F079093810425
:1010C00080938004EC01CC0FDD1FFE01E356FC4F42
:1010D00040815181FE01E357FC4F608171818FEFA8
:1010E0009FEF0E943902FE01E358FC4F608171813D
:1010F000072E000C880B990B0E946C1E6093030155
:10110000709304018093050190930601FE01E35959
:10111000FC4F808191819093190180931801FE0109
:10112000E35AFC4F808191819093150180931401C3
:10113000FE01E35BFC4F8081918190930C018093D1
:101140000B01FE01E35CFC4F8081918190930E01C5
:1011500080930D01C35DDC4F888199816BC0BE0116
:1011600093E0660F771F9A95E1F72FEF30E047E0A5
:1011700050E080915506909156060E947F074FEFF0
:101180005FEF6FEF7FEF73C08091590690915A0621
:10119000480F591F50935A064093590664C0BE0128
:1011A00083E0660F771F8A95E1F72FEF30E040E08C
:1011B00050E080915706909158060E947F074FEFAC
:1011C0005FEFBC0152C08091180190911901821B00
:1011D000930B90931901809318014BC080911401D7
:1011E00090911501821B930B90931501809314012C
:1011F00040C080910B0190910C01821B930B909346
:101200000C0180930B0135C080910D0190910E016E
:10121000821B930B90930E0180930D012AC02FEF38
:1012200030E040E050E0BE0180911001909111014A
:101230000E947F0790931101809310011AC082E0F1
:10124000809312042BE030E040E050E0BE0180913A
:101250000E0490910F040E947F0790930F048093D7
:101260000E044FEF5FEF6FEF7FEF8FEF9FEF0E9466
:1012700039021092110410921004DF91CF91089559
:10128000FC01538D448D252F30E0842F90E0821B8C
:10129000930B541710F0CF96089501970895FC0111
:1012A000918D828D981761F0828DDF01A80FB11D9D
:1012B0005D968C91928D9F5F9F73928F90E00895C1
:1012C0008FEF9FEF0895FC01918D828D981731F07B
:1012D000828DE80FF11D858D90E008958FEF9FEFCF
:1012E0000895FC01918D228D892F90E0805C9F4FA5
:1012F000821B91098F73992708958EE395E00E94D0
:10130000710921E0892B09F420E0822F0895FC0166
:10131000848DDF01A80FB11DA35ABF4F2C91848D7E
:1013200090E001968F739927848FA689B7892C93B3
:10133000A089B1898C9180648C93938D848D98134E
:1013400006C00288F389E02D80818F7D8083089517
:10135000EF92FF920F931F93CF93DF93EC0181E005
:10136000888F9B8D8C8D981305C0E889F9898081C1
:1013700085FD24C0F62E0B8D10E00F5F1F4F0F73FD
:101380001127E02E8C8DE8120CC00FB607FCFACFA7
:10139000E889F989808185FFF5CFCE010E94870910
:1013A000F1CF8B8DFE01E80FF11DE35AFF4FF08264
:1013B0000B8FEA89FB898081806207C0EE89FF89F3
:1013C0006083E889F98980818064808381E090E08E
:1013D000DF91CF911F910F91FF90EF900895CF93E0
:1013E000DF93EC01888D8823C9F0EA89FB8980812D
:1013F00085FD05C0A889B9898C9186FD0FC00FB6FF
:1014000007FCF5CF808185FFF2CFA889B9898C913F
:1014100085FFEDCFCE010E948709E7CFDF91CF9105
:10142000089580E090E0892B29F00E947D098111C8
:101430000C9400000895089585ED8093BC00809180
:10144000BC0084FDFCCF1092190508950895E09129
:101450000D0480910C04E81730F4F0E0ED57FB4FD9
:10146000808190E008958FEF9FEF089590910D0493
:1014700080910C04981750F4E92FF0E0ED57FB4FE2
:10148000208130E09F5F90930D0402C02FEF3FEF6B
:10149000C901089580910C0490E020910D04821BF5
:1014A000910908950E94EE221F920F920FB60F929B
:1014B00011242F933F934F935F936F937F938F9359
:1014C0009F93AF93BF93EF93FF938EE395E00E94BA
:1014D0008709FF91EF91BF91AF919F918F917F917C
:1014E0006F915F914F913F912F910F900FBE0F9091
:1014F0001F9018951F920F920FB60F9211242F93E1
:101500008F939F93EF93FF93E0914E05F0914F05DA
:101510008081E0915405F091550582FD12C09081C3
:10152000809157058F5F8F7320915805821751F076
:10153000E0915705F0E0E25CFA4F958F80935705F4
:1015400001C08081FF91EF919F918F912F910F901A
:101550000FBE0F901F901895833081F028F48130D2
:1015600099F08230A1F008958730A9F08830B9F061
:101570008430D1F4809180008F7D03C08091800001
:101580008F7780938000089584B58F7702C084B5EB
:101590008F7D84BD08958091B0008F7703C08091C6
:1015A000B0008F7D8093B00008951F93CF93DF9399
:1015B000282F30E0F901E156FE4F8491F901ED54F6
:1015C000FE4FD491F901EF52FE4FC491CC23C9F0E4
:1015D000162F81110E94AC0AEC2FF0E0EE0FFF1FD6
:1015E000EB56FE4FA591B4918FB7F894111105C039
:1015F0009C91ED2FE095E92302C0EC91ED2BEC934B
:101600008FBFDF91CF911F910895CF93DF9390E02B
:10161000FC01ED54FE4F2491FC01EF52FE4F8491EA
:10162000882361F190E0880F991FFC01E557FE4F78
:10163000C591D491FC01EB56FE4FA591B491611177
:1016400009C09FB7F8948881209582238883EC9104
:101650002E230BC0623061F49FB7F8943881822F3B
:10166000809583238883EC912E2B2C939FBF06C0FB
:101670008FB7F894E8812E2B28838FBFDF91CF910D
:1016800008953FB7F8948091EF049091F004A091F1
:10169000F104B091F20426B5A89B05C02F3F19F0C4
:1016A0000196A11DB11D3FBFBA2FA92F982F8827E2
:1016B000820F911DA11DB11DBC01CD0142E0660F3D
:1016C000771F881F991F4A95D1F708958F929F928F
:1016D000AF92BF92CF92DF92EF92FF926B017C01AB
:1016E0000E94410B4B015C01C114D104E104F104DF
:1016F000F1F00E94410BDC01CB0188199909AA097C
:10170000BB09883E9340A105B10570F321E0C21AE0
:10171000D108E108F10888EE880E83E0981EA11C2C
:10172000B11CC114D104E104F10419F7DDCFFF901D
:10173000EF90DF90CF90BF90AF909F908F900895E3
:101740002FB7F8946091C4047091C5048091C604C9
:101750009091C7042FBF08951F920F920FB60F925A
:1017600011242F933F938F939F93AF93BF938091B7
:10177000C4049091C504A091C604B091C7043091EF
:10178000EE0423E0230F2D3720F40196A11DB11D97
:1017900005C026E8230F0296A11DB11D2093EE047B
:1017A0008093C4049093C504A093C604B093C70467
:1017B0008091EF049091F004A091F104B091F204B3
:1017C0000196A11DB11D8093EF049093F004A093A6
:1017D000F104B093F204BF91AF919F918F913F912B
:1017E0002F910F900FBE0F901F9018951F920F9280
:1017F0000FB60F9211242F933F934F935F936F93E4
:101800007F938F939F93AF93BF93EF93FF93E09159
:10181000F702F091F8020995FF91EF91BF91AF9116
:101820009F918F917F916F915F914F913F912F91F8
:101830000F900FBE0F901F9018951F920F920FB62A
:101840000F9211242F933F934F935F936F937F9346
:101850008F939F93AF93BF93EF93FF93E091F50224
:10186000F091F6020995FF91EF91BF91AF919F9191
:101870008F917F916F915F914F913F912F910F9039
:101880000FBE0F901F9018951F920F920FB60F92D8
:1018900011242F933F934F935F936F937F938F9375
:1018A0009F93AF93BF93EF93FF938091B900887F8D
:1018B000803609F49CC068F5883209F45BC090F466
:1018C000803109F454C038F4882309F4F3C0883017
:1018D00009F44DC0F3C0883109F44CC0803209F4DA
:1018E0005DC0ECC0803409F468C048F4803309F46A
:1018F00055C0883309F0E2C080931705D5C0803504
:1019000009F44FC0883509F45DC0883409F0D6C0A9
:10191000D3C0883909F4C4C0A8F4883709F467C073
:1019200038F4883609F463C0803709F460C0C6C053
:10193000883809F4B5C0803909F45FC0803809F0EF
:10194000BDC05BC0803B09F483C038F4803A09F421
:1019500066C0883A09F47CC0B1C0803C09F4A4C0D8
:10196000883C09F4A1C0883B09F487C0A7C08091D6
:10197000F40410C09091160580911505981770F524
:10198000E091160581E08E0F80931605F0E0EB5094
:10199000FB4F80818093BB0085EC83C0809317054B
:1019A0008BC0E091160581E08E0F80931605809123
:1019B000BB00F0E0EB50FB4F8083909116058091C7
:1019C00015056BC0E091160581E08E0F809316051A
:1019D0008091BB00F0E0EB50FB4F808380911805B5
:1019E00081116AC081E08093F30484EA5EC083E0E1
:1019F000809319051092ED04CFCF8091ED048032D1
:101A000008F04EC0E091ED0481E08E0F8093ED046C
:101A10008091BB00F0E0E353FB4F8083BDCF80910A
:101A2000ED04803230F4E091ED04F0E0E353FB4F3D
:101A300010820E941C0A6091ED0470E0E091CB04DA
:101A4000F091CC048DEC94E009951092ED042CC03B
:101A500084E0809319051092CA041092C304E091A7
:101A6000C804F091C90409958091C304811105C08F
:101A700081E08093C3041092A304E091CA0481E042
:101A80008E0F8093CA04F0E0ED55FB4F8081809368
:101A9000BB009091CA048091C304981708F47CCFCE
:101AA00085E88093BC000AC085EC8093BC0010924E
:101AB000190504C0109217050E941C0AFF91EF91AE
:101AC000BF91AF919F918F917F916F915F914F9156
:101AD0003F912F910F900FBE0F901F901895CF92AE
:101AE000DF92EF92FF920F931F93CF93DF936C01DE
:101AF0007A018B01C0E0D0E0CE15DF0589F0D80176
:101B00006D918D01D601ED91FC910190F081E02D58
:101B1000C6010995892B11F47E0102C02196ECCFF4
:101B2000C701DF91CF911F910F91FF90EF90DF9050
:101B3000CF900895EEE3F5E0A089B18982E08C931F
:101B4000A485B5851C92A685B7858FEC8C93108EE5
:101B5000A489B58986E08C93A289B3898C91806130
:101B60008C93A289B3898C9188608C93A289B38964
:101B70008C9180688C930288F389E02D80818F7D21
:101B80008083089520E330E0FB01DC0120FF05C0E5
:101B900002C001900D9201900D922250D0F730407A
:101BA000C0F708957F928F929F92AF92BF92CF928B
:101BB000DF92EF92FF920F931F93CF93DF93FC017D
:101BC000EB017A01D90148175907C8F42C911196F5
:101BD0009C91119712968C91129738813C93398180
:101BE00011963C9311973A8112963C931297288351
:101BF00099838A839E2F8F2FFA01E92EF82EC880B1
:101C0000D12C8C9190E08C199D099695982F88275E
:101C100097958795098110E01196AC901197B12C9A
:101C2000A01AB10AB694BA2CAA24B794A7942A8110
:101C300030E01296CC91D0E0C21BD30BD695DC2FAE
:101C4000CC27D795C795A7014E1B5F0B19F0742EB3
:101C5000452F03C07724739440E0672D742F0E94B2
:101C60008C214B01C501672D742F0E948C215B01D3
:101C7000CE01672D742F0E948C21880C991CAA0C10
:101C8000BB1C660F771FDC2CCC24102F0027322FB3
:101C90002227DF01AA0FBB1FAE0FBF1FA35AB94FE8
:101CA000EE16FF0678F0ED012297D8822196188370
:101CB0003C93C80CD91C0A0D1B1D260F371F3196EB
:101CC0001396EECFDF91CF911F910F91FF90EF9080
:101CD000DF90CF90BF90AF909F908F907F900895AE
:101CE0000F931F93CF93DF931F92CDB7DEB78C0175
:101CF00069830E94891F6981861729F0C8010E94A3
:101D0000911F81E001C080E00F90DF91CF911F9182
:101D10000F91089520913D0590913C05213208F0E6
:101D200046C0809119058111FCCF32E0309319052E
:101D300031E0309318053FEF3093170510921605E8
:101D400020931505ACE1B5E045EF54E0FA013E2FD4
:101D5000341B321718F43D913193F9CF1092F404EB
:101D60002091F404990F922B9093F4049091F30432
:101D7000913041F41092F3049091F4049093BB00DD
:101D800095EC01C095EE9093BC00909119059230AE
:101D9000E1F3909117059F3F79F08091170580320C
:101DA00041F080911705803331F084E005C081E077
:101DB00003C082E001C083E010921B0510923D0534
:101DC00010921A050895CF93C62F91E090931A05AB
:101DD00098E690933C0510921B0510923D05682FE4
:101DE0008BED95E00E94C90F6C2F8BED95E00E9462
:101DF000C90F0E948A0E81E0CF910895CF93DF939F
:101E0000E7EAF1E08491EBEBF1E0D491E9EDF1E068
:101E1000C491CC2391F081110E94AC0AEC2FF0E028
:101E2000EE0FFF1FE953FE4FA591B491EC91ED2306
:101E300081E090E021F480E002C080E090E0DF915A
:101E4000CF91089520E0DC0160FF03C001C02D9315
:101E50002D936250E0F77040D0F708956115710539
:101E600079F0FB0101900020E9F73197AF01461BA3
:101E7000570BDC01ED91FC910280F381E02D099478
:101E800080E090E008954F925F926F927F92EF9280
:101E9000FF920F931F93CF93DF93CDB7DEB7A19738
:101EA0000FB6F894DEBF0FBECDBF7C01FA01CB01A7
:101EB00019A2223008F42AE08E010F5D1F4F422E36
:101EC000512C612C712CBF01A30192010E94AF1F04
:101ED000F901CA01015011096A3014F4605D01C0B2
:101EE000695CD8016C93232B242B252B61F7B80157
:101EF000C7010E942E0FA1960FB6F894DEBF0FBE49
:101F0000CDBFDF91CF911F910F91FF90EF907F9008
:101F10006F905F904F900895CF92DF92EF92FF9273
:101F20000F931F93CF93DF937C018A0180911A0551
:101F3000882389F0EB016B01C40ED51ECC15DD059D
:101F4000F1F06991D701ED91FC910190F081E02DC4
:101F5000C7010995F3CF842F413288F49091190578
:101F6000943069F44093C304FB0123EA34E0D901BF
:101F70009A2F921B981718F491919D93F9CFC8014D
:101F8000DF91CF911F910F91FF90EF90DF90CF9055
:101F9000089520911A052223C9F020913D05203291
:101FA00040F021E030E0FC013383228380E090E0C8
:101FB000089580911B05E82FF0E0E45EFA4F6083FE
:101FC0008F5F80931B0580933D0509C080911905A3
:101FD000843029F481E08093C3046093A30481E0FA
:101FE00090E00895089580E090E00895EF92FF92C8
:101FF0000F931F93CF93DF93EC019091AF069F5FF8
:10200000292F27702093AF0690FF02C090E801C0EF
:1020100090E021FD9064247009F0906220E1290F86
:10202000FE013C967E018FE0E80EF11C00E011E01D
:102030006191662331F070E0C8010E948C216F5FCE
:1020400001C060E0DF0114976C93322F369F030EBE
:1020500030E0311D1124CF010797311103C0EC018D
:10206000188203C03150EC013883662311F06150AF
:102070006C93EE15FF05E1F6DF91CF911F910F9163
:10208000FF90EF900895CF93DF93CDB7DEB7C454A0
:10209000D1090FB6F894DEBF0FBECDBF789484B5DA
:1020A000826084BD84B5816084BD85B5826085BD54
:1020B00085B5816085BD80916E00816080936E00E2
:1020C00010928100809181008260809381008091D4
:1020D0008100816080938100809180008160809385
:1020E00080008091B10084608093B1008091B00045
:1020F00081608093B00080917A00846080937A0040
:1021000080917A00826080937A0080917A00816069
:1021100080937A0080917A00806880937A00109290
:10212000C10010922B0610922C0610922D061092D0
:102130002E061092E9051092EA051092EB05109216
:10214000EC050E94A00B6B017C014B015C0128EBAC
:10215000820E2BE0921EA11CB11C0E94A00B6C15DC
:102160007D058E059F0528F086169706A806B906F8
:10217000A0F78EE395E090932A06809329060E94AB
:102180009A0D0E94A00B6093E9057093EA05809375
:10219000EB059093EC0561ED73E080912906909139
:1021A0002A060E942E0F0E94A00B6B017C014B019E
:1021B0005C013AE0830E911CA11CB11C0E94A00B93
:1021C0006C157D058E059F0528F086169706A806D6
:1021D000B906A0F781E08093FD0540910001509180
:1021E000010185E098E0489F9001499F300D589F7C
:1021F000300D1124275E394C3093010120930001EA
:10220000A9E3B0E30E940320909336048093350441
:102210000E949A0D8EE190E09093510680935006B3
:102220008AE590E00E94C12190934F0680934E066C
:102230008FEF90E0909356068093550690935A0640
:102240008093590690935806809357068BE08093AD
:1022500054068EE790E000E010E0FC0145915591B6
:10226000659174910F5F1F4F04964F3FB1F7EEE7F2
:10227000F0E0C590D590E590F4909F2D5E2DAD2DAA
:1022800077247A94C12CD12C7EE7E72E70E0F72ECC
:10229000BE01625C7F4F23967FAF6EAF239774E0E1
:1022A000E70EF11CF70185909590A590B4909601EA
:1022B00064E0359527956A95E1F7822FC82CD12CDB
:1022C000482D42954F700031110580F4672D072C81
:1022D000000C770B6217730744F0BEE0B7152CF0C3
:1022E00081E0870D481708F4482F742E9EAEAFAEDC
:1022F0002196BFAE2197A9835A839B8350E09E010C
:10230000225C3F4FBE016F5F7F4F90E00E94D20D75
:10231000A92D5A2D9B2DEFEFCE16D10409F0BFCF7A
:102320000091500610915106E0904E06F0904F0635
:1023300080912C04811145C010921E0410921D043E
:102340008FEF809321048093220480932304809351
:102350002404809325048093260481E0809327043D
:1023600010922904109228041092200410921F0445
:1023700080913D0490913E04892B31F48BE194E0EF
:1023800090933E0480933D04E0911904F0911A0467
:10239000309721F08BE194E0958384838BE194E086
:1023A00090931A048093190410922B0410922A041B
:1023B00087E193E090931C0480931B0481E0809359
:1023C0002C04E0911B04F0911C040480F581E02DA5
:1023D0008BE194E00995F0921E04E0921D041093A5
:1023E000290400932804E0911B04F0911C0402844A
:1023F000F385E02D8BE194E00995009729F19C018C
:1024000040E050E060E472E48FE090E00E94D11F71
:10241000722F632F009132061091330620913406FB
:1024200030913506872F962FDA0180179107A20782
:10243000B30710F4D901C801809332069093330694
:10244000A0933406B093350689E980932F06009156
:102450003D0410913E04F801309729F01486048061
:10246000F581E02DF9CF109213041092140410920C
:102470001504109216040E943F0601151105B1F0D3
:10248000D80112968D919C911397009759F01D9643
:102490006D917C911E979B01220F331F620F731F5A
:1024A0000E94220FF80104811581E7CF10920D04DC
:1024B00010920C0410921B0510923D051092190504
:1024C00081E0809318051092F30461E082E10E949C
:1024D000D50A61E083E10E94D50A8091B9008E7F20
:1024E0008093B9008091B9008D7F8093B90088E412
:1024F0008093B80085E48093BC0060E870E08BE6D0
:1025000090E00E94E30E62E370E080E090E00E94C1
:10251000660B61E070E089E190E00E94E30E63E009
:1025200070E08BE690E00E94E30E6EE170E080E0E8
:1025300090E00E94660B68E170E08BE190E00E9401
:10254000E30E6EE170E080E090E00E94660B68EEC2
:1025500070E08CE190E00E94E30E64E170E080E0C6
:1025600090E00E94660B80E090E00E94891F8A3212
:1025700041F481E090E00E94891F882311F40C94BB
:10258000AE1B62E088E00E94050B62E08FE00E94D3
:10259000050B62E080E10E94050B61E08EE00E9485
:1025A000050B60E08EE00E94D50A61E086E00E94A3
:1025B000050B60E086E00E94D50A80914D068230CE
:1025C00030F4F89482E496E00E94940501C0F894F7
:1025D0007894F8941092490610924A0610924B068D
:1025E00010924C0678940E94FE0E809302010E9485
:1025F0003F0663EE73E08EE395E00E942E0F60EEDF
:1026000073E08EE395E00E942E0F0E9432061E01B9
:10261000FEE02F0E311C0E94A00B672B682B692B4C
:1026200041F40E94A00B623071058105910508F408
:102630001EC10E94A00B6093760470937704809370
:10264000780490937904009172041091730420919E
:10265000740430917504601771078207930740F482
:102660006093720470937304809374049093750460
:1026700000917204109173042091740430917504D8
:102680004B015C01801A910AA20AB30A95018401E8
:102690000A3F11052105310508F4E9C06093720471
:1026A000709373048093740490937504B4EFAB2E0D
:1026B000BB24B394C12CD12CA092F505B092F605A1
:1026C000C092F705D092F8051092F9051092FA051C
:1026D0001092FB051092FC058091ED059091EE059E
:1026E000A091EF05B091F0058093F1059093F2056C
:1026F000A093F305B093F4050E94A00B6093ED0541
:102700007093EE058093EF059093F0050E94A00B67
:102710006093E9057093EA058093EB059093EC05CF
:102720000E94A00B6B017C016BEE73E08091290687
:1027300090912A060E942E0F2AE041E050E060E0CE
:1027400070E08091290690912A060E94430F62EF63
:1027500073E08091290690912A060E942E0F2AE0AC
:10276000B701A6018091290690912A060E94430F85
:1027700064EF73E08091290690912A060E942E0F43
:102780008091ED059091EE05A091EF05B091F005D7
:10279000B701A601481B590B6A0B7B0B2AE08091FD
:1027A000290690912A060E94430F64EF73E08091FE
:1027B000290690912A060E942E0F4091ED05509116
:1027C000EE056091EF057091F0058091F105909113
:1027D000F205A091F305B091F405481B590B6A0B63
:1027E0007B0B2AE08091290690912A060E94430FD4
:1027F00066EF73E08091290690912A060E942E0FC1
:102800000E94A00BAB01BC012AE0809129069091A7
:102810002A060E94430F0091290610912A0668EFAC
:1028200073E0C8010E942E0F60EE73E0C8010E94A1
:102830002E0F0E94A00B4B015C016B017C0122E07A
:10284000C20ED11CE11CF11C0E94A00B6815790579
:102850008A059B0510F00C94001C0E94A00B60934D
:10286000ED057093EE058093EF059093F005809150
:1028700070049091710431E08327909371048093E8
:10288000700480FF7FC06AE674E083E40E94C206A1
:1028900060916A0470916B04262F2F7080914A0416
:1028A00090914B04880F991F822790934B0480933B
:1028B0004A04072E000C880B990B0E946C1E69833A
:1028C0007A838B839C8360916E0470916F04072ED2
:1028D000000C880B990B0E946C1E6D837E838F8386
:1028E000988719861A861B861C86CE0101960E943F
:1028F00086066B017C018090660490906704A0902E
:102900006804B09069049B01AC01C501B4010E9448
:10291000122020E030E046E953E40E947F209B0132
:10292000AC01C501B4010E9412209B01AC0160936F
:102930006604709367048093680490936904C701E8
:10294000B6010E94122020E030E048E452E40E94E8
:102950007F2020916204309163044091640450917F
:1029600065040E94132020E030E040E05FE30E9415
:10297000CB1E60936204709363048093640490930D
:102980006504E2C06CE574E08BE30E94C20600912E
:102990005C0410915D04202F2F7080914A04909167
:1029A0004B04880F991F822790934B0480934A040D
:1029B00060915E0470915F04072E000C880B990BE8
:1029C0000E946C1E2091540430915504409156048D
:1029D000509157040E9413204B015C0160916004E8
:1029E00070916104072E000C880B990B0E946C1EDD
:1029F000209158043091590440915A0450915B043D
:102A00000E9413206B017C01B801110F880B990BF8
:102A10000E946C1E20915004309151044091520448
:102A2000509153040E94132024EA30E74DE75FE3FE
:102A30000E94CB1E60935004709351048093520403
:102A40009093530424EA30E74DE75FE3C501B401F6
:102A50000E94CB1E609354047093550480935604D7
:102A60009093570424EA30E74DE75FE3C701B601CE
:102A70000E94CB1E609358047093590480935A04AB
:102A800090935B0480E594E00E94860620E030E4A9
:102A90004CE156E40E947F206B017C0180901A017A
:102AA00090901B01A0901C01B0901D019B01AC01F6
:102AB000C501B4010E94122020E030E040E251E460
:102AC0000E947F209B01AC01C501B4010E9412202D
:102AD00060931A0170931B0180931C0190931D0158
:102AE000A70196010E9412206B017C0120E030E0DA
:102AF000A9010E942721181624F0F7FAF094F7F89C
:102B0000F094C701B6010E9432216B017C0120E0E4
:102B100030E040E85FE30E94272118164CF0C09295
:102B20004C04D0924D04E0924E04F0924F040CC03D
:102B300080E090E0A0E8BFE380934C0490934D04C4
:102B4000A0934E04B0934F040E94FE0E9091020198
:102B50008917D9F1909134049F5F90933404933096
:102B600028F080930201813049F416C025964FADBC
:102B70002597413019F0423079F02AC081E08093E6
:102B8000120468EC70E0709311046093100471E01B
:102B900025967FAF259741C080911204813041F482
:102BA0008091170490911804892B11F40E94320629
:102BB000109212040E943F06109211041092100409
:102BC00082E025968FAF259728C025961FAE2597C2
:102BD000809110049091110418161906F4F40197CD
:102BE0009093110480931004892BB9F480911704F9
:102BF000909118048330910534F48130910544F4A8
:102C0000892B19F007C0039729F40E94320602C0ED
:102C10000E94E20584E0809312040E94990780914B
:102C20004A0490914B0483709927209118013091A8
:102C30001901820F931F90931701809316018091C1
:102C400014019091150190931301809312010E9439
:102C5000571E27E730E040E050E00E94D11F6F5F31
:102C60007F4F8F4F9F4F0E946C1E60936204709342
:102C7000630480936404909365040E94571E23E6C6
:102C800030E040E050E00E94D11F6F5F7F4F8F4FD8
:102C90009F4F0E946C1E20E030E048EC52E40E94FE
:102CA0007F2060934C0470934D0480934E04909366
:102CB0004F040E9499078091170490911804813065
:102CC000910571F11CF4892B49F01BC582309105E7
:102CD00009F452C3039709F483C413C5109249043D
:102CE0001092480410924704109243041092440436
:102CF000109245041092460420E030E048EC52E483
:102D00006091620470916304809164049091650401
:102D10000E94272118160CF0F4C40E943206F1C458
:102D2000E0906204F09063040091640410916504E3
:102D300020E030E0A901B701C8010E94651E87FDAF
:102D400011C020E030E04CE053E4B701C8010E941C
:102D50002721181684F4A12CB12C70EFC72EE2E4C1
:102D6000DE2E0BC03DECA32E4CECB42E5CECC52E3D
:102D70006DE3D62E02C05701680140904304509085
:102D800044046090450470904604A3019201B5018B
:102D9000C6010E94272118165CF4C501D601809354
:102DA000430490934404A0934504B093460436C072
:102DB0006091100170911101072E000C880B990B86
:102DC0000E946C1E20E030E040E256E40E947F202A
:102DD0002AE939E949E75FE30E9413209B01AC012E
:102DE000C301B2010E94CB1E60934304709344045C
:102DF00080934504909346042DEC3CEC4CEC5FE34F
:102E00000E947F203B014C019B01AC01B501C60132
:102E10000E942721181614F05301640120E030E0CD
:102E200040E85BE3B501C6010E94CB1E4B015C018B
:102E3000C0900F012496CFAE24976C2D70E080E0F7
:102E400090E00E946C1E9B01AC01C501B4010E9480
:102E5000CB1E4B015C01C0904704D12CB6010D2C58
:102E6000000C880B990B0E946C1E2B013C019B01EE
:102E7000AC01C501B4010E94272118165CF0A30122
:102E80009201C501B4010E94651E87FF06C068EF6C
:102E90007FEF05C060E170E002C060E070E02FEFFE
:102EA00030E040E050E0C6010E947F076C01809353
:102EB000470460910D0170910E01072E000C880BE4
:102EC000990B0E946C1E9B01AC01B701C8010E94C6
:102ED0007F204B015C016091140170911501072E58
:102EE000000C880B990B0E946C1EA50194010E9496
:102EF00013200E94F12070931301609312016091DE
:102F00000B0170910C01072E000C880B990B0E948D
:102F10006C1EA50194010E9413200E94F120709361
:102F20000A016093090180904C0490904D04A09098
:102F30004E04B0904F0420E030E040E85FE3C5016C
:102F4000B4010E942721181634F4812C912C20E81A
:102F5000A22E2FE3B22E20E030E040E052E4C50183
:102F6000B4010E94CB1E0E94F120685F2496EFAC52
:102F700024976E9DB00111247093490420E030E045
:102F800040E252E4C501B4010E94CB1E0E94F12030
:102F9000645F6E9DB0011124DD24872F90E08C15B5
:102FA0009D0508F4C6018093480480914E069091D7
:102FB0004F069A83898380915006909151069C8395
:102FC0008B8380915206909153069E838D838091CE
:102FD00054068F838091550690915606998788876D
:102FE00080915706909158069B878A878091590651
:102FF00090915A069D878C872BE5221626E0320693
:1030000070F46BE576E0C1010E94C20D40E050E033
:1030100000E010E0A0E0B0E09DEEE92EE5C080E326
:1030200090E04BE856E023968EAC9FAC2397FA01D4
:10303000D40180FF05C002C002900E9202900E9251
:103040008250D0F79040C0F7E1CF60913504709185
:103050003604640F751F852F9927FC01E657FF4F33
:10306000E491E70F2E2F30E0F901E657FF4FF4907F
:10307000F901E557FF4FA490FC01E557FF4FE4919C
:10308000E70F8E2F90E0FC01E657FF4F3491FC01D3
:10309000E557FF4F9490D42ED694862F8695982F7F
:1030A000242F249F020E20E0211DC22E262F269FB2
:1030B000020E20E0211D1124B22E60E86D0DE32FD9
:1030C000F0E0E657FF4FE491E2FD95C0F82F362F70
:1030D000E0FD3195E1FDF1957F2F75953595371F11
:1030E000EF2DF0E0E657FF4FE491E2FD87C0F82FA7
:1030F0009D2DE0FD9195E1FDF195292F7F2F75958F
:103100002595271F922F23170CF07AC0321B2C2DE8
:10311000329F030E30E0311D1124930F8058E92DAA
:10312000F0E0E657FF4FE491E2FD75C0362F682FBF
:10313000E0FD3195E1FD619565953595361FEA2DE8
:10314000F0E0E657FF4FE491E2FD03C0282F8D2DFC
:10315000D22EE0FD8195E1FDD194682F7D2D7595EE
:103160006595671F63170CF058C0361B2C2D329FD6
:10317000030E30E0311D1124832F860F98170CF0B9
:1031800057C0891B382F6B2D369F030E30E0311D41
:103190001124930F9B5B392F2E2D329F030E30E0AD
:1031A000311D1124932F990F31E09F3F08F430E037
:1031B000390F632F62956F703F70862F880F860FCF
:1031C000F101E80FF11D20819181828131113AC016
:1031D000E981FA81E00FF11F2083918382831196A8
:1031E0000D5F1F4F445C5F4F8B819C81A817B9070F
:1031F0000CF42BCF56C0F62F382F6ACFFD2D79CF88
:10320000722F731B372F2C2D329F030E30E0311D90
:103210001124931B83CF382F8BCF262F231B3C2DBC
:10322000239F020E20E0211D1124862F821BA6CF92
:10323000292F281B7B2D279F020E20E0211D112402
:10324000921BA8CF6F3011F0339601C0F101329577
:10325000307F732F70956081279F020E20E0211D23
:10326000639F060E60E0611D260FF180692F679F46
:10327000060E60E0611D962F6F2D639F060E60E0C5
:10328000611D960FE281682F679F060E60E0611D49
:10329000862F6E2F639F060E60E0611D860F11243E
:1032A00097CF0E94A00B9B01AC0160E070EB86E31E
:1032B00090E00E949F1F292F96FD2095E22FEF732B
:1032C0002F7096FD2F5FE695E695E695E670F0E0A7
:1032D000EB5DFC4F8181829F202D812D1124229551
:1032E0002F708295807F282B8081280F97FD219554
:1032F000205833E0239F020E20E0211D11242F5F70
:103300008091350490913604820F911D909336047C
:10331000809335042DEC3CEC4CEC5EE360914C0466
:1033200070914D0480914E0490914F040E94651E4F
:1033300087FF1BC020E030E040E251E4609162046E
:103340007091630480916404909165040E94651EED
:1033500087FF0BC08091070190910801009719F435
:103360000E94E205CEC1019702C080E49FE19093E4
:10337000080180930701C5C1C0901304D0901404C4
:10338000E0901504F090160420E030E048EC52E4A0
:10339000C701B6010E94651E87FF09C1A7019601FA
:1033A000C701B6010E947221882319F06FEF73E004
:1033B0001AC046015701E894B7F82FEF3FEF4FE7E7
:1033C0005FE7C501B4010E947221811111C02FEF86
:1033D0003FEF4FE75FE7C501B4010E94651E181675
:1033E0003CF463E074E08EE395E00E942E0F89C008
:1033F0002FEF3FEF4FE75FE4C701B6010E9427219F
:1034000018161CF467E074E0EECF2FEF3FEF4FE7A4
:103410005FECC701B6010E94651E87FDF3CF20E077
:1034200030E0A901C701B6010E94651E87FF0FC0E9
:10343000E0913E05F0913F050190F081E02D6DE2B5
:103440008EE395E00995F7FAF094F7F8F0942AE006
:1034500037ED43EA5BE3C701B6010E9413204B013D
:103460005C010E94F8206B017C010E946A1E9B0196
:10347000AC01C501B4010E9412204B015C012AE09D
:10348000B701A6018EE395E00E94430FE0913E054F
:10349000F0913F050190F081E02D6EE28EE395E022
:1034A000099520E030E040E251E4C501B4010E94FA
:1034B000CB1E4B015C010E94F8206B01E12CF12C2A
:1034C0002AE0B701A6018EE395E00E94430FC701F1
:1034D000B6010E946A1E9B01AC01C501B4010E94A5
:1034E000122020E030E040E251E40E94CB1E0E9416
:1034F000F820AB0160E070E02AE08EE395E00E94E6
:10350000430F60EE73E08EE395E00E942E0F209152
:103510000301309104014091050150910601609131
:1035200013047091140480911504909116040E9464
:1035300013206B017C0120E030E048EC52E40E9453
:10354000272118164CF0C0921304D0921404E09274
:103550001504F09216040CC080E090E0A8ECB2E4F0
:103560008093130490931404A0931504B09316044D
:103570000E943F0680910F0198E2899F90011124DB
:1035800030934904ACE88A9F900111243093480499
:10359000B8E78B9FC0011124909347042091130436
:1035A00030911404409115045091160475C081E0C7
:1035B00090E0909318048093170480E090E0A8ECCA
:1035C000B2E48093620490936304A0936404B09384
:1035D0006504E0E4FFE1F0930801E093070191C086
:1035E000C0901304D0901404E0901504F0901604D9
:1035F00020E030E0A901C701B6010E94272118167A
:103600000CF07BC020E030E040E85FE3C701B6018A
:103610000E9412206B017C016093130470931404C8
:1036200080931504909316040E943F0660910F0149
:1036300070E080E090E00E946C1E9B01AC01C7012D
:10364000B6010E94CB1E20E030E048EC52E40E941C
:103650007F200E94F1209B014091490450E0E62F19
:10366000461757070CF4E42FE093490440914804AF
:1036700050E0E62F421753070CF4E42FE093480480
:103680002091470430E0AB01261737070CF4A9015D
:1036900040934704A701960160E070E088EC92E453
:1036A0000E9412206B017C01609114017091150140
:1036B000072E000C880B990B0E946C1EA701960127
:1036C0000E9413200E94F120709313016093120155
:1036D00060910B0170910C01072E000C880B990B67
:1036E0000E946C1EA70196010E9413200E94F120E7
:1036F00070930A016093090104C01092180410929B
:103700001704F0902F068091320690913306A09115
:103710003406B0913506892B8A2B8B2B09F479C09E
:103720000E94410B00913F041091400420914104FC
:1037300030914204DC01CB01801B910BA20BB30B37
:1037400000913206109133062091340630913506EF
:1037500080179107A207B307B0F25BC082E090E048
:103760000E94891F90E090930F0480930E0483E0E1
:1037700090E00E94891F80930F0184E090E00E94F6
:10378000891F90E0909319018093180185E090E0E3
:103790000E94891F90E0909315018093140186E0A8
:1037A00090E00E94891F90E090930C0180930B01A0
:1037B00087E090E00E94891F90E0805891099093E3
:1037C0000E0180930D018CE090E00E94891F90E033
:1037D00090931101809310018BE090E00E94891F6B
:1037E000682F70E080E090E00E946A1E6093030101
:1037F0007093040180930501909306010C94C1120B
:10380000C616D706E806F90610F00C9424140C949A
:103810002D140E94410B60933F04709340048093E9
:10382000410490934204E0913A06F0913B063097B0
:1038300059F04091360650913706609138067091E4
:1038400039068F2D0995F82E00913D0410913E0404
:103850004F2C512C612C712C0115110509F467C0F6
:10386000D8011C96BC912496BFAF24978091300656
:10387000909131068436910510F4F8011486D80130
:10388000ED91FC918280938019821A821B82F11043
:1038900017C0F80145855685628173819E012F5FAF
:1038A0003F4FC801F401099524968FAC2497D801A5
:1038B0001C968C921C9714960D911C911597CCCF49
:1038C000F80139969E012F5F3F4F690158013CE096
:1038D000A30EB11CDF011397EC902191EE2001F1B2
:1038E0002223F1F0822F90E0A0E0B0E09C01AD0136
:1038F0002F5F3F4F4F4F5F4FC301B2010E949F1F89
:103900009B01AC018E2D90E0A0E0B0E0BC01CD01A8
:103910006F5F7F4F8F4F9F4F0E949F1FD6018C93E9
:10392000BFEFCB1ADB0AEA15FB05A1F6B2CF8091F7
:103930003B0490913C048C010F5F1F4F10933C049B
:1039400000933B044997ACF10E94A00B6B017C01F2
:1039500048EE53E0049FC001059F900D149F900D09
:103960001124BC01990F880B990B00913704109119
:1039700038042091390430913A0446015701801AE5
:10398000910AA20AB30AA50194010E94AF1F3093C5
:1039900031062093300610923C0410923B040E94A2
:1039A000A00B60933704709338048093390490938C
:1039B0003A040E94110A0C940B13CF93DF931092D8
:1039C00041051092400588EE93E0A0E0B0E08093BE
:1039D000420590934305A0934405B093450521EB20
:1039E00033E030933F0520933E0525EC30E03093E3
:1039F0004B0520934A0524EC30E030934D0520938D
:103A00004C0520EC30E030934F0520934E0521EC1F
:103A100030E0309351052093500522EC30E0309394
:103A200053052093520526EC30E030935505209342
:103A3000540510925705109258051092590510928E
:103A40005A051092DE051092DD058093DF059093F4
:103A5000E005A093E105B093E20583EC93E0909339
:103A6000DC058093DB051092ED051092EE051092B7
:103A7000EF051092F0051092F1051092F2051092E8
:103A8000F3051092F4051092F5051092F6051092C8
:103A9000F7051092F8051092F9051092FA051092A8
:103AA000FB051092FC058FEF80932F0610923106D4
:103AB0001092300610923B0610923A064FEF5FEFDD
:103AC000BA014093360650933706609338067093D8
:103AD000390624E630E030933D0620933C0680937F
:103AE0008B0680938C0680938D0680938E06809340
:103AF0008F068093900690E890939106109292061C
:103B000090939306109294069093950610929606C1
:103B100010929706109298068093990610929A0632
:103B200010929B0680939C0680939D0680939E0630
:103B300010929F068093A00695EA9093A10610929A
:103B4000A2068093A3069093A4061092A5068093E4
:103B5000A6061092A7061092A8068093A9061092B6
:103B6000AA061092AB061092AC061092AD06109207
:103B7000AE0610924F0610924E0662E08FE00E9451
:103B8000050B62E080E10E94050BE0EEF1E0E491BC
:103B9000F0E0EE0FFF1FE953FE4FA591B491B093F3
:103BA0004306A0934206E2ECF1E08491809346063E
:103BB000E1EEF1E0E491F0E0EE0FFF1FE953FE4F7C
:103BC000C591D491D0934506C0934406E3ECF1E04F
:103BD000E491E09347061092490610924A0610922B
:103BE0004B0610924C06EBE3FFE13197F1F7EC91B5
:103BF000E82381E009F480E0288190914706922330
:103C000009F082608093480610924D06DF91CF91B3
:103C100008958F929F92AF92BF92CF92DF92EF92D0
:103C2000FF92CF93DF93EC01688179818A819B8138
:103C3000611571058105910521F464E279ED8BE54B
:103C400097E02DE133EF41E050E00E94D11F4901A0
:103C50005A019B01AC01A7EAB1E40E94F01F6B017D
:103C60007C01ACEEB4EFA50194010E94FE1FDC01C3
:103C7000CB018C0D9D1DAE1DBF1DB7FF03C001976D
:103C8000A109B04888839983AA83BB83BC01CD0175
:103C90009F77DF91CF91FF90EF90DF90CF90BF9013
:103CA000AF909F908F9008950E94091E089589EF0C
:103CB00092E00E94091E08956093F9027093FA023F
:103CC0008093FB029093FC0208950E94A71E08F4C3
:103CD00081E00895E89409C097FB3EF490958095A3
:103CE000709561957F4F8F4F9F4F9923A9F0F92FC2
:103CF00096E9BB279395F695879577956795B79540
:103D0000F111F8CFFAF4BB0F11F460FF1BC06F5F25
:103D10007F4F8F4F9F4F16C0882311F096E911C037
:103D2000772321F09EE8872F762F05C0662371F058
:103D300096E8862F70E060E02AF09A95660F771F6C
:103D4000881FDAF7880F9695879597F90895990F48
:103D50000008550FAA0BE0E8FEEF16161706E80755
:103D6000F907C0F012161306E407F50798F0621B76
:103D7000730B840B950B39F40A2661F0232B242B4B
:103D8000252B21F408950A2609F4A140A6958FEF6A
:103D9000811D811D08950E94DE1E0C944F1F0E94FC
:103DA000411F38F00E94481F20F0952311F00C9419
:103DB000381F0C943E1F11240C94831F0E94601F17
:103DC00070F3959FC1F3950F50E0551F629FF0016E
:103DD000729FBB27F00DB11D639FAA27F00DB11D87
:103DE000AA1F649F6627B00DA11D661F829F222710
:103DF000B00DA11D621F739FB00DA11D621F839F97
:103E0000A00D611D221F749F3327A00D611D231F6C
:103E1000849F600D211D822F762F6A2F11249F57BA
:103E200050409AF0F1F088234AF0EE0FFF1FBB1FBD
:103E3000661F771F881F91505040A9F79E3F51057C
:103E400080F00C94381F0C94831F5F3FE4F3983E7E
:103E5000D4F3869577956795B795F795E7959F5F26
:103E6000C1F7FE2B880F911D9695879597F90895B8
:103E700097F99F6780E870E060E008959FEF80EC1D
:103E8000089500240A9416161706180609060895C0
:103E900000240A9412161306140605060895092E26
:103EA0000394000C11F4882352F0BB0F40F4BF2B95
:103EB00011F460FF04C06F5F7F4F8F4F9F4F0895D5
:103EC00057FD9058440F551F59F05F3F71F04795CB
:103ED000880F97FB991F61F09F3F79F087950895B0
:103EE000121613061406551FF2CF4695F1DF08C0CF
:103EF000161617061806991FF1CF869571056105EC
:103F000008940895E894BB2766277727CB0197F993
:103F10000895F999FECF92BD81BDF89A992780B591
:103F20000895262FF999FECF1FBA92BD81BD20BDFD
:103F30000FB6F894FA9AF99A0FBE01960895DB012C
:103F40008F939F930E94F01FBF91AF91A29F800D0E
:103F5000911DA39F900DB29F900D11240895A1E291
:103F60001A2EAA1BBB1BFD010DC0AA1FBB1FEE1FF3
:103F7000FF1FA217B307E407F50720F0A21BB30B3E
:103F8000E40BF50B661F771F881F991F1A9469F7BA
:103F900060957095809590959B01AC01BD01CF0116
:103FA0000895052E97FB1EF400940E94E81F57FD0C
:103FB00007D00E94AF1F07FC03D04EF40C94E81FFB
:103FC00050954095309521953F4F4F4F5F4F089545
:103FD00090958095709561957F4F8F4F9F4F089575
:103FE0000E940320A59F900DB49F900DA49F800D6B
:103FF000911D11240895B7FF0C94F01F0E94F01F2B
:10400000821B930B0895A29FB001B39FC001A39F91
:10401000700D811D1124911DB29F700D811D112401
:10402000911D08955058BB27AA270E942A200C945E
:104030004F1F0E94411F38F00E94481F20F039F4A2
:104040009F3F19F426F40C943E1F0EF4E095E7FB15
:104050000C94381FE92F0E94601F58F3BA176207AB
:1040600073078407950720F079F4A6F50C94821F56
:104070000EF4E0950B2EBA2FA02D0B01B901900183
:104080000C01CA01A0011124FF27591B99F0593FC7
:1040900050F4503E68F11A16F040A22F232F342F0F
:1040A0004427585FF3CF469537952795A795F0405D
:1040B0005395C9F77EF41F16BA0B620B730B840B72
:1040C000BAF09150A1F0FF0FBB1F661F771F881F2A
:1040D000C2F70EC0BA0F621F731F841F48F4879582
:1040E00077956795B795F7959E3F08F0B0CF939574
:1040F000880F08F09927EE0F9795879508950E94ED
:1041000093200C944F1F0E94481F58F00E94411F9B
:1041100040F029F45F3F29F00C94381F51110C94A2
:10412000831F0C943E1F0E94601F68F39923B1F314
:10413000552391F3951B550BBB27AA2762177307CD
:10414000840738F09F5F5F4F220F331F441FAA1F61
:10415000A9F335D00E2E3AF0E0E832D0915050401D
:10416000E695001CCAF72BD0FE2F29D0660F771FCB
:10417000881FBB1F261737074807AB07B0E809F0B1
:10418000BB0B802DBF01FF2793585F4F3AF09E3F36
:10419000510578F00C94381F0C94831F5F3FE4F3B3
:1041A000983ED4F3869577956795B795F7959F5F79
:1041B000C9F7880F911D9695879597F90895E1E0C5
:1041C000660F771F881FBB1F621773078407BA0724
:1041D00020F0621B730B840BBA0BEE1F88F7E0957F
:1041E00008950E94F8206894B1110C94831F0895DB
:1041F0000E94681F88F09F5798F0B92F9927B751F0
:10420000B0F0E1F0660F771F881F991F1AF0BA957A
:10421000C9F714C0B13091F00E94821FB1E0089537
:104220000C94821F672F782F8827B85F39F0B93F29
:10423000CCF3869577956795B395D9F73EF490952D
:104240008095709561957F4F8F4F9F4F08950E9485
:10425000A71E08F48FEF089519F416F40C943E1F6E
:104260000C9477210E94681FB8F39923C9F3B6F321
:104270009F57550B87FF0E9485210024A0E640EA46
:10428000900180585695979528F4805C660F771FAB
:10429000881F20F026173707480730F4621B730B7E
:1042A000840B202931294A2BA695179407942025A1
:1042B00031254A2758F7660F771F881F20F02617E9
:1042C0003707480730F4620B730B840B200D311D48
:1042D000411DA09581F7B901842F9158880F9695BB
:1042E000879508950E94A71E880B990B08959F3FFC
:1042F00031F0915020F4879577956795B795880FA1
:10430000911D9695879597F9089591505040660FA5
:10431000771F881FD2F7089597FB072E16F4009495
:1043200007D077FD09D00E94AD2107FC05D03EF4EF
:10433000909581959F4F0895709561957F4F089551
:10434000EE0FFF1F0590F491E02D09940E940320C9
:10435000B7FF0895821B930B0895AA1BBB1B51E165
:1043600007C0AA1FBB1FA617B70710F0A61BB70BE5
:10437000881F991F5A95A9F780959095BC01CD018A
:104380000895CF93DF938230910510F482E090E09E
:10439000E091B206F091B30620E030E0C0E0D0E05A
:1043A000309711F14081518148175907C0F04817E3
:1043B000590761F482819381209719F09B838A8346
:1043C0002BC09093B3068093B20626C02115310509
:1043D00019F04217530718F49A01BE01DF01EF01EB
:1043E0000280F381E02DDCCF2115310509F1281B76
:1043F000390B2430310590F412968D919C911397CE
:104400006115710521F0FB019383828304C09093B1
:10441000B3068093B206FD01329644C0FD01E20F5F
:10442000F31F81939193225031092D933C933AC00D
:104430002091B0063091B106232B41F42091FF0268
:10444000309100033093B1062093B0062091FD0215
:104450003091FE022115310541F42DB73EB7409150
:10446000010350910203241B350BE091B006F0913B
:10447000B106E217F307A0F42E1B3F0B28173907EC
:1044800078F0AC014E5F5F4F2417350748F04E0FB0
:104490005F1F5093B1064093B0068193919302C081
:1044A000E0E0F0E0CF01DF91CF9108950F931F93EB
:1044B000CF93DF93009709F48CC0FC0132971382ED
:1044C00012820091B2061091B3060115110581F414
:1044D00020813181820F931F2091B0063091B10667
:1044E0002817390779F5F093B106E093B00671C04B
:1044F000D80140E050E0AE17BF0750F412962D915E
:104500003C911397AD012115310509F1D901F3CF84
:104510009D01DA013383228360817181860F971FA9
:104520008217930769F4EC0128813981260F371F20
:104530002E5F3F4F318320838A819B8193838283C7
:10454000452B29F4F093B306E093B20642C01396CC
:10455000FC93EE931297ED01499159919E01240F1E
:10456000351FE217F30771F480819181840F951F45
:10457000029611969C938E938281938113969C93BD
:104580008E931297E0E0F0E0D80112968D919C9105
:104590001397009719F0F8018C01F6CF8D919C913B
:1045A00098012E5F3F4F820F931F2091B0063091EC
:1045B000B1062817390769F4309729F41092B30629
:1045C0001092B20602C0138212821093B1060093B9
:1045D000B006DF91CF911F910F91089581E090E097
:0A45E000F8940C94F322F894FFCF36
:1045EA003905010000803F401F340034002800F0E4
:1045FA008000320032002F002F00CDCCD4417A73D4
:10460A006E625D5F63707B85939EABB4C1C9CCCA91
:10461A00C0B9B3ACAAA3A0A19891877665534537D0
:10462A00342E2225282F3C485360747C8A9599A4FD
:10463A00A29F9A95908B8D8D8F9093969797928B38
:10464A008678645A4E484A4D555D6F8597ABBAC70E
:10465A00CACAC9BCB6AEA29E9E9D979289786A556F
:10466A004941373634333D45506172828F999CA255
:10467A00A19890887F7677767B8782817C7A8791EA
:10468A009C998D7F7365564C494B53606F7C8B9810
:10469A00A4B0BAC6CAC0AF93715238261E1D2632BC
:1046AA00455C738998A2A9ADA89E928378726C6BB7
:1046BA007179828D96989492939499A0A7A8A5A3AC
:1046CA009F98928F88837A6C5E50474344506171F9
:1046DA008397A6B5C1CCD1C8BAA07E5E412C1D175E
:1046EA001B24344A63798C9AA1A7A59C9081766E83
:1046FA0068666A727A838B8D898687888E99A1A665
:10470A00A6A6A39C9899969182827565554B5E746C
:10471A007C71575889AEB3C8D4BD834B34426D9F60
:10472A00D6F7F5D6B5A89B8B775731191B293C6468
:10473A0099BEBA9F87766B66676E7E959E8E755C0C
:10474A00575D5F6362615B56575664829FB8CFE0DC
:10475A00E2D9C39D847D7A7A7B8590988E72615C5A
:10476A006A81949D9F947A5E483D383E4A5D748082
:10477A0085827C7773767D96B4C5C5BEB5A69382CD
:10478A006E5A56595C6066696D6F696C788893A138
:10479A00A7A4A09D9E9E998D837D736D747F80785A
:1047AA006A5745373647647A8B938E8B8E99A8B5AC
:1047BA00BEC5C7BCA8988E8B877F797F80807E72A2
:1047CA00685E595C5C646F7D80766B6269747F8A0F
:1047DA00929590867B1B0A1B0A010000000000B418
:1047EA0006800000000000520A520A520A960292FB
:1047FA00028F020000000051050D05210196029268
:10480A00021E01BA02003131295A1B750AB400C8C6
:10481A0000D200DC00B400C000F000D2001E001E6E
:10482A00002300280028002D00F6FF1E0034003364
:10483A000036003C003400390032002F00320032CA
:10484A000037003C003200320032002F002F0030C7
:10485A00002F0032002F00320031002D0003000229
:10486A0000020003000200030002000100FF00FF33
:10487A0000FF002000FF00FF00FF00FF0090006023
:10488A000040009000A000C00020000000000000CE
:10489A0000A8096F0D4009EF0971094F0963090062
:1048AA00000000C90F8C0FF30F260A4A0A360A279E
:1048BA000A564D4450565F317C315F564D4450562E
:1048CA000D0A0052756E6E696E6700564D4450456A
:1048DA005F003A323A007C005F564D445045006E04
:0C48EA00616E00696E66006F766600006B
:107E0000112484B714BE81FFF0D085E080938100F7
:107E100082E08093C00088E18093C10086E0809377
:107E2000C20080E18093C4008EE0C9D0259A86E02C
:107E300020E33CEF91E0309385002093840096BBD3
:107E4000B09BFECF1D9AA8958150A9F7CC24DD24C4
:107E500088248394B5E0AB2EA1E19A2EF3E0BF2EE7
:107E6000A2D0813461F49FD0082FAFD0023811F036
:107E7000013811F484E001C083E08DD089C08234E0
:107E800011F484E103C0853419F485E0A6D080C0E4
:107E9000853579F488D0E82EFF2485D0082F10E0AE
:107EA000102F00270E291F29000F111F8ED06801E7
:107EB0006FC0863521F484E090D080E0DECF843638
:107EC00009F040C070D06FD0082F6DD080E0C81688
:107ED00080E7D80618F4F601B7BEE895C0E0D1E017
:107EE00062D089930C17E1F7F0E0CF16F0E7DF06D8
:107EF00018F0F601B7BEE89568D007B600FCFDCFD4
:107F0000A601A0E0B1E02C9130E011968C91119780
:107F100090E0982F8827822B932B1296FA010C0160
:107F200087BEE89511244E5F5F4FF1E0A038BF0790
:107F300051F7F601A7BEE89507B600FCFDCF97BE46
:107F4000E89526C08437B1F42ED02DD0F82E2BD052
:107F50003CD0F601EF2C8F010F5F1F4F84911BD097
:107F6000EA94F801C1F70894C11CD11CFA94CF0C13
:107F7000D11C0EC0853739F428D08EE10CD085E9AC
:107F80000AD08FE07ACF813511F488E018D01DD067
:107F900080E101D065CF982F8091C00085FFFCCF94
:107FA0009093C60008958091C00087FFFCCF809118
:107FB000C00084FD01C0A8958091C6000895E0E648
:107FC000F0E098E1908380830895EDDF803219F02E
:107FD00088E0F5DFFFCF84E1DECF1F93182FE3DFCA
:107FE0001150E9F7F2DF1F91089580E0E8DFEE27F6
:047FF000FF270994CA
:027FFE00040479
:0400000300007E007B
:00000001FF