:100000000C94FB000C94B4100C948D100C9466109E
:100010000C943F100C9423010C9423010C941810A1
:100020000C9423010C9423010C94C5120C943713E7
:100030000C9423010C9423010C9423010C942301B0
:100040000C9423010C94C8050C9423010C942301F7
:100050000C9423010C9423010C9423010C94CE0FD7
:100060000C9423010C9423010C9423010C94230180
:100070000C9423010C9423010C9423010C94230170
:100080000C9423010C9423010C9423010C94230160
:100090000C94DB100C9423010C9423010C94230189
:1000A0000C9423010C9423010C942301AF07ED075A
:1000B000FF0757086C0877088B089608A108AC085A
:1000C000B7084D0E500E3F0E430E490E710E710EC5
:1000D000710E540E580E5C0E620E660E710E6C0E92
:1000E00000FF1A1A80CC0000FFB3000007060504C9
:1000F0000100080A0B0C0D090000000200090F00A6
:1001000000030401000C00000000000000000000DB
:1001100000000000000000040802011040804010B0
:10012000204080408008020401804020100201101D
:1001300080102040402000000000230026002900FD
:100140002C002F000404040404030405020202022C
:100150000403020202020606060606060404020260
:1001600002040400000000240027002A002D0030B3
:100170000000000000250028002B002E00310008A0
:100180000B0002020201000904000001020200004B
:1001900005240010010524010101042402060524A0
:1001A0000600010705810310004009040100020A4E
:1001B000000000070502024000000705830240001E
:1001C000000403090412010002EF0201404123363A
:1001D0008000010102030141726475696E6F204C59
:1001E0004C430041726475696E6F204C656F6E619F
:1001F00072646F00D42111241FBECFEFDAE0DEBF9E
:10020000CDBF14E0A0E0B1E0ECE3FFE402C0059054
:100210000D92A230B107D9F726E0A2E0B4E001C008
:100220001D92A53BB207E1F710E0CBEFD0E004C090
:100230002197FE010E944926CA3FD107C9F70E94B3
:1002400058170C949C270C94000080E991E00895C5
:10025000859A0895FF920F931F93CF93DF93DC014C
:10026000ED91FC91AF2F31E03F0F321301C030E030
:10027000EF01DD278B010A0F111DD801FC90DB0176
:10028000A30FB11D3C913C9F80013D9F100D112497
:10029000A0E0B1E0AC1BBD0BFA9EB001FB9E700D5F
:1002A0001124600F711F4E0F5F1F30E0322F222785
:1002B0004217530710F0421B530BDC014D935C9324
:1002C000872FDF91CF911F910F91FF90089580E0CC
:1002D00090E00895FC01858596850895CF93DF937E
:1002E00000D000D000D0CDB7DEB7AB011C821D829C
:1002F0001E82DC01ED91FC910190F081E02D1982CC
:100300001A821B829E012F5F3F4FBE016C5F7F4FA1
:10031000099526960FB6F894DEBF0FBECDBFDF91CC
:10032000CF9108954F925F926F927F928F92AF928A
:10033000BF92CF92EF92FF920F931F93CF93DF93D1
:100340003C01EB010E94DE0EF30127853089621B20
:10035000730B6A307105B0F3F894E881F98151B3F9
:10036000506281B38F7D81BB6A859F81262F291BB7
:10037000922F2F83BF844A805B807D85FC84EE842E
:100380007F5FF394E3943E814885A984CB841181F7
:10039000D20120E0C32F022F322F31811127889400
:1003A0003111390F08F43FEF9195889470FD130FC8
:1003B0001795889471FD130F1795889472FD130F8C
:1003C0001795889473FD130F1795889474FD130F78
:1003D0001795889475FD130F1795889476FD130F64
:1003E0001795889477FD130F17958894232F711113
:1003F000212F960F122F002C51BB00C017FF81BB7D
:1004000030812227889400C000C0002C81BB3111AC
:100410003C0F00C0002C51BB00C016FF81BB08F48C
:100420003FEFC195889400C000C0002C81BBF0FC58
:10043000230F00C0002C51BB00C015FF81BB2795C6
:100440008894F1FC230F00C000C0002C81BB2795CD
:10045000889400C0002C51BB00C014FF81BBF2FC8B
:10046000230F2795889400C000C0002C81BBF3FCAB
:10047000230F00C0002C51BB00C013FF81BB279588
:100480008894F4FC230F00C000C0002C81BB27958A
:10049000889400C0002C51BB00C012FF81BBF5FC4A
:1004A000230F2795889400C000C0002C81BBF6FC68
:1004B000230F00C0002C51BB00C011FF81BB27954A
:1004C0008894F7FC230F00C000C0002C81BB279547
:1004D000889400C0002C51BB00C010FF81BB132FBB
:1004E000F110122FCA0D00C000C0002C81BB00C04B
:1004F00000C0002C51BB00C017FF81BB32812227F6
:10050000889400C000C0002C81BB3111340F00C0A2
:10051000002C51BB00C016FF81BB08F43FEFEB0D70
:10052000F11D00C000C0002C81BBE0FC230F00C007
:10053000002C51BB00C015FF81BB27958894E1FCBE
:10054000230F00C000C0002C81BB2795889400C0F9
:10055000002C51BB00C014FF81BBE2FC230F279588
:10056000889400C000C0002C81BBE3FC230F00C0B6
:10057000002C51BB00C013FF81BB27958894E4FC7D
:10058000230F00C000C0002C81BB2795889400C0B9
:10059000002C51BB00C012FF81BBE5FC230F279547
:1005A000889400C000C0002C81BBE6FC230F00C073
:1005B000002C51BB00C011FF81BB27958894E7FC3C
:1005C000230F00C000C0002C81BB2795889400C079
:1005D000002C51BB00C010FF81BB132FE110122F64
:1005E000419500C000C0002C81BB4C0D00C000C074
:1005F00051BB00C017FF81BB31812227889400C006
:1006000000C0002C81BB3111390F00C0002C51BB40
:1006100000C016FF81BB08F43FEF9195889400C09D
:1006200000C0002C81BB70FD230F00C0002C51BB0B
:1006300000C015FF81BB2795889471FD230F00C072
:1006400000C0002C81BB2795889400C0002C51BBB2
:1006500000C014FF81BB72FD230F2795889400C052
:1006600000C0002C81BB73FD230F00C0002C51BBC8
:1006700000C013FF81BB2795889474FD230F00C031
:1006800000C0002C81BB2795889400C0002C51BB72
:1006900000C012FF81BB75FD230F2795889400C011
:1006A00000C0002C81BB76FD230F00C0002C51BB85
:1006B00000C011FF81BB2795889477FD230F00C0F0
:1006C00000C0002C81BB2795889400C0002C51BB32
:1006D00000C010FF81BB132F7111122F960F00C0A5
:1006E00000C0002C81BB119709F086CE20EE31E0CE
:1006F000D2010E944F26DC01CB01F4E0B695A7950C
:1007000097958795FA95D1F720E030E0A9016AE93D
:10071000469E412D569E400D511D1124840F951F5C
:10072000A11DB11D893E43E09407A105B10588F1E3
:10073000885E9340A109B10942E0B695A7959795C7
:1007400087954A95D1F747E0849F212D949F200DEE
:10075000311D112460910A0470E0860F971F820FEB
:10076000931F4091590650915A0660915B06709113
:100770005C06292F3327420F531F611D711D4093C3
:10078000590650935A0660935B0670935C068093FB
:100790000A0478940E94DE0EF301708B6787DF9164
:1007A000CF911F910F91FF90EF90CF90BF90AF909E
:1007B0008F907F906F905F904F9008950F931F934D
:1007C000CF93DF93CDB7DEB762970FB6F894DEBF55
:1007D0000FBECDBF8C01F901DC011C968C917A8390
:1007E00069835C834B835E834D8390819D87918178
:1007F0009E8792819F87813029F4CE0101960E94C5
:100800000B1706C01C861B861A86198618861F823F
:10081000188A1A8A198AD801ED91FC910484F58509
:10082000E02DBE016F5F7F4FC801099562960FB63C
:10083000F894DEBF0FBECDBFDF91CF911F910F9116
:1008400008950F931F93CF93DF93CDB7DEB76297D1
:100850000FB6F894DEBF0FBECDBF8C01F901DC01ED
:100860001C968C917A8369835C834B835E834D8372
:1008700090819D8791819E8792819F87813029F405
:10088000CE0101960E940B1706C01C861B861A8695
:10089000198618861F8283E0888B1A8A198AD801E4
:1008A000ED91FC910484F585E02DBE016F5F7F4FD3
:1008B000C801099562960FB6F894DEBF0FBECDBF92
:1008C000DF91CF911F910F910895DC01ED91FD9182
:1008D0008081ED91FD919081ED91FD916C9163701E
:1008E0008E2309F064609F2309F06860E2E8F4E079
:1008F000E60FF11D659565956D936D917D918D91D7
:100900009D91099423C01AC012C016C010C01EC009
:1009100009C014C013C006C019C009C00DC007C06B
:100920000DC014C062507040804090400BC06150B8
:1009300070408040904006C06E5F01C06F5F7F4F87
:100940008F4F9F4F9E938E937E936E9308958091C9
:100950007605909177050C946504809174059091CB
:1009600075050C94650480917205909173050C9443
:10097000650480917005909171050C9465048091D7
:10098000120490911304019709F040C083E090E0B5
:10099000909313048093120460916D0482E090E0C0
:1009A0000E94C80A6091E40283E090E00E94C80AB5
:1009B0006091ED0284E090E00E94C80A6091E90233
:1009C00085E090E00E94C80A6091E00286E090E035
:1009D0000E94C80A6091E20287E090E00E94C80A83
:1009E0006091E5028CE090E00E94C80A6091DA0212
:1009F0008BE090E00E94C80A6AE280E090E00E94EA
:100A0000C80A60E081E090E00C94C80A08958091E3
:100A1000120490911304892B31F482E090E09093BA
:100A20001304809312040895DC01FB0180819181FD
:100A300011969C938E938281938113969C938E93AF
:100A400012978481958115969C938E931497868135
:100A500016968C9316978781908518969C938E9303
:100A60001797818592851A969C938E931997838503
:100A700094851C969C938E931B97CD010D96635F76
:100A80007F4F8617970710F40C94FD08FD96DD96AE
:100A900080E390E0FF01DD0180FF05C002C002900D
:100AA0000E9202900E928250D0F79040C0F70895B7
:100AB000AF92BF92CF92DF92EF92FF920F931F936C
:100AC000CF93DF93CDB7DEB7ED970FB6F894DEBFC7
:100AD0000FBECDBF7C016B015A0104E815E01E1466
:100AE0001F041CF4F801F086E7821C141D041CF49A
:100AF000F801D286C1861A141B041CF4F801B486CE
:100B0000A386B801CE0101960E941405CE0101967C
:100B10000E94560B035C1F4FF5E00E3F1F07F9F6CE
:100B2000ED960FB6F894DEBF0FBECDBFDF91CF912B
:100B30001F910F91FF90EF90DF90CF90BF90AF90FB
:100B40000895CF93DF93CDB7DEB7ED970FB6F89446
:100B5000DEBF0FBECDBF64E875E0CE0101960E94F6
:100B60001405CE0101960E94560B61EC75E0CE0192
:100B700001960E941405CE0101960E94560BED9637
:100B80000FB6F894DEBF0FBECDBFDF91CF910895B1
:100B90001F920F920FB60F921124CF92DF92EF9215
:100BA000FF920F931F932F933F934F935F936F93F6
:100BB0007F938F939F93AF93BF93CF93DF93EF93E5
:100BC000FF93C0911104D0E0C0901004D12C00918B
:100BD0000F0410E04091EB025091EC022DEC6AE022
:100BE00072E086E094E00E942A0190E0805891092A
:100BF0008C9F70018D9FF00C9C9FF00C11244091F4
:100C0000E7025091E80225E865E871E084E094E0AD
:100C10000E942A0190E0805891098C9DE0018D9DF1
:100C2000D00D9C9DD00D11244091DE025091DF0229
:100C300025E860E071E082E094E00E942A01CE0D98
:100C4000DF1DD05890E080589109809F9001819FCE
:100C5000300D909F300D1124C20FD31FD093D000C0
:100C6000FF91EF91DF91CF91BF91AF919F918F91C4
:100C70007F916F915F914F913F912F911F910F91B4
:100C8000FF90EF90DF90CF900F900FBE0F901F90CE
:100C90001895CF92DF92EF92FF92CF93DF93EC0102
:100CA000688179818A819B819B01AC010E948123AB
:100CB00020E030E0A9010E94C1246B017C016C811D
:100CC0007D818E819F819B01AC010E9481239B01CC
:100CD000AC01C701B6010E94C1246B017C0168858B
:100CE00079858A859B859B01AC010E9481239B01AC
:100CF000AC01C701B6010E94C124DF91CF91FF90E2
:100D0000EF90DF90CF900C94E025AF92BF92CF92FE
:100D1000DF92EF92FF920F931F93CF93DF9300D058
:100D200000D000D0CDB7DEB78B01EE24E394E09283
:100D3000970478E6F72EF092B90410929804109276
:100D4000BA04682F8DE095E00E942E160E94E20AF8
:100D5000E0929704F092B904109298041092BA04A9
:100D6000809196048111FCCF81E08093960480935A
:100D700095049FEF909394041092930495E09093C0
:100D800092048093710480917104806D809371044A
:100D900080917004813041F410927004809171044C
:100DA0008093BB0085EC01C085EE8093BC008091F0
:100DB00096048130E1F380919304863018F4F0902A
:100DC000930402C066E0F62EA2E7B4E020E936E024
:100DD000F9018E2F821B8F1518F48D918193F9CF15
:100DE00010920C04F0920B0486E08F1580F0FE0147
:100DF00031965F016F018C2D8A198F1588F48DE073
:100E000095E00E94D515F60181936F01F4CF56E06D
:100E1000E52E8DE095E00E94D515EA94E110F9CF1A
:100E20000E94E20AF6E0FF1611F080E01AC0898104
:100E300090E0982F88272A81822BF8019183808364
:100E40008B8190E0982F88272C81822B938382833B
:100E50008D8190E0982F88272E81822B9583848323
:100E600081E026960FB6F894DEBF0FBECDBFDF91AE
:100E7000CF911F910F91FF90EF90DF90CF90BF9097
:100E8000AF900895161617063CF4281B390B62170D
:100E900073077CF49B010DC06115710541F0481B7F
:100EA000590B9B016417750724F49A0102C020E0D6
:100EB00030E0820F931F0895CF93DF9380918305D5
:100EC000823030F4F89488E795E00E94650401C010
:100ED000F89480917F0590918005A0918105B09153
:100EE000820578949C0197FF02C02D5F3F4F359596
:100EF0002795359527952115310509F466C16CEFC5
:100F00006203A001639F500D1124F894840F951F74
:100F1000092E000CAA0BBB0B80937F0590938005D4
:100F2000A0938105B09382057894CC27DD27C21B5E
:100F3000D30B80916F04813009F429C120F08230F5
:100F400009F428C13EC1E0916D04F0916E04EB30CC
:100F5000F10508F036C1EA5AFF4F0C94492628E003
:100F600030E041E050E0BE018091DA029091DB0276
:100F70000E9442079093DB028093DA0220911204D0
:100F80003091130422303105D9F03CF4211531059C
:100F900059F02130310579F014C12330310521F0A9
:100FA0002430310599F00DC11C161D060CF009C145
:100FB0000E94070506C1D7FF04C10E94BF0401C1FA
:100FC000D7FFFFC0019709F0FCC0F7CFD7FFF9C0EA
:100FD0001092130410921204F4C0BE0144E0660F94
:100FE000771F4A95E1F78091E4022FEF30E040E06F
:100FF00050E090E00E9442078093E402E2C027E0C4
:1010000030E040E050E0BE01809108049091090476
:101010000E9442079093090480930804880F991F47
:10102000FC01E158FC4F40815181FC01E159FC4F2A
:10103000608171818FEF9FEF0E94580580910804B5
:1010400090910904880F991FFC01E15AFC4F2081FF
:1010500031813093DB022093DA02FC01E15BFC4F2B
:10106000208131813093EE022093ED02FC01E15C9E
:10107000FC4F208131813093EA022093E902FC0188
:10108000E15DFC4F208131813093E1022093E00249
:10109000FC01E15EFC4F208131813093E30220931B
:1010A000E202FC01E15FFC4F808191816BC0BE01D7
:1010B00093E0660F771F9A95E1F72FEF30E047E056
:1010C00050E080918B0590918C050E9442074FEF74
:1010D0005FEF6FEF7FEF73C080918F059091900568
:1010E000480F591F5093900540938F0564C0BE016F
:1010F00083E0660F771F8A95E1F72FEF30E040E03D
:1011000050E080918D0590918E050E9442074FEF2F
:101110005FEFBC0152C08091ED029091EE02821B04
:10112000930B9093EE028093ED024BC08091E90205
:101130009091EA02821B930B9093EA028093E9025A
:1011400040C08091E0029091E102821B930B90934A
:10115000E1028093E00235C08091E2029091E302C7
:10116000821B930B9093E3028093E2022AC02FEF3D
:1011700030E040E050E0BE018091E5029091E6024F
:101180000E9442079093E6028093E5021AC082E033
:1011900080936F042BE030E040E050E0BE0180918E
:1011A0006D0490916E040E94420790936E048093A8
:1011B0006D044FEF5FEF6FEF7FEF8FEF9FEF0E94B8
:1011C000580510920E0410920D04DF91CF910895EE
:1011D0004091D7025091D80225E038E0429FC001EB
:1011E000439F900D529F900D1124875E994C9093D0
:1011F000D8028093D702890F089520E330E0FB01E5
:10120000DC0120FF05C002C001900D9201900D92FB
:101210002250D0F73040C0F708957F928F929F926E
:10122000AF92BF92CF92DF92EF92FF920F931F93F4
:10123000CF93DF93FC01EB017A01D90148175907DD
:10124000C8F42C9111969C91119712968C9112973B
:1012500038813C93398111963C9311973A811296CB
:101260003C931297288399838A839E2F8F2FFA01AC
:10127000E92EF82EC880D12C8C9190E08C199D0914
:101280009695982F882797958795098110E0119654
:10129000AC901197B12CA01AB10AB694BA2CAA241A
:1012A000B794A7942A8130E01296CC91D0E0C21B6B
:1012B000D30BD695DC2FCC27D795C795A7014E1B0E
:1012C0005F0B19F0742E452F03C07724739440E010
:1012D000672D742F0E9435264B01C501672D742F91
:1012E0000E9435265B01CE01672D742F0E943526A2
:1012F000880C991CAA0CBB1C660F771FDC2CCC2415
:10130000102F0027322F2227DF01AA0FBB1FAE0F9D
:10131000BF1FAD56BA4FEE16FF0678F0ED012297CB
:10132000D882219618833C93C80CD91C0A0D1B1D2A
:10133000260F371F31961396EECFDF91CF911F9175
:101340000F91FF90EF90DF90CF90BF90AF909F9064
:101350008F907F9008953F924F925F926F927F920D
:101360008F929F92AF92BF92CF92DF92EF92FF92B5
:101370000F931F93CF93DF9300D01F92CDB7DEB7AB
:10138000F09061058091640590916505A0916605D6
:10139000B0916705892B8A2B8B2BE9F00E94DE0E1A
:1013A000009110061091110620911206309113063B
:1013B000DC01CB01801B910BA20BB30B00916405E8
:1013C000109165052091660530916705801791079A
:1013D000A207B307B8F20E94DE0E60931006709366
:1013E00011068093120690931306E0916C05F0911C
:1013F0006D05309759F040916805509169056091ED
:101400006A0570916B058F2D0995F82E0091BB042C
:101410001091BC044F2C512C612C712C011511051D
:1014200009F461C0D8011C96EC901C97809162056C
:10143000909163058436910510F41C961C92D80196
:10144000ED91FC91A280B38019821A821B82F11067
:1014500014C0F80145855685628173819E012F5F16
:101460003F4FC801F5010995D8011C96EC921C97D5
:1014700014960D911C911597D1CFF8013996CE0194
:1014800001966C0148019CE0890E911CDF011397C5
:101490003C902191332001F12223F1F0822F90E042
:1014A000A0E0B0E09C01AD012F5F3F4F4F4F5F4F79
:1014B000C301B2010E9455249B01AC01832D90E031
:1014C000A0E0B0E0BC01CD016F5F7F4F8F4F9F4F19
:1014D0000E945524D6018C93BFEFCB1ADB0AE81586
:1014E000F905A1F6B6CF80910E0690910F068C01FA
:1014F0000F5F1F4F10930F0600930E0649979CF144
:101500000E94C20F4B015C0188EE93E0089FB0017E
:10151000099F700D189F700D1124072E000C880B69
:10152000990BC0900A06D0900B06E0900C06F09044
:101530000D06A50194012C193D094E095F090E9471
:101540006524309363052093620510920F06109274
:101550000E060E94C20F60930A0670930B068093DA
:101560000C0690930D060F900F900F90DF91CF9186
:101570001F910F91FF90EF90DF90CF90BF90AF90B1
:101580009F908F907F906F905F904F903F900895C5
:101590000F931F93CF93DF931F92CDB7DEB78C01CC
:1015A00069830E943F246981861729F0C8010E943F
:1015B000472481E001C080E00F90DF91CF911F911F
:1015C0000F9108952091BA049091B904213208F046
:1015D00046C0809196048111FCCF32E0309396048E
:1015E00031E0309395043FEF3093940410929304CC
:1015F00020939204A9E9B4E042E754E0FA013E2FB7
:10160000341B321718F43D913193F9CF10927104C5
:1016100020917104990F922B909371049091700412
:10162000913041F410927004909171049093BB003A
:1016300095EC01C095EE9093BC0090919604923089
:10164000E1F3909194049F3F79F08091940480326B
:1016500041F080919404803331F084E005C081E052
:1016600003C082E001C083E0109298041092BA0493
:10167000109297040895CF93C62F91E0909397040A
:1016800098E69093B904109298041092BA04682FC7
:101690008DE095E00E942E166C2F8DE095E00E9463
:1016A0002E160E94E20A81E0CF9108952F923F9278
:1016B0004F925F926F927F928F929F92AF92BF9262
:1016C000CF92DF92EF92FF920F931F93CF93DF930E
:1016D000CDB7DEB7CB54D1090FB6F894DEBF0FBE3D
:1016E000CDBF4C01DC011796AD90BC901897BFEFB1
:1016F000AB16B10421F01CF0AA24AA94B12CF40179
:10170000F1852296FFAF2297D4011B96CC90C98217
:10171000FA83AB82BE01625C7F4FCE0101960E94CC
:1017200065166EAC662D70E080E090E00E9420238C
:101730009B01AC0160E070E885E693E40E942D25F2
:10174000D62EE72EF82E092F20E030E040E85FE3A8
:101750000E94D52518162CF4D12CE12C00E8F02E8F
:101760000FE31FAD612F70E080E090E00E94202326
:101770009B01AC0160E070E885E693E40E942D25B2
:10178000362E472E582E792E262F372F482F592F99
:101790006D2D7E2D8F2D902F0E941B2387FD03C062
:1017A000D32C7201072D21967FAC2197672D70E015
:1017B00080E090E00E9420239B01AC0160E070E893
:1017C00085E693E40E942D251B012C019B01AC01B1
:1017D0006D2D7E2D8F2D902F0E941B2387FD04C021
:1017E000D22CE32CF42C052D612F70E0660D711DB9
:1017F000670D711D072E000C880B990B0E94222388
:101800009B01AC0161E070E885E693E40E942D2520
:10181000562E672E782E192F262F372F482F592F07
:101820006D2D7E2D8F2D902F0E941B2387FD03C0D1
:10183000D52C7301012FC9822296BFAD2297BA839E
:10184000B501BB0C880B990B0E9422239B01AC01B4
:101850006D2D7E2D8F2D902F0E9481230E94A62515
:101860006B83BE01625C7F4FCE0101960E946516BC
:10187000EEAD2296EFAF22972FAC21963FAC219789
:10188000B401CE0101960E94140580916F0482304C
:1018900009F05BC0E0906D04F0906E04C980DA80BE
:1018A00014E1812E16E0912E60E070E000E010E07F
:1018B00040E050E0F601E60FF71F98012C5E394F2B
:1018C0004E155F0579F4D401BC90B082D901119610
:1018D0009C911197918312968C918283B382948309
:1018E000858320C0D90112968C91129790E024E054
:1018F000959587952A95E1F711962C9130E0A4E013
:1019000035952795AA95E1F7D401AC90B12CB4E0B8
:10191000B594A794BA95E1F7A082218382831382BC
:10192000148215820D5F1F4F1682178210864F5F3B
:101930005F4F675F7F4FB3E08B0E911C4C305105BA
:1019400009F0B8CF04E210E002C000E010E08B80A4
:101950009C802401092C000C66087708E1E04E1AEF
:1019600051086108710880916B0490916C049C018E
:10197000990F440B550B28962CAF3DAF4EAF5FAF80
:10198000289723E630E0D8010E944F269801220FC5
:10199000331FA901400F511F29813A81D901A40F9A
:1019A000B51F2496BFAFAEAF2497C12CD12C7601C2
:1019B000A12CB12C9B01AC012356310941095109DD
:1019C0002C962CAF3DAF4EAF5FAF2C970815190585
:1019D000CCF52C966CAD7DAD8EAD9FAD2C976C0D7E
:1019E0007D1D8E1D9F1DA30192010E948724DA0197
:1019F000C9010196A11DB11D2496EEADFFAD24973E
:101A0000EA0DFB1D28962CAD3DAD4EAD5FAD289780
:101A100082179307A407B5073CF422963FAD22979F
:101A200030832182328203C01082118212820F5FC2
:101A30001F4F43E0A40EB11C53E6C50ED11CE11CA0
:101A4000F11CC4CF0E94AB09C55BDF4F0FB6F89401
:101A5000DEBF0FBECDBFDF91CF911F910F91FF90E1
:101A6000EF90DF90CF90BF90AF909F908F907F903E
:101A70006F905F904F903F902F900895CF93DF939A
:101A8000E0E0F1E08491EFE1F1E0D491ECE4F1E009
:101A9000C491CC2391F081110E94350EEC2FF0E01F
:101AA000EE0FFF1FEA5CFE4FA591B491EC91ED2380
:101AB00081E090E021F480E002C080E090E0DF91DE
:101AC000CF910895FC0180916A04811103C08FEFCA
:101AD0009FEF08959FB7F89482E08093E9002091EA
:101AE000F20030E01216130614F421E030E0211564
:101AF000310559F0289884E6809369048091F100BB
:101B000080838091F200882319F09FBFC901089556
:101B10008BE68093E800F9CF2FB7F89483E08093A9
:101B2000E9009091E800892F807295FF04C09091A0
:101B3000F20080E4891B2FBF089580910206811175
:101B40000DC082E08093FE0584E08093FF05109233
:101B500001061092000681E0809302068EEF95E068
:101B60000895CF93DF931F92CDB7DEB76983DC0171
:101B7000ED91FC910280F381E02D41E050E0BE0147
:101B80006F5F7F4F09950F90DF91CF91089583E0AC
:101B90008093E9008091F200882319F08AE3809312
:101BA000E8000895FC018485958597FD0BC09FB7DB
:101BB000F89482E08093E9008091F2009FBF90E06A
:101BC000019608959FB7F89482E08093E900809190
:101BD000F2009FBF90E0089508950E948C0D90E060
:101BE00008950F931F93CF93DF931F92CDB7DEB766
:101BF0008C01FC018485958597FF0EC0CE0101966E
:101C00000E94620D019719F4298130E002C02FEF84
:101C10003FEFF80135872487F801848595850F907B
:101C2000DF91CF911F910F910895CF93DF931F9272
:101C3000CDB7DEB7FC018485958597FD05C02FEFF4
:101C40003FEF358724870BC0CE0101960E94620DBD
:101C5000019719F4898190E002C08FEF9FEF0F90F8
:101C6000DF91CF9108950E94972790E0FC01319772
:101C7000EF30F105B0F5EF59FF4F0C9449268091F4
:101C800080008F7703C0809180008F7D80938000DB
:101C9000089580918000877FF9CF84B58F7702C047
:101CA00084B58F7D84BD0895809190008F7707C0A3
:101CB000809190008F7D03C080919000877F8093FA
:101CC000900008958091C0008F7703C08091C0007C
:101CD0008F7D8093C00008958091C200877F80939C
:101CE000C20008951F93CF93DF93282F30E0F901AE
:101CF000E850FF4F8491F901E95EFE4FD491F9015C
:101D0000EC5BFE4FC491CC23C9F0162F81110E94C9
:101D1000350EEC2FF0E0EE0FFF1FEF58FE4FA591B0
:101D2000B4918FB7F894111105C09C91ED2FE095F7
:101D3000E92302C0EC91ED2BEC938FBFDF91CF91A3
:101D40001F910895CF93DF9390E0FC01E95EFE4F71
:101D50002491FC01EC5BFE4F8491882361F190E0BB
:101D6000880F991FFC01ED59FE4FC591D491FC01DC
:101D7000EF58FE4FA591B491611109C09FB7F89437
:101D80008881209582238883EC912E230BC06230BA
:101D900061F49FB7F8943881822F809583238883DC
:101DA000EC912E2B2C939FBF06C08FB7F894E8813F
:101DB0002E2B28838FBFDF91CF9108953FB7F894E2
:101DC0008091840690918506A0918606B091870641
:101DD00026B5A89B05C02F3F19F00196A11DB11D86
:101DE0003FBFBA2FA92F982F8827820F911DA11DC1
:101DF000B11DBC01CD0142E0660F771F881F991FFE
:101E00004A95D1F708958F929F92AF92BF92CF9249
:101E1000DF92EF92FF926B017C010E94DE0E4B017C
:101E20005C01C114D104E104F104F1F00E94DE0E62
:101E3000DC01CB0188199909AA09BB09883E9340A6
:101E4000A105B10570F321E0C21AD108E108F1083B
:101E500088EE880E83E0981EA11CB11CC114D10429
:101E6000E104F10419F7DDCFFF90EF90DF90CF9000
:101E7000BF90AF909F908F9008958F929F92AF9256
:101E8000BF92CF92DF92EF92FF920F931F93CF9367
:101E9000DF935C016B017A0180910803882309F4C8
:101EA0005BC080916A04882309F456C080918A0639
:101EB00080FF05C08091E00082608093E000E70130
:101EC00010E00AEF83E0882E9AE3992E2097D9F14B
:101ED0000E948C0D81110AC0015009F43DC061E0DF
:101EE00070E080E090E00E94030FF0CF282F30E0F8
:101EF000C217D3070CF48C2F4FB7F8948092E900E7
:101F00009091E80095FF1DC0282F30E0C21BD30B35
:101F1000F601982F915020F081918093F100FACF33
:101F2000C20ED31E112319F09092E80009C08091CF
:101F3000E80085FD06C09092E80011E0209709F0C6
:101F400010E04FBFC3CF1111C3CF5D9884E68093DB
:101F50008B061E141F0444F081E090E0F50193838A
:101F6000828380E090E001C0C701DF91CF911F9193
:101F70000F91FF90EF90DF90CF90BF90AF909F9028
:101F80008F9008952FB7F8946091590670915A0672
:101F900080915B0690915C062FBF08951F920F926F
:101FA0000FB60F9211242F933F938F939F93AF936C
:101FB000BF938091590690915A06A0915B06B0910B
:101FC0005C063091830623E0230F2D3720F4019621
:101FD000A11DB11D05C026E8230F0296A11DB11D4C
:101FE000209383068093590690935A06A0935B062C
:101FF000B0935C068091840690918506A091860638
:10200000B09187060196A11DB11D8093840690931F
:102010008506A0938606B0938706BF91AF919F91E6
:102020008F913F912F910F900FBE0F901F90189599
:102030001F920F920FB60F9211242F933F934F933D
:102040005F936F937F938F939F93AF93BF93EF9320
:10205000FF93E091FB02F091FC020995FF91EF9153
:10206000BF91AF919F918F917F916F915F914F91B0
:102070003F912F910F900FBE0F901F9018951F92B8
:102080000F920FB60F9211242F933F934F935F93AC
:102090006F937F938F939F93AF93BF93EF93FF9330
:1020A000E091F902F091FA020995FF91EF91BF9149
:1020B000AF919F918F917F916F915F914F913F91E0
:1020C0002F910F900FBE0F901F9018951F920F9297
:1020D0000FB60F9211242F933F934F935F936F93FB
:1020E0007F938F939F93AF93BF93EF93FF93E09171
:1020F000F702F091F8020995FF91EF91BF91AF912E
:102100009F918F917F916F915F914F913F912F910F
:102110000F900FBE0F901F9018951F920F920FB641
:102120000F9211242F933F934F935F936F937F935D
:102130008F939F93AF93BF93EF93FF93E091F5023B
:10214000F091F6020995FF91EF91BF91AF919F91A8
:102150008F917F916F915F914F913F912F910F9050
:102160000FBE0F901F9018951F920F920FB60F92EF
:1021700011242F933F934F935F936F937F938F938C
:102180009F93AF93BF93EF93FF93E091F302F0918E
:10219000F4020995FF91EF91BF91AF919F918F91BB
:1021A0007F916F915F914F913F912F910F900FBE53
:1021B0000F901F9018951F920F920FB60F92112437
:1021C0002F933F934F935F936F937F938F939F933F
:1021D000AF93BF93EF93FF938091B900887F8036D0
:1021E00009F49CC068F5883209F45BC090F4803132
:1021F00009F454C038F4882309F4F3C0883009F492
:102200004DC0F3C0883109F44CC0803209F45DC080
:10221000ECC0803409F468C048F4803309F455C038
:10222000883309F0E2C080939404D5C0803509F466
:102230004FC0883509F45DC0883409F0D6C0D3C0DA
:10224000883909F4C4C0A8F4883709F467C038F4A1
:10225000883609F463C0803709F460C0C6C0883886
:1022600009F4B5C0803909F45FC0803809F0BDC0F9
:102270005BC0803B09F483C038F4803A09F466C03F
:10228000883A09F47CC0B1C0803C09F4A4C0883C01
:1022900009F4A1C0883B09F487C0A7C080917104EC
:1022A00010C09091930480919204981770F5E0917A
:1022B000930481E08E0F80939304F0E0EE58FB4F7F
:1022C00080818093BB0085EC83C0809394048BC095
:1022D000E091930481E08E0F809393048091BB0082
:1022E000F0E0EE58FB4F808390919304809192042C
:1022F0006BC0E091930481E08E0F809393048091F2
:10230000BB00F0E0EE58FB4F808380919504811173
:102310006AC081E08093700484EA5EC083E08093A9
:10232000960410928206CFCF80918206803208F008
:102330004EC0E091820681E08E0F809382068091EC
:10234000BB00F0E0EE59F94F8083BDCF809182064B
:10235000803230F4E0918206F0E0EE59F94F1082BD
:102360000E945B166091820670E0E0916006F09139
:10237000610682E696E00995109282062CC084E000
:102380008093960410925F0610925806E0915D06C5
:10239000F0915E06099580915806811105C081E093
:1023A0008093580610923806E0915F0681E08E0F08
:1023B00080935F06F0E0E85CF94F80818093BB007A
:1023C00090915F0680915806981708F47CCF85E8B5
:1023D0008093BC000AC085EC8093BC0010929604E8
:1023E00004C0109294040E945B16FF91EF91BF917C
:1023F000AF919F918F917F916F915F914F913F919D
:102400002F910F900FBE0F901F90189540918E0640
:1024100050918F0620918C0630918D0642175307FC
:10242000B4F49091E8009570E1F39091E80092FD8A
:1024300019C08093F10080918E0690918F060196CD
:102440008F739927892B19F48EEF8093E800809180
:102450008E0690918F06019690938F0680938E063C
:1024600081E0089580E00895DF92EF92FF920F934C
:102470001F93CF93DF93D82E8A017B01E40EF51EC4
:10248000EB01CE15DF0571F0D7FE03C0FE0184918C
:1024900001C088810E94061221968111F2CF8FEF30
:1024A0009FEF01C0C801DF91CF911F910F91FF9065
:1024B000EF90DF900895615030F02091F100FC0121
:1024C00020830196F8CF289884E6809369040895C4
:1024D000CF92DF92EF92FF920F931F93CF93DF93F0
:1024E0006C017A018B01C0E0D0E0CE15DF0589F0E8
:1024F000D8016D918D01D601ED91FC910190F08193
:10250000E02DC6010995892B11F47E0102C02196A8
:10251000ECCFC701DF91CF911F910F91FF90EF900A
:10252000DF90CF9008950F931F93CF93DF931F9267
:10253000CDB7DEB782E0898342E450E06FE771E017
:1025400080E80E9434120E949D0DDC0112960D91CC
:102550001C9113970115110569F0D801ED91FC91BB
:102560000280F381E02DBE016F5F7F4FC8010995A6
:1025700097FF07C089810F90DF91CF911F910F9135
:102580000895F80100851185E5CF1F920F920FB6CF
:102590000F9211248F939F938091E1009091E1001D
:1025A000937F9093E10083FF0FC01092E90091E0C8
:1025B0009093EB001092EC0092E39093ED00109258
:1025C0006A0498E09093F00082FF20C093E090931B
:1025D000E9009091F200992319F09AE39093E800B2
:1025E00090918B06992339F090918B06915090939E
:1025F0008B06992389F190916904992339F0909180
:102600006904915090936904992341F184FF10C0AB
:102610008091E2008E7E81608093E2008091E100F3
:102620008F7E8093E10080918A068E7E806111C04A
:1026300080FF16C08091E2008E7E80618093E20070
:102640008091E1008E7E8093E10080918A068E7EEB
:10265000816080938A0604C05D9ACDCF289AD6CF38
:102660009F918F910F900FBE0F901F9018951F9202
:102670000F920FB60F921124CF92DF92EF92FF923A
:102680000F931F932F933F934F935F936F937F937A
:102690008F939F93AF93BF93EF93FF93CF93DF936A
:1026A000CDB7DEB76C97DEBFCDBF1092E900809149
:1026B000E80083FFEDC168E0CE0145960E945B1201
:1026C00082EF8093E8008D8987FF05C09091E80034
:1026D00090FFFCCF03C09EEF9093E800982F907678
:1026E00009F0C6C09E892F89188D91110CC08038C1
:1026F00029F4809189068093F10002C01092F100C4
:102700001092F10048C1422F50E0512B913051F40A
:10271000811141C14130510509F03DC180918906C7
:102720008D7F0BC0933061F4811135C1413051056B
:1027300009F031C1809189068260809389062BC19E
:10274000953041F48091E80080FFFCCF2068209311
:10275000E30021C1963009F05FC0EB8CFC8C109235
:10276000E90010928F0610928E06123091F51092A9
:102770008D0610928C060E94931299E0BE016F5F45
:102780007F4FDB01E92F1D92EA95E9F799831A83C0
:1027900091E09E8390EA98879AEF998720918E0620
:1027A00030918F06275F3F4F3C832B838D831092A0
:1027B000E90010928F0610928E06F0928D06E0923C
:1027C0008C0649E050E080E00E9434120E9493128F
:1027D000E2C0F0928D06E0928C060E949D0DDC0115
:1027E0001296ED90FC901397E114F10409F4C0C027
:1027F000D701ED91FC910480F581E02DBE016B5E67
:102800007F4FC7010995009719F00CF0C4C0C7C0ED
:10281000F701E084F184E8CF973009F4C0C0983024
:1028200021F481E08093F100B6C0993009F0B3C083
:10283000837009F0B4C0E6EDF3E081E021E036E317
:102840009081992361F08093E9002093EB009191AE
:102850009093EC003093ED008F5F873089F78EE71F
:102860008093EA001092EA008F8980936A0493C0F3
:102870008B8D9C8D1092E90010928F0610928E061F
:1028800090938D0680938C06898D811156C08E8918
:102890009D89913A59F4813209F081C047E050E0B6
:1028A00061E073E080E00E94341275C0913209F05B
:1028B00076C0833289F4888D90E0982F88272F89FD
:1028C000822BA0E0B0E08093FD029093FE02A093E3
:1028D000FF02B09300035FC0803269F48091E8008A
:1028E00082FFFCCF67E081E093E00E945B128BEFF8
:1028F0008093E80006C0823209F04DC08F89809332
:10290000080380918806882319F0EEEFFAE002C0F0
:10291000E0E0F8E08091010390910203A0910303AD
:10292000B0910403803B9440A105B10509F07BC040
:102930008091080380FF93C076C00E949D0DDC014A
:1029400012960D911C9113970115110541F1D801B3
:10295000ED91FC910190F081E02DBE016B5E7F4F07
:10296000C8010995811117C0F80100851185ECCFC8
:10297000113009F44EC0133091F48F89882309F483
:1029800045C0823081F440E860E183EE91E00E942E
:10299000DE22882321F08EEF8093E80079C081E267
:1029A0008093EB0075C0813029F440E86BE087ED3F
:1029B00091E0EDCF833099F70E949D0DDC011296D6
:1029C000ED90FC9013978E010F5F1F4F6801E1148B
:1029D000F10479F0D701ED91FC910680F781E02DAB
:1029E000B801C7010995080F111DF701E084F184B2
:1029F000EECFD8011C92F60101900020E9F7319743
:102A0000BF016C197D0940E0C601C1CF61EC71E0E6
:102A100002C065EC71E06115710509F2FB0144919A
:102A200050E080E840CF0FB6F894A8958091600000
:102A3000886180936000109260000FBEA895EE3F01
:102A40002AE0F20739F08091FE0A9091FF0A918303
:102A50008083A1CF1092FF0A1092FE0A9CCFEE3F16
:102A60008AE0F80731F0808191819093FF0A80938A
:102A7000FE0A87E797E7918380839BE088E10FB6A2
:102A8000F894A895809360000FBE9093600083CF68
:102A90006C960FB6F894DEBF0FBECDBFDF91CF911D
:102AA000FF91EF91BF91AF919F918F917F916F9126
:102AB0005F914F913F912F911F910F91FF90EF9058
:102AC000DF90CF900F900FBE0F901F90189561155B
:102AD000710579F0FB0101900020E9F73197AF0112
:102AE000461B570BDC01ED91FC910280F381E02D38
:102AF000099480E090E008954F925F926F927F92E8
:102B0000EF92FF920F931F93CF93DF93CDB7DEB772
:102B1000A1970FB6F894DEBF0FBECDBF7C01FA01BE
:102B2000CB0119A2223008F42AE08E010F5D1F4F5D
:102B3000422E512C612C712CBF01A30192010E94E5
:102B40006524F901CA01015011096A3014F4605D6D
:102B500001C0695CD8016C93232B242B252B61F7D2
:102B6000B801C7010E946715A1960FB6F894DEBFA1
:102B70000FBECDBFDF91CF911F910F91FF90EF90CE
:102B80007F906F905F904F9008950895E0910C04AE
:102B900080910B04E81730F4F0E0E057F94F8081A2
:102BA00090E008958FEF9FEF089590910C0480912D
:102BB0000B04981750F4E92FF0E0E057F94F20810B
:102BC00030E09F5F90930C0402C02FEF3FEFC901EC
:102BD000089580910B0490E020910C04821B9109D0
:102BE0000895CF92DF92EF92FF920F931F93CF93AE
:102BF000DF937C018A0180919704882389F0EB019F
:102C00006B01C40ED51ECC15DD05F1F06991D7011D
:102C1000ED91FC910190F081E02DC7010995F3CF72
:102C2000842F413288F490919604943069F4409353
:102C30005806FB0128E336E0D9019A2F921B98171A
:102C400018F491919D93F9CFC801DF91CF911F9115
:102C50000F91FF90EF90DF90CF900895209197040F
:102C60002223C9F02091BA04203240F021E030E064
:102C7000FC013383228380E090E0089580919804E2
:102C8000E82FF0E0E756FB4F60838F5F8093980456
:102C90008093BA0409C080919604843029F481E0BD
:102CA000809358066093380681E090E00895089577
:102CB00080E090E0089585ED8093BC008091BC0099
:102CC00084FDFCCF109296040895DC01FB014C9129
:102CD00011965C91119712967C91342F3F71330FAE
:102CE000330F832F880F35E5282F239F020E20E016
:102CF000211D1124642F6074942F907247FD21C010
:102D000061110BC0911104C0822F8095422F11C018
:102D100045E5420F30E02BEA33C091110DC0382F4A
:102D20004AEA349F030E30E0311D11248BEA831BE5
:102D3000420F282F30E024C080E0422F4095322FF0
:102D40000EC0611111C091110CC0382F2AEA329FB8
:102D5000030E30E0311D11244BEA431B3B5A20E0A7
:102D60000FC0322F30950BC0911104C085E5820F42
:102D70003BEA03C08AEA820F90E0321B282F40E032
:102D80005F3F11F15523E9F0222321F0259F020E28
:102D900020E0211D442321F0459F040E40E0411D09
:102DA000332321F0359F030E30E0311D112450955F
:102DB000559F050E50E0511D1124250F450F350F6D
:102DC00003C03FEF4FEF2FEF7F3F09F420C050E0EB
:102DD000772321F0779F512D09F05F5F5523A1F0F4
:102DE000222321F0259F020E20E0211D442321F003
:102DF000459F040E40E0411D332321F0359F030E13
:102E000030E0311D112403C030E040E020E0208399
:102E1000418332830895EF92FF920F931F93CF93D4
:102E2000DF93EC019091B0069F5F292F27702093CC
:102E3000B00690FF02C090E801C090E021FD9064D0
:102E4000247009F0906220E1290FFE013C967E017A
:102E50008FE0E80EF11C00E011E06191662331F093
:102E600070E0C8010E9435266F5F01C060E0DF019D
:102E700014976C93322F369F030E30E0311D1124CE
:102E8000CF010797311103C0EC01188203C0315004
:102E9000EC013883662311F061506C93EE15FF0549
:102EA000E1F6DF91CF911F910F91FF90EF90089580
:102EB000CF93DF93CDB7DEB7C25DD1090FB6F894DB
:102EC000DEBF0FBECDBF789484B5826084BD84B56B
:102ED000816084BD85B5826085BD85B5816085BD15
:102EE00080916E00816080936E00109281008091CD
:102EF0008100826080938100809181008160809355
:102F00008100809180008160809380008091910099
:102F10008260809391008091910081608093910004
:102F2000809190008160809390008091C1008460C6
:102F30008093C1008091C10082608093C100809124
:102F4000C10081608093C1008091C3008160809343
:102F5000C3008091C00082608093C0008091C20055
:102F600081608093C20080917A00846080937A00AF
:102F700080917A00826080937A0080917A008160EB
:102F800080937A0080917A00806880937A00109212
:102F90006A041092890610928A068091D700816097
:102FA0008093D70080EA8093D80089B5806189BD7D
:102FB00089B5826089BD09B400FEFDCF61E070E093
:102FC00080E090E00E94030F8091D8008F7C8061A8
:102FD0008093D8008091E000807F8093E000809112
:102FE000E1008E7E8093E1008DE08093E200559AAF
:102FF000209AEEEFFFE7859194918B3F9C4D19F459
:1030000081E08093880610925D0510925E05109213
:103010005F051092600510921B0510921C0510921E
:103020001D0510921E050E94C20F6B017C012B0131
:103030003C0138EB430E3BE0531E611C711C0E94A7
:10304000C20F6C157D058E059F0528F046165706A4
:1030500068067906A0F78DEB94E090935C05809369
:103060005B050BE110E0F09008036AE070E080E09F
:1030700090E00E94030FF1100AC00150110939F0CD
:1030800064E670E080E090E00E94030FECCFE091F6
:103090005B05F0915C058FEF9FEF958784870E9419
:1030A000C20F60931B0570931C0580931D059093C0
:1030B0001E056CED73E080915B0590915C050E94AC
:1030C00067150E94C20F6B017C012B013C014AE095
:1030D000440E511C611C711C0E94C20F6C157D05B1
:1030E0008E059F0528F04616570668067906A0F754
:1030F00081E080932F054091D7025091D80285E05E
:1031000098E0489F9001499F300D589F300D112441
:10311000275E394C3093D8022093D702A9E3B0E35D
:103120000E94B1249093300480932F048FEF9FEF7F
:103130009093CA048093C9048CE390E09093870530
:103140008093860584EB90E00E946A269093850523
:103150008093840584E690E090938C0580938B05A2
:1031600028EC30E03093900520938F0590938E05E6
:1031700080938D0584E180938A05B12C54E0B59E3F
:10318000F0011124E052FF4F85919591A591B491E2
:10319000B3948F3F99F7E0EEF0E0059115912591FA
:1031A0003491932F522FA12FAA24AA94C12CD12C51
:1031B00020EEE22E20E0F22E8E010F5F1F4F64E022
:1031C000E60EF11CF70145905590659074909601BC
:1031D00084E0359527958A95E1F7822FC42CD12C70
:1031E000442D42954F70BFE0BB1580F06A2D0A2C2C
:1031F000000C770B6217730744F0EEE0EA152CF031
:1032000081E08A0D481708F4482FA42ECF56DF4FCF
:103210005882C159D040CE56DF4F6882C259D04043
:10322000CD56DF4F7882C359D040A9835A839B8300
:1032300050E09E012F563F4FB80190E00E940D09CB
:10324000A52D562D972DFFEFCF16D10409F0B7CF3E
:10325000E0908605F0908705C0908405D0908505A4
:1032600080912704811145C010921904109218040E
:103270008FEF80931C0480931D0480931E04809321
:103280001F04809320048093210481E08093220412
:10329000109224041092230410921B0410921A041A
:1032A0008091BB049091BC04892B31F486E194E0B9
:1032B0009093BC048093BB04E0911404F091150436
:1032C000309721F086E194E09583848386E194E051
:1032D00090931504809314041092260410922504F0
:1032E00083EA93E0909317048093160481E080931F
:1032F0002704E0911604F09117040480F581E02D75
:1033000086E194E00995D0921904C0921804F092D5
:103310002404E0922304E0911604F091170402843F
:10332000F385E02D86E194E00995009711F19C0169
:1033300040E050E060E472E48FE090E00E94872477
:10334000C0906405D0906505E0906605F090670533
:10335000C901DA018C159D05AE05BF0510F4D70132
:10336000C6018093640590936505A0936605B093AC
:103370006705E091BB04F091BC04309729F01486F6
:103380000480F581E02DF9CF10926C0410926B044B
:103390000E94A1050E94AB0910920C0410920B042C
:1033A000109298041092BA041092960481E08093CF
:1033B00095041092700461E082E00E94720E61E058
:1033C00083E00E94720E8091B9008E7F8093B900D5
:1033D0008091B9008D7F8093B90088E48093B80014
:1033E00085E48093BC0060E870E08BE690E00E948A
:1033F0003B0B62E370E080E090E00E94030F61E02D
:1034000070E089E190E00E943B0B63E070E08BE6A6
:1034100090E00E943B0B6EE170E080E090E00E9443
:10342000030F68E170E08BE190E00E943B0B6EE1DE
:1034300070E080E090E00E94030F68EE70E08CE1A5
:1034400090E00E943B0B64E170E080E090E00E941D
:10345000030F80E090E00E943F248A3239F481E03B
:1034600090E00E943F24882309F44FC762E088E07F
:103470000E94A20E62E08FE00E94A20E62E080E154
:103480000E94A20E61E08EE00E94A20E60E08EE03B
:103490000E94720E61E086E00E94A20E60E086E06B
:1034A0000E94720E80918305823030F4F89488E790
:1034B00095E00E94650401C0F8947894F894109205
:1034C0007F051092800510928105109282057894F4
:1034D0000E943E0D8093D9020E94A10561E08AE01E
:1034E0000E94A20E81E18093C00081E08093C10020
:1034F00080E48093C4001092C30080E88093D100E0
:103500001092800089E08093810080E092E09093A7
:1035100089008093880080916F00826080936F00A3
:1035200021E930E02C0F3D1F235F3F4FCF52DF4F8B
:1035300039832883C15DD0400E94C20F672B682B5E
:10354000692B41F40E94C20F62307105810591051B
:1035500008F41CC10E94C20F609365047093660456
:103560008093670490936804C0906104D0906204D3
:10357000E0906304F09064046C157D058E059F0552
:1035800040F46093610470936204809363049093A9
:103590006404C0906104D0906204E0906304F090F1
:1035A00064049B01AC012C193D094E095F096901B6
:1035B0007A013AEFC316D104E104F10408F4E6C03D
:1035C0006093610470936204809363049093640435
:1035D00084EF91E0A0E0B0E0809327059093280568
:1035E000A0932905B0932A0510922B0510922C0563
:1035F00010922D0510922E0580911F0590912005A7
:10360000A0912105B0912205809323059093240574
:10361000A0932505B09326050E94C20F60931F0555
:103620007093200580932105909322050E94C20F7C
:1036300060931B0570931C0580931D0590931E05D8
:103640000E94C20F6B017C016EEE73E080915B05FE
:1036500090915C050E9467152AE041E050E060E02F
:1036600070E080915B0590915C050E947C1565EF90
:1036700073E080915B0590915C050E9467152AE0DC
:10368000B701A60180915B0590915C050E947C15B5
:1036900067EF73E080915B0590915C050E94671570
:1036A00080911F0590912005A0912105B0912205E0
:1036B000B701A601481B590B6A0B7B0B2AE08091CE
:1036C0005B0590915C050E947C1567EF73E080912B
:1036D0005B0590915C050E94671540911F05509114
:1036E000200560912105709122058091230590911C
:1036F0002405A0912505B0912605481B590B6A0B9E
:103700007B0B2AE080915B0590915C050E947C1503
:1037100069EF73E080915B0590915C050E946715ED
:103720000E94C20FAB01BC012AE080915B05909121
:103730005C050E947C15E0905B05F0905C056BEFEA
:1037400073E0C7010E9467156BEE73E0C7010E942A
:1037500067150E94C20F2B013C016B017C0192E0B6
:10376000C90ED11CE11CF11C0E94C20F6415750525
:103770008605970508F011C60E94C20F60931F05C9
:1037800070932005809321059093220580915F041A
:1037900090916004A1E08A279093600480935F0475
:1037A00080FF7EC069E574E083E40E948506609135
:1037B000590470915A04262F2F70809139049091EA
:1037C0003A04880F991F822790933A048093390412
:1037D000072E000C880B990B0E94222369837A83A1
:1037E0008B839C8360915D0470915E04072E000CB6
:1037F000880B990B0E9422236D837E838F83988789
:1038000019861A861B861C86C8010E9449066B0110
:103810007C0140905504509056046090570470907D
:1038200058049B01AC01C301B2010E94C02420E0F6
:1038300030E046E953E40E942D259B01AC01C30111
:10384000B2010E94C0249B01AC01609355047093A7
:1038500056048093570490935804C701B6010E9400
:10386000C02420E030E048E452E40E942D2520915D
:1038700051043091520440915304509154040E94D9
:10388000C12420E030E040E05FE30E9481236093A8
:103890005104709352048093530490935404E2C0F3
:1038A0006BE474E08BE30E948506E0904B04F0909B
:1038B0004C042E2D2F708091390490913A04880F7A
:1038C000991F822790933A048093390460914D04A4
:1038D00070914E04072E000C880B990B0E94222336
:1038E0002091430430914404409145045091460492
:1038F0000E94C1244B015C0160914F0470915004FF
:10390000072E000C880B990B0E942223209147045C
:10391000309148044091490450914A040E94C124C6
:103920002B013C01B701FF0C880B990B0E9422234D
:1039300020913F0430914004409141045091420451
:103940000E94C12424EA30E74DE75FE30E9481230F
:1039500060933F0470934004809341049093420429
:1039600024EA30E74DE75FE3C501B4010E948123FB
:1039700060934304709344048093450490934604F9
:1039800024EA30E74DE75FE3C301B2010E948123DF
:1039900060934704709348048093490490934A04C9
:1039A0008FE394E00E94490620E030E44CE156E4C5
:1039B0000E942D256B017C014090EF025090F00297
:1039C0006090F1027090F2029B01AC01C301B20160
:1039D0000E94C02420E030E040E251E40E942D2506
:1039E0009B01AC01C301B2010E94C0246093EF02AD
:1039F0007093F0028093F1029093F202A701960176
:103A00000E94C0246B017C0120E030E0A9010E94EB
:103A1000D525181624F0F7FAF094F7F8F094C701BA
:103A2000B6010E94E0256B017C0120E030E040E817
:103A30005FE30E94D52518164CF0C0923B04D0924B
:103A40003C04E0923D04F0923E040CC080E090E023
:103A5000A0E8BFE380933B0490933C04A0933D0413
:103A6000B0933E040E943E0D9091D902891709F44B
:103A700041C0909131049F5F90933104933028F0BE
:103A80008093D902813059F41AC0C253DF4FB881F4
:103A9000CE5CD040B13019F0B23089F030C081E056
:103AA00080936F0488EC90E090930E0480930D0453
:103AB000E1E0C253DF4FE883CE5CD04045C0809147
:103AC0006F04813041F48091120490911304892B8A
:103AD00011F40E94070510926F040E94A105109234
:103AE0000E0410920D04F2E0C253DF4FF883CE5C57
:103AF000D0402AC0C253DF4F1882CE5CD0408091A4
:103B00000D0490910E0418161906F4F40197909381
:103B10000E0480930D04892BB9F4809112049091C6
:103B200013048330910534F48130910544F4892BDA
:103B300019F007C0039729F40E94070502C00E94EC
:103B4000BF0484E080936F040E945C078091390475
:103B500090913A04837099272091ED023091EE0202
:103B6000820F931F9093EC028093EB028091E90205
:103B70009091EA029093E8028093E702EFEEF0E082
:103B8000E49120917B00E3FB332730F9C153DF4FF1
:103B90003883CF5CD040C053DF4F1882C05DD04027
:103BA000C153DF4F88819981CF5CD040F5E0880F09
:103BB000991FFA95E1F7922F9F7D892B80937B00C7
:103BC000E770E064E0937C0080917A0080648093E9
:103BD0007A0080917A0086FDFCCF80917800209158
:103BE000790090E0922B803791400CF5809137045A
:103BF000909138040097C9F484E090E09093130406
:103C00008093120480913604811106C081E0809374
:103C1000360488EC90E004C01092360480E991E00C
:103C200090933804809337040AC00197F9CF80E954
:103C300091E09093380480933704109236040E94E8
:103C40005C0780911204909113048230910509F46D
:103C50007DC22CF4009759F0019759F14EC383307F
:103C6000910509F4BFC2049709F415C346C3109225
:103C700011041092100410920F041092320410924A
:103C80003304109234041092350420E030E048EC04
:103C900052E46091510470915204809153049091C8
:103CA00054040E94D52518160CF027C30E9407055E
:103CB00024C3C0905104D0905204E0905304F0907B
:103CC000540420E030E0A901B601C7010E941B2383
:103CD00087FD11C020E030E04CE053E4B601C7019D
:103CE0000E94D525181664F4612C712C60EFA62E65
:103CF00072E4B72E07C0612C712CA12CB12C02C02C
:103D0000360157012090320430903304409034043F
:103D100050903504A2019101B301C5010E94D5253F
:103D200018165CF4C301D5018093320490933304D8
:103D3000A0933404B093350439C06091E5027091CA
:103D4000E602072E000C880B990B0E94222320E02C
:103D500030E040E256E40E942D252AE939E949E79E
:103D60005FE30E94C1249B01AC01C201B1010E942A
:103D700081236093320470933304809334049093CE
:103D800035042DEC3CEC4CEC5FE30E942D25362EE7
:103D9000872E2C01262F372FAC01B301C5010E94BD
:103DA000D52518161CF0632C782C520120E030E049
:103DB00040E85BE3B301C5010E9481232B013C0174
:103DC0006091E40270E080E090E00E9422239B0179
:103DD000AC01C301B2010E9481232B013C01A090E0
:103DE0000F042A2C312CB101032C000C880B990BE9
:103DF0000E9422234B015C019B01AC01C301B20173
:103E00000E94D52518165CF0A5019401C301B201EA
:103E10000E941B2387FF06C068EF7FEF05C060E1AB
:103E200070E002C060E070E02FEF30E040E050E072
:103E3000C1010E94420780930F046091E2027091D9
:103E4000E302072E000C880B990B0E9422239B0192
:103E5000AC01B601C7010E942D256B017C01609168
:103E6000E9027091EA02072E000C880B990B0E9460
:103E70002223A70196010E94C1240E949F257093CE
:103E8000E8026093E7026091E0027091E102072E80
:103E9000000C880B990B0E942223A70196010E9417
:103EA000C1240E949F257093DF026093DE0244E8E4
:103EB000C42E45E0D42E54E6A52EB12CB601CE0179
:103EC0008F569F4F0E9414057801CD56DF4F6881B1
:103ED0007981C359D040C701801B910B8617970782
:103EE000A4F4C5010E94352632E0832E860E0E947E
:103EF000E808889DB0011124D7012C91271B08F4F4
:103F000020E0F70121937F01E0CFF801E60FF71FD2
:103F10003197CF01801B910B029784F0DF0112973C
:103F20002C9111968C9190E0820F911D820F911D22
:103F300063E070E00E9435266083EACF0E94E808C3
:103F40008837D0F40E94E808F7E08F9FC001112461
:103F5000E92EFF24E7FCFA940E94E8082FE5829FEF
:103F6000C001112430EA390FF801EE0DFF1D208148
:103F7000230F08F42FEF2083F80120E030E0CD5626
:103F8000DF4F48815981C359D040CF01801B910B2D
:103F9000841795070CF061C05191652F62956F7081
:103FA0005F70862F880F860FCF52DF4FA881B981AF
:103FB000C15DD040A80FB11D4C9111969C911197F5
:103FC00012968C911297552309F436C06F3011F078
:103FD000139606C0CF52DF4FA881B981C15DD04092
:103FE0005295507F752F70956C91479F040E40E05D
:103FF000411D659F060E60E0611D460F1196FC9005
:104000001197692F679F060E60E0611D962F6F2D37
:10401000659F060E60E0611D960F1296AC91682FA9
:10402000679F060E60E0611D862F6A2F659F060E52
:1040300060E0611D860F1124CF56DF4FA881B98142
:10404000C159D040A20FB31F4C9311969C93119766
:1040500012968C932D5F3F4F92CF8DE3C80ED11CEB
:104060009EEFC91695E0D90609F028CF0E94AB094A
:10407000C0903B04D0903C04E0903D04F0903E049E
:1040800020E030E040E85FE3B601C7010E94D5259B
:1040900018163CF4712C812C80E8A82E9FE3B92ED1
:1040A00003C07C2C8D2C570120E030E040E052E42E
:1040B000672D782DC5010E9481230E949F25685F8E
:1040C0006090E402669DB00111247093110420E019
:1040D00030E040E252E4672D782DC5010E94812333
:1040E0000E949F25645F669D3001112420910F047A
:1040F00030E0872D90E08217930708F4C901809380
:1041000010042DEC3CEC4CEC5EE3B601C7010E94C0
:104110001B2387FF60C020E030E040E251E4609163
:1041200051047091520480915304909154040E9460
:104130001B2387FF50C08091DC029091DD02009725
:1041400019F40E94BF04D9C0019747C020916B04A5
:1041500030916C042436310564F58091DA02909137
:10416000DB02820F931F8536910514F084E690E000
:1041700090936C0480936B040E94A1058091E402EB
:10418000A8E28A9F9001112430931104BCE88B9F10
:104190009001112430931004E8E78E9FC001112490
:1041A00090930F0420916B0430916C0484E690E0AE
:1041B00056C081E090E0909313048093120420E0B5
:1041C00030E048EC52E42093510430935204409381
:1041D00053045093540480E49FE19093DD02809354
:1041E000DC028BC080916B0490916C041816190648
:1041F0000CF04CC0019790936C0480936B040E9468
:10420000A10520916B0430916C044091E402429F1F
:10421000C001439F900D112468E770E00E9435268D
:104220008091110490E0462F861797070CF4482FD1
:10423000409311048091100490E0462F8617970751
:104240000CF4482F4093100480910F0490E08617DF
:1042500097070CF4BC0160930F0488E790E0821B81
:10426000930B2091E9023091EA02280F391F309315
:10427000E8022093E7022091E0023091E102820FF0
:10428000931F9093DF028093DE0237C010921304D5
:104290001092120432C080916B0490916C04181635
:1042A00019063CF4019790936C0480936B040E9470
:1042B000A10580913604882311F08FEF01C080E0C2
:1042C000E0918405F09185058083118212820E941D
:1042D000AB091092110410921004809136048111E0
:1042E00003C010920F0409C080E091E09093DF02B8
:1042F0008093DE028FEF80930F0480E090E0892BA3
:1043000009F41AC90E94000017C982E090E00E94D7
:104310003F2490E090936E0480936D0483E090E0DE
:104320000E943F248093E40284E090E00E943F24B6
:1043300090E09093EE028093ED0285E090E00E9481
:104340003F2490E09093EA028093E90286E090E0B7
:104350000E943F2490E09093E1028093E00287E086
:1043600090E00E943F2490E0805891099093E302EE
:104370008093E2028CE090E00E943F2490E09093D2
:10438000E6028093E5028BE090E00E943F2490E0FB
:104390009093DB028093DA0269C8C616D706E80656
:1043A000F90608F0E1C9E8C9CF93DF931092C00481
:1043B0001092BF0488EE93E0A0E0B0E08093C104C7
:1043C0009093C204A093C304B093C40425EB33E0DC
:1043D0003093BE042093BD042FEF3FEF3093CA0407
:1043E0002093C9041092100510920F0580931105B7
:1043F00090931205A0931305B093140587EC93E0F6
:1044000090930E0580930D0510921F0510922005C4
:104410001092210510922205109223051092240576
:104420001092250510922605109227051092280556
:104430001092290510922A0510922B0510922C0536
:1044400010922D0510922E058FEF8093610510922A
:1044500063051092620510926D0510926C054FEF86
:104460005FEFBA01409368055093690560936A0550
:1044700070936B0524E630E030936F0520936E0552
:104480008093140680931506809316068093170672
:10449000809318068093190690E890931A0610925C
:1044A0001B0690931C0610921D0690931E061092F8
:1044B0001F06109220061092210680932206109269
:1044C0002306109224068093250680932606809367
:1044D0002706109228068093290695EA90932A06CB
:1044E00010922B0680932C0690932D0610922E0688
:1044F00080932F0610923006109231068093320678
:104500001092330610923406109235061092360639
:104510001092370610928505109284051092C205FC
:104520001092C10562E08FE00E94A20E62E080E17D
:104530000E94A20EE3E5F1E0E491F0E0EE0FFF1F30
:10454000EA5CFE4FA591B491B0937905A0937805EC
:10455000E6E2F1E0849180937C05E4E5F1E0E4910A
:10456000F0E0EE0FFF1FEA5CFE4FC591D491D093AF
:104570007B05C0937A05E7E2F1E0E491E0937D05E5
:1045800010927F051092800510928105109282058D
:10459000EBE3FFE13197F1F7EC91E82381E009F4D7
:1045A00080E0288190917D05922309F082608093BC
:1045B0007E0510928305DF91CF910895CF92DF920F
:1045C000EF92FF920F931F93CF93DF931F92CDB77C
:1045D000DEB7182F062FE42E862F880F8E5F998363
:1045E0000E94061283E00E940612F12EC12E9981CC
:1045F000D92E8C2D8F19801798F4F601E7FE02C092
:10460000849101C080810E940612182F80E00E94D0
:1046100006128123FFEFCF1ADF0A8111EACF01C012
:1046200081E00F90DF91CF911F910F91FF90EF905C
:10463000DF90CF9008950E945D2308F481E00895F3
:10464000E89409C097FB3EF490958095709561952C
:104650007F4F8F4F9F4F9923A9F0F92F96E9BB27E2
:104660009395F695879577956795B795F111F8CF5E
:10467000FAF4BB0F11F460FF1BC06F5F7F4F8F4FC9
:104680009F4F16C0882311F096E911C0772321F0BF
:104690009EE8872F762F05C0662371F096E8862F57
:1046A00070E060E02AF09A95660F771F881FDAF7AE
:1046B000880F9695879597F90895990F0008550FDB
:1046C000AA0BE0E8FEEF16161706E807F907C0F098
:1046D00012161306E407F50798F0621B730B840BA0
:1046E000950B39F40A2661F0232B242B252B21F47A
:1046F00008950A2609F4A140A6958FEF811D811D1A
:1047000008950E9494230C9405240E94F72338F006
:104710000E94FE2320F0952311F00C94EE230C94BC
:10472000F42311240C9439240E94162470F3959FCD
:10473000C1F3950F50E0551F629FF001729FBB2798
:10474000F00DB11D639FAA27F00DB11DAA1F649F34
:104750006627B00DA11D661F829F2227B00DA11DE7
:10476000621F739FB00DA11D621F839FA00D611D6D
:10477000221F749F3327A00D611D231F849F600D8E
:10478000211D822F762F6A2F11249F5750409AF0B7
:10479000F1F088234AF0EE0FFF1FBB1F661F771F43
:1047A000881F91505040A9F79E3F510580F00C940E
:1047B000EE230C9439245F3FE4F3983ED4F38695BE
:1047C00077956795B795F795E7959F5FC1F7FE2BAE
:1047D000880F911D9695879597F9089597F99F678A
:1047E00080E870E060E008959FEF80EC0895002479
:1047F0000A941616170618060906089500240A9446
:1048000012161306140605060895092E0394000CCB
:1048100011F4882352F0BB0F40F4BF2B11F460FF5A
:1048200004C06F5F7F4F8F4F9F4F089557FD905883
:10483000440F551F59F05F3F71F04795880F97FB64
:10484000991F61F09F3F79F087950895121613061E
:104850001406551FF2CF4695F1DF08C0161617064D
:104860001806991FF1CF8695710561050894089582
:10487000E894BB2766277727CB0197F90895F99924
:10488000FECF92BD81BDF89A992780B50895262F55
:10489000F999FECF1FBA92BD81BD20BD0FB6F89425
:1048A000FA9AF99A0FBE01960895DB018F939F93B0
:1048B0000E94A624BF91AF91A29F800D911DA39F3E
:1048C000900DB29F900D11240895A1E21A2EAA1BFB
:1048D000BB1BFD010DC0AA1FBB1FEE1FFF1FA217B0
:1048E000B307E407F50720F0A21BB30BE40BF50BAD
:1048F000661F771F881F991F1A9469F76095709536
:10490000809590959B01AC01BD01CF010895052EC6
:1049100097FB1EF400940E949E2457FD07D00E942E
:10492000652407FC03D04EF40C949E2450954095CA
:10493000309521953F4F4F4F5F4F0895909580954B
:10494000709561957F4F8F4F9F4F08950E94B124BE
:10495000A59F900DB49F900DA49F800D911D1124D3
:104960000895A29FB001B39FC001A39F700D811D48
:104970001124911DB29F700D811D1124911D089568
:104980005058BB27AA270E94D8240C9405240E94C3
:10499000F72338F00E94FE2320F039F49F3F19F4EA
:1049A00026F40C94F4230EF4E095E7FB0C94EE232C
:1049B000E92F0E94162458F3BA1762077307840779
:1049C000950720F079F4A6F50C9438240EF4E095C0
:1049D0000B2EBA2FA02D0B01B90190010C01CA01B9
:1049E000A0011124FF27591B99F0593F50F4503E64
:1049F00068F11A16F040A22F232F342F4427585F56
:104A0000F3CF469537952795A795F0405395C9F76D
:104A10007EF41F16BA0B620B730B840BBAF0915025
:104A2000A1F0FF0FBB1F661F771F881FC2F70EC0C4
:104A3000BA0F621F731F841F48F487957795679597
:104A4000B795F7959E3F08F0B0CF9395880F08F083
:104A50009927EE0F9795879508950E9441250C940C
:104A600005240E94FE2358F00E94F72340F029F409
:104A70005F3F29F00C94EE2351110C9439240C94CF
:104A8000F4230E94162468F39923B1F3552391F37C
:104A9000951B550BBB27AA2762177307840738F0AD
:104AA0009F5F5F4F220F331F441FAA1FA9F335D00A
:104AB0000E2E3AF0E0E832D091505040E695001CBE
:104AC000CAF72BD0FE2F29D0660F771F881FBB1F78
:104AD000261737074807AB07B0E809F0BB0B802D56
:104AE000BF01FF2793585F4F3AF09E3F510578F082
:104AF0000C94EE230C9439245F3FE4F3983ED4F3F6
:104B0000869577956795B795F7959F5FC9F7880F55
:104B1000911D9695879597F90895E1E0660F771FA7
:104B2000881FBB1F621773078407BA0720F0621B38
:104B3000730B840BBA0BEE1F88F7E09508950E9463
:104B4000A6256894B1110C94392408950E941E245E
:104B500088F09F5798F0B92F9927B751B0F0E1F03E
:104B6000660F771F881F991F1AF0BA95C9F714C0EE
:104B7000B13091F00E943824B1E008950C943824AB
:104B8000672F782F8827B85F39F0B93FCCF3869527
:104B900077956795B395D9F73EF490958095709584
:104BA00061957F4F8F4F9F4F08950E945D2308F4BA
:104BB0008FEF089519F416F40C94F4230C94202626
:104BC0000E941E24B8F39923C9F3B6F39F57550BDF
:104BD00087FF0E942E260024A0E640EA900180581C
:104BE0005695979528F4805C660F771F881F20F0F4
:104BF00026173707480730F4621B730B840B2029F4
:104C000031294A2BA69517940794202531254A2748
:104C100058F7660F771F881F20F0261737074807B9
:104C200030F4620B730B840B200D311D411DA095D8
:104C300081F7B901842F9158880F9695879508952B
:104C40009F3F31F0915020F4879577956795B79500
:104C5000880F911D9695879597F90895915050402A
:104C6000660F771F881FD2F7089597FB072E16F45B
:104C7000009407D077FD09D00E94562607FC05D086
:104C80003EF4909581959F4F0895709561957F4F63
:104C90000895EE0FFF1F0590F491E02D09940E94F6
:104CA000B124B7FF0895821B930B0895AA1BBB1B69
:104CB00051E107C0AA1FBB1FA617B70710F0A61B1C
:104CC000B70B881F991F5A95A9F780959095BC013D
:104CD000CD010895CF93DF938230910510F482E0E7
:104CE00090E0E091B306F091B40620E030E0C0E03F
:104CF000D0E0309711F14081518148175907C0F039
:104D00004817590761F482819381209719F09B839A
:104D10008A832BC09093B4068093B30626C02115D6
:104D2000310519F04217530718F49A01BE01DF014B
:104D3000EF010280F381E02DDCCF2115310509F16F
:104D4000281B390B2430310590F412968D919C91DB
:104D500013976115710521F0FB019383828304C0D1
:104D60009093B4068093B306FD01329644C0FD01D2
:104D7000E20FF31F81939193225031092D933C93BD
:104D80003AC02091B1063091B206232B41F4209114
:104D90000B0330910C033093B2062093B10620919F
:104DA000090330910A032115310541F42DB73EB7AF
:104DB00040910D0350910E03241B350BE091B10679
:104DC000F091B206E217F307A0F42E1B3F0B281751
:104DD000390778F0AC014E5F5F4F2417350748F074
:104DE0004E0F5F1F5093B2064093B106819391938B
:104DF00002C0E0E0F0E0CF01DF91CF9108950F9382
:104E00001F93CF93DF93009709F48CC0FC01329776
:104E1000138212820091B3061091B4060115110598
:104E200081F420813181820F931F2091B10630914E
:104E3000B2062817390779F5F093B206E093B10668
:104E400071C0D80140E050E0AE17BF0750F4129691
:104E50002D913C911397AD012115310509F1D9012F
:104E6000F3CF9D01DA013383228360817181860F44
:104E7000971F8217930769F4EC0128813981260F67
:104E8000371F2E5F3F4F318320838A819B8193831D
:104E90008283452B29F4F093B406E093B30642C015
:104EA0001396FC93EE931297ED01499159919E014F
:104EB000240F351FE217F30771F480819181840F6D
:104EC000951F029611969C938E93828193811396DF
:104ED0009C938E931297E0E0F0E0D80112968D91AA
:104EE0009C911397009719F0F8018C01F6CF8D91E2
:104EF0009C9198012E5F3F4F820F931F2091B10626
:104F00003091B2062817390769F4309729F41092C6
:104F1000B4061092B30602C0138212821093B20636
:104F20000093B106DF91CF911F910F91089581E019
:0C4F300090E0F8940C949C27F894FFCFBC
:104F3C007A736E625D5F63707B85939EABB4C1C9FF
:104F4C00CCCAC0B9B3ACAAA3A0A19891877665537B
:104F5C004537342E2225282F3C485360747C8A9583
:104F6C0099A4A29F9A95908B8D8D8F9093969797DD
:104F7C00928B8678645A4E484A4D555D6F8597AB37
:104F8C00BAC7CACAC9BCB6AEA29E9E9D9792897872
:104F9C006A554941373634333D45506172828F9999
:104FAC009CA2A19890887F7677767B8782817C7A89
:104FBC0087919C998D7F7365564C494B53606F7CE0
:104FCC008B98A4B0BAC6CAC0AF93715238261E1DB6
:104FDC002632455C738998A2A9ADA89E92837872FB
:104FEC006C6B7179828D96989492939499A0A7A8E2
:104FFC00A5A39F98928F88837A6C5E504743445048
:10500C0061718397A6B5C1CCD1C8BAA07E5E412C84
:10501C001D171B24344A63798C9AA1A7A59C9081F7
:10502C00766E68666A727A838B8D898687888E998C
:10503C00A1A6A6A6A39C9899969182827565554BBC
:10504C005E747C71575889AEB3C8D4BD834B34425F
:10505C006D9FD6F7F5D6B5A89B8B775731191B29C1
:10506C003C6499BEBA9F87766B66676E7E959E8E02
:10507C00755C575D5F6362615B56575664829FB87F
:10508C00CFE0E2D9C39D847D7A7A7B8590988E722D
:10509C00615C6A81949D9F947A5E483D383E4A5D7E
:1050AC00748085827C7773767D96B4C5C5BEB5A6B3
:1050BC0093826E5A56595C6066696D6F696C78881C
:1050CC0093A1A7A4A09D9E9E998D837D736D747FE3
:1050DC0080786A5745373647647A8B938E8B8E99D6
:1050EC00A8B5BEC5C7BCA8988E8B877F797F8080FA
:1050FC007E72685E595C5C646F7D80766B626974ED
:10510C007F8A929590867B3905010200401F3400FE
:10511C0034002800F08000320032002F002F00CD28
:10512C00CCD441EC0DEC0DEC0DEC0DEC0DFFFFFFB8
:10513C00FF00E10000000000000000B5068000B494
:10514C0000C800D200DC00B400C000F000D2001E89
:10515C00001E002300280028002D00F6FF1E00343E
:10516C0000330036003C003400390032002F00328E
:10517C0000320037003C003200320032002F002F8A
:10518C000030002F0032002F00320031002D0003C0
:10519C00000200020003000200030002000100FFF5
:1051AC0000FF00FF002000FF00FF00FF00FF009049
:1051BC0000600040009000A000C000200000000033
:1051CC00000000330E330E330E6E016A01670100CE
:1051DC00000000DE03210428016E016A0125019202
:1051EC000100000000B10D3D0FED0DC70DD20D15E6
:1051FC000EF10D000000002E16F1155816C515E91C
:10520C0015D515C61500C18081000000564D4450BF
:10521C00565F317C315F564D4450560D0A00564D49
:10522C004450455F003A323A007C005F564D445082
:02523C0045002B
:00000001FF
