:100000000C9473000C94610C0C943A0C0C949B00AF
:100010000C949B000C949B000C949B000C949B00F4
:100020000C949B000C949B000C949B000C94380641
:100030000C949B000C949B000C949B000C949B00D4
:100040000C94F00B0C949B000C94BE0A0C94980A30
:100050000C949B000C949B000C949B000C949B00B4
:100060000C94880C0C949B00E1071F083108890848
:100070009E08A908BD08C808D308DE08E90800FFE3
:100080001A1A80CC0000FFB300000000000024001A
:1000900027002A0000000000250028002B00000097
:1000A0000008000201000003040700000000000037
:1000B0000000010204081020408001020408102002
:1000C000010204081020000000002300260029007F
:1000D00004040404040404040202020202020303EE
:1000E00003030303251A11241FBECFEFD8E0DEBFA0
:1000F000CDBF14E0A0E0B1E0E0E7F0E402C005907D
:100100000D92A230B107D9F726E0A2E0B4E001C019
:100110001D92A83AB207E1F710E0C3E7D0E004C0AF
:100120002197FE010E94E31EC237D107C9F70E9442
:1001300064110C9436200C94000080E991E008953D
:100140003A9A08954F925F926F927F928F92AF92F8
:10015000BF92CF92EF92FF920F931F93CF93DF93B3
:100160003C01EB010E94850BF30127853089621B5E
:10017000730B6A307105B0F3F894E881F98158B1D6
:10018000546088B18B7F88B96A859F81262F291B8F
:10019000922F2F83BF844A805B807D85FC84EE8410
:1001A0007F5FF394E3943E814885A984CB841181D9
:1001B000D20120E0C32F022F322F318111278894E2
:1001C0003111390F08F43FEF9195889470FD130FAA
:1001D0001795889471FD130F1795889472FD130F6E
:1001E0001795889473FD130F1795889474FD130F5A
:1001F0001795889475FD130F1795889476FD130F46
:100200001795889477FD130F17958894232F7111F4
:10021000212F960F122F002C58B900C017FF88B954
:1002200030812227889400C000C0002C88B9311189
:100230003C0F00C0002C58B900C016FF88B908F464
:100240003FEFC195889400C000C0002C88B9F0FC35
:10025000230F00C0002C58B900C015FF88B927959E
:100260008894F1FC230F00C000C0002C88B92795AA
:10027000889400C0002C58B900C014FF88B9F2FC63
:10028000230F2795889400C000C0002C88B9F3FC88
:10029000230F00C0002C58B900C013FF88B9279560
:1002A0008894F4FC230F00C000C0002C88B9279567
:1002B000889400C0002C58B900C012FF88B9F5FC22
:1002C000230F2795889400C000C0002C88B9F6FC45
:1002D000230F00C0002C58B900C011FF88B9279522
:1002E0008894F7FC230F00C000C0002C88B9279524
:1002F000889400C0002C58B900C010FF88B9132F93
:10030000F110122FCA0D00C000C0002C88B900C027
:1003100000C0002C58B900C017FF88B932812227CD
:10032000889400C000C0002C88B93111340F00C07F
:10033000002C58B900C016FF88B908F43FEFEB0D48
:10034000F11D00C000C0002C88B9E0FC230F00C0E4
:10035000002C58B900C015FF88B927958894E1FC96
:10036000230F00C000C0002C88B92795889400C0D6
:10037000002C58B900C014FF88B9E2FC230F279560
:10038000889400C000C0002C88B9E3FC230F00C093
:10039000002C58B900C013FF88B927958894E4FC55
:1003A000230F00C000C0002C88B92795889400C096
:1003B000002C58B900C012FF88B9E5FC230F27951F
:1003C000889400C000C0002C88B9E6FC230F00C050
:1003D000002C58B900C011FF88B927958894E7FC14
:1003E000230F00C000C0002C88B92795889400C056
:1003F000002C58B900C010FF88B9132FE110122F3C
:10040000419500C000C0002C88B94C0D00C000C050
:1004100058B900C017FF88B931812227889400C0DD
:1004200000C0002C88B93111390F00C0002C58B918
:1004300000C016FF88B908F43FEF9195889400C07A
:1004400000C0002C88B970FD230F00C0002C58B9E3
:1004500000C015FF88B92795889471FD230F00C04F
:1004600000C0002C88B92795889400C0002C58B98A
:1004700000C014FF88B972FD230F2795889400C02F
:1004800000C0002C88B973FD230F00C0002C58B9A0
:1004900000C013FF88B92795889474FD230F00C00E
:1004A00000C0002C88B92795889400C0002C58B94A
:1004B00000C012FF88B975FD230F2795889400C0EE
:1004C00000C0002C88B976FD230F00C0002C58B95D
:1004D00000C011FF88B92795889477FD230F00C0CD
:1004E00000C0002C88B92795889400C0002C58B90A
:1004F00000C010FF88B9132F7111122F960F00C082
:1005000000C0002C88B9119709F086CE20EE31E0AA
:10051000D2010E94E91EDC01CB01F4E0B695A7955B
:1005200097958795FA95D1F720E030E0A9016AE91F
:10053000469E040C411D569E400D511D1124450D33
:10054000511D840F951FA11DB11D893E43E09407E5
:10055000A105B10508F434C0885E9340A109B10932
:1005600042E0B695A795979587954A95D1F747E0CC
:10057000849F080E211D949F200D311D1124290FE9
:10058000311D6091620470E0860F971F820F931FE8
:1005900040918B0450918C0460918D0470918E0475
:1005A000292F3327420F531F611D711D40938B0468
:1005B00050938C0460938D0470938E048093620436
:1005C00078940E94850BF301708B6787DF91CF9140
:1005D0001F910F91FF90EF90CF90BF90AF908F90B1
:1005E0007F906F905F904F9008950F931F93CF93DC
:1005F000DF93CDB7DEB762970FB6F894DEBF0FBEBC
:10060000CDBF8C01F901DC011C968C917A83698342
:100610005C834B835E834D8390819D8791819E8710
:1006200092819F87813029F4CE0101960E94B30DFB
:1006300006C01C861B861A86198618861F8283E0D0
:10064000888B1A8A198AD801ED91FC910484F5856A
:10065000E02DBE016F5F7F4FC801099562960FB60E
:10066000F894DEBF0FBECDBFDF91CF911F910F91E8
:1006700008950F931F93CF93DF93CDB7DEB76297A3
:100680000FB6F894DEBF0FBECDBF8C01F901DC01BF
:100690001C968C917A8369835C834B835E834D8344
:1006A00090819D8791819E8792819F87813029F4D7
:1006B000CE0101960E94B30D06C01C861B861A86C9
:1006C000198618861F82188A1A8A198AD801ED910C
:1006D000FC910484F585E02DBE016F5F7F4FC8015A
:1006E000099562960FB6F894DEBF0FBECDBFDF91BD
:1006F000CF911F910F910895FF920F931F93CF9366
:10070000DF93DC01ED91FC91AF2F31E03F0F32130D
:1007100001C030E0EF01DD278B010A0F111DD80168
:10072000FC90DB01A30FB11D3C913C9F80013D9FDC
:10073000100D1124A0E0B1E0AC1BBD0BFA9EB0017E
:10074000FB9E700D1124600F711F4E0F5F1F30E074
:10075000322F22274217530710F0421B530BDC01A4
:100760004D935C93872FDF91CF911F910F91FF9055
:10077000089580E090E00895FC01858596850895B0
:10078000CF93DF9300D000D000D0CDB7DEB7AB0160
:100790001C821D821E82DC01ED91FC910190F08192
:1007A000E02D19821A821B829E012F5F3F4FBE01EE
:1007B0006C5F7F4F099526960FB6F894DEBF0FBE8B
:1007C000CDBFDF91CF910895DC01FB018081918144
:1007D00011969C938E938281938113969C938E9312
:1007E00012978481958115969C938E931497868198
:1007F00016968C9316978781908518969C938E9366
:100800001797818592851A969C938E931997838565
:1008100094851C969C938E931B97CD010D96635FD8
:100820007F4F8617970710F40C94530EFD96DD96B4
:1008300080E390E0FF01DD0180FF05C002C002906F
:100840000E9202900E928250D0F79040C0F7089519
:100850002F923F924F925F927F928F929F92AF9290
:10086000BF92CF92DF92EF92FF920F931F93CF939D
:10087000DF93CDB7DEB7ED970FB6F894DEBF0FBEAE
:10088000CDBFFC01178171840385BC01CE010196A7
:100890000E94E40380910804823009F05CC0C0909B
:1008A0000404D0900504A980BA80B6E74B2EB6E0C8
:1008B0005B2E80E090E060E070E0E12CF12CF5012F
:1008C000E80FF91F9B012A58394FEC14FD0479F405
:1008D000D2015C915083D90111964C9111974183BB
:1008E00012962C91228353834483258320C0D901FF
:1008F00012968C901297912C24E0959487942A95C7
:10090000E1F711962C9130E044E0359527954A9512
:10091000E1F7D2014C9150E0A4E055954795AA9596
:10092000E1F74083218382821382148215826D5FF6
:100930007F4F168217821086BFEFEB1AFB0A0996CB
:1009400023E0420E511C6432710509F0B8CF94E2E5
:10095000E92EF12C02C0E12CF12C6701CC0CDD1C3E
:10096000CE0CDF1C23E630E0D7010E94E91E1B01FC
:100970002C01812C912C54012B813C81E216F30631
:100980000CF055C021503109032E000C440B550BBF
:10099000C501B401620D731D841D951D0E94191DB2
:1009A000BA01A9014F5F5F4F6F4F7F4F80910904DC
:1009B00090910A04092E000CAA0BBB0B481759078B
:1009C0006A077B070CF565EF73E089E295E00E940A
:1009D000501181E0011105C0711003C0111101C057
:1009E00080E0E981FA81EC0DFD1D10821182828385
:1009F000112389F0802F0E943911872D0E9439110F
:100A0000812F0E94391107C0E981FA81EC0DFD1D8B
:100A10001082118212828FEFE81AF80AA3E0CA0E40
:100A2000D11CB3E68B0E911CA11CB11CA5CF8091EB
:100A30001A060E94010FED960FB6F894DEBF0FBEA6
:100A4000CDBFDF91CF911F910F91FF90EF90DF907D
:100A5000CF90BF90AF909F908F907F905F904F907E
:100A60003F902F900895CF93DF93CDB7DEB7ED97EA
:100A70000FB6F894DEBF0FBECDBF1816190624F4CA
:100A800090934106809340061616170624F470933F
:100A90004306609342061416150624F45093450647
:100AA0004093440669E376E0CE0101960E94E40398
:100AB000CE0101960E942804ED960FB6F894DEBF91
:100AC0000FBECDBFDF91CF910895DC01ED91FD9177
:100AD0008081ED91FD919081ED91FD916C9163701C
:100AE0008E2309F064609F2309F06860E2E8F5E076
:100AF000E60FF11D659565956D936D917D918D91D5
:100B00009D91099423C01AC012C016C010C01EC007
:100B100009C014C013C006C019C009C00DC007C069
:100B20000DC014C062507040804090400BC06150B6
:100B300070408040904006C06E5F01C06F5F7F4F85
:100B40008F4F9F4F9E938E937E936E9308958091C7
:100B50002B0690912C060C946505809129069091A6
:100B60002A060C94650580910B0490910C04019762
:100B700009F040C083E090E090930C0480930B0454
:100B80006091040482E090E00E941D1060910D01CC
:100B900083E090E00E941D106091160184E090E0D7
:100BA0000E941D106091120185E090E00E941D10CE
:100BB0006091090186E090E00E941D1060910B0198
:100BC00087E090E00E941D1060910E018CE090E0A3
:100BD0000E941D10609103018BE090E00E941D10A7
:100BE0006AE280E090E00E941D1060E081E090E009
:100BF0000C941D10089580910B0490910C04892B86
:100C000031F482E090E090930C0480930B040895FB
:100C1000CF93DF93CDB7DEB7ED970FB6F894DEBF75
:100C20000FBECDBF69E376E0CE0101960E94E403DA
:100C3000CE0101960E942804ED960FB6F894DEBF0F
:100C40000FBECDBFDF91CF910895BC01990F880BE6
:100C5000990B0E94B41B2AE939E949E15FE30E943C
:100C6000131C0E94401E862F60931A060C94010FDD
:100C70001F920F920FB60F9211242F933F934F9311
:100C80005F936F937F938F939F93AF93BF93EF93F4
:100C9000FF9340911401509115012DEC66E272E032
:100CA00087E694E00E947C0340911001509111016D
:100CB00025E861EA71E085E694E00E947C034091BA
:100CC00007015091080125E86CE171E083E694E0AA
:100CD0000E947C03FF91EF91BF91AF919F918F9103
:100CE0007F916F915F914F913F912F910F900FBE28
:100CF0000F901F901895CF92DF92EF92FF92CF93B3
:100D0000DF93EC01688179818A819B819B01AC0131
:100D10000E94131C20E030E0A9010E945B1D6B01C2
:100D20007C016C817D818E819F819B01AC010E9441
:100D3000131C9B01AC01C701B6010E945B1D6B0136
:100D40007C01688579858A859B859B01AC010E9421
:100D5000131C9B01AC01C701B6010E945B1DDF9112
:100D6000CF91FF90EF90DF90CF900C947A1EAF92CE
:100D7000BF92CF92DF92EF92FF920F931F93CF9388
:100D8000DF9300D000D000D0CDB7DEB78B01EE24CA
:100D9000E394E092030578E6F72EF0922505109291
:100DA000040510922605682F86EC95E00E94690ADA
:100DB0000E943710E0920305F09225051092040579
:100DC00010922605809102058111FCCF81E080936D
:100DD0000205809301059FEF909300051092FF0498
:100DE00095E09093FE048093DD048091DD04806D96
:100DF0008093DD048091DC04813041F41092DC04A6
:100E00008091DD048093BB0085EC01C085EE80936A
:100E1000BC00809102058130E1F38091FF048630AF
:100E200018F4F090FF0402C066E0F62EAEEDB4E0D8
:100E30002BE634E0F9018E2F821B8F1518F48D916B
:100E40008193F9CF10920304F092020486E08F158B
:100E500080F0FE0131965F016F018C2D8A198F158C
:100E600088F486EC95E00E94100AF60181936F01E8
:100E7000F4CF56E0E52E86EC95E00E94100AEA9445
:100E8000E110F9CF0E943710F6E0FF1611F080E074
:100E90001AC0898190E0982F88272A81822BF80137
:100EA000918380838B8190E0982F88272C81822BDF
:100EB000938382838D8190E0982F88272E81822BC7
:100EC0009583848381E026960FB6F894DEBF0FBE2B
:100ED000CDBFDF91CF911F910F91FF90EF90DF90E9
:100EE000CF90BF90AF900895161617063CF4281BBC
:100EF000390B621773077CF49B010DC061157105F6
:100F000041F0481B590B9B016417750724F49A01A3
:100F100002C020E030E0820F931F0895CF93DF934B
:100F200080913806823030F4F8948DE296E00E9489
:100F3000650501C0F8948091340690913506A09122
:100F40003606B091370678949C0197FF02C02D5F5A
:100F50003F4F35952795359527952115310509F48E
:100F600066C16CEF6203A001639F500D1124F894D9
:100F7000840F951F092E000CAA0BBB0B809334061F
:100F800090933506A0933606B09337067894CC2715
:100F9000DD27C21BD30B80910804813009F429C1DD
:100FA00020F0823009F428C13EC1E0910404F091A0
:100FB0000504EB30F10508F036C1EC5CFF4F0C94F2
:100FC000E31E28E030E041E050E0BE0180910301E3
:100FD000909104010E94740790930401809303018F
:100FE00020910B0430910C0422303105D9F03CF4EF
:100FF0002115310559F02130310579F014C1233024
:10100000310521F02430310599F00DC11C161D0663
:101010000CF009C10E94FB0506C1D7FF04C10E9464
:10102000B30501C1D7FFFFC0019709F0FCC0F7CF9E
:10103000D7FFF9C010920C0410920B04F4C0BE014B
:1010400044E0660F771F4A95E1F780910D012FEF7D
:1010500030E040E050E090E00E94740780930D0182
:10106000E2C027E030E040E050E0BE01809169043A
:1010700090916A040E94740790936A0480936904B3
:10108000880F991FFC01ED56FC4F40815181FC01F6
:10109000ED57FC4F608171818FEF9FEF0E94330508
:1010A0008091690490916A04880F991FFC01ED58A2
:1010B000FC4F208131813093040120930301FC0116
:1010C000ED59FC4F20813181309317012093160197
:1010D000FC01ED5AFC4F20813181309313012093A4
:1010E0001201FC01ED5BFC4F2081318130930A013C
:1010F00020930901FC01ED5CFC4F2081318130938C
:101100000C0120930B01FC01ED5DFC4F808191816E
:101110006BC0BE0193E0660F771F9A95E1F72FEF42
:1011200030E047E050E080914006909141060E94F7
:1011300074074FEF5FEF6FEF7FEF73C0809144064E
:1011400090914506480F591F509345064093440619
:1011500064C0BE0183E0660F771F8A95E1F72FEF29
:1011600030E040E050E080914206909143060E94BA
:1011700074074FEF5FEFBC0152C080911601909150
:101180001701821B930B90931701809316014BC09C
:101190008091120190911301821B930B9093130184
:1011A0008093120140C08091090190910A01821B35
:1011B000930B90930A018093090135C080910B0134
:1011C00090910C01821B930B90930C0180930B0167
:1011D0002AC02FEF30E040E050E0BE0180910E01C8
:1011E00090910F010E94740790930F0180930E015C
:1011F0001AC082E0809308042BE030E040E050E029
:10120000BE0180910404909105040E94740790939C
:101210000504809304044FEF5FEF6FEF7FEF8FEFD4
:101220009FEF0E9433051092070410920604DF918D
:10123000CF910895FC01538D448D252F30E0842FEC
:1012400090E0821B930B541710F0CF9608950197EE
:101250000895FC01918D828D981761F0828DDF01D8
:10126000A80FB11D5D968C91928D9F5F9F73928F99
:1012700090E008958FEF9FEF0895FC01918D828D8E
:10128000981731F0828DE80FF11D858D90E008955B
:101290008FEF9FEF0895FC01918D228D892F90E0B3
:1012A000805C9F4F821B91098F739927089589E273
:1012B00095E00E944B0921E0892B09F420E0822F60
:1012C0000895FC01848DDF01A80FB11DA35ABF4F03
:1012D0002C91848D90E001968F739927848FA68935
:1012E000B7892C93A089B1898C9180648C93938D5C
:1012F000848D981306C00288F389E02D80818F7D4C
:1013000080830895EF92FF920F931F93CF93DF9303
:10131000EC0181E0888F9B8D8C8D981305C0E88946
:10132000F989808185FD24C0F62E0B8D10E00F5FBA
:101330001F4F0F731127E02E8C8DE8120CC00FB6D3
:1013400007FCFACFE889F989808185FFF5CFCE01C6
:101350000E946109F1CF8B8DFE01E80FF11DE35A68
:10136000FF4FF0820B8FEA89FB898081806207C082
:10137000EE89FF896083E889F989808180648083B0
:1013800081E090E0DF91CF911F910F91FF90EF905E
:101390000895CF93DF93EC01888D8823C9F0EA8903
:1013A000FB89808185FD05C0A889B9898C9186FD5E
:1013B0000FC00FB607FCF5CF808185FFF2CFA8895B
:1013C000B9898C9185FFEDCFCE010E946109E7CFED
:1013D000DF91CF91089580E090E0892B29F00E9461
:1013E000570981110C9400000895089585ED8093AC
:1013F000BC008091BC0084FDFCCF109202050895D2
:101400000895E091030480910204E81730F4F0E0BD
:10141000E559FB4F808190E008958FEF9FEF08958D
:101420009091030480910204981750F4E92FF0E0A2
:10143000E559FB4F208130E09F5F9093030402C089
:101440002FEF3FEFC90108958091020490E02091B1
:101450000304821B91090895CF92DF92EF92FF92CD
:101460000F931F93CF93DF937C018A018091030533
:10147000882389F0EB016B01C40ED51ECC15DD0568
:10148000F1F06991D701ED91FC910190F081E02D8F
:10149000C7010995F3CF842F413288F4909102055A
:1014A000943069F44093B204FB0120E934E0D9019F
:1014B0009A2F921B981718F491919D93F9CFC80118
:1014C000DF91CF911F910F91FF90EF90DF90CF9020
:1014D0000895209103052223C9F02091260520328A
:1014E00040F021E030E0FC013383228380E090E093
:1014F000089580910405E82FF0E0EB5FFA4F6083D8
:101500008F5F809304058093260509C080910205B2
:10151000843029F481E08093B2046093900481E0E8
:1015200090E00895089580E090E008950E943120B1
:101530001F920F920FB60F9211242F933F934F9348
:101540005F936F937F938F939F93AF93BF93EF932B
:10155000FF9389E295E00E946109FF91EF91BF91AD
:10156000AF919F918F917F916F915F914F913F913B
:101570002F910F900FBE0F901F9018951F920F92F2
:101580000FB60F9211242F938F939F93EF93FF9396
:10159000E0913905F0913A058081E0913F05F091A5
:1015A000400582FD12C09081809142058F5F8F734C
:1015B00020914305821751F0E0914205F0E0E75D8C
:1015C000FA4F958F8093420501C08081FF91EF9182
:1015D0009F918F912F910F900FBE0F901F90189594
:1015E000833081F028F4813099F08230A1F00895A1
:1015F0008730A9F08830B9F08430D1F48091800030
:101600008F7D03C0809180008F7780938000089544
:1016100084B58F7702C084B58F7D84BD0895809195
:10162000B0008F7703C08091B0008F7D8093B000B1
:1016300008951F93CF93DF93282F30E0F901E256EE
:10164000FF4F8491F901EE54FF4FD491F901E0531B
:10165000FF4FC491CC23C9F0162F81110E94F00ACC
:10166000EC2FF0E0EE0FFF1FEC56FF4FA591B49169
:101670008FB7F894111105C09C91ED2FE095E923E7
:1016800002C0EC91ED2BEC938FBFDF91CF911F91B6
:101690000895CF93DF9390E0FC01EE54FF4F249127
:1016A000FC01E053FF4F8491882361F190E0880FA3
:1016B000991FFC01E657FF4FC591D491FC01EC56F0
:1016C000FF4FA591B491611109C09FB7F89488812B
:1016D000209582238883EC912E230BC0623061F425
:1016E0009FB7F8943881822F809583238883EC916B
:1016F0002E2B2C939FBF06C08FB7F894E8812E2B1A
:1017000028838FBFDF91CF9108953FB7F8948091E0
:10171000D8049091D904A091DA04B091DB0426B5E5
:10172000A89B05C02F3F19F00196A11DB11D3FBF19
:10173000BA2FA92F982F8827820F911DA11DB11DA7
:10174000BC01CD0142E0660F771F881F991F4A95A3
:10175000D1F708958F929F92AF92BF92CF92DF926E
:10176000EF92FF926B017C010E94850B4B015C01A3
:10177000C114D104E104F104F1F00E94850BDC01F5
:10178000CB0188199909AA09BB09883E9340A10594
:10179000B10570F321E0C21AD108E108F10888EE22
:1017A000880E83E0981EA11CB11CC114D104E10471
:1017B000F10419F7DDCFFF90EF90DF90CF90BF904D
:1017C000AF909F908F9008952FB7F89460918B04FD
:1017D00070918C0480918D0490918E042FBF089598
:1017E0001F920F920FB60F9211242F933F938F9356
:1017F0009F93AF93BF9380918B0490918C04A091A1
:101800008D04B0918E043091D70423E0230F2D373F
:1018100020F40196A11DB11D05C026E8230F0296F4
:10182000A11DB11D2093D70480938B0490938C0449
:10183000A0938D04B0938E048091D8049091D90424
:10184000A091DA04B091DB040196A11DB11D809333
:10185000D8049093D904A093DA04B093DB04BF9129
:10186000AF919F918F913F912F910F900FBE0F904D
:101870001F9018951F920F920FB60F9211242F935D
:101880003F934F935F936F937F938F939F93AF9308
:10189000BF93EF93FF93E091F502F091F602099563
:1018A000FF91EF91BF91AF919F918F917F916F9138
:1018B0005F914F913F912F910F900FBE0F901F900E
:1018C00018951F920F920FB60F9211242F933F93EA
:1018D0004F935F936F937F938F939F93AF93BF9338
:1018E000EF93FF93E091F302F091F4020995FF91D9
:1018F000EF91BF91AF919F918F917F916F915F9188
:101900004F913F912F910F900FBE0F901F90189500
:101910001F920F920FB60F9211242F933F934F9364
:101920005F936F937F938F939F93AF93BF93EF9347
:10193000FF938091B900887F803609F49CC068F5D8
:10194000883209F45BC090F4803109F454C038F453
:10195000882309F4F3C0883009F44DC0F3C08831FE
:1019600009F44CC0803209F45DC0ECC0803409F445
:1019700068C048F4803309F455C0883309F0E2C0E8
:1019800080930005D5C0803509F44FC0883509F42F
:101990005DC0883409F0D6C0D3C0883909F4C4C00A
:1019A000A8F4883709F467C038F4883609F463C0AE
:1019B000803709F460C0C6C0883809F4B5C08039E2
:1019C00009F45FC0803809F0BDC05BC0803B09F4FA
:1019D00083C038F4803A09F466C0883A09F47CC0C0
:1019E000B1C0803C09F4A4C0883C09F4A1C0883B84
:1019F00009F487C0A7C08091DD0410C09091FF0456
:101A00008091FE04981770F5E091FF0481E08E0F3D
:101A10008093FF04F0E0E252FB4F80818093BB0093
:101A200085EC83C0809300058BC0E091FF0481E0CA
:101A30008E0F8093FF048091BB00F0E0E252FB4FD9
:101A400080839091FF048091FE046BC0E091FF04BD
:101A500081E08E0F8093FF048091BB00F0E0E252A2
:101A6000FB4F80838091010581116AC081E08093E2
:101A7000DC0484EA5EC083E0809302051092D60401
:101A8000CFCF8091D604803208F04EC0E091D604CA
:101A900081E08E0F8093D6048091BB00F0E0EA5481
:101AA000FB4F8083BDCF8091D604803230F4E0912B
:101AB000D604F0E0EA54FB4F10820E94F6096091D0
:101AC000D60470E0E091B404F091B50486EB94E0A4
:101AD00009951092D6042CC084E0809302051092E0
:101AE000B3041092B204E091B004F091B1040995EE
:101AF0008091B204811105C081E08093B2041092FC
:101B00009004E091B30481E08E0F8093B304F0E081
:101B1000E057FB4F80818093BB009091B30480918C
:101B2000B204981708F47CCF85E88093BC000AC003
:101B300085EC8093BC001092020504C01092000551
:101B40000E94F609FF91EF91BF91AF919F918F9104
:101B50007F916F915F914F913F912F910F900FBEA9
:101B60000F901F901895EF92FF920F931F93CF93B2
:101B7000DF93EC0190918F049F5F292F27702093B2
:101B80008F0490FF02C090E801C090E021FD9064B6
:101B9000247009F0906220E1290FFE013C967E013D
:101BA0008FE0E80EF11C00E011E06191662331F056
:101BB00070E0C8010E94CF1E6F5F01C060E0DF01CE
:101BC00014976C93322F369F030E30E0311D112491
:101BD000CF010797311103C0EC01188203C03150C7
:101BE000EC013883662311F061506C93EE15FF050C
:101BF000E1F6DF91CF911F910F91FF90EF90089543
:101C0000CF92DF92EF92FF920F931F93CF93DF93C8
:101C10006C017A018B01C0E0D0E0CE15DF0589F0C0
:101C2000D8016D918D01D601ED91FC910190F0816B
:101C3000E02DC6010995892B11F47E0102C0219681
:101C4000ECCFC701DF91CF911F910F91FF90EF90E3
:101C5000DF90CF900895E9E2F5E0A089B18982E0B4
:101C60008C93A485B5851C92A685B7858FEC8C9343
:101C7000108EA489B58986E08C93A289B3898C9152
:101C800080618C93A289B3898C9188608C93A2899E
:101C9000B3898C9180688C930288F389E02D8081D0
:101CA0008F7D8083089520E330E0FB01DC0120FF7D
:101CB00005C002C001900D9201900D922250D0F704
:101CC0003040C0F708957F928F929F92AF92BF925B
:101CD000CF92DF92EF92FF920F931F93CF93DF93F8
:101CE000FC01EB017A01D90148175907C8F42C917E
:101CF00011969C91119712968C91129738813C9372
:101D0000398111963C9311973A8112963C93129720
:101D1000288399838A839E2F8F2FFA01E92EF82E2C
:101D2000C880D12C8C9190E08C199D099695982FA4
:101D3000882797958795098110E01196AC901197A7
:101D4000B12CA01AB10AB694BA2CAA24B794A794BD
:101D50002A8130E01296CC91D0E0C21BD30BD695ED
:101D6000DC2FCC27D795C795A7014E1B5F0B19F029
:101D7000742E452F03C07724739440E0672D742F91
:101D80000E94CF1E4B01C501672D742F0E94CF1EEC
:101D90005B01CE01672D742F0E94CF1E880C991C09
:101DA000AA0CBB1C660F771FDC2CCC24102F00273D
:101DB000322F2227DF01AA0FBB1FAE0FBF1FA85B68
:101DC000B94FEE16FF0678F0ED012297D8822196E2
:101DD00018833C93C80CD91C0A0D1B1D260F371FF6
:101DE00031961396EECFDF91CF911F910F91FF9017
:101DF000EF90DF90CF90BF90AF909F908F907F90AB
:101E000008953F924F925F926F927F928F929F922E
:101E1000AF92BF92CF92DF92EF92FF920F931F93F8
:101E2000CF93DF9300D01F92CDB7DEB7F82E80910D
:101E30001D0690911E06A0911F06B0912006892BC9
:101E40008A2B8B2BE9F00E94850B0091A006109144
:101E5000A1062091A2063091A306DC01CB01801BD4
:101E6000910BA20BB30B00911D0610911E06209141
:101E70001F063091200680179107A207B307B8F21A
:101E80000E94850B6093A0067093A1068093A20622
:101E90009093A306E0912506F0912606309759F01D
:101EA00040912106509122066091230670912406EC
:101EB0008F2D0995F82E00912705109128054F2C9C
:101EC000512C612C712C0115110509F461C0D80148
:101ED0001C96EC901C9780911B0690911C068436F2
:101EE000910510F41C961C92D801ED91FC91A280F2
:101EF000B38019821A821B82F11014C0F801458543
:101F00005685628173819E012F5F3F4FC801F501A5
:101F10000995D8011C96EC921C9714960D911C9172
:101F20001597D1CFF8013996CE0101966C01480181
:101F30009CE0890E911CDF0113973C902191332086
:101F400001F12223F1F0822F90E0A0E0B0E09C01AB
:101F5000AD012F5F3F4F4F4F5F4FC301B2010E9452
:101F6000E71C9B01AC01832D90E0A0E0B0E0BC0138
:101F7000CD016F5F7F4F8F4F9F4F0E94E71CD601AF
:101F80008C93BFEFCB1ADB0AE815F905A1F6B6CFA3
:101F900080919E0690919F068C010F5F1F4F1093BA
:101FA0009F0600939E0649979CF10E94E40B4B010B
:101FB0005C0188EE93E0089FB001099F700D189FA7
:101FC000700D1124072E000C880B990BC0909A06F7
:101FD000D0909B06E0909C06F0909D06A501940190
:101FE0002C193D094E095F090E94F71C30931C060D
:101FF00020931B0610929F0610929E060E94E40BEF
:1020000060939A0670939B0680939C0690939D061E
:102010000F900F900F90DF91CF911F910F91FF9034
:10202000EF90DF90CF90BF90AF909F908F907F9078
:102030006F905F904F903F9008950F931F93CF93B1
:10204000DF931F92CDB7DEB78C0169830E94D11C4C
:102050006981861729F0C8010E94D91C81E001C05E
:1020600080E00F90DF91CF911F910F910895209103
:10207000260590912505213208F046C08091020581
:102080008111FCCF32E03093020531E0309301053D
:102090003FEF309300051092FF042093FE04A5E06B
:1020A000B5E04EED54E0FA013E2F341B321718F420
:1020B0003D913193F9CF1092DD042091DD04990F09
:1020C000922B9093DD049091DC04913041F41092B6
:1020D000DC049091DD049093BB0095EC01C095EE7B
:1020E0009093BC00909102059230E1F3909100052D
:1020F0009F3F79F080910005803241F0809100058A
:10210000803331F084E005C081E003C082E001C08B
:1021100083E010920405109226051092030508959D
:10212000CF93C62F91E09093030598E690932505F1
:102130001092040510922605682F86EC95E00E9407
:10214000690A6C2F86EC95E00E94690A0E9437109C
:1021500081E0CF910895CF93DF93E6EAF0E0849198
:10216000EAEBF0E0D491E8EDF0E0C491CC2391F0FB
:1021700081110E94F00AEC2FF0E0EE0FFF1FEA53EE
:10218000FF4FA591B491EC91ED2381E090E021F413
:1021900080E002C080E090E0DF91CF91089520E0E0
:1021A000DC0160FF03C001C02D932D936250E0F766
:1021B0007040D0F708956115710579F0FB01019029
:1021C0000020E9F73197AF01461B570BDC01ED9179
:1021D000FC910280F381E02D099480E090E0089565
:1021E0004F925F926F927F92EF92FF920F931F93A5
:1021F000CF93DF93CDB7DEB7A1970FB6F894DEBFCC
:102200000FBECDBF7C01FA01CB0119A2223008F428
:102210002AE08E010F5D1F4F422E512C612C712C34
:10222000BF01A30192010E94F71CF901CA010150EC
:1022300011096A3014F4605D01C0695CD8016C93C7
:10224000232B242B252B61F7B801C7010E94DB103B
:10225000A1960FB6F894DEBF0FBECDBFDF91CF9130
:102260001F910F91FF90EF907F906F905F904F9034
:102270000895CF93DF93482F50E060E070E02AE0AC
:1022800089E295E00E94F010EC0166ED73E089E2CE
:1022900095E00E94DB108C0F9D1FDF91CF91089578
:1022A0000F931F93CF93DF93EC010E94DB108C01FF
:1022B00066ED73E0CE010E94DB10800F911FDF916D
:1022C000CF911F910F910895CF93DF93CDB7DEB7D4
:1022D00063970FB6F894DEBF0FBECDBF789484B578
:1022E000826084BD84B5816084BD85B5826085BD12
:1022F00085B5816085BD80916E00816080936E00A0
:102300001092810080918100826080938100809191
:102310008100816080938100809180008160809342
:1023200080008091B10084608093B1008091B00002
:1023300081608093B00080917A00846080937A00FD
:1023400080917A00826080937A0080917A00816027
:1023500080937A0080917A00806880937A0010924E
:10236000C1001092160610921706109218061092CD
:1023700019061092D4051092D5051092D605109228
:10238000D7050E94E40B6B017C014B015C0128EB3B
:10239000820E2BE0921EA11CB11C0E94E40B6C1556
:1023A0007D058E059F0528F086169706A806B906B6
:1023B000A0F789E295E090931506809314060E9499
:1023C0002B0E0E94E40B6093D4057093D505809387
:1023D000D6059093D70567EC73E080911406909131
:1023E00015060E94DB100E94E40B6B017C014B017F
:1023F0005C013AE0830E911CA11CB11C0E94E40B0D
:102400006C157D058E059F0528F086169706A80693
:10241000B906A0F781E08093E80540910001509152
:10242000010185E098E0489F9001499F300D589F39
:10243000300D1124275E394C3093010120930001A7
:10244000A9E3B0E30E944B1D9093290480932804D4
:102450000E942B0E8EE190E090933C0680933B0609
:102460008AE590E00E94041F90933A068093390613
:102470008FEF90E09093410680934006909345063D
:1024800080934406909343068093420680E18093B4
:102490003F068EE790E0E12CF12CFC01459155912F
:1024A00065917491AFEFEA1AFA0A04964F3FA9F7C3
:1024B000EEE7F0E085909590A590B4909B2D5A2D75
:1024C000A92D0FEFA12CB12C8EE7C82E80E0D82EBD
:1024D000B4E0CB0ED11CF6014590559065907490F8
:1024E0009501B4E035952795BA95E1F7822FA42C94
:1024F000B12C442D42954F70E0E1EE16F10478F4D2
:10250000602F002E000C770B621773073CF00F3022
:102510002CF481E0800F481708F4482F042F5D86C3
:102520006E867F86A9835A839B8350E09E01235F3A
:102530003F4FBE016F5F7F4F90E00E94630EA52D5D
:10254000562D972DFFEFAF16B10409F0C1CFE090E3
:102550003B06F0903C06C0903906D0903A06809138
:102560002004811145C010921204109211048FEFC3
:1025700080931504809316048093170480931804A5
:102580008093190480931A0481E080931B041092B5
:102590001D0410921C0410921404109213048091D4
:1025A000270590912805892B31F48FE094E09093D2
:1025B000280580932705E0910D04F0910E043097D3
:1025C00021F08FE094E0958384838FE094E09093F2
:1025D0000E0480930D0410921F0410921E0485E1D6
:1025E00093E09093100480930F0481E08093200483
:1025F000E0910F04F09110040480F581E02D8FE04C
:1026000094E00995D0921204C0921104F0921D0436
:10261000E0921C04E0910F04F09110040284F38511
:10262000E02D8FE094E00995009711F19C0140E0C6
:1026300050E060E472E48FE090E00E94191DC090C9
:102640001D06D0901E06E0901F06F0902006C901DE
:10265000DA018C159D05AE05BF0510F4D701C60142
:1026600080931D0690931E06A0931F06B09320062C
:1026700081EE90E00E942506E0912705F091280563
:10268000309729F014860480F581E02DF9CF10925F
:102690000A04109209040E940806E0902705F090B1
:1026A0002805E114F104B1F0D70112968D919C91A7
:1026B0001397009759F01D966D917C911E979B0181
:1026C000220F331F620F731F0E94CF10F701E480A7
:1026D000F580E7CF80911A060E94010F1092030443
:1026E0001092020410920405109226051092020521
:1026F00081E0809301051092DC0461E082E10E9498
:10270000190B61E083E10E94190B8091B9008E7F63
:102710008093B9008091B9008D7F8093B90088E4DF
:102720008093B80085E48093BC0060E870E08BE69D
:1027300090E00E94901062E370E080E090E00E94E0
:10274000AA0B61E070E089E190E00E94901063E0E4
:1027500070E08BE690E00E9490106EE170E080E007
:1027600090E00E94AA0B68E170E08BE190E00E948B
:1027700090106EE170E080E090E00E94AA0B68EE9D
:1027800070E08CE190E00E94901064E170E080E0E5
:1027900090E00E94AA0B80E090E00E94D11C8A3257
:1027A00039F481E090E00E94D11C882309F4FEC531
:1027B00062E088E00E94490B62E08FE00E94490BD2
:1027C00062E080E10E94490B61E08EE00E94490BCB
:1027D00060E08EE00E94190B61E086E00E94490BE8
:1027E00060E086E00E94190B80913806823030F458
:1027F000F8948DE296E00E94650501C0F894789403
:10280000F894109234061092350610923606109203
:10281000370678940E94AB10809302010E9408064C
:1028200069ED73E089E295E00E9450110E94FB057A
:10283000F4E68F2E912C0E94E40B672B682B692BFA
:1028400041F40E94E40B623071058105910508F4A2
:1028500016C10E94E40B60935E0470935F04809342
:10286000600490936104C0905A04D0905B04E0909F
:102870005C04F0905D046C157D058E059F0540F4A9
:1028800060935A0470935B0480935C0490935D049E
:10289000C0905A04D0905B04E0905C04F0905D041A
:1028A0009B01AC012C193D094E095F0969017A01B0
:1028B0003AEFC316D104E104F10408F4E0C06093D8
:1028C0005A0470935B0480935C0490935D0484EFDE
:1028D00091E0A0E0B0E08093E0059093E105A09343
:1028E000E205B093E3051092E4051092E50510921D
:1028F000E6051092E7058091D8059091D905A09141
:10290000DA05B091DB058093DC059093DD05A0939B
:10291000DE05B093DF050E94E40B6093D805709349
:10292000D9058093DA059093DB050E94E40B609350
:10293000D4057093D5058093D6059093D7050E9452
:10294000E40B6B017C0161EE73E0809114069091C1
:1029500015060E94DB102AE041E050E060E070E0E4
:1029600080911406909115060E94F01068EE73E0B5
:1029700080911406909115060E94DB102AE0B701A1
:10298000A60180911406909115060E94F0106AEE3F
:1029900073E080911406909115060E94DB108091DF
:1029A000D8059091D905A091DA05B091DB05B70162
:1029B000A601481B590B6A0B7B0B2AE08091140679
:1029C000909115060E94F0106AEE73E08091140653
:1029D000909115060E94DB104091D8055091D905C1
:1029E0006091DA057091DB058091DC059091DD0541
:1029F000A091DE05B091DF05481B590B6A0B7B0BDC
:102A00002AE080911406909115060E94F0106CEE59
:102A100073E080911406909115060E94DB100E94CD
:102A2000E40BAB01BC012AE08091140690911506DD
:102A30000E94F0106EEE73E08091140690911506DE
:102A40000E9450110E94E40B2B013C016B017C01A0
:102A500092E0C90ED11CE11CF11C0E94E40B64152C
:102A600075058605970508F0E9C40E94E40B60939C
:102A7000D8057093D9058093DA059093DB05809192
:102A8000580490915904A1E08A27909359048093A7
:102A9000580480FF7FC062E574E083E40E94B706BB
:102AA0006091520470915304262F2F70809132044C
:102AB00090913304880F991F822790933304809359
:102AC0003204072E000C880B990B0E94B41B6983FB
:102AD0007A838B839C836091560470915704072EF0
:102AE000000C880B990B0E94B41B6D837E838F832F
:102AF000988719861A861B861C86CE0101960E942D
:102B00007B066B017C0140904E0450904F04609016
:102B10005004709051049B01AC01C301B2010E94AA
:102B20005A1D20E030E046E953E40E94C71D9B0196
:102B3000AC01C301B2010E945A1D9B01AC0160931C
:102B40004E0470934F048093500490935104C70136
:102B5000B6010E945A1D20E030E048E452E40E9491
:102B6000C71D20914A0430914B0440914C04509170
:102B70004D040E945B1D20E030E040E05FE30E94D6
:102B8000131C60934A0470934B0480934C049093FD
:102B90004D04E2C064E474E08BE30E94B706E09069
:102BA0004404F09045042E2D2F70809132049091B2
:102BB0003304880F991F8227909333048093320443
:102BC0006091460470914704072E000C880B990B06
:102BD0000E94B41B20913C0430913D0440913E047E
:102BE00050913F040E945B1D5B016C0160914804A1
:102BF00070914904072E000C880B990B0E94B41B9E
:102C0000209140043091410440914204509143048A
:102C10000E945B1D2B013C01B701FF0C880B990B37
:102C20000E94B41B209138043091390440913A0439
:102C300050913B040E945B1D24EA30E74DE75FE3BF
:102C40000E94131C609338047093390480933A04F3
:102C500090933B0424EA30E74DE75FE3C601B501FA
:102C60000E94131C60933C0470933D0480933E04C7
:102C700090933F0424EA30E74DE75FE3C301B201DC
:102C80000E94131C6093400470934104809342049B
:102C90009093430488E394E00E947B0620E030E4B4
:102CA0004CE156E40E94C71D6B017C014090180165
:102CB0005090190160901A0170901B019B01AC01AA
:102CC000C301B2010E945A1D20E030E040E251E40D
:102CD0000E94C71D9B01AC01C301B2010E945A1D95
:102CE000609318017093190180931A0190931B014E
:102CF000A70196010E945A1D6B017C0120E030E083
:102D0000A9010E946F1E181624F0F7FAF094F7F844
:102D1000F094C701B6010E947A1E6B017C0120E08D
:102D200030E040E85FE30E946F1E18164CF0C0923E
:102D30003404D0923504E0923604F09237040CC08B
:102D400080E090E0A0E8BFE38093340490933504E2
:102D5000A0933604B09337040E94AB109091020107
:102D6000891791F190912A049F5F90932A049330E0
:102D700028F080930201813031F410C0113019F035
:102D8000123061F022C081E080930804E8ECF0E0AA
:102D9000F0930704E093060411E03CC0809108041E
:102DA000813041F480910B0490910C04892B11F433
:102DB0000E94FB05109208040E9408061092070466
:102DC0001092060412E026C010E080910604909153
:102DD000070418161906F4F40197909307048093DA
:102DE0000604892BB9F480910B0490910C04833074
:102DF000910534F48130910544F4892B19F007C012
:102E0000039729F40E94FB0502C00E94B305F4E079
:102E1000F09308040E948E0780913204909133044D
:102E2000837099272091160130911701820F931F0B
:102E300090931501809314018091120190911301D8
:102E400090931101809310010E949F1B27E730E0AF
:102E500040E050E00E94191D6F5F7F4F8F4F9F4FE2
:102E60000E94B41B60934A0470934B0480934C04FB
:102E700090934D040E949F1B23E630E040E050E019
:102E80000E94191D6F5F7F4F8F4F9F4F0E94B41B91
:102E900020E030E048EC52E40E94C71D6093340407
:102EA0007093350480933604909337040E948E0704
:102EB00080910B0490910C048130910571F11CF408
:102EC000892B49F070C28230910509F4C5C103977E
:102ED00009F413C268C210923104109230041092A7
:102EE0002F0410922B0410922C0410922D04109297
:102EF0002E0420E030E048EC52E460914A047091E6
:102F00004B0480914C0490914D040E946F1E181642
:102F10000CF049C20E94FB0546C2D0904A04E090E2
:102F20004B04F0904C0400914D0420E030E0A901E6
:102F30006D2D7E2D8F2D902F0E94AD1B87FD13C010
:102F400020E030E04CE053E46D2D7E2D8F2D902F4E
:102F50000E946F1E181684F4712CA12C50EFB52E10
:102F600062E4C62E0CC09DEC792E2CECA22E3CEC1B
:102F7000B32E4DE3C42E03C07D2C5701C02E2090EC
:102F80002B0430902C0440902D0450902E04A2016C
:102F90009101672D7A2D8B2D9C2D0E946F1E181686
:102FA0006CF4872D9A2DAB2DBC2D80932B04909320
:102FB0002C04A0932D04B0932E043DC060910E010B
:102FC00070910F01072E000C880B990B0E94B41B07
:102FD00020E030E040E256E40E94C71D2AE939E9CA
:102FE00049E75FE30E945B1D9B01AC01C201B10197
:102FF0000E94131C60932B0470932C0480932D0467
:1030000090932E042DEC3CEC4CEC5FE30E94C71D2A
:10301000362E472E582E692E262F372F482F592F00
:10302000672D7A2D8B2D9C2D0E946F1E18161CF07B
:10303000732C5201C62C20E030E040E85BE3672DA2
:103040007A2D8B2D9C2D0E94131C2B013C01C090CE
:103050000D016C2D70E080E090E00E94B41B9B019C
:10306000AC01C301B2010E94131C2B013C01A090D2
:103070002F04B12CB5010B2C000C880B990B0E946E
:10308000B41B688B798B8A8B9B8B9B01AC01C30132
:10309000B2010E946F1E18166CF0288939894A897E
:1030A0005B89C301B2010E94AD1B87FF06C068EFB8
:1030B0007FEF05C060E170E002C060E070E02FEFDC
:1030C00030E040E050E0C5010E9474075C0180934D
:1030D0002F0460910B0170910C01072E000C880BDE
:1030E000990B0E94B41B9B01AC016D2D7E2D8F2D81
:1030F000902F0E94C71D2B013C016091120170911D
:103100001301072E000C880B990B0E94B41BA3011E
:1031100092010E945B1D0E94391E70931101609301
:1031200010016091090170910A01072E000C880BB3
:10313000990B0E94B41BA30192010E945B1D0E9487
:10314000391E709308016093070140903404509039
:103150003504609036047090370420E030E040E899
:103160005FE3C301B2010E946F1E181634F4412CB4
:10317000512C80E8682E8FE3782E20E030E040E08C
:1031800052E4C301B2010E94131C0E94391E685F01
:103190006C9DB00111247093310420E030E040E2D6
:1031A00052E4C301B2010E94131C0E94391E645FE5
:1031B0006C9D60011124BB248D2D90E08A159B0528
:1031C00008F4C5018093300420E030E040E752E489
:1031D000C301B2010E94131C20E030E041E653E439
:1031E0000E945B1D20E030E040EF51E40E945A1D38
:1031F0000E94391ECB010E9425062DEC3CEC4CECC4
:103200005EE36091340470913504809136049091AE
:1032100037040E94AD1B87FF69C020E030E040E228
:1032200051E460914A0470914B0480914C04909158
:103230004D040E94AD1B87FF59C0809105019091FC
:103240000601009719F40E94B305ADC00197909351
:10325000060180930501A7C02091090430910A045A
:10326000243631058CF58091030190910401820F81
:10327000931F853691052CF490930A0480930904DA
:1032800004C090920A04809209040E94080680916A
:103290000D0148E2849F90011124309331045CE8D1
:1032A000859F900111243093300468E7869FC00108
:1032B000112490932F048091090490910A04D40161
:1032C000A81BB90BCD0156C0E1E0F0E0F0930C046F
:1032D000E0930B0480E090E0A8ECB2E480934A0411
:1032E00090934B04A0934C04B0934D0420E43FE131
:1032F000309306012093050156C0809109049091F6
:103300000A04181619060CF04AC0019790930A0493
:10331000809309040E9408062091090430910A0450
:1033200040910D01429FC001439F900D1124B401B3
:103330000E94CF1E8091310490E0462F8617970798
:103340000CF4482F409331048091300490E0462FD4
:10335000861797070CF4482F4093300480912F0470
:1033600090E0861797070CF4BC0160932F04C4010A
:10337000821B930B2091120130911301280F391FEA
:1033800030931101209310012091090130910A011D
:10339000820F931F909308018093070104C010923D
:1033A0000C0410920B040E94EB0945CA82E090E0E5
:1033B0000E94D11C90E0909305048093040483E064
:1033C00090E00E94D11C80930D0184E090E00E9467
:1033D000D11C90E0909317018093160185E090E056
:1033E0000E94D11C90E0909313018093120186E01B
:1033F00090E00E94D11C90E090930A018093090113
:1034000087E090E00E94D11C90E080589109909351
:103410000C0180930B018CE090E00E94D11C90E0A5
:1034200090930F0180930E018BE090E00E94D11CDD
:1034300090E09093040180930301BAC9C616D706A1
:10344000E806F90608F009CB10CBCF93DF93109272
:103450002C0510922B0588EE93E0A0E0B0E080935D
:103460002D0590932E05A0932F05B093300527EAE4
:1034700033E030932A052093290525EC30E0309382
:1034800036052093350524EC30E030933805209341
:10349000370520EC30E030933A052093390521ECD4
:1034A00030E030933C0520933B0522EC30E0309334
:1034B0003E0520933D0526EC30E0309340052093F7
:1034C0003F05109242051092430510924405109258
:1034D00045051092C9051092C8058093CA059093BE
:1034E000CB05A093CC05B093CD0589EB93E09093E9
:1034F000C7058093C6051092D8051092D905109281
:10350000DA051092DB051092DC051092DD051092B1
:10351000DE051092DF051092E0051092E105109291
:10352000E2051092E3051092E4051092E505109271
:10353000E6051092E7058FEF80931A0610921C069D
:1035400010921B0610922606109225064FEF5FEF91
:10355000BA0140932106509322066093230670938C
:10356000240624E630E03093280620932706809333
:103570007606809377068093780680937906809309
:103580007A0680937B0690E890937C0610927D06E5
:1035900090937E0610927F0690938006109281068B
:1035A00010928206109283068093840610928506FC
:1035B00010928606809387068093880680938906FA
:1035C00010928A0680938B0695EA90938C0610924F
:1035D0008D0680938E0690938F06109290068093AE
:1035E0009106109292061092930680939406109280
:1035F00095061092960610929706109298061092D1
:10360000990610923A061092390662E08FE00E9405
:10361000490B62E080E10E94490BEFEDF0E0E4919C
:10362000F0E0EE0FFF1FEA53FF4FA591B491B09366
:103630002E06A0932D06E1ECF0E0849180933106F4
:10364000E0EEF0E0E491F0E0EE0FFF1FEA53FF4FF1
:10365000C591D491D0933006C0932F06E2ECF0E0F0
:10366000E491E093320610923406109235061092DF
:10367000360610923706EBE3FFE13197F1F7EC9154
:10368000E82381E009F480E02881909132069223BA
:1036900009F082608093330610923806DF91CF9153
:1036A00008958F929F92AF92BF92CF92DF92EF9246
:1036B000FF92CF93DF93EC01688179818A819B81AE
:1036C000611571058105910521F464E279ED8BE5C1
:1036D00097E02DE133EF41E050E00E94191D4901D0
:1036E0005A019B01AC01A7EAB1E40E94381D6B01AD
:1036F0007C01ACEEB4EFA50194010E94461DDC01F3
:10370000CB018C0D9D1DAE1DBF1DB7FF03C00197E2
:10371000A109B04888839983AA83BB83BC01CD01EA
:103720009F77DF91CF91FF90EF90DF90CF90BF9088
:10373000AF909F908F9008950E94511B089587EF3E
:1037400092E00E94511B08956093F7027093F80273
:103750008093F9029093FA0208950E94EF1B08F4F7
:1037600081E00895E89409C097FB3EF49095809518
:10377000709561957F4F8F4F9F4F9923A9F0F92F37
:1037800096E9BB279395F695879577956795B795B5
:10379000F111F8CFFAF4BB0F11F460FF1BC06F5F9B
:1037A0007F4F8F4F9F4F16C0882311F096E911C0AD
:1037B000772321F09EE8872F762F05C0662371F0CE
:1037C00096E8862F70E060E02AF09A95660F771FE2
:1037D000881FDAF7880F9695879597F90895990FBE
:1037E0000008550FAA0BE0E8FEEF16161706E807CB
:1037F000F907C0F012161306E407F50798F0621BEC
:10380000730B840B950B39F40A2661F0232B242BC0
:10381000252B21F408950A2609F4A140A6958FEFDF
:10382000811D811D08950E94261C0C94971C0E94E6
:10383000891C38F00E94901C20F0952311F00C9404
:10384000801C0C94861C11240C94CB1C0E94A81C78
:1038500070F3959FC1F3950F50E0551F629FF001E3
:10386000729FBB27F00DB11D639FAA27F00DB11DFC
:10387000AA1F649F6627B00DA11D661F829F222785
:10388000B00DA11D621F739FB00DA11D621F839F0C
:10389000A00D611D221F749F3327A00D611D231FE2
:1038A000849F600D211D822F762F6A2F11249F5730
:1038B00050409AF0F1F088234AF0EE0FFF1FBB1F33
:1038C000661F771F881F91505040A9F79E3F5105F2
:1038D00080F00C94801C0C94CB1C5F3FE4F3983E6A
:1038E000D4F3869577956795B795F795E7959F5F9C
:1038F000C1F7FE2B880F911D9695879597F908952E
:1039000097F99F6780E870E060E008959FEF80EC92
:10391000089500240A941616170618060906089535
:1039200000240A9412161306140605060895092E9B
:103930000394000C11F4882352F0BB0F40F4BF2B0A
:1039400011F460FF04C06F5F7F4F8F4F9F4F08954A
:1039500057FD9058440F551F59F05F3F71F0479540
:10396000880F97FB991F61F09F3F79F08795089525
:10397000121613061406551FF2CF4695F1DF08C044
:10398000161617061806991FF1CF86957105610561
:1039900008940895E894BB2766277727CB0197F909
:1039A0000895F999FECF92BD81BDF89A992780B507
:1039B0000895262FF999FECF1FBA92BD81BD20BD73
:1039C0000FB6F894FA9AF99A0FBE01960895DB01A2
:1039D0008F939F930E94381DBF91AF91A29F800D3E
:1039E000911DA39F900DB29F900D11240895A1E207
:1039F0001A2EAA1BBB1BFD010DC0AA1FBB1FEE1F69
:103A0000FF1FA217B307E407F50720F0A21BB30BB3
:103A1000E40BF50B661F771F881F991F1A9469F72F
:103A200060957095809590959B01AC01BD01CF018B
:103A30000895052E97FB1EF400940E94301D57FD3B
:103A400007D00E94F71C07FC03D04EF40C94301DE5
:103A500050954095309521953F4F4F4F5F4F0895BA
:103A600090958095709561957F4F8F4F9F4F0895EA
:103A70000E944B1DA59F900DB49F900DA49F800D9B
:103A8000911D11240895B7FF0C94381D0E94381D14
:103A9000821B930B0895A29FB001B39FC001A39F07
:103AA000700D811D1124911DB29F700D811D112477
:103AB000911D08955058BB27AA270E94721D0C948F
:103AC000971C0E94891C38F00E94901C20F039F449
:103AD0009F3F19F426F40C94861C0EF4E095E7FB46
:103AE0000C94801CE92F0E94A81C58F3BA17620797
:103AF00073078407950720F079F4A6F50C94CA1C87
:103B00000EF4E0950B2EBA2FA02D0B01B9019001F8
:103B10000C01CA01A0011124FF27591B99F0593F3C
:103B200050F4503E68F11A16F040A22F232F342F84
:103B30004427585FF3CF469537952795A795F040D2
:103B40005395C9F77EF41F16BA0B620B730B840BE7
:103B5000BAF09150A1F0FF0FBB1F661F771F881F9F
:103B6000C2F70EC0BA0F621F731F841F48F48795F7
:103B700077956795B795F7959E3F08F0B0CF9395E9
:103B8000880F08F09927EE0F9795879508950E9462
:103B9000DB1D0C94971C0E94901C58F00E94891CFD
:103BA00040F029F45F3F29F00C94801C51110C94D3
:103BB000CB1C0C94861C0E94A81C68F39923B1F3BB
:103BC000552391F3951B550BBB27AA276217730743
:103BD000840738F09F5F5F4F220F331F441FAA1FD7
:103BE000A9F335D00E2E3AF0E0E832D09150504093
:103BF000E695001CCAF72BD0FE2F29D0660F771F41
:103C0000881FBB1F261737074807AB07B0E809F026
:103C1000BB0B802DBF01FF2793585F4F3AF09E3FAB
:103C2000510578F00C94801C0C94CB1C5F3FE4F39E
:103C3000983ED4F3869577956795B795F7959F5FEE
:103C4000C9F7880F911D9695879597F90895E1E03A
:103C5000660F771F881FBB1F621773078407BA0799
:103C600020F0621B730B840BBA0BEE1F88F7E095F4
:103C700008950E94401E6894B1110C94CB1C0895C5
:103C80000E94B01C88F09F5798F0B92F9927B75120
:103C9000B0F0E1F0660F771F881F991F1AF0BA95F0
:103CA000C9F714C0B13091F00E94CA1CB1E0089568
:103CB0000C94CA1C672F782F8827B85F39F0B93F5A
:103CC000CCF3869577956795B395D9F73EF49095A3
:103CD0008095709561957F4F8F4F9F4F08950E94FB
:103CE000EF1B08F48FEF089519F416F40C94861C5A
:103CF0000C94BA1E0E94B01CB8F39923C9F3B6F312
:103D00009F57550B87FF0E94C81E0024A0E640EA7B
:103D1000900180585695979528F4805C660F771F20
:103D2000881F20F026173707480730F4621B730BF3
:103D3000840B202931294A2BA69517940794202516
:103D400031254A2758F7660F771F881F20F026175E
:103D50003707480730F4620B730B840B200D311DBD
:103D6000411DA09581F7B901842F9158880F969530
:103D7000879508959F3F31F0915020F4879577956E
:103D80006795B795880F911D9695879597F9089532
:103D900091505040660F771F881FD2F7089597FB08
:103DA000072E16F4009407D077FD09D00E94F01E6C
:103DB00007FC05D03EF4909581959F4F089570952E
:103DC00061957F4F0895EE0FFF1F0590F491E02D50
:103DD00009940E944B1DB7FF0895821B930B089511
:103DE000AA1BBB1B51E107C0AA1FBB1FA617B70721
:103DF00010F0A61BB70B881F991F5A95A9F780953D
:103E00009095BC01CD010895CF93DF938230910549
:103E100010F482E090E0E091A606F091A70620E081
:103E200030E0C0E0D0E0309711F140815181481777
:103E30005907C0F04817590761F482819381209790
:103E400019F09B838A832BC09093A7068093A606C4
:103E500026C02115310519F04217530718F49A01AD
:103E6000BE01DF01EF010280F381E02DDCCF2115DF
:103E7000310509F1281B390B2430310590F41296D5
:103E80008D919C9113976115710521F0FB0193832E
:103E9000828304C09093A7068093A606FD01329604
:103EA00044C0FD01E20FF31F819391932250310929
:103EB0002D933C933AC02091A4063091A506232B64
:103EC00041F42091FD023091FE023093A50620932B
:103ED000A4062091FB023091FC022115310541F42A
:103EE0002DB73EB74091FF0250910003241B350BC4
:103EF000E091A406F091A506E217F307A0F42E1BAB
:103F00003F0B2817390778F0AC014E5F5F4F24173D
:103F1000350748F04E0F5F1F5093A5064093A40647
:103F20008193919302C0E0E0F0E0CF01DF91CF9167
:103F300008950F931F93CF93DF93009709F48CC0DC
:103F4000FC013297138212820091A6061091A706F7
:103F50000115110581F420813181820F931F209179
:103F6000A4063091A5062817390779F5F093A50620
:103F7000E093A40671C0D80140E050E0AE17BF073F
:103F800050F412962D913C911397AD0121153105F6
:103F900009F1D901F3CF9D01DA01338322836081D6
:103FA0007181860F971F8217930769F4EC012881AE
:103FB0003981260F371F2E5F3F4F318320838A813F
:103FC0009B8193838283452B29F4F093A706E0938A
:103FD000A60642C01396FC93EE931297ED01499109
:103FE00059919E01240F351FE217F30771F4808168
:103FF0009181840F951F029611969C938E938281D6
:10400000938113969C938E931297E0E0F0E0D80191
:1040100012968D919C911397009719F0F8018C01DD
:10402000F6CF8D919C9198012E5F3F4F820F931F89
:104030002091A4063091A5062817390769F4309716
:1040400029F41092A7061092A60602C013821282CB
:104050001093A5060093A406DF91CF911F910F91B5
:10406000089581E090E0F8940C943620F894FFCF06
:104070003905010100401F340034002800F08000A1
:10408000320032002F002F00CDCCD4417A736E6203
:104090005D5F63707B85939EABB4C1C9CCCAC0B968
:1040A000B3ACAAA3A0A19891877665534537342E67
:1040B0002225282F3C485360747C8A9599A4A29F9E
:1040C0009A95908B8D8D8F9093969797928B8678FB
:1040D000645A4E484A4D555D6F8597ABBAC7CACAF8
:1040E000C9BCB6AEA29E9E9D979289786A554941F9
:1040F000373634333D45506172828F999CA2A19826
:1041000090887F7677767B8782817C7A87919C996D
:104110008D7F7365564C494B53606F7C8B98A4B070
:10412000BAC6CAC0AF93715238261E1D2632455CEE
:10413000738998A2A9ADA89E928378726C6B7179ED
:10414000828D96989492939499A0A7A8A5A39F98DE
:10415000928F88837A6C5E50474344506171839795
:10416000A6B5C1CCD1C8BAA07E5E412C1D171B24B8
:10417000344A63798C9AA1A7A59C9081766E686673
:104180006A727A838B8D898687888E99A1A6A6A666
:10419000A39C9899969182827565554B5E747C714B
:1041A000575889AEB3C8D4BD834B34426D9FD6F700
:1041B000F5D6B5A89B8B775731191B293C6499BE5E
:1041C000BA9F87766B66676E7E959E8E755C575D2F
:1041D0005F6362615B56575664829FB8CFE0E2D955
:1041E000C39D847D7A7A7B8590988E72615C6A81AA
:1041F000949D9F947A5E483D383E4A5D74808582E6
:104200007C7773767D96B4C5C5BEB5A693826E5A8B
:1042100056595C6066696D6F696C788893A1A7A434
:10422000A09D9E9E998D837D736D747F80786A5763
:1042300045373647647A8B938E8B8E99A8B5BEC569
:10424000C7BCA8988E8B877F797F80807E72685EDE
:10425000595C5C646F7D80766B6269747F8A92952D
:1042600090867BF509F509010000000000A8068092
:104270000000000000960A960A960AC003BC03B923
:1042800003000000003903F502A000C003BC039D39
:1042900000A200B400C800D200DC00B400C000F0EE
:1042A00000D2001E001E002300280028002D00F66A
:1042B000FF1E003400330036003C00340039003269
:1042C000002F003200320037003C00320032003252
:1042D000002F002F0030002F0032002F003200315D
:1042E000002D000300020002000300020003000290
:1042F000000100FF00FF00FF002000FF00FF00FFA3
:1043000000FF009000600040009000A000C000206E
:10431000000000000000008209000E1A09C9094BC4
:104320000929093D0900000000690A2C0A930A00C6
:104330000A240A100A010A564D4450565F317C3156
:104340005F564D4450560D0A0052756E6E696E6789
:1043500000564D4450455F003A323A007C005F56AB
:104360004D445045004C69676874696E67204C4540
:02437000440007
:107E0000112484B714BE81FFF0D085E080938100F7
:107E100082E08093C00088E18093C10086E0809377
:107E2000C20080E18093C4008EE0C9D0259A86E02C
:107E300020E33CEF91E0309385002093840096BBD3
:107E4000B09BFECF1D9AA8958150A9F7CC24DD24C4
:107E500088248394B5E0AB2EA1E19A2EF3E0BF2EE7
:107E6000A2D0813461F49FD0082FAFD0023811F036
:107E7000013811F484E001C083E08DD089C08234E0
:107E800011F484E103C0853419F485E0A6D080C0E4
:107E9000853579F488D0E82EFF2485D0082F10E0AE
:107EA000102F00270E291F29000F111F8ED06801E7
:107EB0006FC0863521F484E090D080E0DECF843638
:107EC00009F040C070D06FD0082F6DD080E0C81688
:107ED00080E7D80618F4F601B7BEE895C0E0D1E017
:107EE00062D089930C17E1F7F0E0CF16F0E7DF06D8
:107EF00018F0F601B7BEE89568D007B600FCFDCFD4
:107F0000A601A0E0B1E02C9130E011968C91119780
:107F100090E0982F8827822B932B1296FA010C0160
:107F200087BEE89511244E5F5F4FF1E0A038BF0790
:107F300051F7F601A7BEE89507B600FCFDCF97BE46
:107F4000E89526C08437B1F42ED02DD0F82E2BD052
:107F50003CD0F601EF2C8F010F5F1F4F84911BD097
:107F6000EA94F801C1F70894C11CD11CFA94CF0C13
:107F7000D11C0EC0853739F428D08EE10CD085E9AC
:107F80000AD08FE07ACF813511F488E018D01DD067
:107F900080E101D065CF982F8091C00085FFFCCF94
:107FA0009093C60008958091C00087FFFCCF809118
:107FB000C00084FD01C0A8958091C6000895E0E648
:107FC000F0E098E1908380830895EDDF803219F02E
:107FD00088E0F5DFFFCF84E1DECF1F93182FE3DFCA
:107FE0001150E9F7F2DF1F91089580E0E8DFEE27F6
:047FF000FF270994CA
:027FFE00040479
:0400000300007E007B
:00000001FF