:100000000C94F2000C94940C0C946D0C0C941A014A
:100010000C941A010C941A010C941A010C941A01F4
:100020000C941A010C941A010C941A010C945006A9
:100030000C941A010C941A010C941A010C941A01D4
:100040000C94230C0C941A010C94F10A0C94CB0A16
:100050000C941A010C941A010C941A010C941A01B4
:100060000C94BB0C0C941A01F9074E086008BC08EC
:10007000D108DC08F008FB08060911091C0900007A
:10008000CCFFFF00FFFF97A0895B5A0F830DC95F6C
:100090006035C2E907E18C24671E458E086325F0B0
:1000A000150A17BE0694F778EA4B001AC53E5EFCA7
:1000B000DBCB75230B2039B12158ED953857AE14A1
:1000C0007D88ABA844AF4AA547868B301BA64D92CE
:1000D0009EE7536FE57A3CD385E6DC695C29372ED1
:1000E000F528F4668F3641193FA101D85049D14C0B
:1000F00084BBD05912A9C8C4878274BC9F56A4641B
:100100006DC6ADBA034034D9E2FA7C7B05CA2693AA
:10011000767EFF5255D4CFCE3BE32F103A11B6BDB9
:100120001C2ADFB7AAD577F898022C9AA346DD9946
:10013000659BA72BAC09811627FD13626C6E4F716E
:10014000E0E8B2B97068DAF661E4FB22F2C1EED2FF
:10015000900CBFB3A2F1513391EBF90EEF6B31C0AC
:10016000D61FB5C76A9DB854CCB07379322D7F04C1
:1001700096FE8AECCD5DDE72431D1848F38D80C378
:100180004E42D73D9CB49700000000240027002A6F
:100190000000000000250028002B000000000800DF
:1001A000020100000304070000000000000000013D
:1001B00002040810204080010204081020010204FB
:1001C0000810200000000023002600290004040479
:1001D00004040404040202020202020303030303F0
:1001E0000300261C11241FBECFEFD8E0DEBFCDBF19
:1001F00014E0A0E0B1E0E2E7F4E402C005900D9263
:10020000A030B107D9F726E0A0E0B4E001C01D920C
:10021000A83AB207E1F710E0C2EFD0E004C021979E
:10022000FE010E94E420C13FD107C9F70E9450108F
:100230000C9437220C94000080E991E00895239AF1
:1002400008953F924F925F926F927F928F929F920A
:10025000AF92BF92CF92DF92EF92FF920F931F93D4
:10026000CF93DF9300D000D000D0CDB7DEB78C01A4
:10027000DC0117963C9017971996CC9019971B960E
:10028000DC9080910604823009F07CC0A0900204CA
:10029000B0900304F0E86F2EF6E07F2EA3E0B0E00C
:1002A00020E030E062E070E0E12CF12CF801808188
:1002B0009181AB014058594F2A01EA14FB04D1F453
:1002C000820F931FF3019080FC01908241505109ED
:1002D000FA015081FC015183F2014081FC0142830B
:1002E000F80180819181FC01EA0FFB1F908251830C
:1002F000428329C0FA01408150E0689413F8559573
:1003000047951694E1F73197E081F0E02F0154E032
:10031000559447945A95E1F7820F931FF30180801B
:10032000912CE4E095948794EA95E1F7FC018082B2
:1003300041824283F80180819181FC01EA0FFB1F19
:10034000108211821282C9010696F8014081518102
:10035000FA01E80FF91F108211821282FFEFEF1AE3
:10036000FF0A6D5F7F4F275F3F4F43E0640E711CB4
:1003700019966632710509F099CF84E290E09E8368
:100380008D8302C01E821D82809107049091080413
:10039000A0910904B0910A0489839A83AB83BC833A
:1003A000ED80FE80EE0CFF1CAD81BE81EA0EFB1ECF
:1003B00023E630E00E94EA202B013C01812C912CA5
:1003C0005401F801228133814D815E814217530728
:1003D0000CF044C021503109032E000C440B550B86
:1003E000C501B401640D751D861D971D0E941A1F5D
:1003F000CA01B9016F5F7F4F8F4F9F4F0E94B51D9C
:1004000029813A814B815C810E94AE1DF8012081D7
:10041000318187FF15C0F901EE0DFF1DD082C18229
:1004200032824D815E814F5F5F4F5E834D8353E02B
:10043000E50EF11C83E6880E911CA11CB11CC1CFF6
:100440008D819E81880F991FAD81BE818A0F9B1F70
:10045000FC01E20FF31F10821182128226960FB662
:10046000F894DEBF0FBECDBFDF91CF911F910F91EA
:10047000FF90EF90DF90CF90BF90AF909F908F90C4
:100480007F906F905F904F903F90089518161906D7
:1004900024F490934B0680934A061616170624F40C
:1004A00070934D0660934C061416150624F4509371
:1004B0004F0640934E0683E496E00C942101FF9290
:1004C0000F931F93CF93DF93DC01ED91FC91AF2F3E
:1004D00031E03F0F321301C030E0EF01DD278B0127
:1004E0000A0F111DD801FC90DB01A30FB11D3C9137
:1004F0003C9F80013D9F100D1124A0E0B1E0AC1B9A
:10050000BD0BFA9EB001FB9E700D1124600F711F90
:100510004E0F5F1F30E0322F22274217530710F093
:10052000421B530BDC014D935C93872FDF91CF91DE
:100530001F910F91FF90089580E090E00895FC01D5
:10054000858596850895CF93DF9300D000D000D0A5
:10055000CDB7DEB7AB011C821D821E82DC01ED919E
:10056000FC910190F081E02D19821A821B829E017C
:100570002F5F3F4FBE016C5F7F4F099526960FB6E8
:10058000F894DEBF0FBECDBFDF91CF9108954F929B
:100590005F926F927F928F92AF92BF92CF92EF92C3
:1005A000FF920F931F93CF93DF933C01EB010E94C7
:1005B000B80BF30127853089621B730B6A30710514
:1005C000B0F3F894E881F98155B1586085B1877F1F
:1005D00085B96A859F81262F291B922F2F83BF847F
:1005E0004A805B807D85FC84EE847F5FF394E39496
:1005F0003E814885A984CB841181D20120E0C32F9C
:10060000022F322F3181112788943111390F08F4CC
:100610003FEF9195889470FD130F1795889471FDA5
:10062000130F1795889472FD130F1795889473FD17
:10063000130F1795889474FD130F1795889475FD03
:10064000130F1795889476FD130F1795889477FDEF
:10065000130F17958894232F7111212F960F122FA6
:10066000002C55B900C017FF85B930812227889426
:1006700000C000C0002C85B931113C0F00C0002C17
:1006800055B900C016FF85B908F43FEFC1958894AD
:1006900000C000C0002C85B9F0FC230F00C0002C66
:1006A00055B900C015FF85B927958894F1FC230F33
:1006B00000C000C0002C85B92795889400C0002C8C
:1006C00055B900C014FF85B9F2FC230F2795889413
:1006D00000C000C0002C85B9F3FC230F00C0002C23
:1006E00055B900C013FF85B927958894F4FC230FF2
:1006F00000C000C0002C85B92795889400C0002C4C
:1007000055B900C012FF85B9F5FC230F27958894D1
:1007100000C000C0002C85B9F6FC230F00C0002CDF
:1007200055B900C011FF85B927958894F7FC230FB0
:1007300000C000C0002C85B92795889400C0002C0B
:1007400055B900C010FF85B9132FF110122FCA0D33
:1007500000C000C0002C85B900C000C0002C55B9F5
:1007600000C017FF85B932812227889400C000C0DD
:10077000002C85B93111340F00C0002C55B900C0D0
:1007800016FF85B908F43FEFEB0DF11D00C000C066
:10079000002C85B9E0FC230F00C0002C55B900C027
:1007A00015FF85B927958894E1FC230F00C000C090
:1007B000002C85B92795889400C0002C55B900C03D
:1007C00014FF85B9E2FC230F2795889400C000C070
:1007D000002C85B9E3FC230F00C0002C55B900C0E4
:1007E00013FF85B927958894E4FC230F00C000C04F
:1007F000002C85B92795889400C0002C55B900C0FD
:1008000012FF85B9E5FC230F2795889400C000C02E
:10081000002C85B9E6FC230F00C0002C55B900C0A0
:1008200011FF85B927958894E7FC230F00C000C00D
:10083000002C85B92795889400C0002C55B900C0BC
:1008400010FF85B9132FE110122F419500C000C091
:10085000002C85B94C0D00C000C055B900C017FF71
:1008600085B931812227889400C000C0002C85B949
:100870003111390F00C0002C55B900C016FF85B9E1
:1008800008F43FEF9195889400C000C0002C85B912
:1008900070FD230F00C0002C55B900C015FF85B9AD
:1008A0002795889471FD230F00C000C0002C85B9E6
:1008B0002795889400C0002C55B900C014FF85B955
:1008C00072FD230F2795889400C000C0002C85B9C5
:1008D00073FD230F00C0002C55B900C013FF85B96C
:1008E0002795889474FD230F00C000C0002C85B9A3
:1008F0002795889400C0002C55B900C012FF85B917
:1009000075FD230F2795889400C000C0002C85B981
:1009100076FD230F00C0002C55B900C011FF85B92A
:100920002795889477FD230F00C000C0002C85B95F
:100930002795889400C0002C55B900C010FF85B9D8
:10094000132F7111122F960F00C000C0002C85B913
:10095000119709F086CE20EE31E0D2010E94EA2004
:10096000DC01CB01F4E0B695A79597958795FA95AC
:10097000D1F720E030E0A9016AE9469E040C411D50
:10098000569E400D511D1124450D511D840F951F7C
:10099000A11DB11D893E43E09407A105B10508F4EE
:1009A00034C0885E9340A109B10942E0B695A7958D
:1009B000979587954A95D1F747E0849F080E211DAA
:1009C000949F200D311D1124290F311D6091760453
:1009D00070E0860F971F820F931F409197045091EC
:1009E00098046091990470919A04292F3327420F3B
:1009F000531F611D711D4093970450939804609399
:100A0000990470939A048093760478940E94B80BAA
:100A1000F301708B6787DF91CF911F910F91FF904A
:100A2000EF90CF90BF90AF908F907F906F905F903E
:100A30004F9008950F931F93CF93DF93CDB7DEB7F9
:100A400062970FB6F894DEBF0FBECDBF8C01F901DF
:100A5000DC011C968C917A8369835C834B835E8373
:100A60004D8390819D8791819E8792819F87813060
:100A700029F4CE0101960E94E60D06C01C861B8655
:100A80001A86198618861F8283E0888B1A8A198A2B
:100A9000D801ED91FC910484F585E02DBE016F5FD6
:100AA0007F4FC801099562960FB6F894DEBF0FBE5E
:100AB000CDBFDF91CF911F910F9108950F931F9399
:100AC000CF93DF93CDB7DEB762970FB6F894DEBF52
:100AD0000FBECDBF8C01F901DC011C968C917A838D
:100AE00069835C834B835E834D8390819D87918175
:100AF0009E8792819F87813029F4CE0101960E94C2
:100B0000E60D06C01C861B861A86198618861F826B
:100B1000188A1A8A198AD801ED91FC910484F58506
:100B2000E02DBE016F5F7F4FC801099562960FB639
:100B3000F894DEBF0FBECDBFDF91CF911F910F9113
:100B40000895DC01ED91FD918081ED91FD91908101
:100B5000ED91FD916C9163708E2309F064609F2389
:100B600009F06860EEEBF5E0E60FF11D659565951F
:100B70006D936D917D918D919D91099423C01AC0C3
:100B800012C016C010C01EC009C014C013C006C0D9
:100B900019C009C00DC007C00DC014C0625070401C
:100BA000804090400BC0615070408040904006C033
:100BB0006E5F01C06F5F7F4F8F4F9F4F9E938E93ED
:100BC0007E936E93089580913506909136060C942D
:100BD000A10580913306909134060C94A105809173
:100BE0000B0490910C04019709F048C083E090E059
:100BF00090930C0480930B046091020482E090E0D7
:100C00000E94340F60910F0183E090E00E94340F46
:100C10006091180184E090E00E94340F609114010B
:100C200085E090E00E94340F60910B0186E090E037
:100C30000E94340F60910D0187E090E00E94340F14
:100C4000609110018CE090E00E94340F60910201ED
:100C50007091030180910401909105010E9441204F
:100C60008BE090E00E94340F6AE280E090E00E9406
:100C7000340F60E081E090E00C94340F089580918F
:100C80000B0490910C04892B31F482E090E0909356
:100C90000C0480930B04089583E496E00C942101E6
:100CA0001F920F920FB60F9211242F933F934F93E1
:100CB0005F936F937F938F939F93AF93BF93EF93C4
:100CC000FF9340911601509117012DEC68E272E0FC
:100CD00082E794E00E945F0240911201509113015B
:100CE00025E863EA71E080E794E00E945F024091AA
:100CF000090150910A0125E86EE171E08EE694E069
:100D00000E945F02FF91EF91BF91AF919F918F91F0
:100D10007F916F915F914F913F912F910F900FBEF7
:100D20000F901F901895CF92DF92EF92FF92CF9382
:100D3000DF93EC01688179818A819B819B01AC0101
:100D40000E94141E20E030E0A9010E945C1F6B018C
:100D50007C016C817D818E819F819B01AC010E9411
:100D6000141E9B01AC01C701B6010E945C1F6B0100
:100D70007C01688579858A859B859B01AC010E94F1
:100D8000141E9B01AC01C701B6010E945C1FDF91DC
:100D9000CF91FF90EF90DF90CF900C947B20AF929B
:100DA000BF92CF92DF92EF92FF920F931F93CF9358
:100DB000DF9300D000D000D0CDB7DEB78B01EE249A
:100DC000E394E0920F0578E6F72EF0923105109249
:100DD000100510923205682F80ED95E00E949C0A64
:100DE0000E944E0FE0920F05F0923105109210050F
:100DF0001092320580910E058111FCCF81E0809325
:100E00000E0580930D059FEF90930C0510920B0536
:100E100095E090930A058093E9048091E904806D40
:100E20008093E9048091E804813041F41092E80451
:100E30008091E9048093BB0085EC01C085EE80932E
:100E4000BC0080910E058130E1F380910B05863066
:100E500018F4F0900B0502C066E0F62EAAEEB4E09E
:100E600027E734E0F9018E2F821B8F1518F48D913E
:100E70008193F9CF10920104F092000486E08F155F
:100E800080F0FE0131965F016F018C2D8A198F155C
:100E900088F480ED95E00E94430AF60181936F018A
:100EA000F4CF56E0E52E80ED95E00E94430AEA94E7
:100EB000E110F9CF0E944E0FF6E0FF1611F080E02E
:100EC0001AC0898190E0982F88272A81822BF80107
:100ED000918380838B8190E0982F88272C81822BAF
:100EE000938382838D8190E0982F88272E81822B97
:100EF0009583848381E026960FB6F894DEBF0FBEFB
:100F0000CDBFDF91CF911F910F91FF90EF90DF90B8
:100F1000CF90BF90AF900895161617063CF4281B8B
:100F2000390B621773077CF49B010DC061157105C5
:100F300041F0481B590B9B016417750724F49A0173
:100F400002C020E030E0820F931F0895CF93DF931B
:100F500080914206823030F4F89487E396E00E9454
:100F6000A10501C0F89480913E0690913F06A091A2
:100F70004006B091410678949C0197FF02C02D5F16
:100F80003F4F35952795359527952115310509F45E
:100F900081C16CEF6203A001639F500D1124F8948E
:100FA000840F951F092E000CAA0BBB0B80933E06E5
:100FB00090933F06A0934006B09341067894CC27C7
:100FC000DD27C21BD30B80910604813009F444C194
:100FD00020F0823009F443C159C1E0910204F0913C
:100FE0000304EB30F10508F051C1EC5CFF4F0C94A9
:100FF000E4206091020170910301809104019091BD
:1010000005010E943A20DC01CB0128E030E041E0FC
:1010100050E0BE010E948C07BC01990F880B990B10
:101020000E94B51D60930201709303018093040137
:101030009093050120910B0430910C04223031056E
:10104000D9F03CF42115310559F02130310579F002
:101050001DC12330310521F024303105C1F016C106
:101060001C161D060CF012C10E943F060FC1D7FFCF
:101070000DC10E94EF050AC1D7FF08C120E030E092
:1010800040E85FE30E94AE1D811100C1F2CFD7FF9F
:10109000FDC010920C0410920B04F8C0BE0134E0A5
:1010A000660F771F3A95E1F780910F012FEF30E03F
:1010B00040E050E090E00E948C0780930F01E6C072
:1010C00027E030E040E050E0BE0180917404909150
:1010D00075040E948C079093750480937404EC014E
:1010E000CC0FDD1FFE01E356FC4F40815181FE0114
:1010F000E357FC4F608171818FEF9FEF0E944602A2
:10110000FE01E358FC4F60817181072E000C880BB3
:10111000990B0E94B51D60930201709303018093A7
:10112000040190930501FE01E359FC4F80819181F8
:101130009093190180931801FE01E35AFC4F8081BE
:1011400091819093150180931401FE01E35BFC4FA4
:101150008081918190930C0180930B01FE01E35CEF
:10116000FC4F8081918190930E0180930D01C35DAE
:10117000DC4F888199816BC0BE0193E0660F771FB9
:101180009A95E1F72FEF30E047E050E080914A0672
:1011900090914B060E948C074FEF5FEF6FEF7FEF50
:1011A00073C080914E0690914F06480F591F50937F
:1011B0004F0640934E0664C0BE0183E0660F771F62
:1011C0008A95E1F72FEF30E040E050E080914C0647
:1011D00090914D060E948C074FEF5FEFBC0152C00B
:1011E0008091180190911901821B930B9093190122
:1011F000809318014BC08091140190911501821BBE
:10120000930B909315018093140140C080910B01C2
:1012100090910C01821B930B90930C0180930B0116
:1012200035C080910D0190910E01821B930B90931C
:101230000E0180930D012AC02FEF30E040E050E016
:10124000BE0180911001909111010E948C07909332
:101250001101809310011AC082E0809306042BE0F4
:1012600030E040E050E0BE01809102049091030420
:101270000E948C0790930304809302044FEF5FEF6A
:101280006FEF7FEF8FEF9FEF0E94460210920504F1
:1012900010920404DF91CF910895FC01538D448D89
:1012A000252F30E0842F90E0821B930B541710F011
:1012B000CF96089501970895FC01918D828D98171E
:1012C00061F0828DDF01A80FB11D5D968C91928D2A
:1012D0009F5F9F73928F90E008958FEF9FEF089527
:1012E000FC01918D828D981731F0828DE80FF11DF0
:1012F000858D90E008958FEF9FEF0895FC01918D0B
:10130000228D892F90E0805C9F4F821B91098F7303
:101310009927089583E395E00E947E0921E0892BB7
:1013200009F420E0822F0895FC01848DDF01A80FCD
:10133000B11DA35ABF4F2C91848D90E001968F73FD
:101340009927848FA689B7892C93A089B1898C911C
:1013500080648C93938D848D981306C00288F389E2
:10136000E02D80818F7D80830895EF92FF920F930F
:101370001F93CF93DF93EC0181E0888F9B8D8C8D41
:10138000981305C0E889F989808185FD24C0F62E6F
:101390000B8D10E00F5F1F4F0F731127E02E8C8D08
:1013A000E8120CC00FB607FCFACFE889F9898081F2
:1013B00085FFF5CFCE010E949409F1CF8B8DFE0100
:1013C000E80FF11DE35AFF4FF0820B8FEA89FB898A
:1013D0008081806207C0EE89FF896083E889F9898E
:1013E00080818064808381E090E0DF91CF911F91C4
:1013F0000F91FF90EF900895CF93DF93EC01888DCC
:101400008823C9F0EA89FB89808185FD05C0A88908
:10141000B9898C9186FD0FC00FB607FCF5CF80818E
:1014200085FFF2CFA889B9898C9185FFEDCFCE01D8
:101430000E949409E7CFDF91CF91089580E090E07A
:10144000892B29F00E948A0981110C9400000895CB
:10145000089585ED8093BC008091BC0084FDFCCF95
:1014600010920E0508950895E09101048091000402
:10147000E81730F4F0E0E958FB4F808190E00895E0
:101480008FEF9FEF089590910104809100049817C9
:1014900050F4E92FF0E0E958FB4F208130E09F5FE6
:1014A0009093010402C02FEF3FEFC901089580918E
:1014B000000490E020910104821B91090895CF92CD
:1014C000DF92EF92FF920F931F93CF93DF937C01F4
:1014D0008A0180910F05882389F0EB016B01C40E0E
:1014E000D51ECC15DD05F1F06991D701ED91FC9188
:1014F0000190F081E02DC7010995F3CF842F41328F
:1015000088F490910E05943069F44093BE04FB0179
:101510002CE934E0D9019A2F921B981718F4919175
:101520009D93F9CFC801DF91CF911F910F91FF904B
:10153000EF90DF90CF90089520910F052223C9F0FE
:1015400020913205203240F021E030E0FC0133836D
:10155000228380E090E0089580911005E82FF0E06C
:10156000EF5EFA4F60838F5F8093100580933205A2
:1015700009C080910E05843029F481E08093BE0477
:1015800060939C0481E090E00895089580E090E0ED
:1015900008950E9432221F920F920FB60F921124CB
:1015A0002F933F934F935F936F937F938F939F936B
:1015B000AF93BF93EF93FF9383E395E00E94940969
:1015C000FF91EF91BF91AF919F918F917F916F911B
:1015D0005F914F913F912F910F900FBE0F901F90F1
:1015E00018951F920F920FB60F9211242F938F937D
:1015F0009F93EF93FF93E0914305F0914405808121
:10160000E0914905F0914A0582FD12C090818091D8
:101610004C058F5F8F7320914D05821751F0E0913B
:101620004C05F0E0ED5CFA4F958F80934C0501C0BE
:101630008081FF91EF919F918F912F910F900FBE1D
:101640000F901F901895833081F028F4813099F025
:101650008230A1F008958730A9F08830B9F0843045
:10166000D1F4809180008F7D03C0809180008F77BE
:1016700080938000089584B58F7702C084B58F7DF4
:1016800084BD08958091B0008F7703C08091B00031
:101690008F7D8093B00008951F93CF93DF93282F01
:1016A00030E0F901E556FE4F8491F901E155FE4F16
:1016B000D491F901E353FE4FC491CC23C9F0162F06
:1016C00081110E94230BEC2FF0E0EE0FFF1FEF566D
:1016D000FE4FA591B4918FB7F894111105C09C915C
:1016E000ED2FE095E92302C0EC91ED2BEC938FBF39
:1016F000DF91CF911F910895CF93DF9390E0FC018C
:10170000E155FE4F2491FC01E353FE4F8491882361
:1017100061F190E0880F991FFC01E957FE4FC591D8
:10172000D491FC01EF56FE4FA591B491611109C00F
:101730009FB7F8948881209582238883EC912E238B
:101740000BC0623061F49FB7F8943881822F809586
:1017500083238883EC912E2B2C939FBF06C08FB7D9
:10176000F894E8812E2B28838FBFDF91CF910895C5
:101770003FB7F8948091E4049091E504A091E604C9
:10178000B091E70426B5A89B05C02F3F19F001963C
:10179000A11DB11D3FBFBA2FA92F982F8827820FF7
:1017A000911DA11DB11DBC01CD0142E0660F771F47
:1017B000881F991F4A95D1F708958F929F92AF92F3
:1017C000BF92CF92DF92EF92FF926B017C010E9459
:1017D000B80B4B015C01C114D104E104F104F1F038
:1017E0000E94B80BDC01CB0188199909AA09BB0931
:1017F000883E9340A105B10570F321E0C21AD108DB
:10180000E108F10888EE880E83E0981EA11CB11C47
:10181000C114D104E104F10419F7DDCFFF90EF907A
:10182000DF90CF90BF90AF909F908F9008952FB78B
:10183000F894609197047091980480919904909124
:101840009A042FBF08951F920F920FB60F92112482
:101850002F933F938F939F93AF93BF938091970460
:1018600090919804A0919904B0919A043091E30466
:1018700023E0230F2D3720F40196A11DB11D05C0D3
:1018800026E8230F0296A11DB11D2093E304809347
:10189000970490939804A0939904B0939A0480912C
:1018A000E4049091E504A091E604B091E704019668
:1018B000A11DB11D8093E4049093E504A093E60478
:1018C000B093E704BF91AF919F918F913F912F917A
:1018D0000F900FBE0F901F9018951F920F920FB68A
:1018E0000F9211242F933F934F935F936F937F93A6
:1018F0008F939F93AF93BF93EF93FF93E091F70282
:10190000F091F8020995FF91EF91BF91AF919F91EE
:101910008F917F916F915F914F913F912F910F9098
:101920000FBE0F901F9018951F920F920FB60F9237
:1019300011242F933F934F935F936F937F938F93D4
:101940009F93AF93BF93EF93FF93E091F502F091D4
:10195000F6020995FF91EF91BF91AF919F918F9101
:101960007F916F915F914F913F912F910F900FBE9B
:101970000F901F9018951F920F920FB60F9211247F
:101980002F933F934F935F936F937F938F939F9387
:10199000AF93BF93EF93FF938091B900887F803618
:1019A00009F49CC068F5883209F45BC090F480317A
:1019B00009F454C038F4882309F4F3C0883009F4DA
:1019C0004DC0F3C0883109F44CC0803209F45DC0C9
:1019D000ECC0803409F468C048F4803309F455C081
:1019E000883309F0E2C080930C05D5C0803509F436
:1019F0004FC0883509F45DC0883409F0D6C0D3C023
:101A0000883909F4C4C0A8F4883709F467C038F4E9
:101A1000883609F463C0803709F460C0C6C08838CE
:101A200009F4B5C0803909F45FC0803809F0BDC041
:101A30005BC0803B09F483C038F4803A09F466C087
:101A4000883A09F47CC0B1C0803C09F4A4C0883C49
:101A500009F4A1C0883B09F487C0A7C08091E904BC
:101A600010C090910B0580910A05981770F5E091D0
:101A70000B0581E08E0F80930B05F0E0E651FB4FE4
:101A800080818093BB0085EC83C080930C058BC064
:101A9000E0910B0581E08E0F80930B058091BB00D8
:101AA000F0E0E651FB4F808390910B0580910A0591
:101AB0006BC0E0910B0581E08E0F80930B05809148
:101AC000BB00F0E0E651FB4F808380910D05811152
:101AD0006AC081E08093E80484EA5EC083E080937A
:101AE0000E051092E204CFCF8091E204803208F01C
:101AF0004EC0E091E20481E08E0F8093E204809179
:101B0000BB00F0E0EE53FB4F8083BDCF8091E20439
:101B1000803230F4E091E204F0E0EE53FB4F1082AB
:101B20000E94290A6091E20470E0E091C004F09103
:101B3000C10482EC94E009951092E2042CC084E088
:101B400080930E051092BF041092BE04E091BC0475
:101B5000F091BD0409958091BE04811105C081E01A
:101B60008093BE0410929C04E091BF0481E08E0F2C
:101B70008093BF04F0E0E456FB4F80818093BB006C
:101B80009091BF048091BE04981708F47CCF85E83B
:101B90008093BC000AC085EC8093BC0010920E05B7
:101BA00004C010920C050E94290AFF91EF91BF9189
:101BB000AF919F918F917F916F915F914F913F91E5
:101BC0002F910F900FBE0F901F901895EF92FF92DC
:101BD0000F931F93CF93DF93EC0190919B049F5F32
:101BE000292F277020939B0490FF02C090E801C02A
:101BF00090E021FD9064247009F0906220E1290FAB
:101C0000FE013C967E018FE0E80EF11C00E011E041
:101C10006191662331F070E0C8010E94D0206F5FAF
:101C200001C060E0DF0114976C93322F369F030EE2
:101C300030E0311D1124CF010797311103C0EC01B1
:101C4000188203C03150EC013883662311F06150D3
:101C50006C93EE15FF05E1F6DF91CF911F910F9187
:101C6000FF90EF900895CF92DF92EF92FF920F9343
:101C70001F93CF93DF936C017A018B01C0E0D0E01A
:101C8000CE15DF0589F0D8016D918D01D601ED915A
:101C9000FC910190F081E02DC6010995892B11F48A
:101CA0007E0102C02196ECCFC701DF91CF911F9139
:101CB0000F91FF90EF90DF90CF900895E3E3F5E070
:101CC000A089B18982E08C93A485B5851C92A685F4
:101CD000B7858FEC8C93108EA489B58986E08C93A0
:101CE000A289B3898C9180618C93A289B3898C91EC
:101CF00088608C93A289B3898C9180688C930288C8
:101D0000F389E02D80818F7D8083089520E330E08A
:101D1000FB01DC0120FF05C002C001900D92019083
:101D20000D922250D0F73040C0F708957F928F92E5
:101D30009F92AF92BF92CF92DF92EF92FF920F935A
:101D40001F93CF93DF93FC01EB017A01D901481770
:101D50005907C8F42C9111969C91119712968C9169
:101D6000129738813C93398111963C9311973A81AF
:101D700012963C931297288399838A839E2F8F2FE4
:101D8000FA01E92EF82EC880D12C8C9190E08C19A4
:101D90009D099695982F882797958795098110E03A
:101DA0001196AC901197B12CA01AB10AB694BA2C26
:101DB000AA24B794A7942A8130E01296CC91D0E05F
:101DC000C21BD30BD695DC2FCC27D795C795A7017F
:101DD0004E1B5F0B19F0742E452F03C077247394AC
:101DE00040E0672D742F0E94D0204B01C501672D64
:101DF000742F0E94D0205B01CE01672D742F0E94AA
:101E0000D020880C991CAA0CBB1C660F771FDC2CF9
:101E1000CC24102F0027322F2227DF01AA0FBB1F4F
:101E2000AE0FBF1FAE5AB94FEE16FF0678F0ED01A8
:101E30002297D882219618833C93C80CD91C0A0D8E
:101E40001B1D260F371F31961396EECFDF91CF91D2
:101E50001F910F91FF90EF90DF90CF90BF90AF90C8
:101E60009F908F907F9008950F931F93CF93DF9350
:101E70001F92CDB7DEB78C0169830E94D21E6981A3
:101E8000861729F0C8010E94DA1E81E001C080E0B7
:101E90000F90DF91CF911F910F91089520913205FE
:101EA00090913105213208F046C080910E058111D4
:101EB000FCCF32E030930E0531E030930D053FEF5B
:101EC00030930C0510920B0520930A05A1E1B5E0B3
:101ED0004AEE54E0FA013E2F341B321718F43D91BC
:101EE0003193F9CF1092E9042091E904990F922BD4
:101EF0009093E9049091E804913041F41092E80441
:101F00009091E9049093BB0095EC01C095EE9093FD
:101F1000BC0090910E059230E1F390910C059F3F2B
:101F200079F080910C05803241F080910C0580336E
:101F300031F084E005C081E003C082E001C083E0AD
:101F4000109210051092320510920F050895CF934C
:101F5000C62F91E090930F0598E69093310510926B
:101F6000100510923205682F80ED95E00E949C0AC2
:101F70006C2F80ED95E00E949C0A0E944E0F81E03C
:101F8000CF910895CF93DF93E3EAF1E08491E7EBFB
:101F9000F1E0D491E5EDF1E0C491CC2391F0811111
:101FA0000E94230BEC2FF0E0EE0FFF1FED53FE4FCE
:101FB000A591B491EC91ED2381E090E021F480E0D3
:101FC00002C080E090E0DF91CF91089520E0DC0135
:101FD00060FF03C001C02D932D936250E0F7704065
:101FE000D0F708956115710579F0FB01019000208B
:101FF000E9F73197AF01461B570BDC01ED91FC91DE
:102000000280F381E02D099480E090E008954F92E2
:102010005F926F927F92EF92FF920F931F93CF93F5
:10202000DF93CDB7DEB7A1970FB6F894DEBF0FBE32
:10203000CDBF7C01FA01CB0119A2223008F42AE0BD
:102040008E010F5D1F4F422E512C612C712CBF0150
:10205000A30192010E94F81EF901CA010150110961
:102060006A3014F4605D01C0695CD8016C93232B65
:10207000242B252B61F7B801C7010E94F20FA1960E
:102080000FB6F894DEBF0FBECDBFDF91CF911F9189
:102090000F91FF90EF907F906F905F904F90089519
:1020A000CF93DF93CDB7DEB7C454D1090FB6F89400
:1020B000DEBF0FBECDBF789484B5826084BD84B589
:1020C000816084BD85B5826085BD85B5816085BD33
:1020D00080916E00816080936E00109281008091EB
:1020E0008100826080938100809181008160809373
:1020F0008100809180008160809380008091B10098
:1021000084608093B1008091B00081608093B000C2
:1021100080917A00846080937A0080917A00826056
:1021200080937A0080917A00816080937A00809118
:102130007A00806880937A001092C1001092200685
:102140001092210610922206109223061092DE05AC
:102150001092DF051092E0051092E1050E94170C25
:102160006B017C014B015C0128EB820E2BE0921E7F
:10217000A11CB11C0E94170C6C157D058E059F05D6
:1021800028F086169706A806B906A0F783E395E01F
:1021900090931F0680931E060E945E0E0E94170CED
:1021A0006093DE057093DF058093E0059093E10571
:1021B00061ED73E080911E0690911F060E94F20F60
:1021C0000E94170C6B017C014B015C013AE0830E0D
:1021D000911CA11CB11C0E94170C6C157D058E056D
:1021E0009F0528F086169706A806B906A0F781E095
:1021F0008093F205409100015091010185E098E043
:10220000489F9001499F300D589F300D1124275E43
:10221000394C3093010120930001A9E3B0E30E94FF
:102220004C1F90932A04809329040E945E0E8EE135
:1022300090E090934606809345068AE590E00E94E0
:102240000521909344068093430610924F06109206
:102250004E068DEC90E090934D0680934C068FEFE8
:1022600090E090934B0680934A068BE0809349065A
:102270008EE790E000E010E0FC01459155916591FA
:1022800074910F5F1F4F04964F3FB1F7EEE7F0E0F8
:10229000C590D590E590F4909F2D5E2DAD2D7724BF
:1022A0007A94C12CD12C7EE7E72E70E0F72EBE0188
:1022B000625C7F4F23967FAF6EAF239774E0E70E8B
:1022C000F11CF70185909590A590B490960164E07B
:1022D000359527956A95E1F7822FC82CD12C482D8A
:1022E00042954F700031110580F4672D072C000CCA
:1022F000770B6217730744F0BEE0B7152CF081E04E
:10230000870D481708F4482F742E9EAEAFAE219665
:10231000BFAE2197A9835A839B8350E09E01225C24
:102320003F4FBE016F5F7F4F90E00E94960EA92D38
:102330005A2D9B2DEFEFCE16D10409F0BFCF00919F
:10234000450610914606E0904306F09044068091C1
:102350002004811145C010921204109211048FEFD5
:1023600080931504809316048093170480931804B7
:102370008093190480931A0481E080931B041092C7
:102380001D0410921C0410921404109213048091E6
:10239000310490913204892B31F48FE094E09093D2
:1023A000320480933104E0910D04F0910E043097D3
:1023B00021F08FE094E0958384838FE094E0909304
:1023C0000E0480930D0410921F0410921E0487E1E6
:1023D00093E09093100480930F0481E08093200495
:1023E000E0910F04F09110040480F581E02D8FE05E
:1023F00094E00995F0921204E092110410931D04E8
:1024000000931C04E0910F04F09110040284F38502
:10241000E02D8FE094E00995009729F19C0140E0C0
:1024200050E060E472E48FE090E00E941A1F722F87
:10243000632F0091270610912806209129063091DC
:102440002A06872F962FDA0180179107A207B30774
:1024500010F4D901C8018093270690932806A09311
:102460002906B0932A0686E680932406009131045B
:1024700010913204F801309729F014860480F58118
:10248000E02DF9CF1092070410920804109209046D
:1024900010920A040E944C0601151105B1F0D801F2
:1024A00012968D919C911397009759F01D966D91FE
:1024B0007C911E979B01220F331F620F731F0E9496
:1024C000E60FF80104811581E7CF10920104109204
:1024D0000004109210051092320510920E0581E052
:1024E00080930D051092E80461E082E10E944C0B9C
:1024F00061E083E10E944C0B8091B9008E7F809354
:10250000B9008091B9008D7F8093B90088E48093F1
:10251000B80085E48093BC0060E870E08BE690E052
:102520000E94A70F62E370E080E090E00E94DD0B64
:1025300061E070E089E190E00E94A70F63E070E045
:102540008BE690E00E94A70F6EE170E080E090E0E3
:102550000E94DD0B68E170E08BE190E00E94A70F24
:102560006EE170E080E090E00E94DD0B68EE70E0CC
:102570008CE190E00E94A70F64E170E080E090E0C1
:102580000E94DD0B80E090E00E94D21E8A3241F46E
:1025900081E090E00E94D21E882311F40C94F91A75
:1025A00062E088E00E947C0B62E08FE00E947C0B7E
:1025B00062E080E10E947C0B61E08EE00E947C0B77
:1025C00060E08EE00E944C0B61E086E00E947C0B94
:1025D00060E086E00E944C0B80914206823030F42D
:1025E000F89487E396E00E94A10501C0F8947894DE
:1025F000F89410923E0610923F06109240061092F8
:10260000410678940E94C20F809306010E944C06F6
:1026100063EE73E083E395E00E94F20F60EE73E0F7
:1026200083E395E00E94F20F0E943F061E01FEE048
:102630002F0E311C0E94170C672B682B692B41F45D
:102640000E94170C623071058105910508F41DC1C7
:102650000E94170C60936A0470936B0480936C045F
:1026600090936D04009166041091670420916804B2
:1026700030916904601771078207930740F46093F3
:1026800066047093670480936804909369040091D2
:1026900066041091670420916804309169044B012D
:1026A0005C01801A910AA20AB30A950184010A3FCB
:1026B00011052105310508F4E8C0609366047093A4
:1026C00067048093680490936904B4EFAB2EBB2435
:1026D000B394C12CD12CA092EA05B092EB05C09224
:1026E000EC05D092ED051092EE051092EF051092D8
:1026F000F0051092F1058091E2059091E305A0911B
:10270000E405B091E5058093E6059093E705A09375
:10271000E805B093E9050E94170C6093E2057093F9
:10272000E3058093E4059093E5050E94170C609300
:10273000DE057093DF058093E0059093E1050E942C
:10274000170C6B017C016BEE73E080911E0690917B
:102750001F060E94F20F2AE041E050E060E070E0C6
:1027600080911E0690911F060E94071062EF73E091
:1027700080911E0690911F060E94F20F2AE0B70179
:10278000A60180911E0690911F060E94071064EF1B
:1027900073E080911E0690911F060E94F20F8091B7
:1027A000E2059091E305A091E405B091E505B7013C
:1027B000A601481B590B6A0B7B0B2AE080911E0671
:1027C00090911F060E94071064EF73E080911E062F
:1027D00090911F060E94F20F4091E2055091E3058F
:1027E0006091E4057091E5058091E6059091E7051B
:1027F000A091E805B091E905481B590B6A0B7B0BCA
:102800002AE080911E0690911F060E94071066EF35
:1028100073E080911E0690911F060E94F20F0E94A5
:10282000170CAB01BC012AE080911E0690911F0697
:102830000E94071000911E0610911F0668EF73E0BA
:10284000C8010E94F20F60EE73E0C8010E94F20F0F
:102850000E94170C4B015C016B017C0122E0C20E4F
:10286000D11CE11CF11C0E94170C681579058A0522
:102870009B0508F010C70E94170C6093E205709347
:10288000E3058093E4059093E505809164049091BD
:10289000650431E08327909365048093640480FF8E
:1028A0007FC06EE574E083E40E94CF0660915E0411
:1028B00070915F04262F2F7080913E0490913F0409
:1028C000880F991F822790933F0480933E04072E20
:1028D000000C880B990B0E94B51D69837A838B834A
:1028E0009C836091620470916304072E000C880B36
:1028F000990B0E94B51D6D837E838F8398871986FF
:102900001A861B861C86CE0101960E9493066B01D7
:102910007C0180905A0490905B04A0905C04B0907D
:102920005D049B01AC01C501B4010E945B1F20E066
:1029300030E046E953E40E94C81F9B01AC01C50189
:10294000B4010E945B1F9B01AC0160935A04709319
:102950005B0480935C0490935D04C701B6010E9400
:102960005B1F20E030E048E452E40E94C81F209141
:1029700056043091570440915804509159040E94D4
:102980005C1F20E030E040E05FE30E94141E609393
:102990005604709357048093580490935904E2C0EE
:1029A00060E574E08BE30E94CF0600915004109123
:1029B0005104202F2F7080913E0490913F04880F86
:1029C000991F822790933F0480933E0460915204A4
:1029D00070915304072E000C880B990B0E94B51DB3
:1029E000209148043091490440914A0450914B048D
:1029F0000E945C1F4B015C0160915404709155046E
:102A0000072E000C880B990B0E94B51D20914C04D9
:102A100030914D0440914E0450914F040E945C1F30
:102A20006B017C01B801110F880B990B0E94B51D39
:102A3000209144043091450440914604509147044C
:102A40000E945C1F24EA30E74DE75FE30E94141EFA
:102A50006093440470934504809346049093470424
:102A600024EA30E74DE75FE3C501B4010E94141E7C
:102A7000609348047093490480934A0490934B04F4
:102A800024EA30E74DE75FE3C701B6010E94141E58
:102A900060934C0470934D0480934E0490934F04C4
:102AA00084E494E00E94930620E030E44CE156E494
:102AB0000E94C81F6B017C0180901A0190901B013D
:102AC000A0901C01B0901D019B01AC01C501B40197
:102AD0000E945B1F20E030E040E251E40E94C81FEA
:102AE0009B01AC01C501B4010E945B1F60931A01F8
:102AF00070931B0180931C0190931D01A701960107
:102B00000E945B1F6B017C0120E030E0A9010E9464
:102B10007020181624F0F7FAF094F7F8F094C70133
:102B2000B6010E947B206B017C0120E030E040E890
:102B30005FE30E94702018164CF0C0924004D092BF
:102B40004104E0924204F09243040CC080E090E023
:102B5000A0E8BFE38093400490934104A093420413
:102B6000B09343040E94C20F909106018917D9F1D6
:102B7000909128049F5F90932804933028F08093CD
:102B80000601813049F416C025964FAD2597413096
:102B900019F0423079F02AC081E08093060468EC95
:102BA00070E0709305046093040471E025967FAF94
:102BB000259741C080910604813041F480910B0437
:102BC00090910C04892B11F40E943F061092060488
:102BD0000E944C06109205041092040482E025968F
:102BE0008FAF259728C025961FAE259780910404A6
:102BF0009091050418161906F4F4019790930504B2
:102C000080930404892BB9F480910B0490910C04F7
:102C10008330910534F48130910544F4892B19F007
:102C200007C0039729F40E943F0602C00E94EF05E7
:102C300084E0809306040E94A60780913E04909150
:102C40003F04837099272091180130911901820F58
:102C5000931F909317018093160180911401909116
:102C6000150190931301809312010E94A01D27E784
:102C700030E040E050E00E941A1F6F5F7F4F8F4F9F
:102C80009F4F0E94B51D6093560470935704809324
:102C90005804909359040E94A01D23E630E040E0C0
:102CA00050E00E941A1F6F5F7F4F8F4F9F4F0E940F
:102CB000B51D20E030E048EC52E40E94C81F60934C
:102CC00040047093410480934204909343040E9413
:102CD000A60780910B0490910C048130910561F15D
:102CE0001CF4892B49F058C48230910509F44EC375
:102CF000039709F4BEC350C410923D0410923C04E3
:102D000010923B0410923704109238041092390448
:102D100010923A0420E030E048EC52E4609156040E
:102D20007091570480915804909159040E9470202A
:102D300018160CF031C42EC4E0905604F0905704DD
:102D4000009158041091590420E030E0A901B70126
:102D5000C8010E94AE1D87FD11C020E030E04CE0AC
:102D600053E4B701C8010E947020181684F4A12C06
:102D7000B12C70EFC72EE2E4DE2E0BC03DECA32E8B
:102D80004CECB42E5CECC52E6DE3D62E02C0570180
:102D90006801409037045090380460903904709076
:102DA0003A04A3019201B501C6010E9470201816D1
:102DB0005CF4C501D6018093370490933804A09346
:102DC0003904B0933A0436C060911001709111013A
:102DD000072E000C880B990B0E94B51D20E030E0F7
:102DE00040E256E40E94C81F2AE939E949E75FE357
:102DF0000E945C1F9B01AC01C301B2010E94141E22
:102E000060933704709338048093390490933A04A4
:102E10002DEC3CEC4CEC5FE30E94C81F3B014C01E5
:102E20009B01AC01B501C6010E947020181614F078
:102E30005301640120E030E040E85BE3B501C601E6
:102E40000E94141E4B015C01C0900F012496CFAE6E
:102E500024976C2D70E080E090E00E94B51D9B01EE
:102E6000AC01C501B4010E94141E4B015C01C0906D
:102E70003B04D12CB6010D2C000C880B990B0E9441
:102E8000B51D2B013C019B01AC01C501B4010E94A1
:102E9000702018165CF0A3019201C501B4010E94D4
:102EA000AE1D87FF06C068EF7FEF05C060E170E0F0
:102EB00002C060E070E02FEF30E040E050E0C6017B
:102EC0000E948C076C0180933B0460910D0170910E
:102ED0000E01072E000C880B990B0E94B51D9B015B
:102EE000AC01B701C8010E94C81F4B015C01609191
:102EF000140170911501072E000C880B990B0E948C
:102F0000B51DA50194010E945C1F0E943A20709398
:102F100013016093120160910B0170910C01072E57
:102F2000000C880B990B0E94B51DA50194010E940D
:102F30005C1F0E943A2070930A01609309018090FF
:102F4000400490904104A0904204B090430420E0DB
:102F500030E040E85FE3C501B4010E94702018161C
:102F600034F4812C912C20E8A22E2FE3B22E20E005
:102F700030E040E052E4C501B4010E94141E0E94FA
:102F80003A20685F2496EFAC24976E9DB00111241F
:102F900070933D0420E030E040E252E4C501B4010A
:102FA0000E94141E0E943A20645F6E9DB00111249D
:102FB000DD24872F90E08C159D0508F4C6018093D1
:102FC0003C0480914306909144069A8389838091C2
:102FD0004506909146069C838B838091470690918D
:102FE00048069E838D83809149068F8380914A068F
:102FF00090914B069987888780914C0690914D0659
:103000009B878A8780914E0690914F069D878C877B
:1030100020E5221626E0320670F460E576E0C10174
:103020000E94860E40E050E000E010E0A0E0B0E03A
:103030009DEEE92EE5C080E390E040E856E023965F
:103040008EAC9FAC2397FA01D40180FF05C002C06B
:1030500002900E9202900E928250D0F79040C0F7EC
:10306000E1CF6091290470912A04640F751F852FA8
:103070009927FC01EA57FF4FE491E70F2E2F30E02C
:10308000F901EA57FF4FF490F901E957FF4FA49077
:10309000FC01E957FF4FE491E70F8E2F90E0FC0110
:1030A000EA57FF4F3491FC01E957FF4F9490D42E1B
:1030B000D694862F8695982F242F249F020E20E0E9
:1030C000211DC22E262F269F020E20E0211D112435
:1030D000B22E60E86D0DE32FF0E0EA57FF4FE49168
:1030E000E2FD95C0F82F362FE0FD3195E1FDF19519
:1030F0007F2F75953595371FEF2DF0E0EA57FF4F7D
:10310000E491E2FD87C0F82F9D2DE0FD9195E1FD52
:10311000F195292F7F2F75952595271F922F23171E
:103120000CF07AC0321B2C2D329F030E30E0311D83
:103130001124930F8058E92DF0E0EA57FF4FE491F6
:10314000E2FD75C0362F682FE0FD3195E1FD6195F8
:1031500065953595361FEA2DF0E0EA57FF4FE4916B
:10316000E2FD03C0282F8D2DD22EE0FD8195E1FDDB
:10317000D194682F7D2D75956595671F63170CF0A9
:1031800058C0361B2C2D329F030E30E0311D112408
:10319000832F860F98170CF057C0891B382F6B2D83
:1031A000369F030E30E0311D1124930F9B5B392FA6
:1031B0002E2D329F030E30E0311D1124932F990FD5
:1031C00031E09F3F08F430E0390F632F62956F7054
:1031D0003F70862F880F860FF101E80FF11D2081C7
:1031E0009181828131113AC0E981FA81E00FF11FAA
:1031F00020839183828311960D5F1F4F445C5F4F44
:103200008B819C81A817B9070CF42BCF56C0F62FE1
:10321000382F6ACFFD2D79CF722F731B372F2C2DAE
:10322000329F030E30E0311D1124931B83CF382FC2
:103230008BCF262F231B3C2D239F020E20E0211D28
:103240001124862F821BA6CF292F281B7B2D279F79
:10325000020E20E0211D1124921BA8CF6F3011F027
:10326000339601C0F1013295307F732F70956081E4
:10327000279F020E20E0211D639F060E60E0611D66
:10328000260FF180692F679F060E60E0611D962F63
:103290006F2D639F060E60E0611D960FE281682F1F
:1032A000679F060E60E0611D862F6E2F639F060EDE
:1032B00060E0611D860F112497CF0E94170C9B01BF
:1032C000AC0160E070EB86E390E00E94E81E292FDD
:1032D00096FD2095E22FEF732F7096FD2F5FE695F8
:1032E000E695E695E670F0E0EB5DFC4F8181829F0C
:1032F000202D812D112422952F708295807F282BDF
:103300008081280F97FD2195205833E0239F020EDE
:1033100020E0211D11242F5F8091290490912A041F
:10332000820F911D90932A04809329042DEC3CEC8C
:103330004CEC5EE360914004709141048091420442
:10334000909143040E94AE1D87FF19C020E030E039
:1033500040E251E460915604709157048091580402
:10336000909159040E94AE1D87FF09C0809107010A
:1033700090910801009709F479C0019702C080E498
:103380009FE1909308018093070106C1C090070454
:10339000D0900804E0900904F0900A0420E030E0A6
:1033A00048EC52E4C701B6010E94AE1D87FF46C03B
:1033B00020E030E040E85FE3C701B6010E945C1FF7
:1033C0006B017C0120E030E048EC52E40E94702068
:1033D00018164CF0C0920704D0920804E092090439
:1033E000F0920A040CC080E090E0A8ECB2E4809374
:1033F000070490930804A0930904B0930A040E9460
:103400004C0680910F0198E2899F9001112430931E
:103410003D04ACE88A9F9001112430933C04B8E746
:103420008B9FC001112490933B042091070430919D
:1034300008044091090450910A0477C081E090E0AB
:1034400090930C0480930B0480E090E0A8ECB2E42D
:103450008093560490935704A0935804B093590452
:10346000E0E4FFE1F0930801E09307010E94EF051B
:1034700093C0C0900704D0900804E0900904F09035
:103480000A0420E030E0A901C701B6010E947020C3
:1034900018160CF07BC020E030E040E85FE3C70185
:1034A000B6010E945B1F6B017C016093070470935F
:1034B00008048093090490930A040E944C066091CA
:1034C0000F0170E080E090E00E94B51D9B01AC010F
:1034D000C701B6010E94141E20E030E048EC52E41F
:1034E0000E94C81F0E943A209B0140913D0450E079
:1034F000E62F461757070CF4E42FE0933D04409164
:103500003C0450E0E62F421753070CF4E42FE093FD
:103510003C0420913B0430E0AB01261737070CF444
:10352000A90140933B04A701960160E070E088EC9C
:1035300092E40E945B1F6B017C0160911401709109
:103540001501072E000C880B990B0E94B51DA701D1
:1035500096010E945C1F0E943A20709313016093B1
:10356000120160910B0170910C01072E000C880B69
:10357000990B0E94B51DA70196010E945C1F0E9435
:103580003A2070930A016093090106C010920C045E
:1035900010920B040E943F06F090240680912706AB
:1035A00090912806A0912906B0912A06892B8A2B92
:1035B0008B2B09F477C00E94B80B00913304109153
:1035C00034042091350430913604DC01CB01801B9A
:1035D000910BA20BB30B00912706109128062091A6
:1035E000290630912A0680179107A207B307B0F287
:1035F00059C082E090E00E94D21E90E090930304B4
:103600008093020483E090E00E94D21E80930F0119
:1036100084E090E00E94D21E90E090931901809384
:10362000180185E090E00E94D21E90E09093150171
:103630008093140186E090E00E94D21E90E0909367
:103640000C0180930B0187E090E00E94D21E90E075
:103650008058910990930E0180930D018CE090E0C9
:103660000E94D21E90E090931101809310018BE094
:1036700090E00E94D21E682F70E080E090E00E94EF
:10368000B31D609302017093030180930401909332
:1036900005010C94D012C616D706E806F90608F004
:1036A000E2C8E9C80E94B80B6093330470933404F5
:1036B0008093350490933604E0912F06F091300604
:1036C000309759F040912B0650912C0660912D06B1
:1036D00070912E068F2D0995F82E009131041091CE
:1036E00032044F2C512C612C712C0115110509F459
:1036F00067C0D8011C96BC912496BFAF24978091D7
:103700002506909126068436910510F4F80114865A
:10371000D801ED91FC918280938019821A821B82DC
:10372000F11017C0F80145855685628173819E01AD
:103730002F5F3F4FC801F401099524968FAC249761
:10374000D8011C968C921C9714960D911C9115977C
:10375000CCCFF80139969E012F5F3F4F6901580188
:103760003CE0A30EB11CDF011397EC902191EE20F9
:1037700001F12223F1F0822F90E0A0E0B0E09C0163
:10378000AD012F5F3F4F4F4F5F4FC301B2010E940A
:10379000E81E9B01AC018E2D90E0A0E0B0E0BC01E2
:1037A000CD016F5F7F4F8F4F9F4F0E94E81ED60164
:1037B0008C93BFEFCB1ADB0AEA15FB05A1F6B2CF5B
:1037C00080912F04909130048C010F5F1F4F109354
:1037D000300400932F044997ACF10E94170C6B0141
:1037E0007C0148EE53E0049FC001059F900D149F9B
:1037F000900D1124BC01990F880B990B00912B049B
:1038000010912C0420912D0430912E044601570173
:10381000801A910AA20AB30AA50194010E94F81E17
:1038200030932606209325061092300410922F0420
:103830000E94170C60932B0470932C0480932D042A
:1038400090932E040E941E0A0C941A13CF93DF93B8
:10385000109236051092350588EE93E0A0E0B0E0B6
:103860008093370590933805A0933905B0933A05B6
:1038700021EB33E0309334052093330525EC30E021
:103880003093400520933F0524EC30E0309342050F
:103890002093410520EC30E030934405209343050C
:1038A00021EC30E0309346052093450522EC30E0D2
:1038B000309348052093470526EC30E030934A05C5
:1038C0002093490510924C0510924D0510924E051B
:1038D00010924F051092D3051092D2058093D40513
:1038E0009093D505A093D605B093D70583EC93E0CC
:1038F0009093D1058093D0051092E2051092E305D4
:103900001092E4051092E5051092E6051092E70585
:103910001092E8051092E9051092EA051092EB0565
:103920001092EC051092ED051092EE051092EF0545
:103930001092F0051092F1058FEF809324061092FB
:103940002606109225061092300610922F064FEF91
:103950005FEFBA0140932B0650932C0660932D061F
:1039600070932E0624E630E0309332062093310621
:1039700080938006809381068093820680938306DD
:10398000809384068093850690E890938606109233
:103990008706909388061092890690938A06109263
:1039A0008B0610928C0610928D0680938E061092D4
:1039B0008F061092900680939106809392068093D2
:1039C0009306109294068093950695EA9093960636
:1039D00010929706809398069093990610929A06F3
:1039E00080939B0610929C0610929D0680939E06E3
:1039F00010929F061092A0061092A1061092A206A5
:103A00001092A306109244061092430662E08FE0E3
:103A10000E947C0B62E080E10E947C0BECEDF1E007
:103A2000E491F0E0EE0FFF1FED53FE4FA591B4912E
:103A3000B0933806A0933706EEEBF1E084918093C3
:103A40003B06EDEDF1E0E491F0E0EE0FFF1FED53EA
:103A5000FE4FC591D491D0933A06C0933906EFEB4F
:103A6000F1E0E491E0933C0610923E0610923F068E
:103A70001092400610924106EBE3FFE13197F1F717
:103A8000EC91E82381E009F480E0288190913C06E4
:103A9000922309F0826080933D0610924206DF91E6
:103AA000CF9108958F929F92AF92BF92CF92DF9263
:103AB000EF92FF92CF93DF93EC01688179818A8145
:103AC0009B81611571058105910521F464E279ED11
:103AD0008BE597E02DE133EF41E050E00E941A1FA3
:103AE00049015A019B01AC01A7EAB1E40E94391FC8
:103AF0006B017C01ACEEB4EFA50194010E94471F5D
:103B0000DC01CB018C0D9D1DAE1DBF1DB7FF03C099
:103B10000197A109B04888839983AA83BB83BC011C
:103B2000CD019F77DF91CF91FF90EF90DF90CF9005
:103B3000BF90AF909F908F9008950E94521D08955E
:103B400089EF92E00E94521D08956093F9027093EC
:103B5000FA028093FB029093FC0208950E94F01DEC
:103B600008F481E00895E89409C097FB3EF490952D
:103B70008095709561957F4F8F4F9F4F9923A9F046
:103B8000F92F96E9BB279395F695879577956795D5
:103B9000B795F111F8CFFAF4BB0F11F460FF1BC019
:103BA0006F5F7F4F8F4F9F4F16C0882311F096E9AC
:103BB00011C0772321F09EE8872F762F05C066235A
:103BC00071F096E8862F70E060E02AF09A95660F13
:103BD000771F881FDAF7880F9695879597F90895CC
:103BE000990F0008550FAA0BE0E8FEEF161617060E
:103BF000E807F907C0F012161306E407F50798F076
:103C0000621B730B840B950B39F40A2661F0232B8E
:103C1000242B252B21F408950A2609F4A140A6950A
:103C20008FEF811D811D08950E94271E0C94981E00
:103C30000E948A1E38F00E94911E20F0952311F0F8
:103C40000C94811E0C94871E11240C94CC1E0E948F
:103C5000A91E70F3959FC1F3950F50E0551F629F09
:103C6000F001729FBB27F00DB11D639FAA27F00DD5
:103C7000B11DAA1F649F6627B00DA11D661F829FFC
:103C80002227B00DA11D621F739FB00DA11D621FE1
:103C9000839FA00D611D221F749F3327A00D611DFE
:103CA000231F849F600D211D822F762F6A2F1124E0
:103CB0009F5750409AF0F1F088234AF0EE0FFF1F13
:103CC000BB1F661F771F881F91505040A9F79E3F6A
:103CD000510580F00C94811E0C94CC1E5F3FE4F3E0
:103CE000983ED4F3869577956795B795F795E795C0
:103CF0009F5FC1F7FE2B880F911D9695879597F9C9
:103D0000089597F99F6780E870E060E008959FEF5D
:103D100080EC089500240A94161617061806090662
:103D2000089500240A941216130614060506089531
:103D3000092E0394000C11F4882352F0BB0F40F4B9
:103D4000BF2B11F460FF04C06F5F7F4F8F4F9F4FF9
:103D5000089557FD9058440F551F59F05F3F71F07B
:103D60004795880F97FB991F61F09F3F79F08795E2
:103D70000895121613061406551FF2CF4695F1DF6B
:103D800008C0161617061806991FF1CF86957105FB
:103D9000610508940895E894BB2766277727CB012F
:103DA00097F90895F999FECF92BD81BDF89A9927A8
:103DB00080B50895262FF999FECF1FBA92BD81BD17
:103DC00020BD0FB6F894FA9AF99A0FBE019608959D
:103DD000DB018F939F930E94391FBF91AF91A29FE8
:103DE000800D911DA39F900DB29F900D11240895F9
:103DF000A1E21A2EAA1BBB1BFD010DC0AA1FBB1FEF
:103E0000EE1FFF1FA217B307E407F50720F0A21B60
:103E1000B30BE40BF50B661F771F881F991F1A94CD
:103E200069F760957095809590959B01AC01BD01F7
:103E3000CF010895052E97FB1EF400940E94311FB8
:103E400057FD07D00E94F81E07FC03D04EF40C94D7
:103E5000311F50954095309521953F4F4F4F5F4F03
:103E6000089590958095709561957F4F8F4F9F4FE6
:103E700008950E944C1FA59F900DB49F900DA49F84
:103E8000800D911D11240895B7FF0C94391F0E94D5
:103E9000391F821B930B0895A29FB001B39FC001ED
:103EA000A39F700D811D1124911DB29F700D811D66
:103EB0001124911D08955058BB27AA270E94731FF3
:103EC0000C94981E0E948A1E38F00E94911E20F0C9
:103ED00039F49F3F19F426F40C94871E0EF4E095F4
:103EE000E7FB0C94811EE92F0E94A91E58F3BA1714
:103EF000620773078407950720F079F4A6F50C9400
:103F0000CB1E0EF4E0950B2EBA2FA02D0B01B9019C
:103F100090010C01CA01A0011124FF27591B99F03F
:103F2000593F50F4503E68F11A16F040A22F232F4B
:103F3000342F4427585FF3CF469537952795A7959B
:103F4000F0405395C9F77EF41F16BA0B620B730B42
:103F5000840BBAF09150A1F0FF0FBB1F661F771FB3
:103F6000881FC2F70EC0BA0F621F731F841F48F468
:103F7000879577956795B795F7959E3F08F0B0CFF1
:103F80009395880F08F09927EE0F979587950895D8
:103F90000E94DC1F0C94981E0E94911E58F00E94F3
:103FA0008A1E40F029F45F3F29F00C94811E5111C4
:103FB0000C94CC1E0C94871E0E94A91E68F39923B2
:103FC000B1F3552391F3951B550BBB27AA27621715
:103FD0007307840738F09F5F5F4F220F331F441F22
:103FE000AA1FA9F335D00E2E3AF0E0E832D0915056
:103FF0005040E695001CCAF72BD0FE2F29D0660F43
:10400000771F881FBB1F261737074807AB07B0E885
:1040100009F0BB0B802DBF01FF2793585F4F3AF08B
:104020009E3F510578F00C94811E0C94CC1E5F3F8E
:10403000E4F3983ED4F3869577956795B795F79511
:104040009F5FC9F7880F911D9695879597F90895F9
:10405000E1E0660F771F881FBB1F62177307840795
:10406000BA0720F0621B730B840BBA0BEE1F88F7A4
:10407000E09508950E9441206894B1110C94CC1EE3
:1040800008950E94B11E88F09F5798F0B92F992784
:10409000B751B0F0E1F0660F771F881F991F1AF033
:1040A000BA95C9F714C0B13091F00E94CB1EB1E0AF
:1040B00008950C94CB1E672F782F8827B85F39F0AE
:1040C000B93FCCF3869577956795B395D9F73EF4CC
:1040D00090958095709561957F4F8F4F9F4F089574
:1040E0000E94F01D08F48FEF089519F416F40C9453
:1040F000871E0C94BB200E94B11EB8F39923C9F30C
:10410000B6F39F57550B87FF0E94C9200024A0E6F5
:1041100040EA900180585695979528F4805C660F88
:10412000771F881F20F026173707480730F4621BD7
:10413000730B840B202931294A2BA69517940794D9
:10414000202531254A2758F7660F771F881F20F052
:1041500026173707480730F4620B730B840B200DCA
:10416000311D411DA09581F7B901842F9158880F09
:104170009695879508959F3F31F0915020F487954B
:1041800077956795B795880F911D9695879597F9BF
:10419000089591505040660F771F881FD2F70895F9
:1041A00097FB072E16F4009407D077FD09D00E94E4
:1041B000F12007FC05D03EF4909581959F4F08951E
:1041C000709561957F4F0895EE0FFF1F0590F49154
:1041D000E02D09940E944C1FB7FF0895821B930B9A
:1041E0000895AA1BBB1B51E107C0AA1FBB1FA6173E
:1041F000B70710F0A61BB70B881F991F5A95A9F790
:1042000080959095BC01CD010895CF93DF938230C6
:10421000910510F482E090E0E091A606F091A706E7
:1042200020E030E0C0E0D0E0309711F140815181D2
:1042300048175907C0F04817590761F482819381E4
:10424000209719F09B838A832BC09093A7068093B5
:10425000A60626C02115310519F04217530718F498
:104260009A01BE01DF01EF010280F381E02DDCCF76
:104270002115310509F1281B390B2430310590F443
:1042800012968D919C9113976115710521F0FB0198
:104290009383828304C09093A7068093A606FD01B2
:1042A000329644C0FD01E20FF31F81939193225097
:1042B00031092D933C933AC02091A4063091A50674
:1042C000232B41F42091FF02309100033093A50687
:1042D0002093A4062091FD023091FE0221153105A4
:1042E00041F42DB73EB74091010350910203241BC6
:1042F000350BE091A406F091A506E217F307A0F4B0
:104300002E1B3F0B2817390778F0AC014E5F5F4F2B
:104310002417350748F04E0F5F1F5093A5064093B2
:10432000A4068193919302C0E0E0F0E0CF01DF9119
:10433000CF9108950F931F93CF93DF93009709F4C4
:104340008CC0FC013297138212820091A606109154
:10435000A7060115110581F420813181820F931F79
:104360002091A4063091A5062817390779F5F09316
:10437000A506E093A40671C0D80140E050E0AE1756
:10438000BF0750F412962D913C911397AD01211562
:10439000310509F1D901F3CF9D01DA01338322837D
:1043A00060817181860F971F8217930769F4EC0172
:1043B00028813981260F371F2E5F3F4F318320839D
:1043C0008A819B8193838283452B29F4F093A706EE
:1043D000E093A60642C01396FC93EE931297ED016C
:1043E000499159919E01240F351FE217F30771F48B
:1043F00080819181840F951F029611969C938E93D4
:104400008281938113969C938E931297E0E0F0E063
:10441000D80112968D919C911397009719F0F8018D
:104420008C01F6CF8D919C9198012E5F3F4F820FAA
:10443000931F2091A4063091A5062817390769F427
:10444000309729F41092A7061092A60602C0138294
:1044500012821093A5060093A406DF91CF911F91BD
:104460000F91089581E090E0F8940C943722F8942D
:02447000FFCF7C
:1044720039050000803F01401F340034002800F05D
:104482008000320032002F002F00CDCCD4417A734D
:104492006E625D5F63707B85939EABB4C1C9CCCA0B
:1044A200C0B9B3ACAAA3A0A198918776655345374A
:1044B200342E2225282F3C485360747C8A9599A477
:1044C200A29F9A95908B8D8D8F9093969797928BB2
:1044D2008678645A4E484A4D555D6F8597ABBAC788
:1044E200CACAC9BCB6AEA29E9E9D979289786A55E9
:1044F2004941373634333D45506172828F999CA2CF
:10450200A19890887F7677767B8782817C7A879163
:104512009C998D7F7365564C494B53606F7C8B9889
:10452200A4B0BAC6CAC0AF93715238261E1D263235
:10453200455C738998A2A9ADA89E928378726C6B30
:104542007179828D96989492939499A0A7A8A5A325
:104552009F98928F88837A6C5E5047434450617172
:104562008397A6B5C1CCD1C8BAA07E5E412C1D17D7
:104572001B24344A63798C9AA1A7A59C9081766EFC
:1045820068666A727A838B8D898687888E99A1A6DE
:10459200A6A6A39C9899969182827565554B5E74E6
:1045A2007C71575889AEB3C8D4BD834B34426D9FDA
:1045B200D6F7F5D6B5A89B8B775731191B293C64E2
:1045C20099BEBA9F87766B66676E7E959E8E755C86
:1045D200575D5F6362615B56575664829FB8CFE056
:1045E200E2D9C39D847D7A7A7B8590988E72615CD4
:1045F2006A81949D9F947A5E483D383E4A5D7480FC
:1046020085827C7773767D96B4C5C5BEB5A6938246
:104612006E5A56595C6066696D6F696C788893A1B1
:10462200A7A4A09D9E9E998D837D736D747F8078D3
:104632006A5745373647647A8B938E8B8E99A8B525
:10464200BEC5C7BCA8988E8B877F797F80807E721B
:10465200685E595C5C646F7D80766B6269747F8A88
:10466200929590867B280A280A010000000000A883
:1046720006800000000000C90AC90AC90AA3029FF5
:10468200029C02000000005E051A051F01A3029FA2
:10469200021C01C702003131295A1B750AB400C835
:1046A20000D200DC00B400C000F000D2001E001EE8
:1046B200002300280028002D00F6FF1E00340033DE
:1046C2000036003C003400390032002F0032003244
:1046D2000037003C003200320032002F002F003041
:1046E200002F0032002F00320031002D00030002A3
:1046F20000020003000200030002000100FF00FFAD
:1047020000FF002000FF00FF00FF00FF009000609C
:104712000040009000A000C0002000000000000047
:1047220000B509330E4D09FC097E095C09700900C8
:104732000000009C0A5F0AC60A330A570A430A3479
:104742000A564D4450565F317C315F564D445056A7
:104752000D0A0052756E6E696E6700564D445045E3
:104762005F003A323A007C005F564D4450450000EB
:107E0000112484B714BE81FFF0D085E080938100F7
:107E100082E08093C00088E18093C10086E0809377
:107E2000C20080E18093C4008EE0C9D0259A86E02C
:107E300020E33CEF91E0309385002093840096BBD3
:107E4000B09BFECF1D9AA8958150A9F7CC24DD24C4
:107E500088248394B5E0AB2EA1E19A2EF3E0BF2EE7
:107E6000A2D0813461F49FD0082FAFD0023811F036
:107E7000013811F484E001C083E08DD089C08234E0
:107E800011F484E103C0853419F485E0A6D080C0E4
:107E9000853579F488D0E82EFF2485D0082F10E0AE
:107EA000102F00270E291F29000F111F8ED06801E7
:107EB0006FC0863521F484E090D080E0DECF843638
:107EC00009F040C070D06FD0082F6DD080E0C81688
:107ED00080E7D80618F4F601B7BEE895C0E0D1E017
:107EE00062D089930C17E1F7F0E0CF16F0E7DF06D8
:107EF00018F0F601B7BEE89568D007B600FCFDCFD4
:107F0000A601A0E0B1E02C9130E011968C91119780
:107F100090E0982F8827822B932B1296FA010C0160
:107F200087BEE89511244E5F5F4FF1E0A038BF0790
:107F300051F7F601A7BEE89507B600FCFDCF97BE46
:107F4000E89526C08437B1F42ED02DD0F82E2BD052
:107F50003CD0F601EF2C8F010F5F1F4F84911BD097
:107F6000EA94F801C1F70894C11CD11CFA94CF0C13
:107F7000D11C0EC0853739F428D08EE10CD085E9AC
:107F80000AD08FE07ACF813511F488E018D01DD067
:107F900080E101D065CF982F8091C00085FFFCCF94
:107FA0009093C60008958091C00087FFFCCF809118
:107FB000C00084FD01C0A8958091C6000895E0E648
:107FC000F0E098E1908380830895EDDF803219F02E
:107FD00088E0F5DFFFCF84E1DECF1F93182FE3DFCA
:107FE0001150E9F7F2DF1F91089580E0E8DFEE27F6
:047FF000FF270994CA
:027FFE00040479
:0400000300007E007B
:00000001FF