:100000000C94FB000C947D0E0C94560E0C942F0E49
:100010000C94080E0C9423010C9423010C94E10D14
:100020000C9423010C9423010C9480130C94F21370
:100030000C9423010C9423010C9423010C942301B0
:100040000C9423010C94BA070C9423010C94230103
:100050000C9423010C9423010C9423010C94970D10
:100060000C9423010C9423010C9423010C94230180
:100070000C9423010C9423010C9423010C94230170
:100080000C9423010C9423010C9423010C94230160
:100090000C94A40E0C9423010C9423010C942301C2
:1000A0000C9423010C9423010C942301A109DF0972
:1000B000F109490A5E0A690A7D0A880A930A9E0ABA
:1000C000A90A160C190C080C0C0C120C3A0C3A0C60
:1000D0003A0C1D0C210C250C2B0C2F0C3A0C350C5A
:1000E00000FF1A1A80CC0000FFB3000007060504C9
:1000F0000100080A0B0C0D09000000002400270075
:100100002A002D00300000000000250028002B00F0
:100110002E0031000000000200090F00000304015E
:10012000000C0000000000000000000000000000C3
:100130000000000408020110408040102040804070
:10014000800802040180402010020110801020402D
:100150004020000000002300260029002C002F0072
:10016000040404040403040502020202040302025C
:100170000202060606060606040402020204040839
:100180000B0002020201000904000001020200004B
:1001900005240010010524010101042402060524A0
:1001A0000600010705810310004009040100020A4E
:1001B000000000070502024000000705830240001E
:1001C000000403090412010002EF0201404123363A
:1001D0008000010102030141726475696E6F204C59
:1001E0004C430041726475696E6F204C656F6E619F
:1001F00072646F00D52011241FBECFEFDAE0DEBF9E
:10020000CDBF14E0A0E0B1E0EEE3FDE402C0059054
:100210000D92A030B107D9F726E0A0E0B4E001C00C
:100220001D92A13BB207E1F710E0CBEFD0E004C094
:100230002197FE010E944A25CA3FD107C9F70E94B3
:1002400073170C949D260C94000080E991E00895AA
:10025000859A08954F925F926F927F928F92AF929C
:10026000BF92CF92EF92FF920F931F93CF93DF93A2
:100270003C01EB010E94A70CF30127853089621B2A
:10028000730B6A307105B0F3F894E881F98151B3CA
:10029000506281B38F7D81BB6A859F81262F291B88
:1002A000922F2F83BF844A805B807D85FC84EE84FF
:1002B0007F5FF394E3943E814885A984CB841181C8
:1002C000D20120E0C32F022F322F318111278894D1
:1002D0003111390F08F43FEF9195889470FD130F99
:1002E0001795889471FD130F1795889472FD130F5D
:1002F0001795889473FD130F1795889474FD130F49
:100300001795889475FD130F1795889476FD130F34
:100310001795889477FD130F17958894232F7111E3
:10032000212F960F122F002C51BB00C017FF81BB4D
:1003300030812227889400C000C0002C81BB31117D
:100340003C0F00C0002C51BB00C016FF81BB08F45D
:100350003FEFC195889400C000C0002C81BBF0FC29
:10036000230F00C0002C51BB00C015FF81BB279597
:100370008894F1FC230F00C000C0002C81BB27959E
:10038000889400C0002C51BB00C014FF81BBF2FC5C
:10039000230F2795889400C000C0002C81BBF3FC7C
:1003A000230F00C0002C51BB00C013FF81BB279559
:1003B0008894F4FC230F00C000C0002C81BB27955B
:1003C000889400C0002C51BB00C012FF81BBF5FC1B
:1003D000230F2795889400C000C0002C81BBF6FC39
:1003E000230F00C0002C51BB00C011FF81BB27951B
:1003F0008894F7FC230F00C000C0002C81BB279518
:10040000889400C0002C51BB00C010FF81BB132F8B
:10041000F110122FCA0D00C000C0002C81BB00C01B
:1004200000C0002C51BB00C017FF81BB32812227C6
:10043000889400C000C0002C81BB3111340F00C073
:10044000002C51BB00C016FF81BB08F43FEFEB0D41
:10045000F11D00C000C0002C81BBE0FC230F00C0D8
:10046000002C51BB00C015FF81BB27958894E1FC8F
:10047000230F00C000C0002C81BB2795889400C0CA
:10048000002C51BB00C014FF81BBE2FC230F279559
:10049000889400C000C0002C81BBE3FC230F00C087
:1004A000002C51BB00C013FF81BB27958894E4FC4E
:1004B000230F00C000C0002C81BB2795889400C08A
:1004C000002C51BB00C012FF81BBE5FC230F279518
:1004D000889400C000C0002C81BBE6FC230F00C044
:1004E000002C51BB00C011FF81BB27958894E7FC0D
:1004F000230F00C000C0002C81BB2795889400C04A
:10050000002C51BB00C010FF81BB132FE110122F34
:10051000419500C000C0002C81BB4C0D00C000C044
:1005200051BB00C017FF81BB31812227889400C0D6
:1005300000C0002C81BB3111390F00C0002C51BB11
:1005400000C016FF81BB08F43FEF9195889400C06E
:1005500000C0002C81BB70FD230F00C0002C51BBDC
:1005600000C015FF81BB2795889471FD230F00C043
:1005700000C0002C81BB2795889400C0002C51BB83
:1005800000C014FF81BB72FD230F2795889400C023
:1005900000C0002C81BB73FD230F00C0002C51BB99
:1005A00000C013FF81BB2795889474FD230F00C002
:1005B00000C0002C81BB2795889400C0002C51BB43
:1005C00000C012FF81BB75FD230F2795889400C0E2
:1005D00000C0002C81BB76FD230F00C0002C51BB56
:1005E00000C011FF81BB2795889477FD230F00C0C1
:1005F00000C0002C81BB2795889400C0002C51BB03
:1006000000C010FF81BB132F7111122F960F00C075
:1006100000C0002C81BB119709F086CE20EE31E09E
:10062000D2010E945025DC01CB01F4E0B695A795DC
:1006300097958795FA95D1F720E030E0A9016AE90E
:10064000469E412D569E400D511D1124840F951F2D
:10065000A11DB11D893E43E09407A105B10588F1B4
:10066000885E9340A109B10942E0B695A795979598
:1006700087954A95D1F747E0849F212D949F200DBF
:10068000311D11246091610470E0860F971F820F65
:10069000931F40918A0450918B0460918C04709157
:1006A0008D04292F3327420F531F611D711D409365
:1006B0008A0450938B0460938C0470938D04809310
:1006C000610478940E94A70CF301708B6787DF9117
:1006D000CF911F910F91FF90EF90CF90BF90AF906F
:1006E0008F907F906F905F904F9008950F931F931E
:1006F000CF93DF93CDB7DEB762970FB6F894DEBF26
:100700000FBECDBF8C01F901DC011C968C917A8360
:1007100069835C834B835E834D8390819D87918148
:100720009E8792819F87813029F4CE0101960E9495
:10073000261706C01C861B861A86198618861F82F5
:10074000188A1A8A198AD801ED91FC910484F585DA
:10075000E02DBE016F5F7F4FC801099562960FB60D
:10076000F894DEBF0FBECDBFDF91CF911F910F91E7
:1007700008950F931F93CF93DF93CDB7DEB76297A2
:100780000FB6F894DEBF0FBECDBF8C01F901DC01BE
:100790001C968C917A8369835C834B835E834D8343
:1007A00090819D8791819E8792819F87813029F4D6
:1007B000CE0101960E94261706C01C861B861A864B
:1007C000198618861F8283E0888B1A8A198AD801B5
:1007D000ED91FC910484F585E02DBE016F5F7F4FA4
:1007E000C801099562960FB6F894DEBF0FBECDBF63
:1007F000DF91CF911F910F910895FF920F931F9357
:10080000CF93DF93DC01ED91FC91AF2F31E03F0FEF
:10081000321301C030E0EF01DD278B010A0F111DFB
:10082000D801FC90DB01A30FB11D3C913C9F8001DE
:100830003D9F100D1124A0E0B1E0AC1BBD0BFA9E52
:10084000B001FB9E700D1124600F711F4E0F5F1FD2
:1008500030E0322F22274217530710F0421B530B70
:10086000DC014D935C93872FDF91CF911F910F9106
:10087000FF90089580E090E00895FC0185859685BD
:100880000895CF93DF9300D000D000D0CDB7DEB76E
:10089000AB011C821D821E82DC01ED91FC91019056
:1008A000F081E02D19821A821B829E012F5F3F4F3B
:1008B000BE016C5F7F4F099526960FB6F894DEBF98
:1008C0000FBECDBFDF91CF910895DC01ED91FD9179
:1008D0008081ED91FD919081ED91FD916C9163701E
:1008E0008E2309F064609F2309F06860E2E8F4E079
:1008F000E60FF11D659565956D936D917D918D91D7
:100900009D91099423C01AC012C016C010C01EC009
:1009100009C014C013C006C019C009C00DC007C06B
:100920000DC014C062507040804090400BC06150B8
:1009300070408040904006C06E5F01C06F5F7F4F87
:100940008F4F9F4F9E938E937E936E9308958091C9
:10095000E2059091E3050C9465048091E005909187
:10096000E1050C9465048091DE059091DF050C94FF
:1009700065048091DC059091DD050C9465048091FF
:100980000C0490910D04019709F040C083E090E0C1
:1009900090930D0480930C046091020482E090E037
:1009A0000E94991160910B0183E090E00E949911DF
:1009B0006091140184E090E00E949911609110010F
:1009C00085E090E00E9499116091070186E090E037
:1009D0000E9499116091090187E090E00E949911AD
:1009E00060910C018CE090E00E94991160910101EE
:1009F0008BE090E00E9499116AE280E090E00E9412
:100A0000991160E081E090E00C9499110895809133
:100A10000C0490910D04892B31F482E090E09093C6
:100A20000D0480930C040895DC01FB018081918109
:100A300011969C938E938281938113969C938E93AF
:100A400012978481958115969C938E931497868135
:100A500016968C9316978781908518969C938E9303
:100A60001797818592851A969C938E931997838503
:100A700094851C969C938E931B97CD010D96635F76
:100A80007F4F8617970710F40C94CF0FFD96DD96D5
:100A900080E390E0FF01DD0180FF05C002C002900D
:100AA0000E9202900E928250D0F79040C0F70895B7
:100AB0002F923F924F925F926F927F928F929F926E
:100AC000AF92BF92CF92DF92EF92FF920F931F935C
:100AD000CF93DF93CDB7DEB7CB54D1090FB6F894DF
:100AE000DEBF0FBECDBF4C01DC0117968D919C91EE
:100AF00018975B01A80EB91EB1E0AB16BB061CF03F
:100B0000A12CBB24B394F401F1852296FFAF229768
:100B1000D4011B96CC90C982FA83AB82BE01625C81
:100B20007F4FCE0101960E9480166EAC662D70E05C
:100B300080E090E00E9421229B01AC0160E070E81F
:100B400085E693E40E942E24D62EE72EF82E092F58
:100B500020E030E040E85FE30E94D62418162CF431
:100B6000D12CE12C00E8F02E0FE31FAD612F70E0D7
:100B700080E090E00E9421229B01AC0160E070E8DF
:100B800085E693E40E942E24362E472E582E792E89
:100B9000262F372F482F592F6D2D7E2D8F2D902FDB
:100BA0000E941C2287FD03C0D32C7201072D2196C1
:100BB0007FAC2197672D70E080E090E00E942122B9
:100BC0009B01AC0160E070E885E693E40E942E246E
:100BD0001B012C019B01AC016D2D7E2D8F2D902FC3
:100BE0000E941C2287FD04C0D22CE32CF42C052D7E
:100BF000612F70E0660D711D670D711D072E000CD1
:100C0000880B990B0E9423229B01AC0161E070E8E4
:100C100085E693E40E942E24562E672E782E192FF7
:100C2000262F372F482F592F6D2D7E2D8F2D902F4A
:100C30000E941C2287FD03C0D52C7301012FC9829D
:100C40002296BFAD2297BA83B501BB0C880B990BD6
:100C50000E9423229B01AC016D2D7E2D8F2D902FA4
:100C60000E9482220E94A7246B83BE01625C7F4F98
:100C7000CE0101960E9480163EAC2FAC2196EFADBE
:100C800021972296EFAF2297B401CE0101960E94E0
:100C9000140580910604823009F05BC0E0900204E4
:100CA000F0900304C980DA801AE6812E16E0912EB6
:100CB00060E070E000E010E040E050E0F601E60F98
:100CC000F71F98012659394F4E155F0579F4D40165
:100CD000BC90B082D90111969C9111979183129684
:100CE0008C918283B3829483858320C0D90112962C
:100CF0008C91129790E024E0959587952A95E1F7DD
:100D000011962C9130E0A4E035952795AA95E1F74E
:100D1000D401AC90B12CB4E0B594A794BA95E1F7A6
:100D2000A082218382831382148215820D5F1F4F5C
:100D30001682178210864F5F5F4F675F7F4FB3E069
:100D40008B0E911C4C30510509F0B8CF04E210E035
:100D500002C000E010E08B809C802401092C000C74
:100D600066087708E1E04E1A510861087108809121
:100D70000704909108049C01990F440B550B289689
:100D80002CAF3DAF4EAF5FAF289723E630E0D801E0
:100D90000E9450259801220F331FA901400F511FB7
:100DA00029813A81D901A40FB51F2496BFAFAEAFF8
:100DB0002497C12CD12C7601A12CB12C9B01AC0124
:100DC00023563109410951092C962CAF3DAF4EAF46
:100DD0005FAF2C9708151905CCF52C966CAD7DAD41
:100DE0008EAD9FAD2C976C0D7D1D8E1D9F1DA3019B
:100DF00092010E948823DA01C9010196A11DB11D4B
:100E00002496EEADFFAD2497EA0DFB1D28962CAD80
:100E10003DAD4EAD5FAD289782179307A407B50788
:100E20003CF43082218222963FAD2297328303C068
:100E30001082118212820F5F1F4F43E0A40EB11C7B
:100E400053E6C50ED11CE11CF11CC4CF8091CD0529
:100E50000E947D10C55BDF4F0FB6F894DEBF0FBE5A
:100E6000CDBFDF91CF911F910F91FF90EF90DF9059
:100E7000CF90BF90AF909F908F907F906F905F903A
:100E80004F903F902F900895AF92BF92CF92DF92F4
:100E9000EF92FF920F931F93CF93DF93CDB7DEB7FF
:100EA000ED970FB6F894DEBF0FBECDBF7C016B018E
:100EB0005A0100EF15E01E141F041CF4F801F0861F
:100EC000E7821C141D041CF4F801D286C1861A1492
:100ED0001B041CF4F801B486A386B801CE01019668
:100EE0000E94140560E070E0CE0101960E94580552
:100EF000035C1F4FF6E00A361F07E9F6ED960FB6C2
:100F0000F894DEBF0FBECDBFDF91CF911F910F913F
:100F1000FF90EF90DF90CF90BF90AF900895CF9368
:100F2000DF93CDB7DEB7ED970FB6F894DEBF0FBEF7
:100F3000CDBF60EF75E0CE0101960E94140560E020
:100F400070E0CE0101960E9458056DE276E0CE0178
:100F500001960E94140560E070E0CE0101960E94A7
:100F60005805ED960FB6F894DEBF0FBECDBFDF91EA
:100F7000CF9108951F920F920FB60F921124CF9226
:100F8000DF92EF92FF920F931F932F933F934F9314
:100F90005F936F937F938F939F93AF93BF93CF9301
:100FA000DF93EF93FF93C0910B04D0E0C0900A044D
:100FB000D12C0091090410E04091120150911301CD
:100FC0002DEC64E272E086E694E00E94FD0390E07E
:100FD000805891098C9F70018D9FF00C9C9FF00CA4
:100FE000112440910E0150910F0125E86FE971E045
:100FF00084E694E00E94FD0390E0805891098C9D66
:10100000E0018D9DD00D9C9DD00D112440910501D6
:101010005091060125E86AE171E082E694E00E94C1
:10102000FD03CE0DDF1DD05890E080589109809FC0
:101030009001819F300D909F300D1124C20FD31F5E
:10104000D093D000FF91EF91DF91CF91BF91AF91FD
:101050009F918F917F916F915F914F913F912F91D0
:101060001F910F91FF90EF90DF90CF900F900FBEE8
:101070000F901F901895CF92DF92EF92FF92CF932F
:10108000DF93EC01688179818A819B819B01AC01AE
:101090000E94822220E030E0A9010E94C2236B015D
:1010A0007C016C817D818E819F819B01AC010E94BE
:1010B00082229B01AC01C701B6010E94C2236B01D1
:1010C0007C01688579858A859B859B01AC010E949E
:1010D00082229B01AC01C701B6010E94C223DF91AD
:1010E000CF91FF90EF90DF90CF900C94E124AF92DE
:1010F000BF92CF92DF92EF92FF920F931F93CF9305
:10110000DF9300D000D000D0CDB7DEB78B01EE2446
:10111000E394E092030578E6F72EF092250510920D
:10112000040510922605682F89E795E00E94890B37
:101130000E94B311E0920305F09225051092040578
:1011400010922605809102058111FCCF81E08093E9
:101150000205809301059FEF909300051092FF0414
:1011600095E09093FE048093DD048091DD04806D12
:101170008093DD048091DC04813041F41092DC0422
:101180008091DD048093BB0085EC01C085EE8093E7
:10119000BC00809102058130E1F38091FF0486302C
:1011A00018F4F090FF0402C066E0F62EAEEDB4E055
:1011B0002AE634E0F9018E2F821B8F1518F48D91E9
:1011C0008193F9CF10920104F092000486E08F150C
:1011D00080F0FE0131965F016F018C2D8A198F1509
:1011E00088F489E795E00E94300BF60181936F0146
:1011F000F4CF56E0E52E89E795E00E94300BEA94A3
:10120000E110F9CF0E94B311F6E0FF1611F080E073
:101210001AC0898190E0982F88272A81822BF801B3
:10122000918380838B8190E0982F88272C81822B5B
:10123000938382838D8190E0982F88272E81822B43
:101240009583848381E026960FB6F894DEBF0FBEA7
:10125000CDBFDF91CF911F910F91FF90EF90DF9065
:10126000CF90BF90AF900895161617063CF4281B38
:10127000390B621773077CF49B010DC06115710572
:1012800041F0481B590B9B016417750724F49A0120
:1012900002C020E030E0820F931F0895CF93DF93C8
:1012A0008091EF05823030F4F89484EE95E00E944E
:1012B000650401C0F8948091EB059091EC05A09134
:1012C000ED05B091EE0578949C0197FF02C02D5F6B
:1012D0003F4F35952795359527952115310509F40B
:1012E00066C16CEF6203A001639F500D1124F89456
:1012F000840F951F092E000CAA0BBB0B8093EB05E6
:101300009093EC05A093ED05B093EE057894CC276F
:10131000DD27C21BD30B80910604813009F429C15B
:1013200020F0823009F428C13EC1E0910204F0911E
:101330000304EB30F10508F036C1EA5AFF4F0C9474
:101340004A2528E030E041E050E0BE0180910101F3
:10135000909102010E94340990930201809301014F
:1013600020910C0430910D0422303105D9F03CF469
:101370002115310559F02130310579F014C12330A0
:10138000310521F02430310599F00DC11C161D06E0
:101390000CF009C10E94070506C1D7FF04C10E94D5
:1013A000BF0401C1D7FFFFC0019709F0FCC0F7CF10
:1013B000D7FFF9C010920D0410920C04F4C0BE01C6
:1013C00044E0660F771F4A95E1F780910B012FEFFC
:1013D00030E040E050E090E00E94340980930B013F
:1013E000E2C027E030E040E050E0BE0180916804B8
:1013F000909169040E943409909369048093680471
:10140000880F991FFC01E156FC4F40815181FC017E
:10141000E157FC4F608171818FEF9FEF0E9444077D
:101420008091680490916904880F991FFC01E1582C
:10143000FC4F208131813093020120930101FC0196
:10144000E159FC4F20813181309315012093140123
:10145000FC01E15AFC4F208131813093110120932E
:101460001001FC01E15BFC4F2081318130930801C8
:1014700020930701FC01E15CFC4F20813181309316
:101480000A0120930901FC01E15DFC4F80819181FB
:101490006BC0BE0193E0660F771F9A95E1F72FEFBF
:1014A00030E047E050E08091F7059091F8050E9408
:1014B00034094FEF5FEF6FEF7FEF73C08091FB0553
:1014C0009091FC05480F591F5093FC054093FB0574
:1014D00064C0BE0183E0660F771F8A95E1F72FEFA6
:1014E00030E040E050E08091F9059091FA050E94CB
:1014F00034094FEF5FEFBC0152C08091140190910D
:101500001501821B930B90931501809314014BC01E
:101510008091100190911101821B930B9093110106
:101520008093100140C08091070190910801821BB7
:10153000930B909308018093070135C080910901B6
:1015400090910A01821B930B90930A0180930901E9
:101550002AC02FEF30E040E050E0BE0180910C0146
:1015600090910D010E94340990930D0180930C011C
:101570001AC082E0809306042BE030E040E050E0A7
:10158000BE0180910204909103040E94340990935B
:101590000304809302044FEF5FEF6FEF7FEF8FEF55
:1015A0009FEF0E9444071092050410920404DF91FB
:1015B000CF910895CF93DF931F92CDB7DEB76983A4
:1015C000DC01ED91FC910280F381E02D41E050E0DF
:1015D000BE016F5F7F4F09950F90DF91CF91089506
:1015E00083E08093E9008091F200882319F08AE378
:1015F0008093E8000895FC018485958597FD0BC0D4
:101600009FB7F89482E08093E9008091F2009FBF39
:1016100090E0019608959FB7F89482E08093E900E6
:101620008091F2009FBF90E00895089585ED80932A
:10163000BC008091BC0084FDFCCF1092020508958F
:101640000895E091010480910004E81730F4F0E07F
:10165000E659FB4F808190E008958FEF9FEF08954A
:101660009091010480910004981750F4E92FF0E064
:10167000E659FB4F208130E09F5F9093010402C048
:101680002FEF3FEFC90108958091000490E0209171
:101690000104821B91090895CF92DF92EF92FF928D
:1016A0000F931F93CF93DF937C018A0180910305F1
:1016B000882389F0EB016B01C40ED51ECC15DD0526
:1016C000F1F06991D701ED91FC910190F081E02D4D
:1016D000C7010995F3CF842F413288F49091020518
:1016E000943069F44093B004FB012EE834E0D90152
:1016F0009A2F921B981718F491919D93F9CFC801D6
:10170000DF91CF911F910F91FF90EF90DF90CF90DD
:101710000895209103052223C9F020912605203247
:1017200040F021E030E0FC013383228380E090E050
:10173000089580910405E82FF0E0EB5FFA4F608395
:101740008F5F809304058093260509C08091020570
:10175000843029F481E08093B00460938E0481E0AA
:1017600090E00895089580E090E008950E949C1212
:1017700090E008950F931F93CF93DF931F92CDB7FF
:10178000DEB78C01FC018485958597FF0EC0CE01E4
:1017900001960E947212019719F4298130E002C06B
:1017A0002FEF3FEFF80135872487F8018485958571
:1017B0000F90DF91CF911F910F910895CF93DF93F9
:1017C0001F92CDB7DEB7FC018485958597FD05C0D6
:1017D0002FEF3FEF358724870BC0CE0101960E9483
:1017E0007212019719F4898190E002C08FEF9FEF88
:1017F0000F90DF91CF9108950E94982690E0FC0110
:101800003197EF30F105B0F5EF59FF4F0C944A25B1
:10181000809180008F7703C0809180008F7D8093BE
:101820008000089580918000877FF9CF84B58F77FD
:1018300002C084B58F7D84BD0895809190008F771C
:1018400007C0809190008F7D03C080919000877FBA
:101850008093900008958091C0008F7703C080919D
:10186000C0008F7D8093C00008958091C200877F63
:101870008093C20008951F93CF93DF93282F30E009
:10188000F901EC5EFE4F8491F901ED5CFE4FD491BD
:10189000F901E05AFE4FC491CC23C9F0162F8111F3
:1018A0000E94FE0BEC2FF0E0EE0FFF1FEA5FFE4FF1
:1018B000A591B4918FB7F894111105C09C91ED2FAB
:1018C000E095E92302C0EC91ED2BEC938FBFDF9103
:1018D000CF911F910895CF93DF9390E0FC01ED5CD1
:1018E000FE4F2491FC01E05AFE4F8491882361F160
:1018F00090E0880F991FFC01E850FF4FC591D491EB
:10190000FC01EA5FFE4FA591B491611109C09FB738
:10191000F8948881209582238883EC912E230BC034
:10192000623061F49FB7F8943881822F80958323C9
:101930008883EC912E2B2C939FBF06C08FB7F89411
:10194000E8812E2B28838FBFDF91CF9108953FB779
:10195000F8948091D6049091D704A091D804B091C6
:10196000D90426B5A89B05C02F3F19F00196A11DEB
:10197000B11D3FBFBA2FA92F982F8827820F911D25
:10198000A11DB11DBC01CD0142E0660F771F881F6C
:10199000991F4A95D1F708958F929F92AF92BF9267
:1019A000CF92DF92EF92FF926B017C010E94A70C15
:1019B0004B015C01C114D104E104F104F1F00E9477
:1019C000A70CDC01CB0188199909AA09BB09883E3B
:1019D0009340A105B10570F321E0C21AD108E108D6
:1019E000F10888EE880E83E0981EA11CB11CC1147A
:1019F000D104E104F10419F7DDCFFF90EF90DF90FF
:101A0000CF90BF90AF909F908F9008958F929F92AC
:101A1000AF92BF92CF92DF92EF92FF920F931F93FC
:101A2000CF93DF935C016B017A01809106038823D9
:101A300009F45BC08091DB04882309F456C08091CF
:101A4000A60680FF05C08091E00082608093E000E0
:101A5000E70110E00AEF83E0882E9AE3992E2097A1
:101A6000D9F10E949C1281110AC0015009F43DC0B5
:101A700061E070E080E090E00E94CC0CF0CF282F75
:101A800030E0C217D3070CF48C2F4FB7F894809234
:101A9000E9009091E80095FF1DC0282F30E0C21B9F
:101AA000D30BF601982F915020F081918093F10093
:101AB000FACFC20ED31E112319F09092E80009C08C
:101AC0008091E80085FD06C09092E80011E0209723
:101AD00009F010E04FBFC3CF1111C3CF5D9884E66A
:101AE0008093A7061E141F0444F081E090E0F501E6
:101AF0009383828380E090E001C0C701DF91CF91A2
:101B00001F910F91FF90EF90DF90CF90BF90AF901B
:101B10009F908F9008952FB7F89460918A047091E8
:101B20008B0480918C0490918D042FBF08951F9297
:101B30000F920FB60F9211242F933F938F939F9381
:101B4000AF93BF9380918A0490918B04A0918C04F1
:101B5000B0918D043091D50423E0230F2D3720F46C
:101B60000196A11DB11D05C026E8230F0296A11DF7
:101B7000B11D2093D50480938A0490938B04A09385
:101B80008C04B0938D048091D6049091D704A091D9
:101B9000D804B091D9040196A11DB11D8093D6043B
:101BA0009093D704A093D804B093D904BF91AF9178
:101BB0009F918F913F912F910F900FBE0F901F908B
:101BC00018951F920F920FB60F9211242F933F93E7
:101BD0004F935F936F937F938F939F93AF93BF9335
:101BE000EF93FF93E091F902F091FA020995FF91CA
:101BF000EF91BF91AF919F918F917F916F915F9185
:101C00004F913F912F910F900FBE0F901F901895FD
:101C10001F920F920FB60F9211242F933F934F9361
:101C20005F936F937F938F939F93AF93BF93EF9344
:101C3000FF93E091F702F091F8020995FF91EF917F
:101C4000BF91AF919F918F917F916F915F914F91D4
:101C50003F912F910F900FBE0F901F9018951F92DC
:101C60000F920FB60F9211242F933F934F935F93D0
:101C70006F937F938F939F93AF93BF93EF93FF9354
:101C8000E091F502F091F6020995FF91EF91BF9175
:101C9000AF919F918F917F916F915F914F913F9104
:101CA0002F910F900FBE0F901F9018951F920F92BB
:101CB0000FB60F9211242F933F934F935F936F931F
:101CC0007F938F939F93AF93BF93EF93FF93E09195
:101CD000F302F091F4020995FF91EF91BF91AF915A
:101CE0009F918F917F916F915F914F913F912F9134
:101CF0000F900FBE0F901F9018951F920F920FB666
:101D00000F9211242F933F934F935F936F937F9381
:101D10008F939F93AF93BF93EF93FF93E091F10263
:101D2000F091F2020995FF91EF91BF91AF919F91D0
:101D30008F917F916F915F914F913F912F910F9074
:101D40000FBE0F901F9018951F920F920FB60F9213
:101D500011242F933F934F935F936F937F938F93B0
:101D60009F93AF93BF93EF93FF938091B900887FC8
:101D7000803609F49CC068F5883209F45BC090F4A1
:101D8000803109F454C038F4882309F4F3C0883052
:101D900009F44DC0F3C0883109F44CC0803209F415
:101DA0005DC0ECC0803409F468C048F4803309F4A5
:101DB00055C0883309F0E2C080930005D5C0803556
:101DC00009F44FC0883509F45DC0883409F0D6C0E5
:101DD000D3C0883909F4C4C0A8F4883709F467C0AF
:101DE00038F4883609F463C0803709F460C0C6C08F
:101DF000883809F4B5C0803909F45FC0803809F02B
:101E0000BDC05BC0803B09F483C038F4803A09F45C
:101E100066C0883A09F47CC0B1C0803C09F4A4C013
:101E2000883C09F4A1C0883B09F487C0A7C0809111
:101E3000DD0410C09091FF048091FE04981770F5A6
:101E4000E091FF0481E08E0F8093FF04F0E0E25206
:101E5000FB4F80818093BB0085EC83C0809300059D
:101E60008BC0E091FF0481E08E0F8093FF0480918E
:101E7000BB00F0E0E252FB4F80839091FF04809121
:101E8000FE046BC0E091FF0481E08E0F8093FF049D
:101E90008091BB00F0E0E252FB4F8083809101050E
:101EA00081116AC081E08093DC0484EA5EC083E033
:101EB000809302051092D404CFCF8091D404803255
:101EC00008F04EC0E091D40481E08E0F8093D404DA
:101ED0008091BB00F0E0EC54FB4F8083BDCF80913C
:101EE000D404803230F4E091D404F0E0EC54FB4FA1
:101EF00010820E94160B6091D40470E0E091B2044D
:101F0000F091B30484EB94E009951092D4042CC0B2
:101F100084E0809302051092B1041092B004E09125
:101F2000AE04F091AF0409958091B004811105C011
:101F300081E08093B00410928E04E091B10481E0BE
:101F40008E0F8093B104F0E0E257FB4F80818093C5
:101F5000BB009091B1048091B004981708F47CCF35
:101F600085E88093BC000AC085EC8093BC00109289
:101F7000020504C0109200050E94160BFF91EF911C
:101F8000BF91AF919F918F917F916F915F914F9191
:101F90003F912F910F900FBE0F901F90189520E347
:101FA00030E0FB01DC0120FF05C002C001900D9272
:101FB00001900D922250D0F73040C0F708957F92E3
:101FC0008F929F92AF92BF92CF92DF92EF92FF9249
:101FD0000F931F93CF93DF93FC01EB017A01D9019B
:101FE00048175907C8F42C9111969C911197129695
:101FF0008C91129738813C93398111963C931197BB
:102000003A8112963C931297288399838A839E2F54
:102010008F2FFA01E92EF82EC880D12C8C9190E0F8
:102020008C199D099695982F8827979587950981F2
:1020300010E01196AC901197B12CA01AB10AB69489
:10204000BA2CAA24B794A7942A8130E01296CC9196
:10205000D0E0C21BD30BD695DC2FCC27D795C795E4
:10206000A7014E1B5F0B19F0742E452F03C0772478
:10207000739440E0672D742F0E9436254B01C501F3
:10208000672D742F0E9436255B01CE01672D742FBA
:102090000E943625880C991CAA0CBB1C660F771F62
:1020A000DC2CCC24102F0027322F2227DF01AA0F8F
:1020B000BB1FAE0FBF1FA150BA4FEE16FF0678F040
:1020C000ED012297D882219618833C93C80CD91C25
:1020D0000A0D1B1D260F371F31961396EECFDF9189
:1020E000CF911F910F91FF90EF90DF90CF90BF9015
:1020F000AF909F908F907F9008953F924F925F9204
:102100006F927F928F929F92AF92BF92CF92DF9207
:10211000EF92FF920F931F93CF93DF9300D01F9204
:10212000CDB7DEB7F82E8091D0059091D105A09162
:10213000D205B091D305892B8A2B8B2BE9F00E9415
:10214000A70C0091A0061091A1062091A206309143
:10215000A306DC01CB01801B910BA20BB30B0091FA
:10216000D0051091D1052091D2053091D30580176B
:102170009107A207B307B8F20E94A70C6093A006CC
:102180007093A1068093A2069093A306E091D805D0
:10219000F091D905309759F04091D4055091D5056B
:1021A0006091D6057091D7058F2D0995F82E009175
:1021B0002705109128054F2C512C612C712C0115ED
:1021C000110509F461C0D8011C96EC901C97809110
:1021D000CE059091CF058436910510F41C961C9283
:1021E000D801ED91FC91A280B38019821A821B82E2
:1021F000F11014C0F80145855685628173819E01F6
:102200002F5F3F4FC801F5010995D8011C96EC924C
:102210001C9714960D911C911597D1CFF801399602
:10222000CE0101966C0148019CE0890E911CDF01F2
:1022300013973C902191332001F12223F1F0822F5A
:1022400090E0A0E0B0E09C01AD012F5F3F4F4F4F09
:102250005F4FC301B2010E9456239B01AC01832D45
:1022600090E0A0E0B0E0BC01CD016F5F7F4F8F4FE9
:102270009F4F0E945623D6018C93BFEFCB1ADB0AE7
:10228000E815F905A1F6B6CF80919E0690919F06BC
:102290008C010F5F1F4F10939F0600939E06499776
:1022A0009CF10E948B0D4B015C0188EE93E0089F2E
:1022B000B001099F700D189F700D1124072E000C9E
:1022C000880B990BC0909A06D0909B06E0909C06D4
:1022D000F0909D06A50194012C193D094E095F0956
:1022E0000E9466233093CF052093CE0510929F065F
:1022F00010929E060E948B0D60939A0670939B0627
:1023000080939C0690939D060F900F900F90DF9105
:10231000CF911F910F91FF90EF90DF90CF90BF90E2
:10232000AF909F908F907F906F905F904F903F9075
:1023300008950F931F93CF93DF931F92CDB7DEB70E
:102340008C0169830E9440236981861729F0C801A6
:102350000E94482381E001C080E00F90DF91CF917F
:102360001F910F9108952091260590912505213206
:1023700008F046C0809102058111FCCF32E0309315
:10238000020531E0309301053FEF309300051092D4
:10239000FF042093FE04A5E0B5E04EED54E0FA0101
:1023A0003E2F341B321718F43D913193F9CF109220
:1023B000DD042091DD04990F922B9093DD04909120
:1023C000DC04913041F41092DC049091DD04909390
:1023D000BB0095EC01C095EE9093BC009091020576
:1023E0009230E1F3909100059F3F79F080910005D4
:1023F000803241F080910005803331F084E005C0E7
:1024000081E003C082E001C083E0109204051092D5
:102410002605109203050895CF93C62F91E090935F
:10242000030598E690932505109204051092260561
:10243000682F89E795E00E94890B6C2F89E795E06A
:102440000E94890B0E94B31181E0CF910895CF9330
:10245000DF93ECE1F1E08491EBE3F1E0D491E8E685
:10246000F1E0C491CC2391F081110E94FE0BEC2F7E
:10247000F0E0EE0FFF1FEE5AFE4FA591B491EC91E4
:10248000ED2381E090E021F480E002C080E090E064
:10249000DF91CF9108958F929F92AF92BF92CF928A
:1024A000DF92EF92FF926B017C010E948B0D4B013A
:1024B0005C01C60ED71EE81EF91E0E948B0D681522
:1024C00079058A059B0528F0C616D706E806F906A1
:1024D000A0F7FF90EF90DF90CF90BF90AF909F90CC
:1024E0008F900895FC018091DB04811103C08FEF70
:1024F0009FEF08959FB7F89482E08093E9002091C0
:10250000F20030E01216130614F421E030E0211539
:10251000310559F0289884E68093DA048091F1001F
:1025200080838091F200882319F09FBFC90108952C
:102530008BE68093E800F9CF2FB7F89483E080937F
:10254000E9009091E800892F807295FF04C0909176
:10255000F20080E4891B2FBF0895809192068111BB
:102560000DC082E080938E0684E080938F061092E7
:1025700091061092900681E0809392068EE896E094
:1025800008954091AA065091AB062091A80630917B
:10259000A90642175307B4F49091E8009570E1F34F
:1025A0009091E80092FD19C08093F1008091AA06F5
:1025B0009091AB0601968F739927892B19F48EEFB2
:1025C0008093E8008091AA069091AB0601969093C3
:1025D000AB068093AA0681E0089580E00895DF921B
:1025E000EF92FF920F931F93CF93DF93D82E8A0120
:1025F0007B01E40EF51EEB01CE15DF0571F0D7FE71
:1026000003C0FE01849101C088810E94C1122196FD
:102610008111F2CF8FEF9FEF01C0C801DF91CF9101
:102620001F910F91FF90EF90DF900895615030F06F
:102630002091F100FC0120830196F8CF289884E6D0
:102640008093DA040895CF92DF92EF92FF920F9376
:102650001F93CF93DF936C017A018B01C0E0D0E030
:10266000CE15DF0589F0D8016D918D01D601ED9170
:10267000FC910190F081E02DC6010995892B11F4A0
:102680007E0102C02196ECCFC701DF91CF911F914F
:102690000F91FF90EF90DF90CF9008950F931F93CD
:1026A000CF93DF931F92CDB7DEB782E0898342E4F8
:1026B00050E06FE771E080E80E94EF120E94AD12D7
:1026C000DC0112960D911C9113970115110569F00B
:1026D000D801ED91FC910280F381E02DBE016F5F86
:1026E0007F4FC801099597FF07C089810F90DF913F
:1026F000CF911F910F910895F80100851185E5CFC5
:102700001F920F920FB60F9211248F939F93809177
:10271000E1009091E100937F9093E10083FF0FC06F
:102720001092E90091E09093EB001092EC0092E39C
:102730009093ED001092DB0498E09093F00082FFFC
:1027400020C093E09093E9009091F200992319F052
:102750009AE39093E8009091A706992339F090911D
:10276000A70691509093A706992389F19091DA04D6
:10277000992339F09091DA0491509093DA049923D7
:1027800041F184FF10C08091E2008E7E81608093D1
:10279000E2008091E1008F7E8093E1008091A606A7
:1027A0008E7E806111C080FF16C08091E2008E7E17
:1027B00080618093E2008091E1008E7E8093E10051
:1027C0008091A6068E7E81608093A60604C05D9AE5
:1027D000CDCF289AD6CF9F918F910F900FBE0F909B
:1027E0001F9018951F920F920FB60F921124CF923F
:1027F000DF92EF92FF920F931F932F933F934F938C
:102800005F936F937F938F939F93AF93BF93EF9358
:10281000FF93CF93DF93CDB7DEB76C97DEBFCDBF0D
:102820001092E9008091E80083FFEDC168E0CE01DD
:1028300045960E94161382EF8093E8008D8987FFEA
:1028400005C09091E80090FFFCCF03C09EEF9093ED
:10285000E800982F907609F0C6C09E892F89188DC0
:1028600091110CC0803829F48091A5068093F10065
:1028700002C01092F1001092F10048C1422F50E0C6
:10288000512B913051F4811141C14130510509F072
:102890003DC18091A5068D7F0BC0933061F48111FD
:1028A00035C14130510509F031C18091A5068260E2
:1028B0008093A5062BC1953041F48091E80080FFFC
:1028C000FCCF20682093E30021C1963009F05FC05F
:1028D000EB8CFC8C1092E9001092AB061092AA06C9
:1028E000123091F51092A9061092A8060E944E137C
:1028F00099E0BE016F5F7F4FDB01E92F1D92EA95E2
:10290000E9F799831A8391E09E8390EA98879AEF7A
:1029100099872091AA063091AB06275F3F4F3C83F1
:102920002B838D831092E9001092AB061092AA06B9
:10293000F092A906E092A80649E050E080E00E94EB
:10294000EF120E944E13E2C0F092A906E092A80690
:102950000E94AD12DC011296ED90FC901397E114E9
:10296000F10409F4C0C0D701ED91FC910480F58118
:10297000E02DBE016B5E7F4FC7010995009719F0EE
:102980000CF0C4C0C7C0F701E084F184E8CF9730F1
:1029900009F4C0C0983021F481E08093F100B6C002
:1029A000993009F0B3C0837009F0B4C0E4EDF3E0EE
:1029B00081E021E036E39081992361F08093E90082
:1029C0002093EB0091919093EC003093ED008F5F9A
:1029D000873089F78EE78093EA001092EA008F89AA
:1029E0008093DB0493C08B8D9C8D1092E900109234
:1029F000AB061092AA069093A9068093A806898D2B
:102A0000811156C08E899D89913A59F4813209F01D
:102A100081C047E050E06FEF72E080E00E94EF126B
:102A200075C0913209F076C0833289F4888D90E0C8
:102A3000982F88272F89822BA0E0B0E08093FB029B
:102A40009093FC02A093FD02B093FE025FC080321F
:102A500069F48091E80082FFFCCF67E08FEF92E09D
:102A60000E9416138BEF8093E80006C0823209F0B3
:102A70004DC08F89809306038091A406882319F0A6
:102A8000EEEFFAE002C0E0E0F8E08091FF02909102
:102A90000003A0910103B0910203803B9440A10583
:102AA000B10509F07BC08091060380FF93C076C01A
:102AB0000E94AD12DC0112960D911C911397011525
:102AC000110541F1D801ED91FC910190F081E02DCB
:102AD000BE016B5E7F4FC8010995811117C0F801D7
:102AE00000851185ECCF113009F44EC0133091F4FC
:102AF0008F89882309F445C0823081F440E860E181
:102B000083EE91E00E94DF21882321F08EEF8093F5
:102B1000E80079C081E28093EB0075C0813029F430
:102B200040E86BE087ED91E0EDCF833099F70E94AC
:102B3000AD12DC011296ED90FC9013978E010F5FA1
:102B40001F4F6801E114F10479F0D701ED91FC9178
:102B50000680F781E02DB801C7010995080F111D06
:102B6000F701E084F184EECFD8011C92F6010190C8
:102B70000020E9F73197BF016C197D0940E0C601DB
:102B8000C1CF61EC71E002C065EC71E061157105C7
:102B900009F2FB01449150E080E840CF0FB6F89471
:102BA000A895809160008861809360001092600019
:102BB0000FBEA895EE3F2AE0F20739F08091FE0A99
:102BC0009091FF0A91838083A1CF1092FF0A109207
:102BD000FE0A9CCFEE3F8AE0F80731F080819181B8
:102BE0009093FF0A8093FE0A87E797E7918380839B
:102BF0009BE088E10FB6F894A895809360000FBE23
:102C00009093600083CF6C960FB6F894DEBF0FBE32
:102C1000CDBFDF91CF91FF91EF91BF91AF919F9188
:102C20008F917F916F915F914F913F912F911F9164
:102C30000F91FF90EF90DF90CF900F900FBE0F900D
:102C40001F9018956115710579F0FB010190002026
:102C5000E9F73197AF01461B570BDC01ED91FC9171
:102C60000280F381E02D099480E090E008954F9276
:102C70005F926F927F92EF92FF920F931F93CF9389
:102C8000DF93CDB7DEB7A1970FB6F894DEBF0FBEC6
:102C9000CDBF7C01FA01CB0119A2223008F42AE051
:102CA0008E010F5D1F4F422E512C612C712CBF01E4
:102CB000A30192010E946623F901CA010150110982
:102CC0006A3014F4605D01C0695CD8016C93232BF9
:102CD000242B252B61F7B801C7010E942216A1966B
:102CE0000FB6F894DEBF0FBECDBFDF91CF911F911D
:102CF0000F91FF90EF907F906F905F904F900895AD
:102D0000DC01FB014C9111965C91119712967C911C
:102D1000342F3F71330F330F832F880F35E5282F62
:102D2000239F020E20E0211D1124642F6074942F34
:102D3000907247FD21C061110BC0911104C0822F18
:102D40008095422F11C045E5420F30E02BEA33C099
:102D500091110DC0382F4AEA349F030E30E0311D27
:102D600011248BEA831B420F282F30E024C080E01F
:102D7000422F4095322F0EC0611111C091110CC02D
:102D8000382F2AEA329F030E30E0311D11244BEA1E
:102D9000431B3B5A20E00FC0322F30950BC09111DE
:102DA00004C085E5820F3BEA03C08AEA820F90E007
:102DB000321B282F40E05F3F11F15523E9F0222319
:102DC00021F0259F020E20E0211D442321F0459F84
:102DD000040E40E0411D332321F0359F030E30E007
:102DE000311D11245095559F050E50E0511D1124A1
:102DF000250F450F350F03C03FEF4FEF2FEF7F3FFC
:102E000009F420C050E0772321F0779F512D09F07D
:102E10005F5F5523A1F0222321F0259F020E20E0C1
:102E2000211D442321F0459F040E40E0411D332322
:102E300021F0359F030E30E0311D112403C030E036
:102E400040E020E02083418332830895EF92FF9297
:102E50000F931F93CF93DF93EC019091AC069F5F8C
:102E6000292F27702093AC0690FF02C090E801C084
:102E700090E021FD9064247009F0906220E1290F18
:102E8000FE013C967E018FE0E80EF11C00E011E0AF
:102E90006191662331F070E0C8010E9436256F5FB2
:102EA00001C060E0DF0114976C93322F369F030E50
:102EB00030E0311D1124CF010797311103C0EC011F
:102EC000188203C03150EC013883662311F0615041
:102ED0006C93EE15FF05E1F6DF91CF911F910F91F5
:102EE000FF90EF900895CF93DF93CDB7DEB7C35433
:102EF000D1090FB6F894DEBF0FBECDBF789484B56C
:102F0000826084BD84B5816084BD85B5826085BDE5
:102F100085B5816085BD80916E00816080936E0073
:102F20001092810080918100826080938100809165
:102F30008100816080938100809180008160809316
:102F40008000809191008260809391008091910037
:102F500081608093910080919000816080939000C7
:102F60008091C10084608093C1008091C100826023
:102F70008093C1008091C10081608093C1008091E5
:102F8000C30081608093C3008091C0008260809301
:102F9000C0008091C20081608093C20080917A005D
:102FA000846080937A0080917A00826080937A00B6
:102FB00080917A00816080937A0080917A008068A5
:102FC00080937A001092DB041092A5061092A60658
:102FD0008091D70081608093D70080EA8093D800E9
:102FE00089B5806189BD89B5826089BD09B400FE5B
:102FF000FDCF61E070E080E090E00E94CC0C809119
:10300000D8008F7C80618093D8008091E000807F21
:103010008093E0008091E1008E7E8093E1008DE05E
:103020008093E200559A209AEEEFFFE78591949104
:103030008B3F9C4D19F481E08093A4061092C90542
:103040001092CA051092CB051092CC0510928705FC
:10305000109288051092890510928A0568EB7BE032
:1030600080E090E00E944B1289E295E09093C805C1
:103070008093C7050BE110E0F09006036AE070E072
:1030800080E090E00E94CC0CF1100AC001501109C0
:1030900039F064E670E080E090E00E94CC0CECCF68
:1030A000E091C705F091C8050FEF1FEF1587048762
:1030B0000E948B0D60938705709388058093890526
:1030C00090938A056AED73E08091C7059091C805D9
:1030D0000E9422166AE070E080E090E00E944B12AD
:1030E00081E080939B0510933605009335058CE3B2
:1030F00090E09093F3058093F20584EB90E00E94BA
:103100006B259093F1058093F00584E690E0909311
:10311000F8058093F70528EC30E03093FC05209308
:10312000FB059093FA058093F90584E18093F605F9
:10313000C12C34E0C39EF0011124E052FF4F859171
:103140009591A591B491C3948F3F99F7E0EEF0E08B
:103150000591159125913491932F522FA12F77240A
:103160007A94E12CF12C00EE10E00C5F1F4FF80177
:1031700085909590A590B4909701B4E035952795EA
:10318000BA95E1F7822FE82CF12C482D42954F702B
:103190006FE06C1580F0672D072C000C770B621721
:1031A000730744F0BEE0B7152CF081E0870D481797
:1031B00008F4482F742E9EAEAFAE2196BFAE219775
:1031C000A9835A839B8350E09E01225C3F4FBE013E
:1031D0006F5F7F4F90E00E94DF0FA92D5A2D9B2D2E
:1031E000EFEFEE16F10409F0C0CF0091F205109157
:1031F000F305E090F005F090F10580912104811134
:1032000045C010921304109212048FEF809316049D
:1032100080931704809318048093190480931A04F0
:1032200080931B0481E080931C0410921E04109272
:103230001D0410921504109214048091270590919A
:103240002805892B31F480E194E090932805809340
:103250002705E0910E04F0910F04309721F080E1F2
:1032600094E09583848380E194E090930F048093AD
:103270000E041092200410921F0481E293E09093B8
:1032800011048093100481E080932104E0911004E4
:10329000F09111040480F581E02D80E194E009951E
:1032A000F0921304E092120410931E0400931D0484
:1032B000E0911004F09111040284F385E02D80E187
:1032C00094E00995009729F19C0140E050E060E40A
:1032D00072E48FE090E00E948823722F632F0091A8
:1032E000D0051091D1052091D2053091D305872FBB
:1032F000962FDA0180179107A207B30710F4D901BE
:10330000C8018093D0059093D105A093D205B093C6
:10331000D305E0912705F0912805309729F0148610
:103320000480F581E02DF9CF109208041092070473
:103330000E948F078091CD050E947D10109201049C
:1033400010920004109204051092260510920205B6
:1033500081E0809301051092DC0461E082E00E942C
:103360003B0C61E083E00E943B0C8091B9008E7FB2
:103370008093B9008091B9008D7F8093B90088E473
:103380008093B80085E48093BC0060E870E08BE631
:1033900090E00E940C1262E370E080E090E00E94F6
:1033A000CC0C61E070E089E190E00E940C1263E0D7
:1033B00070E08BE690E00E940C126EE170E080E01D
:1033C00090E00E94CC0C68E170E08BE190E00E94FC
:1033D0000C126EE170E080E090E00E94CC0C68EE90
:1033E00070E08CE190E00E940C1264E170E080E0FB
:1033F00090E00E94CC0C80E090E00E9440238A3252
:1034000039F481E090E00E944023882309F485C6C6
:1034100062E088E00E946B0C62E08FE00E946B0C1F
:1034200062E080E10E946B0C61E08EE00E946B0C18
:1034300060E08EE00E943B0C61E086E00E946B0C35
:1034400060E086E00E943B0C8091EF05823030F412
:10345000F89484EE95E00E94650401C0F894789495
:10346000F8941092EB051092EC051092ED05109275
:10347000EE0578940E942712809300010E948F0726
:1034800061E08AE00E946B0C81E18093C00081E0E2
:103490008093C10080E48093C4001092C30080E850
:1034A0008093D1001092800089E08093810080E0B9
:1034B00092E0909389008093880080916F008260F1
:1034C00080936F00F0E92F2E332433940E948B0DEC
:1034D000672B682B692B41F40E948B0D62307105BC
:1034E0008105910508F40EC10E948B0D60935D0467
:1034F00070935E0480935F0490936004009159047C
:1035000010915A0420915B0430915C04601771079C
:103510008207930740F46093590470935A04809390
:103520005B0490935C040091590410915A0420911B
:103530005B0430915C046B017C01C01AD10AE20A81
:10354000F30A970186010A3F11052105310508F4A8
:10355000D9C06093590470935A0480935B0490938C
:103560005C0484EF91E0A0E0B0E080939305909339
:103570009405A0939505B093960510929705109227
:1035800098051092990510929A0580918B0590915B
:103590008C05A0918D05B0918E0580938F05909339
:1035A0009005A0939105B09392050E948B0D6093B6
:1035B0008B0570938C0580938D0590938E050E94EA
:1035C0008B0D609387057093880580938905909390
:1035D0008A050E948B0D4B015C016CEE73E08091BB
:1035E000C7059091C8050E9422162AE041E050E0EC
:1035F00060E070E08091C7059091C8050E94371681
:1036000063EF73E08091C7059091C8050E94221670
:103610002AE0B501A4018091C7059091C8050E94D8
:10362000371665EF73E08091C7059091C8050E9439
:10363000221680918B0590918C05A0918D05B091FB
:103640008E05B501A401481B590B6A0B7B0B2AE0C0
:103650008091C7059091C8050E94371665EF73E009
:103660008091C7059091C8050E94221640918B0554
:1036700050918C0560918D0570918E0580918F051C
:1036800090919005A0919105B0919205481B590B1E
:103690006A0B7B0B2AE08091C7059091C8050E94B8
:1036A000371667EF73E08091C7059091C8050E94B7
:1036B00022160E948B0DAB01BC012AE08091C70548
:1036C0009091C8050E9437160091C7051091C80552
:1036D00069EF73E0C8010E94221669EE73E0C80129
:1036E0000E94221662E070E080E090E00E944B129F
:1036F0000E948B0D60938B0570938C0580938D05D4
:1037000090938E058091570490915804A1E08A27E8
:10371000909358048093570480FF7FC061E574E064
:1037200083E40E9477086091510470915204262F1F
:103730002F708091310490913204880F991F822755
:103740009093320480933104072E000C880B990B60
:103750000E94232269837A838B839C836091550422
:1037600070915604072E000C880B990B0E9423229F
:103770006D837E838F83988719861A861B861C86A5
:10378000CE0101960E943B084B015C0140904D0424
:1037900050904E0460904F04709050049B01AC0117
:1037A000C301B2010E94C12320E030E046E953E4A6
:1037B0000E942E249B01AC01C301B2010E94C123CF
:1037C0009B01AC0160934D0470934E0480934F04B1
:1037D00090935004C501B4010E94C12320E030E061
:1037E00048E452E40E942E242091490430914A0476
:1037F00040914B0450914C040E94C22320E030E0E1
:1038000040E05FE30E9482226093490470934A047F
:1038100080934B0490934C04E2C063E474E08BE328
:103820000E9477080091430410914404202F2F70C8
:103830008091310490913204880F991F82279093D0
:103840003204809331046091450470914604072E40
:10385000000C880B990B0E94232220913B0430918D
:103860003C0440913D0450913E040E94C2232B0130
:103870003C016091470470914804072E000C880BAE
:10388000990B0E94232220913F04309140044091E3
:103890004104509142040E94C2234B015C01B801D3
:1038A000110F880B990B0E9423222091370430912D
:1038B00038044091390450913A040E94C22324EA0A
:1038C00030E74DE75FE30E948222609337047093F4
:1038D00038048093390490933A0424EA30E74DE7A2
:1038E0005FE3C301B2010E94822260933B047093A4
:1038F0003C0480933D0490933E0424EA30E74DE776
:103900005FE3C501B4010E94822260933F0470937B
:103910004004809341049093420487E394E00E9422
:103920003B0820E030E44CE156E40E942E242B01B9
:103930003C018090160190901701A0901801B09062
:1039400019019B01AC01C501B4010E94C12320E013
:1039500030E040E251E40E942E249B01AC01C501FD
:10396000B4010E94C12360931601709317018093E4
:10397000180190931901A30192010E94C1234B01E8
:103980005C0120E030E0A9010E94D624181624F042
:10399000B7FAB094B7F8B094C501B4010E94E1241D
:1039A0004B015C0120E030E040E85FE30E94D62458
:1039B00018164CF08092330490923404A09235048F
:1039C000B09236040CC080E090E0A0E8BFE38093A2
:1039D000330490933404A0933504B09336040E94CA
:1039E0002712909100018917D9F1909129049F5FC6
:1039F00090932904933028F080930001813049F49A
:103A000016C02296BFAD2297B13019F0B23079F0CE
:103A10002AC081E080930604E8ECF0E0F09305040E
:103A2000E0930404F1E02296FFAF229741C0809119
:103A30000604813041F480910C0490910D04892B8F
:103A400011F40E940705109206040E948F0710923D
:103A500005041092040422E022962FAF229728C07A
:103A600022961FAE229780910404909105041816A7
:103A70001906F4F401979093050480930404892BAC
:103A8000B9F480910C0490910D048330910534F4C5
:103A90008130910544F4892B19F007C0039729F46C
:103AA0000E94070502C00E94BF0484E080930604C0
:103AB0000E944E09809131049091320483709927BD
:103AC0002091140130911501820F931F90931301DF
:103AD00080931201809110019091110190930F0138
:103AE00080930E01EFEEF0E0849190917B0083FBD8
:103AF000FF27F0F92396FFAF239724961FAE249754
:103B000024962EAD3FAD249745E0220F331F4A95F2
:103B1000E1F79F7D292B20937B0087708064809341
:103B20007C0080917A00806480937A0080917A0092
:103B300086FDFCCF809178002091790090E0922B57
:103B4000803791403CF580912F049091300400978C
:103B5000D9F484E090E090930D0480930C0480915C
:103B60002E0481110AC081E080932E04A8ECB0E0FD
:103B7000B0933004A0932F0413C010922E043092FF
:103B8000300420922F040CC001979093300480934E
:103B90002F0406C03092300420922F0410922E047D
:103BA0000E944E0980910C0490910D048230910581
:103BB00009F4C8C12CF4009759F0019759F1A5C236
:103BC0008330910509F414C2049709F46AC29DC2B6
:103BD00010920B0410920A041092090410922A0405
:103BE00010922B0410922C0410922D0420E030E04F
:103BF00048EC52E46091490470914A0480914B046E
:103C000090914C040E94D62418160CF07EC20E949B
:103C100007057BC290904904A0904A04B0904B04E1
:103C200080904C0420E030E0A901692D7A2D8B2D85
:103C3000982D0E941C2287FD11C020E030E04CE04E
:103C400053E4692D7A2D8B2D982D0E94D6241816B9
:103C500054F4E12CF12C00EF12E409C0E12CF12C1A
:103C600000E010E004C0E92CFA2C0B2D182D409038
:103C70002A0450902B0460902C0470902D04A30112
:103C80009201B701C8010E94D62418165CF4C7013E
:103C9000D80180932A0490932B04A0932C04B09312
:103CA0002D0436C060910C0170910D01072E000C9F
:103CB000880B990B0E94232220E030E040E256E47A
:103CC0000E942E242AE939E949E75FE30E94C223D2
:103CD0009B01AC01C301B2010E94822260932A04BD
:103CE00070932B0480932C0490932D042DEC3CECCA
:103CF0004CEC5FE30E942E242B013C019B01AC01A4
:103D0000B701C8010E94D624181614F0720183016D
:103D100020E030E040E85BE3B701C8010E94822266
:103D20002B013C0160910B0170E080E090E00E946B
:103D300023229B01AC01C301B2010E9482222B010C
:103D40003C010091090410E0B801012E000C880B21
:103D5000990B0E9423226B017C019B01AC01C301E2
:103D6000B2010E94D62418165CF0A7019601C30187
:103D7000B2010E941C2287FF06C068EF7FEF05C0DA
:103D800060E170E002C060E070E02FEF30E040E002
:103D900050E0C8010E943409809309046091090130
:103DA00070910A01072E000C880B990B0E942322A8
:103DB0009B01AC01692D7A2D8B2D982D0E942E240C
:103DC0004B015C016091100170911101072E000CF4
:103DD000880B990B0E942322A50194010E94C22303
:103DE0000E94A02470930F0160930E01609107015F
:103DF00070910801072E000C880B990B0E9423225A
:103E0000A50194010E94C2230E94A0247093060180
:103E100060930501C501B4010E94A0244B015C011F
:103E200060EF75E0CE0101960E941405B401CE0149
:103E300001960E9458056DE276E0CE0101960E943F
:103E40001405B401CE0101960E945805E090330498
:103E5000F0903404009135041091360420E030E0F5
:103E600040E85FE3B701C8010E94D62418163CF46D
:103E7000912CA12C20E8B22E3FE3C32E04C09E2C2F
:103E8000AF2CB02EC12E20E030E040E052E4692D8E
:103E90007A2D8B2D9C2D0E9482220E94A024685F87
:103EA00070900B01679DB001112470930B0420E00A
:103EB00030E040E252E4692D7A2D8B2D9C2D0E943A
:103EC00082220E94A024645F679DB001112420918A
:103ED000090430E0872F90E08217930708F4C901A6
:103EE00080930A042DEC3CEC4CEC5EE3B701C80176
:103EF0000E941C2287FF1FC020E030E040E251E416
:103F00006091490470914A0480914B0490914C0453
:103F10000E941C2287FF0FC0809103019091040131
:103F2000009719F40E94BF04F0C001979093040118
:103F300080930301EAC0E0E4FFE1F0930401E09321
:103F40000301E3C0209107043091080424363105B1
:103F5000ACF58091010190910201820F931F85368B
:103F600091052CF4909308048093070407C094E60D
:103F7000C92ED12CD0920804C09207040E948F074A
:103F800080910B0168E2869F9001112430930B040D
:103F90009CE8899F9001112430930A04A8E78A9F26
:103FA000C0011124909309048091070490910804A2
:103FB000E4E6F0E0E81BF90BCF0159C0CC24C39430
:103FC000D12CD0920D04C0920C0480E090E0A8ECBB
:103FD000B2E48093490490934A04A0934B04B093B5
:103FE0004C04A0E4BFE1B0930401A09303018DC091
:103FF0008091070490910804181619060CF04CC023
:10400000019790930804809307040E948F072091E2
:1040100007043091080440910B01429FC001439F67
:10402000900D112468E770E00E94362580910B0402
:1040300090E0462F861797070CF4482F40930B0407
:1040400080910A0490E0462F861797070CF4482FBA
:1040500040930A048091090490E0861797070CF4B6
:10406000BC016093090488E790E0821B930B2091C8
:10407000100130911101280F391F30930F01209347
:104080000E012091070130910801820F931F909338
:1040900006018093050139C010920D0410920C04A2
:1040A00034C08091070490910804181619063CF456
:1040B000019790930804809307040E948F078091D2
:1040C0002E04882311F08FEF01C080E0E091F0050D
:1040D000F091F1058083118212828091CD050E94BA
:1040E0007D1010920B0410920A0480912E0481110D
:1040F00003C01092090409C0E0E0F1E0F09306016A
:10410000E09305018FEF8093090480E090E0892B14
:1041100009F4DCC90E940000D9C982E090E00E9445
:10412000402390E0909303048093020483E090E0A6
:104130000E94402380930B0184E090E00E94402382
:1041400090E0909315018093140185E090E00E9427
:10415000402390E0909311018093100186E090E05D
:104160000E94402390E0909308018093070187E02C
:1041700090E00E94402390E08058910990930A01BA
:10418000809309018CE090E00E94402390E090939E
:104190000D0180930C018BE090E00E94402390E0A1
:1041A000909302018093010133C9CF93DF93109262
:1041B0002C0510922B0588EE93E0A0E0B0E08093F0
:1041C0002D0590932E05A0932F05B093300523EB7A
:1041D00033E030932A05209329052FEF3FEF3093EA
:1041E00036052093350510927C0510927B0580934F
:1041F0007D0590937E05A0937F05B093800585ECA7
:1042000093E090937A058093790510928B05109234
:104210008C0510928D0510928E0510928F051092CC
:1042200090051092910510929205109293051092AC
:10423000940510929505109296051092970510928C
:1042400098051092990510929A058FEF8093CD05ED
:104250001092CF051092CE051092D9051092D80574
:104260004FEF5FEFBA014093D4055093D5056093AB
:10427000D6057093D70524E630E03093DB05209314
:10428000DA0580936A0680936B0680936C068093B0
:104290006D0680936E0680936F0690E8909370068B
:1042A00010927106909372061092730690937406A2
:1042B0001092750610927606109277068093780613
:1042C0001092790610927A0680937B0680937C0682
:1042D00080937D0610927E0680937F0695EA9093E8
:1042E0008006109281068093820690938306109236
:1042F0008406809385061092860610928706809326
:1043000088061092890610928A0610928B061092E7
:104310008C0610928D061092F1051092F005109205
:104320002E0610922D0662E08FE00E946B0C62E078
:1043300080E10E946B0CEFE6F1E0E491F0E0EE0F1B
:10434000FF1FEE5AFE4FA591B491B093E505A093DF
:10435000E405E2E4F1E084918093E805E0E7F1E030
:10436000E491F0E0EE0FFF1FEE5AFE4FC591D4919D
:10437000D093E705C093E605E3E4F1E0E491E09330
:10438000E9051092EB051092EC051092ED051092E4
:10439000EE05EBE3FFE13197F1F7EC91E82381E0E3
:1043A00009F480E028819091E905922309F0826068
:1043B0008093EA051092EF05DF91CF910895CF9297
:1043C000DF92EF92FF920F931F93CF93DF931F9291
:1043D000CDB7DEB7182F062FE42E862F880F8E5FFD
:1043E00099830E94C11283E00E94C112F12EC12E56
:1043F0009981D92E8C2D8F19801798F4F601E7FE3C
:1044000002C0849101C080810E94C112182F80E0F7
:104410000E94C1128123FFEFCF1ADF0A8111EACF78
:1044200001C081E00F90DF91CF911F910F91FF901C
:10443000EF90DF90CF9008950E945E2208F481E013
:104440000895E89409C097FB3EF490958095709587
:1044500061957F4F8F4F9F4F9923A9F0F92F96E9D0
:10446000BB279395F695879577956795B795F11145
:10447000F8CFFAF4BB0F11F460FF1BC06F5F7F4FE2
:104480008F4F9F4F16C0882311F096E911C07723F4
:1044900021F09EE8872F762F05C0662371F096E8FD
:1044A000862F70E060E02AF09A95660F771F881FCC
:1044B000DAF7880F9695879597F90895990F000870
:1044C000550FAA0BE0E8FEEF16161706E807F907E6
:1044D000C0F012161306E407F50798F0621B730B81
:1044E000840B950B39F40A2661F0232B242B252B02
:1044F00021F408950A2609F4A140A6958FEF811DA5
:10450000811D08950E9495220C9406230E94F82292
:1045100038F00E94FF2220F0952311F00C94EF2236
:104520000C94F52211240C943A230E94172370F363
:10453000959FC1F3950F50E0551F629FF001729F48
:10454000BB27F00DB11D639FAA27F00DB11DAA1F57
:10455000649F6627B00DA11D661F829F2227B00DA4
:10456000A11D621F739FB00DA11D621F839FA00D2F
:10457000611D221F749F3327A00D611D231F849F7F
:10458000600D211D822F762F6A2F11249F575040D6
:104590009AF0F1F088234AF0EE0FFF1FBB1F661F51
:1045A000771F881F91505040A9F79E3F510580F01A
:1045B0000C94EF220C943A235F3FE4F3983ED4F33B
:1045C000869577956795B795F795E7959F5FC1F7BE
:1045D000FE2B880F911D9695879597F9089597F969
:1045E0009F6780E870E060E008959FEF80EC089599
:1045F00000240A94161617061806090608950024C2
:104600000A9412161306140605060895092E03943B
:10461000000C11F4882352F0BB0F40F4BF2B11F4AF
:1046200060FF04C06F5F7F4F8F4F9F4F089557FD0E
:104630009058440F551F59F05F3F71F04795880F10
:1046400097FB991F61F09F3F79F0879508951216A7
:1046500013061406551FF2CF4695F1DF08C0161653
:1046600017061806991FF1CF869571056105089404
:104670000895E894BB2766277727CB0197F908951B
:10468000F999FECF92BD81BDF89A992780B508951A
:10469000262FF999FECF1FBA92BD81BD20BD0FB65E
:1046A000F894FA9AF99A0FBE01960895DB018F9358
:1046B0009F930E94A723BF91AF91A29F800D911D50
:1046C000A39F900DB29F900D11240895A1E21A2E80
:1046D000AA1BBB1BFD010DC0AA1FBB1FEE1FFF1FA6
:1046E000A217B307E407F50720F0A21BB30BE40BF6
:1046F000F50B661F771F881F991F1A9469F760953D
:104700007095809590959B01AC01BD01CF010895F6
:10471000052E97FB1EF400940E949F2357FD07D09F
:104720000E94662307FC03D04EF40C949F235095FF
:104730004095309521953F4F4F4F5F4F089590958D
:104740008095709561957F4F8F4F9F4F08950E9480
:10475000B223A59F900DB49F900DA49F800D911D35
:1047600011240895A29FB001B39FC001A39F700DB3
:10477000811D1124911DB29F700D811D1124911D69
:1047800008955058BB27AA270E94D9230C940623CA
:104790000E94F82238F00E94FF2220F039F49F3F57
:1047A00019F426F40C94F5220EF4E095E7FB0C9432
:1047B000EF22E92F0E94172358F3BA1762077307F5
:1047C0008407950720F079F4A6F50C9439230EF4AC
:1047D000E0950B2EBA2FA02D0B01B90190010C0111
:1047E000CA01A0011124FF27591B99F0593F50F429
:1047F000503E68F11A16F040A22F232F342F442781
:10480000585FF3CF469537952795A795F040539578
:10481000C9F77EF41F16BA0B620B730B840BBAF048
:104820009150A1F0FF0FBB1F661F771F881FC2F7B3
:104830000EC0BA0F621F731F841F48F487957795C7
:104840006795B795F7959E3F08F0B0CF9395880F81
:1048500008F09927EE0F9795879508950E944224B6
:104860000C9406230E94FF2258F00E94F82240F088
:1048700029F45F3F29F00C94EF2251110C943A2354
:104880000C94F5220E94172368F39923B1F3552362
:1048900091F3951B550BBB27AA2762177307840753
:1048A00038F09F5F5F4F220F331F441FAA1FA9F3E9
:1048B00035D00E2E3AF0E0E832D091505040E695D7
:1048C000001CCAF72BD0FE2F29D0660F771F881F38
:1048D000BB1F261737074807AB07B0E809F0BB0B2B
:1048E000802DBF01FF2793585F4F3AF09E3F51053F
:1048F00078F00C94EF220C943A235F3FE4F3983E57
:10490000D4F3869577956795B795F7959F5FC9F727
:10491000880F911D9695879597F90895E1E0660FA8
:10492000771F881FBB1F621773078407BA0720F021
:10493000621B730B840BBA0BEE1F88F7E09508958A
:104940000E94A7246894B1110C943A2308950E9400
:104950001F2388F09F5798F0B92F9927B751B0F0CF
:10496000E1F0660F771F881F991F1AF0BA95C9F7F3
:1049700014C0B13091F00E943923B1E008950C9435
:104980003923672F782F8827B85F39F0B93FCCF3E8
:10499000869577956795B395D9F73EF49095809570
:1049A000709561957F4F8F4F9F4F08950E945E22B3
:1049B00008F48FEF089519F416F40C94F5220C9472
:1049C00021250E941F23B8F39923C9F3B6F39F57FB
:1049D000550B87FF0E942F250024A0E640EA900196
:1049E00080585695979528F4805C660F771F881F2E
:1049F00020F026173707480730F4621B730B840B2F
:104A0000202931294A2BA695179407942025312572
:104A10004A2758F7660F771F881F20F02617370799
:104A2000480730F4620B730B840B200D311D411DC0
:104A3000A09581F7B901842F9158880F9695879595
:104A400008959F3F31F0915020F4879577956795B1
:104A5000B795880F911D9695879597F90895915070
:104A60005040660F771F881FD2F7089597FB072ED7
:104A700016F4009407D077FD09D00E94572507FC53
:104A800005D03EF4909581959F4F0895709561955E
:104A90007F4F0895EE0FFF1F0590F491E02D0994CC
:104AA0000E94B223B7FF0895821B930B0895AA1B9F
:104AB000BB1B51E107C0AA1FBB1FA617B70710F009
:104AC000A61BB70B881F991F5A95A9F7809590953B
:104AD000BC01CD010895CF93DF938230910510F48E
:104AE00082E090E0E091AF06F091B00620E030E087
:104AF000C0E0D0E0309711F140815181481759074B
:104B0000C0F04817590761F482819381209719F00A
:104B10009B838A832BC09093B0068093AF0626C0F8
:104B20002115310519F04217530718F49A01BE01F7
:104B3000DF01EF010280F381E02DDCCF211531058B
:104B400009F1281B390B2430310590F412968D9110
:104B50009C9113976115710521F0FB01938382836A
:104B600004C09093B0068093AF06FD01329644C016
:104B7000FD01E20FF31F81939193225031092D9390
:104B80003C933AC02091AD063091AE06232B41F400
:104B90002091090330910A033093AE062093AD06AD
:104BA00020910703309108032115310541F42DB7F9
:104BB0003EB740910B0350910C03241B350BE09141
:104BC000AD06F091AE06E217F307A0F42E1B3F0BE3
:104BD0002817390778F0AC014E5F5F4F241735076F
:104BE00048F04E0F5F1F5093AE064093AD06819381
:104BF000919302C0E0E0F0E0CF01DF91CF91089502
:104C00000F931F93CF93DF93009709F48CC0FC019F
:104C10003297138212820091AF061091B0060115EF
:104C2000110581F420813181820F931F2091AD06FF
:104C30003091AE062817390779F5F093AE06E09368
:104C4000AD0671C0D80140E050E0AE17BF0750F488
:104C500012962D913C911397AD012115310509F163
:104C6000D901F3CF9D01DA01338322836081718101
:104C7000860F971F8217930769F4EC012881398109
:104C8000260F371F2E5F3F4F318320838A819B8100
:104C900093838283452B29F4F093B006E093AF060B
:104CA00042C01396FC93EE931297ED0149915991EE
:104CB0009E01240F351FE217F30771F48081918163
:104CC000840F951F029611969C938E9382819381F7
:104CD00013969C938E931297E0E0F0E0D801129621
:104CE0008D919C911397009719F0F8018C01F6CFE4
:104CF0008D919C9198012E5F3F4F820F931F2091C1
:104D0000AD063091AE062817390769F4309729F4BB
:104D10001092B0061092AF0602C013821282109356
:104D2000AE060093AD06DF91CF911F910F910895CC
:0E4D300081E090E0F8940C949D26F894FFCF5B
:104D3E00010200401F340034002800F080003200D1
:104D4E0032002F002F00CDCCD4417A736E625D5F9E
:104D5E0063707B85939EABB4C1C9CCCAC0B9B3ACEA
:104D6E00AAA3A0A19891877665534537342E2225A4
:104D7E00282F3C485360747C8A9599A4A29F9A95DB
:104D8E00908B8D8D8F9093969797928B8678645A91
:104D9E004E484A4D555D6F8597ABBAC7CACAC9BC56
:104DAE00B6AEA29E9E9D979289786A554941373636
:104DBE0034333D45506172828F999CA2A1989088A0
:104DCE007F7677767B8782817C7A87919C998D7F9F
:104DDE007365564C494B53606F7C8B98A4B0BAC622
:104DEE00CAC0AF93715238261E1D2632455C738998
:104DFE0098A2A9ADA89E928378726C6B7179828D00
:104E0E0096989492939499A0A7A8A5A39F98928FF1
:104E1E0088837A6C5E504743445061718397A6B580
:104E2E00C1CCD1C8BAA07E5E412C1D171B24344ABA
:104E3E0063798C9AA1A7A59C9081766E68666A723A
:104E4E007A838B8D898687888E99A1A6A6A6A39C28
:104E5E009899969182827565554B5E747C71575800
:104E6E0089AEB3C8D4BD834B34426D9FD6F7F5D609
:104E7E00B5A89B8B775731191B293C6499BEBA9FF5
:104E8E0087766B66676E7E959E8E755C575D5F63EB
:104E9E0062615B56575664829FB8CFE0E2D9C39DDC
:104EAE00847D7A7A7B8590988E72615C6A81949DFE
:104EBE009F947A5E483D383E4A5D748085827C7749
:104ECE0073767D96B4C5C5BEB5A693826E5A5659F5
:104EDE005C6066696D6F696C788893A1A7A4A09DCC
:104EEE009E9E998D837D736D747F80786A5745374A
:104EFE003647647A8B938E8B8E99A8B5BEC5C7BC88
:104F0E00A8988E8B877F797F80807E72685E595CD1
:104F1E005C646F7D80766B6269747F8A92959086F1
:104F2E007B150B150B150B150B150BFFFFFFFF005C
:104F3E00E10000000000000000B10680000000004B
:104F4E0000FC0BFC0BFC0B41043D043A040000007A
:104F5E00007603B903280141043D0425012A01B45A
:104F6E0000C800D200DC00B400C000F000D2001E69
:104F7E00001E002300280028002D00F6FF1E00341E
:104F8E0000330036003C003400390032002F00326E
:104F9E0000320037003C003200320032002F002F6A
:104FAE000030002F0032002F00320031002D0003A0
:104FBE00000200020003000200030002000100FFD5
:104FCE0000FF00FF002000FF00FF00FF00FF009029
:104FDE0000600040009000A000C000200000000013
:104FEE00000000DA0A060DB60BF00AFB0ADE0BBA59
:104FFE000B00000000890B4C0BB30B200B440B3045
:10500E000B210B00C18081000000564D4450565FAD
:10501E00317C315F564D4450560D0A00564D44506A
:10502E00455F003A323A007C005F564D44504500D1
:00000001FF
