:100000000C94F5000C94150F0C94EE0E0C94C70E86
:100010000C94A00E0C941D010C941D010C94790EEF
:100020000C941D010C941D010C9426110C94981134
:100030000C941D010C941D010C941D010C941D01C8
:100040000C941D010C94B9040C941D010C941D0119
:100050000C941D010C941D010C941D010C942F0E89
:100060000C941D010C941D010C941D010C941D0198
:100070000C941D010C941D010C941D010C941D0188
:100080000C941D010C941D010C941D010C941D0178
:100090000C943C0F0C941D010C941D010C941D013B
:1000A0000C941D010C941D010C941D019408D208A0
:1000B000E408420957096209770982098D099809FC
:1000C000A309AE0CB10CA00CA40CAA0CD20CD20C3F
:1000D000D20CB50CB90CBD0CC30CC70CD20CCD0C9A
:1000E000070605040100080A0B0C0D0900000002B8
:1000F00000090F0000030401000C000000000000D4
:1001000000000000000000000000000408020110D0
:100110004080401020408040800802040180402040
:100120001002011080102040402000000000230039
:10013000260029002C002F000404040404030405F5
:100140000202020204030202020206060606060674
:100150000404020202040400000000240027002A14
:10016000002D00300000000000250028002B002E8C
:10017000003100080B000202020100090400000126
:1001800002020000052400100105240101010424DD
:10019000020605240600010705810310004009043A
:1001A0000100020A000000070502024000000705E6
:1001B00083024000000403090412010002EF02015F
:1001C00040412336800001010203014172647569D8
:1001D0006E6F204C4C430041726475696E6F204C09
:1001E000656F6E6172646F00861E11241FBECFEFB3
:1001F000DAE0DEBFCDBF27E0A0E0B4E001C01D9291
:10020000AB39B207E1F714E0A0E0B1E0E6E3F6E4D1
:1002100002C005900D92A030B107D9F710E0C5EFEC
:10022000D0E004C02197FE010E94F322C43FD10711
:10023000C9F70E94B9150C9419230C94000080E9A9
:1002400091E00895859A0895FF920F931F93CF939D
:10025000DF93DC01ED91FC91AF2F31E03F0F3213C2
:1002600001C030E0EF01DD278B010A0F111DD8011D
:10027000FC90DB01A30FB11D3C913C9F80013D9F91
:10028000100D1124A0E0B1E0AC1BBD0BFA9EB00133
:10029000FB9E700D1124600F711F4E0F5F1F30E029
:1002A000322F22274217530710F0421B530BDC0159
:1002B0004D935C93872FDF91CF911F910F91FF900A
:1002C000089580E090E00895FC0185859685089565
:1002D000CF93DF9300D000D000D0CDB7DEB7AB0115
:1002E0001C821D821E82DC01ED91FC910190F08147
:1002F000E02D19821A821B829E012F5F3F4FBE01A3
:100300006C5F7F4F099526960FB6F894DEBF0FBE3F
:10031000CDBFDF91CF9108954F925F926F927F9200
:100320008F92AF92BF92CF92EF92FF920F931F9353
:10033000CF93DF933C01EB010E943F0DF301278532
:100340003089621B730B6A307105B0F3F894E88151
:10035000F98151B3506281B38F7D81BB6A859F81E2
:10036000262F291B922F2F83BF844A805B807D8597
:10037000FC84EE847F5FF394E3943E814885A984F6
:10038000CB841181D20120E0C32F022F322F318183
:10039000112788943111390F08F43FEF9195889413
:1003A00070FD130F1795889471FD130F179588949E
:1003B00072FD130F1795889473FD130F179588948A
:1003C00074FD130F1795889475FD130F1795889476
:1003D00076FD130F1795889477FD130F1795889462
:1003E000232F7111212F960F122F002C51BB00C00B
:1003F00017FF81BB30812227889400C000C0002CE9
:1004000081BB31113C0F00C0002C51BB00C016FF56
:1004100081BB08F43FEFC195889400C000C0002C58
:1004200081BBF0FC230F00C0002C51BB00C015FFA6
:1004300081BB27958894F1FC230F00C000C0002CDD
:1004400081BB2795889400C0002C51BB00C014FFCD
:1004500081BBF2FC230F2795889400C000C0002CBC
:1004600081BBF3FC230F00C0002C51BB00C013FF65
:1004700081BB27958894F4FC230F00C000C0002C9A
:1004800081BB2795889400C0002C51BB00C012FF8F
:1004900081BBF5FC230F2795889400C000C0002C79
:1004A00081BBF6FC230F00C0002C51BB00C011FF24
:1004B00081BB27958894F7FC230F00C000C0002C57
:1004C00081BB2795889400C0002C51BB00C010FF51
:1004D00081BB132FF110122FCA0D00C000C0002CD9
:1004E00081BB00C000C0002C51BB00C017FF81BB06
:1004F00032812227889400C000C0002C81BB3111BA
:10050000340F00C0002C51BB00C016FF81BB08F4A3
:100510003FEFEB0DF11D00C000C0002C81BBE0FCE3
:10052000230F00C0002C51BB00C015FF81BB2795D5
:100530008894E1FC230F00C000C0002C81BB2795EC
:10054000889400C0002C51BB00C014FF81BBE2FCAA
:10055000230F2795889400C000C0002C81BBE3FCCA
:10056000230F00C0002C51BB00C013FF81BB279597
:100570008894E4FC230F00C000C0002C81BB2795A9
:10058000889400C0002C51BB00C012FF81BBE5FC69
:10059000230F2795889400C000C0002C81BBE6FC87
:1005A000230F00C0002C51BB00C011FF81BB279559
:1005B0008894E7FC230F00C000C0002C81BB279566
:1005C000889400C0002C51BB00C010FF81BB132FCA
:1005D000E110122F419500C000C0002C81BB4C0DD2
:1005E00000C000C051BB00C017FF81BB3181222772
:1005F000889400C000C0002C81BB3111390F00C0AD
:10060000002C51BB00C016FF81BB08F43FEF919551
:10061000889400C000C0002C81BB70FD230F00C077
:10062000002C51BB00C015FF81BB2795889471FD3C
:10063000230F00C000C0002C81BB2795889400C008
:10064000002C51BB00C014FF81BB72FD230F279506
:10065000889400C000C0002C81BB73FD230F00C034
:10066000002C51BB00C013FF81BB2795889474FDFB
:10067000230F00C000C0002C81BB2795889400C0C8
:10068000002C51BB00C012FF81BB75FD230F2795C5
:10069000889400C000C0002C81BB76FD230F00C0F1
:1006A000002C51BB00C011FF81BB2795889477FDBA
:1006B000230F00C000C0002C81BB2795889400C088
:1006C000002C51BB00C010FF81BB132F7111122FE2
:1006D000960F00C000C0002C81BB119709F086CE98
:1006E00020EE31E0D2010E94F922DC01CB01F4E0DE
:1006F000B695A79597958795FA95D1F720E030E0C4
:10070000A9016AE9469E412D569E400D511D1124B6
:10071000840F951FA11DB11D893E43E09407A105DB
:10072000B10588F1885E9340A109B10942E0B69510
:10073000A795979587954A95D1F747E0849F212DF6
:10074000949F200D311D11246091080470E0860FE4
:10075000971F820F931F4091430750914407609168
:10076000450770914607292F3327420F531F611DFC
:10077000711D40934307509344076093450770935E
:1007800046078093080478940E943F0DF301708B14
:100790006787DF91CF911F910F91FF90EF90CF90DE
:1007A000BF90AF908F907F906F905F904F90089523
:1007B0000F931F93CF93DF93CDB7DEB762970FB63A
:1007C000F894DEBF0FBECDBF8C01F901DC011C9691
:1007D0008C917A8369835C834B835E834D839081A4
:1007E0009D8791819E8792819F87813029F4CE01D8
:1007F00001960E946C1506C01C861B861A861986F7
:1008000018861F82188A1A8A198AD801ED91FC91DC
:100810000484F585E02DBE016F5F7F4FC801099507
:1008200062960FB6F894DEBF0FBECDBFDF91CF91B9
:100830001F910F9108950F931F93CF93DF93CDB71F
:10084000DEB762970FB6F894DEBF0FBECDBF8C0146
:10085000F901DC011C968C917A8369835C834B835C
:100860005E834D8390819D8791819E8792819F8732
:10087000813029F4CE0101960E946C1506C01C86B9
:100880001B861A86198618861F8283E0888B1A8A2F
:10089000198AD801ED91FC910484F585E02DBE0103
:1008A0006F5F7F4FC801099562960FB6F894DEBF5F
:1008B0000FBECDBFDF91CF911F910F910895DC0145
:1008C000ED91FD918081ED91FD919081ED91FD91F2
:1008D0006C9163708E2309F064609F2309F0686057
:1008E000ECE7F4E0E60FF11D659565956D936D916C
:1008F0007D918D919D91099423C01AC012C016C09C
:1009000010C01EC009C014C013C006C019C009C061
:100910000DC007C00DC014C06250704080409040B0
:100920000BC0615070408040904006C06E5F01C0B7
:100930006F5F7F4F8F4F9F4F9E938E937E936E93EB
:1009400008958091DA069091DB060C945F04809103
:10095000D8069091D9060C945F048091D6069091A8
:10096000D7060C945F048091D4069091D5060C9420
:100970005F041F920F920FB60F921124CF92DF9255
:10098000EF92FF920F931F932F933F934F935F9399
:100990006F937F938F939F93AF93BF93CF93DF9387
:1009A000EF93FF93C0917C05D0E0C0907B05D12CE4
:1009B00000917A0510E04091EF025091F0022DEC89
:1009C0006AE072E084E094E00E94240190E08058A4
:1009D00091098C9F70018D9FF00C9C9FF00C11244D
:1009E0004091EB025091EC0225E865E871E082E06D
:1009F00094E00E94240190E0805891098C9DE001D0
:100A00008D9DD00D9C9DD00D11244091E2025091FE
:100A1000E30225E860E071E080E094E00E942401B8
:100A2000CE0DDF1DD05890E080589109809F900135
:100A3000819F300D909F300D1124C20FD31FD09392
:100A4000D000FF91EF91DF91CF91BF91AF919F9136
:100A50008F917F916F915F914F913F912F911F9156
:100A60000F91FF90EF90DF90CF900F900FBE0F90FF
:100A70001F901895CF92DF92EF92FF92CF93DF9362
:100A8000EC01688179818A819B819B01AC010E9484
:100A90002B2020E030E0A9010E944C216B017C0159
:100AA0006C817D818E819F819B01AC010E942B20F6
:100AB0009B01AC01C701B6010E944C216B017C0176
:100AC000688579858A859B859B01AC010E942B20D6
:100AD0009B01AC01C701B6010E944C21DF91CF916F
:100AE000FF90EF90DF90CF900C946B22AF92BF926B
:100AF000CF92DF92EF92FF920F931F93CF93DF93EA
:100B000000D000D000D0CDB7DEB78B01EE24E39447
:100B1000E092FB0578E6F72EF0921D061092FC0598
:100B200010921E06682F81E796E00E948F140E94A3
:100B3000040BE092FB05F0921D061092FC0510924A
:100B40001E068091FA058111FCCF81E08093FA05A1
:100B50008093F9059FEF9093F8051092F70595E0C3
:100B60009093F6058093D5058091D505806D80938F
:100B7000D5058091D405813041F41092D40580913F
:100B8000D5058093BB0085EC01C085EE8093BC0049
:100B90008091FA058130E1F38091F705863018F4F1
:100BA000F090F70502C066E0F62EA6EDB5E02AE764
:100BB00037E0F9018E2F821B8F1518F48D918193E8
:100BC000F9CF10920A04F092090486E08F1580F0A4
:100BD000FE0131965F016F018C2D8A198F1588F403
:100BE00081E796E00E943614F60181936F01F4CFFD
:100BF00056E0E52E81E796E00E943614EA94E11073
:100C0000F9CF0E94040BF6E0FF1611F080E01AC045
:100C1000898190E0982F88272A81822BF80191837F
:100C200080838B8190E0982F88272C81822B93835F
:100C300082838D8190E0982F88272E81822B958347
:100C4000848381E026960FB6F894DEBF0FBECDBF39
:100C5000DF91CF911F910F91FF90EF90DF90CF9098
:100C6000BF90AF90089580917D0590917E0501978A
:100C700009F052C083E090E090937E0580937D055B
:100C800060910B0482E090E00E94EA0A6091E80221
:100C900083E090E00E94EA0A6091F10284E090E033
:100CA0000E94EA0A6091ED0285E090E00E94EA0A63
:100CB0006091E40286E090E00E94EA0A6091E60218
:100CC00087E090E00E94EA0A6091E9028CE090E0FF
:100CD0000E94EA0A6091DB0288E090E00E94EA0A42
:100CE0006091D90289E090E00E94EA0A6091D702FF
:100CF0008AE090E00E94EA0A6091DE028BE090E0D8
:100D00000E94EA0A6AE280E090E00E94EA0A60E05B
:100D100081E090E00C94EA0A089580917D0590911D
:100D20007E05892B31F482E090E090937E058093DC
:100D30007D0508952F923F924F925F926F927F921E
:100D40008F929F92AF92BF92CF92DF92EF92FF92DB
:100D50000F931F93CF93DF9300D000D000D0CDB777
:100D6000DEB70091D7021091D802B090D902A090BE
:100D7000DB02AC82BD820E83BE016F5F7F4FCE016E
:100D800004960E94C6147980672D70E080E090E0A0
:100D90000E94CA1F9B01AC0160E070E885E693E405
:100DA0000E94B8216B017C0120E030E040E85FE365
:100DB0000E946022181634F4C12CD12C80E8E82E51
:100DC0009FE3F92E9A80692D70E080E090E00E9408
:100DD000CA1F9B01AC0160E070E885E693E40E94C5
:100DE000B8212B01682E892E9B01482F592FB6015F
:100DF000C7010E94C51F87FD03C06201E62CF82CC5
:100E00008B80682D70E080E090E00E94CA1F9B01FB
:100E1000AC0160E070E885E693E40E94B821362ECC
:100E2000472E582E692E262F372F482F592FB601BF
:100E3000C7010E94C51F87FD04C0C32CD42CE52C1C
:100E4000F62C692D70E09B01270D311DB901680D4D
:100E5000711D072E000C880B990B0E94CC1F9B0163
:100E6000AC0161E070E885E693E40E94B8213B01A3
:100E70004C019B01AC01B601C7010E94C51F87FD53
:100E800002C063017401AC82BD82B801110F880BEE
:100E9000990B0E94CC1F9B01AC01B601C7010E94B7
:100EA0002B200E9431226E83BE016F5F7F4FCE01E7
:100EB00004960E94C61480910F04823009F083C00A
:100EC00060900B0470900C0408EE16E060E174E092
:100ED00041E154E022E134E0E5E1F4E082E090E039
:100EE000E12CF12CDC01A851B94F1D01DF01129753
:100EF0005D0111964D01E614F704E1F4D801DC9090
:100F0000DB01DC926101B1E0CB1AD108D601DC90A3
:100F1000DA01DC92D101DC90D901DC92DB01DC90BA
:100F2000D501DC92DA01DC90D401DC92D901DC90AD
:100F3000D08228C0D101CC90D12C2601689413F81E
:100F4000559447941694E1F71197AC91B0E06D0178
:100F5000A4E0D594C794AA95E1F7D801DC90AD2D13
:100F6000B0E01D01B4E035942794BA95E1F7DB01B8
:100F70002C92DA01CC92D9014C92D5011C92D40169
:100F80001C921082DC01AA0FBB1FA80FB91FA05F23
:100F9000BB4F1C9211961C92119712961C92BFEF98
:100FA000EB1AFB0A03960D5F1F4F675F7F4F475F8A
:100FB0005F4F275F3F4F39968632910509F092CFF8
:100FC00084E290E002C080E090E00091780510910A
:100FD0007905B981FA80EB80AC01440F551F480FA9
:100FE000591F20E030E08017910724F060E070E0A6
:100FF000A0E002C0B701AB2FF901E40FF51FE05FDD
:10100000FB4FA0837183628301962D5F3F4F88372A
:10101000910549F78091C5060E94CE0926960FB624
:10102000F894DEBF0FBECDBFDF91CF911F910F911E
:10103000FF90EF90DF90CF90BF90AF909F908F90F8
:101040007F906F905F904F903F902F90089516166D
:1010500017063CF4281B390B621773077CF49B01BD
:101060000DC06115710541F0481B590B9B016417B8
:10107000750724F49A0102C020E030E0820F931F2C
:101080000895CF93DF938091E706823030F4F8948F
:101090008CED96E00E945F0401C0F8948091E30615
:1010A0009091E406A091E506B091E60678949C0143
:1010B00097FF02C02D5F3F4F3595279535952795B2
:1010C0002115310509F467C16CEF6203A001639F2C
:1010D000500D1124F894840F951F092E000CAA0BB3
:1010E000BB0B8093E3069093E406A093E506B093D0
:1010F000E6067894CC27DD27C21BD30B80910F0422
:10110000813009F430C120F0823009F42FC13FC191
:10111000E0910B04F0910C04EB30F10508F037C1BD
:10112000EA5AFF4F0C94F32228E030E041E050E00F
:10113000BE018091DE029091DF020E942708909309
:10114000DF028093DE0220917D0530917E05223002
:101150003105D9F03CF42115310559F02130310524
:1011600079F015C12330310521F02430310599F093
:101170000EC11C161D060CF00AC10E948D0607C187
:10118000D7FF05C10E94330602C1D7FF00C10197F6
:1011900009F0FDC0F7CFD7FFFAC010927E0510927C
:1011A0007D05F5C0BE0144E0660F771F4A95E1F763
:1011B0008091E8022FEF30E040E050E090E00E94A4
:1011C00027088093E802E3C027E030E040E050E0E9
:1011D000BE0180910604909107040E942708909315
:1011E000070480930604880F991FFC01E358FC4F05
:1011F000208131813093DC022093DB02FC01E35932
:10120000FC4F208131813093DA022093D902FC0116
:10121000E35AFC4F808191819093DF028093DE023C
:101220000E949A068091060490910704880F991FE6
:10123000FC01E35BFC4F208131813093F20220936B
:10124000F102FC01E35CFC4F208131813093EE021E
:101250002093ED02FC01E35DFC4F2081318130934E
:10126000E5022093E402FC01E35EFC4F2081318122
:101270003093E7022093E602FC01E35FFC4F80819C
:1012800091816CC0BE0193E0660F771F9A95E1F7DC
:101290002FEF30E047E050E08091D7029091D802E4
:1012A0000E9427089093D8028093D7026EC0809145
:1012B000DB029091DC02480F591F5093DC024093EF
:1012C000DB0263C0BE0183E0660F771F8A95E1F7FA
:1012D0002FEF30E040E050E08091D9029091DA02A7
:1012E0000E9427089093DA028093D9024EC0809121
:1012F000F1029091F202821B930B9093F202809381
:10130000F10245C08091ED029091EE02821B930B99
:101310009093EE028093ED023AC08091E4029091A6
:10132000E502821B930B9093E5028093E4022FC0A9
:101330008091E6029091E702821B930B9093E70263
:101340008093E60224C02FEF30E040E050E0BE0181
:101350008091E9029091EA020E9427089093EA02A4
:101360008093E90214C082E080930F042BE030E008
:1013700040E050E0BE0180910B0490910C040E946B
:10138000270890930C0480930B040E949A061092F5
:101390000E0410920D04DF91CF9108953F924F9269
:1013A0005F926F927F928F929F92AF92BF92CF92F5
:1013B000DF92EF92FF920F931F93CF93DF9300D0B2
:1013C0001F92CDB7DEB7F82E8091C8069091C9065E
:1013D000A091CA06B091CB06892B8A2B8B2BE9F002
:1013E0000E943F0D00911E0710911F0720912007BA
:1013F00030912107DC01CB01801B910BA20BB30BB9
:101400000091C8061091C9062091CA063091CB06FA
:1014100080179107A207B307B8F20E943F0D6093AF
:101420001E0770931F078093200790932107E09178
:10143000D006F091D106309759F04091CC065091EA
:10144000CD066091CE067091CF068F2D0995F82EAE
:1014500000911F06109120064F2C512C612C712CED
:101460000115110509F461C0D8011C96EC901C9778
:101470008091C6069091C7068436910510F41C969B
:101480001C92D801ED91FC91A280B38019821A823E
:101490001B82F11014C0F801458556856281738165
:1014A0009E012F5F3F4FC801F5010995D8011C9699
:1014B000EC921C9714960D911C911597D1CFF801C1
:1014C0003996CE0101966C0148019CE0890E911C71
:1014D000DF0113973C902191332001F12223F1F099
:1014E000822F90E0A0E0B0E09C01AD012F5F3F4F64
:1014F0004F4F5F4FC301B2010E94FF209B01AC011F
:10150000832D90E0A0E0B0E0BC01CD016F5F7F4F84
:101510008F4F9F4F0E94FF20D6018C93BFEFCB1AB5
:10152000DB0AE815F905A1F6B6CF80911C0790916A
:101530001D078C010F5F1F4F10931D0700931C07A1
:1015400049979CF10E94230E4B015C0188EE93E0C9
:10155000089FB001099F700D189F700D1124072E70
:10156000000C880B990BC0901807D0901907E090D9
:101570001A07F0901B07A50194012C193D094E098B
:101580005F090E940F213093C7062093C606109270
:101590001D0710921C070E94230E6093180770937A
:1015A000190780931A0790931B070F900F900F90C5
:1015B000DF91CF911F910F91FF90EF90DF90CF902F
:1015C000BF90AF909F908F907F906F905F904F9063
:1015D0003F9008950F931F93CF93DF931F92CDB742
:1015E000DEB78C0169830E94E9206981861729F0A2
:1015F000C8010E94F12081E001C080E00F90DF91DE
:10160000CF911F910F91089520911E0690911D0674
:10161000213208F046C08091FA058111FCCF32E0FA
:101620003093FA0531E03093F9053FEF3093F80538
:101630001092F7052093F605ADEFB5E046ED55E0C5
:10164000FA013E2F341B321718F43D913193F9CF34
:101650001092D5052091D505990F922B9093D50521
:101660009091D405913041F41092D4059091D50514
:101670009093BB0095EC01C095EE9093BC009091C7
:10168000FA059230E1F39091F8059F3F79F080914F
:10169000F805803241F08091F805803331F084E024
:1016A00005C081E003C082E001C083E01092FC0528
:1016B00010921E061092FB050895CF93C62F91E05D
:1016C0009093FB0598E690931D061092FC051092EE
:1016D0001E06682F81E796E00E948F146C2F81E729
:1016E00096E00E948F140E94040B81E0CF91089530
:1016F000CF93DF93E4EFF0E08491E3E1F1E0D49164
:10170000E0E4F1E0C491CC2391F081110E94960CA9
:10171000EC2FF0E0EE0FFF1FE65DFE4FA591B491B8
:10172000EC91ED2381E090E021F480E002C080E0C4
:1017300090E0DF91CF9108958F929F92AF92BF92E8
:10174000CF92DF92EF92FF926B017C010E94230EF9
:101750004B015C01C60ED71EE81EF91E0E94230E27
:10176000681579058A059B0528F0C616D706E80690
:10177000F906A0F7FF90EF90DF90CF90BF90AF9069
:101780009F908F900895FC018091D305811103C033
:101790008FEF9FEF08959FB7F89482E08093E90060
:1017A0002091F20030E01216130614F421E030E02C
:1017B0002115310559F0289884E68093D20580914F
:1017C000F10080838091F200882319F09FBFC90146
:1017D00008958BE68093E800F9CF2FB7F89483E063
:1017E0008093E9009091E800892F807295FF04C0F2
:1017F0009091F20080E4891B2FBF0895809110071B
:1018000081110DC082E080930C0784E080930D0766
:1018100010920F0710920E0781E0809310078CE062
:1018200097E00895CF93DF931F92CDB7DEB769831A
:10183000DC01ED91FC910280F381E02D41E050E06C
:10184000BE016F5F7F4F09950F90DF91CF91089593
:1018500083E08093E9008091F200882319F08AE305
:101860008093E8000895FC018485958597FD0BC061
:101870009FB7F89482E08093E9008091F2009FBFC7
:1018800090E0019608959FB7F89482E08093E90074
:101890008091F2009FBF90E0089508950E94ED0BA3
:1018A00090E00895CF93DF931F92CDB7DEB7FC0190
:1018B0008485958597FD05C02FEF3FEF35872487F9
:1018C0000BC0CE0101960E94C30B019719F48981C8
:1018D00090E002C08FEF9FEF0F90DF91CF910895BE
:1018E0000F931F93CF93DF931F92CDB7DEB78C0179
:1018F000FC018485958597FF0EC0CE0101960E945C
:10190000C30B019719F4298130E002C02FEF3FEF9C
:10191000F80135872487F801848595850F90DF913C
:10192000CF911F910F9108950E94142390E0FC0124
:101930003197EF30F105B0F5EF59FF4F0C94F322DA
:10194000809180008F7703C0809180008F7D80938D
:101950008000089580918000877FF9CF84B58F77CC
:1019600002C084B58F7D84BD0895809190008F77EB
:1019700007C0809190008F7D03C080919000877F89
:101980008093900008958091C0008F7703C080916C
:10199000C0008F7D8093C00008958091C200877F32
:1019A0008093C20008951F93CF93DF93282F30E0D8
:1019B000F901E451FF4F8491F901E55FFE4FD491A5
:1019C000F901E85CFE4FC491CC23C9F0162F8111B8
:1019D0000E94960CEC2FF0E0EE0FFF1FEB59FE4F2C
:1019E000A591B4918FB7F894111105C09C91ED2F7A
:1019F000E095E92302C0EC91ED2BEC938FBFDF91D2
:101A0000CF911F910895CF93DF9390E0FC01E55FA4
:101A1000FE4F2491FC01E85CFE4F8491882361F124
:101A200090E0880F991FFC01E95AFE4FC591D491AF
:101A3000FC01EB59FE4FA591B491611109C09FB70C
:101A4000F8948881209582238883EC912E230BC003
:101A5000623061F49FB7F8943881822F8095832398
:101A60008883EC912E2B2C939FBF06C08FB7F894E0
:101A7000E8812E2B28838FBFDF91CF9108953FB748
:101A8000F89480916E0790916F07A0917007B091C4
:101A9000710726B5A89B05C02F3F19F00196A11D1F
:101AA000B11D3FBFBA2FA92F982F8827820F911DF4
:101AB000A11DB11DBC01CD0142E0660F771F881F3B
:101AC000991F4A95D1F708958F929F92AF92BF9236
:101AD000CF92DF92EF92FF926B017C010E943F0D4B
:101AE0004B015C01C114D104E104F104F1F00E9446
:101AF0003F0DDC01CB0188199909AA09BB09883E71
:101B00009340A105B10570F321E0C21AD108E108A4
:101B1000F10888EE880E83E0981EA11CB11CC11448
:101B2000D104E104F10419F7DDCFFF90EF90DF90CD
:101B3000CF90BF90AF909F908F9008958F929F927B
:101B4000AF92BF92CF92DF92EF92FF920F931F93CB
:101B5000CF93DF935C016B017A0180910C038823A2
:101B600009F45BC08091D305882309F456C08091A5
:101B7000740780FF05C08091E00082608093E000E0
:101B8000E70110E00AEF83E0882E9AE3992E209770
:101B9000D9F10E94ED0B81110AC0015009F43DC03A
:101BA00061E070E080E090E00E94640DF0CF282FAB
:101BB00030E0C217D3070CF48C2F4FB7F894809203
:101BC000E9009091E80095FF1DC0282F30E0C21B6E
:101BD000D30BF601982F915020F081918093F10062
:101BE000FACFC20ED31E112319F09092E80009C05B
:101BF0008091E80085FD06C09092E80011E02097F2
:101C000009F010E04FBFC3CF1111C3CF5D9884E638
:101C1000809375071E141F0444F081E090E0F501E5
:101C20009383828380E090E001C0C701DF91CF9170
:101C30001F910F91FF90EF90DF90CF90BF90AF90EA
:101C40009F908F9008952FB7F894609143077091FB
:101C5000440780914507909146072FBF08951F9232
:101C60000F920FB60F9211242F933F938F939F9350
:101C7000AF93BF938091430790914407A09145078C
:101C8000B091460730916D0723E0230F2D3720F4E4
:101C90000196A11DB11D05C026E8230F0296A11DC6
:101CA000B11D20936D078093430790934407A09341
:101CB0004507B093460780916E0790916F07A091FA
:101CC0007007B09171070196A11DB11D80936E0739
:101CD00090936F07A0937007B0937107BF91AF9176
:101CE0009F918F913F912F910F900FBE0F901F905A
:101CF00018951F920F920FB60F9211242F933F93B6
:101D00004F935F936F937F938F939F93AF93BF9303
:101D1000EF93FF93E091FF02F09100030995FF918B
:101D2000EF91BF91AF919F918F917F916F915F9153
:101D30004F913F912F910F900FBE0F901F901895CC
:101D40001F920F920FB60F9211242F933F934F9330
:101D50005F936F937F938F939F93AF93BF93EF9313
:101D6000FF93E091FD02F091FE020995FF91EF9142
:101D7000BF91AF919F918F917F916F915F914F91A3
:101D80003F912F910F900FBE0F901F9018951F92AB
:101D90000F920FB60F9211242F933F934F935F939F
:101DA0006F937F938F939F93AF93BF93EF93FF9323
:101DB000E091FB02F091FC020995FF91EF91BF9138
:101DC000AF919F918F917F916F915F914F913F91D3
:101DD0002F910F900FBE0F901F9018951F920F928A
:101DE0000FB60F9211242F933F934F935F936F93EE
:101DF0007F938F939F93AF93BF93EF93FF93E09164
:101E0000F902F091FA020995FF91EF91BF91AF911C
:101E10009F918F917F916F915F914F913F912F9102
:101E20000F900FBE0F901F9018951F920F920FB634
:101E30000F9211242F933F934F935F936F937F9350
:101E40008F939F93AF93BF93EF93FF93E091F7022C
:101E5000F091F8020995FF91EF91BF91AF919F9199
:101E60008F917F916F915F914F913F912F910F9043
:101E70000FBE0F901F9018951F920F920FB60F92E2
:101E800011242F933F934F935F936F937F938F937F
:101E90009F93AF93BF93EF93FF938091B900887F97
:101EA000803609F49CC068F5883209F45BC090F470
:101EB000803109F454C038F4882309F4F3C0883021
:101EC00009F44DC0F3C0883109F44CC0803209F4E4
:101ED0005DC0ECC0803409F468C048F4803309F474
:101EE00055C0883309F0E2C08093F805D5C080352D
:101EF00009F44FC0883509F45DC0883409F0D6C0B4
:101F0000D3C0883909F4C4C0A8F4883709F467C07D
:101F100038F4883609F463C0803709F460C0C6C05D
:101F2000883809F4B5C0803909F45FC0803809F0F9
:101F3000BDC05BC0803B09F483C038F4803A09F42B
:101F400066C0883A09F47CC0B1C0803C09F4A4C0E2
:101F5000883C09F4A1C0883B09F487C0A7C08091E0
:101F6000D50510C09091F7058091F605981770F58A
:101F7000E091F70581E08E0F8093F705F0E0EA52DB
:101F8000FA4F80818093BB0085EC83C08093F80575
:101F90008BC0E091F70581E08E0F8093F70580916B
:101FA000BB00F0E0EA52FA4F80839091F7058091F0
:101FB000F6056BC0E091F70581E08E0F8093F70581
:101FC0008091BB00F0E0EA52FA4F80838091F905DE
:101FD00081116AC081E08093D40584EA5EC083E009
:101FE0008093FA0510926C07CFCF80916C078032F6
:101FF00008F04EC0E0916C0781E08E0F80936C0773
:102000008091BB00F0E0E45BF84F8083BDCF80910E
:102010006C07803230F4E0916C07F0E0E45BF84F3D
:1020200010820E94BC1460916C0770E0E0914A0736
:10203000F0914B078CE497E0099510926C072CC047
:1020400084E08093FA051092490710924207E091CC
:102050004707F0914807099580914207811105C013
:1020600081E08093420710922207E091490781E0C6
:102070008E0F80934907F0E0EE5DF84F80818093EA
:10208000BB009091490780914207981708F47CCFD4
:1020900085E88093BC000AC085EC8093BC00109258
:1020A000FA0504C01092F8050E94BC14FF91EF914C
:1020B000BF91AF919F918F917F916F915F914F9160
:1020C0003F912F910F900FBE0F901F901895409148
:1020D000780750917907209176073091770742175A
:1020E0005307B4F49091E8009570E1F39091E80003
:1020F00092FD19C08093F100809178079091790743
:1021000001968F739927892B19F48EEF8093E8003D
:102110008091780790917907019690937907809341
:10212000780781E0089580E00895DF92EF92FF92B2
:102130000F931F93CF93DF93D82E8A017B01E40E78
:10214000F51EEB01CE15DF0571F0D7FE03C0FE01D1
:10215000849101C088810E94671021968111F2CF7D
:102160008FEF9FEF01C0C801DF91CF911F910F91B9
:10217000FF90EF90DF900895615030F02091F100D2
:10218000FC0120830196F8CF289884E68093D2053D
:102190000895CF92DF92EF92FF920F931F93CF9308
:1021A000DF936C017A018B01C0E0D0E0CE15DF0532
:1021B00089F0D8016D918D01D601ED91FC910190CE
:1021C000F081E02DC6010995892B11F47E0102C032
:1021D0002196ECCFC701DF91CF911F910F91FF9016
:1021E000EF90DF90CF9008950F931F93CF93DF93DD
:1021F0001F92CDB7DEB782E0898342E450E063E707
:1022000071E080E80E9495100E94FE0BDC0112969E
:102210000D911C9113970115110569F0D801ED91ED
:10222000FC910280F381E02DBE016F5F7F4FC801FA
:10223000099597FF07C089810F90DF91CF911F917A
:102240000F910895F80100851185E5CF1F920F9237
:102250000FB60F9211248F939F938091E10090917C
:10226000E100937F9093E10083FF0FC01092E9009B
:1022700091E09093EB001092EC0092E39093ED00CC
:102280001092D30598E09093F00082FF20C093E075
:102290009093E9009091F200992319F09AE39093BA
:1022A000E80090917507992339F090917507915046
:1022B00090937507992389F19091D205992339F06C
:1022C0009091D20591509093D205992341F184FFCA
:1022D00010C08091E2008E7E81608093E200809148
:1022E000E1008F7E8093E100809174078E7E806193
:1022F00011C080FF16C08091E2008E7E80618093C5
:10230000E2008091E1008E7E8093E100809174076D
:102310008E7E81608093740704C05D9ACDCF289A29
:10232000D6CF9F918F910F900FBE0F901F90189551
:102330001F920F920FB60F921124CF92DF92EF925D
:10234000FF920F931F932F933F934F935F936F933E
:102350007F938F939F93AF93BF93EF93FF93CF930D
:10236000DF93CDB7DEB76C97DEBFCDBF1092E9002B
:102370008091E80083FFEDC168E0CE0145960E94A0
:10238000BC1082EF8093E8008D8987FF05C0909193
:10239000E80090FFFCCF03C09EEF9093E800982FD9
:1023A000907609F0C6C09E892F89188D91110CC0B6
:1023B000803829F4809173078093F10002C0109255
:1023C000F1001092F10048C1422F50E0512B9130A2
:1023D00051F4811141C14130510509F03DC1809155
:1023E00073078D7F0BC0933061F4811135C141308B
:1023F000510509F031C180917307826080937307A2
:102400002BC1953041F48091E80080FFFCCF20681B
:102410002093E30021C1963009F05FC0EB8CFC8C67
:102420001092E9001092790710927807123091F516
:1024300010927707109276070E94F41099E0BE017F
:102440006F5F7F4FDB01E92F1D92EA95E9F79983D2
:102450001A8391E09E8390EA98879AEF998720915A
:10246000780730917907275F3F4F3C832B838D831B
:102470001092E9001092790710927807F09277078E
:10248000E092760749E050E080E00E9495100E94BB
:10249000F410E2C0F0927707E09276070E94FE0BFC
:1024A000DC011296ED90FC901397E114F10409F40D
:1024B000C0C0D701ED91FC910480F581E02DBE01F3
:1024C0006B5E7F4FC7010995009719F00CF0C4C0EF
:1024D000C7C0F701E084F184E8CF973009F4C0C0A9
:1024E000983021F481E08093F100B6C0993009F072
:1024F000B3C0837009F0B4C0E4EDF3E081E021E003
:1025000036E39081992361F08093E9002093EB00FA
:1025100091919093EC003093ED008F5F873089F7B5
:102520008EE78093EA001092EA008F898093D305AA
:1025300093C08B8D9C8D1092E900109279071092B8
:1025400078079093770780937607898D811156C01D
:102550008E899D89913A59F4813209F081C047E012
:1025600050E065E073E080E00E94951075C0913204
:1025700009F076C0833289F4888D90E0982F8827FF
:102580002F89822BA0E0B0E0809301039093020397
:10259000A0930303B09304035FC0803269F4809179
:1025A000E80082FFFCCF67E085E093E00E94BC106A
:1025B0008BEF8093E80006C0823209F04DC08F890E
:1025C00080930C0380917207882319F0EEEFFAE0F4
:1025D00002C0E0E0F8E08091050390910603A0912D
:1025E0000703B0910803803B9440A105B10509F0B1
:1025F0007BC080910C0380FF93C076C00E94FE0BCD
:10260000DC0112960D911C9113970115110541F1F2
:10261000D801ED91FC910190F081E02DBE016B5E3F
:102620007F4FC8010995811117C0F80100851185F8
:10263000ECCF113009F44EC0133091F48F89882308
:1026400009F445C0823081F440E860E187ED91E013
:102650000E94881F882321F08EEF8093E80079C0C4
:1026600081E28093EB0075C0813029F440E86BE093
:102670008BEC91E0EDCF833099F70E94FE0BDC01EB
:102680001296ED90FC9013978E010F5F1F4F68011B
:10269000E114F10479F0D701ED91FC910680F78106
:1026A000E02DB801C7010995080F111DF701E0845D
:1026B000F184EECFD8011C92F60101900020E9F7D9
:1026C0003197BF016C197D0940E0C601C1CF65EBB0
:1026D00071E002C069EB71E06115710509F2FB015F
:1026E000449150E080E840CF0FB6F894A8958091CF
:1026F0006000886180936000109260000FBEA89512
:10270000EE3F2AE0F20739F08091FE0A9091FF0A2D
:1027100091838083A1CF1092FF0A1092FE0A9CCF72
:10272000EE3F8AE0F80731F0808191819093FF0AB3
:102730008093FE0A87E797E7918380839BE088E197
:102740000FB6F894A895809360000FBE9093600038
:1027500083CF6C960FB6F894DEBF0FBECDBFDF916E
:10276000CF91FF91EF91BF91AF919F918F917F9109
:102770006F915F914F913F912F911F910F91FF901A
:10278000EF90DF90CF900F900FBE0F901F90189595
:102790006115710579F0FB0101900020E9F731978F
:1027A000AF01461B570BDC01ED91FC910280F381D8
:1027B000E02D099480E090E008954F925F926F922F
:1027C0007F92EF92FF920F931F93CF93DF93CDB73A
:1027D000DEB7A1970FB6F894DEBF0FBECDBF7C0168
:1027E000FA01CB0119A2223008F42AE08E010F5D14
:1027F0001F4F422E512C612C712CBF01A30192015D
:102800000E940F21F901CA01015011096A3014F424
:10281000605D01C0695CD8016C93232B242B252BB0
:1028200061F7B801C7010E94C813A1960FB6F894CA
:10283000DEBF0FBECDBFDF91CF911F910F91FF90F3
:10284000EF907F906F905F904F9008950895E09182
:102850000A0480910904E81730F4F0E0E658F84FD4
:10286000808190E008958FEF9FEF089590910A0482
:1028700080910904981750F4E92FF0E0E658F84FDA
:10288000208130E09F5F90930A0402C02FEF3FEF5A
:10289000C90108958091090490E020910A04821BE7
:1028A00091090895CF92DF92EF92FF920F931F93B9
:1028B000CF93DF937C018A018091FB05882389F007
:1028C000EB016B01C40ED51ECC15DD05F1F069914D
:1028D000D701ED91FC910190F081E02DC7010995A0
:1028E000F3CF842F413288F49091FA05943069F443
:1028F00040934207FB0122E237E0D9019A2F921B55
:10290000981718F491919D93F9CFC801DF91CF9159
:102910001F910F91FF90EF90DF90CF90089520913D
:10292000FB052223C9F020911E06203240F021E051
:1029300030E0FC013383228380E090E008958091B1
:10294000FC05E82FF0E0E350FA4F60838F5F80933F
:10295000FC0580931E0609C08091FA05843029F495
:1029600081E0809342076093220781E090E0089520
:10297000089580E090E0089585ED8093BC008091FB
:10298000BC0084FDFCCF1092FA050895DC01FB0128
:102990004C9111965C91119712967C91342F3F7156
:1029A000330F330F832F880F35E5282F239F020E17
:1029B00020E0211D1124642F6074942F907247FD34
:1029C00021C061110BC0911104C0822F8095422F4C
:1029D00011C045E5420F30E02BEA33C091110DC024
:1029E000382F4AEA349F030E30E0311D11248BEA60
:1029F000831B420F282F30E024C080E0422F4095F7
:102A0000322F0EC0611111C091110CC0382F2AEA6B
:102A1000329F030E30E0311D11244BEA431B3B5A19
:102A200020E00FC0322F30950BC0911104C085E516
:102A3000820F3BEA03C08AEA820F90E0321B282F04
:102A400040E05F3F11F15523E9F0222321F0259F5B
:102A5000020E20E0211D442321F0459F040E40E09A
:102A6000411D332321F0359F030E30E0311D112429
:102A70005095559F050E50E0511D1124250F450F0F
:102A8000350F03C03FEF4FEF2FEF7F3F09F420C01A
:102A900050E0772321F0779F512D09F05F5F552398
:102AA000A1F0222321F0259F020E20E0211D4423C6
:102AB00021F0459F040E40E0411D332321F0359F56
:102AC000030E30E0311D112403C030E040E020E06F
:102AD0002083418332830895EF92FF920F931F93D7
:102AE000CF93DF93EC0190919A079F5F292F277076
:102AF00020939A0790FF02C090E801C090E021FD6A
:102B00009064247009F0906220E1290FFE013C9648
:102B10007E018FE0E80EF11C00E011E06191662378
:102B200031F070E0C8010E94C0226F5F01C060E018
:102B3000DF0114976C93322F369F030E30E0311D66
:102B40001124CF010797311103C0EC01188203C093
:102B50003150EC013883662311F061506C93EE150F
:102B6000FF05E1F6DF91CF911F910F91FF90EF905C
:102B70000895CF93DF93CDB7DEB761970FB6F89482
:102B8000DEBF0FBECDBF789484B5826084BD84B5AE
:102B9000816084BD85B5826085BD85B5816085BD58
:102BA00080916E00816080936E0010928100809110
:102BB0008100826080938100809181008160809398
:102BC00081008091800081608093800080919100DD
:102BD0008260809391008091910081608093910048
:102BE000809190008160809390008091C10084600A
:102BF0008093C1008091C10082608093C100809168
:102C0000C10081608093C1008091C3008160809386
:102C1000C3008091C00082608093C0008091C20098
:102C200081608093C20080917A00846080937A00F2
:102C300080917A00826080937A0080917A0081602E
:102C400080937A0080917A00806880937A00109255
:102C5000D30510927307109274078091D70081609A
:102C60008093D70080EA8093D80089B5806189BDC0
:102C700089B5826089BD09B400FEFDCF61E070E0D6
:102C800080E090E00E94640D8091D8008F7C80618C
:102C90008093D8008091E000807F8093E000809155
:102CA000E1008E7E8093E1008DE08093E200559AF2
:102CB000209AEEEFFFE7859194918B3F9C4D19F49C
:102CC00081E0809372071092C1061092C2061092A2
:102CD000C3061092C40610927F06109280061092CE
:102CE00081061092820668EB7BE080E090E00E9413
:102CF0009C0B81E296E09093C0068093BF060BE1A7
:102D000010E0F0900C036AE070E080E090E00E9438
:102D1000640DF1100AC00150110939F064E670E049
:102D200080E090E00E94640DECCFE091BF06F0914E
:102D3000C0060FEF1FEF158704870E94230E6093D4
:102D40007F067093800680938106909382066AEDD9
:102D500073E08091BF069091C0060E94C8136AE09C
:102D600070E080E090E00E949C0B91E090939306CD
:102D700010932E0600932D0680919205811144C078
:102D800010928405109283058FEF809387058093BE
:102D900088058093890580938A0580938B058093AD
:102DA0008C0590938D0510928F0510928E051092D0
:102DB00086051092850580911F0690912006892B2B
:102DC00031F481E895E09093200680931F06E0910E
:102DD0007F05F0918005309721F081E895E095839B
:102DE000848381E895E09093800580937F0510921D
:102DF00091051092900581EA93E09093820580936B
:102E0000810581E080939205E0918105F091820532
:102E10000480F581E02D81E895E0099580E194E05A
:102E2000909384058093830588E790E090938F05C5
:102E300080938E05E0918105F09182050284F385EF
:102E4000E02D81E895E00995009729F19C0140E08B
:102E500050E060E472E48FE090E00E94D422722F90
:102E6000632F0091C8061091C9062091CA063091BF
:102E7000CB06872F962FDA0180179107A207B30799
:102E800010F4D901C8018093C8069093C906A09395
:102E9000CA06B093CB06E0911F06F091200630974A
:102EA00029F014860480F581E02DF9CF1092790580
:102EB000109278050E949A068091C5060E94CE095C
:102EC00010920A04109209041092FC0510921E063A
:102ED0001092FA0581E08093F9051092D40561E023
:102EE00082E00E94D30C61E083E00E94D30C8091C9
:102EF000B9008E7F8093B9008091B9008D7F809357
:102F0000B90088E48093B80085E48093BC0060E851
:102F100070E08BE690E00E945D0B62E370E080E081
:102F200090E00E94640D61E070E089E190E00E9411
:102F30005D0B63E070E08BE690E00E945D0B6EE15C
:102F400070E080E090E00E94640D68E170E08BE149
:102F500090E00E945D0B6EE170E080E090E00E94E6
:102F6000640D68EE70E08CE190E00E945D0B64E11E
:102F700070E080E090E00E94640D80E090E00E94AC
:102F8000E9208A3239F481E090E00E94E920882328
:102F900009F459C662E088E00E94030D62E08FE008
:102FA0000E94030D62E080E10E94030D61E08EE06B
:102FB0000E94030D60E08EE00E94D30C61E086E089
:102FC0000E94030D60E086E00E94D30C8091E7062A
:102FD000823030F4F8948CED96E00E945F0401C0DA
:102FE000F8947894F8941092E3061092E406109204
:102FF000E5061092E60678940E94780B8093DD0235
:103000000E949A0661E08AE00E94030D81E18093AC
:10301000C00081E08093C10080E48093C4001092DE
:10302000C30080E88093D1001092800089E08093F3
:10303000810080E092E090938900809388008091E5
:103040006F00826080936F00F8E72F2E312C0E9472
:10305000230E672B682B692B41F40E94230E6230EC
:1030600071058105910508F40EC10E94230E60933D
:10307000CE057093CF058093D0059093D105009134
:10308000CA051091CB052091CC053091CD05601774
:1030900071078207930740F46093CA057093CB05CC
:1030A0008093CC059093CD050091CA051091CB0576
:1030B0002091CC053091CD056B017C01C01AD10A5D
:1030C000E20AF30A970186010A3F1105210531053D
:1030D00008F4D9C06093CA057093CB058093CC05E2
:1030E0009093CD0584EF91E0A0E0B0E080938B0653
:1030F00090938C06A0938D06B0938E0610928F0647
:10310000109290061092910610929206809183067A
:1031100090918406A0918506B091860680938706DB
:1031200090938806A0938906B0938A060E94230E86
:103130006093830670938406809385069093860639
:103140000E94230E60937F06709380068093810611
:10315000909382060E94230E4B015C016CEE73E09B
:103160008091BF069091C0060E94C8132AE041E0FA
:1031700050E060E070E08091BF069091C0060E9430
:10318000DD1363EF73E08091BF069091C0060E944B
:10319000C8132AE0B501A4018091BF069091C00632
:1031A0000E94DD1365EF73E08091BF069091C00629
:1031B0000E94C8138091830690918406A091850691
:1031C000B0918606B501A401481B590B6A0B7B0B15
:1031D0002AE08091BF069091C0060E94DD1365EF42
:1031E00073E08091BF069091C0060E94C813409181
:1031F00083065091840660918506709186068091C1
:10320000870690918806A0918906B0918A06481B8E
:10321000590B6A0B7B0B2AE08091BF069091C00688
:103220000E94DD1367EF73E08091BF069091C006A6
:103230000E94C8130E94230EAB01BC012AE08091BA
:10324000BF069091C0060E94DD130091BF06109149
:10325000C00669EF73E0C8010E94C81369EE73E00D
:10326000C8010E94C81362E070E080E090E00E9414
:103270009C0B0E94230E60938306709384068093B8
:103280008506909386068091C8059091C905A1E0B6
:103290008A279093C9058093C80580FF7FC062ECA0
:1032A00075E083E40E9476056091C2057091C305C4
:1032B000262F2F708091A2059091A305880F991F4A
:1032C00082279093A3058093A205072E000C880BFC
:1032D000990B0E94CC1F69837A838B839C836091B6
:1032E000C6057091C705072E000C880B990B0E942C
:1032F000CC1F6D837E838F83988719861A861B86E1
:103300001C86CE0101960E943A054B015C0140905B
:10331000BE055090BF056090C0057090C1059B012F
:10332000AC01C301B2010E944B2120E030E046E92C
:1033300053E40E94B8219B01AC01C301B2010E9479
:103340004B219B01AC016093BE057093BF05809338
:10335000C0059093C105C501B4010E944B2120E036
:1033600030E048E452E40E94B8212091BA0530913F
:10337000BB054091BC055091BD050E944C2120E049
:1033800030E040E05FE30E942B206093BA05709329
:10339000BB058093BC059093BD05E2C064EB75E06E
:1033A0008BE30E9476050091B4051091B505202F9E
:1033B0002F708091A2059091A305880F991F8227F5
:1033C0009093A3058093A2056091B6057091B7050F
:1033D000072E000C880B990B0E94CC1F2091AC0586
:1033E0003091AD054091AE055091AF050E944C2142
:1033F0002B013C016091B8057091B905072E000CB6
:10340000880B990B0E94CC1F2091B0053091B1051B
:103410004091B2055091B3050E944C214B015C01D3
:10342000B801110F880B990B0E94CC1F2091A805A1
:103430003091A9054091AA055091AB050E944C21FD
:1034400024EA30E74DE75FE30E942B206093A80554
:103450007093A9058093AA059093AB0524EA30E701
:103460004DE75FE3C301B2010E942B206093AC05DE
:103470007093AD058093AE059093AF0524EA30E7D5
:103480004DE75FE3C501B4010E942B206093B005B6
:103490007093B1058093B2059093B30588EA95E0E7
:1034A0000E943A0520E030E44CE156E40E94B82145
:1034B0004B015C014090F3025090F4026090F502E1
:1034C0007090F6029B01AC01C301B2010E944B2136
:1034D00020E030E040E251E40E94B8219B01AC01C1
:1034E000C301B2010E944B216093F3027093F40276
:1034F0008093F5029093F602A50194010E944B215E
:103500004B015C0120E030E0A9010E946022181606
:1035100024F0B7FAB094B7F8B094C501B4010E9492
:103520006B224B015C0120E030E040E85FE30E9449
:10353000602218164CF08092A4059092A505A092E6
:10354000A605B092A7050CC080E090E0A0E8BFE31C
:103550008093A4059093A505A093A605B093A70515
:103560000E94780B9091DD028917A9F190919A053C
:103570009F5F90939A05933028F08093DD0281300D
:1035800039F412C0BF85B13019F0B23069F024C0EF
:1035900081E080930F04E8ECF0E0F0930E04E093F8
:1035A0000D04F1E0FF873DC080910F04813041F4AC
:1035B00080917D0590917E05892B11F40E948D06E6
:1035C00010920F040E949A0610920E0410920D049D
:1035D00022E02F8726C01F8680910D0490910E0453
:1035E00018161906F4F4019790930E0480930D04B5
:1035F000892BB9F480917D0590917E0583309105EA
:1036000034F48130910544F4892B19F007C00397F5
:1036100029F40E948D0602C00E94330684E0809344
:103620000F040E9441088091A2059091A305837028
:1036300099272091F1023091F202820F931F90930B
:10364000F0028093EF028091ED029091EE02909350
:10365000EC028093EB02E3EEF0E0849190917B002A
:1036600083FBFF27F0F9F88B198A2889398955E0FF
:10367000220F331F5A95E1F79F7D292B20937B0062
:103680008770806480937C0080917A00806480934E
:103690007A0080917A0086FDFCCF8091780020919D
:1036A000790090E0922B803791404CF58091A005F5
:1036B0009091A1050097E9F484E090E090937E0555
:1036C00080937D0580919F0581110AC081E08093E0
:1036D0009F05A8ECB0E0B093A105A093A00519C088
:1036E00010929F05E0E9F1E0F093A105E093A005B9
:1036F00010C001979093A1058093A0050AC040E9EE
:10370000C42EDD24D394D092A105C092A0051092BE
:103710009F050E94410880917D0590917E05823031
:10372000910509F4ACC12CF4009759F0019759F1B7
:1037300082C28330910509F4F4C1049709F448C2A8
:103740007AC210927C0510927B0510927A05109235
:103750009B0510929C0510929D0510929E0520E0FD
:1037600030E048EC52E46091BA057091BB0580915D
:10377000BC059091BD050E94602218160CF05BC23A
:103780000E948D0658C2E090BA05F090BB050091EA
:10379000BC051091BD0520E030E0A901B701C801CA
:1037A0000E94C51F87FD11C020E030E04CE053E4CB
:1037B000B701C8010E946022181664F4912CA12C54
:1037C00020EFB22E32E4C32E09C0912CA12CB12CD3
:1037D000C12C04C09E2CAF2CB02EC12E40909B0556
:1037E00050909C0560909D0570909E05A3019201EC
:1037F000692D7A2D8B2D9C2D0E94602218166CF459
:10380000892D9A2DAB2DBC2D80939B0590939C0503
:10381000A0939D05B0939E053DC06091E902709113
:10382000EA02072E000C880B990B0E94CC1F20E0A7
:1038300030E040E256E40E94B8212AE939E949E73C
:103840005FE30E944C219B01AC01C301B2010E94C5
:103850002B2060939B0570939C0580939D0590930E
:103860009E052DEC3CEC4CEC5FE30E94B821562EFB
:10387000672E782E892E262F372F482F592F692D06
:103880007A2D8B2D9C2D0E94602218161CF0952CF1
:103890005301C82C20E030E040E85BE3692D7A2D2D
:1038A0008B2D9C2D0E942B204B015C01C090E802C7
:1038B0006C2D70E080E090E00E94CC1F9B01AC0179
:1038C000C501B4010E942B202B013C01A0907A0578
:1038D0002A2D30E03E872D87B901330F880B990BD5
:1038E0000E94CC1F4B015C019B01AC01C301B201E2
:1038F0000E94602218165CF0A5019401C301B20178
:103900000E94C51F87FF06C068EF7FEF05C060E11A
:1039100070E002C060E070E02FEF30E040E050E087
:103920008D859E850E9427085C0180937A056091B1
:10393000E6027091E702072E000C880B990B0E949B
:10394000CC1F9B01AC01B701C8010E94B8212B011B
:103950003C016091ED027091EE02072E000C880B85
:10396000990B0E94CC1FA30192010E944C210E943E
:103970002A227093EC026093EB026091E402709152
:10398000E502072E000C880B990B0E94CC1FA301A7
:1039900092010E944C210E942A227093E3026093BC
:1039A000E2024090A4055090A5056090A605709095
:1039B000A70520E030E040E85FE3B201C3010E94C8
:1039C000602218163CF4912CD12C90E8892E3FE30C
:1039D0003D8704C0942CD52C862C7D8620E030E0D9
:1039E00040E052E4692D7D2D882D9D850E942B207D
:1039F0000E942A22685F6C9DB001112470937C059F
:103A000020E030E040E252E4692D7D2D882D9D8537
:103A10000E942B200E942A22645F6C9DB001112419
:103A2000BB24872F90E08A159B0508F4C50180937D
:103A30007B052DEC3CEC4CEC5EE3B201C3010E9433
:103A4000C51F87FF15C020E030E040E251E4B70118
:103A5000C8010E94C51F87FF0BC08091E0029091B2
:103A6000E102009719F40E943306E5C0019702C0F5
:103A700080E49FE19093E1028093E002DCC020911A
:103A8000780530917905283731058CF58091DE0273
:103A90009091DF02820F931F893791052CF4909348
:103AA00079058093780504C03092790520927805D5
:103AB0000E949A068091E80298E2899F9001112461
:103AC00030937C05ACE88A9F9001112430937B05EC
:103AD000B8E78B9FC001112490937A0580917805F7
:103AE00090917905F101E81BF90BCF0157C0CC2467
:103AF000C394D12CD0927E05C0927D0580E090E0E9
:103B0000A8ECB2E48093BA059093BB05A093BC05E2
:103B1000B093BD05A0E4BFE1B093E102A093E00241
:103B20008AC08091780590917905181619060CF0D5
:103B30004AC0019790937905809378050E949A0670
:103B400020917805309179054091E802429FC001AB
:103B5000439F900D1124B1010E94C02280917C05E9
:103B600090E0462F861797070CF4482F40937C056A
:103B700080917B0590E0462F861797070CF4482F1D
:103B800040937B0580917A0590E0861797070CF4A7
:103B9000BC0160937A05C101821B930B2091ED0259
:103BA0003091EE02280F391F3093EC022093EB0284
:103BB0002091E4023091E502820F931F9093E3027B
:103BC0008093E20238C010927E0510927D0533C0CA
:103BD0008091780590917905181619063CF40197A3
:103BE00090937905809378050E949A0680919F05AD
:103BF000882311F08FEF01C080E0809310041092B1
:103C00001104109212048091C5060E94CE091092F0
:103C10007C0510927B0580919F05811103C0109255
:103C20007A0509C0E0E0F1E0F093E302E093E202FC
:103C30008FEF80937A0580E090E0892B09F407CA22
:103C40000E94000001CA82E090E00E94E92090E01A
:103C500090930C0480930B0483E090E00E94E92091
:103C60008093E80284E090E00E94E92090E0909345
:103C7000F2028093F10285E090E00E94E92090E05A
:103C80009093EE028093ED0286E090E00E94E9209E
:103C900090E09093E5028093E40287E090E00E9438
:103CA000E92090E0805891099093E7028093E60222
:103CB0008CE090E00E94E92090E09093EA028093EB
:103CC000E90288E090E00E94E92090E09093DC0215
:103CD0008093DB0289E090E00E94E92090E09093DD
:103CE000DA028093D9028AE090E00E94E92090E015
:103CF0009093D8028093D7028BE090E00E94E92055
:103D000090E09093DF028093DE0244C9CF93DF936B
:103D1000109224061092230688EE93E0A0E0B0E013
:103D20008093250690932606A0932706B093280635
:103D300023EB33E030932206209321062FEF3FEF51
:103D400030932E0620932D0610927406109273065F
:103D50008093750690937606A0937706B0937806C5
:103D600085EC93E09093720680937106109283061F
:103D7000109284061092850610928606109287068D
:103D8000109288061092890610928A0610928B066D
:103D900010928C0610928D0610928E0610928F064D
:103DA0001092900610929106109292068FEF8093D7
:103DB000C5061092C7061092C6061092D106109240
:103DC000D0064FEF5FEFBA014093CC065093CD067B
:103DD0006093CE067093CF0624E630E03093D3068E
:103DE0002093D2068093E8068093E9068093EA0642
:103DF0008093EB068093EC068093ED0690E8909319
:103E0000EE061092EF069093F0061092F106909352
:103E1000F2061092F3061092F4061092F5068093C3
:103E2000F6061092F7061092F8068093F906809332
:103E3000FA068093FB061092FC068093FD0695EA35
:103E40009093FE061092FF0680930007909301075F
:103E5000109202078093030710920407109205073F
:103E6000809306071092070710920807109209071F
:103E700010920A0710920B0762E08FE00E94030D78
:103E800062E080E10E94030DE7E4F1E0E491F0E0FC
:103E9000EE0FFF1FE65DFE4FA591B491B093DD06D6
:103EA000A093DC06EAE1F1E084918093E006E8E487
:103EB000F1E0E491F0E0EE0FFF1FE65DFE4FC591EB
:103EC000D491D093DF06C093DE06EBE1F1E0E491FC
:103ED000E093E1061092E3061092E4061092E506E4
:103EE0001092E606EBE3FFE13197F1F7EC91E8235E
:103EF00081E009F480E028819091E106922309F0A5
:103F000082608093E2061092E706DF91CF910895D8
:103F1000CF92DF92EF92FF920F931F93CF93DF9395
:103F20001F92CDB7DEB7182F062FE42E862F880FED
:103F30008E5F99830E94671083E00E946710F12EC4
:103F4000C12E9981D92E8C2D8F19801798F4F601E6
:103F5000E7FE02C0849101C080810E946710182F83
:103F600080E00E9467108123FFEFCF1ADF0A8111E2
:103F7000EACF01C081E00F90DF91CF911F910F91A7
:103F8000FF90EF90DF90CF9008950E94072008F4F3
:103F900081E00895E89409C097FB3EF490958095E0
:103FA000709561957F4F8F4F9F4F9923A9F0F92FFF
:103FB00096E9BB279395F695879577956795B7957D
:103FC000F111F8CFFAF4BB0F11F460FF1BC06F5F63
:103FD0007F4F8F4F9F4F16C0882311F096E911C075
:103FE000772321F09EE8872F762F05C0662371F096
:103FF00096E8862F70E060E02AF09A95660F771FAA
:10400000881FDAF7880F9695879597F90895990F85
:104010000008550FAA0BE0E8FEEF16161706E80792
:10402000F907C0F012161306E407F50798F0621BB3
:10403000730B840B950B39F40A2661F0232B242B88
:10404000252B21F408950A2609F4A140A6958FEFA7
:10405000811D811D08950E943E200C94AF200E9476
:10406000A12038F00E94A82020F0952311F00C9494
:1040700098200C949E2011240C94E3200E94C020D0
:1040800070F3959FC1F3950F50E0551F629FF001AB
:10409000729FBB27F00DB11D639FAA27F00DB11DC4
:1040A000AA1F649F6627B00DA11D661F829F22274D
:1040B000B00DA11D621F739FB00DA11D621F839FD4
:1040C000A00D611D221F749F3327A00D611D231FAA
:1040D000849F600D211D822F762F6A2F11249F57F8
:1040E00050409AF0F1F088234AF0EE0FFF1FBB1FFB
:1040F000661F771F881F91505040A9F79E3F5105BA
:1041000080F00C9498200C94E3205F3FE4F3983EF9
:10411000D4F3869577956795B795F795E7959F5F63
:10412000C1F7FE2B880F911D9695879597F90895F5
:1041300097F99F6780E870E060E008959FEF80EC5A
:10414000089500240A9416161706180609060895FD
:1041500000240A9412161306140605060895092E63
:104160000394000C11F4882352F0BB0F40F4BF2BD2
:1041700011F460FF04C06F5F7F4F8F4F9F4F089512
:1041800057FD9058440F551F59F05F3F71F0479508
:10419000880F97FB991F61F09F3F79F087950895ED
:1041A000121613061406551FF2CF4695F1DF08C00C
:1041B000161617061806991FF1CF86957105610529
:1041C00008940895E894BB2766277727CB0197F9D1
:1041D0000895F999FECF92BD81BDF89A992780B5CF
:1041E0000895262FF999FECF1FBA92BD81BD20BD3B
:1041F0000FB6F894FA9AF99A0FBE01960895DB016A
:104200008F939F930E943121BF91AF91A29F800D08
:10421000911DA39F900DB29F900D11240895A1E2CE
:104220001A2EAA1BBB1BFD010DC0AA1FBB1FEE1F30
:10423000FF1FA217B307E407F50720F0A21BB30B7B
:10424000E40BF50B661F771F881F991F1A9469F7F7
:1042500060957095809590959B01AC01BD01CF0153
:1042600008950E943C21A59F900DB49F900DA49F9E
:10427000800D911D11240895A29FB001B39FC0012C
:10428000A39F700D811D1124911DB29F700D811D82
:104290001124911D08955058BB27AA270E9463211D
:1042A0000C94AF200E94A12038F00E94A82020F09A
:1042B00039F49F3F19F426F40C949E200EF4E095F7
:1042C000E7FB0C949820E92F0E94C02058F3BA17FE
:1042D000620773078407950720F079F4A6F50C941C
:1042E000E2200EF4E0950B2EBA2FA02D0B01B901A0
:1042F00090010C01CA01A0011124FF27591B99F05C
:10430000593F50F4503E68F11A16F040A22F232F67
:10431000342F4427585FF3CF469537952795A795B7
:10432000F0405395C9F77EF41F16BA0B620B730B5E
:10433000840BBAF09150A1F0FF0FBB1F661F771FCF
:10434000881FC2F70EC0BA0F621F731F841F48F484
:10435000879577956795B795F7959E3F08F0B0CF0D
:104360009395880F08F09927EE0F979587950895F4
:104370000E94CC210C94AF200E94A82058F00E94EB
:10438000A12040F029F45F3F29F00C9498205111AE
:104390000C94E3200C949E200E94C02068F3992383
:1043A000B1F3552391F3951B550BBB27AA27621731
:1043B0007307840738F09F5F5F4F220F331F441F3E
:1043C000AA1FA9F335D00E2E3AF0E0E832D0915072
:1043D0005040E695001CCAF72BD0FE2F29D0660F5F
:1043E000771F881FBB1F261737074807AB07B0E8A2
:1043F00009F0BB0B802DBF01FF2793585F4F3AF0A8
:104400009E3F510578F00C9498200C94E3205F3F78
:10441000E4F3983ED4F3869577956795B795F7952D
:104420009F5FC9F7880F911D9695879597F9089515
:10443000E1E0660F771F881FBB1F621773078407B1
:10444000BA0720F0621B730B840BBA0BEE1F88F7C0
:10445000E09508950E9431226894B1110C94E320F4
:1044600008950E94C82088F09F5798F0B92F992787
:10447000B751B0F0E1F0660F771F881F991F1AF04F
:10448000BA95C9F714C0B13091F00E94E220B1E0B2
:1044900008950C94E220672F782F8827B85F39F0B1
:1044A000B93FCCF3869577956795B395D9F73EF4E8
:1044B00090958095709561957F4F8F4F9F4F089590
:1044C0000E94072008F48FEF089519F416F40C9455
:1044D0009E200C94AB220E94C820B8F39923C9F304
:1044E000B6F39F57550B87FF0E94B9220024A0E620
:1044F00040EA900180585695979528F4805C660FA5
:10450000771F881F20F026173707480730F4621BF3
:10451000730B840B202931294A2BA69517940794F5
:10452000202531254A2758F7660F771F881F20F06E
:1045300026173707480730F4620B730B840B200DE6
:10454000311D411DA09581F7B901842F9158880F25
:104550009695879508959F3F31F0915020F4879567
:1045600077956795B795880F911D9695879597F9DB
:10457000089591505040660F771F881FD2F7089515
:1045800097FB072E16F4009407D077FD09D00E9400
:10459000002307FC05D03EF4909581959F4F089528
:1045A000709561957F4F0895052E97FB1EF400943A
:1045B0000E94EB2257FD07D00E940F2107FC03D079
:1045C0004EF40C94EB2250954095309521953F4F39
:1045D0004F4F5F4F089590958095709561957F4FEF
:1045E0008F4F9F4F0895EE0FFF1F0590F491E02D20
:1045F00009940E943C21B7FF0895821B930B0895F4
:10460000AA1BBB1B51E107C0AA1FBB1FA617B707F8
:1046100010F0A61BB70B881F991F5A95A9F7809514
:104620009095BC01CD01089581E090E0F8940C9440
:064630001923F894FFCFEE
:104636007A736E625D5F63707B85939EABB4C1C90E
:10464600CCCAC0B9B3ACAAA3A0A19891877665538A
:104656004537342E2225282F3C485360747C8A9592
:1046660099A4A29F9A95908B8D8D8F9093969797EC
:10467600928B8678645A4E484A4D555D6F8597AB46
:10468600BAC7CACAC9BCB6AEA29E9E9D9792897881
:104696006A554941373634333D45506172828F99A8
:1046A6009CA2A19890887F7677767B8782817C7A98
:1046B60087919C998D7F7365564C494B53606F7CEF
:1046C6008B98A4B0BAC6CAC0AF93715238261E1DC5
:1046D6002632455C738998A2A9ADA89E928378720A
:1046E6006C6B7179828D96989492939499A0A7A8F1
:1046F600A5A39F98928F88837A6C5E504743445057
:1047060061718397A6B5C1CCD1C8BAA07E5E412C93
:104716001D171B24344A63798C9AA1A7A59C908106
:10472600766E68666A727A838B8D898687888E999B
:10473600A1A6A6A6A39C9899969182827565554BCB
:104746005E747C71575889AEB3C8D4BD834B34426E
:104756006D9FD6F7F5D6B5A89B8B775731191B29D0
:104766003C6499BEBA9F87766B66676E7E959E8E11
:10477600755C575D5F6362615B56575664829FB88E
:10478600CFE0E2D9C39D847D7A7A7B8590988E723C
:10479600615C6A81949D9F947A5E483D383E4A5D8D
:1047A600748085827C7773767D96B4C5C5BEB5A6C2
:1047B60093826E5A56595C6066696D6F696C78882B
:1047C60093A1A7A4A09D9E9E998D837D736D747FF2
:1047D60080786A5745373647647A8B938E8B8E99E5
:1047E600A8B5BEC5C7BCA8988E8B877F797F808009
:1047F6007E72685E595C5C646F7D80766B626974FC
:104806007F8A929590867B7F00FF009000010300CF
:10481600401F340034002800F08000320032002FA0
:10482600002F00CDCCD4414D0C4D0C4D0C4D0C4DF4
:104836000CFFFFFFFF00E1000000000000B400C80D
:1048460000D200DC00B400C000F000D2001E001E42
:10485600002300280028002D00F6FF1E0034003338
:104866000036003C003400390032002F003200329E
:104876000037003C003200320032002F002F00309B
:10488600002F0032002F00320031002D00030002FD
:1048960000020003000200030002000100FF00FF07
:1048A60000FF002000FF00FF00FF00FF00900060F7
:1048B6000040009000A000C00020000000000000A2
:1048C60000940C940C940C680164016101000000D2
:1048D60000D8031B042201680164011F018C01003A
:1048E600000000120C9E0D4E0C280C330C520C705E
:1048F6000C000000008F145214B91426144A143602
:1049060014271400C18081000000564D4450565FA4
:10491600317C315F564D4450560D0A00564D445079
:10492600455F003A323A007C005F564D44504500E0
:00000001FF
