:100000000C9473000C94C3060C949C060C949B00F7
:100010000C949B000C949B000C949B000C949B00F4
:100020000C949B000C949B000C949B000C941E0E53
:100030000C949B000C949B000C949B000C949B00D4
:100040000C9452060C949B000C9420050C94FA041A
:100050000C949B000C949B000C949B000C949B00B4
:100060000C94EA060C949B00C70F051017106F1034
:1000700084108F10A310AE10B910C410CF1000FF61
:100080001A1A80CC0000FFB300000000000024001A
:1000900027002A0000000000250028002B00000097
:1000A0000008000201000003040700000000000037
:1000B0000000010204081020408001020408102002
:1000C000010204081020000000002300260029007F
:1000D00004040404040404040202020202020303EE
:1000E00003030303BD1911241FBECFEFD8E0DEBF09
:1000F000CDBF14E0A0E0B1E0E0EAFFE302C005906C
:100100000D92A230B107D9F726E0A2E0B4E001C019
:100110001D92A83AB207E1F710E0C3E7D0E004C0AF
:100120002197FE010E947B1EC237D107C9F70E94AA
:1001300000110C94CE1F0C94000080E991E008950A
:100140003A9A08954F925F926F927F928F92AF92F8
:10015000BF92CF92EF92FF920F931F93CF93DF93B3
:100160003C01EB010E94E705F30127853089621B02
:10017000730B6A307105B0F3F894E881F98158B1D6
:10018000546088B18B7F88B96A859F81262F291B8F
:10019000922F2F83BF844A805B807D85FC84EE8410
:1001A0007F5FF394E3943E814885A984CB841181D9
:1001B000D20120E0C32F022F322F318111278894E2
:1001C0003111390F08F43FEF9195889470FD130FAA
:1001D0001795889471FD130F1795889472FD130F6E
:1001E0001795889473FD130F1795889474FD130F5A
:1001F0001795889475FD130F1795889476FD130F46
:100200001795889477FD130F17958894232F7111F4
:10021000212F960F122F002C58B900C017FF88B954
:1002200030812227889400C000C0002C88B9311189
:100230003C0F00C0002C58B900C016FF88B908F464
:100240003FEFC195889400C000C0002C88B9F0FC35
:10025000230F00C0002C58B900C015FF88B927959E
:100260008894F1FC230F00C000C0002C88B92795AA
:10027000889400C0002C58B900C014FF88B9F2FC63
:10028000230F2795889400C000C0002C88B9F3FC88
:10029000230F00C0002C58B900C013FF88B9279560
:1002A0008894F4FC230F00C000C0002C88B9279567
:1002B000889400C0002C58B900C012FF88B9F5FC22
:1002C000230F2795889400C000C0002C88B9F6FC45
:1002D000230F00C0002C58B900C011FF88B9279522
:1002E0008894F7FC230F00C000C0002C88B9279524
:1002F000889400C0002C58B900C010FF88B9132F93
:10030000F110122FCA0D00C000C0002C88B900C027
:1003100000C0002C58B900C017FF88B932812227CD
:10032000889400C000C0002C88B93111340F00C07F
:10033000002C58B900C016FF88B908F43FEFEB0D48
:10034000F11D00C000C0002C88B9E0FC230F00C0E4
:10035000002C58B900C015FF88B927958894E1FC96
:10036000230F00C000C0002C88B92795889400C0D6
:10037000002C58B900C014FF88B9E2FC230F279560
:10038000889400C000C0002C88B9E3FC230F00C093
:10039000002C58B900C013FF88B927958894E4FC55
:1003A000230F00C000C0002C88B92795889400C096
:1003B000002C58B900C012FF88B9E5FC230F27951F
:1003C000889400C000C0002C88B9E6FC230F00C050
:1003D000002C58B900C011FF88B927958894E7FC14
:1003E000230F00C000C0002C88B92795889400C056
:1003F000002C58B900C010FF88B9132FE110122F3C
:10040000419500C000C0002C88B94C0D00C000C050
:1004100058B900C017FF88B931812227889400C0DD
:1004200000C0002C88B93111390F00C0002C58B918
:1004300000C016FF88B908F43FEF9195889400C07A
:1004400000C0002C88B970FD230F00C0002C58B9E3
:1004500000C015FF88B92795889471FD230F00C04F
:1004600000C0002C88B92795889400C0002C58B98A
:1004700000C014FF88B972FD230F2795889400C02F
:1004800000C0002C88B973FD230F00C0002C58B9A0
:1004900000C013FF88B92795889474FD230F00C00E
:1004A00000C0002C88B92795889400C0002C58B94A
:1004B00000C012FF88B975FD230F2795889400C0EE
:1004C00000C0002C88B976FD230F00C0002C58B95D
:1004D00000C011FF88B92795889477FD230F00C0CD
:1004E00000C0002C88B92795889400C0002C58B90A
:1004F00000C010FF88B9132F7111122F960F00C082
:1005000000C0002C88B9119709F086CE20EE31E0AA
:10051000D2010E94811EDC01CB01F4E0B695A795C3
:1005200097958795FA95D1F720E030E0A9016AE91F
:10053000469E040C411D569E400D511D1124450D33
:10054000511D840F951FA11DB11D893E43E09407E5
:10055000A105B10508F434C0885E9340A109B10932
:1005600042E0B695A795979587954A95D1F747E0CC
:10057000849F080E211D949F200D311D1124290FE9
:10058000311D6091620470E0860F971F820F931FE8
:100590004091830450918404609185047091860495
:1005A000292F3327420F531F611D711D4093830470
:1005B000509384046093850470938604809362044E
:1005C00078940E94E705F301708B6787DF91CF91E4
:1005D0001F910F91FF90EF90CF90BF90AF908F90B1
:1005E0007F906F905F904F9008950F931F93CF93DC
:1005F000DF93CDB7DEB762970FB6F894DEBF0FBEBC
:10060000CDBF8C01F901DC011C968C917A83698342
:100610005C834B835E834D8390819D8791819E8710
:1006200092819F87813029F4CE0101960E9415089E
:1006300006C01C861B861A86198618861F8283E0D0
:10064000888B1A8A198AD801ED91FC910484F5856A
:10065000E02DBE016F5F7F4FC801099562960FB60E
:10066000F894DEBF0FBECDBFDF91CF911F910F91E8
:1006700008950F931F93CF93DF93CDB7DEB76297A3
:100680000FB6F894DEBF0FBECDBF8C01F901DC01BF
:100690001C968C917A8369835C834B835E834D8344
:1006A00090819D8791819E8792819F87813029F4D7
:1006B000CE0101960E94150806C01C861B861A866C
:1006C000198618861F82188A1A8A198AD801ED910C
:1006D000FC910484F585E02DBE016F5F7F4FC8015A
:1006E000099562960FB6F894DEBF0FBECDBFDF91BD
:1006F000CF911F910F910895FC01538D448D252FAB
:1007000030E0842F90E0821B930B541710F0CF96AB
:10071000089501970895FC01918D828D981761F0DD
:10072000828DDF01A80FB11D5D968C91928D9F5F28
:100730009F73928F90E008958FEF9FEF0895FC01D3
:10074000918D828D981731F0828DE80FF11D858D86
:1007500090E008958FEF9FEF0895FC01918D228D19
:10076000892F90E0805C9F4F821B91098F7399279E
:10077000089581E295E00E94AD0321E0892B09F400
:1007800020E0822F0895FC01848DDF01A80FB11DA8
:10079000A35ABF4F2C91848D90E001968F739927B7
:1007A000848FA689B7892C93A089B1898C918064A4
:1007B0008C93938D848D981306C00288F389E02D65
:1007C00080818F7D80830895EF92FF920F931F9316
:1007D000CF93DF93EC0181E0888F9B8D8C8D9813F4
:1007E00005C0E889F989808185FD24C0F62E0B8D2E
:1007F00010E00F5F1F4F0F731127E02E8C8DE81252
:100800000CC00FB607FCFACFE889F989808185FF13
:10081000F5CFCE010E94C303F1CF8B8DFE01E80F0F
:10082000F11DE35AFF4FF0820B8FEA89FB8980812B
:10083000806207C0EE89FF896083E889F989808139
:100840008064808381E090E0DF91CF911F910F91D0
:10085000FF90EF900895CF93DF93EC01888D88236C
:10086000C9F0EA89FB89808185FD05C0A889B9891D
:100870008C9186FD0FC00FB607FCF5CF808185FFF8
:10088000F2CFA889B9898C9185FFEDCFCE010E9466
:10089000C303E7CFDF91CF91089580E090E0892BEB
:1008A00029F00E94B90381110C9400000895089565
:1008B00085ED8093BC008091BC0084FDFCCF10923C
:1008C000FA0408950895E091030480910204E81762
:1008D00030F4F0E0ED59FB4F808190E008958FEF08
:1008E0009FEF08959091030480910204981750F4AB
:1008F000E92FF0E0ED59FB4F208130E09F5F9093AE
:10090000030402C02FEF3FEFC90108958091020454
:1009100090E020910304821B91090895CF92DF9209
:10092000EF92FF920F931F93CF93DF937C018A0185
:100930008091FB04882389F0EB016B01C40ED51E66
:10094000CC15DD05F1F06991D701ED91FC91019095
:10095000F081E02DC7010995F3CF842F413288F44F
:100960009091FA04943069F44093AA04FB0128E8BA
:1009700034E0D9019A2F921B981718F491919D9306
:10098000F9CFC801DF91CF911F910F91FF90EF90A8
:10099000DF90CF9008952091FB042223C9F020918D
:1009A0001E05203240F021E030E0FC013383228339
:1009B00080E090E008958091FC04E82FF0E0E3509F
:1009C000FB4F60838F5F8093FC0480931E0509C0FA
:1009D0008091FA04843029F481E08093AA04609322
:1009E000880481E090E00895089580E090E0089503
:1009F0000E94C91F1F920F920FB60F9211242F93BE
:100A00003F934F935F936F937F938F939F93AF9396
:100A1000BF93EF93FF9381E295E00E94C303FF91A0
:100A2000EF91BF91AF919F918F917F916F915F9166
:100A30004F913F912F910F900FBE0F901F901895DF
:100A40001F920F920FB60F9211242F938F939F93A3
:100A5000EF93FF93E0913105F09132058081E091B1
:100A60003705F091380582FD12C0908180913A05DA
:100A70008F5F8F7320913B05821751F0E0913A050B
:100A8000F0E0EF5DFA4F958F80933A0501C08081C9
:100A9000FF91EF919F918F912F910F900FBE0F902B
:100AA0001F901895833081F028F4813099F08230BE
:100AB000A1F008958730A9F08830B9F08430D1F4DE
:100AC000809180008F7D03C0809180008F7780931C
:100AD0008000089584B58F7702C084B58F7D84BD72
:100AE00008958091B0008F7703C08091B0008F7D12
:100AF0008093B00008951F93CF93DF93282F30E0A9
:100B0000F901E256FF4F8491F901EE54FF4FD49161
:100B1000F901E053FF4FC491CC23C9F0162F811186
:100B20000E945205EC2FF0E0EE0FFF1FEC56FF4F36
:100B3000A591B4918FB7F894111105C09C91ED2F38
:100B4000E095E92302C0EC91ED2BEC938FBFDF9190
:100B5000CF911F910895CF93DF9390E0FC01EE5465
:100B6000FF4F2491FC01E053FF4F8491882361F1F2
:100B700090E0880F991FFC01E657FF4FC591D49173
:100B8000FC01EC56FF4FA591B491611109C09FB7CC
:100B9000F8948881209582238883EC912E230BC0C2
:100BA000623061F49FB7F8943881822F8095832357
:100BB0008883EC912E2B2C939FBF06C08FB7F8949F
:100BC000E8812E2B28838FBFDF91CF9108953FB707
:100BD000F8948091D0049091D104A091D204B09166
:100BE000D30426B5A89B05C02F3F19F00196A11D7F
:100BF000B11D3FBFBA2FA92F982F8827820F911DB3
:100C0000A11DB11DBC01CD0142E0660F771F881FF9
:100C1000991F4A95D1F708958F929F92AF92BF92F4
:100C2000CF92DF92EF92FF926B017C010E94E70569
:100C30004B015C01C114D104E104F104F1F00E9404
:100C4000E705DC01CB0188199909AA09BB09883E8F
:100C50009340A105B10570F321E0C21AD108E10863
:100C6000F10888EE880E83E0981EA11CB11CC11407
:100C7000D104E104F10419F7DDCFFF90EF90DF908C
:100C8000CF90BF90AF909F908F9008952FB7F8941A
:100C9000609183047091840480918504909186040E
:100CA0002FBF08951F920F920FB60F9211242F930A
:100CB0003F938F939F93AF93BF93809183049091C1
:100CC0008404A0918504B09186043091CF0423E080
:100CD000230F2D3720F40196A11DB11D05C026E874
:100CE000230F0296A11DB11D2093CF04809383048E
:100CF00090938404A0938504B09386048091D004DB
:100D00009091D104A091D204B091D3040196A11D79
:100D1000B11D8093D0049093D104A093D204B093DA
:100D2000D304BF91AF919F918F913F912F910F90DD
:100D30000FBE0F901F9018951F920F920FB60F9233
:100D400011242F933F934F935F936F937F938F93D0
:100D50009F93AF93BF93EF93FF93E0911E01F091A8
:100D60001F010995FF91EF91BF91AF919F918F91D5
:100D70007F916F915F914F913F912F910F900FBE97
:100D80000F901F9018951F920F920FB60F9211247B
:100D90002F933F934F935F936F937F938F939F9383
:100DA000AF93BF93EF93FF93E0911C01F0911D016E
:100DB0000995FF91EF91BF91AF919F918F917F9195
:100DC0006F915F914F913F912F910F900FBE0F90B8
:100DD0001F9018951F920F920FB60F9211242F9308
:100DE0003F934F935F936F937F938F939F93AF93B3
:100DF000BF93EF93FF938091B900887F803609F409
:100E00009CC068F5883209F45BC090F4803109F425
:100E100054C038F4882309F4F3C0883009F44DC075
:100E2000F3C0883109F44CC0803209F45DC0ECC0D5
:100E3000803409F468C048F4803309F455C088331D
:100E400009F0E2C08093F804D5C0803509F44FC0A2
:100E5000883509F45DC0883409F0D6C0D3C088391C
:100E600009F4C4C0A8F4883709F467C038F4883698
:100E700009F463C0803709F460C0C6C0883809F43B
:100E8000B5C0803909F45FC0803809F0BDC05BC0CF
:100E9000803B09F483C038F4803A09F466C0883A8C
:100EA00009F47CC0B1C0803C09F4A4C0883C09F4BA
:100EB000A1C0883B09F487C0A7C08091D50410C0A9
:100EC0009091F7048091F604981770F5E091F7047B
:100ED00081E08E0F8093F704F0E0EA52FB4F8081AF
:100EE0008093BB0085EC83C08093F8048BC0E091B5
:100EF000F70481E08E0F8093F7048091BB00F0E04F
:100F0000EA52FB4F80839091F7048091F6046BC006
:100F1000E091F70481E08E0F8093F7048091BB008D
:100F2000F0E0EA52FB4F80838091F90481116AC09E
:100F300081E08093D40484EA5EC083E08093FA0465
:100F40001092CE04CFCF8091CE04803208F04EC0F4
:100F5000E091CE0481E08E0F8093CE048091BB009F
:100F6000F0E0E255FB4F8083BDCF8091CE0480320C
:100F700030F4E091CE04F0E0E255FB4F10820E9485
:100F800058046091CE0470E0E091AC04F091AD049F
:100F90008EEA94E009951092CE042CC084E08093F0
:100FA000FA041092AB041092AA04E091A804F09104
:100FB000A90409958091AA04811105C081E080935C
:100FC000AA0410928804E091AB0481E08E0F809314
:100FD000AB04F0E0E857FB4F80818093BB00909119
:100FE000AB048091AA04981708F47CCF85E880931D
:100FF000BC000AC085EC8093BC001092FA0404C0C7
:101000001092F8040E945804FF91EF91BF91AF91A4
:101010009F918F917F916F915F914F913F912F9110
:101020000F900FBE0F901F901895EF92FF920F93A5
:101030001F93CF93DF93EC01909187049F5F292F3B
:1010400027702093870490FF02C090E801C090E0D1
:1010500021FD9064247009F0906220E1290FFE01C7
:101060003C967E018FE0E80EF11C00E011E06191FA
:10107000662331F070E0C8010E94671E6F5F01C0F7
:1010800060E0DF0114976C93322F369F030E30E03F
:10109000311D1124CF010797311103C0EC011882D3
:1010A00003C03150EC013883662311F061506C931A
:1010B000EE15FF05E1F6DF91CF911F910F91FF90A3
:1010C000EF900895CF92DF92EF92FF920F931F93CC
:1010D000CF93DF936C017A018B01C0E0D0E0CE1595
:1010E000DF0589F0D8016D918D01D601ED91FC915C
:1010F0000190F081E02DC6010995892B11F47E0144
:1011000002C02196ECCFC701DF91CF911F910F91C3
:10111000FF90EF90DF90CF900895E1E2F5E0A08995
:10112000B18982E08C93A485B5851C92A685B7858C
:101130008FEC8C93108EA489B58986E08C93A2895C
:10114000B3898C9180618C93A289B3898C918860DA
:101150008C93A289B3898C9180688C930288F389DF
:10116000E02D80818F7D808308957F928F929F9262
:10117000AF92BF92CF92DF92EF92FF920F931F93A5
:10118000CF93DF93FC01EB017A01D901481759078E
:10119000C8F42C9111969C91119712968C911297EC
:1011A00038813C93398111963C9311973A8112967C
:1011B0003C931297288399838A839E2F8F2FFA015D
:1011C000E92EF82EC880D12C8C9190E08C199D09C5
:1011D0009695982F882797958795098110E0119605
:1011E000AC901197B12CA01AB10AB694BA2CAA24CB
:1011F000B794A7942A8130E01296CC91D0E0C21B1C
:10120000D30BD695DC2FCC27D795C795A7014E1BBE
:101210005F0B19F0742E452F03C07724739440E0C0
:10122000672D742F0E94671E4B01C501672D742F17
:101230000E94671E5B01CE01672D742F0E94671EFE
:10124000880C991CAA0CBB1C660F771FDC2CCC24C5
:10125000102F0027322F2227DF01AA0FBB1FAE0F4E
:10126000BF1FA05CB94FEE16FF0678F0ED01229784
:10127000D882219618833C93C80CD91C0A0D1B1DDB
:10128000260F371F31961396EECFDF91CF911F9126
:101290000F91FF90EF90DF90CF90BF90AF909F9015
:1012A0008F907F9008953F924F925F926F927F92BE
:1012B0008F929F92AF92BF92CF92DF92EF92FF9266
:1012C0000F931F93CF93DF9300D01F92CDB7DEB75C
:1012D000F82E8091150690911606A0911706B091F0
:1012E0001806892B8A2B8B2BE9F00E94E7050091C9
:1012F00098061091990620919A0630919B06DC0180
:10130000CB01801B910BA20BB30B00911506109122
:101310001606209117063091180680179107A2072C
:10132000B307B8F20E94E705609398067093990698
:1013300080939A0690939B06E0911D06F0911E06FD
:10134000309759F04091190650911A0660911B068A
:1013500070911C068F2D0995F82E00911F05109194
:1013600020054F2C512C612C712C0115110509F40D
:1013700061C0D8011C96EC901C9780911306909147
:1013800014068436910510F41C961C92D801ED9138
:10139000FC91A280B38019821A821B82F11014C0C2
:1013A000F80145855685628173819E012F5F3F4F0D
:1013B000C801F5010995D8011C96EC921C9714966A
:1013C0000D911C911597D1CFF8013996CE01019658
:1013D0006C0148019CE0890E911CDF0113973C9041
:1013E0002191332001F12223F1F0822F90E0A0E03F
:1013F000B0E09C01AD012F5F3F4F4F4F5F4FC301E6
:10140000B2010E947F1C9B01AC01832D90E0A0E003
:10141000B0E0BC01CD016F5F7F4F8F4F9F4F0E94A7
:101420007F1CD6018C93BFEFCB1ADB0AE815F905B8
:10143000A1F6B6CF80919606909197068C010F5F2A
:101440001F4F109397060093960649979CF10E94B0
:1014500046064B015C0188EE93E0089FB001099FAE
:10146000700D189F700D1124072E000C880B990B1E
:10147000C0909206D0909306E0909406F090950666
:10148000A50194012C193D094E095F090E948F1C8A
:101490003093140620931306109297061092960626
:1014A0000E9446066093920670939306809394067A
:1014B000909395060F900F900F90DF91CF911F9111
:1014C0000F91FF90EF90DF90CF90BF90AF909F90E3
:1014D0008F907F906F905F904F903F9008950F9303
:1014E0001F93CF93DF931F92CDB7DEB78C01698333
:1014F0000E94691C6981861729F0C8010E94711C2D
:1015000081E001C080E00F90DF91CF911F910F919A
:10151000089520911E0590911D05213208F046C0C6
:101520008091FA048111FCCF32E03093FA0431E06B
:101530003093F9043FEF3093F8041092F7042093AE
:10154000F604ADEFB4E046ED54E0FA013E2F341B53
:10155000321718F43D913193F9CF1092D5042091B0
:10156000D504990F922B9093D5049091D404913087
:1015700041F41092D4049091D5049093BB0095EC63
:1015800001C095EE9093BC009091FA049230E1F383
:101590009091F8049F3F79F08091F804803241F0F7
:1015A0008091F804803331F084E005C081E003C00D
:1015B00082E001C083E01092FC0410921E0510929C
:1015C000FB040895CF93C62F91E09093FB0498E617
:1015D00090931D051092FC0410921E05682F8EEB4F
:1015E00095E00E94CB046C2F8EEB95E00E94CB041B
:1015F0000E94890A81E0CF910895CF93DF93E6EAB4
:10160000F0E08491EAEBF0E0D491E8EDF0E0C491F1
:10161000CC2391F081110E945205EC2FF0E0EE0FE7
:10162000FF1FEA53FF4FA591B491EC91ED2381E0A8
:1016300090E021F480E002C080E090E0DF91CF9163
:10164000089520E0DC0160FF03C001C02D932D93BD
:101650006250E0F77040D0F708956115710579F098
:10166000FB0101900020E9F73197AF01461B570BB2
:10167000DC01ED91FC910280F381E02D099480E082
:1016800090E008954F925F926F927F92EF92FF9257
:101690000F931F93CF93DF93CDB7DEB7A1970FB60C
:1016A000F894DEBF0FBECDBF7C01FA01CB0119A2B9
:1016B000223008F42AE08E010F5D1F4F422E512C7C
:1016C000612C712CBF01A30192010E948F1CF901B2
:1016D000CA01015011096A3014F4605D01C0695CEF
:1016E000D8016C93232B242B252B61F7B801C7015C
:1016F0000E942D0BA1960FB6F894DEBF0FBECDBF92
:10170000DF91CF911F910F91FF90EF907F906F909D
:101710005F904F900895CF93DF93482F50E060E0A3
:1017200070E02AE081E295E00E94420BEC0166ED58
:1017300073E081E295E00E942D0B8C0F9D1FDF91DD
:10174000CF9108950F931F93CF93DF93EC010E94E5
:101750002D0B8C0166ED73E0CE010E942D0B800FE6
:10176000911FDF91CF911F910F910895FF920F93D9
:101770001F93CF93DF93DC01ED91FC91AF2F31E00C
:101780003F0F321301C030E0EF01DD278B010A0F5C
:10179000111DD801FC90DB01A30FB11D3C913C9FB2
:1017A00080013D9F100D1124A0E0B1E0AC1BBD0BEA
:1017B000FA9EB001FB9E700D1124600F711F4E0F39
:1017C0005F1F30E0322F22274217530710F0421BD1
:1017D000530BDC014D935C93872FDF91CF911F91C9
:1017E0000F91FF90089580E090E00895FC018585B9
:1017F00096850895CF93DF9300D000D000D0CDB769
:10180000DEB7AB011C821D821E82DC01ED91FC91D2
:101810000190F081E02D19821A821B829E012F5FB8
:101820003F4FBE016C5F7F4F099526960FB6F89427
:10183000DEBF0FBECDBFDF91CF9108952F923F92B3
:101840004F925F926F927F928F929F92AF92BF92D0
:10185000CF92DF92EF92FF920F931F93CF93DF937C
:1018600000D01F92CDB7DEB79B838A83DC01179629
:101870002C90179719963C9019971B96BC91B98399
:1018800080910804823009F079C0E0900404F0905F
:1018900005046EE676E043E050E080E090E002E090
:1018A00010E020E030E0AA81BB81ED91FC91D801ED
:1018B000A259B94F2E153F05D9F45F01A80EB91EE4
:1018C000FB019080F50190826D01F1E0CF1AD10803
:1018D000F601D080F501D182CC90C282AA81BB8171
:1018E000ED91FC91E40FF51F9082D182C28228C055
:1018F000CC90D12C4601689413F895948794169453
:10190000E1F71197AC91B0E05D01A4E0B594A79424
:10191000AA95E1F7E80FF91FDB01CC90D12CB4E0D8
:10192000D594C794BA95E1F7C082A1828282AA8138
:10193000BB81ED91FC91E40FF51F108211821282A0
:101940006C01B6E0CB0ED11CEA81FB81A081B18194
:10195000F601EA0FFB1F1082118212822F5F3F4FA8
:101960000D5F1F4F09966D5F7F4F475F5F4F2C30B4
:10197000310509F098CF04E210E002C000E010E069
:101980007801EE0CFF1CE00EF11E23E630E0D801DA
:101990000E94811E4B015C01412C512C3201AA8115
:1019A000BB8112962D913C911397021713070CF0EF
:1019B00059C021503109032E000C440B550BC301B3
:1019C000B201680D791D8A1D9B1D0E94B11CBA01D0
:1019D000A9014F5F5F4F6F4F7F4F80910904909136
:1019E0000A04092E000CAA0BBB0B481759076A07FB
:1019F0007B0724F565EF73E081E295E00E94A20B7E
:101A0000F98181E0F11105C0311003C0211001C03E
:101A100080E0AA81BB81ED91FC91EE0DFF1D10824B
:101A200011828283222099F089810E948B0B832D61
:101A30000E948B0B822D0E948B0B09C0AA81BB8157
:101A4000ED91FC91EE0DFF1D1082118212820F5F4D
:101A50001F4FB3E0EB0EF11CE3E64E0E511C611C70
:101A6000711C9DCF809112060F900F900F90DF9107
:101A7000CF911F910F91FF90EF90DF90CF90BF908B
:101A8000AF909F908F907F906F905F904F903F901E
:101A90002F900C9453091816190624F490933906C4
:101AA000809338061616170624F470933B0660934D
:101AB0003A061416150624F450933D0640933C064E
:101AC00081E396E00C941E0CDC01ED91FD91808188
:101AD000ED91FD919081ED91FD916C9163708E235C
:101AE00009F064609F2309F06860E1E8FDE0E60F1B
:101AF000F11D659565956D936D917D918D919D918C
:101B0000099423C01AC012C016C010C01EC009C05C
:101B100014C013C006C019C009C00DC007C00DC055
:101B200014C062507040804090400BC061507040C3
:101B30008040904006C06E5F01C06F5F7F4F8F4F47
:101B40009F4F9E938E937E936E930895809123066C
:101B5000909124060C94640D8091210690912206A8
:101B60000C94640D80910B0490910C04019709F082
:101B700040C083E090E090930C0480930B0460914C
:101B8000040482E090E00E946F0A60910D0183E0FE
:101B900090E00E946F0A6091160184E090E00E943C
:101BA0006F0A6091120185E090E00E946F0A6091D7
:101BB000090186E090E00E946F0A60910B0187E0C6
:101BC00090E00E946F0A60910E018CE090E00E940C
:101BD0006F0A609103018BE090E00E946F0A6AE255
:101BE00080E090E00E946F0A60E081E090E00C9459
:101BF0006F0A089580910B0490910C04892B31F4A5
:101C000082E090E090930C0480930B04089581E3AC
:101C100096E00C941E0CBC01990F880B990B0E9446
:101C20004C1B2AE939E949E15FE30E94AB1B0E94A2
:101C3000D81D862F609312060C9453091F920F92A1
:101C40000FB60F9211242F933F934F935F936F938F
:101C50007F938F939F93AF93BF93EF93FF934091A5
:101C60001401509115012DEC6AE272E080EA96E0D1
:101C70000E94B60B409110015091110125E865EAD0
:101C800071E08EE996E00E94B60B409107015091F9
:101C9000080125E860E271E08CE996E00E94B60B4D
:101CA000FF91EF91BF91AF919F918F917F916F9134
:101CB0005F914F913F912F910F900FBE0F901F900A
:101CC0001895CF92DF92EF92FF92CF93DF93EC01C2
:101CD000688179818A819B819B01AC010E94AB1B49
:101CE00020E030E0A9010E94F31C6B017C016C81B3
:101CF0007D818E819F819B01AC010E94AB1B9B016A
:101D0000AC01C701B6010E94F31C6B017C01688520
:101D100079858A859B859B01AC010E94AB1B9B0149
:101D2000AC01C701B6010E94F31CDF91CF91FF9077
:101D3000EF90DF90CF900C94121EAF92BF92CF9293
:101D4000DF92EF92FF920F931F93CF93DF9300D018
:101D500000D000D0CDB7DEB78B01EE24E394E09243
:101D6000FB0478E6F72EF0921D051092FC04109209
:101D70001E05682F8EEB95E00E94CB040E94890A15
:101D8000E092FB04F0921D051092FC0410921E05D7
:101D90008091FA048111FCCF81E08093FA04809352
:101DA000F9049FEF9093F8041092F70495E0909354
:101DB000F6048093D5048091D504806D8093D5047A
:101DC0008091D404813041F41092D4048091D504E0
:101DD0008093BB0085EC01C085EE8093BC008091B0
:101DE000FA048130E1F38091F704863018F4F09022
:101DF000F70402C066E0F62EA6EDB4E023E634E078
:101E0000F9018E2F821B8F1518F48D918193F9CFD4
:101E100010920304F092020486E08F1580F0FE0118
:101E200031965F016F018C2D8A198F1588F48EEB26
:101E300095E00E947204F60181936F01F4CF56E0A1
:101E4000E52E8EEB95E00E947204EA94E110F9CF42
:101E50000E94890AF6E0FF1611F080E01AC089811D
:101E600090E0982F88272A81822BF8019183808324
:101E70008B8190E0982F88272C81822B93838283FB
:101E80008D8190E0982F88272E81822B95838483E3
:101E900081E026960FB6F894DEBF0FBECDBFDF916E
:101EA000CF911F910F91FF90EF90DF90CF90BF9057
:101EB000AF900895161617063CF4281B390B6217CD
:101EC00073077CF49B010DC06115710541F0481B3F
:101ED000590B9B016417750724F49A0102C020E096
:101EE00030E0820F931F0895CF93DF9380913006E7
:101EF000823030F4F89485E296E00E94640D01C0CF
:101F0000F89480912C0690912D06A0912E06B09108
:101F10002F0678949C0197FF02C02D5F3F4F3595A7
:101F20002795359527952115310509F466C16CEF84
:101F30006203A001639F500D1124F894840F951F34
:101F4000092E000CAA0BBB0B80932C0690932D0638
:101F5000A0932E06B0932F067894CC27DD27C21BC2
:101F6000D30B80910804813009F429C120F082301C
:101F700009F428C13EC1E0910404F0910504EB305E
:101F8000F10508F036C1EC5CFF4F0C947B1E28E095
:101F900030E041E050E0BE018091030190910401E6
:101FA0000E945A0F909304018093030120910B0427
:101FB00030910C0422303105D9F03CF42115310563
:101FC00059F02130310579F014C12330310521F069
:101FD0002430310599F00DC11C161D060CF009C105
:101FE0000E94FA0D06C1D7FF04C10E94B20D01C1C3
:101FF000D7FFFFC0019709F0FCC0F7CFD7FFF9C0AA
:1020000010920C0410920B04F4C0BE0144E0660F61
:10201000771F4A95E1F780910D012FEF30E040E006
:1020200050E090E00E945A0F80930D01E2C027E03B
:1020300030E040E050E0BE018091A2069091A306FE
:102040000E945A0F9093A3068093A206880F991FAF
:10205000FC01E954FC4F40815181FC01E955FC4FE2
:10206000608171818FEF9FEF0E944B0D8091A206DE
:102070009091A306880F991FFC01E956FC4F20811F
:1020800031813093040120930301FC01E957FC4F97
:10209000208131813093170120931601FC01E9580A
:1020A000FC4F208131813093130120931201FC01F8
:1020B000E959FC4F2081318130930A0120930901B5
:1020C000FC01E95AFC4F2081318130930C012093AF
:1020D0000B01FC01E95BFC4F808191816BC0BE016B
:1020E00093E0660F771F9A95E1F72FEF30E047E016
:1020F00050E080913806909139060E945A0F4FEFB8
:102100005FEF6FEF7FEF73C080913C0690913D06CB
:10211000480F591F50933D0640933C0664C0BE01D2
:1021200083E0660F771F8A95E1F72FEF30E040E0FC
:1021300050E080913A0690913B060E945A0F4FEF73
:102140005FEFBC0152C08091160190911701821B74
:10215000930B90931701809316014BC0809112014D
:1021600090911301821B930B9093130180931201A2
:1021700040C08091090190910A01821B930B9093BA
:102180000A018093090135C080910B0190910C01E7
:10219000821B930B90930C0180930B012AC02FEFAD
:1021A00030E040E050E0BE0180910E0190910F01BF
:1021B0000E945A0F90930F0180930E011AC082E083
:1021C000809308042BE030E040E050E0BE018091B5
:1021D0000404909105040E945A0F90930504809383
:1021E00004044FEF5FEF6FEF7FEF8FEF9FEF0E94E1
:1021F0004B0D1092070410920604DF91CF910895C1
:10220000CF93DF93CDB7DEB763970FB6F894DEBFF9
:102210000FBECDBF789484B5826084BD84B58160E3
:1022200084BD85B5826085BD85B5816085BD8091A1
:102230006E00816080936E00109281008091810019
:102240008260809381008091810081608093810011
:10225000809180008160809380008091B1008460D3
:102260008093B1008091B00081608093B000809134
:102270007A00846080937A0080917A0082608093F3
:102280007A0080917A00816080937A0080917A0050
:10229000806880937A001092C10010920E0610920E
:1022A0000F0610921006109211061092CC05109293
:1022B000CD051092CE051092CF050E9446066B0107
:1022C0007C014B015C0128EB820E2BE0921EA11CCD
:1022D000B11C0E9446066C157D058E059F0528F0F1
:1022E00086169706A806B906A0F781E295E09093B6
:1022F0000D0680930C060E948D080E94460660938E
:10230000CC057093CD058093CE059093CF0567ECF7
:1023100073E080910C0690910D060E942D0B0E9497
:1023200046066B017C014B015C013AE0830E911C77
:10233000A11CB11C0E9446066C157D058E059F05EB
:1023400028F086169706A806B906A0F781E08093C4
:10235000E005409100015091010185E098E0489F1F
:102360009001499F300D589F300D1124275E394C44
:102370003093010120930001A9E3B0E30E94E31C24
:1023800090932904809328040E948D088EE190E0A8
:1023900090933406809333068AE590E00E949C1E59
:1023A00090933206809331068FEF90E09093390638
:1023B0008093380690933D0680933C0690933B06AD
:1023C00080933A0680E1809337068EE790E0E12C17
:1023D000F12CFC014591559165917491AFEFEA1A8A
:1023E000FA0A04964F3FA9F7EEE7F0E08590959042
:1023F000A590B4909B2D5A2DA92D0FEFA12CB12C97
:102400008EE7C82E80E0D82EB4E0CB0ED11CF601AA
:1024100045905590659074909501B4E03595279559
:10242000BA95E1F7822FA42CB12C442D42954F7020
:10243000E0E1EE16F10478F4602F002E000C770B2B
:10244000621773073CF00F302CF481E0800F4817BF
:1024500008F4482F042F5D866E867F86A9835A83F1
:102460009B8350E09E01235F3F4FBE016F5F7F4F14
:1024700090E00E94B508A52D562D972DFFEFAF16C1
:10248000B10409F0C1CFE0903306F0903406C0905B
:102490003106D090320680912004811145C01092FF
:1024A0001204109211048FEF809315048093160488
:1024B00080931704809318048093190480931A045E
:1024C00081E080931B0410921D0410921C04109252
:1024D00014041092130480911F0590912005892BFC
:1024E00031F48FE094E09093200580931F05E091F4
:1024F0000D04F0910E04309721F08FE094E0958365
:1025000084838FE094E090930E0480930D041092E6
:102510001F0410921E0485E193E0909310048093B1
:102520000F0481E080932004E0910F04F0911004E7
:102530000480F581E02D8FE094E00995D09212049B
:10254000C0921104F0921D04E0921C04E0910F046B
:10255000F09110040284F385E02D8FE094E009955A
:10256000009711F19C0140E050E060E472E48FE0DC
:1025700090E00E94B11CC0901506D0901606E09025
:102580001706F0901806C901DA018C159D05AE05F5
:10259000BF0510F4D701C601809315069093160667
:1025A000A0931706B093180681EE90E00E940B0EE0
:1025B000E0911F05F0912005309729F014860480E2
:1025C000F581E02DF9CF10920A04109209040E94BF
:1025D000070EE0901F05F0902005E114F104B1F022
:1025E000D70112968D919C911397009759F01D96E3
:1025F0006D917C911E979B01220F331F620F731FF9
:102600000E94210BF701E480F580E7CF10920304CC
:10261000109202041092FC0410921E051092FA040B
:1026200081E08093F9041092D40461E082E10E9479
:102630007B0561E083E10E947B058091B9008E7F7C
:102640008093B9008091B9008D7F8093B90088E4B0
:102650008093B80085E48093BC0060E870E08BE66E
:1026600090E00E94E20A62E370E080E090E00E9465
:102670000C0661E070E089E190E00E94E20A63E00C
:1026800070E08BE690E00E94E20A6EE170E080E08C
:1026900090E00E940C0668E170E08BE190E00E94FF
:1026A000E20A6EE170E080E090E00E940C0668EEC5
:1026B00070E08CE190E00E94E20A64E170E080E06A
:1026C00090E00E940C0680E090E00E94691C8A3233
:1026D00039F481E090E00E94691C882309F4FEC56A
:1026E00062E088E00E94AB0562E08FE00E94AB05EB
:1026F00062E080E10E94AB0561E08EE00E94AB05E4
:1027000060E08EE00E947B0561E086E00E94AB0500
:1027100060E086E00E947B0580913006823030F4D4
:10272000F89485E296E00E94640D01C0F8947894D4
:10273000F89410922C0610922D0610922E061092EC
:102740002F0678940E94FD0A809302010E94070ED2
:1027500069ED73E081E295E00E94A20B0E94FA0D00
:10276000F4E68F2E912C0E944606672B682B692B6E
:1027700041F40E944606623071058105910508F416
:1027800016C10E94460660935E0470935F048093B6
:10279000600490936104C0905A04D0905B04E09070
:1027A0005C04F0905D046C157D058E059F0540F47A
:1027B00060935A0470935B0480935C0490935D046F
:1027C000C0905A04D0905B04E0905C04F0905D04EB
:1027D0009B01AC012C193D094E095F0969017A0181
:1027E0003AEFC316D104E104F10408F4E0C06093A9
:1027F0005A0470935B0480935C0490935D0484EFAF
:1028000091E0A0E0B0E08093D8059093D905A09323
:10281000DA05B093DB051092DC051092DD0510920D
:10282000DE051092DF058091D0059091D105A09131
:10283000D205B091D3058093D4059093D505A0938C
:10284000D605B093D7050E9446066093D0057093D5
:10285000D1058093D2059093D3050E9446066093DC
:10286000CC057093CD058093CE059093CF050E9443
:1028700046066B017C0161EE73E080910C0690913D
:102880000D060E942D0B2AE041E050E060E070E070
:1028900080910C0690910D060E94420B68EE73E049
:1028A00080910C0690910D060E942D0B2AE0B70135
:1028B000A60180910C0690910D060E94420B6AEED3
:1028C00073E080910C0690910D060E942D0B809173
:1028D000D0059091D105A091D205B091D305B70153
:1028E000A601481B590B6A0B7B0B2AE080910C0652
:1028F00090910D060E94420B6AEE73E080910C06E7
:1029000090910D060E942D0B4091D0055091D1055C
:102910006091D2057091D3058091D4059091D50531
:10292000A091D605B091D705481B590B6A0B7B0BBC
:102930002AE080910C0690910D060E94420B6CEEED
:1029400073E080910C0690910D060E942D0B0E9461
:102950004606AB01BC012AE080910C0690910D0661
:102960000E94420B6EEE73E080910C0690910D0672
:102970000E94A20B0E9446062B013C016B017C01C8
:1029800092E0C90ED11CE11CF11C0E9446066415A0
:1029900075058605970508F0E9C40E944606609310
:1029A000D0057093D1058093D2059093D305809183
:1029B000580490915904A1E08A2790935904809378
:1029C000580480FF7FC062E574E083E40E949D0E9E
:1029D0006091520470915304262F2F70809132041D
:1029E00090913304880F991F82279093330480932A
:1029F0003204072E000C880B990B0E944C1B698334
:102A00007A838B839C836091560470915704072EC0
:102A1000000C880B990B0E944C1B6D837E838F8367
:102A2000988719861A861B861C86CE0101960E94FD
:102A3000610E6B017C0140904E0450904F046090F9
:102A40005004709051049B01AC01C301B2010E947B
:102A5000F21C20E030E046E953E40E945F1D9B0138
:102A6000AC01C301B2010E94F21C9B01AC01609356
:102A70004E0470934F048093500490935104C70107
:102A8000B6010E94F21C20E030E048E452E40E94CB
:102A90005F1D20914A0430914B0440914C045091A9
:102AA0004D040E94F31C20E030E040E05FE30E9410
:102AB000AB1B60934A0470934B0480934C04909337
:102AC0004D04E2C064E474E08BE30E949D0EE0904C
:102AD0004404F09045042E2D2F7080913204909183
:102AE0003304880F991F8227909333048093320414
:102AF0006091460470914704072E000C880B990BD7
:102B00000E944C1B20913C0430913D0440913E04B6
:102B100050913F040E94F31C5B016C0160914804DA
:102B200070914904072E000C880B990B0E944C1BD6
:102B3000209140043091410440914204509143045B
:102B40000E94F31C2B013C01B701FF0C880B990B71
:102B50000E944C1B209138043091390440913A0472
:102B600050913B040E94F31C24EA30E74DE75FE3F9
:102B70000E94AB1B609338047093390480933A042D
:102B800090933B0424EA30E74DE75FE3C601B501CB
:102B90000E94AB1B60933C0470933D0480933E0401
:102BA00090933F0424EA30E74DE75FE3C301B201AD
:102BB0000E94AB1B609340047093410480934204D5
:102BC0009093430488E394E00E94610E20E030E497
:102BD0004CE156E40E945F1D6B017C01409018019E
:102BE0005090190160901A0170901B019B01AC017B
:102BF000C301B2010E94F21C20E030E040E251E447
:102C00000E945F1D9B01AC01C301B2010E94F21C36
:102C1000609318017093190180931A0190931B011E
:102C2000A70196010E94F21C6B017C0120E030E0BC
:102C3000A9010E94071E181624F0F7FAF094F7F87D
:102C4000F094C701B6010E94121E6B017C0120E0C6
:102C500030E040E85FE30E94071E18164CF0C09277
:102C60003404D0923504E0923604F09237040CC05C
:102C700080E090E0A0E8BFE38093340490933504B3
:102C8000A0933604B09337040E94FD0A909102018C
:102C9000891791F190912A049F5F90932A049330B1
:102CA00028F080930201813031F410C0113019F006
:102CB000123061F022C081E080930804E8ECF0E07B
:102CC000F0930704E093060411E03CC080910804EF
:102CD000813041F480910B0490910C04892B11F404
:102CE0000E94FA0D109208040E94070E1092070429
:102CF0001092060412E026C010E080910604909124
:102D0000070418161906F4F40197909307048093AA
:102D10000604892BB9F480910B0490910C04833044
:102D2000910534F48130910544F4892B19F007C0E2
:102D3000039729F40E94FA0D02C00E94B20DF4E03C
:102D4000F09308040E94740F809132049091330430
:102D5000837099272091160130911701820F931FDC
:102D600090931501809314018091120190911301A9
:102D700090931101809310010E94371B27E730E0E8
:102D800040E050E00E94B11C6F5F7F4F8F4F9F4F1C
:102D90000E944C1B60934A0470934B0480934C0434
:102DA00090934D040E94371B23E630E040E050E052
:102DB0000E94B11C6F5F7F4F8F4F9F4F0E944C1B33
:102DC00020E030E048EC52E40E945F1D6093340440
:102DD0007093350480933604909337040E94740FE7
:102DE00080910B0490910C048130910571F11CF4D9
:102DF000892B49F070C28230910509F4C5C103974F
:102E000009F413C268C21092310410923004109277
:102E10002F0410922B0410922C0410922D04109267
:102E20002E0420E030E048EC52E460914A047091B6
:102E30004B0480914C0490914D040E94071E18167B
:102E40000CF049C20E94FA0D46C2D0904A04E090AC
:102E50004B04F0904C0400914D0420E030E0A901B7
:102E60006D2D7E2D8F2D902F0E94451B87FD13C049
:102E700020E030E04CE053E46D2D7E2D8F2D902F1F
:102E80000E94071E181684F4712CA12C50EFB52E49
:102E900062E4C62E0CC09DEC792E2CECA22E3CECEC
:102EA000B32E4DE3C42E03C07D2C5701C02E2090BD
:102EB0002B0430902C0440902D0450902E04A2013D
:102EC0009101672D7A2D8B2D9C2D0E94071E1816BF
:102ED0006CF4872D9A2DAB2DBC2D80932B049093F1
:102EE0002C04A0932D04B0932E043DC060910E01DC
:102EF00070910F01072E000C880B990B0E944C1B40
:102F000020E030E040E256E40E945F1D2AE939E902
:102F100049E75FE30E94F31C9B01AC01C201B101D0
:102F20000E94AB1B60932B0470932C0480932D04A0
:102F300090932E042DEC3CEC4CEC5FE30E945F1D63
:102F4000362E472E582E692E262F372F482F592FD1
:102F5000672D7A2D8B2D9C2D0E94071E18161CF0B4
:102F6000732C5201C62C20E030E040E85BE3672D73
:102F70007A2D8B2D9C2D0E94AB1B2B013C01C09008
:102F80000D016C2D70E080E090E00E944C1B9B01D5
:102F9000AC01C301B2010E94AB1B2B013C01A0900C
:102FA0002F04B12CB5010B2C000C880B990B0E943F
:102FB0004C1B688B798B8A8B9B8B9B01AC01C3016B
:102FC000B2010E94071E18166CF0288939894A89B7
:102FD0005B89C301B2010E94451B87FF06C068EFF1
:102FE0007FEF05C060E170E002C060E070E02FEFAD
:102FF00030E040E050E0C5010E945A0F5C01809330
:103000002F0460910B0170910C01072E000C880BAE
:10301000990B0E944C1B9B01AC016D2D7E2D8F2DB9
:10302000902F0E945F1D2B013C0160911201709155
:103030001301072E000C880B990B0E944C1BA30157
:1030400092010E94F31C0E94D11D709311016093A4
:1030500010016091090170910A01072E000C880B84
:10306000990B0E944C1BA30192010E94F31C0E9429
:10307000D11D709308016093070140903404509073
:103080003504609036047090370420E030E040E86A
:103090005FE3C301B2010E94071E181634F4412CED
:1030A000512C80E8682E8FE3782E20E030E040E05D
:1030B00052E4C301B2010E94AB1B0E94D11D685FA4
:1030C0006C9DB00111247093310420E030E040E2A7
:1030D00052E4C301B2010E94AB1B0E94D11D645F88
:1030E0006C9D60011124BB248D2D90E08A159B05F9
:1030F00008F4C5018093300420E030E040E752E45A
:10310000C301B2010E94AB1B20E030E041E653E472
:103110000E94F31C20E030E040EF51E40E94F21CDA
:103120000E94D11DCB010E940B0E2DEC3CEC4CEC0F
:103130005EE360913404709135048091360490917F
:1031400037040E94451B87FF69C020E030E040E261
:1031500051E460914A0470914B0480914C04909129
:103160004D040E94451B87FF59C080910501909135
:103170000601009719F40E94B20DADC0019790931B
:10318000060180930501A7C02091090430910A042B
:10319000243631058CF58091030190910401820F52
:1031A000931F853691052CF490930A0480930904AB
:1031B00004C090920A04809209040E94070E809134
:1031C0000D0148E2849F90011124309331045CE8A2
:1031D000859F900111243093300468E7869FC001D9
:1031E000112490932F048091090490910A04D40132
:1031F000A81BB90BCD0156C0E1E0F0E0F0930C0440
:10320000E0930B0480E090E0A8ECB2E480934A04E1
:1032100090934B04A0934C04B0934D0420E43FE101
:10322000309306012093050156C0809109049091C6
:103230000A04181619060CF04AC0019790930A0464
:10324000809309040E94070E2091090430910A041A
:1032500040910D01429FC001439F900D1124B40184
:103260000E94671E8091310490E0462F86179707D1
:103270000CF4482F409331048091300490E0462FA5
:10328000861797070CF4482F4093300480912F0441
:1032900090E0861797070CF4BC0160932F04C401DB
:1032A000821B930B2091120130911301280F391FBB
:1032B00030931101209310012091090130910A01EE
:1032C000820F931F909308018093070104C010920E
:1032D0000C0410920B040E944D0445CA82E090E059
:1032E0000E94691C90E0909305048093040483E09D
:1032F00090E00E94691C80930D0184E090E00E94A0
:10330000691C90E0909317018093160185E090E08E
:103310000E94691C90E0909313018093120186E053
:1033200090E00E94691C90E090930A01809309014B
:1033300087E090E00E94691C90E08058910990938A
:103340000C0180930B018CE090E00E94691C90E0DE
:1033500090930F0180930E018BE090E00E94691C16
:1033600090E09093040180930301BAC9C616D70672
:10337000E806F90608F009CB10CBCF93DF93109243
:1033800024051092230588EE93E0A0E0B0E080933E
:10339000250590932605A0932705B093280527E2DD
:1033A00033E0309322052093210525EC30E0309363
:1033B0002E0520932D0524EC30E03093300520932A
:1033C0002F0520EC30E0309332052093310521ECBD
:1033D00030E0309334052093330522EC30E0309315
:1033E00036052093350526EC30E0309338052093E0
:1033F000370510923A0510923B0510923C05109249
:103400003D051092C1051092C0058093C2059093AE
:10341000C305A093C405B093C50589E393E09093D9
:10342000BF058093BE051092D0051092D105109271
:10343000D2051092D3051092D4051092D5051092A2
:10344000D6051092D7051092D8051092D905109282
:10345000DA051092DB051092DC051092DD05109262
:10346000DE051092DF058FEF80931206109214068E
:103470001092130610921E0610921D064FEF5FEF7A
:10348000BA014093190650931A0660931B06709375
:103490001C0624E630E03093200620931F0680931C
:1034A0006E0680936F0680937006809371068093FA
:1034B00072068093730690E89093740610927506D6
:1034C000909376061092770690937806109279067C
:1034D00010927A0610927B0680937C0610927D06ED
:1034E00010927E0680937F068093800680938106EB
:1034F000109282068093830695EA90938406109238
:10350000850680938606909387061092880680939E
:10351000890610928A0610928B0680938C06109270
:103520008D0610928E0610928F06109290061092C1
:103530009106109232061092310662E08FE00E94EE
:10354000AB0562E080E10E94AB05EFEDF0E0E491B5
:10355000F0E0EE0FFF1FEA53FF4FA591B491B09337
:103560002606A0932506E1ECF0E0849180932906DD
:10357000E0EEF0E0E491F0E0EE0FFF1FEA53FF4FC2
:10358000C591D491D0932806C0932706E2ECF0E0D1
:10359000E491E0932A0610922C0610922D061092C8
:1035A0002E0610922F06EBE3FFE13197F1F7EC9135
:1035B000E82381E009F480E0288190912A06922393
:1035C00009F0826080932B0610923006DF91CF9134
:1035D00008958F929F92AF92BF92CF92DF92EF9217
:1035E000FF92CF93DF93EC01688179818A819B817F
:1035F000611571058105910521F464E279ED8BE592
:1036000097E02DE133EF41E050E00E94B11C490109
:103610005A019B01AC01A7EAB1E40E94D01C6B01E6
:103620007C01ACEEB4EFA50194010E94DE1CDC012C
:10363000CB018C0D9D1DAE1DBF1DB7FF03C00197B3
:10364000A109B04888839983AA83BB83BC01CD01BB
:103650009F77DF91CF91FF90EF90DF90CF90BF9059
:10366000AF909F908F9008950E94E91A089587EF78
:1036700092E00E94E91A08956093F7027093F802AD
:103680008093F9029093FA0208950E94871B08F430
:1036900081E00895E89409C097FB3EF490958095E9
:1036A000709561957F4F8F4F9F4F9923A9F0F92F08
:1036B00096E9BB279395F695879577956795B79586
:1036C000F111F8CFFAF4BB0F11F460FF1BC06F5F6C
:1036D0007F4F8F4F9F4F16C0882311F096E911C07E
:1036E000772321F09EE8872F762F05C0662371F09F
:1036F00096E8862F70E060E02AF09A95660F771FB3
:10370000881FDAF7880F9695879597F90895990F8E
:103710000008550FAA0BE0E8FEEF16161706E8079B
:10372000F907C0F012161306E407F50798F0621BBC
:10373000730B840B950B39F40A2661F0232B242B91
:10374000252B21F408950A2609F4A140A6958FEFB0
:10375000811D811D08950E94BE1B0C942F1C0E9488
:10376000211C38F00E94281C20F0952311F00C94A5
:10377000181C0C941E1C11240C94631C0E94401CE9
:1037800070F3959FC1F3950F50E0551F629FF001B4
:10379000729FBB27F00DB11D639FAA27F00DB11DCD
:1037A000AA1F649F6627B00DA11D661F829F222756
:1037B000B00DA11D621F739FB00DA11D621F839FDD
:1037C000A00D611D221F749F3327A00D611D231FB3
:1037D000849F600D211D822F762F6A2F11249F5701
:1037E00050409AF0F1F088234AF0EE0FFF1FBB1F04
:1037F000661F771F881F91505040A9F79E3F5105C3
:1038000080F00C94181C0C94631C5F3FE4F3983E0A
:10381000D4F3869577956795B795F795E7959F5F6C
:10382000C1F7FE2B880F911D9695879597F90895FE
:1038300097F99F6780E870E060E008959FEF80EC63
:10384000089500240A941616170618060906089506
:1038500000240A9412161306140605060895092E6C
:103860000394000C11F4882352F0BB0F40F4BF2BDB
:1038700011F460FF04C06F5F7F4F8F4F9F4F08951B
:1038800057FD9058440F551F59F05F3F71F0479511
:10389000880F97FB991F61F09F3F79F087950895F6
:1038A000121613061406551FF2CF4695F1DF08C015
:1038B000161617061806991FF1CF86957105610532
:1038C00008940895E894BB2766277727CB0197F9DA
:1038D0000895F999FECF92BD81BDF89A992780B5D8
:1038E0000895262FF999FECF1FBA92BD81BD20BD44
:1038F0000FB6F894FA9AF99A0FBE01960895DB0173
:103900008F939F930E94D01CBF91AF91A29F800D77
:10391000911DA39F900DB29F900D11240895A1E2D7
:103920001A2EAA1BBB1BFD010DC0AA1FBB1FEE1F39
:10393000FF1FA217B307E407F50720F0A21BB30B84
:10394000E40BF50B661F771F881F991F1A9469F700
:1039500060957095809590959B01AC01BD01CF015C
:103960000895052E97FB1EF400940E94C81C57FD75
:1039700007D00E948F1C07FC03D04EF40C94C81C87
:1039800050954095309521953F4F4F4F5F4F08958B
:1039900090958095709561957F4F8F4F9F4F0895BB
:1039A0000E94E31CA59F900DB49F900DA49F800DD5
:1039B000911D11240895B7FF0C94D01C0E94D01CB7
:1039C000821B930B0895A29FB001B39FC001A39FD8
:1039D000700D811D1124911DB29F700D811D112448
:1039E000911D08955058BB27AA270E940A1D0C94C8
:1039F0002F1C0E94211C38F00E94281C20F039F452
:103A00009F3F19F426F40C941E1C0EF4E095E7FB7E
:103A10000C94181CE92F0E94401C58F3BA17620737
:103A200073078407950720F079F4A6F50C94621CBF
:103A30000EF4E0950B2EBA2FA02D0B01B9019001C9
:103A40000C01CA01A0011124FF27591B99F0593F0D
:103A500050F4503E68F11A16F040A22F232F342F55
:103A60004427585FF3CF469537952795A795F040A3
:103A70005395C9F77EF41F16BA0B620B730B840BB8
:103A8000BAF09150A1F0FF0FBB1F661F771F881F70
:103A9000C2F70EC0BA0F621F731F841F48F48795C8
:103AA00077956795B795F7959E3F08F0B0CF9395BA
:103AB000880F08F09927EE0F9795879508950E9433
:103AC000731D0C942F1C0E94281C58F00E94211C6E
:103AD00040F029F45F3F29F00C94181C51110C940C
:103AE000631C0C941E1C0E94401C68F39923B1F3C4
:103AF000552391F3951B550BBB27AA276217730714
:103B0000840738F09F5F5F4F220F331F441FAA1FA7
:103B1000A9F335D00E2E3AF0E0E832D09150504063
:103B2000E695001CCAF72BD0FE2F29D0660F771F11
:103B3000881FBB1F261737074807AB07B0E809F0F7
:103B4000BB0B802DBF01FF2793585F4F3AF09E3F7C
:103B5000510578F00C94181C0C94631C5F3FE4F33F
:103B6000983ED4F3869577956795B795F7959F5FBF
:103B7000C9F7880F911D9695879597F90895E1E00B
:103B8000660F771F881FBB1F621773078407BA076A
:103B900020F0621B730B840BBA0BEE1F88F7E095C5
:103BA00008950E94D81D6894B1110C94631C089567
:103BB0000E94481C88F09F5798F0B92F9927B75159
:103BC000B0F0E1F0660F771F881F991F1AF0BA95C1
:103BD000C9F714C0B13091F00E94621CB1E00895A1
:103BE0000C94621C672F782F8827B85F39F0B93F93
:103BF000CCF3869577956795B395D9F73EF4909574
:103C00008095709561957F4F8F4F9F4F08950E94CB
:103C1000871B08F48FEF089519F416F40C941E1CFA
:103C20000C94521E0E94481CB8F39923C9F3B6F3B2
:103C30009F57550B87FF0E94601E0024A0E640EAB4
:103C4000900180585695979528F4805C660F771FF1
:103C5000881F20F026173707480730F4621B730BC4
:103C6000840B202931294A2BA695179407942025E7
:103C700031254A2758F7660F771F881F20F026172F
:103C80003707480730F4620B730B840B200D311D8E
:103C9000411DA09581F7B901842F9158880F969501
:103CA000879508959F3F31F0915020F4879577953F
:103CB0006795B795880F911D9695879597F9089503
:103CC00091505040660F771F881FD2F7089597FBD9
:103CD000072E16F4009407D077FD09D00E94881EA5
:103CE00007FC05D03EF4909581959F4F08957095FF
:103CF00061957F4F0895EE0FFF1F0590F491E02D21
:103D000009940E94E31CB7FF0895821B930B08954A
:103D1000AA1BBB1B51E107C0AA1FBB1FA617B707F1
:103D200010F0A61BB70B881F991F5A95A9F780950D
:103D30009095BC01CD010895CF93DF93823091051A
:103D400010F482E090E0E091A606F091A70620E052
:103D500030E0C0E0D0E0309711F140815181481748
:103D60005907C0F04817590761F482819381209761
:103D700019F09B838A832BC09093A7068093A60695
:103D800026C02115310519F04217530718F49A017E
:103D9000BE01DF01EF010280F381E02DDCCF2115B0
:103DA000310509F1281B390B2430310590F41296A6
:103DB0008D919C9113976115710521F0FB019383FF
:103DC000828304C09093A7068093A606FD013296D5
:103DD00044C0FD01E20FF31F8193919322503109FA
:103DE0002D933C933AC02091A4063091A506232B35
:103DF00041F42091FD023091FE023093A5062093FC
:103E0000A4062091FB023091FC022115310541F4FA
:103E10002DB73EB74091FF0250910003241B350B94
:103E2000E091A406F091A506E217F307A0F42E1B7B
:103E30003F0B2817390778F0AC014E5F5F4F24170E
:103E4000350748F04E0F5F1F5093A5064093A40618
:103E50008193919302C0E0E0F0E0CF01DF91CF9138
:103E600008950F931F93CF93DF93009709F48CC0AD
:103E7000FC013297138212820091A6061091A706C8
:103E80000115110581F420813181820F931F20914A
:103E9000A4063091A5062817390779F5F093A506F1
:103EA000E093A40671C0D80140E050E0AE17BF0710
:103EB00050F412962D913C911397AD0121153105C7
:103EC00009F1D901F3CF9D01DA01338322836081A7
:103ED0007181860F971F8217930769F4EC0128817F
:103EE0003981260F371F2E5F3F4F318320838A8110
:103EF0009B8193838283452B29F4F093A706E0935B
:103F0000A60642C01396FC93EE931297ED014991D9
:103F100059919E01240F351FE217F30771F4808138
:103F20009181840F951F029611969C938E938281A6
:103F3000938113969C938E931297E0E0F0E0D80162
:103F400012968D919C911397009719F0F8018C01AE
:103F5000F6CF8D919C9198012E5F3F4F820F931F5A
:103F60002091A4063091A5062817390769F43097E7
:103F700029F41092A7061092A60602C0138212829C
:103F80001093A5060093A406DF91CF911F910F9186
:103F9000089581E090E0F8940C94CE1FF894FFCF40
:103FA0003905010100401F340034002800F0800072
:103FB000320032002F002F00CDCCD44157045704DB
:103FC0007A736E625D5F63707B85939EABB4C1C98B
:103FD000CCCAC0B9B3ACAAA3A0A198918776655307
:103FE0004537342E2225282F3C485360747C8A950F
:103FF00099A4A29F9A95908B8D8D8F909396979769
:10400000928B8678645A4E484A4D555D6F8597ABC2
:10401000BAC7CACAC9BCB6AEA29E9E9D97928978FD
:104020006A554941373634333D45506172828F9924
:104030009CA2A19890887F7677767B8782817C7A14
:1040400087919C998D7F7365564C494B53606F7C6B
:104050008B98A4B0BAC6CAC0AF93715238261E1D41
:104060002632455C738998A2A9ADA89E9283787286
:104070006C6B7179828D96989492939499A0A7A86D
:10408000A5A39F98928F88837A6C5E5047434450D3
:1040900061718397A6B5C1CCD1C8BAA07E5E412C10
:1040A0001D171B24344A63798C9AA1A7A59C908183
:1040B000766E68666A727A838B8D898687888E9918
:1040C000A1A6A6A6A39C9899969182827565554B48
:1040D0005E747C71575889AEB3C8D4BD834B3442EB
:1040E0006D9FD6F7F5D6B5A89B8B775731191B294D
:1040F0003C6499BEBA9F87766B66676E7E959E8E8E
:10410000755C575D5F6362615B56575664829FB80A
:10411000CFE0E2D9C39D847D7A7A7B8590988E72B8
:10412000615C6A81949D9F947A5E483D383E4A5D09
:10413000748085827C7773767D96B4C5C5BEB5A63E
:1041400093826E5A56595C6066696D6F696C7888A7
:1041500093A1A7A4A09D9E9E998D837D736D747F6E
:1041600080786A5745373647647A8B938E8B8E9961
:10417000A8B5BEC5C7BCA8988E8B877F797F808085
:104180007E72685E595C5C646F7D80766B62697478
:104190007F8A929590867B010000000000A806802F
:1041A0000000000000F804F804F804FA0BF60BF322
:1041B0000B000000003903F502A000FA0BF60B9D7E
:1041C00000A20000000000E40362087C032B04ADA1
:1041D000038B039F0300000000CB048E04F50462F0
:1041E00004860472046304B400C800D200DC00B486
:1041F00000C000F000D2001E001E0023002800288E
:10420000002D00F6FF1E003400330036003C003461
:1042100000390032002F003200320037003C0032FB
:1042200000320032002F002F0030002F0032002F0C
:1042300000320031002D00030002000200030002E2
:1042400000030002000100FF00FF00FF002000FF4C
:1042500000FF00FF00FF009000600040009000A001
:1042600000C00020000000564D4450565F317C31A4
:104270005F564D4450560D0A0052756E6E696E675A
:1042800000564D4450455F003A323A007C005F567C
:104290004D445045004C69676874696E67204C4511
:0242A0004400D8
:107E0000112484B714BE81FFF0D085E080938100F7
:107E100082E08093C00088E18093C10086E0809377
:107E2000C20080E18093C4008EE0C9D0259A86E02C
:107E300020E33CEF91E0309385002093840096BBD3
:107E4000B09BFECF1D9AA8958150A9F7CC24DD24C4
:107E500088248394B5E0AB2EA1E19A2EF3E0BF2EE7
:107E6000A2D0813461F49FD0082FAFD0023811F036
:107E7000013811F484E001C083E08DD089C08234E0
:107E800011F484E103C0853419F485E0A6D080C0E4
:107E9000853579F488D0E82EFF2485D0082F10E0AE
:107EA000102F00270E291F29000F111F8ED06801E7
:107EB0006FC0863521F484E090D080E0DECF843638
:107EC00009F040C070D06FD0082F6DD080E0C81688
:107ED00080E7D80618F4F601B7BEE895C0E0D1E017
:107EE00062D089930C17E1F7F0E0CF16F0E7DF06D8
:107EF00018F0F601B7BEE89568D007B600FCFDCFD4
:107F0000A601A0E0B1E02C9130E011968C91119780
:107F100090E0982F8827822B932B1296FA010C0160
:107F200087BEE89511244E5F5F4FF1E0A038BF0790
:107F300051F7F601A7BEE89507B600FCFDCF97BE46
:107F4000E89526C08437B1F42ED02DD0F82E2BD052
:107F50003CD0F601EF2C8F010F5F1F4F84911BD097
:107F6000EA94F801C1F70894C11CD11CFA94CF0C13
:107F7000D11C0EC0853739F428D08EE10CD085E9AC
:107F80000AD08FE07ACF813511F488E018D01DD067
:107F900080E101D065CF982F8091C00085FFFCCF94
:107FA0009093C60008958091C00087FFFCCF809118
:107FB000C00084FD01C0A8958091C6000895E0E648
:107FC000F0E098E1908380830895EDDF803219F02E
:107FD00088E0F5DFFFCF84E1DECF1F93182FE3DFCA
:107FE0001150E9F7F2DF1F91089580E0E8DFEE27F6
:047FF000FF270994CA
:027FFE00040479
:0400000300007E007B
:00000001FF