:100000000C94F5000C94C10F0C949A0F0C94730F80
:100010000C944C0F0C941D010C941D010C94250F95
:100020000C941D010C941D010C94D2110C944412DB
:100030000C941D010C941D010C941D010C941D01C8
:100040000C941D010C945A070C941D010C941D0175
:100050000C941D010C941D010C941D010C94DB0EDD
:100060000C941D010C941D010C941D010C941D0198
:100070000C941D010C941D010C941D010C941D0188
:100080000C941D010C941D010C941D010C941D0178
:100090000C94E80F0C941D010C941D010C941D018F
:1000A0000C941D010C941D010C941D0141097F0944
:1000B0009109E909FE09090A1D0A280A330A3E0ABC
:1000C000490A5A0D5D0D4C0D500D560D7E0D7E0DDD
:1000D0007E0D610D650D690D6F0D730D7E0D790D32
:1000E000070605040100080A0B0C0D0900000002B8
:1000F00000090F0000030401000C000000000000D4
:1001000000000000000000000000000408020110D0
:100110004080401020408040800802040180402040
:100120001002011080102040402000000000230039
:10013000260029002C002F000404040404030405F5
:100140000202020204030202020206060606060674
:100150000404020202040400000000240027002A14
:10016000002D00300000000000250028002B002E8C
:10017000003100080B000202020100090400000126
:1001800002020000052400100105240101010424DD
:10019000020605240600010705810310004009043A
:1001A0000100020A000000070502024000000705E6
:1001B00083024000000403090412010002EF02015F
:1001C00040412336800001010203014172647569D8
:1001D0006E6F204C4C430041726475696E6F204C09
:1001E000656F6E6172646F00391F11241FBECFEFFF
:1001F000DAE0DEBFCDBF14E0A0E0B1E0EEEFF9E45D
:1002000002C005900D92A030B107D9F726E0A0E01A
:10021000B4E001C01D92A434B207E1F710E0C5EFCD
:10022000D0E004C02197FE010E94AA23C43FD10759
:10023000C9F70E9465160C94FD240C94000080E917
:1002400091E00895859A08954F925F926F927F9200
:100250008F92AF92BF92CF92EF92FF920F931F9324
:10026000CF93DF933C01EB010E94EB0DF301278557
:100270003089621B730B6A307105B0F3F894E88122
:10028000F98151B3506281B38F7D81BB6A859F81B3
:10029000262F291B922F2F83BF844A805B807D8568
:1002A000FC84EE847F5FF394E3943E814885A984C7
:1002B000CB841181D20120E0C32F022F322F318154
:1002C000112788943111390F08F43FEF91958894E4
:1002D00070FD130F1795889471FD130F179588946F
:1002E00072FD130F1795889473FD130F179588945B
:1002F00074FD130F1795889475FD130F1795889447
:1003000076FD130F1795889477FD130F1795889432
:10031000232F7111212F960F122F002C51BB00C0DB
:1003200017FF81BB30812227889400C000C0002CB9
:1003300081BB31113C0F00C0002C51BB00C016FF27
:1003400081BB08F43FEFC195889400C000C0002C29
:1003500081BBF0FC230F00C0002C51BB00C015FF77
:1003600081BB27958894F1FC230F00C000C0002CAE
:1003700081BB2795889400C0002C51BB00C014FF9E
:1003800081BBF2FC230F2795889400C000C0002C8D
:1003900081BBF3FC230F00C0002C51BB00C013FF36
:1003A00081BB27958894F4FC230F00C000C0002C6B
:1003B00081BB2795889400C0002C51BB00C012FF60
:1003C00081BBF5FC230F2795889400C000C0002C4A
:1003D00081BBF6FC230F00C0002C51BB00C011FFF5
:1003E00081BB27958894F7FC230F00C000C0002C28
:1003F00081BB2795889400C0002C51BB00C010FF22
:1004000081BB132FF110122FCA0D00C000C0002CA9
:1004100081BB00C000C0002C51BB00C017FF81BBD6
:1004200032812227889400C000C0002C81BB31118A
:10043000340F00C0002C51BB00C016FF81BB08F474
:100440003FEFEB0DF11D00C000C0002C81BBE0FCB4
:10045000230F00C0002C51BB00C015FF81BB2795A6
:100460008894E1FC230F00C000C0002C81BB2795BD
:10047000889400C0002C51BB00C014FF81BBE2FC7B
:10048000230F2795889400C000C0002C81BBE3FC9B
:10049000230F00C0002C51BB00C013FF81BB279568
:1004A0008894E4FC230F00C000C0002C81BB27957A
:1004B000889400C0002C51BB00C012FF81BBE5FC3A
:1004C000230F2795889400C000C0002C81BBE6FC58
:1004D000230F00C0002C51BB00C011FF81BB27952A
:1004E0008894E7FC230F00C000C0002C81BB279537
:1004F000889400C0002C51BB00C010FF81BB132F9B
:10050000E110122F419500C000C0002C81BB4C0DA2
:1005100000C000C051BB00C017FF81BB3181222742
:10052000889400C000C0002C81BB3111390F00C07D
:10053000002C51BB00C016FF81BB08F43FEF919522
:10054000889400C000C0002C81BB70FD230F00C048
:10055000002C51BB00C015FF81BB2795889471FD0D
:10056000230F00C000C0002C81BB2795889400C0D9
:10057000002C51BB00C014FF81BB72FD230F2795D7
:10058000889400C000C0002C81BB73FD230F00C005
:10059000002C51BB00C013FF81BB2795889474FDCC
:1005A000230F00C000C0002C81BB2795889400C099
:1005B000002C51BB00C012FF81BB75FD230F279596
:1005C000889400C000C0002C81BB76FD230F00C0C2
:1005D000002C51BB00C011FF81BB2795889477FD8B
:1005E000230F00C000C0002C81BB2795889400C059
:1005F000002C51BB00C010FF81BB132F7111122FB3
:10060000960F00C000C0002C81BB119709F086CE68
:1006100020EE31E0D2010E94B023DC01CB01F4E0F6
:10062000B695A79597958795FA95D1F720E030E094
:10063000A9016AE9469E412D569E400D511D112487
:10064000840F951FA11DB11D893E43E09407A105AC
:10065000B10588F1885E9340A109B10942E0B695E1
:10066000A795979587954A95D1F747E0849F212DC7
:10067000949F200D311D11246091610470E0860F5C
:10068000971F820F931F4091E8055091E9056091F3
:10069000EA057091EB05292F3327420F531F611D87
:1006A000711D4093E8055093E9056093EA05709346
:1006B000EB058093610478940E94EB0DF301708B3D
:1006C0006787DF91CF911F910F91FF90EF90CF90AF
:1006D000BF90AF908F907F906F905F904F900895F4
:1006E0000F931F93CF93DF93CDB7DEB762970FB60B
:1006F000F894DEBF0FBECDBF8C01F901DC011C9662
:100700008C917A8369835C834B835E834D83908174
:100710009D8791819E8792819F87813029F4CE01A8
:1007200001960E94181606C01C861B861A8619861A
:1007300018861F82188A1A8A198AD801ED91FC91AD
:100740000484F585E02DBE016F5F7F4FC8010995D8
:1007500062960FB6F894DEBF0FBECDBFDF91CF918A
:100760001F910F9108950F931F93CF93DF93CDB7F0
:10077000DEB762970FB6F894DEBF0FBECDBF8C0117
:10078000F901DC011C968C917A8369835C834B832D
:100790005E834D8390819D8791819E8792819F8703
:1007A000813029F4CE0101960E94181606C01C86DD
:1007B0001B861A86198618861F8283E0888B1A8A00
:1007C000198AD801ED91FC910484F585E02DBE01D4
:1007D0006F5F7F4FC801099562960FB6F894DEBF30
:1007E0000FBECDBFDF91CF911F910F910895FF9262
:1007F0000F931F93CF93DF93DC01ED91FC91AF2F0B
:1008000031E03F0F321301C030E0EF01DD278B01F3
:100810000A0F111DD801FC90DB01A30FB11D3C9103
:100820003C9F80013D9F100D1124A0E0B1E0AC1B66
:10083000BD0BFA9EB001FB9E700D1124600F711F5D
:100840004E0F5F1F30E0322F22274217530710F060
:10085000421B530BDC014D935C93872FDF91CF91AB
:100860001F910F91FF90089580E090E00895FC01A2
:10087000858596850895CF93DF9300D000D000D072
:10088000CDB7DEB7AB011C821D821E82DC01ED916B
:10089000FC910190F081E02D19821A821B829E0149
:1008A0002F5F3F4FBE016C5F7F4F099526960FB6B5
:1008B000F894DEBF0FBECDBFDF91CF9108952F9288
:1008C0003F924F925F926F927F928F929F92AF92E0
:1008D000BF92CF92DF92EF92FF920F931F93CF932D
:1008E000DF93CDB7DEB76D970FB6F894DEBF0FBEBE
:1008F000CDBFCF82D886E986FA863E874F870F81A3
:10090000188529853A85398F288F8E849F845C8B42
:10091000A72E7C835D838E82BE016F5F7F4FCE01E9
:1009200004960E9472156980662D70E080E090E068
:100930000E9481209B01AC0160E070E885E693E4B1
:100940000E948E22B62EC72ED82EE92E20E030E04F
:1009500040E85FE30E943623181634F4B12CC12C12
:10096000B0E8DB2E8FE3E82EFA806F2D70E080E098
:1009700090E00E9481209B01AC0160E070E885E678
:1009800093E40E948E22362E472E582E792E262F43
:10099000372F482F592F6B2D7C2D8D2D9E2D0E948A
:1009A0007C2087FD03C0B32C6201E72C7B80672D80
:1009B00070E080E090E00E9481209B01AC0160E04B
:1009C00070E885E693E40E948E221B012C019B01B6
:1009D000AC016B2D7C2D8D2D9E2D0E947C2087FDE2
:1009E00004C0B22CC32CD42CE52C6F2D70E0660D06
:1009F000711D670D711D072E000C880B990B0E944D
:100A000083209B01AC0161E070E885E693E40E94DD
:100A10008E22562E672E782EF92E262F372F482F0E
:100A2000592F6B2D7C2D8D2D9E2D0E947C2087FDB6
:100A300003C0B52C6301EF2CAC823C893D83B4012B
:100A4000990C880B990B0E9483209B01AC016B2DA4
:100A50007C2D8D2D9E2D0E94E2200E9407236E8307
:100A6000BE016F5F7F4FCE0104960E947215809188
:100A70000604823009F078C060900204709003048C
:100A8000A801F80138962DE835E082E090E0212CAD
:100A9000312CBC0163577A4F7D8B6C8BDF0117972C
:100AA0006D01BF01665071095B0112964D0126145C
:100AB0003704C9F4D9015C90DA015C92EC88FD88B6
:100AC000B1E0EB1AF108D701FC90D601FC92AC8999
:100AD000BD89EC90DB01EC92D4015C921196FC9202
:100AE0001196EC922AC0AC89BD89EC90F12C2701BB
:100AF00064E0559447946A95E1F71197AC91B0E0A2
:100B00007D0174E0F594E7947A95E1F7D9016C9151
:100B1000A62FB0E0BD01A4E075956795AA95E1F711
:100B2000DA016C93D601EC92D5014C92D4011C925F
:100B3000DF0114971C9211961C92DF0112971C92F0
:100B400011961C921082BFEF2B1A3B0A0396475F47
:100B50005F4F39962D5F3F4F8632910509F099CF4F
:100B600034E2E32EF12C02C0E12CF12C8091070439
:100B7000909108049C01990F440B550B2C8B3D8BD5
:100B80004E8B5F8B3980CA80DB80C701880F991F2D
:100B90008E0D9F1D0296080F191F23E630E0D70126
:100BA0000E94B023812C912C54012B013C0133E68F
:100BB000431A510861087108488D598DCA01550FB3
:100BC000AA0BBB0B9C01AD01215031094109510910
:100BD0002A8F3B8F4C8F5D8F488D598DE416F5061B
:100BE000B4F5C301B201680D791D8A1D9B1D2A8DC4
:100BF0003B8D4C8D5D8D0E94E821BA01A9014F5FAC
:100C00005F4F6F4F7F4F980122503109F8013197A4
:100C10008C899D89AE89BF89481759076A077B0768
:100C200034F4D9013C92C082F801D08205C0D901C8
:100C30001C921082F8011082FFEFEF1AFF0A0D5F7D
:100C40001F4F23E6820E911CA11CB11CC5CF8091C1
:100C50005D050E947A0A6D960FB6F894DEBF0FBE4E
:100C6000CDBFDF91CF911F910F91FF90EF90DF905B
:100C7000CF90BF90AF909F908F907F906F905F903C
:100C80004F903F902F900895CF92DF92EF92FF9276
:100C90000F931F931816190624F4909388058093D8
:100CA00087051616170624F470938A056093890544
:100CB0001416150624F450938C0540938B05C090B0
:100CC0008005D0908105E0908205F0908305009129
:100CD0008405109185052091860530918705409106
:100CE00088055091890560918A0570918B058091E6
:100CF0008C050E945F041F910F91FF90EF90DF9091
:100D0000CF900895DC01ED91FD918081ED91FD91F1
:100D10009081ED91FD916C9163708E2309F0646078
:100D20009F2309F06860EFE9F6E0E60FF11D659595
:100D300065956D936D917D918D919D91099423C0E1
:100D40001AC012C016C010C01EC009C014C013C003
:100D500006C019C009C00DC007C00DC014C0625044
:100D60007040804090400BC0615070408040904087
:100D700006C06E5F01C06F5F7F4F8F4F9F4F9E9386
:100D80008E937E936E930895809172059091730572
:100D90000C94820680917005909171050C948206E6
:100DA00080916E0590916F050C94820680916C0580
:100DB00090916D050C94820680910C0490910D0425
:100DC000019709F040C083E090E090930D04809378
:100DD0000C046091020482E090E00E94960B609106
:100DE0000B0183E090E00E94960B6091140184E077
:100DF00090E00E94960B6091100185E090E00E94C7
:100E0000960B6091070186E090E00E94960B60913E
:100E1000090187E090E00E94960B60910C018CE044
:100E200090E00E94960B609101018BE090E00E949F
:100E3000960B6AE280E090E00E94960B60E081E011
:100E400090E00C94960B089580910C0490910D0401
:100E5000892B31F482E090E090930D0480930C0490
:100E60000895CF92DF92EF92FF920F931F93C0905D
:100E70008005D0908105E0908205F0908305009177
:100E80008405109185052091860530918705409154
:100E900088055091890560918A0570918B05809134
:100EA0008C050E945F041F910F91FF90EF90DF90DF
:100EB000CF9008951F920F920FB60F921124CF92E8
:100EC000DF92EF92FF920F931F932F933F934F93D5
:100ED0005F936F937F938F939F93AF93BF93CF93C2
:100EE000DF93EF93FF93C0910B04D0E0C0900A040E
:100EF000D12C0091090410E040911201509113018E
:100F00002DEC64E272E086E694E00E94F70390E044
:100F1000805891098C9F70018D9FF00C9C9FF00C64
:100F2000112440910E0150910F0125E86FE971E005
:100F300084E694E00E94F70390E0805891098C9D2C
:100F4000E0018D9DD00D9C9DD00D11244091050197
:100F50005091060125E86AE171E082E694E00E9482
:100F6000F703CE0DDF1DD05890E080589109809F87
:100F70009001819F300D909F300D1124C20FD31F1F
:100F8000D093D000FF91EF91DF91CF91BF91AF91BE
:100F90009F918F917F916F915F914F913F912F9191
:100FA0001F910F91FF90EF90DF90CF900F900FBEA9
:100FB0000F901F901895CF92DF92EF92FF92CF93F0
:100FC000DF93EC01688179818A819B819B01AC016F
:100FD0000E94E22020E030E0A9010E9422226B0161
:100FE0007C016C817D818E819F819B01AC010E947F
:100FF000E2209B01AC01C701B6010E9422226B01D5
:101000007C01688579858A859B859B01AC010E945E
:10101000E2209B01AC01C701B6010E942222DF91B0
:10102000CF91FF90EF90DF90CF900C944123AF923F
:10103000BF92CF92DF92EF92FF920F931F93CF93C5
:10104000DF9300D000D000D0CDB7DEB78B01EE2407
:10105000E394E092930478E6F72EF092B5041092B0
:1010600094041092B604682F89E095E00E943B1525
:101070000E94B00BE0929304F092B5041092940495
:101080001092B604809192048111FCCF81E080938C
:101090009204809391049FEF9093900410928F0498
:1010A00095E090938E0480936D0480916D04806D23
:1010B00080936D0480916C04813041F410926C0433
:1010C00080916D048093BB0085EC01C085EE809318
:1010D000BC00809192048130E1F380918F048630CE
:1010E00018F4F0908F0402C066E0F62EAEE6B4E08D
:1010F0002FE136E0F9018E2F821B8F1518F48D91A8
:101100008193F9CF10920104F092000486E08F15CC
:1011100080F0FE0131965F016F018C2D8A198F15C9
:1011200088F489E095E00E94E214F60181936F0152
:10113000F4CF56E0E52E89E095E00E94E214EA94AF
:10114000E110F9CF0E94B00BF6E0FF1611F080E03D
:101150001AC0898190E0982F88272A81822BF80174
:10116000918380838B8190E0982F88272C81822B1C
:10117000938382838D8190E0982F88272E81822B04
:101180009583848381E026960FB6F894DEBF0FBE68
:10119000CDBFDF91CF911F910F91FF90EF90DF9026
:1011A000CF90BF90AF900895161617063CF4281BF9
:1011B000390B621773077CF49B010DC06115710533
:1011C00041F0481B590B9B016417750724F49A01E1
:1011D00002C020E030E0820F931F0895CF93DF9389
:1011E00080917F05823030F4F89484E795E00E9486
:1011F000820601C0F89480917B0590917C05A091B6
:101200007D05B0917E0578949C0197FF02C02D5F0B
:101210003F4F35952795359527952115310509F4CB
:1012200066C16CEF6203A001639F500D1124F89416
:10123000840F951F092E000CAA0BBB0B80937B0516
:1012400090937C05A0937D05B0937E057894CC2780
:10125000DD27C21BD30B80910604813009F429C11C
:1012600020F0823009F428C13EC1E0910204F091DF
:101270000304EB30F10508F036C1EA5AFF4F0C9435
:10128000AA2328E030E041E050E0BE018091010156
:10129000909102010E94D408909302018093010171
:1012A00020910C0430910D0422303105D9F03CF42A
:1012B0002115310559F02130310579F014C1233061
:1012C000310521F02430310599F00DC11C161D06A1
:1012D0000CF009C10E94240706C1D7FF04C10E9477
:1012E000DC0601C1D7FFFFC0019709F0FCC0F7CFB2
:1012F000D7FFF9C010920D0410920C04F4C0BE0187
:1013000044E0660F771F4A95E1F780910B012FEFBC
:1013100030E040E050E090E00E94D40880930B0160
:10132000E2C027E030E040E050E0BE018091680478
:10133000909169040E94D408909369048093680492
:10134000880F991FFC01E156FC4F40815181FC013F
:10135000E157FC4F608171818FEF9FEF0E9444063F
:101360008091680490916904880F991FFC01E158ED
:10137000FC4F208131813093020120930101FC0157
:10138000E159FC4F208131813093150120931401E4
:10139000FC01E15AFC4F20813181309311012093EF
:1013A0001001FC01E15BFC4F208131813093080189
:1013B00020930701FC01E15CFC4F208131813093D7
:1013C0000A0120930901FC01E15DFC4F80819181BC
:1013D0006BC0BE0193E0660F771F9A95E1F72FEF80
:1013E00030E047E050E080918705909188050E94A9
:1013F000D4084FEF5FEF6FEF7FEF73C080918B05E5
:1014000090918C05480F591F50938C0540938B0584
:1014100064C0BE0183E0660F771F8A95E1F72FEF66
:1014200030E040E050E08091890590918A050E946B
:10143000D4084FEF5FEFBC0152C08091140190912E
:101440001501821B930B90931501809314014BC0DF
:101450008091100190911101821B930B90931101C7
:101460008093100140C08091070190910801821B78
:10147000930B909308018093070135C08091090177
:1014800090910A01821B930B90930A0180930901AA
:101490002AC02FEF30E040E050E0BE0180910C0107
:1014A00090910D010E94D40890930D0180930C013E
:1014B0001AC082E0809306042BE030E040E050E068
:1014C000BE0180910204909103040E94D40890937D
:1014D0000304809302044FEF5FEF6FEF7FEF8FEF16
:1014E0009FEF0E9444061092050410920404DF91BD
:1014F000CF9108953F924F925F926F927F928F9219
:101500009F92AF92BF92CF92DF92EF92FF920F9392
:101510001F93CF93DF9300D01F92CDB7DEB7F82E85
:101520008091600590916105A0916205B09163057D
:10153000892B8A2B8B2BE9F00E94EB0D0091C305C0
:101540001091C4052091C5053091C605DC01CB0181
:10155000801B910BA20BB30B0091600510916105EC
:10156000209162053091630580179107A207B307A8
:10157000B8F20E94EB0D6093C3057093C40580938D
:10158000C5059093C605E0916805F091690530970F
:1015900059F0409164055091650560916605709120
:1015A00067058F2D0995F82E0091B7041091B804A6
:1015B0004F2C512C612C712C0115110509F461C0BF
:1015C000D8011C96EC901C9780915E0590915F0568
:1015D0008436910510F41C961C92D801ED91FC9173
:1015E000A280B38019821A821B82F11014C0F80104
:1015F00045855685628173819E012F5F3F4FC801EB
:10160000F5010995D8011C96EC921C9714960D9142
:101610001C911597D1CFF8013996CE0101966C0136
:1016200048019CE0890E911CDF0113973C902191A9
:10163000332001F12223F1F0822F90E0A0E0B0E00E
:101640009C01AD012F5F3F4F4F4F5F4FC301B20170
:101650000E94B6219B01AC01832D90E0A0E0B0E098
:10166000BC01CD016F5F7F4F8F4F9F4F0E94B6210E
:10167000D6018C93BFEFCB1ADB0AE815F905A1F66A
:10168000B6CF8091C1059091C2058C010F5F1F4FAD
:101690001093C2050093C10549979CF10E94CF0E9B
:1016A0004B015C0188EE93E0089FB001099F700D2B
:1016B000189F700D1124072E000C880B990BC090F9
:1016C000BD05D090BE05E090BF05F090C005A50116
:1016D00094012C193D094E095F090E94C6213093DF
:1016E0005F0520935E051092C2051092C1050E940D
:1016F000CF0E6093BD057093BE058093BF05909398
:10170000C0050F900F900F90DF91CF911F910F9117
:10171000FF90EF90DF90CF90BF90AF909F908F9011
:101720007F906F905F904F903F9008950F931F931D
:10173000CF93DF931F92CDB7DEB78C0169830E94F0
:10174000A0216981861729F0C8010E94A82181E0A3
:1017500001C080E00F90DF91CF911F910F9108950C
:101760002091B6049091B504213208F046C08091D2
:1017700092048111FCCF32E03093920431E0309337
:1017800091043FEF3093900410928F0420938E04C5
:10179000A5E9B4E04EE654E0FA013E2F341B3217BF
:1017A00018F43D913193F9CF10926D0420916D049E
:1017B000990F922B90936D0490916C04913041F4A9
:1017C00010926C0490916D049093BB0095EC01C055
:1017D00095EE9093BC00909192049230E1F3909139
:1017E00090049F3F79F080919004803241F0809185
:1017F0009004803331F084E005C081E003C082E0D2
:1018000001C083E0109294041092B60410929304E5
:101810000895CF93C62F91E09093930498E6909308
:10182000B504109294041092B604682F89E095E0F4
:101830000E943B156C2F89E095E00E943B150E94A9
:10184000B00B81E0CF910895CF93DF93E4EFF0E008
:101850008491E3E1F1E0D491E0E4F1E0C491CC23A0
:1018600091F081110E94420DEC2FF0E0EE0FFF1F6E
:10187000E65DFE4FA591B491EC91ED2381E090E0FF
:1018800021F480E002C080E090E0DF91CF910895E4
:101890008F929F92AF92BF92CF92DF92EF92FF9280
:1018A0006B017C010E94CF0E4B015C01C60ED71E5E
:1018B000E81EF91E0E94CF0E681579058A059B0562
:1018C00028F0C616D706E806F906A0F7FF90EF90B5
:1018D000DF90CF90BF90AF909F908F900895FC01C4
:1018E00080916B04811103C08FEF9FEF08959FB724
:1018F000F89482E08093E9002091F20030E0121623
:10190000130614F421E030E02115310559F0289830
:1019100084E680936A048091F10080838091F200D4
:10192000882319F09FBFC90108958BE68093E800D2
:10193000F9CF2FB7F89483E08093E9009091E80005
:10194000892F807295FF04C09091F20080E4891B7A
:101950002FBF08958091B50581110DC082E080935D
:10196000B10584E08093B2051092B4051092B305DE
:1019700081E08093B50581EB95E00895CF93DF93E7
:101980001F92CDB7DEB76983DC01ED91FC91028037
:10199000F381E02D41E050E0BE016F5F7F4F09957C
:1019A0000F90DF91CF91089583E08093E9008091BB
:1019B000F200882319F08AE38093E8000895FC017F
:1019C0008485958597FD0BC09FB7F89482E080933E
:1019D000E9008091F2009FBF90E0019608959FB7C3
:1019E000F89482E08093E9008091F2009FBF90E03C
:1019F000089508950E94990C90E008950F931F9305
:101A0000CF93DF931F92CDB7DEB78C01FC018485A5
:101A1000958597FF0EC0CE0101960E946F0C01972D
:101A200019F4298130E002C02FEF3FEFF80135872C
:101A30002487F801848595850F90DF91CF911F91C0
:101A40000F910895CF93DF931F92CDB7DEB7FC01BE
:101A50008485958597FD05C02FEF3FEF3587248757
:101A60000BC0CE0101960E946F0C019719F4898179
:101A700090E002C08FEF9FEF0F90DF91CF9108951C
:101A80000E94F82490E0FC013197EF30F105B0F5A9
:101A9000EF59FF4F0C94AA23809180008F7703C0E9
:101AA000809180008F7D80938000089580918000D8
:101AB000877FF9CF84B58F7702C084B58F7D84BDD1
:101AC0000895809190008F7707C0809190008F7D5E
:101AD00003C080919000877F80939000089580914B
:101AE000C0008F7703C08091C0008F7D8093C000BD
:101AF00008958091C200877F8093C20008951F934C
:101B0000CF93DF93282F30E0F901E451FF4F849108
:101B1000F901E55FFE4FD491F901E85CFE4FC491F5
:101B2000CC23C9F0162F81110E94420DEC2FF0E05A
:101B3000EE0FFF1FEB59FE4FA591B4918FB7F894AC
:101B4000111105C09C91ED2FE095E92302C0EC91A5
:101B5000ED2BEC938FBFDF91CF911F910895CF9321
:101B6000DF9390E0FC01E55FFE4F2491FC01E85C0F
:101B7000FE4F8491882361F190E0880F991FFC014A
:101B8000E95AFE4FC591D491FC01EB59FE4FA59146
:101B9000B491611109C09FB7F89488812095822380
:101BA0008883EC912E230BC0623061F49FB7F894C8
:101BB0003881822F809583238883EC912E2B2C9360
:101BC0009FBF06C08FB7F894E8812E2B28838FBF64
:101BD000DF91CF9108953FB7F894809113069091CB
:101BE0001406A0911506B091160626B5A89B05C04F
:101BF0002F3F19F00196A11DB11D3FBFBA2FA92F8C
:101C0000982F8827820F911DA11DB11DBC01CD0108
:101C100042E0660F771F881F991F4A95D1F70895F4
:101C20008F929F92AF92BF92CF92DF92EF92FF92EC
:101C30006B017C010E94EB0D4B015C01C114D104CE
:101C4000E104F104F1F00E94EB0DDC01CB018819F5
:101C50009909AA09BB09883E9340A105B10570F313
:101C600021E0C21AD108E108F10888EE880E83E06D
:101C7000981EA11CB11CC114D104E104F10419F790
:101C8000DDCFFF90EF90DF90CF90BF90AF909F900F
:101C90008F9008958F929F92AF92BF92CF92DF92D2
:101CA000EF92FF920F931F93CF93DF935C016B0131
:101CB0007A0180910603882309F45BC080916B044C
:101CC000882309F456C08091190680FF05C08091D1
:101CD000E00082608093E000E70110E00AEF83E01B
:101CE000882E9AE3992E2097D9F10E94990C8111A0
:101CF0000AC0015009F43DC061E070E080E090E06E
:101D00000E94100EF0CF282F30E0C217D3070CF43A
:101D10008C2F4FB7F8948092E9009091E80095FFDE
:101D20001DC0282F30E0C21BD30BF601982F915015
:101D300020F081918093F100FACFC20ED31E1123BF
:101D400019F09092E80009C08091E80085FD06C076
:101D50009092E80011E0209709F010E04FBFC3CF48
:101D60001111C3CF5D9884E680931A061E141F04D8
:101D700044F081E090E0F5019383828380E090E07D
:101D800001C0C701DF91CF911F910F91FF90EF909C
:101D9000DF90CF90BF90AF909F908F9008952FB716
:101DA000F8946091E8057091E9058091EA059091B9
:101DB000EB052FBF08951F920F920FB60F921124BB
:101DC0002F933F938F939F93AF93BF938091E80599
:101DD0009091E905A091EA05B091EB0530911206CA
:101DE00023E0230F2D3720F40196A11DB11D05C05E
:101DF00026E8230F0296A11DB11D209312068093A1
:101E0000E8059093E905A093EA05B093EB0580916E
:101E1000130690911406A0911506B091160601962E
:101E2000A11DB11D8093130690931406A09315066F
:101E3000B0931606BF91AF919F918F913F912F91D3
:101E40000F900FBE0F901F9018951F920F920FB614
:101E50000F9211242F933F934F935F936F937F9330
:101E60008F939F93AF93BF93EF93FF93E091F9020A
:101E7000F091FA020995FF91EF91BF91AF919F9177
:101E80008F917F916F915F914F913F912F910F9023
:101E90000FBE0F901F9018951F920F920FB60F92C2
:101EA00011242F933F934F935F936F937F938F935F
:101EB0009F93AF93BF93EF93FF93E091F702F0915D
:101EC000F8020995FF91EF91BF91AF919F918F918A
:101ED0007F916F915F914F913F912F910F900FBE26
:101EE0000F901F9018951F920F920FB60F9211240A
:101EF0002F933F934F935F936F937F938F939F9312
:101F0000AF93BF93EF93FF93E091F502F091F60248
:101F10000995FF91EF91BF91AF919F918F917F9123
:101F20006F915F914F913F912F910F900FBE0F9046
:101F30001F9018951F920F920FB60F9211242F9396
:101F40003F934F935F936F937F938F939F93AF9341
:101F5000BF93EF93FF93E091F302F091F4020995A0
:101F6000FF91EF91BF91AF919F918F917F916F9171
:101F70005F914F913F912F910F900FBE0F901F9047
:101F800018951F920F920FB60F9211242F933F9323
:101F90004F935F936F937F938F939F93AF93BF9371
:101FA000EF93FF93E091F102F091F2020995FF9116
:101FB000EF91BF91AF919F918F917F916F915F91C1
:101FC0004F913F912F910F900FBE0F901F9018953A
:101FD0001F920F920FB60F9211242F933F934F939E
:101FE0005F936F937F938F939F93AF93BF93EF9381
:101FF000FF938091B900887F803609F49CC068F512
:10200000883209F45BC090F4803109F454C038F48C
:10201000882309F4F3C0883009F44DC0F3C0883137
:1020200009F44CC0803209F45DC0ECC0803409F47E
:1020300068C048F4803309F455C0883309F0E2C021
:1020400080939004D5C0803509F44FC0883509F4D9
:102050005DC0883409F0D6C0D3C0883909F4C4C043
:10206000A8F4883709F467C038F4883609F463C0E7
:10207000803709F460C0C6C0883809F4B5C080391B
:1020800009F45FC0803809F0BDC05BC0803B09F433
:1020900083C038F4803A09F466C0883A09F47CC0F9
:1020A000B1C0803C09F4A4C0883C09F4A1C0883BBD
:1020B00009F487C0A7C080916D0410C090918F046F
:1020C00080918E04981770F5E0918F0481E08E0F57
:1020D00080938F04F0E0E259FB4F80818093BB0036
:1020E00085EC83C0809390048BC0E0918F0481E0E5
:1020F0008E0F80938F048091BB00F0E0E259FB4F7C
:10210000808390918F0480918E046BC0E0918F0446
:1021100081E08E0F80938F048091BB00F0E0E25944
:10212000FB4F80838091910481116AC081E080938C
:102130006C0484EA5EC083E08093920410921106DE
:10214000CFCF80911106803208F04EC0E091110689
:1021500081E08E0F809311068091BB00F0E0EF507C
:10216000FA4F8083BDCF80911106803230F4E09128
:102170001106F0E0EF50FA4F10820E94681560914E
:10218000110670E0E091EF05F091F00581EF95E028
:102190000995109211062CC084E08093920410924D
:1021A000EE051092E705E091EC05F091ED0509953B
:1021B0008091E705811105C081E08093E7051092C9
:1021C000C705E091EE0581E08E0F8093EE05F0E00B
:1021D000E953FA4F80818093BB009091EE05809186
:1021E000E705981708F47CCF85E88093BC000AC007
:1021F00085EC8093BC001092920404C0109290046D
:102200000E946815FF91EF91BF91AF919F918F91BF
:102210007F916F915F914F913F912F910F900FBEE2
:102220000F901F90189540911D0650911E06209109
:102230001B0630911C0642175307B4F49091E80036
:102240009570E1F39091E80092FD19C08093F10040
:1022500080911D0690911E0601968F739927892BF8
:1022600019F48EEF8093E80080911D0690911E0670
:10227000019690931E0680931D0681E0089580E0EC
:102280000895DF92EF92FF920F931F93CF93DF9306
:10229000D82E8A017B01E40EF51EEB01CE15DF0579
:1022A00071F0D7FE03C0FE01849101C088810E94B5
:1022B000131121968111F2CF8FEF9FEF01C0C8015A
:1022C000DF91CF911F910F91FF90EF90DF900895D4
:1022D000615030F02091F100FC0120830196F8CF8D
:1022E000289884E680936A040895CF92DF92EF9253
:1022F000FF920F931F93CF93DF936C017A018B01B1
:10230000C0E0D0E0CE15DF0589F0D8016D918D01D8
:10231000D601ED91FC910190F081E02DC601099567
:10232000892B11F47E0102C02196ECCFC701DF9109
:10233000CF911F910F91FF90EF90DF90CF90089574
:102340000F931F93CF93DF931F92CDB7DEB782E039
:10235000898342E450E063E771E080E80E94411124
:102360000E94AA0CDC0112960D911C911397011585
:10237000110569F0D801ED91FC910280F381E02D07
:10238000BE016F5F7F4FC801099597FF07C0898124
:102390000F90DF91CF911F910F910895F801008563
:1023A0001185E5CF1F920F920FB60F9211248F93D4
:1023B0009F938091E1009091E100937F9093E100E1
:1023C00083FF0FC01092E90091E09093EB00109210
:1023D000EC0092E39093ED0010926B0498E09093E0
:1023E000F00082FF20C093E09093E9009091F2000A
:1023F000992319F09AE39093E80090911A06992393
:1024000039F090911A06915090931A06992389F108
:1024100090916A04992339F090916A0491509093B5
:102420006A04992341F184FF10C08091E2008E7EFE
:1024300081608093E2008091E1008F7E8093E100D3
:10244000809119068E7E806111C080FF16C0809138
:10245000E2008E7E80618093E2008091E1008E7EBA
:102460008093E100809119068E7E81608093190629
:1024700004C05D9ACDCF289AD6CF9F918F910F90AF
:102480000FBE0F901F9018951F920F920FB60F92CC
:102490001124CF92DF92EF92FF920F931F932F930D
:1024A0003F934F935F936F937F938F939F93AF93DC
:1024B000BF93EF93FF93CF93DF93CDB7DEB76C97C6
:1024C000DEBFCDBF1092E9008091E80083FFEDC12F
:1024D00068E0CE0145960E94681182EF8093E80083
:1024E0008D8987FF05C09091E80090FFFCCF03C065
:1024F0009EEF9093E800982F907609F0C6C09E89D1
:102500002F89188D91110CC0803829F480911806FC
:102510008093F10002C01092F1001092F10048C1C6
:10252000422F50E0512B913051F4811141C1413083
:10253000510509F03DC1809118068D7F0BC0933085
:1025400061F4811135C14130510509F031C18091EB
:1025500018068260809318062BC1953041F4809153
:10256000E80080FFFCCF20682093E30021C1963073
:1025700009F05FC0EB8CFC8C1092E90010921E06F3
:1025800010921D06123091F510921C0610921B0637
:102590000E94A01199E0BE016F5F7F4FDB01E92F20
:1025A0001D92EA95E9F799831A8391E09E8390EA58
:1025B00098879AEF998720911D0630911E06275F14
:1025C0003F4F3C832B838D831092E90010921E06AF
:1025D00010921D06F0921C06E0921B0649E050E0A6
:1025E00080E00E9441110E94A011E2C0F0921C06FE
:1025F000E0921B060E94AA0CDC011296ED90FC9062
:102600001397E114F10409F4C0C0D701ED91FC91D6
:102610000480F581E02DBE016B5E7F4FC7010995F7
:10262000009719F00CF0C4C0C7C0F701E084F18432
:10263000E8CF973009F4C0C0983021F481E080934E
:10264000F100B6C0993009F0B3C0837009F0B4C08E
:10265000E4EDF3E081E021E036E39081992361F03D
:102660008093E9002093EB0091919093EC003093DC
:10267000ED008F5F873089F78EE78093EA00109234
:10268000EA008F8980936B0493C08B8D9C8D109290
:10269000E90010921E0610921D0690931C0680936E
:1026A0001B06898D811156C08E899D89913A59F4F6
:1026B000813209F081C047E050E06FEF72E080E0C6
:1026C0000E94411175C0913209F076C0833289F4BD
:1026D000888D90E0982F88272F89822BA0E0B0E08A
:1026E0008093FB029093FC02A093FD02B093FE0244
:1026F0005FC0803269F48091E80082FFFCCF67E020
:102700008FEF92E00E9468118BEF8093E80006C083
:10271000823209F04DC08F8980930603809117069D
:10272000882319F0EEEFFAE002C0E0E0F8E08091D3
:10273000FF0290910003A0910103B0910203803B3E
:102740009440A105B10509F07BC08091060380FF8C
:1027500093C076C00E94AA0CDC0112960D911C91C8
:1027600013970115110541F1D801ED91FC910190EC
:10277000F081E02DBE016B5E7F4FC801099581118C
:1027800017C0F80100851185ECCF113009F44EC057
:10279000133091F48F89882309F445C0823081F485
:1027A00040E860E187ED91E00E943F20882321F01E
:1027B0008EEF8093E80079C081E28093EB0075C0D2
:1027C000813029F440E86BE08BEC91E0EDCF833071
:1027D00099F70E94AA0CDC011296ED90FC901397D9
:1027E0008E010F5F1F4F6801E114F10479F0D701EA
:1027F000ED91FC910680F781E02DB801C7010995A4
:10280000080F111DF701E084F184EECFD8011C926E
:10281000F60101900020E9F73197BF016C197D099D
:1028200040E0C601C1CF65EB71E002C069EB71E029
:102830006115710509F2FB01449150E080E840CF39
:102840000FB6F894A895809160008861809360002D
:10285000109260000FBEA895EE3F2AE0F20739F013
:102860008091FE0A9091FF0A91838083A1CF1092FC
:10287000FF0A1092FE0A9CCFEE3F8AE0F80731F083
:10288000808191819093FF0A8093FE0A87E797E702
:10289000918380839BE088E10FB6F894A89580939C
:1028A00060000FBE9093600083CF6C960FB6F894D3
:1028B000DEBF0FBECDBFDF91CF91FF91EF91BF91F2
:1028C000AF919F918F917F916F915F914F913F91C8
:1028D0002F911F910F91FF90EF90DF90CF900F906D
:1028E0000FBE0F901F9018956115710579F0FB01CF
:1028F00001900020E9F73197AF01461B570BDC012F
:10290000ED91FC910280F381E02D099480E090E04C
:1029100008954F925F926F927F92EF92FF920F9382
:102920001F93CF93DF93CDB7DEB7A1970FB6F8947F
:10293000DEBF0FBECDBF7C01FA01CB0119A2223050
:1029400008F42AE08E010F5D1F4F422E512C612C9E
:10295000712CBF01A30192010E94C621F901CA0195
:10296000015011096A3014F4605D01C0695CD8013E
:102970006C93232B242B252B61F7B801C7010E94F0
:102980007414A1960FB6F894DEBF0FBECDBFDF91D1
:10299000CF911F910F91FF90EF907F906F905F907C
:1029A0004F9008950895E091010480910004E81784
:1029B00030F4F0E0E15EF94F808190E008958FEF10
:1029C0009FEF08959091010480910004981750F4AE
:1029D000E92FF0E0E15EF94F208130E09F5F9093B6
:1029E000010402C02FEF3FEFC90108958091000458
:1029F00090E020910104821B91090895CF92DF920B
:102A0000EF92FF920F931F93CF93DF937C018A0184
:102A100080919304882389F0EB016B01C40ED51ECD
:102A2000CC15DD05F1F06991D701ED91FC91019094
:102A3000F081E02DC7010995F3CF842F413288F44E
:102A400090919204943069F44093E705FB0127ECE0
:102A500035E0D9019A2F921B981718F491919D9304
:102A6000F9CFC801DF91CF911F910F91FF90EF90A7
:102A7000DF90CF900895209193042223C9F02091F4
:102A8000B604203240F021E030E0FC0133832283A1
:102A900080E090E0089580919404E82FF0E0EB56F8
:102AA000FB4F60838F5F809394048093B60409C0CA
:102AB00080919204843029F481E08093E70560934B
:102AC000C70581E090E00895089580E090E00895C2
:102AD00085ED8093BC008091BC0084FDFCCF1092FA
:102AE00092040895DC01FB014C9111965C911197C1
:102AF00012967C91342F3F71330F330F832F880F41
:102B000035E5282F239F020E20E0211D1124642F7C
:102B10006074942F907247FD21C061110BC0911118
:102B200004C0822F8095422F11C045E5420F30E04E
:102B30002BEA33C091110DC0382F4AEA349F030E9F
:102B400030E0311D11248BEA831B420F282F30E027
:102B500024C080E0422F4095322F0EC0611111C079
:102B600091110CC0382F2AEA329F030E30E0311D3C
:102B700011244BEA431B3B5A20E00FC0322F309503
:102B80000BC0911104C085E5820F3BEA03C08AEABD
:102B9000820F90E0321B282F40E05F3F11F1552358
:102BA000E9F0222321F0259F020E20E0211D44237D
:102BB00021F0459F040E40E0411D332321F0359F55
:102BC000030E30E0311D11245095559F050E50E045
:102BD000511D1124250F450F350F03C03FEF4FEF57
:102BE0002FEF7F3F09F420C050E0772321F0779F3B
:102BF000512D09F05F5F5523A1F0222321F0259F7D
:102C0000020E20E0211D442321F0459F040E40E0E8
:102C1000411D332321F0359F030E30E0311D112477
:102C200003C030E040E020E02083418332830895F8
:102C3000EF92FF920F931F93CF93DF93EC0190914C
:102C40003F069F5F292F277020933F0690FF02C009
:102C500090E801C090E021FD9064247009F090623A
:102C600020E1290FFE013C967E018FE0E80EF11C69
:102C700000E011E06191662331F070E0C8010E942C
:102C800096236F5F01C060E0DF0114976C93322FD1
:102C9000369F030E30E0311D1124CF01079731110B
:102CA00003C0EC01188203C03150EC013883662365
:102CB00011F061506C93EE15FF05E1F6DF91CF91B5
:102CC0001F910F91FF90EF900895CF93DF93CDB7B1
:102CD000DEB761970FB6F894DEBF0FBECDBF789414
:102CE00084B5826084BD84B5816084BD85B5826011
:102CF00085BD85B5816085BD80916E0081608093C2
:102D00006E0010928100809181008260809381002A
:102D1000809181008160809381008091800081603A
:102D200080938000809191008260809391008091D7
:102D300091008160809391008091900081608093E8
:102D400090008091C10084608093C1008091C10097
:102D500082608093C1008091C10081608093C10036
:102D60008091C30081608093C3008091C000826025
:102D70008093C0008091C20081608093C2008091E6
:102D80007A00846080937A0080917A0082608093D8
:102D90007A0080917A00816080937A0080917A0035
:102DA000806880937A0010926B041092180610923B
:102DB00019068091D70081608093D70080EA8093C4
:102DC000D80089B5806189BD89B5826089BD09B4A3
:102DD00000FEFDCF61E070E080E090E00E94100E08
:102DE0008091D8008F7C80618093D8008091E00032
:102DF000807F8093E0008091E1008E7E8093E100EF
:102E00008DE08093E200559A209AEEEFFFE78591DE
:102E100094918B3F9C4D19F481E08093170610929A
:102E2000590510925A0510925B0510925C0510929C
:102E30001705109218051092190510921A0568EBE3
:102E40007BE080E090E00E94480C89EB94E0909356
:102E50005805809357050BE110E0F09006036AE0F7
:102E600070E080E090E00E94100EF1100AC0015066
:102E7000110939F064E670E080E090E00E94100EE5
:102E8000ECCFE0915705F09158050FEF1FEF158734
:102E900004870E94CF0E60931705709318058093E6
:102EA000190590931A056AED73E08091570590918A
:102EB00058050E9474146AE070E080E090E00E947F
:102EC000480CFF24F394F0922B051093C604009352
:102ED000C5048CE390E0909383058093820584EB96
:102EE00090E00E94CB238C01909381058093800514
:102EF00084E690E0909388058093870528EC30E085
:102F000030938C0520938B0590938A0580938905D7
:102F100084E18093860580912104811144C0109240
:102F20001304109212049FEF9093160490931704C9
:102F3000909318049093190490931A0490931B048F
:102F4000F0921C0410921E0410921D04109215049D
:102F5000109214048091B7049091B804892B31F435
:102F600080E194E09093B8048093B704E0910E045C
:102F7000F0910F04309721F080E194E095838483F1
:102F800080E194E090930F0480930E04109220044B
:102F900010921F0481E293E0909311048093100437
:102FA00081E080932104E0911004F09111040480E9
:102FB000F581E02D80E194E00995109313040093CE
:102FC00012048CE390E090931E0480931D04E09122
:102FD0001004F09111040284F385E02D80E194E067
:102FE0000995009729F19C0140E050E060E472E40B
:102FF0008FE090E00E94E821722F632F009160051E
:10300000109161052091620530916305872F962FFD
:10301000DA0180179107A207B30710F4D901C8019C
:103020008093600590936105A0936205B09363055A
:10303000E091B704F091B804309729F01486048029
:10304000F581E02DF9CF10920804109207040E9438
:10305000310780915D050E947A0A10920104109256
:103060000004109294041092B6041092920481E02D
:103070008093910410926C0461E082E00E947F0DC5
:1030800061E083E00E947F0D8091B9008E7F809384
:10309000B9008091B9008D7F8093B90088E4809356
:1030A000B80085E48093BC0060E870E08BE690E0B7
:1030B0000E94090C62E370E080E090E00E94100E34
:1030C00061E070E089E190E00E94090C63E070E04B
:1030D0008BE690E00E94090C6EE170E080E090E0E9
:1030E0000E94100E68E170E08BE190E00E94090CF4
:1030F0006EE170E080E090E00E94100E68EE70E0FB
:103100008CE190E00E94090C64E170E080E090E0C6
:103110000E94100E80E090E00E94A0218A3239F4D3
:1031200081E090E00E94A021882309F45AC662E061
:1031300088E00E94AF0D62E08FE00E94AF0D62E078
:1031400080E10E94AF0D61E08EE00E94AF0D60E073
:103150008EE00E947F0D61E086E00E94AF0D60E08E
:1031600086E00E947F0D80917F05823030F4F894D4
:1031700084E795E00E94820601C0F8947894F89460
:1031800010927B0510927C0510927D0510927E05B1
:1031900078940E94240C809300010E94310761E022
:1031A0008AE00E94AF0D81E18093C00081E08093AE
:1031B000C10080E48093C4001092C30080E8809333
:1031C000D1001092800089E08093810080E092E03D
:1031D000909389008093880080916F008260809333
:1031E0006F00F8E72F2E312C0E94CF0E672B682B33
:1031F000692B41F40E94CF0E623071058105910563
:1032000008F40EC10E94CF0E60935D0470935E04BB
:1032100080935F04909360040091590410915A04C4
:1032200020915B0430915C0460177107820793075B
:1032300040F46093590470935A0480935B04909314
:103240005C040091590410915A0420915B04309160
:103250005C046B017C01C01AD10AE20AF30A9701EF
:1032600086010A3F11052105310508F4D9C0609394
:10327000590470935A0480935B0490935C0484EF28
:1032800091E0A0E0B0E08093230590932405A09303
:103290002505B09326051092270510922805109257
:1032A000290510922A0580911B0590911C05A0917B
:1032B0001D05B0911E0580931F0590932005A093D6
:1032C0002105B09322050E94CF0E60931B057093D9
:1032D0001C0580931D0590931E050E94CF0E6093E0
:1032E0001705709318058093190590931A050E948D
:1032F000CF0E4B015C016CEE73E08091570590910D
:1033000058050E9474142AE041E050E060E070E04B
:1033100080915705909158050E94891463EF73E0DE
:1033200080915705909158050E9474142AE0B501C8
:10333000A40180915705909158050E94891465EF6A
:1033400073E080915705909158050E947414809104
:103350001B0590911C05A0911D05B0911E05B5019E
:10336000A401481B590B6A0B7B0B2AE0809157057F
:10337000909158050E94891465EF73E0809157057C
:10338000909158050E94741440911B0550911C05A2
:1033900060911D0570911E0580911F05909120057B
:1033A000A0912105B0912205481B590B6A0B7B0B9C
:1033B0002AE080915705909158050E94891467EF83
:1033C00073E080915705909158050E9474140E94F3
:1033D000CF0EAB01BC012AE08091570590915805B2
:1033E0000E948914009157051091580569EF73E008
:1033F000C8010E94741469EE73E0C8010E9474143D
:1034000062E070E080E090E00E94480C0E94CF0EE5
:1034100060931B0570931C0580931D0590931E05FA
:103420008091570490915804A1E08A279093580402
:103430008093570480FF7FC061E574E083E40E94BD
:1034400017086091510470915204262F2F708091BB
:10345000310490913204880F991F8227909332048F
:1034600080933104072E000C880B990B0E94832057
:1034700069837A838B839C83609155047091560491
:10348000072E000C880B990B0E9483206D837E838E
:103490008F83988719861A861B861C86CE01019613
:1034A0000E94DB074B015C0140904D0450904E049C
:1034B00060904F04709050049B01AC01C301B201B5
:1034C0000E94212220E030E046E953E40E948E224F
:1034D0009B01AC01C301B2010E9421229B01AC01FE
:1034E00060934D0470934E0480934F049093500466
:1034F000C501B4010E94212220E030E048E452E4FA
:103500000E948E222091490430914A0440914B043C
:1035100050914C040E94222220E030E040E05FE322
:103520000E94E2206093490470934A0480934B0404
:1035300090934C04E2C063E474E08BE30E941708AC
:103540000091430410914404202F2F708091310486
:1035500090913204880F991F8227909332048093B0
:1035600031046091450470914604072E000C880BCD
:10357000990B0E94832020913B0430913C044091A0
:103580003D0450913E040E9422222B013C01609197
:10359000470470914804072E000C880B990B0E9479
:1035A000832020913F043091400440914104509188
:1035B00042040E9422224B015C01B801110F880BCA
:1035C000990B0E9483202091370430913804409158
:1035D000390450913A040E94222224EA30E74DE750
:1035E0005FE30E94E2206093370470933804809375
:1035F000390490933A0424EA30E74DE75FE3C301CE
:10360000B2010E94E22060933B0470933C048093DB
:103610003D0490933E0424EA30E74DE75FE3C501A3
:10362000B4010E94E22060933F04709340048093B1
:1036300041049093420487E394E00E94DB0720E07A
:1036400030E44CE156E40E948E224B015C01409034
:1036500016015090170160901801709019019B019C
:10366000AC01C301B2010E94212220E030E040E21F
:1036700051E40E948E229B01AC01C301B2010E9461
:103680002122609316017093170180931801909383
:103690001901A50194010E9421224B015C0120E047
:1036A00030E0A9010E943623181624F0B7FAB0942E
:1036B000B7F8B094C501B4010E9441234B015C01ED
:1036C00020E030E040E85FE30E94362318164CF01B
:1036D0008092330490923404A0923504B092360460
:1036E0000CC080E090E0A0E8BFE3809333049093A7
:1036F0003404A0933504B09336040E94240C9091B6
:1037000000018917A9F1909129049F5F90932904E2
:10371000933028F080930001813039F412C0BF85C6
:10372000B13019F0B23069F024C081E08093060412
:10373000E8ECF0E0F0930504E0930404F1E0FF8787
:103740003DC080910604813041F480910C04909139
:103750000D04892B11F40E942407109206040E9484
:103760003107109205041092040422E02F8726C02E
:103770001F86809104049091050418161906F4F42C
:1037800001979093050480930404892BB9F48091E8
:103790000C0490910D048330910534F4813091052F
:1037A00044F4892B19F007C0039729F40E942407D9
:1037B00002C00E94DC0684E0809306040E94EE08AA
:1037C00080913104909132048370992720911401E3
:1037D00030911501820F931F909313018093120172
:1037E000809110019091110190930F0180930E012F
:1037F000E3EEF0E0849190917B0083FBFF27F0F9EA
:10380000F88B198A2889398955E0220F331F5A9578
:10381000E1F79F7D292B20937B0087708064809344
:103820007C0080917A00806480937A0080917A0095
:1038300086FDFCCF809178002091790090E0922B5A
:10384000803791404CF580912F049091300400977F
:10385000E9F484E090E090930D0480930C0480914F
:103860002E0481110AC081E080932E04A8ECB0E000
:10387000B0933004A0932F0419C010922E04E0E9F5
:10388000F1E0F0933004E0932F0410C0019790937F
:10389000300480932F040AC040E9C42EDD24D39461
:1038A000D0923004C0922F0410922E040E94EE0891
:1038B00080910C0490910D048230910509F4ACC103
:1038C0002CF4009759F0019759F183C28330910588
:1038D00009F4F4C1049709F448C27BC210920B04A6
:1038E00010920A041092090410922A0410922B04D8
:1038F00010922C0410922D0420E030E048EC52E4A9
:103900006091490470914A0480914B0490914C0459
:103910000E94362318160CF05CC20E94240759C27C
:10392000E0904904F0904A0400914B0410914C043B
:1039300020E030E0A901B701C8010E947C2087FD8A
:1039400011C020E030E04CE053E4B701C8010E9410
:103950003623181664F4912CA12C20EFB22E32E4F9
:10396000C32E09C0912CA12CB12CC12C04C09E2CBB
:10397000AF2CB02EC12E40902A0450902B046090A2
:103980002C0470902D04A3019201692D7A2D8B2DAA
:103990009C2D0E94362318166CF4892D9A2DAB2D80
:1039A000BC2D80932A0490932B04A0932C04B093F5
:1039B0002D043DC060910C0170910D01072E000C8B
:1039C000880B990B0E94832020E030E040E256E40F
:1039D0000E948E222AE939E949E75FE30E94222208
:1039E0009B01AC01C301B2010E94E22060932A0452
:1039F00070932B0480932C0490932D042DEC3CECBD
:103A00004CEC5FE30E948E22562E672E782E892E74
:103A1000262F372F482F592F692D7A2D8B2D9C2D2E
:103A20000E94362318161CF0952C5301C82C20E058
:103A300030E040E85BE3692D7A2D8B2D9C2D0E94B0
:103A4000E2204B015C01C0900B016C2D70E080E026
:103A500090E00E9483209B01AC01C501B4010E944B
:103A6000E2202B013C01A09009042A2D30E03E8782
:103A70002D87B901330F880B990B0E9483204B01CE
:103A80005C019B01AC01C301B2010E9436231816F0
:103A90005CF0A5019401C301B2010E947C2087FF64
:103AA00006C068EF7FEF05C060E170E002C060E033
:103AB00070E02FEF30E040E050E08D859E850E9461
:103AC000D4085C01809309046091090170910A0196
:103AD000072E000C880B990B0E9483209B01AC01E0
:103AE000B701C8010E948E222B013C016091100198
:103AF00070911101072E000C880B990B0E948320F6
:103B0000A30192010E9422220E94002370930F01C0
:103B100060930E016091070170910801072E000C5F
:103B2000880B990B0E948320A30192010E942222FC
:103B30000E940023709306016093050140903304B6
:103B400050903404609035047090360420E030E0EA
:103B500040E85FE3B201C3010E94362318163CF42B
:103B6000912CD12C90E8892E3FE33D8704C0942C02
:103B7000D52C862C7D8620E030E040E052E4692D93
:103B80007D2D882D9D850E94E2200E940023685F84
:103B90006C9DB001112470930B0420E030E040E2F2
:103BA00052E4692D7D2D882D9D850E94E2200E9482
:103BB0000023645F6C9DB0011124BB24872F90E02B
:103BC0008A159B0508F4C50180930A042DEC3CEC92
:103BD0004CEC5EE3B201C3010E947C2087FF15C05C
:103BE00020E030E040E251E4B701C8010E947C20AF
:103BF00087FF0BC08091030190910401009719F495
:103C00000E94DC06E6C0019702C080E49FE1909329
:103C1000040180930301DDC0209107043091080462
:103C2000283731058CF58091010190910201820FB6
:103C3000931F893791052CF490930804809307040F
:103C400004C030920804209207040E94310780913A
:103C50000B0198E2899F9001112430930B04ACE88A
:103C60008A9F9001112430930A04B8E78B9FC0010A
:103C70001124909309048091070490910804F101A4
:103C8000E81BF90BCF0157C0CC24C394D12CD092A0
:103C90000D04C0920C0480E090E0A8ECB2E48093A4
:103CA000490490934A04A0934B04B0934C04A0E4BD
:103CB000BFE1B0930401A09303018BC0809107047E
:103CC00090910804181619060CF04AC001979093B9
:103CD0000804809307040E94310720910704309163
:103CE000080440910B01429FC001439F900D112495
:103CF000B1010E94962380910B0490E0462F861715
:103D000097070CF4482F40930B0480910A0490E02D
:103D1000462F861797070CF4482F40930A0480918A
:103D2000090490E0861797070CF4BC01609309041E
:103D3000C101821B930B2091100130911101280FBA
:103D4000391F30930F0120930E012091070130910C
:103D50000801820F931F909306018093050139C0DB
:103D600010920D0410920C0434C0809107049091BD
:103D70000804181619063CF40197909308048093E0
:103D800007040E94310780912E04882311F08FEFE1
:103D900001C080E0E0918005F0918105808311826F
:103DA000128280915D050E947A0A10920B04109293
:103DB0000A0480912E04811103C01092090409C0E5
:103DC000E0E0F1E0F0930601E09305018FEF8093CE
:103DD000090480E090E0892B09F406CA0E940000E3
:103DE00000CA82E090E00E94A02190E0909303043A
:103DF0008093020483E090E00E94A02180930B0155
:103E000084E090E00E94A02190E0909315018093BF
:103E1000140185E090E00E94A02190E090931101B0
:103E20008093100186E090E00E94A02190E09093A2
:103E300008018093070187E090E00E94A02190E0B4
:103E40008058910990930A01809309018CE090E0D9
:103E50000E94A02190E090930D0180930C018BE0D3
:103E600090E00E94A02190E09093020180930101D4
:103E70005EC9CF93DF931092BC041092BB0488EE0E
:103E800093E0A0E0B0E08093BD049093BE04A093C3
:103E9000BF04B093C00423EB33E03093BA04209303
:103EA000B9042FEF3FEF3093C6042093C50410925E
:103EB0000C0510920B0580930D0590930E05A093B1
:103EC0000F05B093100585EC93E090930A0580935D
:103ED000090510921B0510921C0510921D051092E9
:103EE0001E0510921F0510922005109221051092B8
:103EF0002205109223051092240510922505109298
:103F00002605109227051092280510922905109277
:103F10002A058FEF80935D0510925F0510925E0574
:103F200010926905109268054FEF5FEFBA01409358
:103F3000640550936505609366057093670524E6F4
:103F400030E030936B0520936A0580938D05809354
:103F50008E0580938F0580939005809391058093C3
:103F6000920590E89093930510929405909395058F
:103F700010929605909397051092980510929905C6
:103F800010929A0580939B0510929C0510929D05B6
:103F900080939E0580939F058093A0051092A105B4
:103FA0008093A20595EA9093A3051092A4058093AF
:103FB000A5059093A6051092A7058093A8051092D9
:103FC000A9051092AA058093AB051092AC0510923A
:103FD000AD051092AE051092AF051092B00510928B
:103FE00081051092800562E08FE00E94AF0D62E0D3
:103FF00080E10E94AF0DE7E4F1E0E491F0E0EE0F24
:10400000FF1FE65DFE4FA591B491B0937505A09397
:104010007405EAE1F1E0849180937805E8E4F1E049
:10402000E491F0E0EE0FFF1FE65DFE4FC591D491E5
:10403000D0937705C0937605EBE1F1E0E491E0934E
:10404000790510927B0510927C0510927D051092E7
:104050007E05EBE3FFE13197F1F7EC91E82381E096
:1040600009F480E0288190917905922309F082601B
:1040700080937A0510927F05DF91CF910895CF92BA
:10408000DF92EF92FF920F931F93CF93DF931F92D4
:10409000CDB7DEB7182F062FE42E862F880F8E5F40
:1040A00099830E94131183E00E941311F12EC12EF7
:1040B0009981D92E8C2D8F19801798F4F601E7FE7F
:1040C00002C0849101C080810E941311182F80E0EA
:1040D0000E9413118123FFEFCF1ADF0A8111EACF6B
:1040E00001C081E00F90DF91CF911F910F91FF9060
:1040F000EF90DF90CF9008950E94BE2008F481E0F9
:104100000895E89409C097FB3EF4909580957095CA
:1041100061957F4F8F4F9F4F9923A9F0F92F96E913
:10412000BB279395F695879577956795B795F11188
:10413000F8CFFAF4BB0F11F460FF1BC06F5F7F4F25
:104140008F4F9F4F16C0882311F096E911C0772337
:1041500021F09EE8872F762F05C0662371F096E840
:10416000862F70E060E02AF09A95660F771F881F0F
:10417000DAF7880F9695879597F90895990F0008B3
:10418000550FAA0BE0E8FEEF16161706E807F90729
:10419000C0F012161306E407F50798F0621B730BC4
:1041A000840B950B39F40A2661F0232B242B252B45
:1041B00021F408950A2609F4A140A6958FEF811DE8
:1041C000811D08950E94F5200C9466210E945821BB
:1041D00038F00E945F2120F0952311F00C944F21BC
:1041E0000C94552111240C949A210E94772170F38C
:1041F000959FC1F3950F50E0551F629FF001729F8C
:10420000BB27F00DB11D639FAA27F00DB11DAA1F9A
:10421000649F6627B00DA11D661F829F2227B00DE7
:10422000A11D621F739FB00DA11D621F839FA00D72
:10423000611D221F749F3327A00D611D231F849FC2
:10424000600D211D822F762F6A2F11249F57504019
:104250009AF0F1F088234AF0EE0FFF1FBB1F661F94
:10426000771F881F91505040A9F79E3F510580F05D
:104270000C944F210C949A215F3FE4F3983ED4F3C1
:10428000869577956795B795F795E7959F5FC1F701
:10429000FE2B880F911D9695879597F9089597F9AC
:1042A0009F6780E870E060E008959FEF80EC0895DC
:1042B00000240A9416161706180609060895002405
:1042C0000A9412161306140605060895092E03947F
:1042D000000C11F4882352F0BB0F40F4BF2B11F4F3
:1042E00060FF04C06F5F7F4F8F4F9F4F089557FD52
:1042F0009058440F551F59F05F3F71F04795880F54
:1043000097FB991F61F09F3F79F0879508951216EA
:1043100013061406551FF2CF4695F1DF08C0161696
:1043200017061806991FF1CF869571056105089447
:104330000895E894BB2766277727CB0197F908955E
:10434000F999FECF92BD81BDF89A992780B508955D
:10435000262FF999FECF1FBA92BD81BD20BD0FB6A1
:10436000F894FA9AF99A0FBE01960895DB018F939B
:104370009F930E940722BF91AF91A29F800D911D34
:10438000A39F900DB29F900D11240895A1E21A2EC3
:10439000AA1BBB1BFD010DC0AA1FBB1FEE1FFF1FE9
:1043A000A217B307E407F50720F0A21BB30BE40B39
:1043B000F50B661F771F881F991F1A9469F7609580
:1043C0007095809590959B01AC01BD01CF0108953A
:1043D000052E97FB1EF400940E94FF2157FD07D085
:1043E0000E94C62107FC03D04EF40C94FF21509587
:1043F0004095309521953F4F4F4F5F4F08959095D1
:104400008095709561957F4F8F4F9F4F08950E94C3
:104410001222A59F900DB49F900DA49F800D911D19
:1044200011240895A29FB001B39FC001A39F700DF6
:10443000811D1124911DB29F700D811D1124911DAC
:1044400008955058BB27AA270E9439220C94662150
:104450000E94582138F00E945F2120F039F49F3FDC
:1044600019F426F40C9455210EF4E095E7FB0C9416
:104470004F21E92F0E94772158F3BA17620773077B
:104480008407950720F079F4A6F50C9499210EF491
:10449000E0950B2EBA2FA02D0B01B90190010C0154
:1044A000CA01A0011124FF27591B99F0593F50F46C
:1044B000503E68F11A16F040A22F232F342F4427C4
:1044C000585FF3CF469537952795A795F0405395BC
:1044D000C9F77EF41F16BA0B620B730B840BBAF08C
:1044E0009150A1F0FF0FBB1F661F771F881FC2F7F7
:1044F0000EC0BA0F621F731F841F48F4879577950B
:104500006795B795F7959E3F08F0B0CF9395880FC4
:1045100008F09927EE0F9795879508950E94A2229B
:104520000C9466210E945F2158F00E94582140F0AF
:1045300029F45F3F29F00C944F2151110C949A21DA
:104540000C9455210E94772168F39923B1F35523E8
:1045500091F3951B550BBB27AA2762177307840796
:1045600038F09F5F5F4F220F331F441FAA1FA9F32C
:1045700035D00E2E3AF0E0E832D091505040E6951A
:10458000001CCAF72BD0FE2F29D0660F771F881F7B
:10459000BB1F261737074807AB07B0E809F0BB0B6E
:1045A000802DBF01FF2793585F4F3AF09E3F510582
:1045B00078F00C944F210C949A215F3FE4F3983EDD
:1045C000D4F3869577956795B795F7959F5FC9F76B
:1045D000880F911D9695879597F90895E1E0660FEC
:1045E000771F881FBB1F621773078407BA0720F065
:1045F000621B730B840BBA0BEE1F88F7E0950895CE
:104600000E9407236894B1110C949A2108950E9486
:104610007F2188F09F5798F0B92F9927B751B0F0B4
:10462000E1F0660F771F881F991F1AF0BA95C9F736
:1046300014C0B13091F00E949921B1E008950C941A
:104640009921672F782F8827B85F39F0B93FCCF3CD
:10465000869577956795B395D9F73EF490958095B3
:10466000709561957F4F8F4F9F4F08950E94BE2098
:1046700008F48FEF089519F416F40C9455210C9456
:1046800081230E947F21B8F39923C9F3B6F39F5782
:10469000550B87FF0E948F230024A0E640EA90017B
:1046A00080585695979528F4805C660F771F881F71
:1046B00020F026173707480730F4621B730B840B72
:1046C000202931294A2BA6951794079420253125B6
:1046D0004A2758F7660F771F881F20F026173707DD
:1046E000480730F4620B730B840B200D311D411D04
:1046F000A09581F7B901842F9158880F96958795D9
:1047000008959F3F31F0915020F4879577956795F4
:10471000B795880F911D9695879597F908959150B3
:104720005040660F771F881FD2F7089597FB072E1A
:1047300016F4009407D077FD09D00E94B72307FC38
:1047400005D03EF4909581959F4F089570956195A1
:104750007F4F0895EE0FFF1F0590F491E02D09940F
:104760000E941222B7FF0895821B930B0895AA1B83
:10477000BB1B51E107C0AA1FBB1FA617B70710F04C
:10478000A61BB70B881F991F5A95A9F7809590957E
:10479000BC01CD010895CF93DF938230910510F4D1
:1047A00082E090E0E0914206F091430620E030E0A4
:1047B000C0E0D0E0309711F140815181481759078E
:1047C000C0F04817590761F482819381209719F04E
:1047D0009B838A832BC0909343068093420626C016
:1047E0002115310519F04217530718F49A01BE013B
:1047F000DF01EF010280F381E02DDCCF21153105CF
:1048000009F1281B390B2430310590F412968D9153
:104810009C9113976115710521F0FB0193838283AD
:1048200004C09093430680934206FD01329644C033
:10483000FD01E20FF31F81939193225031092D93D3
:104840003C933AC02091400630914106232B41F41D
:104850002091090330910A033093410620934006CA
:1048600020910703309108032115310541F42DB73C
:104870003EB740910B0350910C03241B350BE09184
:104880004006F0914106E217F307A0F42E1B3F0B00
:104890002817390778F0AC014E5F5F4F24173507B2
:1048A00048F04E0F5F1F509341064093400681939E
:1048B000919302C0E0E0F0E0CF01DF91CF91089545
:1048C0000F931F93CF93DF93009709F48CC0FC01E3
:1048D000329713821282009142061091430601150D
:1048E000110581F420813181820F931F20914006B0
:1048F000309141062817390779F5F0934106E09386
:10490000400671C0D80140E050E0AE17BF0750F438
:1049100012962D913C911397AD012115310509F1A6
:10492000D901F3CF9D01DA01338322836081718144
:10493000860F971F8217930769F4EC01288139814C
:10494000260F371F2E5F3F4F318320838A819B8143
:1049500093838283452B29F4F0934306E093420628
:1049600042C01396FC93EE931297ED014991599131
:104970009E01240F351FE217F30771F480819181A6
:10498000840F951F029611969C938E93828193813A
:1049900013969C938E931297E0E0F0E0D801129664
:1049A0008D919C911397009719F0F8018C01F6CF27
:1049B0008D919C9198012E5F3F4F820F931F209104
:1049C0004006309141062817390769F4309729F4D9
:1049D000109243061092420602C013821282109374
:1049E000410600934006DF91CF911F910F910895EA
:0E49F00081E090E0F8940C94FD24F894FFCF41
:1049FE00010300401F340034002800F08000320014
:104A0E0032002F002F00CDCCD4417A736E625D5FE1
:104A1E0063707B85939EABB4C1C9CCCAC0B9B3AC2D
:104A2E00AAA3A0A19891877665534537342E2225E7
:104A3E00282F3C485360747C8A9599A4A29F9A951E
:104A4E00908B8D8D8F9093969797928B8678645AD4
:104A5E004E484A4D555D6F8597ABBAC7CACAC9BC99
:104A6E00B6AEA29E9E9D979289786A554941373679
:104A7E0034333D45506172828F999CA2A1989088E3
:104A8E007F7677767B8782817C7A87919C998D7FE2
:104A9E007365564C494B53606F7C8B98A4B0BAC665
:104AAE00CAC0AF93715238261E1D2632455C7389DB
:104ABE0098A2A9ADA89E928378726C6B7179828D43
:104ACE0096989492939499A0A7A8A5A39F98928F35
:104ADE0088837A6C5E504743445061718397A6B5C4
:104AEE00C1CCD1C8BAA07E5E412C1D171B24344AFE
:104AFE0063798C9AA1A7A59C9081766E68666A727E
:104B0E007A838B8D898687888E99A1A6A6A6A39C6B
:104B1E009899969182827565554B5E747C71575843
:104B2E0089AEB3C8D4BD834B34426D9FD6F7F5D64C
:104B3E00B5A89B8B775731191B293C6499BEBA9F38
:104B4E0087766B66676E7E959E8E755C575D5F632E
:104B5E0062615B56575664829FB8CFE0E2D9C39D1F
:104B6E00847D7A7A7B8590988E72615C6A81949D41
:104B7E009F947A5E483D383E4A5D748085827C778C
:104B8E0073767D96B4C5C5BEB5A693826E5A565938
:104B9E005C6066696D6F696C788893A1A7A4A09D0F
:104BAE009E9E998D837D736D747F80786A5745378D
:104BBE003647647A8B938E8B8E99A8B5BEC5C7BCCB
:104BCE00A8988E8B877F797F80807E72685E595C15
:104BDE005C646F7D80766B6269747F8A9295908635
:104BEE007BF90CF90CF90CF90CF90CFFFFFFFF0027
:104BFE00E1000000000000000044068000000000FC
:104C0E0000400D400D400D3B0437043404000000FD
:104C1E00007003B30322013B0437041F012401B4C7
:104C2E0000C800D200DC00B400C000F000D2001EAC
:104C3E00001E002300280028002D00F6FF1E003461
:104C4E0000330036003C003400390032002F0032B1
:104C5E0000320037003C003200320032002F002FAD
:104C6E000030002F0032002F00320031002D0003E3
:104C7E00000200020003000200030002000100FF18
:104C8E0000FF00FF002000FF00FF00FF00FF00906C
:104C9E0000600040009000A000C000200000000056
:104CAE00000000BE0C4A0EFA0CD40CDF0C220DFED6
:104CBE000C000000003B15FE146515D214F614E22C
:104CCE0014D31400C18081000000564D4450565F2D
:104CDE00317C315F564D4450560D0A00564D4450AE
:104CEE00455F003A323A007C005F564D4450450015
:00000001FF
