:100000000C94F4000C9444070C941D070C941C01F0
:100010000C941C010C941C010C941C010C941C01EC
:100020000C941C010C941C010C941C010C94870C66
:100030000C941C010C941C010C941C010C941C01CC
:100040000C94D3060C941C010C94A1050C947B0514
:100050000C941C010C941C010C941C010C941C01AC
:100060000C946B070C941C01300E6E0E800ED80E93
:10007000ED0EF80E0C0F170F220F2D0F380F00FF8B
:100080001A1A80CC0000FFB3000097A0895B5A0FBA
:10009000830DC95F6035C2E907E18C24671E458E78
:1000A000086325F0150A17BE0694F778EA4B001A84
:1000B000C53E5EFCDBCB75230B2039B12158ED9595
:1000C0003857AE147D88ABA844AF4AA547868B301D
:1000D0001BA64D929EE7536FE57A3CD385E6DC691B
:1000E0005C29372EF528F4668F3641193FA101D8D7
:1000F0005049D14C84BBD05912A9C8C4878274BC62
:100100009F56A4646DC6ADBA034034D9E2FA7C7B35
:1001100005CA2693767EFF5255D4CFCE3BE32F10EF
:100120003A11B6BD1C2ADFB7AAD577F898022C9AE7
:10013000A346DD99659BA72BAC09811627FD1362A9
:100140006C6E4F71E0E8B2B97068DAF661E4FB22D8
:10015000F2C1EED2900CBFB3A2F1513391EBF90E84
:10016000EF6B31C0D61FB5C76A9DB854CCB0737958
:10017000322D7F0496FE8AECCD5DDE72431D184859
:10018000F38D80C34E42D73D9CB4970000000024FD
:100190000027002A0000000000250028002B000096
:1001A0000000080002010000030407000000000036
:1001B0000000000102040810204080010204081021
:1001C000200102040810200000000023002600295E
:1001D00000040404040404040402020202020203F0
:1001E000030303030300301E11241FBECFEFD8E02A
:1001F000DEBFCDBF14E0A0E0B1E0E8E9F8E402C062
:1002000005900D92A231B107D9F726E0A2E1B4E042
:1002100001C01D92A83FB207E1F710E0C4EFD0E0A3
:1002200004C02197FE010E94F722C33FD107C9F7FE
:100230000E94AB120C944A240C94000080E991E0D7
:1002400008953A9A08954F925F926F927F928F929B
:10025000AF92BF92CF92EF92FF920F931F93CF93E3
:10026000DF933C01EB010E946806F301278530898A
:10027000621B730B6A307105B0F3F894E881F98161
:1002800058B1546088B18B7F88B96A859F81262FC9
:10029000291B922F2F83BF844A805B807D85FC843D
:1002A000EE847F5FF394E3943E814885A984CB84F8
:1002B0001181D20120E0C32F022F322F318111276B
:1002C00088943111390F08F43FEF9195889470FDAF
:1002D000130F1795889471FD130F1795889472FD6D
:1002E000130F1795889473FD130F1795889474FD59
:1002F000130F1795889475FD130F1795889476FD45
:10030000130F1795889477FD130F17958894232F53
:100310007111212F960F122F002C58B900C017FF12
:1003200088B930812227889400C000C0002C88B989
:1003300031113C0F00C0002C58B900C016FF88B91D
:1003400008F43FEFC195889400C000C0002C88B924
:10035000F0FC230F00C0002C58B900C015FF88B96D
:1003600027958894F1FC230F00C000C0002C88B9A9
:100370002795889400C0002C58B900C014FF88B994
:10038000F2FC230F2795889400C000C0002C88B988
:10039000F3FC230F00C0002C58B900C013FF88B92C
:1003A00027958894F4FC230F00C000C0002C88B966
:1003B0002795889400C0002C58B900C012FF88B956
:1003C000F5FC230F2795889400C000C0002C88B945
:1003D000F6FC230F00C0002C58B900C011FF88B9EB
:1003E00027958894F7FC230F00C000C0002C88B923
:1003F0002795889400C0002C58B900C010FF88B918
:10040000132FF110122FCA0D00C000C0002C88B9A4
:1004100000C000C0002C58B900C017FF88B9328155
:100420002227889400C000C0002C88B93111340FF5
:1004300000C0002C58B900C016FF88B908F43FEF7F
:10044000EB0DF11D00C000C0002C88B9E0FC230FAB
:1004500000C0002C58B900C015FF88B927958894B2
:10046000E1FC230F00C000C0002C88B927958894B8
:1004700000C0002C58B900C014FF88B9E2FC230F5B
:100480002795889400C000C0002C88B9E3FC230F96
:1004900000C0002C58B900C013FF88B92795889474
:1004A000E4FC230F00C000C0002C88B92795889475
:1004B00000C0002C58B900C012FF88B9E5FC230F1A
:1004C0002795889400C000C0002C88B9E6FC230F53
:1004D00000C0002C58B900C011FF88B92795889436
:1004E000E7FC230F00C000C0002C88B92795889432
:1004F00000C0002C58B900C010FF88B9132FE110BC
:10050000122F419500C000C0002C88B94C0D00C0CE
:1005100000C058B900C017FF88B9318122278894DC
:1005200000C000C0002C88B93111390F00C0002C68
:1005300058B900C016FF88B908F43FEF9195889428
:1005400000C000C0002C88B970FD230F00C0002C33
:1005500058B900C015FF88B92795889471FD230FFD
:1005600000C000C0002C88B92795889400C0002CDA
:1005700058B900C014FF88B972FD230F27958894DD
:1005800000C000C0002C88B973FD230F00C0002CF0
:1005900058B900C013FF88B92795889474FD230FBC
:1005A00000C000C0002C88B92795889400C0002C9A
:1005B00058B900C012FF88B975FD230F279588949C
:1005C00000C000C0002C88B976FD230F00C0002CAD
:1005D00058B900C011FF88B92795889477FD230F7B
:1005E00000C000C0002C88B92795889400C0002C5A
:1005F00058B900C010FF88B9132F7111122F960F30
:1006000000C000C0002C88B9119709F086CE20EEFA
:1006100031E0D2010E94FD22DC01CB01F4E0B6956D
:10062000A79597958795FA95D1F720E030E0A90135
:100630006AE9469E040C411D569E400D511D112431
:10064000450D511D840F951FA11DB11D893E43E02D
:100650009407A105B10508F434C0885E9340A10950
:10066000B10942E0B695A795979587954A95D1F738
:1006700047E0849F080E211D949F200D311D1124F9
:10068000290F311D6091750470E0860F971F820F4E
:10069000931F409196045091970460919804709133
:1006A0009904292F3327420F531F611D711D409359
:1006B00096045093970460939804709399048093E0
:1006C000750478940E946806F301708B6787DF9148
:1006D000CF911F910F91FF90EF90CF90BF90AF906F
:1006E0008F907F906F905F904F9008950F931F931E
:1006F000CF93DF93CDB7DEB762970FB6F894DEBF26
:100700000FBECDBF8C01F901DC011C968C917A8360
:1007100069835C834B835E834D8390819D87918148
:100720009E8792819F87813029F4CE0101960E9495
:100730003C0906C01C861B861A86198618861F82ED
:1007400083E0888B1A8A198AD801ED91FC91048480
:10075000F585E02DBE016F5F7F4FC8010995629658
:100760000FB6F894DEBF0FBECDBFDF91CF911F91C2
:100770000F9108950F931F93CF93DF93CDB7DEB7FB
:1007800062970FB6F894DEBF0FBECDBF8C01F901A2
:10079000DC011C968C917A8369835C834B835E8336
:1007A0004D8390819D8791819E8792819F87813023
:1007B00029F4CE0101960E943C0906C01C861B86C6
:1007C0001A86198618861F82188A1A8A198AD801E9
:1007D000ED91FC910484F585E02DBE016F5F7F4FA4
:1007E000C801099562960FB6F894DEBF0FBECDBF63
:1007F000DF91CF911F910F910895FC01538D448D8E
:10080000252F30E0842F90E0821B930B541710F0BB
:10081000CF96089501970895FC01918D828D9817C8
:1008200061F0828DDF01A80FB11D5D968C91928DD4
:100830009F5F9F73928F90E008958FEF9FEF0895D1
:10084000FC01918D828D981731F0828DE80FF11D9A
:10085000858D90E008958FEF9FEF0895FC01918DB5
:10086000228D892F90E0805C9F4F821B91098F73AE
:10087000992708958CE395E00E942E0421E0892BAE
:1008800009F420E0822F0895FC01848DDF01A80F78
:10089000B11DA35ABF4F2C91848D90E001968F73A8
:1008A0009927848FA689B7892C93A089B1898C91C7
:1008B00080648C93938D848D981306C00288F3898D
:1008C000E02D80818F7D80830895EF92FF920F93BA
:1008D0001F93CF93DF93EC0181E0888F9B8D8C8DEC
:1008E000981305C0E889F989808185FD24C0F62E1A
:1008F0000B8D10E00F5F1F4F0F731127E02E8C8DB3
:10090000E8120CC00FB607FCFACFE889F98980819C
:1009100085FFF5CFCE010E944404F1CF8B8DFE01FF
:10092000E80FF11DE35AFF4FF0820B8FEA89FB8934
:100930008081806207C0EE89FF896083E889F98938
:1009400080818064808381E090E0DF91CF911F916E
:100950000F91FF90EF900895CF93DF93EC01888D76
:100960008823C9F0EA89FB89808185FD05C0A889B3
:10097000B9898C9186FD0FC00FB607FCF5CF808139
:1009800085FFF2CFA889B9898C9185FFEDCFCE0183
:100990000E944404E7CFDF91CF91089580E090E07A
:1009A000892B29F00E943A0481110C9400000895CB
:1009B000089585ED8093BC008091BC0084FDFCCF40
:1009C0001092150508950895E09113048091120482
:1009D000E81730F4F0E0EA58FB4F808190E008958A
:1009E0008FEF9FEF08959091130480911204981750
:1009F00050F4E92FF0E0EA58FB4F208130E09F5F90
:100A00009093130402C02FEF3FEFC9010895809126
:100A1000120490E020911304821B91090895CF9253
:100A2000DF92EF92FF920F931F93CF93DF937C019E
:100A30008A0180911605882389F0EB016B01C40EB1
:100A4000D51ECC15DD05F1F06991D701ED91FC9132
:100A50000190F081E02DC7010995F3CF842F413239
:100A600088F490911505943069F44093BD04FB011E
:100A70002BE934E0D9019A2F921B981718F4919121
:100A80009D93F9CFC801DF91CF911F910F91FF90F6
:100A9000EF90DF90CF900895209116052223C9F0A2
:100AA00020913905203240F021E030E0FC01338311
:100AB000228380E090E0089580911705E82FF0E010
:100AC000E85EFA4F60838F5F809317058093390546
:100AD00009C080911505843029F481E08093BD041C
:100AE00060939B0481E090E00895089580E090E099
:100AF00008950E9445241F920F920FB60F92112461
:100B00002F933F934F935F936F937F938F939F9315
:100B1000AF93BF93EF93FF938CE395E00E9444045F
:100B2000FF91EF91BF91AF919F918F917F916F91C5
:100B30005F914F913F912F910F900FBE0F901F909B
:100B400018951F920F920FB60F9211242F938F9327
:100B50009F93EF93FF93E0914C05F0914D058081B9
:100B6000E0915205F091530582FD12C09081809171
:100B700055058F5F8F7320915605821751F0E091D4
:100B80005505F0E0E45CFA4F958F8093550501C060
:100B90008081FF91EF919F918F912F910F900FBEC8
:100BA0000F901F901895833081F028F4813099F0D0
:100BB0008230A1F008958730A9F08830B9F08430F0
:100BC000D1F4809180008F7D03C0809180008F7769
:100BD00080938000089584B58F7702C084B58F7D9F
:100BE00084BD08958091B0008F7703C08091B000DC
:100BF0008F7D8093B00008951F93CF93DF93282FAC
:100C000030E0F901E156FE4F8491F901ED54FE4FB9
:100C1000D491F901EF52FE4FC491CC23C9F0162FA5
:100C200081110E94D305EC2FF0E0EE0FFF1FEB5671
:100C3000FE4FA591B4918FB7F894111105C09C9106
:100C4000ED2FE095E92302C0EC91ED2BEC938FBFE3
:100C5000DF91CF911F910895CF93DF9390E0FC0136
:100C6000ED54FE4F2491FC01EF52FE4F84918823F6
:100C700061F190E0880F991FFC01E557FE4FC59187
:100C8000D491FC01EB56FE4FA591B491611109C0BE
:100C90009FB7F8948881209582238883EC912E2336
:100CA0000BC0623061F49FB7F8943881822F809531
:100CB00083238883EC912E2B2C939FBF06C08FB784
:100CC000F894E8812E2B28838FBFDF91CF91089570
:100CD0003FB7F8948091E3049091E404A091E50477
:100CE000B091E60426B5A89B05C02F3F19F00196E8
:100CF000A11DB11D3FBFBA2FA92F982F8827820FA2
:100D0000911DA11DB11DBC01CD0142E0660F771FF1
:100D1000881F991F4A95D1F708958F929F92AF929D
:100D2000BF92CF92DF92EF92FF926B017C010E9403
:100D300068064B015C01C114D104E104F104F1F037
:100D40000E946806DC01CB0188199909AA09BB0930
:100D5000883E9340A105B10570F321E0C21AD10885
:100D6000E108F10888EE880E83E0981EA11CB11CF2
:100D7000C114D104E104F10419F7DDCFFF90EF9025
:100D8000DF90CF90BF90AF909F908F9008952FB736
:100D9000F8946091960470919704809198049091D2
:100DA00099042FBF08951F920F920FB60F9211242E
:100DB0002F933F938F939F93AF93BF93809196040C
:100DC00090919704A0919804B09199043091E20415
:100DD00023E0230F2D3720F40196A11DB11D05C07E
:100DE00026E8230F0296A11DB11D2093E2048093F3
:100DF000960490939704A0939804B09399048091DB
:100E0000E3049091E404A091E504B091E604019616
:100E1000A11DB11D8093E3049093E404A093E50425
:100E2000B093E604BF91AF919F918F913F912F9125
:100E30000F900FBE0F901F9018951F920F920FB634
:100E40000F9211242F933F934F935F936F937F9350
:100E50008F939F93AF93BF93EF93FF93E091F5022E
:100E6000F091F6020995FF91EF91BF91AF919F919B
:100E70008F917F916F915F914F913F912F910F9043
:100E80000FBE0F901F9018951F920F920FB60F92E2
:100E900011242F933F934F935F936F937F938F937F
:100EA0009F93AF93BF93EF93FF93E091F302F09181
:100EB000F4020995FF91EF91BF91AF919F918F91AE
:100EC0007F916F915F914F913F912F910F900FBE46
:100ED0000F901F9018951F920F920FB60F9211242A
:100EE0002F933F934F935F936F937F938F939F9332
:100EF000AF93BF93EF93FF938091B900887F8036C3
:100F000009F49CC068F5883209F45BC090F4803124
:100F100009F454C038F4882309F4F3C0883009F484
:100F20004DC0F3C0883109F44CC0803209F45DC073
:100F3000ECC0803409F468C048F4803309F455C02B
:100F4000883309F0E2C080931305D5C0803509F4D9
:100F50004FC0883509F45DC0883409F0D6C0D3C0CD
:100F6000883909F4C4C0A8F4883709F467C038F494
:100F7000883609F463C0803709F460C0C6C0883879
:100F800009F4B5C0803909F45FC0803809F0BDC0EC
:100F90005BC0803B09F483C038F4803A09F466C032
:100FA000883A09F47CC0B1C0803C09F4A4C0883CF4
:100FB00009F4A1C0883B09F487C0A7C08091F00460
:100FC00010C09091120580911105981770F5E0916D
:100FD000120581E08E0F80931205F0E0EF50FB4F79
:100FE00080818093BB0085EC83C0809313058BC008
:100FF000E091120581E08E0F809312058091BB0075
:10100000F0E0EF50FB4F8083909112058091110525
:101010006BC0E091120581E08E0F809312058091E4
:10102000BB00F0E0EF50FB4F8083809114058111ED
:101030006AC081E08093EF0484EA5EC083E080931D
:1010400015051092E104CFCF8091E104803208F0C1
:101050004EC0E091E10481E08E0F8093E104809125
:10106000BB00F0E0EF53FB4F8083BDCF8091E104E4
:10107000803230F4E091E104F0E0EF53FB4F108256
:101080000E94D9046091E10470E0E091BF04F09106
:10109000C00481EC94E009951092E1042CC084E036
:1010A000809315051092BE041092BD04E091BB041C
:1010B000F091BC0409958091BD04811105C081E0C7
:1010C0008093BD0410929B04E091BE0481E08E0FDA
:1010D0008093BE04F0E0E556FB4F80818093BB0017
:1010E0009091BE048091BD04981708F47CCF85E8E8
:1010F0008093BC000AC085EC8093BC00109215055B
:1011000004C0109213050E94D904FF91EF91BF9182
:10111000AF919F918F917F916F915F914F913F918F
:101120002F910F900FBE0F901F901895DC01FB01BF
:101130004C9111965C91119712967C91342F3F71CE
:10114000330F330F832F880F35E5282F239F020E8F
:1011500020E0211D1124642F6074942F907247FDAC
:1011600021C061110BC0911104C0822F8095422FC4
:1011700011C045E5420F30E02BEA33C091110DC09C
:10118000382F4AEA349F030E30E0311D11248BEAD8
:10119000831B420F282F30E024C080E0422F40956F
:1011A000322F0EC0611111C091110CC0382F2AEAE4
:1011B000329F030E30E0311D11244BEA431B3B5A92
:1011C00020E00FC0322F30950BC0911104C085E58F
:1011D000820F3BEA03C08AEA820F90E0321B282F7D
:1011E00040E05F3F11F15523E9F0222321F0259FD4
:1011F000020E20E0211D442321F0459F040E40E013
:10120000411D332321F0359F030E30E0311D1124A1
:101210005095559F050E50E0511D1124250F450F87
:10122000350F03C03FEF4FEF2FEF7F3F09F420C092
:1012300050E0772321F0779F512D09F05F5F552310
:10124000A1F0222321F0259F020E20E0211D44233E
:1012500021F0459F040E40E0411D332321F0359FCE
:10126000030E30E0311D112403C030E040E020E0E7
:101270002083418332830895EF92FF920F931F934F
:10128000CF93DF93EC0190919A049F5F292F2770F1
:1012900020939A0490FF02C090E801C090E021FDE5
:1012A0009064247009F0906220E1290FFE013C96C1
:1012B0007E018FE0E80EF11C00E011E061916623F1
:1012C00031F070E0C8010E94E3226F5F01C060E06E
:1012D000DF0114976C93322F369F030E30E0311DDF
:1012E0001124CF010797311103C0EC01188203C00C
:1012F0003150EC013883662311F061506C93EE1588
:10130000FF05E1F6DF91CF911F910F91FF90EF90D4
:101310000895FF920F931F93CF93DF93DC01ED911C
:10132000FC91AF2F31E03F0F321301C030E0EF01ED
:10133000DD278B010A0F111DD801FC90DB01A30FE3
:10134000B11D3C913C9F80013D9F100D1124A0E0F8
:10135000B1E0AC1BBD0BFA9EB001FB9E700D1124D9
:10136000600F711F4E0F5F1F30E0322F2227421790
:10137000530710F0421B530BDC014D935C93872FF6
:10138000DF91CF911F910F91FF90089580E090E041
:101390000895FC01858596850895CF93DF9300D04D
:1013A00000D000D0CDB7DEB7AB011C821D821E82FB
:1013B000DC01ED91FC910190F081E02D19821A82FF
:1013C0001B829E012F5F3F4FBE016C5F7F4F0995CF
:1013D00026960FB6F894DEBF0FBECDBFDF91CF913A
:1013E0000895DC01ED91FD918081ED91FD91908159
:1013F000ED91FD916C9163708E2309F064609F23E1
:1014000009F06860EEE0FAE0E60FF11D659565957C
:101410006D936D917D918D919D91099423C01AC01A
:1014200012C016C010C01EC009C014C013C006C030
:1014300019C009C00DC007C00DC014C06250704073
:10144000804090400BC0615070408040904006C08A
:101450006E5F01C06F5F7F4F8F4F9F4F9E938E9344
:101460007E936E93089580913E0690913F060C9472
:10147000F10980913C0690913D060C94F109809110
:101480001B0490911C04019709F040C083E090E098
:1014900090931C0480931B046091140482E090E0FC
:1014A0000E94871160910D0183E090E00E948711F6
:1014B0006091160184E090E00E9487116091120112
:1014C00085E090E00E9487116091090186E090E03C
:1014D0000E94871160910B0187E090E00E948711C4
:1014E00060910E018CE090E00E94871160910301F1
:1014F0008BE090E00E9487116AE280E090E00E9419
:10150000871160E081E090E00C948711089580914C
:101510001B0490911C04892B31F482E090E090939D
:101520001C0480931B040895DC01FB0180819181E0
:1015300011969C938E938281938113969C938E93A4
:1015400012978481958115969C938E93149786812A
:1015500016968C9316978781908518969C938E93F8
:101560001797818592851A969C938E9319978385F8
:1015700094851C969C938E931B97CD010D96635F6B
:101580007F4F8617970710F40C94BC0FFD96DD96DD
:1015900080E390E0FF01DD0180FF05C002C0029002
:1015A0000E9202900E928250D0F79040C0F70895AC
:1015B0002F923F924F925F926F927F928F929F9263
:1015C000AF92BF92CF92DF92EF92FF920F931F9351
:1015D000CF93DF93CDB7DEB7CB54D1090FB6F894D4
:1015E000DEBF0FBECDBF8C01DC011796FC901797B4
:1015F0001996EC9019971B96DC90D982EA82FB82AF
:10160000BE01625C7F4FCE0101960E949608D9828E
:10161000EA82FB82BE01625C7F4FCE0101960E948E
:1016200096089EAC8FAC2196BFAD21972296BFAF96
:101630002297B801CE0101960E94940A8091180465
:10164000823009F05BC0E0901404F0901504C9806A
:10165000DA8016EC612E16E0712E60E070E000E09A
:1016600010E040E050E0F601E60FF71F98012A5322
:10167000394F4E155F0579F4D301BC90B082D90182
:1016800011969C911197918312968C918283B382CB
:101690009483858320C0D90112968C91129790E093
:1016A00024E0959587952A95E1F711962C9130E0E5
:1016B000A4E035952795AA95E1F7D301AC90B12C1C
:1016C000B4E0B594A794BA95E1F7A0822183828310
:1016D0001382148215820D5F1F4F168217821086A7
:1016E0004F5F5F4F675F7F4FB3E06B0E711C4C30F5
:1016F000510509F0B8CF04E210E002C000E010E0AC
:101700002B803C802101032C000C66087708E1E067
:101710004E1A5108610871088091190490911A04B9
:101720009C01990F440B550B28962CAF3DAF4EAF43
:101730005FAF289723E630E0D8010E94FD22980190
:10174000220F331FA901400F511F29813A81D9016E
:10175000A40FB51F2496BFAFAEAF2497C12CD12CD8
:101760007601A12CB12C9B01AC0123563109410912
:1017700051092C962CAF3DAF4EAF5FAF2C970215A1
:101780001305CCF52C966CAD7DAD8EAD9FAD2C9731
:101790006C0D7D1D8E1D9F1DA30192010E942821AD
:1017A000DA01C9010196A11DB11D2496EEADFFAD70
:1017B0002497EA0DFB1D28962CAD3DAD4EAD5FADD7
:1017C000289782179307A407B5073CF4908281827B
:1017D00022963FAD2297328303C01082118212827B
:1017E0000F5F1F4F43E0A40EB11C53E6C50ED11C82
:1017F000E11CF11CC4CF0E946A10C55BDF4F0FB61D
:10180000F894DEBF0FBECDBFDF91CF911F910F9136
:10181000FF90EF90DF90CF90BF90AF909F908F9010
:101820007F906F905F904F903F902F900895AF9270
:10183000BF92CF92DF92EF92FF920F931F93CF93BD
:10184000DF93CDB7DEB7ED970FB6F894DEBF0FBECE
:10185000CDBF7C016B015A010CE416E01E141F047D
:101860001CF4F801F086E7821C141D041CF4F80136
:10187000D286C1861A141B041CF4F801B486A38610
:10188000B801CE0101960E94940ACE0101960E94F1
:10189000D80A035C1F4FF6E0063C1F07F9F6ED96E9
:1018A0000FB6F894DEBF0FBECDBFDF91CF911F9171
:1018B0000F91FF90EF90DF90CF90BF90AF90089581
:1018C000CF93DF93CDB7DEB7ED970FB6F894DEBFB9
:1018D0000FBECDBF6CE476E0CE0101960E94940A63
:1018E000CE0101960E94D80A69E876E0CE01019601
:1018F0000E94940ACE0101960E94D80AED960FB676
:10190000F894DEBF0FBECDBFDF91CF9108951F9237
:101910000F920FB60F9211242F933F934F935F9323
:101920006F937F938F939F93AF93BF93EF93FF93A7
:1019300040911401509115012DEC66E272E08BEE9E
:1019400094E00E948909409110015091110125E80D
:1019500061EA71E089EE94E00E94890940910701F3
:101960005091080125E86CE171E087EE94E00E9457
:101970008909FF91EF91BF91AF919F918F917F91D5
:101980006F915F914F913F912F910F900FBE0F90EC
:101990001F901895CF92DF92EF92FF92CF93DF9333
:1019A000EC01688179818A819B819B01AC010E9455
:1019B000222020E030E0A9010E946A216B017C0115
:1019C0006C817D818E819F819B01AC010E942220D0
:1019D0009B01AC01C701B6010E946A216B017C0129
:1019E000688579858A859B859B01AC010E942220B0
:1019F0009B01AC01C701B6010E946A21DF91CF9122
:101A0000FF90EF90DF90CF900C948922AF92BF921D
:101A1000CF92DF92EF92FF920F931F93CF93DF93BA
:101A200000D000D000D0CDB7DEB78B01EE24E39418
:101A3000E092160578E6F72EF09238051092170519
:101A400010923905682F89ED95E00E944C050E949F
:101A5000A111E0921605F092380510921705109228
:101A60003905809115058111FCCF81E08093150522
:101A7000809314059FEF909313051092120595E043
:101A8000909311058093F0048091F004806D809311
:101A9000F0048091EF04813041F41092EF048091C2
:101AA000F0048093BB0085EC01C085EE8093BC0000
:101AB000809115058130E1F380911205863018F48C
:101AC000F090120502C066E0F62EA1EFB4E026E722
:101AD00034E0F9018E2F821B8F1518F48D918193BC
:101AE000F9CF10921304F092120486E08F1580F063
:101AF000FE0131965F016F018C2D8A198F1588F4D4
:101B000089ED95E00E94F304F60181936F01F4CF13
:101B100056E0E52E89ED95E00E94F304EA94E11089
:101B2000F9CF0E94A111F6E0FF1611F080E01AC073
:101B3000898190E0982F88272A81822BF801918350
:101B400080838B8190E0982F88272C81822B938330
:101B500082838D8190E0982F88272E81822B958318
:101B6000848381E026960FB6F894DEBF0FBECDBF0A
:101B7000DF91CF911F910F91FF90EF90DF90CF9069
:101B8000BF90AF900895161617063CF4281B390B2A
:101B9000621773077CF49B010DC06115710541F05C
:101BA000481B590B9B016417750724F49A0102C066
:101BB00020E030E0820F931F0895CF93DF93809150
:101BC0004B06823030F4F89480E496E00E94F109EC
:101BD00001C0F8948091470690914806A09149066B
:101BE000B0914A0678949C0197FF02C02D5F3F4F49
:101BF00035952795359527952115310509F466C149
:101C00006CEF6203A001639F500D1124F894840FC0
:101C1000951F092E000CAA0BBB0B809347069093CF
:101C20004806A0934906B0934A067894CC27DD274E
:101C3000C21BD30B80911804813009F429C120F014
:101C4000823009F428C13EC1E0911404F0911504DA
:101C5000EB30F10508F036C1EC5CFF4F0C94F72235
:101C600028E030E041E050E0BE0180910301909116
:101C700004010E94C30D90930401809303012091FD
:101C80001B0430911C0422303105D9F03CF421159D
:101C9000310559F02130310579F014C12330310577
:101CA00021F02430310599F00DC11C161D060CF0F1
:101CB00009C10E94870A06C1D7FF04C10E943F0ADA
:101CC00001C1D7FFFFC0019709F0FCC0F7CFD7FFD4
:101CD000F9C010921C0410921B04F4C0BE0144E031
:101CE000660F771F4A95E1F780910D012FEF30E0E5
:101CF00040E050E090E00E94C30D80930D01E2C0EF
:101D000027E030E040E050E0BE018091ED0490918A
:101D1000EE040E94C30D9093EE048093ED04880FAF
:101D2000991FFC01E556FC4F40815181FC01E557AC
:101D3000FC4F608171818FEF9FEF0E94170C8091A3
:101D4000ED049091EE04880F991FFC01E558FC4FBB
:101D5000208131813093040120930301FC01E55976
:101D6000FC4F208131813093170120931601FC0133
:101D7000E55AFC4F208131813093130120931201E9
:101D8000FC01E55BFC4F2081318130930A012093F7
:101D90000901FC01E55CFC4F2081318130930C018D
:101DA00020930B01FC01E55DFC4F808191816BC0AC
:101DB000BE0193E0660F771F9A95E1F72FEF30E0B1
:101DC00047E050E080915306909154060E94C30D65
:101DD0004FEF5FEF6FEF7FEF73C0809157069091E9
:101DE0005806480F591F509358064093570664C031
:101DF000BE0183E0660F771F8A95E1F72FEF30E091
:101E000040E050E080915506909156060E94C30D27
:101E10004FEF5FEFBC0152C0809116019091170106
:101E2000821B930B90931701809316014BC08091F6
:101E3000120190911301821B930B909313018093D5
:101E4000120140C08091090190910A01821B930BFD
:101E500090930A018093090135C080910B01909104
:101E60000C01821B930B90930C0180930B012AC0F1
:101E70002FEF30E040E050E0BE0180910E019091E4
:101E80000F010E94C30D90930F0180930E011AC0A1
:101E900082E0809318042BE030E040E050E0BE0187
:101EA00080911404909115040E94C30D9093150421
:101EB000809314044FEF5FEF6FEF7FEF8FEF9FEF93
:101EC0000E94170C1092170410921604DF91CF9104
:101ED0000895CF92DF92EF92FF920F931F93CF93CB
:101EE000DF936C017A018B01C0E0D0E0CE15DF05F5
:101EF00089F0D8016D918D01D601ED91FC91019091
:101F0000F081E02DC6010995892B11F47E0102C0F4
:101F10002196ECCFC701DF91CF911F910F91FF90D8
:101F2000EF90DF90CF900895ECE3F5E0A089B189C0
:101F300082E08C93A485B5851C92A685B7858FEC2D
:101F40008C93108EA489B58986E08C93A289B3897D
:101F50008C9180618C93A289B3898C9188608C93D9
:101F6000A289B3898C9180688C930288F389E02DD3
:101F700080818F7D8083089520E330E0FB01DC01C8
:101F800020FF05C002C001900D9201900D922250D9
:101F9000D0F73040C0F708957F928F929F92AF9212
:101FA000BF92CF92DF92EF92FF920F931F93CF9346
:101FB000DF93FC01EB017A01D90148175907C8F4F6
:101FC0002C9111969C91119712968C9112973881B1
:101FD0003C93398111963C9311973A8112963C9328
:101FE0001297288399838A839E2F8F2FFA01E92ED7
:101FF000F82EC880D12C8C9190E08C199D09969573
:10200000982F882797958795098110E01196AC90B5
:102010001197B12CA01AB10AB694BA2CAA24B7947D
:10202000A7942A8130E01296CC91D0E0C21BD30B4A
:10203000D695DC2FCC27D795C795A7014E1B5F0BF4
:1020400019F0742E452F03C07724739440E0672D58
:10205000742F0E94E3224B01C501672D742F0E944B
:10206000E3225B01CE01672D742F0E94E322880CCE
:10207000991CAA0CBB1C660F771FDC2CCC24102FDC
:102080000027322F2227DF01AA0FBB1FAE0FBF1F71
:10209000A55AB94FEE16FF0678F0ED012297D882C7
:1020A000219618833C93C80CD91C0A0D1B1D260FC2
:1020B000371F31961396EECFDF91CF911F910F917D
:1020C000FF90EF90DF90CF90BF90AF909F908F9058
:1020D0007F9008953F924F925F926F927F928F927E
:1020E0009F92AF92BF92CF92DF92EF92FF920F93A7
:1020F0001F93CF93DF9300D01F92CDB7DEB7F09040
:102100002D068091300690913106A0913206B09153
:102110003306892B8A2B8B2BE9F00E9468060091ED
:10212000F0061091F1062091F2063091F306DC01E1
:10213000CB01801B910BA20BB30B009130061091C9
:102140003106209132063091330680179107A2079D
:10215000B307B8F20E9468066093F0067093F10628
:102160008093F2069093F306E0913806F0913906D9
:10217000309759F0409134065091350660913606FB
:10218000709137068F2D0995F82E00913A05109120
:102190003B054F2C512C612C712C0115110509F4B4
:1021A00061C0D8011C96EC901C9780912E069091EE
:1021B0002F068436910510F41C961C92D801ED91DF
:1021C000FC91A280B38019821A821B82F11014C084
:1021D000F80145855685628173819E012F5F3F4FCF
:1021E000C801F5010995D8011C96EC921C9714962C
:1021F0000D911C911597D1CFF8013996CE0101961A
:102200006C0148019CE0890E911CDF0113973C9002
:102210002191332001F12223F1F0822F90E0A0E000
:10222000B0E09C01AD012F5F3F4F4F4F5F4FC301A7
:10223000B2010E94F6209B01AC01832D90E0A0E04A
:10224000B0E0BC01CD016F5F7F4F8F4F9F4F0E9469
:10225000F620D6018C93BFEFCB1ADB0AE815F905FF
:10226000A1F6B6CF8091EE069091EF068C010F5F3C
:102270001F4F1093EF060093EE0649979CF10E94C2
:10228000C7064B015C0188EE93E0089FB001099FEF
:10229000700D189F700D1124072E000C880B990BE0
:1022A000C090EA06D090EB06E090EC06F090ED06C8
:1022B000A50194012C193D094E095F090E940621D0
:1022C00030932F0620932E061092EF061092EE0602
:1022D0000E94C7066093EA067093EB068093EC06B3
:1022E0009093ED060F900F900F90DF91CF911F917B
:1022F0000F91FF90EF90DF90CF90BF90AF909F90A5
:102300008F907F906F905F904F903F9008950F93C4
:102310001F93CF93DF931F92CDB7DEB78C016983F4
:102320000E94E0206981861729F0C8010E94E820F8
:1023300081E001C080E00F90DF91CF911F910F915C
:1023400008952091390590913805213208F046C052
:10235000809115058111FCCF32E03093150531E0F5
:10236000309314053FEF309313051092120520931C
:102370001105A8E1B5E041EF54E0FA013E2F341B0E
:10238000321718F43D913193F9CF1092F004209157
:10239000F004990F922B9093F0049091EF049130F8
:1023A00041F41092EF049091F0049093BB0095ECEF
:1023B00001C095EE9093BC00909115059230E1F329
:1023C000909113059F3F79F080911305803241F081
:1023D00080911305803331F084E005C081E003C0B3
:1023E00082E001C083E01092170510923905109227
:1023F00016050895CF93C62F91E09093160598E6A1
:10240000909338051092170510923905682F89EDC1
:1024100095E00E944C056C2F89ED95E00E944C05DB
:102420000E94A11181E0CF910895CF93DF93E7EA55
:10243000F1E08491EBEBF1E0D491E9EDF1E0C491AE
:10244000CC2391F081110E94D305EC2FF0E0EE0F28
:10245000FF1FE953FE4FA591B491EC91ED2381E06C
:1024600090E021F480E002C080E090E0DF91CF9125
:1024700008956115710579F0FB0101900020E9F7DD
:102480003197AF01461B570BDC01ED91FC910280A7
:10249000F381E02D099480E090E008954F925F92DF
:1024A0006F927F92EF92FF920F931F93CF93DF93E0
:1024B000CDB7DEB7A1970FB6F894DEBF0FBECDBF84
:1024C0007C01FA01CB0119A2223008F42AE08E0126
:1024D0000F5D1F4F422E512C612C712CBF01A301A7
:1024E00092010E940621F901CA01015011096A30C6
:1024F00014F4605D01C0695CD8016C93232B242B1C
:10250000252B61F7B801C7010E943912A1960FB6B9
:10251000F894DEBF0FBECDBFDF91CF911F910F9119
:10252000FF90EF907F906F905F904F9008950F9382
:102530001F93CF93DF93EC010E9439128C016EED53
:1025400073E0CE010E943912800F911FDF91CF916D
:102550001F910F910895CF93DF93CDB7DEB7C2548B
:10256000D1090FB6F894DEBF0FBECDBF789484B505
:10257000826084BD84B5816084BD85B5826085BD7F
:1025800085B5816085BD80916E00816080936E000D
:1025900010928100809181008260809381008091FF
:1025A00081008160809381008091800081608093B0
:1025B00080008091B10084608093B1008091B00070
:1025C00081608093B00080917A00846080937A006B
:1025D00080917A00826080937A0080917A00816095
:1025E00080937A0080917A00806880937A001092BC
:1025F000C1001092290610922A0610922B06109202
:102600002C061092E7051092E8051092E905109249
:10261000EA050E94C7066B017C014B015C0108EBD7
:10262000800E0BE0901EA11CB11C0E94C7066C1509
:102630007D058E059F0528F086169706A806B90623
:10264000A0F78CE395E090932806809327060E94DC
:10265000940F0E94C7066093E7057093E805809386
:10266000E9059093EA056FEC73E08091270690915D
:1026700028060E9439120E94C7066B017C014B019B
:102680005C011AE0810E911CA11CB11C0E94C706BE
:102690006C157D058E059F0528F086169706A80601
:1026A000B906A0F781E08093FB0561EE73E08CE34F
:1026B00095E00E949712409100015091010185E040
:1026C00098E0489F9001499F300D589F300D11248C
:1026D000275E394C3093010120930001A9E3B0E358
:1026E0000E945A2190933A04809339040E94940FD7
:1026F0008CE390E090934F0680934E0684EB90E03D
:102700000E94182390934D0680934C068FEF90E023
:10271000909354068093530688EC90E0909358066B
:102720008093570684E690E0909356068093550672
:1027300080E1809352068EE790E0E12CF12CFC01C1
:1027400045915591659174912FEFE21AF20A049622
:102750004F3FA9F7EEE7F0E085909590A590B490F3
:102760009B2D5A2DA92D0FEFA12CB12C1EE7C12EA8
:1027700010E0D12E34E0C30ED11CF60145905590E7
:10278000659074909501B4E035952795BA95E1F779
:10279000822FA42CB12C442D42954F7060E1E61697
:1027A000F10478F4602F002E000C770B621773078A
:1027B0003CF00F302CF481E0800F481708F4482FCC
:1027C000042F5EAE6FAE21967FAE2197A9835A8308
:1027D0009B8350E09E01225C3F4FBE016F5F7F4FA5
:1027E00090E00E94CC0FA52D562D972D8FEFA816A7
:1027F000B10409F0BFCFE0904E06F0904F06C090B4
:102800004C06D0904D0680913004811145C0109245
:102810002204109221048FEF8093250480932604D4
:1028200080932704809328048093290480932A04AA
:1028300081E080932B0410922D0410922C041092AE
:1028400024041092230480913A0590913B05892B32
:1028500031F48FE194E090933B0580933A05E09149
:102860001D04F0911E04309721F08FE194E09583D0
:1028700084838FE194E090931E0480931D04109252
:102880002F0410922E0485E193E09093200480930E
:102890001F0481E080933004E0911F04F091200434
:1028A0000480F581E02D8FE194E00995D092220417
:1028B000C0922104F0922D04E0922C04E0911F04B8
:1028C000F09120040284F385E02D8FE194E00995D6
:1028D000009711F19C0140E050E060E472E48FE069
:1028E00090E00E942821C0903006D0903106E09000
:1028F0003206F0903306C901DA018C159D05AE054C
:10290000BF0510F4D701C6018093300690933106BD
:10291000A0933206B0933306E0913A05F0913B055F
:10292000309729F014860480F581E02DF9CF1092BC
:102930001A04109219040E94600C0E946A101092EE
:102940001304109212041092170510923905109278
:10295000150581E0809314051092EF0461E082E197
:102960000E94FC0561E083E10E94FC058091B900B2
:102970008E7F8093B9008091B9008D7F8093B900DC
:1029800088E48093B80085E48093BC0060E870E040
:102990008BE690E00E94FA1162E370E080E090E044
:1029A0000E948D0661E070E089E190E00E94FA11DA
:1029B00063E070E08BE690E00E94FA116EE170E057
:1029C00080E090E00E948D0668E170E08BE190E08D
:1029D0000E94FA116EE170E080E090E00E948D06A6
:1029E00068EE70E08CE190E00E94FA1164E170E022
:1029F00080E090E00E948D0680E090E00E94E02060
:102A00008A3241F481E090E00E94E020882311F4B2
:102A10000C94DE1D62E088E00E942C0662E08FE0EC
:102A20000E942C0662E080E10E942C0661E08EE0AC
:102A30000E942C0660E08EE00E94FC0561E086E0CA
:102A40000E942C0660E086E00E94FC0580914B0607
:102A5000823030F4F89480E496E00E94F10901C0DD
:102A6000F8947894F89410924706109248061092C1
:102A7000490610924A0678940E941512809302012A
:102A80000E94600C87E880932D060E946A106AEE0F
:102A900073E08CE395E00E94971281E090E09093C0
:102AA0001C0480931B040E94870A0E94C706672BA0
:102AB000682B692B41F40E94C706623071058105BD
:102AC000910508F417C10E94C706609371047093C2
:102AD00072048093730490937404C0906D04D0903A
:102AE0006E04E0906F04F09070046C157D058E0507
:102AF0009F0540F460936D0470936E0480936F049F
:102B000090937004C0906D04D0906E04E0906F04B8
:102B1000F09070048B019C010C191D092E093F09CE
:102B2000680179011AEFC116D104E104F10408F437
:102B3000E1C060936D0470936E0480936F04909372
:102B4000700424EF31E040E050E02093F30530932F
:102B5000F4054093F5055093F6051092F705109291
:102B6000F8051092F9051092FA058091EB05909105
:102B7000EC05A091ED05B091EE058093EF059093E3
:102B8000F005A093F105B093F2050E94C70660938B
:102B9000EB057093EC058093ED059093EE050E9494
:102BA000C7066093E7057093E8058093E905909365
:102BB000EA050E94C7066B017C0162EF73E0809119
:102BC0002706909128060E9439122AE041E050E041
:102BD00060E070E080912706909128060E944E12D6
:102BE00069EF73E080912706909128060E943912C0
:102BF0002AE0B701A60180912706909128060E943D
:102C00004E126BEF73E080912706909128060E9488
:102C100039128091EB059091EC05A091ED05B091F2
:102C2000EE05B701A601481B590B6A0B7B0B2AE086
:102C300080912706909128060E944E126BEF73E058
:102C400080912706909128060E9439124091EB0549
:102C50005091EC056091ED057091EE058091EF05C6
:102C60009091F005A091F105B091F205481B590B28
:102C70006A0B7B0B2AE080912706909128060E9420
:102C80004E126DEF73E080912706909128060E9406
:102C900039120E94C706AB01BC012AE080912706C9
:102CA000909128060E944E126FEF73E080912706E4
:102CB000909128060E9497120E94C7064B015C0162
:102CC0006B017C0132E0C30ED11CE11CF11C0E949F
:102CD000C706681579058A059B0510F00C94271E18
:102CE0000E94C7066093EB057093EC058093ED0599
:102CF0009093EE0580916B0490916C0441E08427E1
:102D000090936C0480936B0480FF7FC065E674E051
:102D100083E40E94060D6091650470916604262F7D
:102D20002F708091450490914604880F991F822747
:102D30009093460480934504072E000C880B990B52
:102D40000E94C31F69837A838B839C83609169048B
:102D500070916A04072E000C880B990B0E94C31F08
:102D60006D837E838F83988719861A861B861C86BF
:102D7000CE0101960E94CA0C6B017C014090610457
:102D80005090620460906304709064049B01AC01F5
:102D9000C301B2010E94692120E030E046E953E41A
:102DA0000E94D6219B01AC01C301B2010E9469219E
:102DB0009B01AC016093610470936204809363048F
:102DC00090936404C701B6010E94692120E030E0BD
:102DD00048E452E40E94D62120915D0430915E04C3
:102DE00040915F04509160040E946A2120E030E02D
:102DF00040E05FE30E94222060935D0470935E04D4
:102E000080935F0490936004E2C067E574E08BE315
:102E10000E94060D0091570410915804202F2F7026
:102E20008091450490914604880F991F82279093C2
:102E30004604809345046091590470915A04072E0A
:102E4000000C880B990B0E94C31F20914F043091F6
:102E5000500440915104509152040E946A214B0148
:102E60005C0160915B0470915C04072E000C880B80
:102E7000990B0E94C31F2091530430915404409138
:102E80005504509156040E946A212B013C01B8015F
:102E9000110F880B990B0E94C31F20914B04309196
:102EA0004C0440914D0450914E040E946A2124EA42
:102EB00030E74DE75FE30E94222060934B0470935C
:102EC0004C0480934D0490934E0424EA30E74DE780
:102ED0005FE3C501B4010E94222060934F04709308
:102EE0005004809351049093520424EA30E74DE754
:102EF0005FE3C301B2010E942220609353047093E8
:102F0000540480935504909356048BE494E00E94FB
:102F1000CA0C20E030E44CE156E40E94D6216B015B
:102F20007C01409018015090190160901A01709036
:102F30001B019B01AC01C301B2010E94692120E089
:102F400030E040E251E40E94D6219B01AC01C30174
:102F5000B2010E9469216093180170931901809356
:102F60001A0190931B01A70196010E9469216B0130
:102F70007C0120E030E0A9010E947E22181624F096
:102F8000F7FAF094F7F8F094C701B6010E9489228D
:102F90006B017C0120E030E040E85FE30E947E228C
:102FA00018164CF0C0924704D0924804E0924904AD
:102FB000F0924A040CC080E090E0A0E8BFE3809368
:102FC000470490934804A0934904B0934A040E9494
:102FD0001512909102018917B1F1909138049F5F09
:102FE00090933804933028F080930201813041F4AB
:102FF00013C051E0351621F062E0361669F024C0A6
:1030000081E08093180488EC90E0909317048093FB
:103010001604332433943DC080911804813041F468
:1030200080911B0490911C04892B11F40E94870A43
:10303000109218040E94600C10921704109216044B
:10304000E2E03E2E26C0312C8091160490911704A8
:1030500018161906F4F40197909317048093160438
:10306000892BB9F480911B0490911C048330910545
:1030700034F48130910544F4892B19F007C003978B
:1030800029F40E94870A02C00E943F0A84E08093CC
:1030900018040E94DD0D80914504909146048370D0
:1030A00099272091160130911701820F931F909359
:1030B0001501809314018091120190911301909356
:1030C00011018093100183E480937C0080917A0049
:1030D000806480937A0080917A0086FDFCCF809195
:1030E00078002091790090E0922B803791400CF588
:1030F00080914304909144040097C9F484E090E0E7
:1031000090931C0480931B0480914204811106C09B
:1031100081E08093420488EC90E004C01092420465
:1031200080E991E090934404809343040AC001979E
:10313000F9CF80E991E09093440480934304109286
:1031400042040E94AE1F27E730E040E050E00E94BA
:1031500028216F5F7F4F8F4F9F4F0E94C31F609347
:103160005D0470935E0480935F04909360040E94FA
:10317000AE1F23E630E040E050E00E9428216F5F60
:103180007F4F8F4F9F4F0E94C31F20E030E048ECDD
:1031900052E40E94D62160934704709348048093C0
:1031A000490490934A0440912D0650E060E070E09D
:1031B0002AE08CE395E00E944E126EED73E08CE302
:1031C00095E00E943912C0904704D0904804E090E6
:1031D0004904F0904A04A7019601C701B6010E9474
:1031E000C922882319F066E074E01AC0260137016D
:1031F000E89477F82FEF3FEF4FE75FE7C301B201A5
:103200000E94C922811111C02FEF3FEF4FE75FE706
:10321000C301B2010E94BC1F18163CF46AE074E0BE
:103220008CE395E00E94391289C02FEF3FEF4FE702
:103230005FE4C701B6010E947E2218161CF46EE0FE
:1032400074E0EECF2FEF3FEF4FE75FECC701B60121
:103250000E94BC1F87FDF3CF20E030E0A901C70129
:10326000B6010E94BC1F87FF0FC0E0913C05F091A2
:103270003D050190F081E02D6DE28CE395E009952C
:10328000F7FAF094F7F8F0942AE037ED43EA5BE3BD
:10329000C701B6010E946A212B013C010E944F2206
:1032A0006B017C010E94C11F9B01AC01C301B201F3
:1032B0000E9469212B013C012AE0B701A6018CE3A1
:1032C00095E00E944E12E0913C05F0913D05019081
:1032D000F081E02D6EE28CE395E0099520E030E08E
:1032E00040E251E4C301B2010E9422202B013C01C3
:1032F0000E944F226B01E12CF12C2AE0B701A601BC
:103300008CE395E00E944E12C701B6010E94C11FD6
:103310009B01AC01C301B2010E94692120E030E0B1
:1033200040E251E40E9422200E944F22AB0160E063
:1033300070E02AE08CE395E00E944E126EED73E09F
:103340008CE395E00E9439120E94DD0D80911B04F0
:1033500090911C048230910509F457C32CF4009716
:1033600059F0019759F126C48330910509F497C3A8
:10337000049709F4EDC31EC4109241041092400456
:1033800010923F0410923B0410923C0410923D04B2
:1033900010923E0420E030E048EC52E460915D047D
:1033A00070915E0480915F04909160040E947E227F
:1033B00018160CF0FFC30E94870AFCC390905D04AE
:1033C000A0905E04B0905F048090600420E030E044
:1033D000A901692D7A2D8B2D982D0E94BC1F87FD88
:1033E00011C020E030E04CE053E4692D7A2D8B2DA4
:1033F000982D0E947E22181664F4D12CE12C10EF37
:1034000002E40BC06DECD62E7CECE72E1CEC0DE339
:1034100004C0D92CEA2C1B2D082D40903B04509061
:103420003C0460903D0470903E04A30192016D2D18
:103430007E2D812F902F0E947E2218166CF48D2DE8
:103440009E2DA12FB02F80933B0490933C04A0931A
:103450003D04B0933E043AC060910E0170910F019B
:10346000072E000C880B990B0E94C31F20E030E050
:1034700040E256E40E94D6212AE939E949E75FE3B0
:103480000E946A219B01AC01C301B2010E9422206B
:1034900060933B0470933C0480933D0490933E04FE
:1034A0002DEC3CEC4CEC5FE30E94D6212B013C015F
:1034B0009B01AC016D2D7E2D812F902F0E947E22CD
:1034C000181624F0D42CE52C162D072D20E030E022
:1034D00040E85BE36D2D7E2D812F902F0E942220EE
:1034E0002B013C0100910D01602F70E080E090E025
:1034F0000E94C31F9B01AC01C301B2010E942220A4
:103500002B013C01E0903F042E2D30E023963FAF8D
:103510002EAF2397B901330F880B990B0E94C31F5D
:103520006B017C019B01AC01C301B2010E947E22B0
:1035300018165CF0A7019601C301B2010E94BC1FDE
:1035400087FF06C068EF7FEF05C060E170E002C052
:1035500060E070E02FEF30E040E050E023968EAD69
:103560009FAD23970E94C30D7C0180933F0460911F
:103570000B0170910C01072E000C880B990B0E9417
:10358000C31F9B01AC01692D7A2D8B2D982D0E94B4
:10359000D6212B013C016091120170911301072E7D
:1035A000000C880B990B0E94C31FA30192010E947B
:1035B0006A210E944822709311016093100160916A
:1035C000090170910A01072E000C880B990B0E94CB
:1035D000C31FA30192010E946A210E944822709396
:1035E00008016093070140904704509048046090A0
:1035F000490470904A0420E030E040E85FE3C301F2
:10360000B2010E947E22181634F4412C512C50E84D
:10361000652E5FE3752E20E030E040E052E4C30108
:10362000B2010E9422200E944822685F609FB00180
:1036300011247093410420E030E040E252E4C301E1
:10364000B2010E9422200E944822645F609FB00164
:103650001124FF24872F90E08E159F0508F4C701E1
:103660008093400420E030E040E752E4C301B2011F
:103670000E94222020E030E041E653E40E946A21CB
:1036800020E030E040EF51E40E9469210E9448228E
:10369000072E000C880B990B0E94C31F2AE939E9F9
:1036A00049E15FE30E9422200E944F2260932D0691
:1036B0000E946A103CE4E32E36E0F32E43E0942EA1
:1036C000B701CE0101960E94940A40E050E0A0E0CC
:1036D000B0E060E070E08B819C81681779070CF0A6
:1036E00025C1C0903904D0903A04C40ED51E852F50
:1036F0009927FC01E657FF4FE491ED0D2E2F30E0A6
:10370000F901E657FF4FB490F901E557FF4FA49038
:10371000FC01E557FF4F84918D0D90E0FC01E657C9
:10372000FF4F7490FC01E557FF4F8491D42ED6943F
:103730009C2D9695392F142F149F010E10E0111D0A
:103740000C2D2C2D029F000E00E0011D1124802E57
:1037500020E8C22ECD0CE72DF0E0E657FF4FE491B4
:10376000E2FD03C0F92F2C2D02C0FC2D292FE0FD16
:103770002195E1FDF1950F2F05952595201FEB2D46
:10378000F0E0E657FF4FE491E2FD03C0F92F3D2D35
:1037900001C0FD2DE0FD3195E1FDF1950F2F05955F
:1037A0003595301F321744F4231B219F020E20E071
:1037B000211D1124320F09C0E32FE21B2E2F219F60
:1037C000020E20E0211D1124321B9058E82FF0E05A
:1037D000E657FF4FE491E2FD03C02C2DC92E01C036
:1037E000292FE0FD2195E1FDC194022F2C2D259577
:1037F0000595021FB02EEA2DF0E0E657FF4FE49149
:10380000E2FD03C0892F9D2DD82EE0FD9195E1FDAD
:10381000D194092F2D2D25950595021F902F0B155D
:103820004CF42B2D201B219F020E20E0211D112482
:10383000920F08C0202F2B19219F020E20E0211D7E
:103840001124921B391754F4931B292F082D209F04
:10385000020E20E0211D1124320F09C0232F291B45
:10386000182D219F020E20E0211D1124321B3B5BED
:103870002DEE329F030E30E0311D1124232F220F35
:1038800031E02F3F08F430E0320F032F02950F7024
:103890003F70802F880F800FEEE0F0E0EC0FFD1FEF
:1038A000E80FF11D208191818281332309F431C019
:1038B0000F3011F0339602C0FE013E963295307FF4
:1038C000032F0095D080122F109F010E10E0111DC4
:1038D0002D2D239F020E20E0211D210FD180192FB5
:1038E000109F010E10E0111D912F1D2D139F010E31
:1038F00010E0111D910FE281182F109F010E10E0B2
:10390000111D812F0E2F039F000E00E0011D800F5F
:103910001124E981FA81EA0FFB1F208391838283BE
:103920006F5F7F4F1396425E5F4FD5CE0E94C706F2
:103930009B01AC0160E070EF8AE090E00E94F6200D
:10394000292F96FD2095E22FEF732F7096FD2F5FA4
:10395000E695E695E695E670F0E0ED5DFC4F818139
:10396000829F202D812D112422952F708295807F9A
:10397000282B8081280F97FD21952058192D219FF4
:10398000020E20E0211D11242F5F809139049091B7
:103990003A04820F911D90933A04809339042DE3E9
:1039A000E20EF11C36ECE31636E0F30609F088CEA1
:1039B0000E946A102DEC3CEC4CEC5EE360914704F5
:1039C000709148048091490490914A040E94BC1F60
:1039D00087FF34C020E030E040E251E460915D04B4
:1039E00070915E0480915F04909160040E94BC1FFE
:1039F00087FF24C08091050190910601009719F47A
:103A00000E943F0AD7C001971BC020911904309132
:103A10001A0424363105CCF081E090E090931C0428
:103A200080931B0480E090E0A8ECB2E480935D04F6
:103A300090935E04A0935F04B093600480E49FE1E0
:103A40009093060180930501B5C080910301909188
:103A50000401820F931F8536910514F084E690E0EF
:103A600090931A04809319040E94600C80910D01B8
:103A700048E2849F90011124309341045CE8859FC3
:103A8000900111243093400468E7869FC0011124FF
:103A900090933F042091190430911A043BC0809107
:103AA000190490911A04181619060CF04CC00197CD
:103AB00090931A04809319040E94600C20911904B9
:103AC00030911A0440910D01429FC001439F900D17
:103AD000112464E670E00E94E3228091410490E0AA
:103AE000462F861797070CF4482F40934104809186
:103AF000400490E0462F861797070CF4482F409318
:103B0000400480913F0490E0861797070CF4BC01B5
:103B100060933F0484E690E0821B930B2091120196
:103B200030911301280F391F309311012093100198
:103B30002091090130910A01820F931F909308018F
:103B40008093070137C010921C0410921B0432C0EE
:103B50008091190490911A04181619063CF40197E3
:103B600090931A04809319040E94600C809142047F
:103B7000882311F08FEF01C080E0E0914C06F091B6
:103B80004D068083118212820E946A1010924104B5
:103B90001092400480914204811103C010923F04AE
:103BA00009C080E091E090930801809307018FEFB6
:103BB00080933F040E94CE040C94551582E090E05F
:103BC0000E94E02090E0909315048093140483E019
:103BD00090E00E94E02080930D0184E090E00E943C
:103BE000E02090E0909317018093160185E090E02B
:103BF0000E94E02090E0909313018093120186E0F0
:103C000090E00E94E02090E090930A0180930901E7
:103C100087E090E00E94E02090E080589109909326
:103C20000C0180930B018CE090E00E94E02090E07A
:103C300090930F0180930E018BE090E00E94E020B2
:103C400090E090930401809303010C940A15C6162A
:103C5000D706E806F90610F00C9467160C94701657
:103C6000CF93DF9310923F0510923E0588EE93E0CC
:103C7000A0E0B0E08093400590934105A0934205F9
:103C8000B09343052FEA33E030933D0520933C0584
:103C900025EC30E0309349052093480524EC30E0D2
:103CA00030934B0520934A0520EC30E030934D05CE
:103CB00020934C0521EC30E030934F0520934E05C6
:103CC00022EC30E0309351052093500526EC30E093
:103CD00030935305209352051092550510925605C6
:103CE00010925705109258051092DC051092DB05D2
:103CF0008093DD059093DE05A093DF05B093E0058A
:103D000081EC93E09093DA058093D9051092EB054E
:103D10001092EC051092ED051092EE051092EF0551
:103D20001092F0051092F1051092F2051092F30531
:103D30001092F4051092F5051092F6051092F70511
:103D40001092F8051092F9051092FA058FEF809302
:103D50002D0610922F0610922E0610923906109200
:103D600038064FEF5FEFBA014093340650933506A3
:103D7000609336067093370624E630E030933B06B6
:103D800020933A068093C6068093C7068093C806A0
:103D90008093C9068093CA068093CB0690E89093DF
:103DA000CC061092CD069093CE061092CF0690933B
:103DB000D0061092D1061092D2061092D3068093AC
:103DC000D4061092D5061092D6068093D70680931B
:103DD000D8068093D9061092DA068093DB0695EA1E
:103DE0009093DC061092DD068093DE069093DF064A
:103DF0001092E0068093E1061092E2061092E3062C
:103E00008093E4061092E5061092E6061092E7060B
:103E10001092E8061092E90610924D0610924C0698
:103E200010928A061092890662E08FE00E942C06AA
:103E300062E080E10E942C06E0EEF1E0E491F0E027
:103E4000EE0FFF1FE953FE4FA591B491B0934106C9
:103E5000A0934006E2ECF1E0849180934406E1EE09
:103E6000F1E0E491F0E0EE0FFF1FE953FE4FC59142
:103E7000D491D0934306C0934206E3ECF1E0E49181
:103E8000E0934506109247061092480610924906A4
:103E900010924A06EBE3FFE13197F1F7EC91E8234A
:103EA00081E009F480E0288190914506922309F091
:103EB00082608093460610924B06DF91CF91089561
:103EC0008F929F92AF92BF92CF92DF92EF92FF922A
:103ED000CF93DF93EC01688179818A819B816115A1
:103EE00071058105910521F464E279ED8BE597E098
:103EF0002DE133EF41E050E00E94282149015A01B1
:103F00009B01AC01A7EAB1E40E9447216B017C014F
:103F1000ACEEB4EFA50194010E945521DC01CB0168
:103F20008C0D9D1DAE1DBF1DB7FF03C00197A109DC
:103F3000B04888839983AA83BB83BC01CD019F7756
:103F4000DF91CF91FF90EF90DF90CF90BF90AF9037
:103F50009F908F9008950E94601F089587EF92E0D0
:103F60000E94601F08956093F7027093F802809397
:103F7000F9029093FA0208950E94FE1F08F481E06E
:103F80000895E89409C097FB3EF49095809570954C
:103F900061957F4F8F4F9F4F9923A9F0F92F96E995
:103FA000BB279395F695879577956795B795F1110A
:103FB000F8CFFAF4BB0F11F460FF1BC06F5F7F4FA7
:103FC0008F4F9F4F16C0882311F096E911C07723B9
:103FD00021F09EE8872F762F05C0662371F096E8C2
:103FE000862F70E060E02AF09A95660F771F881F91
:103FF000DAF7880F9695879597F90895990F000835
:10400000550FAA0BE0E8FEEF16161706E807F907AA
:10401000C0F012161306E407F50798F0621B730B45
:10402000840B950B39F40A2661F0232B242B252BC6
:1040300021F408950A2609F4A140A6958FEF811D69
:10404000811D08950E9435200C94A6200E9498207E
:1040500038F00E949F2020F0952311F00C948F20BF
:104060000C94952011240C94DA200E94B72070F350
:10407000959FC1F3950F50E0551F629FF001729F0D
:10408000BB27F00DB11D639FAA27F00DB11DAA1F1C
:10409000649F6627B00DA11D661F829F2227B00D69
:1040A000A11D621F739FB00DA11D621F839FA00DF4
:1040B000611D221F749F3327A00D611D231F849F44
:1040C000600D211D822F762F6A2F11249F5750409B
:1040D0009AF0F1F088234AF0EE0FFF1FBB1F661F16
:1040E000771F881F91505040A9F79E3F510580F0DF
:1040F0000C948F200C94DA205F3FE4F3983ED4F3C5
:10410000869577956795B795F795E7959F5FC1F782
:10411000FE2B880F911D9695879597F9089597F92D
:104120009F6780E870E060E008959FEF80EC08955D
:1041300000240A9416161706180609060895002486
:104140000A9412161306140605060895092E039400
:10415000000C11F4882352F0BB0F40F4BF2B11F474
:1041600060FF04C06F5F7F4F8F4F9F4F089557FDD3
:104170009058440F551F59F05F3F71F04795880FD5
:1041800097FB991F61F09F3F79F08795089512166C
:1041900013061406551FF2CF4695F1DF08C0161618
:1041A00017061806991FF1CF8695710561050894C9
:1041B0000895E894BB2766277727CB0197F90895E0
:1041C000F999FECF92BD81BDF89A992780B50895DF
:1041D000262FF999FECF1FBA92BD81BD20BD0FB623
:1041E000F894FA9AF99A0FBE01960895DB018F931D
:1041F0009F930E944721BF91AF91A29F800D911D77
:10420000A39F900DB29F900D11240895A1E21A2E44
:10421000AA1BBB1BFD010DC0AA1FBB1FEE1FFF1F6A
:10422000A217B307E407F50720F0A21BB30BE40BBA
:10423000F50B661F771F881F991F1A9469F7609501
:104240007095809590959B01AC01BD01CF010895BB
:10425000052E97FB1EF400940E943F2157FD07D0C6
:104260000E94062107FC03D04EF40C943F21509588
:104270004095309521953F4F4F4F5F4F0895909552
:104280008095709561957F4F8F4F9F4F08950E9445
:104290005A21A59F900DB49F900DA49F800D911D54
:1042A00011240895B7FF0C9447210E944721821BD7
:1042B000930B0895A29FB001B39FC001A39F700DFF
:1042C000811D1124911DB29F700D811D1124911D1E
:1042D00008955058BB27AA270E9481210C94A6203C
:1042E0000E94982038F00E949F2020F039F49F3FD0
:1042F00019F426F40C9495200EF4E095E7FB0C9449
:104300008F20E92F0E94B72058F3BA17620773076E
:104310008407950720F079F4A6F50C94D9200EF4C3
:10432000E0950B2EBA2FA02D0B01B90190010C01C5
:10433000CA01A0011124FF27591B99F0593F50F4DD
:10434000503E68F11A16F040A22F232F342F442735
:10435000585FF3CF469537952795A795F04053952D
:10436000C9F77EF41F16BA0B620B730B840BBAF0FD
:104370009150A1F0FF0FBB1F661F771F881FC2F768
:104380000EC0BA0F621F731F841F48F4879577957C
:104390006795B795F7959E3F08F0B0CF9395880F36
:1043A00008F09927EE0F9795879508950E94EA21C6
:1043B0000C94A6200E949F2058F00E94982040F064
:1043C00029F45F3F29F00C948F2051110C94DA20CE
:1043D0000C9495200E94B72068F39923B1F35523DC
:1043E00091F3951B550BBB27AA2762177307840708
:1043F00038F09F5F5F4F220F331F441FAA1FA9F39E
:1044000035D00E2E3AF0E0E832D091505040E6958B
:10441000001CCAF72BD0FE2F29D0660F771F881FEC
:10442000BB1F261737074807AB07B0E809F0BB0BDF
:10443000802DBF01FF2793585F4F3AF09E3F5105F3
:1044400078F00C948F200C94DA205F3FE4F3983ED0
:10445000D4F3869577956795B795F7959F5FC9F7DC
:10446000880F911D9695879597F90895E1E0660F5D
:10447000771F881FBB1F621773078407BA0720F0D6
:10448000621B730B840BBA0BEE1F88F7E09508953F
:104490000E944F226894B1110C94DA2008950E9472
:1044A000BF2088F09F5798F0B92F9927B751B0F0E7
:1044B000E1F0660F771F881F991F1AF0BA95C9F7A8
:1044C00014C0B13091F00E94D920B1E008950C944D
:1044D000D920672F782F8827B85F39F0B93FCCF300
:1044E000869577956795B395D9F73EF49095809525
:1044F000709561957F4F8F4F9F4F08950E94FE1FCB
:1045000008F48FEF089519F416F40C9495200C9488
:10451000CE220E94BF20B8F39923C9F3B6F39F5768
:10452000550B87FF0E94DC220024A0E640EA9001A0
:1045300080585695979528F4805C660F771F881FE2
:1045400020F026173707480730F4621B730B840BE3
:10455000202931294A2BA695179407942025312527
:104560004A2758F7660F771F881F20F0261737074E
:10457000480730F4620B730B840B200D311D411D75
:10458000A09581F7B901842F9158880F969587954A
:1045900008950E94FE1F880B990B08959F3F31F0EC
:1045A000915020F4879577956795B795880F911D61
:1045B0009695879597F9089591505040660F771F0B
:1045C000881FD2F7089597FB072E16F4009407D0A2
:1045D00077FD09D00E94042307FC05D03EF4909596
:1045E00081959F4F0895709561957F4F0895EE0FC7
:1045F000FF1F0590F491E02D09940E945A21B7FF06
:104600000895821B930B0895AA1BBB1B51E107C0A1
:10461000AA1FBB1FA617B70710F0A61BB70B881F52
:10462000991F5A95A9F780959095BC01CD010895E1
:10463000CF93DF938230910510F482E090E0E09117
:10464000F606F091F70620E030E0C0E0D0E03097C9
:1046500011F14081518148175907C0F04817590797
:1046600061F482819381209719F09B838A832BC008
:104670009093F7068093F60626C02115310519F0B0
:104680004217530718F49A01BE01DF01EF010280BF
:10469000F381E02DDCCF2115310509F1281B390B01
:1046A0002430310590F412968D919C9113976115E9
:1046B000710521F0FB019383828304C09093F70678
:1046C0008093F606FD01329644C0FD01E20FF31F10
:1046D00081939193225031092D933C933AC02091BC
:1046E000F4063091F506232B41F42091FD02309120
:1046F000FE023093F5062093F4062091FB023091E0
:10470000FC022115310541F42DB73EB74091FF025F
:1047100050910003241B350BE091F406F091F5064F
:10472000E217F307A0F42E1B3F0B2817390778F088
:10473000AC014E5F5F4F2417350748F04E0F5F1FE7
:104740005093F5064093F4068193919302C0E0E004
:10475000F0E0CF01DF91CF9108950F931F93CF9396
:10476000DF93009709F48CC0FC0132971382128208
:104770000091F6061091F7060115110581F42081CC
:104780003181820F931F2091F4063091F50628178E
:10479000390779F5F093F506E093F40671C0D80176
:1047A00040E050E0AE17BF0750F412962D913C91B7
:1047B0001397AD012115310509F1D901F3CF9D0101
:1047C000DA013383228360817181860F971F8217FC
:1047D000930769F4EC0128813981260F371F2E5F7A
:1047E0003F4F318320838A819B8193838283452B32
:1047F00029F4F093F706E093F60642C01396FC9373
:10480000EE931297ED01499159919E01240F351FA6
:10481000E217F30771F480819181840F951F02964E
:1048200011969C938E938281938113969C938E9381
:104830001297E0E0F0E0D80112968D919C911397C9
:10484000009719F0F8018C01F6CF8D919C91980199
:104850002E5F3F4F820F931F2091F4063091F50693
:104860002817390769F4309729F41092F706109247
:10487000F60602C0138212821093F5060093F40626
:10488000DF91CF911F910F91089581E090E0F8940E
:084890000C944A24F894FFCFB8
:104898003905010200401F340034002800F0800070
:1048A800320032002F002F00CDCCD4417A736E62D3
:1048B8005D5F63707B85939EABB4C1C9CCCAC0B938
:1048C800B3ACAAA3A0A19891877665534537342E37
:1048D8002225282F3C485360747C8A9599A4A29F6E
:1048E8009A95908B8D8D8F9093969797928B8678CB
:1048F800645A4E484A4D555D6F8597ABBAC7CACAC8
:10490800C9BCB6AEA29E9E9D979289786A554941C8
:10491800373634333D45506172828F999CA2A198F5
:1049280090887F7677767B8782817C7A87919C993D
:104938008D7F7365564C494B53606F7C8B98A4B040
:10494800BAC6CAC0AF93715238261E1D2632455CBE
:10495800738998A2A9ADA89E928378726C6B7179BD
:10496800828D96989492939499A0A7A8A5A39F98AE
:10497800928F88837A6C5E50474344506171839765
:10498800A6B5C1CCD1C8BAA07E5E412C1D171B2488
:10499800344A63798C9AA1A7A59C9081766E686643
:1049A8006A727A838B8D898687888E99A1A6A6A636
:1049B800A39C9899969182827565554B5E747C711B
:1049C800575889AEB3C8D4BD834B34426D9FD6F7D0
:1049D800F5D6B5A89B8B775731191B293C6499BE2E
:1049E800BA9F87766B66676E7E959E8E755C575DFF
:1049F8005F6362615B56575664829FB8CFE0E2D925
:104A0800C39D847D7A7A7B8590988E72615C6A8179
:104A1800949D9F947A5E483D383E4A5D74808582B5
:104A28007C7773767D96B4C5C5BEB5A693826E5A5B
:104A380056595C6066696D6F696C788893A1A7A404
:104A4800A09D9E9E998D837D736D747F80786A5733
:104A580045373647647A8B938E8B8E99A8B5BEC539
:104A6800C7BCA8988E8B877F797F80807E72685EAE
:104A7800595C5C646F7D80766B6269747F8A9295FD
:104A880090867BD804D804010000000000F8068056
:104A98000000000000790579057905CD09C909C626
:104AA8000900000000BA0376032101CD09C9091ED7
:104AB800012301003131295A1B750AB400C800D2FC
:104AC80000DC00B400C000F000D2001E001E00236D
:104AD80000280028002D00F6FF1E003400330036A1
:104AE800003C003400390032002F00320032003719
:104AF800003C003200320032002F002F0030002F1F
:104B08000032002F00320031002D000300020002A5
:104B18000003000200030002000100FF00FF00FF85
:104B2800002000FF00FF00FF00FF00900060004031
:104B3800009000A000C000200000000000000065F8
:104B480004690FFD03AC042E040C042004000000CB
:104B5800004C050F057605E3040705F304E4045645
:104B68004D4450565F317C315F564D4450560D0AC6
:104B78000052756E6E696E67320052756E6E696EA0
:104B88006700564D4450455F003A323A007C005F5A
:104B9800564D445045006E616E00696E66006F7632
:024BA8006600A5
:107E0000112484B714BE81FFF0D085E080938100F7
:107E100082E08093C00088E18093C10086E0809377
:107E2000C20080E18093C4008EE0C9D0259A86E02C
:107E300020E33CEF91E0309385002093840096BBD3
:107E4000B09BFECF1D9AA8958150A9F7CC24DD24C4
:107E500088248394B5E0AB2EA1E19A2EF3E0BF2EE7
:107E6000A2D0813461F49FD0082FAFD0023811F036
:107E7000013811F484E001C083E08DD089C08234E0
:107E800011F484E103C0853419F485E0A6D080C0E4
:107E9000853579F488D0E82EFF2485D0082F10E0AE
:107EA000102F00270E291F29000F111F8ED06801E7
:107EB0006FC0863521F484E090D080E0DECF843638
:107EC00009F040C070D06FD0082F6DD080E0C81688
:107ED00080E7D80618F4F601B7BEE895C0E0D1E017
:107EE00062D089930C17E1F7F0E0CF16F0E7DF06D8
:107EF00018F0F601B7BEE89568D007B600FCFDCFD4
:107F0000A601A0E0B1E02C9130E011968C91119780
:107F100090E0982F8827822B932B1296FA010C0160
:107F200087BEE89511244E5F5F4FF1E0A038BF0790
:107F300051F7F601A7BEE89507B600FCFDCF97BE46
:107F4000E89526C08437B1F42ED02DD0F82E2BD052
:107F50003CD0F601EF2C8F010F5F1F4F84911BD097
:107F6000EA94F801C1F70894C11CD11CFA94CF0C13
:107F7000D11C0EC0853739F428D08EE10CD085E9AC
:107F80000AD08FE07ACF813511F488E018D01DD067
:107F900080E101D065CF982F8091C00085FFFCCF94
:107FA0009093C60008958091C00087FFFCCF809118
:107FB000C00084FD01C0A8958091C6000895E0E648
:107FC000F0E098E1908380830895EDDF803219F02E
:107FD00088E0F5DFFFCF84E1DECF1F93182FE3DFCA
:107FE0001150E9F7F2DF1F91089580E0E8DFEE27F6
:047FF000FF270994CA
:027FFE00040479
:0400000300007E007B
:00000001FF