:100000000C94F4000C945E0C0C94370C0C941C01B2
:100010000C941C010C941C010C941C010C941C01EC
:100020000C941C010C941C010C941C010C943506BE
:100030000C941C010C941C010C941C010C941C01CC
:100040000C94ED0B0C941C010C94BB0A0C94950AB7
:100050000C941C010C941C010C941C010C941C01AC
:100060000C94850C0C941C01DE071C082E088608D5
:100070009B08A608BA08C508D008DB08E60800FFF8
:100080001A1A80CC0000FFB3000097A0895B5A0FBA
:10009000830DC95F6035C2E907E18C24671E458E78
:1000A000086325F0150A17BE0694F778EA4B001A84
:1000B000C53E5EFCDBCB75230B2039B12158ED9595
:1000C0003857AE147D88ABA844AF4AA547868B301D
:1000D0001BA64D929EE7536FE57A3CD385E6DC691B
:1000E0005C29372EF528F4668F3641193FA101D8D7
:1000F0005049D14C84BBD05912A9C8C4878274BC62
:100100009F56A4646DC6ADBA034034D9E2FA7C7B35
:1001100005CA2693767EFF5255D4CFCE3BE32F10EF
:100120003A11B6BD1C2ADFB7AAD577F898022C9AE7
:10013000A346DD99659BA72BAC09811627FD1362A9
:100140006C6E4F71E0E8B2B97068DAF661E4FB22D8
:10015000F2C1EED2900CBFB3A2F1513391EBF90E84
:10016000EF6B31C0D61FB5C76A9DB854CCB0737958
:10017000322D7F0496FE8AECCD5DDE72431D184859
:10018000F38D80C34E42D73D9CB4970000000024FD
:100190000027002A0000000000250028002B000096
:1001A0000000080002010000030407000000000036
:1001B0000000000102040810204080010204081021
:1001C000200102040810200000000023002600295E
:1001D00000040404040404040402020202020203F0
:1001E000030303030300B51B11241FBECFEFD8E0A8
:1001F000DEBFCDBF13E0A0E0B1E0E0E9F3E402C070
:1002000005900D92AE3FB107D9F726E0AEEFB3E00F
:1002100001C01D92A43AB207E1F710E0C4EFD0E0AC
:1002200004C02197FE010E947320C33FD107C9F784
:100230000E9436110C94C6210C94000080E991E0D4
:100240000895569A0895FF920F931F93CF93DF93CB
:10025000DC01ED91FC91AF2F31E03F0F321301C073
:1002600030E0EF01DD278B010A0F111DD801FC9052
:10027000DB01A30FB11D3C913C9F80013D9F100D00
:100280001124A0E0B1E0AC1BBD0BFA9EB001FB9EB7
:10029000700D1124600F711F4E0F5F1F30E0322F61
:1002A00022274217530710F0421B530BDC014D93DA
:1002B0005C93872FDF91CF911F910F91FF9008954D
:1002C00080E090E00895FC01858596850895CF93A0
:1002D000DF9300D000D000D0CDB7DEB7AB011C82D9
:1002E0001D821E82DC01ED91FC910190F081E02DD8
:1002F00019821A821B829E012F5F3F4FBE016C5FE5
:100300007F4F099526960FB6F894DEBF0FBECDBF7E
:10031000DF91CF9108954F925F926F927F928F926B
:10032000AF92BF92CF92EF92FF920F931F93CF9312
:10033000DF933C01EB010E94820BF301278530899A
:10034000621B730B6A307105B0F3F894E881F98190
:100350005BB150648BB18F7B8BB96A859F81262FEF
:10036000291B922F2F83BF844A805B807D85FC846C
:10037000EE847F5FF394E3943E814885A984CB8427
:100380001181D20120E0C32F022F322F318111279A
:1003900088943111390F08F43FEF9195889470FDDE
:1003A000130F1795889471FD130F1795889472FD9C
:1003B000130F1795889473FD130F1795889474FD88
:1003C000130F1795889475FD130F1795889476FD74
:1003D000130F1795889477FD130F17958894232F83
:1003E0007111212F960F122F002C5BB900C017FF3F
:1003F0008BB930812227889400C000C0002C8BB9B3
:1004000031113C0F00C0002C5BB900C016FF8BB946
:1004100008F43FEFC195889400C000C0002C8BB950
:10042000F0FC230F00C0002C5BB900C015FF8BB996
:1004300027958894F1FC230F00C000C0002C8BB9D5
:100440002795889400C0002C5BB900C014FF8BB9BD
:10045000F2FC230F2795889400C000C0002C8BB9B4
:10046000F3FC230F00C0002C5BB900C013FF8BB955
:1004700027958894F4FC230F00C000C0002C8BB992
:100480002795889400C0002C5BB900C012FF8BB97F
:10049000F5FC230F2795889400C000C0002C8BB971
:1004A000F6FC230F00C0002C5BB900C011FF8BB914
:1004B00027958894F7FC230F00C000C0002C8BB94F
:1004C0002795889400C0002C5BB900C010FF8BB941
:1004D000132FF110122FCA0D00C000C0002C8BB9D1
:1004E00000C000C0002C5BB900C017FF8BB932817F
:1004F0002227889400C000C0002C8BB93111340F22
:1005000000C0002C5BB900C016FF8BB908F43FEFA8
:10051000EB0DF11D00C000C0002C8BB9E0FC230FD7
:1005200000C0002C5BB900C015FF8BB927958894DB
:10053000E1FC230F00C000C0002C8BB927958894E4
:1005400000C0002C5BB900C014FF8BB9E2FC230F84
:100550002795889400C000C0002C8BB9E3FC230FC2
:1005600000C0002C5BB900C013FF8BB9279588949D
:10057000E4FC230F00C000C0002C8BB927958894A1
:1005800000C0002C5BB900C012FF8BB9E5FC230F43
:100590002795889400C000C0002C8BB9E6FC230F7F
:1005A00000C0002C5BB900C011FF8BB9279588945F
:1005B000E7FC230F00C000C0002C8BB9279588945E
:1005C00000C0002C5BB900C010FF8BB9132FE110E5
:1005D000122F419500C000C0002C8BB94C0D00C0FB
:1005E00000C05BB900C017FF8BB931812227889406
:1005F00000C000C0002C8BB93111390F00C0002C95
:100600005BB900C016FF8BB908F43FEF9195889451
:1006100000C000C0002C8BB970FD230F00C0002C5F
:100620005BB900C015FF8BB92795889471FD230F26
:1006300000C000C0002C8BB92795889400C0002C06
:100640005BB900C014FF8BB972FD230F2795889406
:1006500000C000C0002C8BB973FD230F00C0002C1C
:100660005BB900C013FF8BB92795889474FD230FE5
:1006700000C000C0002C8BB92795889400C0002CC6
:100680005BB900C012FF8BB975FD230F27958894C5
:1006900000C000C0002C8BB976FD230F00C0002CD9
:1006A0005BB900C011FF8BB92795889477FD230FA4
:1006B00000C000C0002C8BB92795889400C0002C86
:1006C0005BB900C010FF8BB9132F7111122F960F59
:1006D00000C000C0002C8BB9119709F086CE20EE27
:1006E00031E0D2010E947920DC01CB01F4E0B69523
:1006F000A79597958795FA95D1F720E030E0A90165
:100700006AE9469E040C411D569E400D511D112460
:10071000450D511D840F951FA11DB11D893E43E05C
:100720009407A105B10508F434C0885E9340A1097F
:10073000B10942E0B695A795979587954A95D1F767
:1007400047E0849F080E211D949F200D311D112428
:10075000290F311D6091060470E0860F971F820FEC
:10076000931F40918704509188046091890470918F
:100770008A04292F3327420F531F611D711D409397
:100780008704509388046093890470938A0480934B
:10079000060478940E94820BF301708B6787DF91C7
:1007A000CF911F910F91FF90EF90CF90BF90AF909E
:1007B0008F907F906F905F904F9008950F931F934D
:1007C000CF93DF93CDB7DEB762970FB6F894DEBF55
:1007D0000FBECDBF8C01F901DC011C968C917A8390
:1007E00069835C834B835E834D8390819D87918178
:1007F0009E8792819F87813029F4CE0101960E94C5
:10080000B00D06C01C861B861A86198618861F82A4
:10081000188A1A8A198AD801ED91FC910484F58509
:10082000E02DBE016F5F7F4FC801099562960FB63C
:10083000F894DEBF0FBECDBFDF91CF911F910F9116
:1008400008950F931F93CF93DF93CDB7DEB76297D1
:100850000FB6F894DEBF0FBECDBF8C01F901DC01ED
:100860001C968C917A8369835C834B835E834D8372
:1008700090819D8791819E8792819F87813029F405
:10088000CE0101960E94B00D06C01C861B861A86FA
:10089000198618861F8283E0888B1A8A198AD801E4
:1008A000ED91FC910484F585E02DBE016F5F7F4FD3
:1008B000C801099562960FB6F894DEBF0FBECDBF92
:1008C000DF91CF911F910F9108953F924F925F92C8
:1008D0006F927F928F929F92AF92BF92CF92DF9250
:1008E000EF92FF920F931F93CF93DF9300D000D02E
:1008F00000D0CDB7DEB79E838D83FC013780C184E5
:10090000D38480910D04823009F07BC0A09009044B
:10091000B0900A0402E716E0A3E0B0E020E030E087
:1009200062E070E0E12CF12CED81FE81808191810B
:10093000AB014E58594F3A01EA14FB04D9F4820F27
:10094000931FF8019080FC01908241505109FA01F7
:100950005081FC015183F3014081FC014283ED8110
:10096000FE8180819181FC01EA0FFB1F90825183FF
:1009700042832AC0FA01408150E0689413F85595EB
:1009800047951694E1F73197E081F0E03F0154E09C
:10099000759467945A95E1F7820F931FF801808050
:1009A000912CE4E095948794EA95E1F7FC0180822C
:1009B00061824283ED81FE8180819181FC01EA0F99
:1009C000FB1F108211821282C9010696ED81FE8101
:1009D00040815181FA01E80FF91F108211821282C1
:1009E000FFEFEF1AFF0A6D5F7F4F275F3F4F0D5FED
:1009F0001F4F19966632710509F096CF04E210E098
:100A000002C000E010E080910E0490910F049C0160
:100A1000990F440B550B29833A834B835C837801F0
:100A2000EE0CFF1CE00EF11E23E630E0D8010E9420
:100A300079202B013C01812C912C5401ED81FE8108
:100A40002281338102171307ACF521503109032E9F
:100A5000000C440B550BC501B401640D751D861DBA
:100A6000971D0E94A91EDA01C9010196A11DB11DA1
:100A7000ED81FE816081718129813A814B815C81A8
:100A8000FB01EE0DFF1D82179307A407B50724F4A1
:100A9000D082C182328203C01082118212820F5F23
:100AA0001F4F33E0E30EF11C43E6840E911CA11CA2
:100AB000B11CC4CF8091160626960FB6F894DEBFFF
:100AC0000FBECDBFDF91CF911F910F91FF90EF909F
:100AD000DF90CF90BF90AF909F908F907F906F905E
:100AE0005F904F903F900C94FE0E1816190624F458
:100AF00090933D0680933C061616170624F47093D7
:100B00003F0660933E061416150624F450934106E2
:100B10004093400685E396E00C946504DC01ED917A
:100B2000FD918081ED91FD919081ED91FD916C9110
:100B300063708E2309F064609F2309F06860EBEA1C
:100B4000F5E0E60FF11D659565956D936D917D91CD
:100B50008D919D91099423C01AC012C016C010C077
:100B60001EC009C014C013C006C019C009C00DC002
:100B700007C00DC014C062507040804090400BC050
:100B8000615070408040904006C06E5F01C06F5F52
:100B90007F4F8F4F9F4F9E938E937E936E930895BA
:100BA00080912706909128060C948E058091250649
:100BB000909126060C948E0580911004909111045A
:100BC000019709F040C083E090E090931104809376
:100BD00010046091090482E090E00E941A10609174
:100BE000E40283E090E00E941A106091ED0284E03C
:100BF00090E00E941A106091E90285E090E00E9466
:100C00001A106091E00286E090E00E941A10609154
:100C1000E20287E090E00E941A106091E5028CE009
:100C200090E00E941A106091DA028BE090E00E943E
:100C30001A106AE280E090E00E941A1060E081E001
:100C400090E00C941A100895809110049091110472
:100C5000892B31F482E090E090931104809310048A
:100C6000089585E396E00C9465041F920F920FB6E9
:100C70000F9211242F933F934F935F936F937F9322
:100C80008F939F93AF93BF93EF93FF934091EB02AA
:100C90005091EC022DEC6AE072E082E094E00E9458
:100CA00023014091E7025091E80225E865E871E0F0
:100CB00080E094E00E9423014091DE025091DF0227
:100CC00025E860E071E08EEF93E00E942301FF9140
:100CD000EF91BF91AF919F918F917F916F915F91B4
:100CE0004F913F912F910F900FBE0F901F9018952D
:100CF000CF92DF92EF92FF92CF93DF93EC01688166
:100D000079818A819B819B01AC010E94A31D20E017
:100D100030E0A9010E94EB1E6B017C016C817D819A
:100D20008E819F819B01AC010E94A31D9B01AC01A0
:100D3000C701B6010E94EB1E6B017C0168857985B5
:100D40008A859B859B01AC010E94A31D9B01AC0180
:100D5000C701B6010E94EB1EDF91CF91FF90EF908B
:100D6000DF90CF900C940A20AF92BF92CF92DF9287
:100D7000EF92FF920F931F93CF93DF9300D000D099
:100D800000D0CDB7DEB78B01EE24E394E092FF04F0
:100D900078E6F72EF09221051092000510922205B8
:100DA000682F82EC95E00E94660A0E943410E0925F
:100DB000FF04F09221051092000510922205809107
:100DC000FE048111FCCF81E08093FE048093FD043A
:100DD0009FEF9093FC041092FB0495E09093FA042B
:100DE0008093D9048091D904806D8093D904809137
:100DF000D804813041F41092D8048091D9048093B2
:100E0000BB0085EC01C085EE8093BC008091FE04A0
:100E10008130E1F38091FB04863018F4F090FB04FC
:100E200002C066E0F62EAAEDB4E027E634E0F90150
:100E30008E2F821B8F1518F48D918193F9CF10920C
:100E40000804F092070486E08F1580F0FE013196C9
:100E50005F016F018C2D8A198F1588F482EC95E063
:100E60000E940D0AF60181936F01F4CF56E0E52E42
:100E700082EC95E00E940D0AEA94E110F9CF0E94FD
:100E80003410F6E0FF1611F080E01AC0898190E07E
:100E9000982F88272A81822BF801918380838B8168
:100EA00090E0982F88272C81822B938382838D81D9
:100EB00090E0982F88272E81822B9583848381E070
:100EC00026960FB6F894DEBF0FBECDBFDF91CF914F
:100ED0001F910F91FF90EF90DF90CF90BF90AF9058
:100EE0000895161617063CF4281B390B6217730772
:100EF0007CF49B010DC06115710541F0481B590B35
:100F00009B016417750724F49A0102C020E030E0C9
:100F1000820F931F0895CF93DF9380913406823020
:100F200030F4F89489E296E00E948E0501C0F894AE
:100F30008091300690913106A0913206B09133062F
:100F400078949C0197FF02C02D5F3F4F3595279500
:100F5000359527952115310509F466C16CEF6203BB
:100F6000A001639F500D1124F894840F951F092E42
:100F7000000CAA0BBB0B8093300690933106A09314
:100F80003206B09333067894CC27DD27C21BD30BEF
:100F900080910D04813009F429C120F0823009F4D8
:100FA00028C13EC1E0910904F0910A04EB30F1053B
:100FB00008F036C1EC5CFF4F0C94732028E030E061
:100FC00041E050E0BE018091DA029091DB020E9484
:100FD00071079093DB028093DA0220911004309124
:100FE000110422303105D9F03CF42115310559F0B6
:100FF0002130310579F014C12330310521F024303E
:10100000310599F00DC11C161D060CF009C10E9496
:10101000240606C1D7FF04C10E94DC0501C1D7FF29
:10102000FFC0019709F0FCC0F7CFD7FFF9C01092BD
:10103000110410921004F4C0BE0144E0660F771F43
:101040004A95E1F78091E4022FEF30E040E050E074
:1010500090E00E9471078093E402E2C027E030E054
:1010600040E050E0BE0180910404909105040E948C
:1010700071079093050480930404880F991FFC0165
:10108000EF58FC4F40815181FC01EF59FC4F6081CA
:1010900071818FEF9FEF0E947505809104049091FC
:1010A0000504880F991FFC01EF5AFC4F2081318104
:1010B0003093DB022093DA02FC01EF5BFC4F2081CE
:1010C00031813093EE022093ED02FC01EF5CFC4F86
:1010D000208131813093EA022093E902FC01EF5D27
:1010E000FC4F208131813093E1022093E002FC012A
:1010F000EF5EFC4F208131813093E3022093E202C6
:10110000FC01EF5FFC4F808191816BC0BE0193E0D9
:10111000660F771F9A95E1F72FEF30E047E050E038
:1011200080913C0690913D060E9471074FEF5FEF62
:101130006FEF7FEF73C08091400690914106480F9A
:10114000591F509341064093400664C0BE0183E09E
:10115000660F771F8A95E1F72FEF30E040E050E00F
:1011600080913E0690913F060E9471074FEF5FEF1E
:10117000BC0152C08091ED029091EE02821B930B54
:101180009093EE028093ED024BC08091E902909122
:10119000EA02821B930B9093EA028093E90240C01B
:1011A0008091E0029091E102821B930B9093E10207
:1011B0008093E00235C08091E2029091E302821BAD
:1011C000930B9093E3028093E2022AC02FEF30E06A
:1011D00040E050E0BE018091E5029091E6020E945D
:1011E00071079093E6028093E5021AC082E0809333
:1011F0000D042BE030E040E050E0BE018091090496
:1012000090910A040E94710790930A048093090444
:101210004FEF5FEF6FEF7FEF8FEF9FEF0E9475054E
:1012200010920C0410920B04DF91CF910895FC01F1
:10123000538D448D252F30E0842F90E0821B930B3B
:10124000541710F0CF96089501970895FC01918DE1
:10125000828D981761F0828DDF01A80FB11D5D9618
:101260008C91928D9F5F9F73928F90E008958FEF86
:101270009FEF0895FC01918D828D981731F0828D3A
:10128000E80FF11D858D90E008958FEF9FEF089591
:10129000FC01918D228D892F90E0805C9F4F821BF5
:1012A00091098F739927089585E295E00E94480976
:1012B00021E0892B09F420E0822F0895FC01848D20
:1012C000DF01A80FB11DA35ABF4F2C91848D90E070
:1012D00001968F739927848FA689B7892C93A0894B
:1012E000B1898C9180648C93938D848D981306C002
:1012F0000288F389E02D80818F7D80830895EF92AD
:10130000FF920F931F93CF93DF93EC0181E0888FBF
:101310009B8D8C8D981305C0E889F989808185FDA6
:1013200024C0F62E0B8D10E00F5F1F4F0F73112797
:10133000E02E8C8DE8120CC00FB607FCFACFE889BE
:10134000F989808185FFF5CFCE010E945E09F1CF3A
:101350008B8DFE01E80FF11DE35AFF4FF0820B8FDA
:10136000EA89FB898081806207C0EE89FF896083FA
:10137000E889F98980818064808381E090E0DF9151
:10138000CF911F910F91FF90EF900895CF93DF932E
:10139000EC01888D8823C9F0EA89FB89808185FD6D
:1013A00005C0A889B9898C9186FD0FC00FB607FCCE
:1013B000F5CF808185FFF2CFA889B9898C9185FF0F
:1013C000EDCFCE010E945E09E7CFDF91CF91089566
:1013D00080E090E0892B29F00E94540981110C943F
:1013E00000000895089585ED8093BC008091BC00B5
:1013F00084FDFCCF1092FE0408950895E091080446
:1014000080910704E81730F4F0E0E959FB4F808140
:1014100090E008958FEF9FEF0895909108048091D8
:101420000704981750F4E92FF0E0E959FB4F2081A9
:1014300030E09F5F9093080402C02FEF3FEFC90197
:1014400008958091070490E020910804821B91097F
:101450000895CF92DF92EF92FF920F931F93CF9355
:10146000DF937C018A018091FF04882389F0EB01DE
:101470006B01C40ED51ECC15DD05F1F06991D701C5
:10148000ED91FC910190F081E02DC7010995F3CF1A
:10149000842F413288F49091FE04943069F4409393
:1014A000AE04FB012CE834E0D9019A2F921B981767
:1014B00018F491919D93F9CFC801DF91CF911F91BD
:1014C0000F91FF90EF90DF90CF9008952091FF044F
:1014D0002223C9F020912205203240F021E030E0A3
:1014E000FC013383228380E090E008958091000521
:1014F000E82FF0E0EF5FFA4F60838F5F8093000585
:101500008093220509C08091FE04843029F481E093
:101510008093AE0460938C0481E090E00895089578
:1015200080E090E008950E94C1211F920F920FB6B3
:101530000F9211242F933F934F935F936F937F9359
:101540008F939F93AF93BF93EF93FF9385E295E0C3
:101550000E945E09FF91EF91BF91AF919F918F9192
:101560007F916F915F914F913F912F910F900FBE9F
:101570000F901F9018951F920F920FB60F92112483
:101580002F938F939F93EF93FF93E0913505F09105
:1015900036058081E0913B05F0913C0582FD12C04B
:1015A000908180913E058F5F8F7320913F05821758
:1015B00051F0E0913E05F0E0EB5DFA4F958F80939E
:1015C0003E0501C08081FF91EF919F918F912F91F6
:1015D0000F900FBE0F901F901895833081F028F464
:1015E000813099F08230A1F008958730A9F08830D9
:1015F000B9F08430D1F4809180008F7D03C0809158
:1016000080008F7780938000089584B58F7702C023
:1016100084B58F7D84BD08958091B0008F7703C01D
:101620008091B0008F7D8093B00008951F93CF9379
:10163000DF93282F30E0F901E156FE4F8491F90144
:10164000ED54FE4FD491F901EF52FE4FC491CC23DB
:10165000C9F0162F81110E94ED0AEC2FF0E0EE0F79
:10166000FF1FEB56FE4FA591B4918FB7F89411115F
:1016700005C09C91ED2FE095E92302C0EC91ED2B84
:10168000EC938FBFDF91CF911F910895CF93DF939C
:1016900090E0FC01ED54FE4F2491FC01EF52FE4F0F
:1016A0008491882361F190E0880F991FFC01E55730
:1016B000FE4FC591D491FC01EB56FE4FA591B4911C
:1016C000611109C09FB7F89488812095822388838F
:1016D000EC912E230BC0623061F49FB7F8943881EF
:1016E000822F809583238883EC912E2B2C939FBF90
:1016F00006C08FB7F894E8812E2B28838FBFDF9127
:10170000CF9108953FB7F8948091D4049091D50477
:10171000A091D604B091D70426B5A89B05C02F3F51
:1017200019F00196A11DB11D3FBFBA2FA92F982F07
:101730008827820F911DA11DB11DBC01CD0142E082
:10174000660F771F881F991F4A95D1F708958F92CA
:101750009F92AF92BF92CF92DF92EF92FF926B0176
:101760007C010E94820B4B015C01C114D104E10495
:10177000F104F1F00E94820BDC01CB018819990978
:10178000AA09BB09883E9340A105B10570F321E089
:10179000C21AD108E108F10888EE880E83E0981E8D
:1017A000A11CB11CC114D104E104F10419F7DDCF6F
:1017B000FF90EF90DF90CF90BF90AF909F908F9071
:1017C00008952FB7F89460918704709188048091F0
:1017D000890490918A042FBF08951F920F920FB62B
:1017E0000F9211242F933F938F939F93AF93BF93A7
:1017F0008091870490918804A0918904B0918A0413
:101800003091D30423E0230F2D3720F40196A11D3E
:10181000B11D05C026E8230F0296A11DB11D20931E
:10182000D3048093870490938804A0938904B09391
:101830008A048091D4049091D504A091D604B091EB
:10184000D7040196A11DB11D8093D4049093D504B3
:10185000A093D604B093D704BF91AF919F918F917D
:101860003F912F910F900FBE0F901F9018951F92D0
:101870000F920FB60F9211242F933F934F935F93C4
:101880006F937F938F939F93AF93BF93EF93FF9348
:10189000E091F502F091F6020995FF91EF91BF9169
:1018A000AF919F918F917F916F915F914F913F91F8
:1018B0002F910F900FBE0F901F9018951F920F92AF
:1018C0000FB60F9211242F933F934F935F936F9313
:1018D0007F938F939F93AF93BF93EF93FF93E09189
:1018E000F302F091F4020995FF91EF91BF91AF914E
:1018F0009F918F917F916F915F914F913F912F9128
:101900000F900FBE0F901F9018951F920F920FB659
:101910000F9211242F933F934F935F936F937F9375
:101920008F939F93AF93BF93EF93FF938091B900F1
:10193000887F803609F49CC068F5883209F45BC062
:1019400090F4803109F454C038F4882309F4F3C0CA
:10195000883009F44DC0F3C0883109F44CC080329E
:1019600009F45DC0ECC0803409F468C048F48033E9
:1019700009F455C0883309F0E2C08093FC04D5C057
:10198000803509F44FC0883509F45DC0883409F00A
:10199000D6C0D3C0883909F4C4C0A8F4883709F484
:1019A00067C038F4883609F463C0803709F460C032
:1019B000C6C0883809F4B5C0803909F45FC08038E2
:1019C00009F0BDC05BC0803B09F483C038F4803AA5
:1019D00009F466C0883A09F47CC0B1C0803C09F4BF
:1019E000A4C0883C09F4A1C0883B09F487C0A7C003
:1019F0008091D90410C09091FB048091FA0498174B
:101A000070F5E091FB0481E08E0F8093FB04F0E021
:101A1000E652FB4F80818093BB0085EC83C08093AE
:101A2000FC048BC0E091FB0481E08E0F8093FB04EB
:101A30008091BB00F0E0E652FB4F80839091FB0465
:101A40008091FA046BC0E091FB0481E08E0F8093DB
:101A5000FB048091BB00F0E0E652FB4F8083809155
:101A6000FD0481116AC081E08093D80484EA5EC0DD
:101A700083E08093FE041092D204CFCF8091D204F1
:101A8000803208F04EC0E091D20481E08E0F809346
:101A9000D2048091BB00F0E0EE54FB4F8083BDCFB9
:101AA0008091D204803230F4E091D204F0E0EE5420
:101AB000FB4F10820E94F3096091D20470E0E09124
:101AC000B004F091B10482EB94E009951092D20435
:101AD0002CC084E08093FE041092AF041092AE04F8
:101AE000E091AC04F091AD0409958091AE048111B0
:101AF00005C081E08093AE0410928C04E091AF04A5
:101B000081E08E0F8093AF04F0E0E457FB4F8081BB
:101B10008093BB009091AF048091AE04981708F4B5
:101B20007CCF85E88093BC000AC085EC8093BC0024
:101B30001092FE0404C01092FC040E94F309FF916D
:101B4000EF91BF91AF919F918F917F916F915F9135
:101B50004F913F912F910F900FBE0F901F901895AE
:101B6000EF92FF920F931F93CF93DF93EC0190912D
:101B70008B049F5F292F277020938B0490FF02C056
:101B800090E801C090E021FD9064247009F090621B
:101B900020E1290FFE013C967E018FE0E80EF11C4A
:101BA00000E011E06191662331F070E0C8010E940D
:101BB0005F206F5F01C060E0DF0114976C93322FEC
:101BC000369F030E30E0311D1124CF0107973111EC
:101BD00003C0EC01188203C03150EC013883662346
:101BE00011F061506C93EE15FF05E1F6DF91CF9196
:101BF0001F910F91FF90EF900895CF92DF92EF9297
:101C0000FF920F931F93CF93DF936C017A018B01A7
:101C1000C0E0D0E0CE15DF0589F0D8016D918D01CF
:101C2000D601ED91FC910190F081E02DC60109955E
:101C3000892B11F47E0102C02196ECCFC701DF9100
:101C4000CF911F910F91FF90EF90DF90CF9008956B
:101C5000E5E2F5E0A089B18982E08C93A485B585A1
:101C60001C92A685B7858FEC8C93108EA489B589BC
:101C700086E08C93A289B3898C9180618C93A28930
:101C8000B3898C9188608C93A289B3898C91806888
:101C90008C930288F389E02D80818F7D8083089565
:101CA00020E330E0FB01DC0120FF05C002C0019011
:101CB0000D9201900D922250D0F73040C0F7089558
:101CC0007F928F929F92AF92BF92CF92DF92EF92CC
:101CD000FF920F931F93CF93DF93FC01EB017A01E7
:101CE000D90148175907C8F42C9111969C91119766
:101CF00012968C91129738813C93398111963C93BE
:101D000011973A8112963C931297288399838A837C
:101D10009E2F8F2FFA01E92EF82EC880D12C8C919E
:101D200090E08C199D099695982F8827979587950F
:101D3000098110E01196AC901197B12CA01AB10A4C
:101D4000B694BA2CAA24B794A7942A8130E01296AC
:101D5000CC91D0E0C21BD30BD695DC2FCC27D795E6
:101D6000C795A7014E1B5F0B19F0742E452F03C0BA
:101D70007724739440E0672D742F0E945F204B01FD
:101D8000C501672D742F0E945F205B01CE01672D76
:101D9000742F0E945F20880C991CAA0CBB1C660F34
:101DA000771FDC2CCC24102F0027322F2227DF01B5
:101DB000AA0FBB1FAE0FBF1FAC5BB94FEE16FF06DD
:101DC00078F0ED012297D882219618833C93C80CB5
:101DD000D91C0A0D1B1D260F371F31961396EECF07
:101DE000DF91CF911F910F91FF90EF90DF90CF90F7
:101DF000BF90AF909F908F907F9008953F924F92A9
:101E00005F926F927F928F929F92AF92BF92CF928A
:101E1000DF92EF92FF920F931F93CF93DF9300D047
:101E20001F92CDB7DEB7F82E8091190690911A0651
:101E3000A0911B06B0911C06892B8A2B8B2BE9F0F5
:101E40000E94820B00919C0610919D0620919E0697
:101E500030919F06DC01CB01801B910BA20BB30BD1
:101E60000091190610911A0620911B0630911C064C
:101E700080179107A207B307B8F20E94820B609304
:101E80009C0670939D0680939E0690939F06E0911A
:101E90002106F0912206309759F040911D0650918D
:101EA0001E0660911F06709120068F2D0995F82E51
:101EB00000912305109124054F2C512C612C712C7D
:101EC0000115110509F461C0D8011C96EC901C970E
:101ED00080911706909118068436910510F41C968F
:101EE0001C92D801ED91FC91A280B38019821A82D4
:101EF0001B82F11014C0F8014585568562817381FB
:101F00009E012F5F3F4FC801F5010995D8011C962E
:101F1000EC921C9714960D911C911597D1CFF80156
:101F20003996CE0101966C0148019CE0890E911C06
:101F3000DF0113973C902191332001F12223F1F02E
:101F4000822F90E0A0E0B0E09C01AD012F5F3F4FF9
:101F50004F4F5F4FC301B2010E94771E9B01AC013E
:101F6000832D90E0A0E0B0E0BC01CD016F5F7F4F1A
:101F70008F4F9F4F0E94771ED6018C93BFEFCB1AD5
:101F8000DB0AE815F905A1F6B6CF80919A06909183
:101F90009B068C010F5F1F4F10939B0600939A06C0
:101FA00049979CF10E94E10B4B015C0188EE93E0A4
:101FB000089FB001099F700D189F700D1124072E06
:101FC000000C880B990BC0909606D0909706E09075
:101FD0009806F0909906A50194012C193D094E0927
:101FE0005F090E94871E30931806209317061092EF
:101FF0009B0610929A060E94E10B609396067093DE
:10200000970680939806909399060F900F900F90E3
:10201000DF91CF911F910F91FF90EF90DF90CF90C4
:10202000BF90AF909F908F907F906F905F904F90F8
:102030003F9008950F931F93CF93DF931F92CDB7D7
:10204000DEB78C0169830E94611E6981861729F0C1
:10205000C8010E94691E81E001C080E00F90DF91FD
:10206000CF911F910F910895209122059091210504
:10207000213208F046C08091FE048111FCCF32E08D
:102080003093FE0431E03093FD043FEF3093FC04C5
:102090001092FB042093FA04A1E0B5E04AED54E06D
:1020A000FA013E2F341B321718F43D913193F9CFCA
:1020B0001092D9042091D904990F922B9093D904AE
:1020C0009091D804913041F41092D8049091D904A1
:1020D0009093BB0095EC01C095EE9093BC0090915D
:1020E000FE049230E1F39091FC049F3F79F08091DF
:1020F000FC04803241F08091FC04803331F084E0B4
:1021000005C081E003C082E001C083E010920005B9
:10211000109222051092FF040895CF93C62F91E0EC
:102120009093FF0498E69093210510920005109279
:102130002205682F82EC95E00E94660A6C2F82ECE3
:1021400095E00E94660A0E94341081E0CF910895C4
:10215000CF93DF93E7EAF1E08491EBEBF1E0D491E8
:10216000E9EDF1E0C491CC2391F081110E94ED0AD8
:10217000EC2FF0E0EE0FFF1FE953FE4FA591B49155
:10218000EC91ED2381E090E021F480E002C080E05A
:1021900090E0DF91CF91089520E0DC0160FF03C063
:1021A00001C02D932D936250E0F77040D0F7089551
:1021B0006115710579F0FB0101900020E9F7319775
:1021C000AF01461B570BDC01ED91FC910280F381BE
:1021D000E02D099480E090E008954F925F926F9215
:1021E0007F92EF92FF920F931F93CF93DF93CDB720
:1021F000DEB7A1970FB6F894DEBF0FBECDBF7C014E
:10220000FA01CB0119A2223008F42AE08E010F5DF9
:102210001F4F422E512C612C712CBF01A301920142
:102220000E94871EF901CA01015011096A3014F495
:10223000605D01C0695CD8016C93232B242B252B96
:1022400061F7B801C7010E94D810A1960FB6F894A3
:10225000DEBF0FBECDBFDF91CF911F910F91FF90D9
:10226000EF907F906F905F904F900895CF93DF93A2
:10227000CDB7DEB7C754D1090FB6F894DEBF0FBE95
:10228000CDBF789484B5826084BD84B5816084BDFF
:1022900085B5826085BD85B5816085BD80916E0004
:1022A000816080936E001092810080918100826035
:1022B0008093810080918100816080938100809172
:1022C00080008160809380008091B1008460809361
:1022D000B1008091B00081608093B00080917A005D
:1022E000846080937A0080917A00826080937A0083
:1022F00080917A00816080937A0080917A00806872
:1023000080937A001092C100109212061092130668
:1023100010921406109215061092D0051092D10555
:102320001092D2051092D3050E94E10B6B017C0143
:102330004B015C0128EB820E2BE0921EA11CB11C0C
:102340000E94E10B6C157D058E059F0528F0861611
:102350009706A806B906A0F785E295E090931106C6
:10236000809310060E94280E0E94E10B6093D00516
:102370007093D1058093D2059093D3056FEC73E0F1
:1023800080911006909111060E94D8100E94E10BD6
:102390006B017C014B015C013AE0830E911CA11C96
:1023A000B11C0E94E10B6C157D058E059F0528F080
:1023B00086169706A806B906A0F781E08093E40583
:1023C0004091D7025091D80285E098E0489F900153
:1023D000499F300D589F300D1124275E394C3093A2
:1023E000D8022093D702A9E3B0E30E94DB1E9093AA
:1023F0002F0480932E040E94280E8EE190E090938B
:102400003806809337068AE590E00E9494209093E6
:102410003606809335068FEF90E090933D068093CB
:102420003C06909341068093400690933F0680932C
:102430003E0686E080933B068EE790E0E12CF12C8F
:10244000FC014591559165917491AFEFEA1AFA0A32
:1024500004964F3FA9F7EEE7F0E085909590A590A0
:10246000B4909B2D5A2DA92D0FEFA12CB12C1EE756
:10247000C12E10E0D12EFE01FE962396FFAFEEAFE7
:102480002397F4E0CF0ED11CF6014590559065904E
:1024900074909501B4E035952795BA95E1F7822FB0
:1024A000A42CB12C442D42954F7060E1E616F10446
:1024B00078F4602F002E000C770B621773073CF046
:1024C0000F302CF481E0800F481708F4482F042FB8
:1024D0005EAE6FAE21967FAE2197A9835A839B8310
:1024E00050E09E01225C3F4FBE016F5F7F4F90E046
:1024F0000E94600EA52D562D972D8FEFA816B104C2
:1025000009F0BFCFE0903706F0903806C09035064E
:10251000D090360680912504811145C01092170491
:10252000109216048FEF80931A0480931B048093FB
:102530001C0480931D0480931E0480931F0481E07B
:102540008093200410922204109221041092190406
:10255000109218048091230590912405892B31F461
:1025600084E194E09093240580932305E091120484
:10257000F0911304309721F084E194E095838483F3
:1025800084E194E090931304809312041092240445
:102590001092230485E993E090931504809314042A
:1025A00081E080932504E0911404F09115040480E7
:1025B000F581E02D84E194E00995D0921704C09252
:1025C0001604F0922204E0922104E0911404F091A8
:1025D00015040284F385E02D84E194E009950097C9
:1025E00011F19C0140E050E060E472E48FE090E083
:1025F0000E94A91EC0901906D0901A06E0901B06F2
:10260000F0901C06C901DA018C159D05AE05BF05C9
:1026100010F4D701C6018093190690931A06A0936F
:102620001B06B0931C0689E9809316060E94FE0ED5
:10263000E0912305F0912405309729F01486048059
:10264000F581E02DF9CF10920F0410920E040E9434
:102650003106E0902305F0902405E114F104B1F077
:10266000D70112968D919C911397009759F01D9662
:102670006D917C911E979B01220F331F620F731F78
:102680000E94CC10F701E480F580E7CF1092080497
:102690001092070410920005109222051092FE0479
:1026A00081E08093FD041092D80461E082E10E94F1
:1026B000160B61E083E10E94160B8091B9008E7FBA
:1026C0008093B9008091B9008D7F8093B90088E430
:1026D0008093B80085E48093BC0060E870E08BE6EE
:1026E00090E00E948D1062E370E080E090E00E9434
:1026F000A70B61E070E089E190E00E948D1063E03B
:1027000070E08BE690E00E948D106EE170E080E05A
:1027100090E00E94A70B68E170E08BE190E00E94DE
:102720008D106EE170E080E090E00E94A70B68EEF3
:1027300070E08CE190E00E948D1064E170E080E038
:1027400090E00E94A70B80E090E00E94611E8A3218
:1027500041F481E090E00E94611E882311F40C9402
:10276000651B62E088E00E94460B62E08FE00E94F9
:10277000460B62E080E10E94460B61E08EE00E9421
:10278000460B60E08EE00E94160B61E086E00E943E
:10279000460B60E086E00E94160B80913406823082
:1027A00030F4F89489E296E00E948E0501C0F89416
:1027B0007894F894109230061092310610923206F6
:1027C0001092330678940E94A8108093D9020E9438
:1027D000310661EE73E085E295E00E94D8106EED5F
:1027E00073E085E295E00E94D8100E9424064E0115
:1027F000FEE08F0E911C0E94E10B672B682B692B6A
:1028000041F40E94E10B623071058105910508F4E5
:102810001CC10E94E10B6093630470936404809375
:10282000650490936604C0905F04D0906004E090CB
:102830006104F09062046C157D058E059F0540F4DF
:1028400060935F04709360048093610490936204CA
:10285000C0905F04D0906004E0906104F090620446
:102860009B01AC012C193D094E095F0969017A01F0
:102870003AEFC316D104E104F10408F4E6C0609312
:102880005F0470936004809361049093620484EF0A
:1028900091E0A0E0B0E08093DC059093DD05A0938B
:1028A000DE05B093DF051092E0051092E10510926D
:1028B000E2051092E3058091D4059091D505A09191
:1028C000D605B091D7058093D8059093D905A093EC
:1028D000DA05B093DB050E94E10B6093D405709399
:1028E000D5058093D6059093D7050E94E10B6093A0
:1028F000D0057093D1058093D2059093D3050E94A3
:10290000E10B6B017C0169EE73E080911006909100
:1029100011060E94D8102AE041E050E060E070E02B
:1029200080911006909111060E94ED1060EF73E007
:1029300080911006909111060E94D8102AE0B701EC
:10294000A60180911006909111060E94ED1062EF91
:1029500073E080911006909111060E94D81080912A
:10296000D4059091D505A091D605B091D705B701B2
:10297000A601481B590B6A0B7B0B2AE080911006BD
:10298000909111060E94ED1062EF73E080911006A5
:10299000909111060E94D8104091D4055091D50510
:1029A0006091D6057091D7058091D8059091D90591
:1029B000A091DA05B091DB05481B590B6A0B7B0B24
:1029C0002AE080911006909111060E94ED1064EFAC
:1029D00073E080911006909111060E94D8100E9419
:1029E000E10BAB01BC012AE0809110069091110629
:1029F0000E94ED10E0901006F090110666EF73E073
:102A0000C7010E94D8106EED73E0C7010E94D81074
:102A10000E94E10B2B013C016B017C0192E0C90E8D
:102A2000D11CE11CF11C0E94E10B641575058605A3
:102A3000970508F093C60E94E10B6093D40570934C
:102A4000D5058093D6059093D70580915D0490912C
:102A50005E04A1E08A2790935E0480935D0480FF6A
:102A60007FC067E574E083E40E94B4066091570478
:102A700070915804262F2F7080913704909138045C
:102A8000880F991F82279093380480933704072E6C
:102A9000000C880B990B0E94441D69837A838B83F9
:102AA0009C8360915B0470915C04072E000C880B82
:102AB000990B0E94441D6D837E838F8398871986AE
:102AC0001A861B861C86CE0101960E9478066B0131
:102AD0007C014090530450905404609055047090D1
:102AE00056049B01AC01C301B2010E94EA1E20E022
:102AF00030E046E953E40E94571F9B01AC01C3013B
:102B0000B2010E94EA1E9B01AC01609353047093D2
:102B100054048093550490935604C701B6010E9453
:102B2000EA1E20E030E048E452E40E94571F209162
:102B30004F043091500440915104509152040E942E
:102B4000EB1E20E030E040E05FE30E94A31D6093B5
:102B50004F04709350048093510490935204E2C048
:102B600069E474E08BE30E94B4060091490410917B
:102B70004A04202F2F708091370490913804880FD9
:102B8000991F8227909338048093370460914B04F7
:102B900070914C04072E000C880B990B0E94441D69
:102BA00020914104309142044091430450914404E7
:102BB0000E94EB1E5B016C0160914D0470914E040C
:102BC000072E000C880B990B0E94441D2091450490
:102BD0003091460440914704509148040E94EB1EF6
:102BE0002B013C01B801110F880B990B0E94441D69
:102BF00020913D0430913E0440913F0450914004A7
:102C00000E94EB1E24EA30E74DE75FE30E94A31D1C
:102C100060933D0470933E0480933F04909340047E
:102C200024EA30E74DE75FE3C601B5010E94A31D2A
:102C3000609341047093420480934304909344044E
:102C400024EA30E74DE75FE3C301B2010E94A31D10
:102C5000609345047093460480934704909348041E
:102C60008DE394E00E94780620E030E44CE156E4E5
:102C70000E94571F6B017C014090EF025090F002C0
:102C80006090F1027090F2029B01AC01C301B201AD
:102C90000E94EA1E20E030E040E251E40E94571F0B
:102CA0009B01AC01C301B2010E94EA1E6093EF02D6
:102CB0007093F0028093F1029093F202A7019601C3
:102CC0000E94EA1E6B017C0120E030E0A9010E9415
:102CD000FF1F181624F0F7FAF094F7F8F094C701E4
:102CE000B6010E940A206B017C0120E030E040E840
:102CF0005FE30E94FF1F18164CF0C0923904D09277
:102D00003A04E0923B04F0923C040CC080E090E076
:102D1000A0E8BFE38093390490933A04A0933B0466
:102D2000B0933C040E94A8109091D9028917D9F160
:102D300090912D049F5F90932D04933028F0809301
:102D4000D902813049F416C02496BFAD2497B13022
:102D500019F0B23079F02AC081E080930D04E8ECDC
:102D6000F0E0F0930C04E0930B04F1E02496FFAF45
:102D7000249741C080910D04813041F4809110046A
:102D800090911104892B11F40E94240610920D04D5
:102D90000E94310610920C0410920B0422E024963B
:102DA0002FAF249728C024961FAE249780910B0440
:102DB00090910C0418161906F4F4019790930C04E2
:102DC00080930B04892BB9F4809110049091110425
:102DD0008330910534F48130910544F4892B19F046
:102DE00007C0039729F40E94240602C00E94DC0554
:102DF00084E080930D040E948B07809137049091AA
:102E00003804837099272091ED023091EE02820FF1
:102E1000931F9093EC028093EB028091E9029091D2
:102E2000EA029093E8028093E7020E942F1D27E7B1
:102E300030E040E050E00E94A91E6F5F7F4F8F4F4F
:102E40009F4F0E94441D60934F04709350048093E1
:102E50005104909352040E942F1D23E630E040E07D
:102E600050E00E94A91E6F5F7F4F8F4F9F4F0E94BF
:102E7000441D20E030E048EC52E40E94571F60936C
:102E8000390470933A0480933B0490933C040E946D
:102E90008B0780911004909111048130910571F19C
:102EA0001CF4892B49F00DC48230910509F467C3E5
:102EB000039709F4AEC305C410923604109235048A
:102EC00010923404109230041092310410923204A3
:102ED0001092330420E030E048EC52E460914F045B
:102EE0007091500480915104909152040E94FF1FF0
:102EF00018160CF0E6C30E942406E3C3D0904F04DA
:102F0000E0905004F09051040091520420E030E031
:102F1000A9016D2D7E2D8F2D902F0E943D1D87FDC7
:102F200012C020E030E04CE053E46D2D7E2D8F2D5B
:102F3000902F0E94FF1F181674F4712CA12C60EFC3
:102F4000B62E12E40BC03DEC732E4CECA42E5CECC0
:102F5000B52E1DE303C07D2C5701102F20903004A7
:102F6000309031044090320450903304A20191011A
:102F7000672D7A2D8B2D912F0E94FF1F18166CF450
:102F8000872D9A2DAB2DB12F80933004909331046F
:102F9000A0933204B09333043DC06091E502709178
:102FA000E602072E000C880B990B0E94441D20E0BE
:102FB00030E040E256E40E94571F2AE939E949E728
:102FC0005FE30E94EB1E9B01AC01C201B1010E94B4
:102FD000A31D609330047093310480933204909366
:102FE00033042DEC3CEC4CEC5FE30E94571F362E73
:102FF000472E582E692E262F372F482F592F672DF1
:103000007A2D8B2D912F0E94FF1F18161CF0732C08
:103010005201162D20E030E040E85BE3672D7A2D69
:103020008B2D912F0E94A31D2B013C01C090E40227
:103030006C2D70E080E090E00E94441D9B01AC018B
:10304000C301B2010E94A31D2B013C01A0903404D6
:10305000B12CB5010B2C000C880B990B0E94441D60
:1030600028966CAF7DAF8EAF9FAF28979B01AC01C8
:10307000C301B2010E94FF1F18167CF028962CADE8
:103080003DAD4EAD5FAD2897C301B2010E943D1D1D
:1030900087FF06C068EF7FEF05C060E170E002C007
:1030A00060E070E02FEF30E040E050E0C5010E94AA
:1030B00071075C01809334046091E2027091E30235
:1030C000072E000C880B990B0E94441D9B01AC013C
:1030D0006D2D7E2D8F2D902F0E94571F2B013C01AF
:1030E0006091E9027091EA02072E000C880B990B9F
:1030F0000E94441DA30192010E94EB1E0E94C91F61
:103100007093E8026093E7026091E0027091E1023F
:10311000072E000C880B990B0E94441DA3019201FD
:103120000E94EB1E0E94C91F7093DF026093DE02B3
:103130004090390450903A0460903B0470903C04F5
:1031400020E030E040E85FE3C301B2010E94FF1FCE
:10315000181634F4412C512C20E8622E2FE3722EE5
:1031600020E030E040E052E4C301B2010E94A31D20
:103170000E94C91F685F6C9DB001112470933604D2
:1031800020E030E040E252E4C301B2010E94A31DFE
:103190000E94C91F645F6C9D60011124BB248D2DAA
:1031A00090E08A159B0508F4C50180933504809151
:1031B0003506909136069A838983809137069091DF
:1031C00038069C838B838091390690913A069E83C2
:1031D0008D8380913B068F8380913C0690913D06C4
:1031E0009987888780913E0690913F069B878A87C2
:1031F00080914006909141069D878C8732E483162A
:1032000036E0930670F462E476E0C4010E94500E4A
:1032100040E050E0E12CF12CA0E0B0E09DEED92E92
:10322000E2C080E390E042E756E02396AEADBFAD4A
:103230002397FA01DD0180FF05C002C002900E92C3
:1032400002900E928250D0F79040C0F7E1CF60918B
:103250002E0470912F04640F751F852F9927FC0190
:10326000E657FF4FE491E70F2E2F30E0F901E657C4
:10327000FF4F0491F901E557FF4FB490FC01E5576A
:10328000FF4FE491E70F8E2F90E0FC01E657FF4FD0
:103290003491FC01E557FF4F7491C42EC694862FDC
:1032A0008695982F142F149F010E10E0111D262FC4
:1032B000269F020E20E0211D1124A22E60E86C0D35
:1032C000E32FF0E0E657FF4FE491E2FD93C0F82FC3
:1032D000362FE0FD3195E1FDF1952F2F25953595A0
:1032E000321FE02FF0E0E657FF4FE491E2FD85C08A
:1032F000082F9C2DE0FD9195E1FD0195292F059565
:103300002595201F922F23170CF079C0321B319F77
:10331000030E30E0311D1124930F8058E72FF0E0A9
:10332000E657FF4FE491E2FD74C0362F682FE0FDB1
:103330003195E1FD619565953595361FEB2DF0E0F2
:10334000E657FF4FE491E2FD03C0282F8C2DC22EDB
:10335000E0FD8195E1FDC194682F2C2D25956595A3
:10336000621F63170CF057C0361B319F030E30E00D
:10337000311D1124832F860F98170CF056C0891B1E
:10338000382F6A2D369F030E30E0311D1124930F24
:103390009B5B392F6D2D369F030E30E0311D1124BC
:1033A000932F990F31E09F3F08F430E0390F632FDE
:1033B00062956F703F70862F880F860FF401E80FBB
:1033C000F11D208191818281311139C0E981FA8119
:1033D000EE0DFF1D208391838283119683E0E80E1A
:1033E000F11C425E5F4F8B819C81A817B9070CF4DA
:1033F0002ECF52C0F62F382F6CCF0C2D7BCFE22F63
:10340000E31B3E2F319F030E30E0311D1124931B2F
:1034100084CF382F8CCF262F231B219F020E20E034
:10342000211D1124862F821BA7CF292F281B3A2D5F
:10343000239F020E20E0211D1124921BA9CF6F3083
:1034400011F0339601C0F4013295307F732F7095DF
:103450006081279F020E20E0211D639F060E60E021
:10346000611D260F6181092F079F000E00E0011DDD
:10347000639F060E60E0611D902F960F6281082FFA
:10348000079F000E00E0011D639F060E60E0611DB6
:10349000802F860F11249ACF0E94E10B9B01AC0173
:1034A00060E070EF8AE090E00E94771E292F96FD81
:1034B0002095E22FEF732F7096FD2F5FE695E6952E
:1034C000E695E670F0E0ED55FC4F8181829F202D5E
:1034D000812D112422952F708295807F282B808149
:1034E000280F97FD2195205833E0239F020E20E0FE
:1034F000211D11242F5F80912E0490912F04820FA3
:10350000911D90932F0480932E04809116060E94A3
:10351000FE0E2DEC3CEC4CEC5EE3609139047091B6
:103520003A0480913B0490913C040E943D1D87FF2A
:103530001FC020E030E040E251E460914F04709100
:10354000500480915104909152040E943D1D87FFC8
:103550000FC08091DC029091DD02009719F40E9467
:10356000DC05AFC001979093DD028093DC02A9C017
:10357000A0E4BFE1B093DD02A093DC02A2C02091E1
:103580000E0430910F042436310554F58091DA028F
:103590009091DB02820F931F8536910514F084E62B
:1035A00090E090930F0480930E040E943106809166
:1035B000E402B8E28B9F9001112430933604ECE8CA
:1035C0008E9F9001112430933504F8E78F9FC0013E
:1035D00011249093340420910E0430910F0454C0B0
:1035E00081E090E0909311048093100480E090E0DB
:1035F000A8ECB2E480934F0490935004A09351043C
:10360000B093520420E43FE13093DD022093DC02CA
:1036100058C080910E0490910F04181619060CF0F2
:103620004CC0019790930F0480930E040E943106C2
:1036300020910E0430910F044091E402429FC0019A
:10364000439F900D112464E670E00E945F208091FA
:10365000360490E0462F861797070CF4482F4093C6
:1036600036048091350490E0462F861797070CF4B6
:10367000482F409335048091340490E086179707D3
:103680000CF4BC016093340484E690E0821B930B3D
:103690002091E9023091EA02280F391F3093E802A5
:1036A0002093E7022091E0023091E102820F931F04
:1036B0009093DF028093DE0204C0109211041092F6
:1036C00010040E94E8090C94FB1382E090E00E9431
:1036D000611E90E090930A048093090483E090E0D7
:1036E0000E94611E8093E40284E090E00E94611ECB
:1036F00090E09093EE028093ED0285E090E00E94CE
:10370000611E90E09093EA028093E90286E090E0E7
:103710000E94611E90E09093E1028093E00287E0B6
:1037200090E00E94611E90E0805891099093E3021E
:103730008093E2028CE090E00E94611E90E0909302
:10374000E6028093E5028BE090E00E94611E90E02B
:103750009093DB028093DA020C94B113C616D7065D
:10376000E806F90608F05FC966C9CF93DF931092A7
:1037700028051092270588EE93E0A0E0B0E0809342
:10378000290590932A05A0932B05B0932C052FEAC9
:1037900033E0309326052093250525EC30E0309367
:1037A00032052093310524EC30E03093340520932A
:1037B000330520EC30E0309336052093350521ECBD
:1037C00030E0309338052093370522EC30E0309319
:1037D0003A052093390526EC30E030933C052093E0
:1037E0003B0510923E0510923F0510924005109245
:1037F00041051092C5051092C4058093C6059093AB
:10380000C705A093C805B093C90581EC93E09093D8
:10381000C3058093C2051092D4051092D50510926D
:10382000D6051092D7051092D8051092D90510929E
:10383000DA051092DB051092DC051092DD0510927E
:10384000DE051092DF051092E0051092E10510925E
:10385000E2051092E3058FEF80931606109218068A
:103860001092170610922206109221064FEF5FEF7A
:10387000BA0140931D0650931E0660931F06709375
:10388000200624E630E0309324062093230680931C
:1038900072068093730680937406809375068093F6
:1038A00076068093770690E89093780610927906D2
:1038B00090937A0610927B0690937C0610927D0678
:1038C00010927E0610927F068093800610928106E9
:1038D00010928206809383068093840680938506E7
:1038E000109286068093870695EA90938806109238
:1038F000890680938A0690938B0610928C0680939B
:103900008D0610928E0610928F068093900610926C
:1039100091061092920610929306109294061092BD
:103920009506109236061092350662E08FE00E94EE
:10393000460B62E080E10E94460BE0EEF1E0E4918C
:10394000F0E0EE0FFF1FE953FE4FA591B491B09345
:103950002A06A0932906E2ECF1E0849180932D06DB
:10396000E1EEF1E0E491F0E0EE0FFF1FE953FE4FCE
:10397000C591D491D0932C06C0932B06E3ECF1E0D3
:10398000E491E0932E0610923006109231061092C8
:10399000320610923306EBE3FFE13197F1F7EC9139
:1039A000E82381E009F480E0288190912E0692239B
:1039B00009F0826080932F0610923406DF91CF9138
:1039C00008958F929F92AF92BF92CF92DF92EF9223
:1039D000FF92CF93DF93EC01688179818A819B818B
:1039E000611571058105910521F464E279ED8BE59E
:1039F00097E02DE133EF41E050E00E94A91E49011C
:103A00005A019B01AC01A7EAB1E40E94C81E6B01F8
:103A10007C01ACEEB4EFA50194010E94D61EDC013E
:103A2000CB018C0D9D1DAE1DBF1DB7FF03C00197BF
:103A3000A109B04888839983AA83BB83BC01CD01C7
:103A40009F77DF91CF91FF90EF90DF90CF90BF9065
:103A5000AF909F908F9008950E94E11C089587EF8A
:103A600092E00E94E11C08956093F7027093F802BF
:103A70008093F9029093FA0208950E947F1D08F442
:103A800081E00895E89409C097FB3EF490958095F5
:103A9000709561957F4F8F4F9F4F9923A9F0F92F14
:103AA00096E9BB279395F695879577956795B79592
:103AB000F111F8CFFAF4BB0F11F460FF1BC06F5F78
:103AC0007F4F8F4F9F4F16C0882311F096E911C08A
:103AD000772321F09EE8872F762F05C0662371F0AB
:103AE00096E8862F70E060E02AF09A95660F771FBF
:103AF000881FDAF7880F9695879597F90895990F9B
:103B00000008550FAA0BE0E8FEEF16161706E807A7
:103B1000F907C0F012161306E407F50798F0621BC8
:103B2000730B840B950B39F40A2661F0232B242B9D
:103B3000252B21F408950A2609F4A140A6958FEFBC
:103B4000811D811D08950E94B61D0C94271E0E94A0
:103B5000191E38F00E94201E20F0952311F00C94BD
:103B6000101E0C94161E11240C945B1E0E94381E0D
:103B700070F3959FC1F3950F50E0551F629FF001C0
:103B8000729FBB27F00DB11D639FAA27F00DB11DD9
:103B9000AA1F649F6627B00DA11D661F829F222762
:103BA000B00DA11D621F739FB00DA11D621F839FE9
:103BB000A00D611D221F749F3327A00D611D231FBF
:103BC000849F600D211D822F762F6A2F11249F570D
:103BD00050409AF0F1F088234AF0EE0FFF1FBB1F10
:103BE000661F771F881F91505040A9F79E3F5105CF
:103BF00080F00C94101E0C945B1E5F3FE4F3983E23
:103C0000D4F3869577956795B795F795E7959F5F78
:103C1000C1F7FE2B880F911D9695879597F908950A
:103C200097F99F6780E870E060E008959FEF80EC6F
:103C3000089500240A941616170618060906089512
:103C400000240A9412161306140605060895092E78
:103C50000394000C11F4882352F0BB0F40F4BF2BE7
:103C600011F460FF04C06F5F7F4F8F4F9F4F089527
:103C700057FD9058440F551F59F05F3F71F047951D
:103C8000880F97FB991F61F09F3F79F08795089502
:103C9000121613061406551FF2CF4695F1DF08C021
:103CA000161617061806991FF1CF8695710561053E
:103CB00008940895E894BB2766277727CB0197F9E6
:103CC0000895F999FECF92BD81BDF89A992780B5E4
:103CD0000895262FF999FECF1FBA92BD81BD20BD50
:103CE0000FB6F894FA9AF99A0FBE01960895DB017F
:103CF0008F939F930E94C81EBF91AF91A29F800D8A
:103D0000911DA39F900DB29F900D11240895A1E2E3
:103D10001A2EAA1BBB1BFD010DC0AA1FBB1FEE1F45
:103D2000FF1FA217B307E407F50720F0A21BB30B90
:103D3000E40BF50B661F771F881F991F1A9469F70C
:103D400060957095809590959B01AC01BD01CF0168
:103D50000895052E97FB1EF400940E94C01E57FD87
:103D600007D00E94871E07FC03D04EF40C94C01E9F
:103D700050954095309521953F4F4F4F5F4F089597
:103D800090958095709561957F4F8F4F9F4F0895C7
:103D90000E94DB1EA59F900DB49F900DA49F800DE7
:103DA000911D11240895B7FF0C94C81E0E94C81ECF
:103DB000821B930B0895A29FB001B39FC001A39FE4
:103DC000700D811D1124911DB29F700D811D112454
:103DD000911D08955058BB27AA270E94021F0C94DA
:103DE000271E0E94191E38F00E94201E20F039F470
:103DF0009F3F19F426F40C94161E0EF4E095E7FB91
:103E00000C94101EE92F0E94381E58F3BA1762074F
:103E100073078407950720F079F4A6F50C945A1ED1
:103E20000EF4E0950B2EBA2FA02D0B01B9019001D5
:103E30000C01CA01A0011124FF27591B99F0593F19
:103E400050F4503E68F11A16F040A22F232F342F61
:103E50004427585FF3CF469537952795A795F040AF
:103E60005395C9F77EF41F16BA0B620B730B840BC4
:103E7000BAF09150A1F0FF0FBB1F661F771F881F7C
:103E8000C2F70EC0BA0F621F731F841F48F48795D4
:103E900077956795B795F7959E3F08F0B0CF9395C6
:103EA000880F08F09927EE0F9795879508950E943F
:103EB0006B1F0C94271E0E94201E58F00E94191E92
:103EC00040F029F45F3F29F00C94101E51110C941E
:103ED0005B1E0C94161E0E94381E68F39923B1F3E2
:103EE000552391F3951B550BBB27AA276217730720
:103EF000840738F09F5F5F4F220F331F441FAA1FB4
:103F0000A9F335D00E2E3AF0E0E832D0915050406F
:103F1000E695001CCAF72BD0FE2F29D0660F771F1D
:103F2000881FBB1F261737074807AB07B0E809F003
:103F3000BB0B802DBF01FF2793585F4F3AF09E3F88
:103F4000510578F00C94101E0C945B1E5F3FE4F357
:103F5000983ED4F3869577956795B795F7959F5FCB
:103F6000C9F7880F911D9695879597F90895E1E017
:103F7000660F771F881FBB1F621773078407BA0776
:103F800020F0621B730B840BBA0BEE1F88F7E095D1
:103F900008950E94D01F6894B1110C945B1E08957F
:103FA0000E94401E88F09F5798F0B92F9927B7516B
:103FB000B0F0E1F0660F771F881F991F1AF0BA95CD
:103FC000C9F714C0B13091F00E945A1EB1E00895B3
:103FD0000C945A1E672F782F8827B85F39F0B93FA5
:103FE000CCF3869577956795B395D9F73EF4909580
:103FF0008095709561957F4F8F4F9F4F08950E94D8
:104000007F1D08F48FEF089519F416F40C94161E12
:104010000C944A200E94401EB8F39923C9F3B6F3CA
:104020009F57550B87FF0E9458200024A0E640EAC6
:10403000900180585695979528F4805C660F771FFD
:10404000881F20F026173707480730F4621B730BD0
:10405000840B202931294A2BA695179407942025F3
:1040600031254A2758F7660F771F881F20F026173B
:104070003707480730F4620B730B840B200D311D9A
:10408000411DA09581F7B901842F9158880F96950D
:10409000879508959F3F31F0915020F4879577954B
:1040A0006795B795880F911D9695879597F908950F
:1040B00091505040660F771F881FD2F7089597FBE5
:1040C000072E16F4009407D077FD09D00E948020B7
:1040D00007FC05D03EF4909581959F4F089570950B
:1040E00061957F4F0895EE0FFF1F0590F491E02D2D
:1040F00009940E94DB1EB7FF0895821B930B08955D
:10410000AA1BBB1B51E107C0AA1FBB1FA617B707FD
:1041100010F0A61BB70B881F991F5A95A9F7809519
:104120009095BC01CD010895CF93DF938230910526
:1041300010F482E090E0E091A206F091A30620E066
:1041400030E0C0E0D0E0309711F140815181481754
:104150005907C0F04817590761F48281938120976D
:1041600019F09B838A832BC09093A3068093A206A9
:1041700026C02115310519F04217530718F49A018A
:10418000BE01DF01EF010280F381E02DDCCF2115BC
:10419000310509F1281B390B2430310590F41296B2
:1041A0008D919C9113976115710521F0FB0193830B
:1041B000828304C09093A3068093A206FD013296E9
:1041C00044C0FD01E20FF31F819391932250310906
:1041D0002D933C933AC02091A0063091A106232B49
:1041E00041F42091FD023091FE023093A10620930C
:1041F000A0062091FB023091FC022115310541F40B
:104200002DB73EB74091FF0250910003241B350BA0
:10421000E091A006F091A106E217F307A0F42E1B8F
:104220003F0B2817390778F0AC014E5F5F4F24171A
:10423000350748F04E0F5F1F5093A1064093A0062C
:104240008193919302C0E0E0F0E0CF01DF91CF9144
:1042500008950F931F93CF93DF93009709F48CC0B9
:10426000FC013297138212820091A2061091A306DC
:104270000115110581F420813181820F931F209156
:10428000A0063091A1062817390779F5F093A10609
:10429000E093A00671C0D80140E050E0AE17BF0720
:1042A00050F412962D913C911397AD0121153105D3
:1042B00009F1D901F3CF9D01DA01338322836081B3
:1042C0007181860F971F8217930769F4EC0128818B
:1042D0003981260F371F2E5F3F4F318320838A811C
:1042E0009B8193838283452B29F4F093A306E0936B
:1042F000A20642C01396FC93EE931297ED014991EA
:1043000059919E01240F351FE217F30771F4808144
:104310009181840F951F029611969C938E938281B2
:10432000938113969C938E931297E0E0F0E0D8016E
:1043300012968D919C911397009719F0F8018C01BA
:10434000F6CF8D919C9198012E5F3F4F820F931F66
:104350002091A0063091A1062817390769F43097FB
:1043600029F41092A3061092A20602C013821282B0
:104370001093A1060093A006DF91CF911F910F919A
:10438000089581E090E0F8940C94C621F894FFCF52
:104390007A736E625D5F63707B85939EABB4C1C9B7
:1043A000CCCAC0B9B3ACAAA3A0A198918776655333
:1043B0004537342E2225282F3C485360747C8A953B
:1043C00099A4A29F9A95908B8D8D8F909396979795
:1043D000928B8678645A4E484A4D555D6F8597ABEF
:1043E000BAC7CACAC9BCB6AEA29E9E9D979289782A
:1043F0006A554941373634333D45506172828F9951
:104400009CA2A19890887F7677767B8782817C7A40
:1044100087919C998D7F7365564C494B53606F7C97
:104420008B98A4B0BAC6CAC0AF93715238261E1D6D
:104430002632455C738998A2A9ADA89E92837872B2
:104440006C6B7179828D96989492939499A0A7A899
:10445000A5A39F98928F88837A6C5E5047434450FF
:1044600061718397A6B5C1CCD1C8BAA07E5E412C3C
:104470001D171B24344A63798C9AA1A7A59C9081AF
:10448000766E68666A727A838B8D898687888E9944
:10449000A1A6A6A6A39C9899969182827565554B74
:1044A0005E747C71575889AEB3C8D4BD834B344217
:1044B0006D9FD6F7F5D6B5A89B8B775731191B2979
:1044C0003C6499BEBA9F87766B66676E7E959E8EBA
:1044D000755C575D5F6362615B56575664829FB837
:1044E000CFE0E2D9C39D847D7A7A7B8590988E72E5
:1044F000615C6A81949D9F947A5E483D383E4A5D36
:10450000748085827C7773767D96B4C5C5BEB5A66A
:1045100093826E5A56595C6066696D6F696C7888D3
:1045200093A1A7A4A09D9E9E998D837D736D747F9A
:1045300080786A5745373647647A8B938E8B8E998D
:10454000A8B5BEC5C7BCA8988E8B877F797F8080B1
:104550007E72685E595C5C646F7D80766B626974A4
:104560007F8A929590867B3905010100401F3400B7
:1045700034002800F08000320032002F002F00CDE0
:10458000CCD441F209F209010000000000A4068029
:1045900000B400C800D200DC00B400C000F000D2BB
:1045A000001E001E002300280028002D00F6FF1E1C
:1045B000003400330036003C003400390032002F54
:1045C000003200320037003C003200320032002F4F
:1045D000002F0030002F0032002F00320031002D5C
:1045E00000030002000200030002000300020001B9
:1045F00000FF00FF00FF002000FF00FF00FF00FFA2
:10460000009000600040009000A000C0002000006A
:104610000000000000930A930A930A670163016097
:104620000100000000DE0321042101670163011E77
:10463000018B01003131295A1B750A000000007FEF
:1046400009FD0D1709C609480926093A09000000A5
:1046500000660A290A900AFD09210A0D0AFE095678
:104660004D4450565F317C315F564D4450560D0AD3
:104670000052756E6E696E6700564D4450455F007E
:0E4680003A323A007C005F564D44504500002F
:107E0000112484B714BE81FFF0D085E080938100F7
:107E100082E08093C00088E18093C10086E0809377
:107E2000C20080E18093C4008EE0C9D0259A86E02C
:107E300020E33CEF91E0309385002093840096BBD3
:107E4000B09BFECF1D9AA8958150A9F7CC24DD24C4
:107E500088248394B5E0AB2EA1E19A2EF3E0BF2EE7
:107E6000A2D0813461F49FD0082FAFD0023811F036
:107E7000013811F484E001C083E08DD089C08234E0
:107E800011F484E103C0853419F485E0A6D080C0E4
:107E9000853579F488D0E82EFF2485D0082F10E0AE
:107EA000102F00270E291F29000F111F8ED06801E7
:107EB0006FC0863521F484E090D080E0DECF843638
:107EC00009F040C070D06FD0082F6DD080E0C81688
:107ED00080E7D80618F4F601B7BEE895C0E0D1E017
:107EE00062D089930C17E1F7F0E0CF16F0E7DF06D8
:107EF00018F0F601B7BEE89568D007B600FCFDCFD4
:107F0000A601A0E0B1E02C9130E011968C91119780
:107F100090E0982F8827822B932B1296FA010C0160
:107F200087BEE89511244E5F5F4FF1E0A038BF0790
:107F300051F7F601A7BEE89507B600FCFDCF97BE46
:107F4000E89526C08437B1F42ED02DD0F82E2BD052
:107F50003CD0F601EF2C8F010F5F1F4F84911BD097
:107F6000EA94F801C1F70894C11CD11CFA94CF0C13
:107F7000D11C0EC0853739F428D08EE10CD085E9AC
:107F80000AD08FE07ACF813511F488E018D01DD067
:107F900080E101D065CF982F8091C00085FFFCCF94
:107FA0009093C60008958091C00087FFFCCF809118
:107FB000C00084FD01C0A8958091C6000895E0E648
:107FC000F0E098E1908380830895EDDF803219F02E
:107FD00088E0F5DFFFCF84E1DECF1F93182FE3DFCA
:107FE0001150E9F7F2DF1F91089580E0E8DFEE27F6
:047FF000FF270994CA
:027FFE00040479
:0400000300007E007B
:00000001FF